:1000000045C2000061C200005FC200000C944114B0
:100010005BC2000059C2000057C2000055C2000078
:1000200053C2000051C200004FC200004DC2000088
:100030004BC200000C94DB1347C2000045C2000015
:100040006DC4000041C200003FC200003DC200007C
:100050000C94D8200C94A02037C2000035C20000B8
:1000600033C2000031C200002FC200002DC20000C8
:100070000C945F4229C2000027C2000025C2000084
:1000800023C2000021C200001FC200006D6E20428A
:100090002909627B4843D403466D0B5A931A69DAE7
:1000A0003F410F0E47710B4DAF0B52E10754DC1B64
:1000B00056920957590858660F4F513E65500966C8
:1000C000A71F6C1709740C0575D5164832446821B2
:1000D0000C59C04C789B0345E62363563671D824EF
:1000E000000000202F2000203D2000072E050DD30A
:1000F00091FF080500000C0021656A2D3B1322F8D2
:1001000062073F181D1CC700B0876BF8B611EA2ABA
:10011000001F41000D2E2D07D3913D043200000633
:100120000021656A55E43023B900070018146C07F4
:100130000090876BF85611E92A001F410000030F59
:100140001E2627000000030F1E2536386700030F08
:10015000256740605000030F275188838100030FFB
:100160002750C8C3C200270000000000000067003D
:1001700000000000000050000000000000008100AE
:10018000000000000000C2000000000000504C4CC5
:10019000310D0A00504C4C300D0A005620312E36DD
:1001A000382043554E4F383638005620312E3638D9
:1001B0002043554E4F34333300202F2000203D2064
:1001C000004C4F56460D0A004552523A4343410DEA
:1001D0000A000B08105B11F81547191D1A1C1BC7E4
:1001E0001C001DB221B623EA0007022E030D04E90C
:1001F00005CA070C0B060D210E650F6A10C8119376
:10020000120315341733181819161B4321562500ED
:10021000261129592C812D353EC3424F56460D0AD1
:10022000004C454E4552520D0A004C4F56460D0AA1
:10023000004C454E4552520D0A000007024604C6C6
:1002400005260B0610C81193120313221534173F0D
:10025000182819161B432156250026110D210E655D
:100260000F6A070C160720F81E871F6B29592C816F
:100270002D353EC3FF004E2F4100454F420D0A0071
:100280004E2F41004E2F410000535300547D7DFFFF
:10029000FF4B4B7E7E0020697320756E6B6E6F770F
:1002A0006E2920557365206F6E65206F66003F20B4
:1002B000280041343530353500413435303535008E
:1002C000303000302E302E302E30003233323300BA
:1002D0003139322E3136382E302E31003235352E2E
:1002E0003235352E3235352E30003139322E313619
:1002F000382E302E3234340031000D2E2D07D3919C
:100300003D04320000060010B07155E43023B900FE
:10031000070018146C070090876BF85611E92A0043
:100320001F41002053495A453A0020444154413A64
:1003300000204352433A00204F563A002050453A9D
:10034000002046453A0020524543563A0053454E58
:10035000543A00483F207374617475732C204873BD
:100360006161626263632E2E2E2073656E64206D60
:10037000657373616765206161626263632E2E2E0F
:1003800000746F6F2073686F72742C206D696E69D2
:100390006D756D20392062797465733A20646464E8
:1003A00064646463637373737373737373004F462E
:1003B00046004F464600434D4F444500544D4F4480
:1003C0004500534D4F4445000454053D17000006B9
:1003D00002000B080C000D210E6B0FD0105C1104F5
:1003E0001206132214F80A00154421B62210181818
:1003F000192E1ABF1B431C091DB523EA242A250008
:10040000261F29592C812D352E09070408000900C3
:1004100006FF3EC2FF047605961700000602000B99
:10042000080C000D210E650F6A106A114A1206139E
:100430002214F80A00154721B622101818192E1A8E
:100440006D1B041C091DB223EA242A2500261F293E
:10045000592C812D352E0907040800090006FF3E9E
:10046000C2FF0D2E2D07D3913D043200000600106F
:10047000ABA5550A3023B900070018146C0700908B
:10048000876BF85611E92A001F41000011241FBE96
:10049000CFEFD0E4DEBFCDBF12E0A0E0B1E0E6E4F4
:1004A000F7EA00E00BBF02C007900D92AE3BB10728
:1004B000D9F722E2AEEBB2E001C01D92A437B20739
:1004C000E1F703D00C9499539BCD0FB6F894A895FF
:1004D00080916000886180936000109260000FBE80
:1004E000549A5C9A5D9A5E9A209A289A0E944137A3
:1004F00006D760E083E390E00E947B530E94573769
:100500000E94883B0E94DF3A89EF87BD84E085BD69
:1005100082E084BD80936E00109280008AE0809318
:10052000810080E890E00FB6F8948093610090938A
:1005300061000FBE84B7877F84BF88E19FE00FB65C
:10054000F894A895809360000FBE9093600089E1B5
:1005500090E80E940D210E94951B0E943F0F86E6A5
:1005600091E29093AA108093A9100E94F31589E05C
:100570008093C7020E94772328980E944E42789465
:100580000E942F210E945D116CD20E94ED1F0E94DB
:1005900077170E94A70C0E94B1220E941D1A0E9488
:1005A00036430E94E345ECCF8EBD0DB407FEFDCF70
:1005B0008EB50895EF92FF920F931F93CF93C82F9C
:1005C0008A3008F0C8E028E0C29FC0011124FC0175
:1005D000E35CFE4F7F010BE210E0F7016491C8017C
:1005E0000F5F1F4FB7D4FFEFEF1AFF0A0333110558
:1005F000A1F7C55061E1C53008F067E184E290E001
:10060000A9D4CF911F910F91FF90EF9008950F9370
:100610001F93CF93DF9304E111E0C2E0D0E0F80133
:100620006491CE01219696D40F5F1F4FCB32D10536
:10063000B1F70BEE10E0C7E3D0E0F8016491CE0112
:10064000219688D40F5F1F4FC036D105B1F74D9961
:1006500018C060E18FE090E07DD460EB80E190E035
:1006600079D461E781E190E075D460E184E490E0C1
:1006700071D460EB85E490E06DD461E786E490E0AE
:1006800069D488E097DFDF91CF911F910F91089592
:100690002C98806C89DF80E087DF2C9A0895CF93B7
:1006A000C62F2C98806480DF8C2F7EDF2C9ACF9110
:1006B00008952C9879DF2C9A08950F931F93CF9368
:1006C000DF93EC0110929107EA98249A2C9A8EE11C
:1006D00090E049D22C988EE190E045D22C9A8DE2A0
:1006E00090E041D280E3E5DF84E690E03CD22C98B4
:1006F00080E45ADF8E01075D1F4FCE0121962FD473
:1007000053DF0C171D07C9F72C9A2C988EE74CDF86
:10071000CBE2D0E0CE01219622D446DFC333D1050F
:10072000C9F72C9A83E3C5DF81E022D2DF91CF9114
:100730001F910F910895A1E0B0E0E1EAF3E00C947D
:10074000F45122E0298341E0BE016F5F7F4F0196A3
:100750006AD389812FDF82E090E0AFDF2196E2E06B
:100760000C941052CF93EA9886E3A3DFCFEF85E392
:10077000A0DF8077803231F08AE090E0F4D1C15080
:10078000C111F5CFCF910895CF93CFEF84E391DFDF
:100790008077803131F08AE090E0E5D1C150C1111D
:1007A000F5CFEA9ACF910895A2E0B0E0EAEDF3E048
:1007B0000C94F2518C01FC0181818737F1F441E006
:1007C000BE016F5F7F4FC80102962DD3892BA9F020
:1007D00041E0BE016E5F7F4FC801049624D3892B90
:1007E00061F06A8189815BDF83E363DFCDDF89812B
:1007F00015D38A8113D38DD218C041E0BE016E5F3C
:100800007F4FC80101960FD3892B79F08A818939EE
:1008100081F410E0812F3CDF01D3812F8770873076
:1008200009F477D21F5F1033A9F72296E4E00C9405
:100830000E522EDF182F83E40DD28A81EFD287EE7D
:1008400090E05AD2812FEAD283EE90E055D240E276
:1008500062E0812F90E062D2CECF86E32ADF109251
:10086000BE021092CF0210929107089582E090E0AC
:1008700024DF81E08093BE021092CF021092910794
:1008800008950F931F93CF93DF93D82FC0E0062FC7
:1008900010E085E3FDDE8D1759F0C80164D1C15029
:1008A000C111F7CF81E0DF91CF911F910F91089592
:1008B00080E0F9CF85E2ECDE8F3311F080E008951F
:1008C00086E3F7DE8091BF02811112C084E991E0D6
:1008D00013D283E3EEDE64E081E0D3DF85E2D8DE8D
:1008E0008F3361F78091BF02882329F081E008955A
:1008F0008DE3DFDEEECF8DE891E0FED1F7CF85E32B
:10090000C7DE8D3051F485E2C3DE8F3331F4D2DFA0
:1009100084E3CFDE80778031D9F708951F921FB628
:100920001F9211248F938BB78F939F93AF93BF9395
:10093000EF93FF938091C1029091C202A091C302F4
:10094000B091C4020196A11DB11D8093C102909384
:10095000C202A093C302B093C4028091C0028F5F11
:100960008093C0028091D11D8F5F8093D11D8D3700
:10097000A8F080910D0190910E01A0910F01B0910E
:1009800010010196A11DB11D80930D0190930E01E0
:10099000A0930F01B09310011092D11DEDE9F7E083
:1009A00080819181181619061CF401979183808328
:1009B000369687E0E53BF80799F78091D607909146
:1009C000D707009729F001979093D7078093D60710
:1009D0008091DA078F3F19F081508093DA07FF91F9
:1009E000EF91BF91AF919F918F918BBF8F911F908E
:1009F0001FBE1F901895FC018FB7F8944091C1025B
:100A00005091C2026091C3027091C402408351832D
:100A1000628373838FBF0895A4E0B0E0E2E1F5E064
:100A20000C94F451CE010196E6DF8C81F7D18B81D5
:100A3000F5D18A81F3D18981F1D16BD12496E2E09D
:100A40000C941052A4E0B0E0E8E2F5E00C94F4510C
:100A5000CE010196D0DF89819A812496E2E00C9440
:100A600010520F931F93CF938091C1029091C202B5
:100A7000A091C302B091C4022091C602281709F4C4
:100A800061C08091C1029091C202A091C302B09155
:100A9000C4028093C602A8950DE917E0C0E0F801F2
:100AA00080819181892B19F48C2F0E94081ECF5FC1
:100AB0000A5F1F4FC43099F78091D6079091D707EE
:100AC000892B11F40E94661E8091DA07811102C001
:100AD0000E94BF1E80918C07882339F0815080933B
:100AE0008C07811102C00E9414180E94D23B809191
:100AF000C0028D3738F11092C0028091000181FF51
:100B000004C085B191E0892785B98091C90290918F
:100B1000CA028438F3E09F0728F401969093CA0232
:100B20008093C9020E94063880910D01811102C094
:100B30000E94D6368091C50291E0980F8B3331F038
:100B40009093C502CF911F910F9108951092C50205
:100B50008091D8078F5F8C3318F48093D807F2CF39
:100B60001092D807EFCF880F991F0197F1F70895DA
:100B700020ED37E0811101C00895F9013197F1F7B7
:100B80008150F8CFCF93DF93DC0116968C911697A6
:100B9000843509F053C0ED0126968D919C911197F3
:100BA0004DE0242F30E02817390708F44AC0AC0183
:100BB0004F5051092417350709F040C0FC013E97FA
:100BC000EC0FFD1F20812435C9F517963C9117972E
:100BD0002181321333C018963C9118972281321329
:100BE0002DC019963C9119972381321327C01A966C
:100BF0003C911A972481321321C04197C80FD91F05
:100C0000858188838681898381858A8382858B8398
:100C100083858C8384858D8385858E838D919C913E
:100C200011970A9711969C938E9314968D919C918F
:100C300015970A9715969C938E931497DF91CF91F1
:100C40000895FE01E20FF31F50815B3309F4AFCF2B
:100C50004F5FA7CFCF93C82F8091C70282FF03C0F9
:100C60008C2F0E94CB248091C70280FF1BC0209153
:100C7000A50C3091A60C2E3F93E0390778F0211592
:100C8000344080F4CD3051F0CA3041F090918E075D
:100C9000992311F083FD20C0CF9108956C2F81EA34
:100CA0009CE051D380918E078823B1F38091C702D5
:100CB00083FFF2CFCA3081F3CD3071F46BE385E866
:100CC00093E041D385E893E05DDF83E080938C0778
:100CD00082E080938B07E0CF6C2F85E893E033D3DD
:100CE000F4CFCF93DF93EC018991811103C0DF91A1
:100CF000CF910895AFDFF8CFCF93DF93EC01FE01E2
:100D00008491811103C0DF91CF910895A3DF2196D3
:100D1000F6CF8DE09FDF8AE09DCF0895A6E0B0E09A
:100D2000E4E9F6E00C94F051FC01262F1E828E01BE
:100D30000A5F1F4F35E08AE0E82EF12CCF01B701A2
:100D40000E9472513150805DD8018E938D01CF0188
:100D5000FB010A97A8F4832F2550622F630F61507F
:100D600067FD02C0811110C021E030E02C0F3D1F53
:100D7000280F311DC901B5DF2696E6E00C940C5210
:100D80003111DCCF80E0E8CF8150E1E0F0E0EC0F02
:100D9000FD1FE80FF11D4083E2CFA5E0B0E0E3EDD9
:100DA000F6E00C94F4519C011D8254E0922F9F7048
:100DB0009A3048F5905D8FEF850FE1E0F0E0EC0FA1
:100DC000FD1FE80FF11D9083F90194E0F695E7957A
:100DD0009A95E1F72031310598F45550650F61502F
:100DE00067FD02C0811111C021E030E02C0F3D1FD2
:100DF000280F311DC90175DF2596E2E00C941052D1
:100E0000582F9F01D3CF995CD6CF8150E1E0F0E01D
:100E1000EC0FFD1FE80FF11D4083E1CF40E362E0DE
:100E200090E0BBCF0895CF93DF93EB01FB0130E05F
:100E300020E0DC019D91992331F0913670F08FE92B
:100E4000890F863030F0CF018C1B9D0BDF91CF9145
:100E5000089590529753292B05C080ED890F8A3051
:100E600050F4282B332389F021934150442359F324
:100E700030E020E008C08FEB890F863058F39032C5
:100E800011F09A3301F7CD01D4CF2295207F31E0C4
:100E9000FACFCF93DF93C82F592FDB01CB0130E07E
:100EA00020E06AE0EC2FF52F519151110CC0332353
:100EB00029F0442319F0FC012193CF018A1B9B0BDD
:100EC000DF91CF91089530ED350F3A3040F4269FF1
:100ED000300D1124232F31E0CE2F5F2FE3CF50327E
:100EE00011F05E3259F730E04423B1F3EC0129935D
:100EF000CE01415030E020E0EFCFDB0120E030E0D8
:100F00004AE0FC018191811103C02D933C93089527
:100F100090ED980F9A3050F4429FB001439F700DAE
:100F200011248053990B9C01260F371FCF01E9CF65
:100F3000FB01982F92959F70803A40F4905D9083CA
:100F40008F708A3028F4805D81830895995CF7CF93
:100F5000895CFACF0E947B53F999FECF08950C94D7
:100F60006E5308950F931F93CF93DF93EC018C0181
:100F70000D5F1F4FCE01F3DF40E261E090E0CEDE77
:100F80000C171D0721F021968EE264DEF3CFDF916E
:100F9000CF911F910F9108950F931F93CF938C01C1
:100FA000CFEFC60FC801DBDF39DFCC2331F00F5F95
:100FB0001F4F8AE34FDEC150F5CFCF911F910F91A4
:100FC0000895A2E0B0E0E7EEF7E00C94F151FC01E7
:100FD0008181893609F039C082818D3629F466E035
:100FE00082E690E0D9DF09C08736F1F058F4813607
:100FF000B9F0843681F08E34D1F08BDE2296E5E0B4
:101000000C940D528F36B1F08037B9F08E36A9F7B7
:101010008DE690E007C088E690E0A1DFFFDEEDCF2F
:1010200089E690E09FDFE9CF81E790E0FBCF85E79D
:1010300090E0F8CF8BE790E0F0CF89E790E00E9456
:10104000765340E260E06ADED8CF8D3421F466E06A
:101050008AEF9FE0C7CF803521F460E18AED9FE001
:10106000C1CF1A82198242E0BE016F5F7F4FCF016C
:101070000196D9DE098110E0823029F409811A81B4
:10108000102701271027C8016ADFF82E82E5E2DD6C
:1010900040E364E0C80181DE8DEB91E02DDE8F2D11
:1010A000BDDE89EB91E028DE40E262E08F2D90E02A
:1010B000CACFA6E0B0E0EFE5F8E00C94EE516C0189
:1010C000FC018181893609F07AC082818D36B9F4BC
:1010D00046E0BE016F5F7F4FC6010396A4DE02E6C5
:1010E00016E0CE0101967C01802F90E0282F201B76
:1010F000211708F45AC02696E8E00C940A52873665
:1011000069F148F4813601F18436A9F08E34C1F1D9
:1011100000E010E0E6CF8F3609F43BC0803739F1AC
:101120008E36B1F744E0BE016F5F7F4FC601039674
:10113000B0DE0DE611C0BE016F5F7F4FC6010396A2
:10114000DCDE08E611E0CDCF44E0BE016F5F7F4FEB
:10115000C60103969EDE09E614E0C3CF44E0BE015B
:101160006F5F7F4FC601039694DE01E7F5CFBE01A6
:101170006F5F7F4FC6010396C0DE09E712E0B1CF73
:1011800044E0BE016F5F7F4FC601039682DE05E734
:10119000E3CF41E0BE016F5F7F4FC601039643DEA0
:1011A00089818093D01D0BE7CDCFF70161917F013D
:1011B0006C01FFEFCF1ADF0ACDDEC60197CF43E007
:1011C000BE016F5F7F4FC60101962DDE8C0182301C
:1011D00008F491CFE980F12C823029F0E980FA807F
:1011E000FE24EF24FE241127FE01E00FF11F608191
:1011F000C701B0DE000F111F0F5F1F4F0C0D1D1D2B
:10120000F8018081882309F476CF41E0BE016F5F49
:101210007F4FC80108DE892B09F46DCF2FEFE21A4A
:10122000F20A6981C70196DE0E5F1F4FE9CF41E0E8
:1012300060E071E00196F7DD8091000180FF07C05A
:10124000289A6091000184E390E084CE0895289864
:10125000F8CFA1E0B0E0EFE2F9E00C94F45119828C
:10126000009731F041E0BE016F5F7F4F0196DBDDFB
:1012700089818F3F09F4FFCF882321F061E083E368
:1012800090E068DE10926E00F89488E198E00FB666
:10129000F894A895809360000FBE90936000FFCFF4
:1012A000CF93DF93EC0161E080E090E053DE64E4F3
:1012B00081E090E04FDEABD960E080E690E04ADE6E
:1012C00060E081E690E046DE60E083E390E042DEAD
:1012D00062E084E390E03EDE0E94F42160E080E67C
:1012E00090E038DE60E081E690E034DE8981883786
:1012F00019F080E090E0ADDFDF91CF91089580E0BC
:1013000090E02DDE813029F481E090E028DE843405
:1013100019F080E090E0C4DF84E390E020DE809369
:10132000000108958AEA91E04D9B02C08BE991E0AB
:10133000E3DCEFCC0895FC01158214821182108247
:10134000138212820895FC012FB7F894848195814D
:10135000811534E0930710F02FBF0895019695830F
:10136000848380819181AC014F5F5F4F51834083C3
:101370008E0F9F1FDC0116966C934115544061F748
:1013800011821082E9CFFC012FB7F89484819581F6
:10139000009719F42FBF80E0089501979583848307
:1013A00082819381AC014F5F5F4F538342838E0FE5
:1013B0009F1FDC0116968C914115544011F4138245
:1013C00012822FBF0895CF93DF93FB01DA019C9126
:1013D000882369F0EB01C90FD11D41E050E0022ED6
:1013E00001C0440F0A94EAF78881842B8883222362
:1013F00031F02150822F90E0DF91CF9108959F5FCF
:101400009C3008F49C93E90FF11D108227E0F2CF85
:10141000299A882381F08091CC0220E1829FC0012B
:101420001124A1DB29988091CB0220E1829FC00189
:10143000112499CB08958091CE0220E1829FC001B2
:10144000112491DB29988091CD02EFCFA9E0B0E083
:10145000ECE2FAE00C94E4514C01362E2F83702E0E
:10146000ED82442E512C4E5F8C2D8A0D409F800DB5
:101470001124082E000C990B2091C9023091CA0248
:101480002817390738F481EC91E036DC2996E2E13F
:101490000C940052281B390B3093CA022093C902C6
:1014A000289A60909107662039F01092910785EA9A
:1014B00092E00CD5662463948091BE02811101C034
:1014C000D5D950D9E0E1CE9EC00111249A838983F9
:1014D000E0E1AE9EC00111249C838B83CA28CE829A
:1014E000E32CF12C01E010E0FF81CF2ED12C2E81D6
:1014F000222341F0299A89819A8135DB29988B81B1
:101500009C8131DB1F82EF818E2FEE0F990B8E15A0
:101510009F0554F1332011F081E07ADF212C822DD8
:10152000022C000C990B998788878415950514F176
:1015300027E0B22E880D991D998788878B2D0B2C5B
:10154000000C990BC816D9067CF18D8111DB7A94B9
:101550007110CDCF8091D202882399F115D96110F5
:101560000E943118289892CF80E052DF8F818F5FE0
:101570008F83C9CF37E0A32EB12C88859985880D3C
:10158000991D99878887C8010A2C01C0880F0A9481
:10159000EAF7E885F985908189233ADFF1E0AF1A0F
:1015A000B10888F72394BBCFC8010B2C01C0880F6A
:1015B0000A94EAF7E885F9859081892329DFBA94AE
:1015C000BDCF86E376D8CBCFADE0B0E0EAEEFAE06F
:1015D0000C94E5517C01162F842F022F6701C60E53
:1015E000D11C462FB7018ED4F60180831F5F1D8664
:1015F0001982C12CD12C27E0CE010D96662463946C
:10160000712C582E492E97E0A92EB12C47018C0C35
:101610009D1CC116D8F0222309F442C0215089E153
:101620008093CD028093CE0285E28093CB0280939B
:10163000CC02A12CC12C8AE0E82E4D856CE0CE01B5
:10164000019604DF2D96E1E10C940152F401308003
:10165000C3010A2C01C0880F0A94EAF7452D542DC6
:10166000BE016F5F7F4F8321AEDE282FF1E0AF1AFE
:10167000B10878F6032C32943024032C3694369437
:101680003024339431FA882780F9452D542DBE013A
:101690006F5F7F4F98DE282FEFEFCE1ADE0AB3CFB1
:1016A0008D858F5F8D8727E0BACFACE0B0E0EBE5AA
:1016B000FBE00C94F251162F042F4BE0BE016F5F3C
:1016C0007F4F0196B0DB682F202F412FCE0101966E
:1016D0007BDF2C96E4E00C940E5243E066E0E5CF0D
:1016E0000895AF92CF92EF920F93CF93DF93CDB740
:1016F000DEB760970FB6F894DEBF0FBECDBF40E1F6
:10170000BE016F5F7F4F01968EDB69814A810B813D
:101710008C818093CE028D818093CD028E818093C7
:10172000CC028F818093CB02E02EE2948FE0E822FE
:101730000F70242F2F7042954F70A12CC12CCE0119
:10174000089684DE60960FB6F894DEBF0FBECDBF5C
:10175000DF91CF910F91EF90CF90AF900895A9E1D5
:10176000B0E0E5EBFBE00C94EA514BE0BE016F5FAB
:101770007F4F019658DB182F8930C1F589E180939E
:10178000CD028093CE028093CC0282E38093CB0281
:1017900069E0CE010196C1D3E1E0F0E0EC0FFD1F5E
:1017A000E10FF11D8083198E1D868E010F5F1F4F83
:1017B0007E018BE0E80EF11C27E0CE014996CC2497
:1017C000C394D12C982E892EA12CB12C0E151F0557
:1017D00089F4222389F12150A12CC12C8AE0E82E22
:1017E00003E0498D6CE0CE010D9630DE6996ECE0A9
:1017F0000C940652C6010A2C01C0880F0A94EAF71D
:10180000F8019081492D582DBE01635F7F4F8923D8
:10181000DADD282FFFEFAF1ABF0A88E0A816B1045F
:10182000A9F6492D582DBE01635F7F4F81E0CBDDC6
:10183000282F0F5F1F4FC8CF898D8F5F898F27E0BB
:10184000CBCFAF92CF92EF920F93CF93DF93CDB7E1
:10185000DEB72C970FB6F894DEBF0FBECDBF4BE0BE
:10186000BE016F5F7F4F0296DEDA8530C1F48EE3F2
:101870008093CE028CE18093CD0281E28093CC02F2
:101880008AE38093CB0285E2A82E9AEFC92EE12C41
:1018900005E024E044E068E0CE010196D7DD2C9617
:1018A0000FB6F894DEBF0FBECDBFDF91CF910F9181
:1018B000EF90CF90AF9008950F931F93CF93DF9346
:1018C000EA98249A2C9A8EE190E04DD92C988EE1DA
:1018D00090E049D92C9A8DE290E045D980E30E94AE
:1018E000590384E690E03FD9C8EED1E0FE0131967D
:1018F0006491FE0184910E944F032296F2E0CA3166
:10190000DF07A1F78091D002882379F0C2EDD1E002
:1019100008EE11E0FE0131966491FE0184910E946F
:101920004F0322960C171D07A9F783E30E94590362
:1019300084E01ED984E30E94590385E30E94480392
:101940008D30C1F7DF91CF911F910F910895A2E3E0
:10195000B0E0EDEAFCE00C94F1518091CF028823D5
:10196000A9F01A9B5CC08FE30E9448038F7789839C
:10197000823380F08AE30E94590386E30E94590370
:101980008DE30E94590384E30E945903E296E5E047
:101990000C940D522C988FEF0E94D40210E0898194
:1019A000181708F452C080E00E94D402F82E80E09C
:1019B0000E94D4022C9A84E30E94590385E30E947A
:1019C00048038D30C1F79A8186E789278A83098188
:1019D000FE01339682E02191801708F442C0802FE7
:1019E000023008F482E0E1E0F0E0EC0FFD1FE80FC8
:1019F000F11D8B81822780831091D20210711123F7
:101A0000C1F181E627D910E0E1E0F0E0EC0FFD1F25
:101A1000E10FF11D80811ED91F5F0117A8F785E333
:101A20000E944803813029F0813161F48AE30E94E9
:101A3000590386E30E9459038DE30E94590384E30E
:101A40000E9459030E947F04A1CF80E00E94D4022B
:101A5000E2E0F0E0EC0FFD1FE10FF11D80831F5F5E
:101A60009ECFDF011197945292279C938F5F922F04
:101A7000B2CF81E4EFD8E1E0F0E0EC0FFD1FE10F21
:101A8000F11D8081CBD91F5F0117A8F78091D20289
:101A900085FF02C08F2DC2D93CD9C1CFAAE3B0E0E7
:101AA000E4E5FDE00C94EE5141E39E012F5F3F4FD2
:101AB0007901B9010196B7D9182F8150990B9C0172
:101AC000898190E02817390709F065C08091CF021D
:101AD000811103C0F1DE83E04BD80B818A8196E748
:101AE00089278A834981DE01129692E09D01119631
:101AF0008C911197941708F452C0E42F423008F4E7
:101B0000E2E0EE0DFF2DF11D80278083CE01C79608
:101B10000E94FB0485E30E94590385E30E94480369
:101B2000833109F452C0CE01C3960E94FB044BA935
:101B30005CA96DA97EA98FA998ADA9ADBAAD84178E
:101B40009507A607B70798F5481B590B6A0B7B0B3F
:101B50004D3B510561057105C0F188EC91E0CCD891
:101B600085E30E944803863149F48BE30E945903C0
:101B700086E30E9459038DE30E9459038091CF02AE
:101B8000882309F44AC084E30E94590385E30E9434
:101B900048038D30C1F7EA96E8E00C940A5211969A
:101BA000F9012081245282278C939F5F9FCF481791
:101BB00059076A077B0748F484549F4FAF4FBF4FC4
:101BC000481759076A077B07C7CF85E30E94480378
:101BD000833109F09FCF8AE004FF07C088E70E94A5
:101BE000B80588E70E94B80588E70E94B8052C98D8
:101BF0008FE70E94D40267018C2D8E19811738F06F
:101C00002C9A85E30E9448038331D9F3A9CFF601CA
:101C100081916F010E94D402EFCF48D1BCCFFC016B
:101C20008181823751F0823551F481E08093D00276
:101C300043DE81E08093CF02089580E0F7CF8337C1
:101C400021F4CF0101962ACF08951092CF02089572
:101C5000A0E0B0E0EEE2FEE00C94EC51FC0110924A
:101C6000EE024181440F440F440F8381481B87E0FB
:101C7000C82EC40E1092EF0220E030E047E057E09B
:101C800070E080E097E0E92EF12C01E010E0DD2427
:101C9000D394D80E8C1580F0209303033093EE027A
:101CA000CD14A0F5653409F088C04F3F09F085C018
:101CB0002F5F2093030383C0DF01A70FB11D14968C
:101CC0008C9190E0052E02C0959587950A94E2F7D5
:101CD0008170552369F051506B34D1F4433059F47D
:101CE000332371F030E0811155C04150832F1EC065
:101CF0007F5F57E0F1CF4F3FB1F781110FC02FC089
:101D0000811114C0209303031092EE0280E05DC0A5
:101D10004F3F51F5663469F0653479F32F5FA22F98
:101D2000B0E0A151BD4F1C92832F47E0382F8D2D7D
:101D3000AECFA22FB0E0A151BD4FAC910A2EA2951B
:101D4000A0250A2EA695A695A02590E0AF5FA695A2
:101D5000A170CA2FA12CDA2D8C179D07F9F22093C0
:101D600003033093EE02D2CF882309F4BECF66344A
:101D700071F4A22FB0E0A151BD4FBC90C801042E58
:101D800001C0880F0A94EAF78B298C93AECF653493
:101D900009F0ABCFA22FB0E0A151BD4FC701841B0A
:101DA000910947FD9395580102C0AA0CBB1C8A9566
:101DB000E2F7C5019C91892BE8CF311179CF81E001
:101DC00090910303992309F4A1CFCDB7DEB7EAE0E0
:101DD0000C94085210926F00E09106038CE1E89F8A
:101DE000F0011124E95FFC4F10828091D1028D7FB8
:101DF0008093D1020895FC018181843110F0EACFF3
:101E000008959381662381F0DF01A80FB11D41E0A1
:101E100050E0092E01C0440F0A94EAF714962C9161
:101E20001497242B14962C93992319F09150938393
:101E3000089597E093838F5F8183E80FF11D1482EB
:101E4000089570E030E0FB01E21BF30B3B967797BF
:101E5000A0F490E050E0FC01E41BF50B3B96779773
:101E600060F4680F791F240F351F621B730B655FC9
:101E70007F4F81E06731710508F080E00895219A75
:101E800029982298E9E6F0E080818061808382ECE5
:101E900091E09093CA028093C902E7E0F3E0148EC8
:101EA00010AE10925B031092BE0208958091001F45
:101EB00081110BC08091D202882329F00E94360440
:101EC0000C94C40308950C942D040895FC018181A1
:101ED00081110FC08091D2020E940E0740E265E09E
:101EE0008091C9029091CA020E948E060C948906C4
:101EF000089541E062ED72E0CF0101960E94130760
:101F0000D5CF08959B01411101C008954150F901B9
:101F1000E40FF11D9081890FF6CF9C0180E06111E3
:101F200001C008956150F901E60FF11D90818927E4
:101F3000F6CFAC01F091EE02362F85E090E0311142
:101F400009C0292F280F80E1289F90011124892F93
:101F5000822B08957FEF730FDA01A70FB11D2C912B
:101F6000E22FE295EF709E278E0FFF2311F03617B8
:101F700019F02F709227820F372FE1CFFC012281B9
:101F80003381A081B181A20FB11D8C9190E0032E0D
:101F900002C0959587950A94E2F781709FEF930FA1
:101FA0009383311104C02F5F228397E093830895B8
:101FB000A0E0B0E0EEEDFFE00C94ED51D82EC92E7C
:101FC000E42E062F10E0E801F12CBB24B3942097F7
:101FD00031F48F2DCDB7DEB7E9E00C9409528D2D89
:101FE0009C2DCCDFAE0141505109882349F0EE20F1
:101FF00049F02B2D042E01C0220F0A94EAF7F22A91
:10200000EA01E5CF98012C1B3D0B8B2D01C0880FF9
:102010002A95EAF7282FF3CFA4E0B0E0E2E1F0E15F
:102020000C94EC51FC011B8287E08C83CF01049659
:102030009A83898310920303818128E0829FC001E3
:102040001124438127E030E0241B3109820F931FC4
:10205000853491050CF04CC080E046C0A9DFA82E65
:10206000E12FF0E0E151FD4F8083082F002E029513
:102070000025002E069506950025CE0101967EDFEF
:1020800090E00F5F01FBCC24C0F8D12C8C159D058E
:1020900019F7CE01019672DF8111DECFBA241F5FDE
:1020A000109303031091030340E068E0CE01019612
:1020B0001630A0F27DDF082F182F012E1295102563
:1020C000012E169516951025CE01019657DF90E04A
:1020D0001F5F11FBEE24E0F8F12C8E159F0509F02F
:1020E000BBCF81E0B012B8CF2496EAE00C9408523E
:1020F000B12CD8CFA4E0B0E0E0E8F0E10C94EE51D0
:10210000FC011B8287E08C83CF0104969A8389832C
:102110008081853009F03FC0818128E0829FC00125
:102120001124438127E030E0241B3109820F931FE3
:102130008039910581F580E00FE010EF49E8F42E39
:1021400080930303C82ED12CEE24E394E80E41E0E3
:1021500068E08F3029F5CE0101962ADF080F111DA6
:1021600090E19093030380958093FE0241E068E044
:10217000CE0101961DDF90E0982F8827081B190BD0
:1021800041E068E0CE01019613DF282F30E081E0C6
:102190002017310709F080E02496E8E00C940A52F9
:1021A000CE01019605DF080F111DF601E151FD4F2B
:1021B000F826F08234E2F32EF80E8E2DC1CFA4E083
:1021C000B0E0E5EEF0E10C94F351FC011B8287E0F6
:1021D0008C83CF0104969A83898381818430D1F4E2
:1021E00083818130B9F410E01093030341E014308F
:1021F000B1F467E0CE010196DBDE880F8093F30235
:1022000085E0809303039091EF0292959F7081E0A7
:102210009A3009F080E02496E3E00C940F521111FB
:102220000CC067E0CE010196C3DE8068E12FF0E0CC
:10223000E151FD4F80831F5FD7CF68E0CE0101964B
:10224000B7DEF4CFFC0181818330D9F483818730FC
:10225000C1F480818830A9F480E09181891720F051
:102260008093030381E00895282F30E0DF01A20F5F
:10227000B31F14969C9121513D4FD9019C938F5FC0
:10228000ECCF80E00895FC0190818091D1029936D5
:1022900011F0933771F4982F9370913021F4866088
:1022A0008093D102089580FFFDCF8091D1028B7F72
:1022B000F7CF80FDF7CF8460F3CFA1E0B0E0E3E695
:1022C000F1E10C94EF5119828091D3028823A1F19E
:1022D0008091D20287FF14C084E30E944803805893
:1022E000803408F442C0803C08F041C08055990B0E
:1022F00023E0959587952A95E1F78F590E942A0644
:102300008091D20283FF16C082E70E942A06809144
:10231000D20284FF04C08091D4020E942A0686E67D
:102320000E942A068091D20284FF04C08091D302C9
:102330000E942A061092D30280910403882309F494
:10234000B3C1289A009105032CE1029F800111245A
:10235000095F1C4F898181111FC0C80173DF882369
:1023600009F4B7C183E7898317C080E0C6CF8FE047
:10237000C4CF83E5F8CF282F30E02F5F3F4F4E2D9D
:1023800050E02417350709F070C093E09F1508F05E
:10239000BFC196E499838083E980D090D202EE2079
:1023A00009F4FDC0D0FEFBC08091D1028A7F8093EA
:1023B000D1028D2D8270811125C0F0900303909180
:1023C000ED02E9EDF2E0AFEEB2E09F1509F493C043
:1023D0004F2D50E06FEE72E089ED92E00E9457536E
:1023E000F092ED028091C1029091C202A091C302CD
:1023F000B091C4028093D5029093D602A093D702E5
:10240000B093D802F4E5EF1297C0D6FC1BC08091C0
:1024100003038530B8F08091F1028B3471F0893676
:1024200061F09DEA980F923040F08D57823028F08D
:102430008091F2028077803729F48091D102816007
:102440008093D102B801CE0101961DDF80918E07E5
:10245000882309F475C08091DC07811171C08091D7
:10246000D1028B7F8093D1026BC04F2D6FEE72E053
:102470008CE048DDE8124CC1E3E084E5EF1508F498
:1024800072CF46C18091030381508093030389304A
:1024900009F044C169E08FEE92E03FDD9091F802CF
:1024A00089133CC185E45FCF88E45DCF84E75BCFCF
:1024B000E0910303FF24FA94FE0EF09203036F2DC4
:1024C0008FEE92E036DD9091EE022F2D291B330B1B
:1024D000F901E151FD4F9081891338C18BE443CF5D
:1024E00021919D918F5F291731F08091D1028D7FCD
:1024F0008093D1026DCFF812F3CFF092ED0280916C
:10250000C1029091C202A091C302B091C402409155
:10251000D5025091D6026091D7027091D802841BE7
:10252000950BA60BB70B8697A105B10508F050CF08
:102530008091D1028160DCCFB801CE010196A3DE8B
:102540008091D10282FF2BC08E2D0E942A0680919D
:10255000EE02882329F080910303815080930303C6
:10256000F12CE0910303FE1608F4A2C08091EE0264
:10257000882351F0F0E0E151FD4F80818F7040E3FE
:1025800061E090E00E94CD068091D20285FF05C0F7
:1025900084E30E9448030E940E070E9489068091EE
:1025A000D20282FF69C080E70E942A06F80180817A
:1025B00040E262E090E00E948E06F801808D40E2E9
:1025C00065E0F0E18F9FC00111240E948E06F801A2
:1025D000818D40E265E0F0E18F9FC00111240E94EF
:1025E0008E06F801828D40E265E0F0E18F9FC00128
:1025F00011240E948E06F801838D40E265E0F0E12F
:102600008F9FC00111240E948E06F801828140E252
:1026100063E090E00E948E06F801818140E263E071
:1026200090E00E948E06F801838140E262E027E09C
:1026300030E0F901E81BF109CF010E948E0680E22B
:102640000E942A068091D20285FF08C084E30E947E
:1026500048030E940E0780E20E942A06F801838147
:10266000873019F081818F5F8183F12CF80181819E
:10267000F81638F10E948906F8011082809104034F
:102680008150809304039091050381E0890F93307A
:1026900009F480E08093050328988981843521F42A
:1026A0008FEE92E00E94CF1E2196E7E00C940B5231
:1026B000EF2DF0E0E151FD4F80810E940E07F39471
:1026C00050CFF801EF0DF11D84810E940E07F394A5
:1026D000CDCFC8010FDD81114CCE66E4C801B8DA58
:1026E0008823B9F0F0900303FA94F09203034F2D7E
:1026F0006FEE72E086E006DCEF2DF0E0E151FD4F79
:10270000E080E81238CE33E086E43F1508F42BCEA3
:10271000198265E4C8019CDA8111B4CEC8017CDC61
:102720008111C2CEC8014BDD8111C0CEF801638D8D
:10273000E090D402262F4E2D828D83DB682FC801B6
:102740005ADB6BE4C80184DA8111B2CEF8018381CF
:1027500091E0980F9383873029F4F80181811382E7
:1027600081508183F8018181843009F015CEF80110
:102770008381843009F010CE2EE14CE3618D808D91
:1027800060DB882309F408CE2EE14E2DF801638D1D
:10279000828D57DB682FC8012EDB85E0F801349667
:1027A000AFEEB2E001900D928A95E1F785E080935B
:1027B000030382E5D8CD1F920F920FB60F9211241A
:1027C0000BB60F922F933F934F935F936F937F932B
:1027D0008F939F93AF93BF93EF93FF9310926F00EC
:1027E0008091D20283FF03C08EE20E942A0690915C
:1027F00006038CE1989FF0011124E95FFC4F808172
:10280000833018F081818230A0F4E4DAFF91EF91F7
:10281000BF91AF919F918F917F916F915F914F91F8
:102820003F912F910F900BBE0F900FBE0F901F90F6
:10283000189580910403833049F48091D20282FF7D
:10284000E4CF8AE192E00E947C06DFCF8F5F809325
:10285000040381E0890F933019F080930603D6CFEB
:1028600010920603D3CF982F8BED890F873138F460
:1028700086EF860F8D3118F481E0691708F080E04B
:1028800008951F920F920FB60F9211240BB60F925C
:10289000EF92FF920F931F932F933F934F935F936A
:1028A0006F937F938F939F93AF93BF93CF93DF9358
:1028B000EF93FF93809199088823E1F082E0809361
:1028C0009908FF91EF91DF91CF91BF91AF919F91C7
:1028D0008F917F916F915F914F913F912F911F91B8
:1028E0000F91FF90EF900F900BBE0F900FBE0F90C7
:1028F0001F90189580919007823021F483E0809397
:102900009007DFCF009184001091850044E0169578
:1029100007954A95E1F7C09106032CE1C29FE001BB
:102920001124C95FDC4F9881943079F40E3248F25B
:102930000F3408F0C2C01A9941C061E0CE015BDAE1
:10294000109285001092840004C0953029F01A99E5
:1029500008C00093D402B5CF073108F4B2CF0732D4
:10296000E8CF8091D402081B0093D3021092850017
:1029700010928400983061F49A81911109C091E01D
:102980009A83888F8A8F098F0B3B28F5000F0B8F56
:1029900082E086BB0881011120C09091D402953657
:1029A00008F08FCF8091D302853608F08ACF988FB8
:1029B000898F81E08A8382E0888383CF8091D402EB
:1029C000081B0093D302109285001092840060E0EF
:1029D000CE0111DA76CF0695DACF1091D30202300C
:1029E00009F071C0F090D402088DE98C212F4F2D91
:1029F0006E2D802F26DA4A818823F1F0602F70E057
:102A00009B01220F331F260F371F2F0D311D3595C8
:102A1000279535952795288FF12CC701880F991F89
:102A20008E0D9F1D810F911D959587959595879585
:102A3000898F4F5F4A8345CF443008F442C080EA13
:102A40009FE090938900809388004C3050F0202FB5
:102A50002E0D3327331F253631052CF084E0888373
:102A600011C04A30C8F0202F2E0D3327331F2532D6
:102A7000310594F485E0888388EE93E09093890093
:102A800080938800FA8E1B8F198287E08B831C82CB
:102A900082E080936F0015CF80918F07882379F0B3
:102AA000612F8F2DE0DE882351F0602F8E2DDBDE2D
:102AB000882329F081E0809390078CD902CF83E0AE
:102AC000CECF18826ACF083009F04BC081E9810F60
:102AD0008D3110F560E0CE018ED9288D30E0C9012E
:102AE000880F991F820F931F2091D402820F911D8E
:102AF0009595879595958795888F298D30E0C901A3
:102B0000880F991F820F931F810F911D95958795AF
:102B100095958795898FD5CE173E08F4D2CE61E082
:102B2000CE0169D92A8D30E0C901880F991F820F23
:102B3000931F2091D402820F911D959587959595AD
:102B400087958A8F2B8D30E0C901880F991F820FDE
:102B5000931F810F911D95958795959587958B8FDF
:102B6000B0CEF090D402212F4F2D6B8D8A8D69D974
:102B7000882369F061E0CE013ED92A8D30E0C90199
:102B8000880F991F820F931F8F0D911DD6CF212F74
:102B90004F2D698D888D55D9882369F060E0CE016D
:102BA0002AD9288D30E0C901880F991F820F931F01
:102BB0008F0D911D9DCF073009F483CE7ECFE0911C
:102BC00006038CE1E89FF0011124E95FFC4F80814E
:102BD000811107C081E09091DA079F3F19F480E0EE
:102BE000089581E0089580E690E00E94AF07809309
:102BF0008F0781E690E00E94AF0780938E078823BD
:102C000021F081E28093D20251C90895299A0C944F
:102C1000B305089529980C94B3050895A7E0B0E092
:102C2000E4E1F6E10C94EE5190918B03943509F0B8
:102C300072C020918303309184032F5F3F4F309304
:102C400084032093830395E7998311E0882389F017
:102C5000BE016E5F7F4F80918E070E949807BE0174
:102C60006C5F7F4F80918F070E94980785E58E8368
:102C700016E00E9436040E94B20306E080E891E06C
:102C8000C5DF80E093E0C6DF01500111F7CF80E09F
:102C900093E0BCDF80E891E0BDDF80E891E0B6DF43
:102CA000299887E390E00E945D0383E00E94B805C5
:102CB0002C988FE70E94D40280918903810F0E9493
:102CC000D402CE0101966C017C01F70181917F0154
:102CD0000E94D4028E2D8C198117B8F3809189033C
:102CE00090918A03892B09F055C02C9A0E94B20357
:102CF00085E893E00E949B0915E18AE30E9448035E
:102D00008F77882319F0115011114BC0CFD8279617
:102D1000E8E00C940A52963459F4209181033091E2
:102D200082032F5F3F4F30938203209381038BCF29
:102D3000953459F420917F03309180032F5F3F4FEA
:102D40003093800320937F037ECF9B3459F42091EE
:102D50007D0330917E032F5F3F4F30937E0320939E
:102D60007D0371CF983459F420917B0330917C031B
:102D70002F5F3F4F30937C0320937B0364CF2091E0
:102D8000790330917A032F5F3F4F30937A0320937A
:102D9000790359CF85E893E00E94C3090E94D402C9
:102DA0009DCF81E00E94B805A8CFCF93DF93EC01BF
:102DB000898181110DC080918F070E940E0780913B
:102DC0008E070E940E070E948906DF91CF91089519
:102DD000843691F48091C1029091C202A091C30205
:102DE000B091C40240E364E00E94CD068EE20E94EE
:102DF0002A0680918C07E5CF833709F04BC040E36A
:102E000061E080918303909184030E94CD068EE25D
:102E10000E942A0640E361E0809181039091820341
:102E20000E94CD068EE20E942A0640E361E0809176
:102E30007F03909180030E94CD068EE20E942A06B5
:102E400040E361E080917D0390917E030E94CD0676
:102E50008EE20E942A0640E361E080917B0390911C
:102E60007C030E94CD068EE20E942A0640E361E0C8
:102E70008091790390917A030E94CD068EE20E94A0
:102E80002A0640E361E080917703909178030E94E5
:102E9000CD0699CF8936D9F441E06FE877E0CE01CD
:102EA00002960E94130760918F0780E690E00E94CF
:102EB000AA0741E06EE877E0CE0104960E9413076E
:102EC00060918E0781E690E00E94AA077ECF85E898
:102ED00093E00E949B0921966991611103C080E0F3
:102EE0009DDE73CF85E893E00E94A309F5CFA1E0B2
:102EF000B0E0EDE7F7E10C94EE5180919007882364
:102F0000A9F0C090C102D090C202E090C302F0903C
:102F1000C402833009F06FC08FE30E944803182F6A
:102F2000863040F40E94560F109290072196E8E0F8
:102F30000C940A528BE998E00E949B092C988FEF21
:102F40000E94D40280E00E94D402082F115080E039
:102F50000E94D402682F8BE998E00E94A3091150C7
:102F60001111F5CF2C9A0E94560F10929007053739
:102F7000E9F641E0BE016F5F7F4F81EA98E00E9471
:102F80001307019799F5998180918F0798132EC0A7
:102F900080919F089091A0082091A5082535E9F01F
:102FA00004979093A00880939F0884E090E090930A
:102FB0009E0880939D086AE08BE998E00E94A3092F
:102FC000E091A910F091AA1088E00995AFCF8BE9A4
:102FD00098E00E94C3090E942A0680919F08909160
:102FE000A008892BA1F70E948906A0CF8BE998E061
:102FF0000E949B099BCF823041F480918D079C2DCC
:10300000981B983008F492CF8DCF813009F08ECF85
:1030100087E390E00E945D030E94C40382E08093F6
:103020009007C0928D0782CFCADD882361F083E0CC
:1030300080938B078091770390917803019690930A
:1030400078038093770380918B07815080938B075F
:10305000882321F083E080938C07089581E0DECD02
:1030600008950F931F93CF93DF93EA98249A2C9A95
:103070008EE190E00E94B3052C988EE190E00E94D2
:10308000B3052C9A8DE290E00E94B30580E30E9484
:10309000590384E690E00E94B305CAE3D2E0FE0142
:1030A000849104E712E0813408F183E30E9459031C
:1030B00084E00E94B805CFEF84E30E945903807733
:1030C000803139F08AE090E00E94B305C150C1110F
:1030D000F3CF81E080939107DF91CF911F910F9102
:1030E00008952296FE0184918134F8F6FE0131960E
:1030F0006491FE0184910E944F030C171D0789F70C
:10310000D4CF4F925F926F927F928F929F92AF92A5
:10311000BF92EF92FF920F931F93CF93DF93EC0137
:103120008B01F880F39420E030E0672B11F024E667
:1031300030E048E0F49EC00111246AE070E00E9493
:103140008651620F731F8091C9029091CA022C01AF
:10315000612C712C4B01072E000CAA08BB084814E7
:1031600059046A047B0498F48AE292E00E947C0687
:10317000DF91CF911F910F91FF90EF90BF90AF9093
:103180009F908F907F906F905F904F900895861BD7
:10319000970B9093CA028093C90280919107811185
:1031A00001C05FDF85E30E9448038D30C1F08AE5EE
:1031B0000E942A0685E40E942A0682E50E942A06C9
:1031C00082E50E942A0681E30E942A0685E30E9486
:1031D00048030E940E070E94890643DFC9CF8091F1
:1031E000920790919307A0919407B0919507892B2E
:1031F0008A2B8B2BC1F40E94B20385E30E94480303
:103200008331B9F18AE50E942A0685E40E942A06E4
:1032100082E50E942A0682E50E942A0682E3D4CF34
:1032200081E00E94B8054091C1025091C2026091B4
:10323000C3027091C4028091920790919307A0916C
:103240009407B0919507481759076A077B0741F320
:103250004091C1025091C2026091C3027091C402B8
:103260000196A11DB11D84179507A607B707C1F2E6
:10327000C2CF012B51F00AE010E084E60E94B805AD
:103280000150110901151105C1F72C988FE70E9413
:10329000D402EC2E0C2F1D2F802F8E198F1508F4C1
:1032A00045C02C9AC8EC85E30E9448038D3059F044
:1032B00085E30E944803833131F481E00E94B80520
:1032C000C150C111F0CF85E30E9448038D30B9F0A1
:1032D0008AE50E942A0685E40E942A0682E50E9469
:1032E0002A0682E50E942A0683E30E942A0685E3D5
:1032F0000E9448030E940E070E948906B2DE809158
:103300009107811102C00E94560F8091C1029091D5
:10331000C202A091C302B091C4028093920790931D
:103320009307A0939407B093950722CFF80181915A
:103330008F010E94D402B0CFACE0B0E0E2EAF9E144
:103340000C94F051FC018BE0898381818A831B827C
:1033500082E08C8387818D8380858E8381858F83B6
:10336000848188878581898786818A871B861C86D8
:1033700084E10E94B80560E070E0CE010196C1DEF4
:103380008AE50E942A068E010F5F1F4F7E018DE0A5
:10339000E80EF11CF80181918F010E940E07E016E2
:1033A000F106C1F78091D20285FF03C080E00E9440
:1033B0000E070E9489062C96E6E00C940C52CF93DF
:1033C000DF93EC013091990720919A0790919B0728
:1033D000832F822B892B882389F08B81803319F0EE
:1033E0008F7E803459F48F81381308C08885281364
:1033F00005C08985981302C0CE019EDF30919607E3
:103400002091970790919807832F822B892B8823EF
:1034100089F088818B3071F48B81803459F48F81ED
:10342000381308C08885281305C08985981302C001
:10343000CE0182DFDF91CF910895AEE1B0E0E3E20B
:10344000FAE10C94F15180919107882399F11A9B2C
:103450005BC08FE30E9448038F778E3108F08DE1C7
:1034600089832C988FEF0E94D40210E0898118176D
:1034700028F180E00E94D402082F80E00E94D4024C
:103480002C9ACE0101969BDF1091D202107111236C
:1034900009F18AE70E942A06098110E0E1E0F0E0E4
:1034A000EC0FFD1FE10FF11D80810E942A061F5FB6
:1034B0000117A0F76E96E5E00C940D5280E00E9493
:1034C000D402E2E0F0E0EC0FFD1FE10FF11D80837C
:1034D0001F5FCCCF8AE50E942A06F980E1E0F0E088
:1034E000EC0FFD1FE10FF11D80810E940E071F5F91
:1034F000F116A0F78091D20285FF03C0802F0E94B1
:103500000E070E948906D6CF85E30E9448038131C9
:1035100089F68AE30E94590386E30E94590384E3F3
:103520000E945903C7CFAEE1B0E0E9E9FAE10C949B
:10353000F0518C01FC018181823729F492DD6E9675
:10354000E6E00C940C52833711F0863611F54DE10C
:103550009E012F5F3F4F7901B901C80102960E9479
:103560001307E82FE150FF0B298130E0C701E21774
:10357000F30729F081E292E00E947C06E0CF61E04F
:1035800070E0F8012181233711F060E070E0B9DDCF
:10359000D6CF43E069E977E0813629F0873741F4F7
:1035A00043E066E977E0C80102960E941307C7CF9F
:1035B00010929107C4CF1092D9071092980883E017
:1035C0008093E2078FEF8093DA070895DC01E3EE42
:1035D000F7E0808181110EC0AB2B29F588E0E1393D
:1035E000F80719F010F0E1E9F8E0CF010895E80FCD
:1035F000F11DEFCF98E0E139F90770F71097B9F3B3
:1036000021819C912913F3CF228111969C911197CE
:10361000291759F3E80FF11D8081882321F098E0E4
:10362000E139F90768F3E0E0F0E0DFCF94E0899F4B
:10363000F0011124EB54F84F80818F3F91F080937B
:10364000DD0781818093DE0782818093DF0783819C
:103650008093E00721E04CE064E08DED97E00C946E
:10366000E40A089582E998E0B1DFDC01892B99F042
:10367000E091E2078C91E81770F4EA0FFB2FF11D3F
:1036800080818093940889E7809395088181809355
:10369000960881E0089580E008950F931F93CF93DB
:1036A000DF938C018091D20286FF15C084E50E94D1
:1036B0002A06E8010B5F1F4F89910E940E07C01771
:1036C000D107D1F78091D20285FF03C08AEF0E9413
:1036D0000E070E948906DF91CF911F910F910895E7
:1036E00086E30E94590380919408833581F48BE925
:1036F0000E94B80521E04CE065E082E998E00E9474
:10370000E40A0E94C40382E998E0C7CF08958BE4DD
:10371000EFCFE6DF80919408893631F081E0809325
:10372000910889E28093DA070895CF9385E390E0CA
:103730000E94AF078093DC0786E390E00E94AF070A
:103740008093DB07E6ECF7E0CFEFC083C283C4834E
:10375000C683C087C287C487C6872DDF1092E30760
:1037600081E080939C07A5EBB7E0CC93EDE9F7E00F
:103770008FEF9FEF918380831382128215821482D0
:103780001496CC931497978386831186108613869C
:1037900012861896CC931897958784871786168675
:1037A000118A108A1C96CC93938B828B158A148A6B
:1037B000178A168ACF910895ABE0B0E0E2EEFBE104
:1037C0000C94E9518C016C012FEFC21AD20A45E02A
:1037D000BE016F5F7F4FC6010E941307843008F05F
:1037E000E5C099819130D1F4833079F46A8185E321
:1037F00090E00E94AA076B8186E390E00E94AA07EE
:1038000094DF2B96EDE00C9405528091DC070E942A
:103810000E078091DB070E940E0735C0923009F039
:1038200051C0EE24E394813031F081E09A819130EF
:1038300009F080E0E82E8091E307811104C086E75B
:1038400092E00E947C0603EE17E015C087E0033E7D
:10385000180719F080E20E942A06F80181810E946F
:103860000E07F80182810E940E07E1100FC0F801D7
:103870008081080F111DF8018081882321F0F8E074
:1038800001391F0718F30E948906BBCF8AE30E9403
:103890002A0683E0F82EF8018081F81640F7F3E05D
:1038A000FF1629F0F0FE03C08CE20E942A06DD24F8
:1038B000D394DF0CF801EF0DF11D80810E940E07FB
:1038C000FD2CE9CF933049F480E090E07FDE835E09
:1038D00097409EEA981B892F9ECF903149F506ECC0
:1038E00017E0E12CF12CF80180818F3FA1F0FF203F
:1038F00019F080E20E942A068E2D0E940E078AE3AC
:103900000E942A06F80180810E940E07F801818139
:103910000E940E07F3940E5F1F4FE394F8E0EF123E
:10392000E2CF84E892E0F110AECF0E947C06ABCFEC
:10393000913151F48091D6079091D7076DE770E0EF
:103940000E947251862F67CF923109F09CCF05EB10
:1039500017E0E12CF12CF80180818F3FE1F0FF208E
:1039600019F080E20E942A068E2D0E940E078AE33B
:103970000E942A06F80180810E940E07F8018181C9
:103980000E940E07F80182810E940E07F8018381D0
:103990000E940E07F3940C5F1F4FE394F4E0EF12C4
:1039A000DACFF11070CF80E892E0BFCF7E0127E040
:1039B000E20EF11C44E0B701C6010E9413074F81DB
:1039C000493608F496C06A855885E5EBF7E020E0B3
:1039D00030E080E090E06C3009F06FC080E090E073
:1039E00020E030E06081461336C07181751333C02A
:1039F000A2817985A7132FC08B54984F4CE0FC010E
:103A00004383C901880F991F820F931FFC01EE0F9A
:103A1000FF1FE356F84F11821082880F991FFC0197
:103A2000E156F84F1182108222E04CE064E0C701B9
:103A30000E94E40A8FE08A8722E04CE064E0C7013C
:103A40000E94E40A82E08A8722E04CE064E0C70139
:103A50000E94E40AD6CE6F3FF9F4FC01EB54F84F14
:103A600040835183898582838CE08383C901880FD9
:103A7000991F820F931FFC01EE0FFF1FE356F84FB3
:103A800011821082880F991FFC01E156F84F1182B4
:103A9000108210929C07C8CF2F5F3F4F3496049638
:103AA0002430310509F09ECFACCE019634962C5FC0
:103AB0003F4F8430910509F4A4CE70814713F5CFB0
:103AC00071817513F2CFA2817985A713EECF2B54A4
:103AD000384FF9016383FC01EE0FFF1FE80FF91F58
:103AE000EE0FFF1FE156F84F81E090E09183808355
:103AF00088CEE9812091DC07E217C0F1822F90E0A7
:103B000007964E2F50E08417950784F19A81809193
:103B1000DB0798132BC09C819F3231F442E06CE0AC
:103B2000C8010E94550B6DCE8D819C32B9F48093F3
:103B3000C50721E030E03093D7072093D607F4E0A3
:103B40008F9FC00111242091C9023091CA02820FB7
:103B5000931F9093CA028093C90253CEE21BEE0FCB
:103B6000F0E0EA53F84F908381834BCE80E090E001
:103B70002DDD7C01F60101900020E9F73197EC1969
:103B8000FD09F695E7957E2EDD24D394DE0EC70160
:103B90008D0D911D835E97408F3A91052CF08AE739
:103BA00092E00E947C062DCEF701D0825701CC24F2
:103BB000C3948C2D880F8150CD1480F0F1E9EF165D
:103BC000F8E0FF0608F01DCE2FEFED2D721201C0B8
:103BD000E1E0EE0DFF2DF11D108213CE4501FFEF48
:103BE0008F1A9F0A41E0B401800F912F911D0E940E
:103BF000130722E02C1548F4C0FC07C0F5018081B2
:103C0000843619F481818093D807C3945401D1CFAD
:103C10000F931F93CF93DF9390919C0791114AC00C
:103C2000282F30E0E901CC0FDD1FC20FD31FDE01CA
:103C3000AA0FBB1FA356B84F220F331F220F331FEB
:103C4000F901EB54F84F9281977040E850E0491B1E
:103C500051099AEF949F9001959F300D112435954D
:103C60002795359527952D933C938E01000F111FB5
:103C70000F55184FF801208131812F5F3F4F31835D
:103C80002083CC0FDD1FC156D84F48815981411583
:103C9000510541F42430310569F4C8DCF801118282
:103CA000108208C04130510551F4C0DC82E090E040
:103CB00099838883DF91CF911F910F9108954230AE
:103CC0005105C1F7B3DC19821882E8CFA6E0B0E055
:103CD000ECE6FEE10C94F0518091DB078A831B82B5
:103CE0009091C5079923D9F19330B1F587E791E019
:103CF0009093D7078093D60786ECE82E87E0F82EBE
:103D000010E00CE2F70120812F3FA1F08091C50760
:103D10009091DC07910F9983882351F10C838D8357
:103D200021E04CE065E0CE0101960E94E40ACE015C
:103D30000196B3DC1F5FF2E0EF0EF11C183011F7B3
:103D40008091C507882321F08330A9F41092C5071C
:103D50002696E6E00C940C528DE790E0C9CF877070
:103D60008A512DE7829FC001112495958795C0CF78
:103D70002C838181D4CF82508093C507E9CF809175
:103D80009108882351F0ACDC89E28093DA078091B6
:103D9000910881508093910808950DCC0895FF9269
:103DA0000F931F93CF93DF93FC01F080D181C281E9
:103DB000138104818FE58093DA0710929108809136
:103DC000DC079091DB07892B882351F180919208C1
:103DD0008F1104C0809193088D1729F0ECDBF092CD
:103DE0009208D0939308D091D907DF3FC9F0C093D0
:103DF00094081093950800939608CC2359F1D1119B
:103E00001FC08091DC07801781F0043671F08DEAC5
:103E10008C0F823010F0CD3751F48FEF8093D9079B
:103E2000CDB7DEB7E5E00C940D52C435C9F3812F50
:103E3000807F8036A9F71067109395086ADCF0CF71
:103E400011DC80919808882379F08335B9F08C17BC
:103E5000D1F008C007DC8D2B882311F380919808DE
:103E6000882311F0A8DBDCCFED2FF0E0E857FD4F01
:103E7000E491E335F1F0CE1711F1F4CFC435B9F484
:103E8000DE5FD093D9078091E2078E5F8093E207CF
:103E9000E9DB882309F44CC080919408809398084A
:103EA000843661F68091D80780939608C7CFC335D2
:103EB000CFCFC43509F03AC0DE5FD093D9078091E7
:103EC000D907E82FF0E0E757FD4F14911F3F21F38A
:103ED0001093940897E7909395089091DC0790933E
:103EE00096088E5F8093D907109298088E30D1F48F
:103EF00082E998E06BDBDC01892B99F02C9130E0B2
:103F000081E998E0821B930BED01C817D907B0F047
:103F10008A179B07C8F08A1B9B0B8A0F9B1FFC010B
:103F2000108249DB112309F47BCF88CFC335A4CF9E
:103F30008091D9078E5F8093D907C1CFFE01E20F30
:103F4000F31F40814993E1CF80E090E0E6CFFF92FC
:103F50000F931F93CF93DF93EC01FC01019000209E
:103F6000E9F731978F01081B190B8981823771F4AA
:103F700087E390E00E945D030E94C40381E0809388
:103F80009908CDB7DEB7E5E00C940D52833711F5F3
:103F9000F02E2C988FE70E94D4028EEF800F0E94A3
:103FA000D402229612E01F1560F02C9A0E94B203F0
:103FB0008AE30E9448038F77811108C00E94C403DE
:103FC000E0CF89910E94D4021F5FEDCF81E00E9473
:103FD000B805EECF10929908D4CFA0E0B4E0E3EF9B
:103FE000FFE10C94EE5180919908882311F1813002
:103FF00021F58091C1029091C202A091C302B091BB
:10400000C40220919A082817A1F085E30E94480372
:10401000813129F48AE30E9459030E94C4038091EC
:10402000C1029091C202A091C302B091C4028093D8
:104030009A08DC5FE8E00C940A528FE30E94480380
:10404000F82E2C988FEF0E94D4028E010F5F1F4F25
:104050006801E02E8C2D801B8F1588F02C9A81E052
:104060008093C702802F8E198F1580F00E948906D9
:104070008FEF8093C70281E080939908DACF80E0C8
:104080000E94D402F60181936F01E4CFF80181917F
:104090008F010E942A06E6CF20917222309173226E
:1040A0002115310521F420912101309122018091C7
:1040B0001F0190912001009741F48DB79EB7409168
:1040C000230150912401841B950B2817390718F4FC
:1040D000821B930B089580E090E0089582E40E9493
:1040E0002A0640E265E080917222909173220E943C
:1040F0008E060E94890683E50E942A0640E265E05A
:1041000080912101909122010E948E060E948906D1
:1041100085E40E942A0640E265E080911F019091AB
:1041200020010E948E060E94890686E40E942A06CB
:10413000B3DF40E265E00E948E060C948906089584
:104140001F920F920FB60F9211240BB60F922F935E
:104150003F934F935F936F937F938F939F93AF930F
:10416000BF93EF93FF938091A50C9091A60C892BA0
:10417000C9F081EA9CE00E94C3098093C600FF91C8
:10418000EF91BF91AF919F918F917F916F915F91CF
:104190004F913F912F910F900BBE0F900FBE0F903C
:1041A0001F9018958091C1008F7D8093C100E7CF4B
:1041B0001F920F920FB60F9211240BB60F922F93EE
:1041C0003F934F935F936F937F938F939F93AF939F
:1041D000BF93EF93FF9385B191E0892785B96091F3
:1041E000C6008091C0008871811104C08BE998E0FD
:1041F0000E94A309FF91EF91BF91AF919F918F9181
:104200007F916F915F914F913F912F910F900BBED6
:104210000F900FBE0F901F9018959C0197FF04C040
:1042200082E08093C0003F773093C5002093C400A4
:1042300088E98093C10086E08093C2000895809150
:10424000C10085FD0BC08091A50C9091A60C892B17
:1042500029F08091C10080628093C1000895E091AF
:10426000A910F091AA1081E00995E9CF08950F9364
:104270001F93CF93DF93EC0100E0802F90E09C012F
:10428000220F331F280F391FF901E457FF4F1491F4
:10429000812FF901E357FF4F25913491112389F0C4
:1042A000209741F480E20E942A06812F0E942A066C
:1042B0000F5FE3CF98819113FBCFCE01F9010995F0
:1042C00081E0DF91CF911F910F910895CF93C0911D
:1042D000C7028093C70280919F089091A008892B04
:1042E00021F4C093C702CF9108958BE998E00E9412
:1042F000C3092091AB103091AC108A3011F08D3091
:1043000011F52115310539F323553F4EF90110827E
:104310008DEA90E1ACDF811111C08EEA92E00E943B
:104320007C068DEA90E10E94710686E992E00E9487
:104330007C0680E090E09BDF0E9489061092AC1022
:104340001092AB10C8CF2115F4E03F0720F6A90169
:104350004F5F5F4F5093AC104093AB1023553F4ECF
:10436000F9018083B8CF0F931F93CF93DF93EC01B4
:104370008C010A5F1F4F89910E940E070C171D07C1
:1043800021F08AE30E942A06F6CFDF91CF911F9198
:104390000F910895EF92FF920F931F93CF93DF93A6
:1043A000FC01EB01E080F180FE24EF24FE24028179
:1043B00013811027012710276F2DCE010E94AA0715
:1043C0006E2DCE0101960E94AA07612FCE010296A2
:1043D0000E94AA07602FCE0103960E94AA07CDB7BC
:1043E000DEB7E6E00C940C52A5E1B0E0EAEFF1E2B2
:1043F0000C94EC5189E68A8384E68B837E0184E009
:10440000E80EF11C68EF72E0C7010E9443538E0171
:104410000F5F1F4FC8010E94590881E68B836AEE27
:1044200072E0C7010E944353C8010E9459088EE6FA
:104430008B836CED72E0C7010E944353C8010E9458
:10444000590887E68B8360ED72E0C7010E944353F1
:10445000C8010E94590880E78B836BEC72E0C701AA
:104460000E944353C8010E9459088EE48B8363EC79
:1044700072E0C7010E944353C8010E9459088FE6A9
:104480008B8360EC72E0C7010E944353C8010E9415
:1044900059088AEF9FE00E94AF0757016801843AEC
:1044A000B1F58BEF9FE00E94AF07803581F58CEF6F
:1044B0009FE00E94AF07853551F58DE68B8369EB50
:1044C00072E0C7010E9443538DEF9FE00E94AF0747
:1044D000BE01665F7F4F0E9498078EEF9FE00E94AB
:1044E000AF07BE01645F7F4F0E9498078FEF9FE088
:1044F0000E94AF07BE01625F7F4F0E949807188A33
:10450000C8010E9459086596EAE00C9408528DE6AD
:104510008B8362EB72E0C5010E944353E0E0F0E060
:1045200000E010E091E2909357008491080F111D74
:104530003196E032F105B9F7BE01665F7F4F80E04A
:104540000E949807BE01645F7F4F812F0E949807E9
:10455000BE01625F7F4F802F0E949807188AC601B4
:10456000D0CF87D583EB94E10E945432892B09F494
:1045700038C083EB94E10E9440328BE295E1909346
:1045800043178093421782E0E8D6809147179091B5
:104590004817892B19F00E94543195D489EC94E185
:1045A000909328158093271585E0D7D680914717DB
:1045B00090914817892B19F00E94543184D488EFC8
:1045C00094E1909328158093271585E0C6D68091B5
:1045D000471790914817892B19F00E94543173D4D2
:1045E00071D58FEA94E10E945432892B31F08FEA21
:1045F00094E10E9440320C948B300895A0E0B0E02A
:10460000E4E0F3E20C94EE517C01EB01CB010E945B
:10461000AF076E018FEFC81AD80AC6010E94AF0714
:10462000082FCE010E94AF07182FC6010E94AF07C6
:10463000902F812FF701918380836E01F2E0CF0EDE
:10464000D11CC6010E94AF072396CE010E94AF077E
:10465000082FC6010E94AF07182FCE010E94AF0796
:10466000902F812FF70193838283CDB7DEB7E8E0E7
:104670000C940A52A4E0B0E0E0E4F3E20C94F451AC
:1046800069E670E0CE010196B9DFE9E3FDE18981D9
:104690009A81918380838B819C819383828361E75C
:1046A00070E0CE010196AADFE5E3FDE189819A8100
:1046B000918380838B819C81938382836DE670E0FC
:1046C000CE0101969BDFE1E3FDE189819A8191832F
:1046D00080838B819C819383828386E794E0EFD3F0
:1046E00049D10E94BF342496E2E00C941052549AAF
:1046F0005C9888EC0E94B8055C9A88EC0E94B8052A
:10470000C4D382E690E00E94AF078093B81483E69A
:1047100090E00E94AF078093B91484E690E00E9475
:10472000AF078093BA1485E690E00E94AF078093AC
:10473000BB1486E690E00E94AF078093BC1487E626
:1047400090E00E94AF078093BD1488EB94E19FD363
:104750008091B81480932B1D8091B91480932C1DE7
:104760008091BA1480932D1D8091BB1480932E1DCF
:104770008091BC1480932F1D8091BD148093301DB7
:1047800068D51092CF1D1092CE1D6FE170E083EBC3
:1047900094E10E94343262EE74E08FEA94E10E9468
:1047A000343288E690E00E94AF07882351F086EA11
:1047B00094E085D388EB94E10E948B341092B71477
:1047C000089582E08093B71455CF08950F931F93F7
:1047D000CF93DF93FC018181893631F488DFDF914B
:1047E000CF911F910F9108958336D1F4C9E3DDE194
:1047F0000DE31DE1899140E261E090E00E948E06A8
:104800000C171D0749F480E20E942A068BE29DE105
:10481000AADD0E948906E3CF8EE20E942A06EACF33
:10482000843649F48091AE148F5F83708093AE1408
:104830000E940E07EECF8E3691F60E94D636CFCF6D
:10484000CF93DF93EC01009721F414DFDF91CF9138
:10485000089569E670E046969DDD8E899F89909364
:104860003A1D8093391D888D998D90933C1D8093BE
:104870003B1D61E770E0CE0182968CDD8AA19BA191
:104880009093361D8093351D8CA19DA19093381D6A
:104890008093371D6DE670E0CE014A967BDD8A8DF0
:1048A0009B8D9093321D8093311D8C8D9D8D9093A7
:1048B000341D8093331DEB81FC811582148286E7C1
:1048C00094E0FDD257D00E94BF34C0CFE091421790
:1048D000F0914317248135818091C0149091C114C7
:1048E0002817390709F46BC008958091B7148230F6
:1048F00029F00E9469338093B7140895E091271539
:10490000F0912815309759F08091441781FF07C026
:104910008481958181159B4711F40C940537089586
:104920001F93CF93DF93C0914217D091431780918B
:10493000A50C9091A60C892B21F4DF91CF911F91AA
:10494000089589A18A3F49F482E007D50E94543135
:10495000BAD282E00E94B80504DE19A181E0810F7D
:1049600089A381EA9CE00E94C309FE01E10FF11DC9
:1049700082A3DDCF89E790E00E94765398278927AC
:1049800098279093C1148093C014D6D41092BF146A
:104990001092BE14089590914C159A3F30F4E92F6F
:1049A000F0E0E55DFA4E82A39F5F90934C15089569
:1049B000E0914217F091431782E0848F0895A0E0C0
:1049C000B0E0E5EEF4E20C94EF51C0914217D091C3
:1049D00043178091441786FF1BC019A281E08C8F7A
:1049E0008091BE149091BF149C012F5F3F4F309374
:1049F000BF142093BE14892B29F48091C7028460D0
:104A00008093C70266EA7EE0CE014D960E94343262
:104A10008C8D8230D1F481E08C8F80E180934417BB
:104A20008091BE149091BF1401979093BF1480930E
:104A3000BE14892B29F48091C7028B7F8093C70213
:104A4000CDB7DEB7E7E00C940B5280914417982F56
:104A50009073911102C087FF0AC0E0914217F09154
:104A6000431711A2DF01A45EBE4F1C92148E81FF7A
:104A700030C0E0904717F0904817E114F10449F175
:104A800020E934E23093A8102093A71000914B172F
:104A900010914C17E00EF11EF80161918F018BE926
:104AA00098E00E94A30980919F089091A008811529
:104AB000944031F4E091A910F091AA1084E0099596
:104AC0000E151F0549F7E091A910F091AA1084E096
:104AD00009958091441782FD37C08B74882309F4AF
:104AE00057C00091421710914317F80141A1442388
:104AF00009F44EC07801F2E2EF0EF11C50E0B7016C
:104B000080914B1790914C170E945753F80161A167
:104B100070E080914B1790914C170E94E92FC801CB
:104B20004D960E944A32F801D1A04D2D50E0B701B8
:104B3000C801835E9E4F0E945753F801E45EFE4F0A
:104B4000D082F80111A224C000914217109143179E
:104B50007801F4EEEF1AFEEFFF0AF70140814423DB
:104B6000B9F050E0B801635E7E4F80914B17909191
:104B70004C170E945753F701608170E080914B17EA
:104B800090914C170E94E92FC8014D960E944A321D
:104B90008C8D813009F054CF6D96CE010E94543235
:104BA000892B09F44DCFCE010E944032C091C7023B
:104BB00084E08093C70288EA92E00E949209C09341
:104BC000C7023ECF14988AE30E94513780E00E94CA
:104BD0005137149A0895CF93C82F14988AE70E94EA
:104BE00051378C2F0E945137149ACF910895CF934B
:104BF000C82F40EA63E08FE187D06C2F637040E8F4
:104C00008FE182D0C093C414CF910895CF93DF93E6
:104C1000C82FD82FDF71DB3188F490E025E095951F
:104C200087952A95E1F7AC01437055272091C4146C
:104C300030E04217530711F08370D9DF14988D2F9D
:104C40000E94513780E00E945137C7FF03C080E0C7
:104C50000E945137149ADF91CF91089514988FEFE5
:104C60000E9451378DE1D2DF80FFFCCF149A089566
:104C7000CF93DF93C62FD82FDF71DB3188F490E01C
:104C800025E0959587952A95E1F7AC014370552766
:104C90002091C41430E04217530711F08370A7DF4E
:104CA00014988D2F80640E9451378C2F0E945137A9
:104CB000149ADF91CF910895CF93682FC92F80E088
:104CC000D7DF6C2F81E0D4DFCF910895CF93682F89
:104CD000C92F82E0CDDF6C2F83E0CADFCF9108952A
:104CE000CF93DF93D62FC72F682F84EDC1DF6D2FB1
:104CF00086EDBEDF6C2F87EDBBDF8AEE87DF80FDA0
:104D0000FCCFDF91CF9108951F93CF93DF93C62FF0
:104D1000D42F182F1F711B3188F490E025E0959552
:104D200087952A95E1F7AC01437055272091C4146B
:104D300030E04217530711F0837059DF1498812F28
:104D40008D2B0E9451378C2F0E945137149ADF917E
:104D5000CF911F910895CF93682F84ED89DF40E8AC
:104D600061E082EDD1DF8AEE51DF80FDFCCF40EAC9
:104D700061E082EDC9DF88ED49DFC82F89ED46DFAC
:104D8000982F8C2FCF9108950C9A149A67DF60E0CA
:104D900088E06EDF60E089E06BDF6FEF8AE068DF5C
:104DA0006FE08BE065DF60E084E062DF60E185E07A
:104DB0005FDF60E08CE05CDF60E08DE059DF60E0A9
:104DC0008EE056DF60E08FE053DF1092C314109244
:104DD000C21440EA60E881EC97DF40E86DE080ECC7
:104DE00093DF40E862E382EC8FDF60E070E080E018
:104DF00077DF80E0B0DF90FF42C040E861E082EC06
:104E000083DF62E184EC34DF62E186EC31DF6CE069
:104E100087EC2EDF60EE8AEC2BDF65E08BEC28DF81
:104E200060912B1D84EE24DF60912C1D85EE20DF28
:104E300060912D1D82EE1CDF60912E1D83EE18DF28
:104E400060912F1D80EE14DF6091301D81EE10DF28
:104E500063E888E30DDF62E17CE084E141DF6BED34
:104E60008BE106DF62E170E082E13ADF40E864E076
:104E70008FE14ADF40E860E88EE146CF089540EADE
:104E800061E082EC41DF65E1BDCF7ECF0895CF9335
:104E9000DF93EC01688184EEEBDE698185EEE8DE6C
:104EA0006A8182EEE5DE6B8183EEE2DE6C8180EE6C
:104EB000DFDE6D8181EEDCDEDF91CF910895BC01F4
:104EC00084E10ECF08950F931F93CF93DF93C4E631
:104ED0008FE19CDE83FF31C0C150D0F760E084E0F9
:104EE000C7DE60E185E0C4DE6091471786E0C0DE82
:104EF0008091471790914817905F692F87E0B8DE3F
:104F000080E090E1E3DE80E066DE0DE417E1C0E0E2
:104F1000D0E08091471790914817C817D907A0F0A3
:104F200040E860E88FE1F0DE40EA60E88FE1ECDE27
:104F300040E868E08FE1E8DE02C0C111CFCFDF9129
:104F4000CF911F910F910895F80181918F0143DE58
:104F50002196DFCFA4E0B0E0E0EBF7E20C94EC5157
:104F600089E354DE882351F18091C2149091C314D7
:104F7000A3DE28DE182F26DE982F812F9093C314EE
:104F80008093C2148E010F5F1F4F7E0125E0E20E59
:104F9000F11C68010F5F1F4F15DEF60180830E15AF
:104FA0001F05B9F789819A818C01045011091A8370
:104FB000098342978F3C954038F0E6DE80E090E030
:104FC0002496EAE00C940852E12CF12C8DE4C82ED2
:104FD00087E1D82E56012FEFC21AD20AF3DDF50170
:104FE0008083FFEFEF1AFF0AE016F10698F31093A3
:104FF0004817009347178091591790915A17883096
:10500000910511F18830964049F40E94B4308091A6
:10501000471790914817892B09F055DF6091C2140A
:105020007091C314CB01019781159041C0F06FEFCF
:105030008CE01EDE6FE08DE01BDE40E860E48EE178
:1050400063DE81E090E0BCCF81E087D1809147179B
:1050500090914817892B11F30E945431DECF615093
:105060008CE006DE8091C2149091C3140197692FE1
:10507000E2CFCF9389E3CADD882311F18CE1C6DD4D
:10508000C82F40EA60E88BE13FDEC3FF08C040EA7A
:1050900068E08CE139DE40EA6AE08DE135DE5ADF16
:1050A000C0FF04C040EA61E08CE12EDEC1FF04C015
:1050B00040EA62E08CE128DE40E860E88BE124DE33
:1050C000CF91089582ECA2DD8273823311F05CCE21
:1050D000089580EC9BDD8D30D1F70895CF93DF9359
:1050E000DB019A01FA013197E60FF71FAB01EA01E4
:1050F0004E175F07D8F0AD01415051092E7FE417DC
:10510000F50710F420E030E02A0F3B1F2E173F0771
:1051100051F4208130E0322F2227820F931F821713
:10512000930708F40196DF91CF9108954E5F5F4F8A
:1051300068817981762767277627860F971F8617DC
:105140009707A8F60196D3CFFC019B014381460F38
:105150004093C814A72FBB278281830F8093C71465
:1051600091819093C61460816093C51450E03327F9
:10517000E82FF0E0EA17FB0780F49F5F9093C614D6
:10518000992339F042175307C0F48F5F8093C714F7
:1051900008956F5F6093C514F5CF4217530768F405
:1051A0008F5F8093C714811108C09F5F9093C614CE
:1051B000911103C06F5F6093C5140895BC01809185
:1051C0004217909143170896BFDFE0914217F09184
:1051D0004317A5ECB4E18C91808711968C911197BF
:1051E000818712968C911297828713968C91838770
:1051F000089544E150E06BE577E180E090E06EDFF8
:105200009C01009719F0982F832F08958FEF9FEF3F
:105210000895CF93DF93C0915D17D0915E17DC277F
:10522000CD27DC2748E050E067E677E1CE010E9716
:1052300055DFAE01445151096FE677E14FDF9C0124
:10524000982F832F232B11F48FEF9FEFDF91CF91B6
:10525000089510922A151092291510924415E9EC20
:10526000F4E11582148214AA13AA82E080933F1DF0
:105270000895CF93DC018091401D9091411DE091F4
:10528000CD14F091CE142091FC143091FD140196B0
:1052900081154DE7940710F080E090E1582F492FD9
:1052A0004E175F07A1F34217530789F39093411DEF
:1052B0008093401DEF2B49F0232B79F182E08093FE
:1052C0003F1D80E090E0CF91089580E020E030E045
:1052D00080933F1DCFE2C89FC001112487539B4E8E
:1052E000C29FF001C39FF00D1124E753FB4E55837D
:1052F0004483668377831097A1F444E0FC01119204
:105300004A95E9F74FE2429FF001439FF00D1124C7
:10531000E753FB4E20E42087D6CF81E021E030E048
:10532000D7CF4D915C9111975183408312964D9147
:105330005C9153834283E6CF2091291530912A1541
:10534000232B39F410923F1D8093291590932A1531
:10535000089581E080933F1D0895CF92DF92EF92F0
:10536000FF921F93CF93DF93C0914217D0914317C1
:10537000843009F457C123E837E130934C17209368
:105380004B1730934A17209349178330C1F4898D06
:105390008F70833009F043C088899989892B09F07F
:1053A0003EC088E08093441791DA8091441785FFCE
:1053B00071C51092461710924517198E51C0823050
:1053C00009F00AC18091451D8F5F8093451D8111B1
:1053D00013C08091441D8F5F8093441D81110CC0C8
:1053E0008091431D8F5F8093431D811105C0809183
:1053F000421D8F5F8093421D1092481710924717ED
:105400001092461710924517898D982F9D7F9530E1
:1054100059F48A8D8F5F8A8F883709F4198E10921C
:10542000481710924717DBC28823C9F328893989A6
:10543000232B09F4CEC09A8D2FEF290F2A8F9111BB
:10544000EECF9B8D983039F02FEF280F223008F0E7
:1054500085C0953079F4198E80E88093441736DA48
:1054600084E180937C1788E290E0909348178093C2
:105470004717A4C0392F953008F034E023E001C06D
:10548000220F3A95EAF72A8F9F5F9B8F843008F0AE
:1054900097C0813021F682E180937C1782E080936F
:1054A000831784E08093841785E08093851786EACC
:1054B000809386178CE290E090934817809347176B
:1054C00080E680937B178885809377178985809302
:1054D00078178A85809379178B8580937A178C85C6
:1054E000809373178D85809374178E8580937517BD
:1054F0008F858093761786E0809364178C819D81D9
:105500009093701780936F178E819F81909372177D
:10551000809371178091391D90913A1D909368176F
:105520008093671780913B1D90913C1D90936A1763
:10553000809369178881998190936C1780936B177A
:105540008A819B8190936E1780936D17898D84FF5C
:1055500039C510927E1710927D1710C3392F9530E0
:1055600008F034E023E001C0220F3A95EAF72A8FD1
:105570009F5F9B8F8F70833009F088CF84E080938A
:105580004417A4D98091491790914A1790934C17CA
:1055900080934B178091451790914617892B09F4FA
:1055A000ACC488899989009709F4A7C4889628E132
:1055B000909348178093471720937C1780E581CFFD
:1055C000982F9D7F943019F0883009F028CF81E121
:1055D00048CF8F708330E3CE853009F0A1C0E091D1
:1055E0002715F091281584819581892B09F417CF0F
:1055F000109243171092421787E797E190934C1748
:1056000080934B1790934A1780934917109246172F
:1056100010924517109248171092471788E0809310
:10562000441763D98091451790914617009709F464
:10563000F6CE9C01245E3F4F3093481720934717C6
:1056400032272327322730935E1720935D17E0918E
:105650002715F091281520852093631721E12093C9
:105660006417089698278927982790937417809332
:105670007317109276171092751784819581909305
:10568000701780936F17868197819093721780931C
:1056900071178091391D90913A1D909368178093EE
:1056A000671780913B1D90913C1D90936A178093E2
:1056B00069178081918190936C1780936B17828119
:1056C000938190936E1780936D1783E897E1909381
:1056D0004C1780934B1785E480935B1710925C17EF
:1056E00010926217109261178091461D9091471D8C
:1056F00001969093471D8093461D982789279827E8
:105700009093601780935F17109266171092651739
:1057100070DD8095909590936617809365175FC1B3
:1057200080915B17853409F07ACEC0915D17D091D6
:105730005E17DC27CD27DC2780914717909148170B
:105740008C179D0708F46BCED0934817C09347176A
:10575000809161178F7310916217182B11115FCE12
:10576000C090391DD0903A1DE0903B1DF0903C1D3B
:10577000C6018E299F29892B81F080916B1790910A
:105780006C17C816D90609F04ACE80916D17909112
:105790006E17E816F90609F042CE2BDD019609F0E6
:1057A0003ECE80916417863009F0C7C032DD019685
:1057B00009F035CE8091441590917C17882369F1CA
:1057C000409171175091721720912F15309130151B
:1057D0004217530711F540916F17509170172091A0
:1057E00031153091321542175307B9F440916717BC
:1057F0005091681720912B1530912C1542175307A3
:1058000061F44091691750916A1720912D153091DC
:105810002E154217530709F430C1292F2F73223058
:1058200009F040C1209171173091721730933E1DDD
:1058300020933D1D4091291550912A1524173507B5
:1058400009F02DC18111B8C180933F1D8BE295E114
:10585000909343178093421783E08093451580937C
:1058600043151092411584E080934215109246151D
:105870003093301520932F1580916F1790917017EA
:105880009093321580933115809167179091681726
:1058900090932C1580932B158091691790916A171E
:1058A00090932E1580932D1581E08093441580915F
:1058B000421D809337158091431D80933815809148
:1058C000441D809339158091451D80933A1581E0E0
:1058D00090E090933C1580933B15809176178093D0
:1058E00036158091751780933515809174178093C4
:1058F0003415809173178093331581E090E05EDC5E
:1059000080917B17982F907F9135A0F082958F70B2
:105910008550990B880F991F880F991FE12FF0E090
:10592000E817F9072CF4E35BF84E36A931114CC1A6
:1059300010933F1DCBE2D5E1AECD813109F56C97D7
:10594000D0934817C0934717209171173091721761
:1059500040916F1750917017609167177091681799
:10596000A0916917B0916A17E9ECF4E185E1E7329B
:10597000F80709F040C0F0932815E09327154FCDA4
:10598000813009F04CCD80916F17883009F047CDF8
:1059900010926F178091711790917217873FCFEF18
:1059A0009C0738F109969093721780937117809134
:1059B00067179091681790936C1780936B1780917D
:1059C000691790916A1790936E1780936D17D09214
:1059D0006817C0926717F0926A17E09269171092E1
:1059E0004417DF91CF911F91FF90EF90DF90CF9000
:1059F00008950896D8CF848195810097E1F18217A8
:105A00009307C9F586819781009719F08417950748
:105A100091F580819181009731F5C281D381CD2BA1
:105A200041F08617970739F582819381A817B90746
:105A300011F5F0932815E093271510924317109253
:105A4000421782E08093441787E797E190934C17C1
:105A500080934B1790934A178093491710924617DB
:105A600010924517DECD8F3F9807D9F6C281D381BA
:105A7000CF3FDF4FD5CFBF9679CF2BE235E13093C3
:105A80004317209342171092441792FFC2C01092FE
:105A9000441580E2809344170E946624C0CC81E0C4
:105AA00080933F1D92FDBBCC84E180937C1788E2FC
:105AB00090E0909348178093471780E580937B1779
:105AC0003091761780917A17809376172091751709
:105AD0008091791780937517209379179091741797
