:1000000095C30000AFC30000ADC300000C945814AA
:10001000A9C30000A7C30000A5C30000A3C300003C
:10002000A1C300009FC300000C94652E9BC3000079
:1000300099C3000097C3000095C3000093C300005C
:1000400091C300000C94F6138DC300008BC3000015
:1000500089C30000A3C6000085C3000083C300005D
:1000600081C300007FC300007DC300007BC300008C
:1000700079C3000077C3000075C3000073C300009C
:1000800071C300006FC300006DC300006BC30000AC
:1000900069C3000067C3000065C3000063C30000BC
:1000A00061C300005FC300005DC30000415D1942F1
:1000B0007C0A434F0565A50A46B00C47B30C68158A
:1000C0000E696E1D4B630D6B98224CBA076C6B0A60
:1000D0004DF10C6D352B4ED51C52E70954C42674D6
:1000E0002C0755E20D75A41656E50A57290A5887BC
:1000F0000F78160559A61F5AD71B0000002A034384
:100100000055004C0034003300330000002A034344
:100110000055004C0038003600380000001603621D
:10012000007500730077006100720065002E0064A6
:1001300000650000000403090409024300020100F5
:1001400080320904000001020201000524000110B0
:100150000524010301042402060524060001070505
:1001600082030800FF09040100020A0000000705DD
:100170000402400000070583024000001201100144
:1001800002000008EB034B20000001020001202FB9
:100190002000203D2000072E050DD391FF0805000B
:1001A000000C0021656A2D3B1322F862073F181DE1
:1001B0001CC700B0876BF8B611EA2A001F41000D7A
:1001C0002E2D07D3913D04320000060021656A55AB
:1001D000E43023B900070018146C070090876BF80F
:1001E0005611E92A001F410000030F1E26270000B8
:1001F00000030F1E2536386700030F256740605047
:1002000000030F275188838100030F2750C8C3C202
:100210000027000000000000006700000000000050
:1002200000500000000000000081000000000000FD
:1002300000C2000000000000504C4C310D0A00507C
:100240004C4C300D0A005620312E36382043554C88
:10025000383638005620312E36382043554C34334A
:10026000330043554C5F563300202F2000203D20A3
:10027000004C4F56460D0A00424F56460D0A0045A7
:1002800052523A4343410D0A000B08105B11F81516
:1002900047191D1A1C1BC71C001DB221B623EA00FA
:1002A00007022E030D04E905CA070C0B060D210EEB
:1002B000650F6A10C81193120315341733181819F3
:1002C000161B4321562500261129592C812D353E18
:1002D000C34C454E4552520D0A004C4F56460D0A2E
:1002E000004C454E4552520D0A000007024604C616
:1002F00005260B0610C81193120313221534173F5D
:10030000182819161B432156250026110D210E65AC
:100310000F6A070C160720F81E871F6B29592C81BE
:100320002D353EC3FF007370656369667920766181
:100330006C6964206D6F6465206E756D6265720D09
:100340000A000302FF00000000000000000000009F
:10035000000000000000030210881182FF0000006E
:100360000000000000000000000003071088110BCF
:100370000D210E6B0FD01553FF00000000000B067F
:100380000D210E650F6A1700181819161B431C68FB
:10039000250026110001024605D4042D03020700A2
:1003A00008021089115C12061556FF000D2E2D074C
:1003B000D3913D04320000060010B07155E43023A3
:1003C000B900070018146C070090876BF85611E904
:1003D0002A001F41000D2E2D07D3913D043200004D
:1003E000060010ABA5550A3023B900070018146C9D
:1003F000070090876BF85611E92A001F41000D0A8B
:100400000020436865636B73756D204572726F726F
:100410002C2043616C63756C6174656420436B735D
:100420003A20006B72000D0A002020526563656956
:1004300076656420446174613A2000427974657382
:1004400020696E204669666F3A20004B6F707020FD
:10045000436F6D6D616E6420556E6B6E6F776E0DC0
:100460000A004B6F70702052656365697665205392
:100470007562436F6D6D616E6420556E6B6E6F7744
:100480006E0D0A0052585F494E49545F4552525F03
:100490004D41524353544154455F5258006B72537F
:1004A0002D5265636569766553746172740D0A0037
:1004B0006B72452D52656365697665456E640D0AFC
:1004C00000204279746573206F72204B6579636FE9
:1004D0006465206973206E6F206865782076616C92
:1004E00075650D0A004B6F7070205472616E736DEC
:1004F00069747420436F6D6D616E64206E6F74203B
:10050000657175616C20746F2000426C6F636B3392
:100510000D0A00426C6F636B320D0A005B686578F0
:100520005D0D0A007469636B732D426C6F636B53CE
:100530007461727454696D653A20005B6865785D1A
:100540000D0A004B65794F666654696D653A202047
:10055000202020202020202020005B6865785D0D71
:100560000A00426C6F636B2053746172742054698B
:100570006D653A2020202020005B6865785D0D0ABB
:10058000005469636B2054696D65723A2020202005
:1005900020202020202020005B6865785D0D0A0067
:1005A0004B65794F666654696D6520696E20746984
:1005B000636B733A2020006D7365630D0A004B6511
:1005C000794F666654696D653A20202020202020EE
:1005D00020202020000D0A005469636B2054696DAF
:1005E00065723A2020202020202020202020000D8D
:1005F0000A000D0A416D6F756E74206F6620427996
:1006000074657320284865782920666F756E6420AC
:10061000696E7369646520636F6D6D616E64206CD3
:10062000696E6520706172616D657465723A202033
:10063000202020202020202020000D0A4E657874E4
:10064000204368617261637465722028696E742941
:1006500020616674657220706172616D6574657287
:10066000202873686F756C64206265206C696E6504
:1006700020656E6420636861726163746572293AF3
:1006800020000D0A537472696E676C656E6774683A
:100690003A202020202000636F6D6D616E646C69CC
:1006A0006E65706172616D657465723A2000547296
:1006B000616E736D6974740D0A0054585F494E4938
:1006C000545F4552525F00012E4604AA540FE000C9
:1006D0000000060021656A97831663B947070C2955
:1006E000366C074091876BF85611E92A001F4100CC
:1006F0004E2F4100454F420D0A004E2F41004E2F14
:10070000410000535300547D7DFFFF4B4B7E7E0024
:1007100020697320756E6B6E6F776E292055736537
:10072000206F6E65206F66003F20280011241FBED9
:10073000CFEFDAE0DEBFCDBF11E0A0E0B1E0E0E254
:10074000F5E602C005900D92A035B107D9F725E076
:10075000A0E5B1E001C01D92A136B207E1F70CD0CF
:100760000C9484324DCCF89481E085BF82E085BF43
:10077000E0E0F8E30995089588E19FE00FB6F8946A
:10078000A895809360000FBE9093600080E890E091
:100790000FB6F89480936100909361000FBE2E9A7B
:1007A0002D9A04B603FE0AC083E390E0F8D58823AF
:1007B00029F060E083E390E0EDD5D5DF89EF87BDD8
:1007C00084E085BD82E084BD80936E00109280003D
:1007D0008AE08093810084B7877F84BF6E9A0E94ED
:1007E000032BE0D60E943A2E0E947D260E94660FBF
:1007F00089EB9AE29093CA048093C9040E94FE1583
:1008000089E080935A0176980E94162F02D20E94A6
:10081000781138D30E94F6160E94EB170E94611BD4
:100820000E94961C0E94F824EFCF9C01DA01832FCE
:1008300099278230910549F18330910539F001976C
:1008400049F180E090E020E030E00EC0C901992736
:10085000213069F08230910569F0E5E3F1E0892B00
:1008600081F7849190E09F012D933C930895EDE1F1
:10087000F1E0F7CF2DEF30E01E9B02C02DE031E01C
:10088000EDE0F1E0849190E0EFCF83E490E029E3A4
:1008900031E0EACF82E190E02CE731E0E5CF8EBD98
:1008A0000DB407FEFDCF8EB50895EF92FF920F9322
:1008B0001F93CF93C82F8A3008F0C8E028E0C29F6A
:1008C000C0011124FC01E851FE4F7F010BE210E052
:1008D000F7016491C8010F5F1F4F5CD5FFEFEF1A5E
:1008E000FF0A03331105A1F7C55061E1C53008F0D7
:1008F00067E184E290E04ED5CF911F910F91FF9078
:10090000EF9008950F931F93CF93DF930FEB11E0B8
:10091000C2E0D0E0F8016491CE0121963BD50F5F93
:100920001F4FCB32D105B1F706E911E0C7E3D0E0A4
:10093000F8016491CE0121962DD50F5F1F4FC0366F
:10094000D105B1F71E9918C060E18FE090E022D583
:1009500060EB80E190E01ED561E781E190E01AD57F
:1009600060E184E490E016D560EB85E490E012D578
:1009700061E786E490E00ED588E097DFDF91CF91C4
:100980001F910F9108952898806C89DF80E087DFA0
:10099000289A0895CF93C62F2898806480DF8C2FE3
:1009A0007EDF289ACF910895289879DF289A0895B4
:1009B0000F931F93CF93DF93EC0110929902EA9863
:1009C000209A289A8EE190E02FD328988EE190E02B
:1009D0002BD3289A8DE290E027D380E3E5DF84E6ED
:1009E00090E022D3289880E45ADF8E01075D1F4FE4
:1009F000CE012196D4D453DF0C171D07C9F7289ACE
:100A000028988EE74CDFCBE2D0E0CE012196C7D408
:100A100046DFC333D105C9F7289A83E3C5DF81E0F8
:100A200008D3DF91CF911F910F910895A1E0B0E01D
:100A3000ECE1F5E00C94652F22E0298341E0BE0152
:100A40006F5F7F4F019643D489812FDF82E090E072
:100A5000AFDF2196E2E00C94812FCF93EA9886E3F2
:100A6000A3DFCFEF85E3A0DF8077803231F08AE02B
:100A700090E0DAD2C150C111F5CFCF910895CF9354
:100A8000CFEF84E391DF8077803131F08AE090E02E
:100A9000CBD2C150C111F5CFEA9ACF910895A2E00F
:100AA000B0E0E5E5F5E00C94632F8C01FC01818159
:100AB0008737F1F441E0BE016F5F7F4FC8010296B6
:100AC00006D4892BA9F041E0BE016E5F7F4FC801BB
:100AD0000496FDD3892B61F06A8189815BDF83E312
:100AE00063DFCDDF8981EFD38A81EDD368D318C06E
:100AF00041E0BE016E5F7F4FC8010196E8D3892BAC
:100B000079F08A81893981F410E0812F3CDFDBD3D1
:100B1000812F8770873009F452D31F5F1033A9F7F4
:100B20002296E4E00C947F2F2EDF182F83E4F0D27E
:100B30008A81C9D382E991E035D3812FC4D38EE86D
:100B400091E030D340E262E0812F90E03CD3CECF01
:100B500086E32ADF109250011092970210929902B8
:100B6000089582E090E024DF81E0809350011092AC
:100B700097021092990208950F931F93CF93DF93DA
:100B8000D82FC0E0062F10E085E3FDDE8D1759F069
:100B9000C8014AD2C150C111F7CF81E0DF91CF9196
:100BA0001F910F91089580E0F9CF85E2ECDE8F333D
:100BB00011F080E0089586E3F7DE80915101811104
:100BC00012C08FE392E0EED283E3EEDE64E081E0D8
:100BD000D3DF85E2D8DE8F3361F78091510188231E
:100BE00029F081E008958DE3DFDEEECF88E392E027
:100BF000D9D2F7CF85E3C7DE8D3051F485E2C3DE6D
:100C00008F3331F4D2DF84E3CFDE80778031D9F7C0
:100C1000089580915105843009F03EC08093E90029
:100C200080915201811104C08091E80085FD3AC095
:100C300083E08093E90080914604882369F18091E4
:100C4000E80085FF29C0F89480914604882341F08C
:100C50008091F2009091F3008034910508F443C034
:100C600078942091F2003091F3008091E800982F61
:100C70009E7F9093E8008F778093E80020343105C1
:100C800059F40E94EA2C8091E800982F9E7F90935F
:100C9000E8008F778093E80008956091F10081EC7F
:100CA00093E0A7D48091F2009091F300892BA9F7EB
:100CB0008091E800982F9B7F9093E8008F77809336
:100CC000E80081E08093520189E096E09093C804A7
:100CD0008093C704E091C904F091CA0481E00995AA
:100CE00010925201A5CF84E494E09AD48093F1004D
:100CF000ABCF42E061EC82E00E949C2C42E361E8D1
:100D000083E00E949C2C42E360E884E00E949C2CDB
:100D10001092000110920101109202011092030141
:100D2000089580915205909153059132B1F092321D
:100D300059F1903291F5813281F58091E800877FF9
:100D40008093E80067E070E080E091E00E94B62DBB
:100D50008091E800982F9E7F11C0813AF1F4809134
:100D6000E800877F8093E80067E070E080E091E032
:100D70000E94142D8091E800982F9B7F9093E800AB
:100D80008F778093E8000895813239F48091E800EC
:100D9000877F8093E8000C94C62C08951F921FB69D
:100DA0001F9211248F939F93AF93BF93EF93FF9361
:100DB0008091540190915501A0915601B091570135
:100DC0000196A11DB11D8093540190935501A093EC
:100DD0005601B0935701809153018F5F8093530167
:100DE000E5ECF2E080819181181619061CF4019758
:100DF00091838083369682E0ED3DF80799F78091E4
:100E0000FE029091FF02009729F001979093FF0254
:100E10008093FE02809102038F3F19F081508093EE
:100E20000203FF91EF91BF91AF919F918F911F901E
:100E30001FBE1F901895FC018FB7F8944091540184
:100E40005091550160915601709157014083518333
:100E5000628373838FBF0895A4E0B0E0E2E3F7E01C
:100E60000C94652FCE010196E6DF8C812CD28B810C
:100E70002AD28A8128D2898126D2A1D12496E2E081
:100E80000C94812F0F931F93CF93809154019091D5
:100E90005501A0915601B091570120915901281791
:100EA00009F457C08091540190915501A0915601C9
:100EB000B091570180935901A89505EC12E0C0E06C
:100EC000F80180819181892B19F48C2F0E94EF28E1
:100ED000CF5F0A5F1F4FC43099F78091FE02909157
:100EE000FF02892B11F40E944D2980910203811188
:100EF00002C00E94A42980919202882339F0815077
:100F000080939202811102C00E9488178091530140
:100F10008D37F8F0109253018091070181FF04C0D2
:100F20008EB190E489278EB980915C0190915D012A
:100F30008438F3E09F0728F4019690935D01809335
:100F40005C018091580191E0980F8B3331F09093C0
:100F50005801CF911F910F910895109258018091DF
:100F600000038F5F8C3318F480930003F2CF10924C
:100F70000003EFCFA0E0B0E0E0ECF7E00C945F2FCF
:100F8000EC016EE070E00E9416328D3009F03DC039
:100F9000769A10919902112331F0109299028AE405
:100FA00091E0B5D711E080915001811101C0D9DDE8
:100FB00054DD04E06E018DE0C80ED11C5B9A88EE12
:100FC00093E032D07E01EFEFEE1AFE0AF701819135
:100FD0007F015B988133F1F488EE93E025D05B9A32
:100FE00080ED97E021D0EC14FD0481F75B9883E25B
:100FF00020D001500111E2CF80916301882389F054
:101000003EDD11110E9475197698CDB7DEB7E8E084
:101010000C947B2F80ED97E007D05B9A88EE93E0ED
:10102000E1CF86E3C1DCEDCF880F991F0197F1F77F
:10103000089520ED37E0811101C00895F90131973D
:10104000F1F78150F8CFCF93DF93FC018381843592
:1010500009F055C08081DF0150962DE0281708F473
:1010600051C030E090E0AC014F50510924173507D2
:1010700009F045C0EF012396DC011E97AC0FBD1FA0
:101080002C912435E1F5348111962C91119732136E
:1010900036C0358112962C911297321330C03681AA
:1010A00013962C91139732132AC0378114962C91E2
:1010B0001497321324C04197C80FD91F15968C91ED
:1010C0001597888316968C911697898319968C911B
:1010D00019978A831A968C911A978B831B968C91F9
:1010E0001B978C831C968C911C978D831D968C91DD
:1010F0008E8380818A50808382818A508283DF91AF
:10110000CF9108959D919B3309F4ABCF2F5FA6CF6C
:10111000CF93C82F80915105843049F580915A01B1
:1011200080FF25C08091460487FD73DD6C2F84E429
:1011300094E05FD2CA30C1F0809194028823A9F074
:1011400080915A0183FF11C0CD30E1F46BE38EE052
:1011500092E04FD28EE092E076DF83E080939202BD
:1011600082E08093910201C054DDCF910895809177
:1011700094028823D1F380915A0183FFF6CFCA30BD
:1011800019F7F3CF6C2F8EE092E033D2E6CFCF93F6
:10119000DF93EC018991811103C0DF91CF91089514
:1011A000B7DFF8CFCF93DF93EC01FE01849181117B
:1011B00003C0DF91CF910895ABDF2196F6CF8DE08C
:1011C000A7DF8AE0A5CFA6E0B0E0E9EEF8E00C9456
:1011D000612FFC01262F1E828E010A5F1F4F35E012
:1011E0008AE0E82EF12CCF01B7010E94282F315060
:1011F000805DD8018E938D01CF01FB010A97A8F481
:10120000832F2550622F630F615067FD02C081114B
:1012100010C021E030E02C0F3D1F280F311DC90107
:10122000B6DF2696E6E00C947D2F3111DCCF80E00E
:10123000E8CF8150E1E0F0E0EC0FFD1FE80FF11D79
:101240004083E2CFA5E0B0E0E8E2F9E00C94652F3E
:101250009C011D8254E0922F9F709A3048F5905D5A
:101260008FEF850FE1E0F0E0EC0FFD1FE80FF11DBF
:101270009083F90194E0F695E7959A95E1F720318E
:10128000310598F45550650F615067FD02C081111A
:1012900011C021E030E02C0F3D1F280F311DC90186
:1012A00076DF2596E2E00C94812F582F9F01D3CF53
:1012B000995CD6CF8150E1E0F0E0EC0FFD1FE80F24
:1012C000F11D4083E1CF40E362E090E0BBCFCF93DC
:1012D000DF93EB01FB0130E020E0DC019D919923DD
:1012E00031F0913670F08FE9890F863030F0CF0100
:1012F0008C1B9D0BDF91CF91089590529753292B12
:1013000005C080ED890F8A3050F4282B332389F0F3
:1013100021934150442359F330E020E008C08FEB83
:10132000890F863058F3903211F09A3301F7CD01CE
:10133000D4CF2295207F31E0FACFDB0120E030E0EE
:101340004AE0FC018191811103C02D933C930895E3
:1013500090ED980F9A3050F4429FB001439F700D6A
:1013600011248053990B9C01260F371FCF01E9CF21
:10137000FB01982F92959F70803A40F4905D908386
:101380008F708A3028F4805D81830895995CF7CF4F
:10139000895CFACF0E942C32F999FECF08950C9403
:1013A000243208950F931F93CF938C01CFEFC60F74
:1013B000C801F5DF88DFCC2331F00F5F1F4F8AE3D0
:1013C000A7DEC150F5CFCF911F910F910895A2E0F4
:1013D000B0E0EDEEF9E00C94622FFC0181818D34D8
:1013E00049F466E08AEF93E0DDDFE9DE2296E5E08E
:1013F0000C947E2F803521F460E18AED93E0F4CFE8
:101400001A82198242E0BE016F5F7F4FCF010196C1
:101410005EDF098110E0823029F409811A811027EA
:1014200001271027C801BBDFF82E82E571DE40E3FB
:1014300064E0C80107DF8DE692E0B4DE8F2D43DF64
:1014400089E692E0AFDE40E262E08F2D90E0BBDE05
:10145000CCCFA6E0B0E0EFE2FAE00C945D2F6C0197
:1014600043E0CE0101967C01BC01C60101962FDF4D
:101470008C01BE2CAF2C8230D0F0E980F12C823070
:1014800029F0E980FA80FE24EF24FE241127FE01D2
:10149000E00FF11F6081C7017DDF000F111F0F5F9B
:1014A0001F4F0C0D1D1DF8018081811104C026966F
:1014B000EAE00C94792F41E06B2D7A2DC80107DF0B
:1014C000892BA9F39FEFE91AF90A6981C70162DF45
:1014D0000E5F1F4FE8CF41E067E071E00196F7DE55
:1014E0008091070180FF06C0769A6091070184E32E
:1014F00090E050CF7698F9CFA1E0B0E0E2E8FAE0D2
:101500000C94652F1982009731F041E0BE016F5FA6
:101510007F4F0196DCDE89818F3F09F4FFCF88235E
:1015200021F061E083E390E035DF0E94452E1092C8
:101530006E00F89488E198E00FB6F894A89580932F
:1015400060000FBE90936000FFCFCF93DF93EC015C
:1015500061E080E090E01EDF64E481E090E01ADF6B
:10156000D1D960E080E690E015DF60E081E690E0B0
:1015700011DF60E083E390E00DDF62E084E390E060
:1015800009DF60E080E690E005DF60E081E690E062
:1015900001DF8981883719F080E090E0ADDFDF91CD
:1015A000CF91089580E090E0FADE813029F481E067
:1015B00090E0F5DE843419F080E090E0C6DF84E34B
:1015C00090E0EDDE809307010895FC01818188346D
:1015D00021F482E692E0E6DDF2CD84E592E01E9B06
:1015E000FACF86E492E0F7CFFC01128210821182DA
:1015F0000895FC019FB7F894828187FF02C09FBFC6
:1016000008958F5F8283A08181E08A0F8083AE0F6F
:10161000BF2FB11D13966C93803889F71082EFCFDE
:10162000FC019FB7F8948281811102C09FBF089589
:1016300081508283A18121E02A0F2183AE0FBF2F29
:10164000B11D13968C91203889F71182EFCFCF937B
:10165000DF93FB01DA019C91882369F0EB01C90F4C
:10166000D11D41E050E0022E01C0440F0A94EAF778
:101670008881842B8883222331F02150822F90E0AF
:10168000DF91CF9108959F5F9C3008F49C93E90F00
:10169000F11D108227E0F2CF5B9A882379F08091C8
:1016A0005F0120E1829FC0011124BEDC5B98809124
:1016B0005E0120E1829FC0011124B6CC80916101BE
:1016C00020E1829FC0011124AFDC5B988091600112
:1016D000F0CFA9E0B0E0EFE6FBE00C94552F4C0111
:1016E000362E2F83702EED82442E512C4E5F8C2D82
:1016F0008A0D409F800D1124082E000C990B20911B
:101700005C0130915D012817390738F481E792E0D8
:1017100049DD2996E2E10C94712F281B390B309397
:101720005D0120935C01769A60909902662039F001
:10173000109299028AE491E0EAD36624639480913E
:101740005001811101C00DDA88D9E0E1CE9EC001BF
:1017500011249A838983E0E1AE9EC00111249C8309
:101760008B83CA28CE82E32CF12C01E010E0FF81AC
:10177000CF2ED12C2E81222341F05B9A89819A8130
:1017800053DC5B988B819C814FDC1F82EF818E2F15
:10179000EE0F990B8E159F0554F1332011F081E067
:1017A0007BDF212C822D022C000C990B99878887D6
:1017B0008415950514F127E0B22E880D991D99879F
:1017C00088878B2D0B2C000C990BC816D9067CF141
:1017D0008D812FDC7A947110CDCF809163018823A5
:1017E00099F14DD961100E947519769892CF80E0D9
:1017F00053DF8F818F5F8F83C9CF37E0A32EB12C4A
:1018000088859985880D991D99878887C8010A2C34
:1018100001C0880F0A94EAF7E885F9859081892349
:101820003BDFF1E0AF1AB10888F72394BBCFC801C2
:101830000B2C01C0880F0A94EAF7E885F98590819E
:1018400089232ADFBA94BDCF86E3AED8CBCFADE0F3
:10185000B0E0EDE2FCE00C94562F7C01162F842FB3
:10186000022F6701C60ED11C462FB70166D3F601C1
:1018700080831F5F1D861982C12CD12C27E0CE01E9
:101880000D9666246394712C582E492E97E0A92E4C
:10189000B12C47018C0C9D1CC116D8F0222309F4F1
:1018A00042C0215089E1809360018093610185E20B
:1018B00080935E0180935F01A12CC12C8AE0E82E09
:1018C0004D856CE0CE01019604DF2D96E1E10C948C
:1018D000722FF4013080C3010A2C01C0880F0A94D2
:1018E000EAF7452D542DBE016F5F7F4F8321AFDE98
:1018F000282FF1E0AF1AB10878F6032C3294302487
:10190000032C369436943024339431FA882780F9A6
:10191000452D542DBE016F5F7F4F99DE282FEFEFCD
:10192000CE1ADE0AB3CF8D858F5F8D8727E0BACFC1
:10193000ACE0B0E0EEE9FCE00C94632F162F042F2E
:101940004BE0BE016F5F7F4F0196C1DC682F202FF7
:10195000412FCE0101967BDF2C96E4E00C947F2F83
:1019600043E066E0E5CFAF92CF92EF920F93CF9333
:10197000DF93CDB7DEB760970FB6F894DEBF0FBE2A
:10198000CDBF40E1BE016F5F7F4F0196A0DC698152
:101990004A810B818C81809361018D8180936001EC
:1019A0008E8180935F018F8180935E01E02EE294AF
:1019B0008FE0E8220F70242F2F7042954F70A12CDA
:1019C000C12CCE01089685DE60960FB6F894DEBF76
:1019D0000FBECDBFDF91CF910F91EF90CF90AF9021
:1019E0000895A9E1B0E0E7EFFCE00C945B2F4BE039
:1019F000BE016F5F7F4F01966ADC182F8930C1F5F9
:101A000089E1809360018093610180935F0182E3AB
:101A100080935E0169E0CE0101969AD2E1E0F0E0A8
:101A2000EC0FFD1FE10FF11D8083198E1D868E01C5
:101A30000F5F1F4F7E018BE0E80EF11C27E0CE0107
:101A40004996CC24C394D12C982E892EA12CB12C4C
:101A50000E151F0589F4222389F12150A12CC12CD8
:101A60008AE0E82E03E0498D6CE0CE010D9631DE70
:101A70006996ECE00C94772FC6010A2C01C0880F00
:101A80000A94EAF7F8019081492D582DBE01635F51
:101A90007F4F8923DCDD282FFFEFAF1ABF0A88E0D4
:101AA000A816B104A9F6492D582DBE01635F7F4FDA
:101AB00081E0CDDD282F0F5F1F4FC8CF898D8F5F4D
:101AC000898F27E0CBCFA9E1B0E0E9E6FDE00C94F7
:101AD000572F4BE08E010F5F1F4FB8010196F7DBC8
:101AE000782E85E38093610196E190936001909355
:101AF0005F0180935E01672DC80136D2F801E70DC2
:101B0000F11D80837394198E1D86780127E06E0184
:101B100089E1C80ED11CAA24A394B12C8E2D801B60
:101B2000871570F0A12CC12C8AE0E82E03E0498DC6
:101B30006AE0CE010D96CDDD6996E0E10C94732F3D
:101B4000812C912CF7015080C501082C01C0880F11
:101B50000A94EAF7A601BE01635F7F4F852177DD16
:101B6000282FFFEF8F1A9F0A4C2C6D2C84E08816CB
:101B7000910441F7A601BE01635F7F4F81E067DDFD
:101B8000282FC501082C01C0880F0A94EAF7442DBC
:101B9000562DBE01635F7F4F852159DD282FEFEF62
:101BA0008E1A9E0AF8E08F16910459F7442D562D8F
:101BB000BE01635F7F4F81E04ADD282F8FEFE81A77
:101BC000F80AACCFAF92CF92EF920F93CF93DF93FF
:101BD00000D000D0CDB7DEB743E0BE016F5F7F4FCE
:101BE000019675DB8AE68093610194E2909360012F
:101BF00091E290935F0180935E0180E88C83A12C39
:101C0000C12C8FE0E82E03E026E043E060E0CE0147
:101C100001965FDD0F900F900F900F90DF91CF91A5
:101C20000F91EF90CF90AF900895AF92CF92EF9237
:101C30000F93CF93DF93CDB7DEB72C970FB6F89401
:101C4000DEBF0FBECDBF4BE0BE016F5F7F4F029680
:101C50003EDB8530C1F48EE3809361018CE180939B
:101C6000600181E280935F018AE380935E0185E2F7
:101C7000A82E9AEFC92EE12C05E024E044E068E0AC
:101C8000CE01019626DD2C960FB6F894DEBF0FBE6E
:101C9000CDBFDF91CF910F91EF90CF90AF9008958E
:101CA000A0E0B0E0E6E5FEE00C945D2FFC011092B0
:101CB0007F014181440F440F440F8381481B87E01B
:101CC000C82EC40E1092800120E030E047E057E0BB
:101CD00070E080E097E0E92EF12C01E010E0DD24D7
:101CE000D394D80E8C1580F02093940130937F010B
:101CF000CD14A0F5653409F088C04F3F09F085C0C8
:101D00002F5F2093940183C0DF01A70FB11D1496AC
:101D10008C9190E0052E02C0959587950A94E2F784
:101D20008170552369F051506B34D1F4433059F42C
:101D3000332371F030E0811155C04150832F1EC014
:101D40007F5F57E0F1CF4F3FB1F781110FC02FC038
:101D5000811114C02093940110927F0180E05DC036
:101D60004F3F51F5663469F0653479F32F5FA22F48
:101D7000B0E0A058BE4F1C92832F47E0382F8D2D26
:101D8000AECFA22FB0E0A058BE4FAC910A2EA295C4
:101D9000A0250A2EA695A695A02590E0AF5FA69552
:101DA000A170CA2FA12CDA2D8C179D07F9F2209370
:101DB000940130937F01D2CF882309F4BECF6634DB
:101DC00071F4A22FB0E0A058BE4FBC90C801042E01
:101DD00001C0880F0A94EAF78B298C93AECF653443
:101DE00009F0ABCFA22FB0E0A058BE4FC701841BB3
:101DF000910947FD9395580102C0AA0CBB1C8A9516
:101E0000E2F7C5019C91892BE8CF311179CF81E0B0
:101E100090919401992309F4A1CFCDB7DEB7EAE000
:101E20000C94792F10926F00E09197018CE1E89F5C
:101E3000F0011124E856FE4F1082809162018D7FDF
:101E4000809362010895FC018181843108F0EACF1A
:101E50009381662381F0DF01A80FB11D41E050E0BE
:101E6000092E01C0440F0A94EAF714962C91149796
:101E7000242B14962C93992319F091509383089551
:101E800097E093838F5F8183E80FF11D148208959B
:101E900070E030E0FB01E21BF30B3B967797A0F478
:101EA00090E050E0FC01E41BF50B3B96779760F463
:101EB000680F791F240F351F621B730B655F7F4FFF
:101EC00081E06731710508F080E00895539A5B98CE
:101ED0005298E9E6F0E080818061808382EC91E0B5
:101EE00090935D0180935C01E8E9F1E0148E10AEFF
:101EF0001092EC01109250010895809163018823A3
:101F000021F00E94B1050C943F050C94A805FC013A
:101F1000818181110BC080916301D5D940E265E0D8
:101F200080915C0190915D014ED949C941E063E621
:101F300071E0CF010196CBD9E0CF9B01411101C0E7
:101F400008954150F901E40FF11D9081890FF6CFFA
:101F50009C0180E0611101C008956150F901E60F14
:101F6000F11D90818927F6CFAC01F0917F01362FCA
:101F700085E090E0311109C0292F280F80E1289FCA
:101F800090011124892F822B08957FEF730FDA01BE
:101F9000A70FB11D2C91E22FE295EF709E278E0FB7
:101FA000FF2311F0361719F02F709227820F372F69
:101FB000E1CFFC0122813381A081B181A20FB11D4B
:101FC0008C9190E0032E02C0959587950A94E2F7D4
:101FD00081709FEF930F9383311104C02F5F228391
:101FE00097E093830895A0E0B0E0E9EFFFE00C9460
:101FF0005E2FD82EC92EE42E062F10E0E801F12C1A
:10200000BB24B394209731F48F2DCDB7DEB7E9E030
:102010000C947A2F8D2D9C2DCCDFAE0141505109AF
:10202000882349F0EE2049F02B2D042E01C0220F09
:102030000A94EAF7F22AEA01E5CF98012C1B3D0B3E
:102040008B2D01C0880F2A95EAF7282FF3CFA4E043
:10205000B0E0EDE2F0E10C945D2FFC011B8287E023
:102060008C83CF0104969A83898310929401818195
:1020700028E0829FC0011124438127E030E0241B27
:102080003109820F931F853491050CF04CC080E01C
:1020900046C0A9DFA82EE12FF0E0E058FE4F808374
:1020A000082F002E02950025002E06950695002586
:1020B000CE0101967EDF90E00F5F01FBCC24C0F8DB
:1020C000D12C8C159D0519F7CE01019672DF811177
:1020D000DECFBA241F5F109394011091940140E069
:1020E00068E0CE0101961630A0F27DDF082F182F90
:1020F000012E12951025012E169516951025CE014C
:10210000019657DF90E01F5F11FBEE24E0F8F12C01
:102110008E159F0509F0BBCF81E0B012B8CF249691
:10212000EAE00C94792FB12CD8CFA4E0B0E0EBE931
:10213000F0E10C945F2FFC011B8287E08C83CF01C0
:1021400004969A8389838081853009F03FC081811C
:1021500028E0829FC0011124438127E030E0241B46
:102160003109820F931F8039910581F580E00FE0DE
:1021700010EF49E8F42E80939401C82ED12CEE2460
:10218000E394E80E41E068E08F3029F5CE01019636
:102190002ADF080F111D90E19093940180958093A0
:1021A0008F0141E068E0CE0101961DDF90E0982F9D
:1021B0008827081B190B41E068E0CE01019613DF68
:1021C000282F30E081E02017310709F080E02496C5
:1021D000E8E00C947B2FCE01019605DF080F111D5E
:1021E000F601E058FE4FF826F08234E2F32EF80EA6
:1021F0008E2DC1CFA4E0B0E0E0E0F1E10C94642FBB
:10220000FC011B8287E08C83CF0104969A8389832B
:1022100081818430D1F483818130B9F410E010934E
:10222000940141E01430B1F467E0CE010196DBDEA9
:10223000880F8093840185E08093940190918001C0
:1022400092959F7081E09A3009F080E02496E3E057
:102250000C94802F11110CC067E0CE010196C3DEF3
:102260008068E12FF0E0E058FE4F80831F5FD7CFFA
:1022700068E0CE010196B7DEF4CFFC0181818330A6
:10228000D9F483818730C1F480818830A9F480E05B
:102290009181891720F08093940181E00895282F7F
:1022A00030E0DF01A20FB31F14969C9120583E4FDF
:1022B000D9019C938F5FECCF80E00895FC01908161
:1022C00080916201993611F0933771F4982F9370D1
:1022D000913021F4866080936201089580FFFDCFE4
:1022E000809162018B7FF7CF80FDF7CF8460F3CFC1
:1022F000A1E0B0E0EEE7F1E10C94602F198280914B
:1023000064018823A1F18091630187FF14C084E3F5
:102310000E94C3048058803408F442C0803C08F016
:1023200041C08055990B23E0959587952A95E1F753
:102330008F590E9488088091630183FF16C082E74D
:102340000E9488088091630184FF04C08091650128
:102350000E94880886E60E9488088091630184FFB5
:1023600004C0809164010E948808109264018091E9
:102370009501882309F4B3C1769A009196012CE166
:10238000029F8001112408561E4F898181111FC0B0
:10239000C80173DF882309F4B7C183E7898317C0B5
:1023A00080E0C6CF8FE0C4CF83E5F8CF282F30E0A0
:1023B0002F5F3F4F4E2D50E02417350709F070C0B6
:1023C00093E09F1508F0BFC196E499838083E9806C
:1023D000D0906301EE2009F4FDC0D0FEFBC08091D7
:1023E00062018A7F809362018D2D8270811125C0E8
:1023F000F090940190917E01EAE6F1E0A0E8B1E06E
:102400009F1509F493C04F2D50E060E871E08AE613
:1024100091E00E94F731F0927E01809154019091F9
:102420005501A0915601B091570180936601909398
:102430006701A0936801B0936901F4E5EF1297C0BA
:10244000D6FC1BC0809194018530B8F08091820148
:102450008B3471F0893661F09DEA980F923040F02C
:102460008D57823028F0809183018077803729F45E
:1024700080916201816080936201B801CE01019672
:102480001DDF80919402882309F475C080910403B4
:10249000811171C0809162018B7F809362016BC05A
:1024A0004F2D60E871E08CE048DDE8124CC1E3E0BC
:1024B00084E5EF1508F472CF46C1809194018150F4
:1024C00080939401893009F044C169E080E891E08B
:1024D0003FDD9091890189133CC185E45FCF88E499
:1024E0005DCF84E75BCFE0919401FF24FA94FE0E68
:1024F000F09294016F2D80E891E036DD90917F019C
:102500002F2D291B330BF901E058FE4F90818913C1
:1025100038C18BE443CF21919D918F5F291731F012
:10252000809162018D7F809362016DCFF812F3CFAD
:10253000F0927E018091540190915501A091560135
:10254000B091570140916601509167016091680117
:1025500070916901841B950BA60BB70B8697A1059B
:10256000B10508F050CF809162018160DCCFB801E5
:10257000CE010196A3DE8091620182FF2BC08E2DD9
:102580000E94880880917F01882329F0809194011E
:10259000815080939401F12CE0919401FE1608F48F
:1025A000A2C080917F01882351F0F0E0E058FE4FF7
:1025B00080818F7040E361E090E00E942209809169
:1025C000630185FF05C084E30E94C3040E94630980
:1025D0000E94DF088091630182FF69C080E70E944A
:1025E0008808F801808140E262E090E00E94E30800
:1025F000F801808D40E265E0F0E18F9FC001112479
:102600000E94E308F801818D40E265E0F0E18F9FD0
:10261000C00111240E94E308F801828D40E265E0C8
:10262000F0E18F9FC00111240E94E308F801838D1F
:1026300040E265E0F0E18F9FC00111240E94E308B1
:10264000F801828140E263E090E00E94E308F80133
:10265000818140E263E090E00E94E308F801838119
:1026600040E262E027E030E0F901E81BF109CF0128
:102670000E94E30880E20E9488088091630185FF40
:1026800008C084E30E94C3040E94630980E20E94A0
:102690008808F8018381873019F081818F5F8183F9
:1026A000F12CF8018181F81638F10E94DF08F80159
:1026B00010828091950181508093950190919601AF
:1026C00081E0890F933009F480E080939601769839
:1026D0008981843521F480E891E00E94B329219614
:1026E000E7E00C947C2FEF2DF0E0E058FE4F808166
:1026F0000E946309F39450CFF801EF0DF11D84811E
:102700000E946309F394CDCFC8010FDD81114CCE37
:1027100066E4C801C5DA8823B9F0F0909401FA9410
:10272000F09294014F2D60E871E086E006DCEF2D19
:10273000F0E0E058FE4FE080E81238CE33E086E467
:102740003F1508F42BCE198265E4C801A9DA81117E
:10275000B4CEC8017CDC8111C2CEC8014BDD811131
:10276000C0CEF801638DE0906501262F4E2D828D3D
:102770008FDB682FC80167DB6BE4C80191DA811138
:10278000B2CEF801838191E0980F9383873029F4CA
:10279000F8018181138281508183F8018181843025
:1027A00009F015CEF8018381843009F010CE2EE1B6
:1027B0004CE3618D808D6CDB882309F408CE2EE11B
:1027C0004E2DF801638D828D63DB682FC8013BDBE2
:1027D00085E0F8013496A0E8B1E001900D928A9569
:1027E000E1F785E08093940182E5D8CD1F920F92A6
:1027F0000FB60F9211242F933F934F935F936F93D4
:102800007F938F939F93AF93BF93EF93FF93109218
:102810006F008091630183FF03C08EE20E948808ED
:10282000909197018CE1989FF0011124E856FE4F9A
:102830008081833018F08181823090F4F3DAFF9147
:10284000EF91BF91AF919F918F917F916F915F9128
:102850004F913F912F910F900FBE0F901F901895A1
:1028600080919501833049F48091630182FFE6CF26
:1028700088E792E00E94D208E1CF8F5F80939501B4
:1028800081E0890F933019F080939701D8CF10928F
:102890009701D5CF982F8BED890F873138F486EFCC
:1028A000860F8D3118F481E0691708F080E00895F3
:1028B0001F920F920FB60F921124EF92FF920F9377
:1028C0001F932F933F934F935F936F937F938F93B8
:1028D0009F93AF93BF93CF93DF93EF93FF93809139
:1028E00096028230D1F483E080939602FF91EF91BB
:1028F000DF91CF91BF91AF919F918F917F916F9118
:102900005F914F913F912F911F910F91FF90EF9009
:102910000F900FBE0F901F9018950091840010919A
:10292000850044E0169507954A95E1F7C091970117
:102930002CE1C29FE0011124C856DE4F98819430EB
:1029400079F40E3298F20F3408F0C2C04A9941C0AF
:1029500061E0CE0178DA109285001092840004C004
:10296000953029F04A9908C000936501BFCF07311F
:1029700008F4BCCF0732E8CF80916501081B0093B3
:1029800064011092850010928400983061F49A815D
:10299000911109C091E09A83888F8A8F098F0B3B30
:1029A00028F5000F0B8F82E086BB0881011120C043
:1029B00090916501953608F099CF80916401853634
:1029C00008F094CF988F898F81E08A8382E0888392
:1029D0008DCF80916501081B0093640110928500E2
:1029E0001092840060E0CE012EDA80CF0695DACF17
:1029F00010916401023009F071C0F0906501088DFA
:102A0000E98C212F4F2D6E2D802F42DA4A818823A9
:102A1000F1F0602F70E09B01220F331F260F371F4C
:102A20002F0D311D3595279535952795288FF12C3C
:102A3000C701880F991F8E0D9F1D810F911D9595C0
:102A4000879595958795898F4F5F4A834FCF4430FF
:102A500008F442C080EA9FE0909389008093880048
:102A60004C3050F0202F2E0D3327331F25363105E3
:102A70002CF084E0888311C04A30C8F0202F2E0D3E
:102A80003327331F2532310594F485E0888388EE9F
:102A900093E09093890080938800FA8E1B8F1982AF
:102AA00087E08B831C8282E080936F001FCF809130
:102AB0009502882379F0612F8F2DECDE882351F069
:102AC000602F8E2DE7DE882329F081E08093960227
:102AD000A9D90CCF83E0CECF18826ACF083009F095
:102AE0004BC081E9810F8D3110F560E0CE01ABD98B
:102AF000288D30E0C901880F991F820F931F209104
:102B00006501820F911D9595879595958795888F7D
:102B1000298D30E0C901880F991F820F931F810F03
:102B2000911D9595879595958795898FDFCE173E51
:102B300008F4DCCE61E0CE0186D92A8D30E0C901EF
:102B4000880F991F820F931F20916501820F911D9D
:102B500095958795959587958A8F2B8D30E0C9013E
:102B6000880F991F820F931F810F911D959587954F
:102B7000959587958B8FBACEF0906501212F4F2DBB
:102B80006B8D8A8D85D9882369F061E0CE015BD990
:102B90002A8D30E0C901880F991F820F931F8F0D76
:102BA000911DD6CF212F4F2D698D888D71D9882306
:102BB00069F060E0CE0147D9288D30E0C901880F67
:102BC000991F820F931F8F0D911D9DCF073009F420
:102BD0008DCE7ECFE09197018CE1E89FF00111242A
:102BE000E856FE4F8081811107C081E09091020379
:102BF0009F3F19F480E0089581E0089580E690E019
:102C00000E94CF098093950281E690E00E94CF094F
:102C100080939402882321F081E2809363016DD92F
:102C20001092080208955B9A0C9414085B980C9417
:102C30001408A7E0B0E0EFE1F6E10C945F2F3091CB
:102C4000110290E0E92FF0E0E85FFD4F20812111B3
:102C50000AC0992361F08EE092E00E94F40A279660
:102C6000E8E00C947B2F321711F09F5FEBCF95E7D4
:102C7000998311E0882389F0BE016E5F7F4F8091B8
:102C800094020E94B809BE016C5F7F4F809195024B
:102C90000E94B80985E58E8316E00E94B1050E9466
:102CA0002D0506E080E891E0BEDF80E093E0BEDF26
:102CB00001500111F7CF80E093E0B5DF80E891E0AB
:102CC000B5DF80E891E0AFDF5B9887E390E00E949A
:102CD000D80483E00E94190828988FE70E944F04C7
:102CE00080911002810F0E944F04CE0101966C0169
:102CF0007C01F70181917F010E944F048E2D8C1978
:102D00008117B8F380911002811113C0289A0E9494
:102D10002D058EE092E00E94F40A15E18AE30E94FC
:102D2000C3048F77882319F01150111109C0E5D819
:102D300096CF8EE092E00E94100B0E944F04E2CFEB
:102D400081E00E941908EACFCF93DF93EC018981DB
:102D500081110DC0809195020E94630980919402B7
:102D60000E9463090E94DF08DF91CF9108958636A3
:102D700081F42296A8E0B2E0E0E08991882321F076
:102D80008D93EF5FE530C9F7F0E0E85FFD4F10820B
:102D9000EBCF8936D9F441E065E972E0CE010296C5
:102DA0000E9467096091950280E690E00E94CA093E
:102DB00041E064E972E0CE0104960E9467096091E7
:102DC000940281E690E00E94CA09CECF8EE092E0A4
:102DD0000E94F40A21966991611103C080E029DF05
:102DE000C3CF8EE092E00E94F90AF5CFA1E0B0E0F7
:102DF000ECEFF6E10C945F2F809196028823A1F00E
:102E0000C0905401D0905501E0905601F0905701C8
:102E1000833009F064C08FE30E94C304182F86300A
:102E200038F46BD8109296022196E8E00C947B2F30
:102E300081EC93E00E94F40A28988FEF0E944F04DF
:102E400080E00E944F04082F115080E00E944F0440
:102E5000682F81EC93E00E94F90A11501111F5CF0F
:102E6000289A4BD8109296020537F1F641E0BE0140
:102E70006F5F7F4F84EC93E00E946709019751F5E3
:102E8000998180919502981325C08091C3039091F8
:102E9000C8039535C1F084508093C30384E08093C8
:102EA000C2036AE081EC93E00E94F90AE091C90450
:102EB000F091CA0488E00995B7CF81EC93E00E94B5
:102EC000100B0E9488088091C3038111F6CF0E94E5
:102ED000DF08AACF81EC93E00E94F40AA5CF8230EC
:102EE00041F4809193029C2D981B983008F49CCF5C
:102EF00098CF813009F098CF87E390E00E94D80402
:102F00000E943F0582E080939602C09293028CCF8C
:102F100061DE882319F083E0809391028091910211
:102F2000815080939102882321F083E08093920264
:102F3000089581E07ECE0F931F93CF93DF93EA989D
:102F4000209A289A8EE190E00E94140828988EE139
:102F500090E00E941408289A8DE290E00E941408E4
:102F600080E30E94D40484E690E00E941408CFE934
:102F7000D2E0FE0131966491FE0184910E94CA0460
:102F80002296F2E0C13DDF07A1F7809198028823E5
:102F900079F0C9E8D2E00FE912E0FE0131966491C0
:102FA000FE0184910E94CA0422960C171D07A9F7FE
:102FB00083E30E94D40484E00E94190884E30E9401
:102FC000D40485E30E94C3048D30C1F7DF91CF9113
:102FD0001F910F910895A2E3B0E0E1EFF7E10C94A7
:102FE000622F809197028823A9F04A9B5EC08FE3ED
:102FF0000E94C3048F778983823380F08AE30E9422
:10300000D40486E30E94D4048DE30E94D40484E3B4
:103010000E94D404E296E5E00C947E2F28988FEF6E
:103020000E944F0410E08981181708F454C080E012
:103030000E944F04F82E80E00E944F04289A84E3F7
:103040000E94D40485E30E94C3048D30C1F79A81A5
:1030500086E789278A830981FE01339682E02191E0
:10306000801708F444C0802F023008F482E0E1E0C9
:10307000F0E0EC0FFD1FE80FF11D8B8182278083AC
:103080001091630110711123D1F181E60E9488082B
:1030900010E0E1E0F0E0EC0FFD1FE10FF11D808199
:1030A0000E9488081F5F0117A0F785E30E94C304F0
:1030B000813029F0813161F48AE30E94D40486E3EF
:1030C0000E94D4048DE30E94D40484E30E94D404BB
:1030D0000E94FA059FCF80E00E944F04E2E0F0E0FA
:1030E000EC0FFD1FE10FF11D80831F5F9CCFDF01FF
:1030F0001197945292279C938F5F922FB0CF81E4C7
:103100000E948808E1E0F0E0EC0FFD1FE10FF11DE7
:1031100080810E9463091F5F0117A0F780916301FE
:1031200085FF03C08F2D0E9463090E94DF08BDCF79
:10313000AAE3B0E0EEE9F8E10C945F2F41E39E01D1
:103140002F5F3F4F7901B90101960E946709182F3F
:103150008150990B9C01898190E02817390709F06B
:1031600067C080919702811104C0E5DE83E00E9470
:1031700019080B818A8196E789278A834981DE01B4
:10318000129692E09D0111968C911197941708F474
:1031900053C0E42F423008F4E2E0EE0DFF2DF11DA4
:1031A00080278083CE01C7960E941B0785E30E947B
:1031B000D40485E30E94C304833109F453C0CE01D3
:1031C000C3960E941B074BA95CA96DA97EA98FA974
:1031D00098ADA9ADBAAD84179507A607B707A0F5B6
:1031E000481B590B6A0B7B0B4D3B51056105710563
:1031F000C8F18FE792E00E94D20885E30E94C304E1
:10320000863149F48BE30E94D40486E30E94D404FF
:103210008DE30E94D40480919702882309F44AC068
:1032200084E30E94D40485E30E94C3048D30C1F777
:10323000EA96E8E00C947B2F1196F9012081245244
:1032400082278C939F5F9ECF481759076A077B0799
:1032500048F484549F4FAF4FBF4F481759076A0730
:103260007B07C6CF85E30E94C304833109F09ECF5C
:103270008AE004FF07C088E70E94190888E70E94D7
:10328000190888E70E94190828988FE70E944F04C0
:1032900067018C2D8E19811738F0289A85E30E94DA
:1032A000C3048331D9F3A9CFF60181916F010E9444
:1032B0004F04EFCF0E947D0FBBCFFC01818182378D
:1032C00051F0823551F481E08093980234DE81E040
:1032D00080939702089580E0F7CF833719F4CF01E8
:1032E000019626CF1092970208950F931F93CF93C4
:1032F000DF93EA98209A289A8EE190E00E941408C1
:1033000028988EE190E00E941408289A8DE290E0BF
:103310000E94140880E30E94D40484E690E00E9496
:103320001408CAEED2E0FE01849104E213E0813475
:1033300008F183E30E94D40484E00E941908CFEFCF
:1033400084E30E94D4048077803139F08AE090E0F1
:103350000E941408C150C111F3CF81E080939902FB
:10336000DF91CF911F910F9108952296FE018491D4
:103370008134F8F6FE0131966491FE0184910E9439
:10338000CA040C171D0789F7D4CF4F925F926F9232
:103390007F928F929F92AF92BF92EF92FF920F9384
:1033A0001F93CF93DF93EC018B01F880F39420E01F
:1033B00030E0672B11F024E630E048E0F49EC001D5
:1033C00011246AE070E00E943C2F620F731F80910D
:1033D0005C0190915D012C01612C712C4B01072E39
:1033E000000CAA08BB08481459046A047B0498F42A
:1033F0008AED92E00E94D208DF91CF911F910F9148
:10340000FF90EF90BF90AF909F908F907F906F90C4
:103410005F904F900895861B970B90935D0180936A
:103420005C0180919902811101C05FDF85E30E94F8
:10343000C3048D30C1F08AE50E94880885E40E94AB
:10344000880882E50E94880882E50E94880881E356
:103450000E94880885E30E94C3040E9463090E94B9
:10346000DF0843DFC9CF80919A0290919B02A0911F
:103470009C02B0919D02892B8A2B8B2BC1F40E9458
:103480002D0585E30E94C3048331B9F18AE50E94CA
:10349000880885E40E94880882E50E94880882E501
:1034A0000E94880882E3D4CF81E00E9419084091ED
:1034B00054015091550160915601709157018091CE
:1034C0009A0290919B02A0919C02B0919D02481794
:1034D00059076A077B0741F3409154015091550108
:1034E00060915601709157010196A11DB11D84177D
:1034F0009507A607B707C1F2C2CF012B51F00AE02A
:1035000010E084E60E941908015011090115110507
:10351000C1F728988FE70E944F04EC2E0C2F1D2F27
:10352000802F8E198F1508F445C0289AC8EC85E3C2
:103530000E94C3048D3059F085E30E94C304833197
:1035400031F481E00E941908C150C111F0CF85E328
:103550000E94C3048D30B9F08AE50E94880885E492
:103560000E94880882E50E94880882E50E948808F7
:1035700083E30E94880885E30E94C3040E946309D4
:103580000E94DF08B2DE80919902811102C00E9480
:103590007D0F8091540190915501A0915601B091F9
:1035A000570180939A0290939B02A0939C02B09340
:1035B0009D0222CFF80181918F010E944F04B0CF6C
:1035C000ACE0B0E0E6EEFAE10C94612FFC018BE098
:1035D000898381818A831B8282E08C8387818D83AA
:1035E00080858E8381858F83848188878581898783
:1035F00086818A871B861C8684E10E94190860E008
:1036000070E0CE010196C1DE8AE50E9488088E0135
:103610000F5F1F4F7E018DE0E80EF11CF8018191D4
:103620008F010E946309E016F106C1F780916301E2
:1036300085FF03C080E00E9463090E94DF082C968A
:10364000E6E00C947D2FCF93DF93EC013091A10243
:103650002091A2029091A302832F822B892B882391
:1036600089F08B81803319F08F7E803459F48F81FB
:10367000381308C08885281305C08985981302C0AF
:10368000CE019EDF30919E0220919F029091A00278
:10369000832F822B892B882389F088818B3071F4CA
:1036A0008B81803459F48F81381308C088852813A2
:1036B00005C08985981302C0CE0182DFDF91CF91CA
:1036C0000895AEE1B0E0E7E6FBE10C94622F809153
:1036D0009902882399F14A9B5BC08FE30E94C3043F
:1036E0008F778E3108F08DE1898328988FEF0E94C3
:1036F0004F0410E08981181728F180E00E944F04E0
:10370000082F80E00E944F04289ACE0101969BDF8B
:10371000109163011071112309F18AE70E94880852
:10372000098110E0E1E0F0E0EC0FFD1FE10FF11D79
:1037300080810E9488081F5F0117A0F76E96E5E060
:103740000C947E2F80E00E944F04E2E0F0E0EC0F4A
:10375000FD1FE10FF11D80831F5FCCCF8AE50E9422
:103760008808F980E1E0F0E0EC0FFD1FE10FF11DAA
:1037700080810E9463091F5FF116A0F780916301A9
:1037800085FF03C0802F0E9463090E94DF08D6CF07
:1037900085E30E94C304813189F68AE30E94D40440
:1037A00086E30E94D40484E30E94D404C7CFAEE130
:1037B000B0E0EDEDFBE10C94612F8C01FC01818107
:1037C000823729F492DD6E96E6E00C947D2F8337E4
:1037D00011F0863611F54DE19E012F5F3F4F7901C3
:1037E000B901C80102960E946709E82FE150FF0B5A
:1037F000298130E0C701E217F30729F081ED92E05B
:103800000E94D208E0CF61E070E0F8012181233707
:1038100011F060E070E0B9DDD6CF43E061EA72E01C
:10382000813629F0873741F443E06EE972E0C80140
:1038300002960E946709C7CF10929902C4CFA0E0F8
:10384000B0E0E5E2FCE10C945E2FB82EEA98209AF5
:103850001092A402289A8EE190E00E941408289801
:103860008EE190E00E941408289A8DE290E00E9478
:10387000140880E30E94D40484E690E00E941408B7
:103880008FEF8B0D833008F03FC0CEE7D3E0FE0111
:103890008491813408F43DC02B2D2150330BC90194
:1038A00044E1489F9001499F300D1124F901EE5BDE
:1038B000FC4F8491813400F5C9018D5B9C4F7C01E4
:1038C0006F0192E1C90ED11CEF012C5B3C4F8901C5
:1038D0000E1B1F0BF7016491FE0184910E94CA0424
:1038E000CC16DD0649F0C00FD11FFE018491F2E035
:1038F000EF0EF11C813470F383E30E94D404B09284
:10390000A40281E00E941908CDB7DEB7E9E00C946B
:103910007A2F31966491FE0184910E94CA04F3E0EB
:10392000C83BDF0709F4B8CF2296B1CFCF93DF931E
:103930008091A402882319F14A9B24C086E30E9447
:10394000D4048BE30E94C304C82FCF77CC23B9F0F3
:1039500028988FEF0E944F048EE40E94880880917F
:10396000A4020E946309D0E080E00E944F040E94FC
:103970006309DF5FCD13F8CF289A0E94DF08DF913B
:10398000CF91089585E30E94C3048F7E8130B9F7FB
:103990008AE30E94D40486E30E94D4048DE30E944B
:1039A000D40484E30E94D404EACFA1E0B0E0EBEDBC
:1039B000FCE10C94652FFC01198281818237F9F4B6
:1039C0008281882339F0BE016F5F7F4FCF0102965D
:1039D0000E949D0989819FEF980F933040F086E205
:1039E00093E00E94D2082196E2E00C94812F27DF19
:1039F0008091A4020E9463090E94DF08F4CF8837F7
:103A0000B9F78091A402882319F086E30E94D404B8
:103A10001092A402EDCF0F931F93CF93DF93EA98F8
:103A2000209A289A8EE190E00E94140828988EE14E
:103A300090E00E941408289A8DE290E00E941408F9
:103A400080E30E94D40484E690E00E941408289841
:103A500080E40E944F0409EB13E0CCEAD3E0FE01BE
:103A600084910E944F0421960C171D07C1F7809185
:103A700008010E944F04809109010E944F04809127
:103A80000A010E944F04CCEBD3E005ED13E0FE01E8
:103A900084910E944F0421960C171D07C1F7289AA4
:103AA00028988EE70E944F04CBE2D0E0CE01219609
:103AB0000E94CF090E944F04C333D105B9F7289A59
:103AC00083E30E94D40481E00E94190881E080937E
:103AD0005001DF91CF911F910F910895A0E0B0E0C8
:103AE000E4E7FDE10C945F2FEC0189818437A9F4B0
:103AF0006FE071E0CE0102960E949D0940E260E015
:103B000080910F01909110010E94E3080E94DF084C
:103B1000CDB7DEB7E8E00C947B2F833709F0A2C164
:103B20008A81823769F46BE071E0CE0103960E94CE
:103B30009D0940E260E080910B0190910C01E4CF7F
:103B4000769A8091A702811116C0809197028823EE
:103B500029F081E08093A602109297028091990249
:103B6000882329F081E08093A5021092990253DF07
:103B700083E00E94190886E30E94D4048AE30E942D
:103B8000D4048BE30E94D4040E942D05FE01019011
:103B90000020E9F7FE2EFC1AFA94FA9480910B01AA
:103BA00090910C012296892B09F444C031E210E077
:103BB000F31215C05B9A80910F01909110010E9441
:103BC00014085B9880910D0190910E012AE0AC01E0
:103BD000249FC001259F900D11240E941408F5E038
:103BE000EF2E6E0101E00F1594F181E25B9AF8125D
:103BF000EBC080910D0190910E010E9414085B981A
:103C000080910D0190910E0128E2FC012E9FC001D0
:103C10002F9F900D11240E9414081F5F212F012E49
:103C2000000C330B80910B0190910C012817390780
:103C300008F4C0CF8091A702882309F4F9C08091CD
:103C40006301882309F4DFC00E943F05DFC00F5FD6
:103C5000F60181916F01803309F04AC0F1E25B9A6D
:103C6000FF1222C080910D0190910E010E94140854
:103C70005B9880910D0190910E010E9414085B9A4F
:103C800080910D0190910E010E9414085B98809123
:103C90000D0190910E019C01E29EC001E39E900DEA
:103CA00011240E9414089FCF80910F019091100160
:103CB0000E9414085B9880910F01909110019C0163
:103CC000220F331F820F931F0E9414085B9A80916A
:103CD0000F01909110010E9414085B9880910F01D0
:103CE000909110019C01220F331F820F931FD9CF97
:103CF000813309F048C031E25B9AF31220C0809111
:103D00000D0190910E010E9414085B9880910D01A5
:103D100090910E01AC01E49EC001E59E900D11242E
:103D20000E9414085B9A80910D0190910E010E94EF
:103D300014085B9880910D0190910E01B2CF809193
:103D40000F01909110019C01220F331F820F931FCE
:103D50000E9414085B9880910F01909110010E94BD
:103D600014085B9A80910F01909110019C01220F21
:103D7000331F820F931F0E9414085B9880910F01DC
:103D8000909110018ECF51E25B9AF5120CC0809198
:103D90000D0190910E010E9414085B9880910D0115
:103DA00090910E01BDCF80910F01909110010E9462
:103DB00014085B9880910F01909110019C01220FD3
:103DC000331F820F931FCBCF80910F019091100171
:103DD0000E9414085B980FE180910F0190911001EF
:103DE0000E94140801500111F7CF1F5F212F012EEF
:103DF000000C330B80910B0190910C0128173907AF
:103E000008F4EFCE17CF86E30E94D404769889E6B3
:103E10000E94880883E70E94880811E01F150CF0B3
:103E200075CE89918033D1F40E9488081F5FF6CF48
:103E30008091A602882339F01092A6027CD881E0F6
:103E40008093970201CF8091A502882321F01092E0
:103E5000A5024BDADBCF0E947D0FD8CF813321F34F
:103E600086E4E2CF8237B9F480919702882329F063
:103E700081E08093A6021092970280919902882394
:103E800029F081E08093A50210929902C4DD81E0BF
:103E90008093A7023DCE863651F58A818033F9F4AE
:103EA00080E18093080180EB8093090181E7809392
:103EB0000A0189E60E94880886E60E9488088AE34B
:103EC0000E948808809108010E946309809109017D
:103ED0000E94630980910A010E94630917CE43E0A2
:103EE00068E071E0CE0102960E946709E2CF883750
:103EF00019F58091A602882349F01092A6021BD8DA
:103F000081E0809397020E943F0507C08091A5023F
:103F1000882331F01092A502E8D91092A702F8CDBB
:103F200082E090E00E94D804809163018111EBCF80
:103F300086E30E94D404F1CF833609F0E9CD6FE027
:103F400071E0CE0101960E949D09E2CDA1E0B0E0B2
:103F5000ECEAFFE10C94572F7C01FC01818183374F
:103F600009F0B3C1198287E090E00E948C2F8C0188
:103F700041E0BE016F5F7F4FC70102960E94670953
:103F80008981F801808341E0BE016F5F7F4FC701E7
:103F900004960E9467098981807FD82EF801818369
:103FA00041E0BE016F5F7F4FC70106960E9467091F
:103FB0008981F801828341E0BE016F5F7F4FC701B5
:103FC00008960E9467098981F801838341E0BE0158
:103FD0006F5F7F4FC7010A960E9467098981F801C8
:103FE000868341E0BE016F5F7F4FC7010C960E9440
:103FF00067098981F801858341E0BE016F5F7F4FCA
:10400000C7010E960E9467098981F80184833801EF
:10401000F7E06F0E711CF80180E02191922F9295CC
:104020009F7092278927E615F705B9F78F708D29BC
:10403000F801818387E090E00E948C2F7C0187E06B
:10404000F801D70101900D928A95E1F798012A5F56
:104050003F4FF801DF01319611968C9111979C9199
:10406000892780832E173F07A9F7769A8091AA02A5
:10407000811161C080919702882329F081E08093AB
:10408000A9021092970280919902882329F081E079
:104090008093A80210929902EA98209A289A8EE1B9
:1040A00090E00E94140828988EE190E00E94140885
:1040B000289A8DE290E00E94140880E30E94D404C4
:1040C00084E690E00E941408289880E40E944F043F
:1040D000F5EDCF2EF3E0DF2EAEEFAA2EA3E0BA2E41
:1040E000F60184910E944F04FFEFCF1ADF0AAC144F
:1040F000BD04B1F7289A28988EE70E944F04EBE29E
:10410000CE2ED12CC6012FEFC21AD20A0E94CF099F
:104110000E944F0483E3C816D104A1F7289A83E3D1
:104120000E94D40481E00E94190881E0809350012C
:1041300083E00E94190886E30E94D4048AE30E9467
:10414000D4048BE30E94D4040E942D055B9A87EC73
:1041500094E20E9414085B9889E50E94190885E39F
:1041600092E00E941408512C8091150190E0252DB9
:10417000052C000C330B281739076CF08091AA022C
:10418000882309F48BC080916301882309F463C0FC
:104190000E943F0563C077E0C72E511002C062E065
:1041A000C62ED12C5B9A86EF99E00E9414085B988A
:1041B00086EF99E00E941408D394CD10F3CF5B9A58
:1041C0008CEF92E10E9414085B988091110190910C
:1041D00012010E9414086801F60181906F0148E005
:1041E000442E50E8A52EB12C912CC4018A219B218C
:1041F000892B29F55B9A80911101909112010E94FF
:1042000014085B9880911101909112010E9414088A
:10421000B694A7944A944110E8CFC614D704E1F6A7
:104220005B98F801868187FD13C080911101909100
:104230001201815399480E941408539495CF5B98BA
:1042400080911101909112010E9414085B9ADACFBB
:104250008FEC96E7F0CF86E30E94D404769889E548
:104260000E94880883E70E94880867015701F7E0E9
:10427000AF0EB11CF60181916F010E946309AC146D
:10428000BD04C1F70E94DF08C7010E942230C801A7
:104290000E9422302196E0E10C94732F8091A902B4
:1042A000882341F01092A9020E949B1781E080931D
:1042B00097026ECF8091A802882321F01092A80265
:1042C00014D8CCCF0E947D0FC9CF8237C9F465E1E5
:1042D00071E0C70102960E949D0989E50E94880845
:1042E00082E70E9488088AE30E948808809115016D
:1042F00040E260E090E00E94E3080E94DF08CACF3D
:10430000843751F58281803301F588ED94E09093F4
:1043100014018093130180911301909114019695DB
:104320008795909312018093110189E50E94880876
:1043300084E70E9488088AE30E94880840E266E0D9
:104340008091130190911401D6CF63E171E0C70110
:1043500002960E949D09DFCF883709F09BCF80919C
:10436000A902882351F01092A9020E949B1781E0B4
:10437000809397020E943F0508C08091A80288237D
:1043800039F01092A8020E9475191092AA0282CFE9
:1043900082E090E00E94D804809163018111EACF0D
:1043A00086E30E94D404F1CFCF93DF93EA98209A5A
:1043B000289A8EE190E00E94140828988EE190E0FF
:1043C0000E941408289A8DE290E00E94140880E36D
:1043D0000E94D40484E690E00E941408289880E4A7
:1043E0000E944F04C7ECD6E0FE0184910E944F0466
:1043F0002196F6E0C03FDF07B9F7289A28988EE7A4
:104400000E944F04CBE2D0E0CE0121960E94CF095A
:104410000E944F04C333D105B9F7289A83E30E9461
:10442000D40481E00E94190881E0809350018093B8
:10443000C302DF91CF910895AF92BF92DF92EF92C6
:10444000FF920F931F93CF93DF938C018091BF0254
:10445000F801838364839DE0E92EF12C0E942D05F1
:1044600085E30E94C3048331B1F08AEB96E00E9499
:10447000D20885E30E94C3040E9463090E94DF08FA
:1044800093DFDF91CF911F910F91FF90EF90DF901D
:10449000BF90AF9008958091540190915501A091E3
:1044A0005601B09157018093BB029093BC02A09338
:1044B000BD02B093BE0228988FE70E944F045801B6
:1044C000C0E0D0E08AEAD82EF50181915F010E9418
:1044D0004F04C930D10574F4F50131978081D82695
:1044E000C730D10511F02196EFCFF801D086C8E092
:1044F000D0E0EACF2196CF30D10531F7289AC8EC29
:1045000085E30E94C304833131F481E00E941908DD
:10451000C150C111F5CFF1E0EF1AF108E114F10437
:1045200009F09CCF8091BF028F5F8093BF02A9CF1B
:10453000ABE3B0E0EEE9F2E20C94552F8C01FC0104
:1045400001900020E9F73197AF01481B590B7C011E
:1045500082E0E80EF11C4E01EEE28E0E911CB401D9
:10456000C7010E946709D82E6DE471E087E191E0F0
:104570000E940032F80131808DE8830DB82CC92CDF
:10458000823008F0EEC181E08093C10287858A34D1
:1045900009F4D4C18EE480931601A895409054018B
:1045A00050905501609056017090570180915401D0
:1045B00090915501A0915601B09157018093BB0293
:1045C0009093BC02A093BD02B093BE0280911601ED
:1045D000893509F050C08EEA96E00E94D20887E93A
:1045E00096E00E94D208C8010E94C70882E896E0BF
:1045F0000E94D208F80101900020E9F7319740E2CB
:1046000060E0CF01801B910B0E94E3088AE396E0F3
:104610000E94D208F80101900020E9F731978081CB
:1046200040E260E090E00E94E30882EF95E00E94A3
:10463000D20840E260E08D2D90E00E94E3088FEE0A
:1046400095E00E94D20888ED95E00E94D20840E3F0
:1046500064E08091BD029091BE020E94220940E375
:1046600064E08091BB029091BC020E94220985ED1A
:1046700095E00E94D208F80101900020E9F77197B7
:10468000E017F10709F05CC142E06B2D7C2DC701FA
:104690000E946709029709F053C186DE2EA4B80173
:1046A000665F7F4F45E050E0CE0101960E940732E1
:1046B0001E824AE050E060E070E0CE0101960E9468
:1046C000B4306B017C014601570143E0B694A794D6
:1046D000979487944A95D1F780911601893531F5E1
:1046E0008EEB95E00E94D208CE0101960E94C70889
:1046F00087EB95E00E94D20880EA95E00E94D208FC
:1047000040E364E0D701C60133E1B695A7959795DC
:1047100087953A95D1F70E94220940E364E0C401ED
:104720000E94220988E995E00E94D2088FE0EBE31D
:10473000F1E0DE015F9601900D928A95E1F78FA579
:1047400088A388A989A389A98EA38E01015E1F4F22
:10475000622DC80171DEF3E73F1609F4E3C027FEBE
:10476000E1C08091540190915501A0915601B09102
:10477000570184199509A609B7098E379105A10536
:10478000B10548F440905401509055016090560195
:1047900070905701A8958091540190915501A09176
:1047A0005601B09157014091BB025091BC026091FB
:1047B000BD027091BE02841B950BA60BB70B881629
:1047C0009906AA06BB0668F6409054015090550120
:1047D000609056017090570180911601893509F05B
:1047E0007BC081E895E00E94D20840E364E0C30109
:1047F0000E94220940E364E0C2010E94220989E785
:1048000095E00E94D20882E695E00E94D20840E33B
:1048100064E08091BD029091BE020E94220940E3B3
:1048200064E08091BB029091BC020E9422098AE55B
:1048300095E00E94D20883E495E00E94D208D70157
:10484000C60123E1B695A795979587952A95D1F747
:1048500040E364E00E94220940E364E0C4010E9456
:1048600022098BE395E00E94D20884E295E00E9441
:10487000D2088091540190915501A0915601B091B8
:1048800057014091BB025091BC026091BD027091F2
:10489000BE02841B950BA60BB70B40E364E0CD0171
:1048A0000E9422098091540190915501A0915601D6
:1048B000B09157012091BB023091BC02821B930B37
:1048C00040E364E00E9422098CE195E00E94D20856
:1048D00083E195E00E94D20867EFC801ADDD409109
:1048E000BB025091BC026091BD027091BE028091EA
:1048F000540190915501A0915601B0915701841B2C
:10490000950BA60BB70B4597A105B10580F38091D8
:104910001601893521F48AE095E00E94D20867EFFC
:10492000C8018ADD8091C202813011F40E943F05E6
:104930001092C102EB96E2E10C94712F89E52BCE27
:1049400085EE94E00E94D20840E260E08EE090E0C4
:104950000E94E30881EC94E00E94D2081092C30206
:10496000E1CF82E738123DC08281853461F4109234
:10497000C20286E30E94D4041092C00280EB94E04D
:104980000E94D208D7CF833549F5938181E09133D6
:1049900021F0923309F080E0880F8093C00281E01B
:1049A0008093C20201DD8DE994E00E94D2080E944A
:1049B0003F0585E30E94C3048D3009F4BBCF84E832
:1049C00094E00E94D20885E30E94C3040E94630918
:1049D0000E94DF08E9DC1092C202ACCF82E694E0CC
:1049E000CFCF8BE494E00E94D2081092C302A2CFF2
:1049F000AF92BF92CF92DF92FF920F931F93CF930C
:104A0000DF93CDB7DEB760970FB6F894DEBF0FBE69
:104A1000CDBF1A821982FE0133968EE0DF011D920E
:104A20008A95E9F78091C202813009F04FC08091E8
:104A3000C102813009F44AC04A9B48C0A8958BE363
:104A40000E94C304182F1F7719838091C0028230FF
:104A500059F48BE394E00E94D208812F0E946309ED
:104A600089E294E00E94D2081F3010F08FE0898321
:104A700028988FEF0E944F0410E0F12C0AEA8981F8
:104A80001817A0F1289A8091C002823021F486E2A2
:104A900094E00E94D2084AE050E06BEA72E0FE0126
:104AA00031966F01CF010E94EA319C019091C002C2
:104AB0001D2D232BB9F18A818730A1F58981893099
:104AC00088F1F1E0FF1671F1923071F560960FB642
:104AD000F894DEBF0FBECDBFDF91CF911F910F9134
:104AE000FF90DF90CF90BF90AF90089580E00E943C
:104AF0004F04E2E0F0E0EC0FFD1FE10FF11D8083B9
:104B0000183048F408279091C002923011F40E94A6
:104B100063091F5FB4CF1830B1F78017A1F3FF24EA
:104B2000F394F1CF913091F683E294E00E94D208A1
:104B300080E1EC2DF12FABEAB2E001900D928A9565
:104B4000E1F76E0182E0C80ED11C5E019BE0A90E68
:104B5000B11CD6018D916D010E946309CA14DB045A
:104B6000C1F78091C002813051F4B1E0FB1207C05F
:104B700081E094E00E94D208802F0E9463098EEFAA
:104B800093E00E94D208A2CF109201031092C003BA
:104B900083E080930A038FEF809302030895DC0182
:104BA000EBE0F3E0808181110EC0AB2B29F583E0AF
:104BB000E93BF80719F010F0E9EBF3E0CF010895B5
:104BC000E80FF11DEFCF93E0E93BF90770F710977D
:104BD000B9F321819C912913F3CF228111969C91E5
:104BE0001197291759F3E80FF11D8081882321F0CF
:104BF00093E0E93BF90768F3E0E0F0E0DFCF94E011
:104C0000899FF0011124E352FD4F80818F3F91F085
:104C1000809305038181809306038281809307033B
:104C200083818093080321E04CE064E085E093E019
:104C30000C94270C08958AEB93E0B1DFDC01892BFB
:104C400099F0E0910A038C91E81770F4EA0FFB2FBA
:104C5000F11D80818093BC0389E78093BD0381812E
:104C60008093BE0381E0089580E008950F931F9321
:104C7000CF93DF938C018091630186FF15C084E59B
:104C80000E948808E8010B5F1F4F89910E94630909
:104C9000C017D107D1F78091630185FF03C08AEF68
:104CA0000E9463090E94DF08DF91CF911F910F914D
:104CB000089586E30E94D4048091BC03833579F47F
:104CC0008BE90E94190821E04CE065E08AEB93E053
:104CD0000E94270C0E943F058AEB93E0C7CF8BE42C
:104CE000F0CFE7DF8091BC03893631F081E080931B
:104CF000B90389E2809302030895CF9385E390E09E
:104D00000E94CF098093040386E390E00E94CF09BC
:104D100080930303EEEEF2E0CFEFC083C283C4833F
:104D2000C683C087C287C487C6872EDF10920B0355
:104D300081E08093C402ADEDB2E0CC93E5ECF2E00B
:104D40008FEF9FEF918380831382128215821482EA
:104D50001496CC93149797838683118610861386B6
:104D600012861896CC93189795878487178616868F
:104D7000118A108A1C96CC93938B828B158A148A85
:104D8000178A168ACF910895ABE0B0E0EAECF6E21C
:104D90000C945A2F8C016C012FEFC21AD20A45E0F5
:104DA000BE016F5F7F4FC6010E946709843008F023
:104DB000E4C099819130D1F4833079F46A8185E33C
:104DC00090E00E94CA096B8186E390E00E94CA09C4
:104DD00094DF2B96EDE00C94762F809104030E94D3
:104DE0006309809103030E94630935C0923009F082
:104DF00051C0EE24E394813031F081E09A8191300A
:104E000009F080E0E82E80910B03811104C080EF4F
:104E100096E00E94D2080BE013E015C083E00B304F
:104E2000180719F080E20E948808F80181810E9429
:104E30006309F80182810E946309E1100FC0F80143
:104E40008081080F111DF8018081882321F0F3E093
:104E5000093B1F0718F30E94DF08BBCF8AE30E94BB
:104E6000880883E0F82EF8018081F81640F7F3E017
:104E7000FF1629F0F0FE03C08CE20E948808DD24B2
:104E8000D394DF0CF801EF0DF11D80810E946309BE
:104E9000FD2CE9CF933049F480E090E080DE8B5028
:104EA00093409EEA981B892F9ECF903149F50EEED4
:104EB00012E0E12CF12CF80180818F3FA1F0FF205E
:104EC00019F080E20E9488088E2D0E9463098AE30F
:104ED0000E948808F80180810E946309F80181819D
:104EE0000E946309F3940E5F1F4FE394F8E0EF1202
:104EF000E2CF8EEF96E0F110AECF0E94D208ABCF9A
:104F0000913149F48091FE029091FF026DE770E0CB
:104F10009FD7862F68CF923109F09DCF0DED12E01B
:104F2000E12CF12CF80180818F3FE1F0FF2019F096
:104F300080E20E9488088E2D0E9463098AE30E9405
:104F40008808F80180810E946309F80181810E942C
:104F50006309F80182810E946309F80183810E943C
:104F60006309F3940C5F1F4FE394F4E0EF12DACF80
:104F7000F11071CF8AEF96E0C0CF7E0127E0E20EFC
:104F8000F11C44E0B701C6010E9467094F81493610
:104F900008F496C06A855885EDEDF2E020E030E037
:104FA00080E090E06C3009F06FC080E090E020E09D
:104FB00030E06081461336C07181751333C0A28121
:104FC0007985A7132FC083529D4F4CE0FC0143838A
:104FD000C901880F991F820F931FFC01EE0FFF1F5D
:104FE000EB53FD4F11821082880F991FFC01E9538A
:104FF000FD4F1182108222E04CE064E0C7010E9464
:10500000270C8FE08A8722E04CE064E0C7010E9411
:10501000270C82E08A8722E04CE064E0C7010E940E
:10502000270CD7CE6F3FF9F4FC01E352FD4F4083CC
:105030005183898582838CE08383C901880F991FFE
:10504000820F931FFC01EE0FFF1FEB53FD4F1182E8
:105050001082880F991FFC01E953FD4F11821082C5
:105060001092C402C8CF2F5F3F4F3496049624306D
:10507000310509F09ECFADCE019634962C5F3F4F9F
:105080008430910509F4A5CE70814713F5CF718165
:105090007513F2CFA2817985A713EECF23523D4F2E
:1050A000F9016383FC01EE0FFF1FE80FF91FEE0FFC
:1050B000FF1FE953FD4F81E090E09183808389CE0B
:1050C000E98120910403E217C0F1822F90E0079656
:1050D0004E2F50E08417950784F19A818091030345
:1050E00098132BC09C819F3231F442E06CE0C801E0
:1050F0000E94980C6ECE8D819C32B9F48093ED02A3
:1051000021E030E03093FF022093FE02F4E08F9F15
:10511000C001112420915C0130915D01820F931F29
:1051200090935D0180935C0154CEE21BEE0FF0E0A2
:10513000E251FD4F908381834CCE80E090E02FDDE3
:105140007C01F60101900020E9F73197EC19FD0987
:10515000F695E7957E2EDD24D394DE0EC7018D0DE6
:10516000911D8B5093408F3A91052CF084EF96E07F
:105170000E94D2082ECEF701D0825701CC24C394CE
:105180008C2D880F8150CD1480F0F9EBEF16F3E0F1
:10519000FF0608F01ECE2FEFED2D721201C0E1E0E8
:1051A000EE0DFF2DF11D108214CE4501FFEF8F1A79
:1051B0009F0A41E0B401800F912F911D0E94670961
:1051C00022E02C1548F4C0FC07C0F501808184362C
:1051D00019F4818180930003C3945401D1CF0F93BC
:1051E0001F93CF93DF939091C40291114AC0282F4F
:1051F00030E0E901CC0FDD1FC20FD31FDE01AA0F83
:10520000BB1FAB53BD4F220F331F220F331FF901BA
:10521000E352FD4F9281977040E850E0491B5109DD
:105220009AEF949F9001959F300D11243595279505
:10523000359527952D933C938E01000F111F075331
:105240001D4FF801208131812F5F3F4F3183208333
:10525000CC0FDD1FC953DD4F4881598141155105E0
:1052600041F42430310569F4CADCF801118210825E
:1052700008C04130510551F4C2DC82E090E09983CE
:105280008883DF91CF911F910F910895423051058E
:10529000C1F7B5DC19821882E8CFA6E0B0E0E2E5FC
:1052A000F9E20FC6809103038A831B829091ED027D
:1052B0009923D1F19330A9F587E791E09093FF020C
:1052C0008093FE028EEEE82E82E0F82E10E00CE2D3
:1052D000F70120812F3FA1F08091ED02909104030E
:1052E000910F9983882349F10C838D8321E04CE051
:1052F00065E0CE0101960E94270CCE010196B6DC36
:105300001F5FF2E0EF0EF11C183011F78091ED02F3
:10531000882321F08330A1F41092ED022696E6E076
:10532000ECC58DE790E0CACF87708A512DE7829F48
:10533000C001112495958795C1CF2C838181D5CF4C
:1053400082508093ED02EACF8091B903882351F017
:10535000B0DC89E2809302038091B903815080938D
:10536000B903089511CCFF920F931F93CF93DF934E
:10537000FC01F080D181C281138104818FE580938B
:1053800002031092B9038091040390910303892BC7
:10539000882351F18091BA038F1104C08091BB031F
:1053A0008D1729F0F1DBF092BA03D093BB03D091B3
:1053B0000103DF3FC9F0C093BC031093BD0300930A
:1053C000BE03CC2351F1D1111EC08091040380177C
:1053D00079F0043669F08DEA8C0F823010F0CD3709
:1053E00049F48FEF80930103CDB7DEB7E5E086C5C2
:1053F000C435D1F3812F807F8036B1F710671093C9
:10540000BD036FDCF1CF17DC8091C003882379F0F6
:105410008335B9F08C17D1F008C00DDC8D2B8823B3
:1054200019F38091C003882311F0AEDBDDCFED2F9F
:10543000F0E0EE5FF84FE491E335F1F0CE1711F1B3
:10544000F4CFC435B9F4DE5FD093010380910A0331
:105450008E5F80930A03EFDB882309F44CC08091B0
:10546000BC038093C003843661F68091000380936F
:10547000BE03C7CFC335CFCFC43509F03AC0DE5F16
:10548000D093010380910103E82FF0E0ED5FF84F26
:1054900014911F3F21F31093BC0397E79093BD0332
:1054A000909104039093BE038E5F8093010310924A
:1054B000C0038E30D1F48AEB93E071DBDC01892BE1
:1054C00099F02C9130E089EB93E0821B930BED0176
:1054D000C817D907B0F08A179B07C8F08A1B9B0B27
:1054E0008A0F9B1FFC0110824FDB112309F47CCF34
:1054F00088CFC335A4CF809101038E5F80930103D1
:10550000C1CFFE01E20FF31F40814993E1CF80E05C
:1055100090E0E6CF0F931F93CF93DF93EC0100E071
:10552000802F90E09C01220F331F280F391FF901B3
:10553000E455FF4F1491812FF901E355FF4F259159
:105540003491112389F0209741F480E20E94880869
:10555000812F0E9488080F5FE3CF98819113FBCFC2
:10556000CE01F901099581E0DF91CF911F910F9153
:105570000895CF93C0915A0180935A018091C3033B
:10558000811104C0C0935A01CF91089581EC93E03A
:105590000E94100B2091CB043091CC048A3011F082
:1055A0008D3011F52115310549F323533B4FF90196
:1055B00010828DEC94E0AEDF811111C088E297E09B
:1055C0000E94D2088DEC94E00E94C70880E197E029
:1055D0000E94D20880E090E09DDF0E94DF081092D8
:1055E000CC041092CB04CACF2038310538F6A9017B
:1055F0004F5F5F4F5093CC044093CB0423533B4FFA
:10560000F9018083BBCFE4E6F0E080818B7F80836B
:10561000299A84B1876084B9239880E58CBD8DB5C3
:1056200081608DBD089520915D0530915E05211545
:10563000310521F4209137013091380180913501F5
:1056400090913601009741F48DB79EB74091390192
:1056500050913A01841B950B2817390718F4821BC7
:10566000930B089580E090E0089582E40E948808FA
:1056700040E265E080915D0590915E050E94E3083F
:105680000E94DF0883E50E94880840E265E080917F
:105690003701909138010E94E3080E94DF0885E4F9
:1056A0000E94880840E265E08091350190913601C2
:1056B0000E94E3080E94DF0886E40E948808B3DFA6
:1056C00040E265E00E94E3080C94DF08A2E0B0E04D
:1056D000EBE6FBE2FAC382E595E0FC01019620913E
:1056E000F100208325E08A359207B9F780915205B1
:1056F000909153059A3008F01CC1E92FF0E0EA5769
:10570000FD4CCDC3803879F0823809F012C1809108
:1057100056058093E9008091EB0085FB882780F98E
:105720001092E90006C080914E0590914F059111AD
:1057300082609091E800977F9093E8008093F10059
:105740001092F1008091E800982F9E7F9093E800DE
:105750008F778093E8008091E80082FF05C08091F8
:10576000E800982F9B7F34C0809151058111F3CFC1
:105770008091E80083FF0AC08091EB0080628093F3
:10578000EB008091E800877F8093E8002296E2E0BA
:10579000B8C381110BC080915405813049F781E075
:1057A000933009F080E080934F0507C0823009F004
:1057B000C0C080915405882389F01092E90080913F
:1057C000E800877F8093E8008091E800982F9E7F13
:1057D0009093E8008F778093E800CACF80915605B8
:1057E0008770882329F28093E9002091EB0020FF45
:1057F000E4CF9130B9F49091EB0090619093EB007D
:1058000021E030E0A90102C0440F551F8A95E2F75C
:105810004093EA001092EA008091EB008860809348
:10582000EB00CBCF8091EB008062F9CF811181C07A
:10583000809154059091E800977F9093E8009091B3
:10584000E800292F2E7F2093E8009F779093E800AF
:105850009091E80090FF0CC0982F9F77806880930C
:10586000E300992309F484CF83E08093510580CF2E
:10587000909151059111ECCF7BCF8058823008F088
:1058800058C0AE014F5F5F4F60915605809154053F
:10589000909155050E941504BC01892B09F468CF2D
:1058A0008091E800877F8093E80089819A810DD1FB
:1058B00056CF8038F1F58091E800877F8093E8002B
:1058C000809150058093F1008091E800982F9E7F91
:1058D0009093E8008F778093E8008091E80082FD44
:1058E0003ECF809151058111F8CF42CF811121C067
:1058F00090915405923008F03BCF8091E800877F6B
:105900008093E800909350058091E800982F9E7F47
:105910009093E8008F778093E8008091500588236A
:1059200031F084E0809351050E94790621CF83E015
:10593000F9CF0E9491061CCF8093E900EBEEF0E0D6
:10594000808181608083EDEEF0E010826093EC0056
:1059500040838091EE00881F8827881F0895109249
:10596000F40080E08093E9001092F0001092E800CB
:105970009091ED009D7F9093ED009091EB009E7FC4
:105980009093EB008F5F873069F7089580915205FF
:1059900087FF17C08091E80082FF0AC08091E8006D
:1059A000982F9B7F9093E8008F778093E80004C046
:1059B000809151058111EECF089580915105882382
:1059C000D9F38091E80080FFF8CF8091E800982F0C
:1059D0009E7FE8CF95E68091EC008170882331F0BE
:1059E0008091E80080FF06C080E008952091E800E3
:1059F00022FD19C080915105882391F08091EB0020
:105A000085FD10C08091E10082FFE5CF8091E1002B
:105A10008B7F8093E10091509111DDCF83E0089559
:105A200082E0089581E0089520915805309159054C
:105A30006217730708F49B0150E02115310541F40A
:105A4000511106C08091E80082FF37C080E00895C0
:105A50004091E80043FD37C04091E80042FDF2CF9D
:105A600040915105442369F14091E80040FFE5CFA2
:105A70002115310539F04091F2005091F300483082
:105A8000510598F06091F2007091F30051E0683098
:105A9000710509F050E04091E800642F6E7F60933B
:105AA000E8004F774093E800C8CFFC0181918093D4
:105AB000F10021503109CF01DBCF809151058111D7
:105AC000C1CF82E0089581E008952091580530917A
:105AD00059056217730708F49B0150E02115310541
