:1000000015C100002FC100002DC100002BC1000050
:1000100029C100000C94B50D25C1000023C10000CA
:1000200021C100001FC100001DC100000C948916F1
:1000300019C1000017C1000015C100000C94550D36
:1000400011C100000FC100000DC10000EBC3000092
:1000500009C1000007C1000005C1000003C1000084
:1000600001C10000FFC00000FDC00000FBC0000097
:10007000F9C00000417D10426A0643A00265930664
:1000800046900868930869F1106C590652D50554DA
:10009000FE12744B0456CB0657170658FB097867B7
:1000A000020000002A03430055004C0034003300D6
:1000B000330000002A03430055004C005F00480055
:1000C0004D000000160362007500730077006100A8
:1000D000720065002E00640065000000040309043E
:1000E00009024300020100803209040000010202FB
:1000F0000100052400011005240103010424020667
:100100000524060001070582030800FF0904010019
:10011000020A0000000705040240000007058302F0
:100120004000001201100102000008EB034B200008
:100130000001020001202F2000203D20000D2E2D67
:1001400007D3913D04320000060021656A55E43072
:1001500023B900070018146C070090876BF856113C
:10016000E92A001F410027675081C2504C4C310DD5
:100170000A00504C4C300D0A005620312E363820E3
:1001800043554C5F484D005620312E36382043559C
:100190004C34333300202F2000203D20004C4F569C
:1001A000460D0A00424F56460D0A004552523A4348
:1001B00043410D0A000007022E030D04E905CA079A
:1001C0000C0B060D210E650F6A10C8119312031552
:1001D000341733181819161B4321562500261129E8
:1001E000592C812D353EC30D2E2D07D3913D043260
:1001F0000000060010B07155E43023B90007001864
:10020000146C070090876BF85611E92A001F410013
:1002100020697320756E6B6E6F776E29205573653C
:10022000206F6E65206F66003F20280011241FBEDE
:10023000CFEFD2E0DEBFCDBF11E0A0E0B1E0EAE851
:10024000FFE202C005900D92A231B107D9F722E07A
:10025000A2E1B1E001C01D92A235B207E1F70CD0D6
:100260000C94B917CDCEF89481E085BF82E085BFAC
:10027000E0E0F8E10995089588E19FE00FB6F89471
:10028000A895809360000FBE9093600080E890E096
:100290000FB6F89480936100909361000FBE2E9A80
:1002A0002D9A04B603FE0AC083E390E066D4882347
:1002B00029F060E083E390E05BD4D5DF89EF87BD70
:1002C00084E085BD82E084BD80936E001092800042
:1002D0008AE08093810084B7877F84BF3C9A0E9424
:1002E000A21346D50E946D160E94F1120E94E109E8
:1002F00088E593E1909301028093000281E080936E
:100300001C0144980E941D17D1D10E94120BD9D212
:100310000E940E0FF7CF9C01DA01832F99278230BC
:10032000910549F18330910539F0019749F180E059
:1003300090E020E030E00EC0C9019927213069F03B
:100340008230910569F0ECEDF0E0892B81F7849122
:1003500090E09F012D933C930895E4ECF0E0F7CFFB
:1003600024EA30E01E9B02C024EB30E0E4EBF0E036
:10037000849190E0EFCF83E490E020EE30E0EACF8C
:1003800082E190E023E231E0E5CF8EBD0DB407FEBF
:10039000FDCF8EB508950F931F93CF93DF93C82F92
:1003A0008A30C8F4853008F0C5508BE290E0D0E088
:1003B000CA59DE4F60E08C3211F4FE0164918C0169
:1003C0000F5F1F4FD5D30333110539F4DF91CF9160
:1003D0001F910F910895C8E0E7CFC801EBCF0F93AD
:1003E0001F93CF93DF930DE311E0C2E0D0E0F8015B
:1003F0006491CE012196BCD30F5F1F4FCB32D10544
:10040000B1F71E990CC060E18FE090E0B1D360EBD2
:1004100080E190E0ADD361E781E190E0A9D388E08D
:10042000BADFDF91CF911F910F9108954598806CAD
:10043000ACDF80E0AADF459A0895CF93C62F459898
:100440008064A3DF8C2FA1DF459ACF910895459852
:100450009CDF459A08950F931F93CF93DF93EC0190
:10046000EC983D9A459A8EE190E069D245988EE1EC
:1004700090E065D2459A8DE290E061D280E3E7DFBB
:1004800084E690E05CD2459880E47FDF8E01075DD2
:100490001F4FCE01219671D378DF0C171D07C9F7C6
:1004A000459A45988EE771DFCBE2D0E0CE012196E8
:1004B00064D36BDFC333D105C9F7459A83E3C7DF44
:1004C00081E042D2DF91CF911F910F910895A1E079
:1004D000B0E0EDE6F2E00C94731722E0298341E0EE
:1004E000BE016F5F7F4F0196F1D2898154DF82E0B8
:1004F00090E0B1DF2196E2E00C948F17CF93EC9857
:1005000086E3A5DFCFEF85E3A2DF8077803231F08D
:100510008AE090E014D2C150C111F5CFCF91089577
:10052000CF93CFEF84E393DF8077803131F08AE09F
:1005300090E005D2C150C111F5CFEC9ACF9108954A
:10054000A2E0B0E0E6EAF2E00C9471178C01FC0145
:1005500081818737F1F441E0BE016F5F7F4FC801B1
:100560000296B4D2892BA9F041E0BE016E5F7F4FA5
:10057000C8010496ABD2892B61F06A8189815DDF65
:1005800083E365DFCDDF89819DD28A819BD216D23C
:1005900018C041E0BE016E5F7F4FC801019696D240
:1005A000892B79F08A81893981F410E0812F3EDF2F
:1005B00089D2812F8770873009F400D21F5F1033F2
:1005C000A9F72296E4E00C948D1730DF182F83E40E
:1005D000C5D18A8177D289E391E0E3D1812F72D2AC
:1005E00085E391E0DED140E262E0812F90E0EAD144
:1005F000CECF86E32CDF1092120110927201089583
:1006000082E090E028DF81E0809312011092720175
:1006100008950F931F93CF93DF93D82FC0E0062F39
:1006200010E085E303DF8D1759F0C80188D1C15070
:10063000C111F7CF81E0DF91CF911F910F91089504
:1006400080E0F9CF85E2F2DE8F3311F080E008958B
:1006500086E3FDDE80911301811112C082E791E0F3
:10066000A0D183E3F4DE64E081E0D3DF85E2DEDE67
:100670008F3361F780911301882329F081E0089579
:100680008DE3E5DEEECF8BE691E08BD1F7CF85E30E
:10069000CDDE8D3051F485E2C9DE8F3331F4D2DF07
:1006A00084E3D5DE80778031D9F7089580914802C0
:1006B0008430C1F58093E90080911401811104C058
:1006C0008091E80085FD34C083E08093E90080914B
:1006D000BD01882339F18091E80085FF23C0F8949B
:1006E0008091BD01882329F08091F200803408F4C4
:1006F0003EC078949091F2008091E800282F2E7FE0
:100700002093E8008F778093E800903459F40E949A
:1007100036158091E800982F9E7F9093E8008F77A0
:100720008093E80008956091F10088E791E03BD361
:100730008091F2008111F7CF8091E800982F9B7F84
:100740009093E8008F778093E80081E08093140114
:1007500086E593E09093FF018093FE01E091000213
:10076000F091010281E0099510921401ADCF8BEB5D
:1007700091E030D38093F100B3CF42E061EC82E0AE
:100780000E94E81442E361E883E00E94E81442E337
:1007900060E884E00E94E8141092000110920101C8
:1007A00010920201109203010895809149029091E4
:1007B0004A029132B1F0923259F1903291F5813280
:1007C00081F58091E800877F8093E80067E070E022
:1007D00080E091E00E94F7158091E800982F9E7FBD
:1007E00011C0813AF1F48091E800877F8093E8009E
:1007F00067E070E080E091E00E9460158091E80081
:10080000982F9B7F9093E8008F778093E80008955E
:10081000813239F48091E800877F8093E8000C945E
:10082000121508951F921FB61F9211248F939F9344
:10083000AF93BF938091160190911701A091180179
:10084000B09119010196A11DB11D809316019093DD
:100850001701A0931801B0931901809115018F5FC2
:1008600080931501BF91AF919F918F911F901FBEF3
:100870001F901895FC018FB7F89440911601509184
:1008800017016091180170911901408351836283AF
:1008900073838FBF0895A4E0B0E0E1E5F4E00C9429
:1008A0007317CE010196E6DF8C810CD18B810AD1C2
:1008B0008A8108D1898106D181D02496E2E00C9406
:1008C0008F178091160190911701A0911801B09196
:1008D000190120911B01281789F18091160190912F
:1008E0001701A0911801B091190180931B01A895DF
:1008F000809115018D3710F110921501809107013B
:1009000081FF04C088B190E1892788B980911E01D8
:1009100090911F01843823E0920728F40196909368
:100920001F0180931E0180911A0191E0980F8B3373
:1009300019F090931A01089510921A010895880FE2
:10094000991F0197F1F7089520ED37E0811101C05B
:100950000895F9013197F1F78150F8CFCF93C82F5F
:1009600080914802843081F480911C0180FF0CC08A
:100970008091BD01803408F099DE6C2F8BEB91E003
:1009800012D2CA3009F492DECF910895CF93DF934B
:10099000EC018991811103C0DF91CF910895DEDFD1
:1009A000F8CFCF93DF93EC01FE018491811103C056
:1009B000DF91CF910895D2DF2196F6CF8DE0CEDF83
:1009C0008AE0CCCFA6E0B0E0E8EEF4E00C946F173C
:1009D000FC01262F1E828E010A5F1F4F35E08AE040
:1009E000E82EF12CCF01B7010E9449173150805DEC
:1009F000D8018E938D01CF01FB010A97A8F4832FB4
:100A00002550622F630F615067FD02C0811110C035
:100A100021E030E02C0F3D1F280F311DC901B6DF4A
:100A20002696E6E00C948B173111DCCF80E0E8CFFE
:100A30008150E1E0F0E0EC0FFD1FE80FF11D408375
:100A4000E2CFA5E0B0E0E7E2F5E00C9473179C017B
:100A50001D8254E0922F9F709A3048F5905D8FEF81
:100A6000850FE1E0F0E0EC0FFD1FE80FF11D908332
:100A7000F90194E0F695E7959A95E1F72031310573
:100A800098F45550650F615067FD02C0811111C087
:100A900021E030E02C0F3D1F280F311DC90176DF0A
:100AA0002596E2E00C948F17582F9F01D3CF995CC5
:100AB000D6CF8150E1E0F0E0EC0FFD1FE80FF11D13
:100AC0004083E1CF40E362E090E0BBCFCF93DF9380
:100AD000EB01FB0130E020E0DC019D91992331F036
:100AE000913670F08FE9890F863030F0CF018C1B82
:100AF0009D0BDF91CF91089590529753292B05C0FC
:100B000080ED890F8A3050F4282B332389F021930C
:100B10004150442359F330E020E008C08FEB890FA7
:100B2000863058F3903211F09A3301F7CD01D4CFCB
:100B30002295207F31E0FACF382F292FDB0180E08A
:100B400090E0E32FF22F2191211103C08D939C930C
:100B5000089530ED320F3A3040F46AE070E00E94C0
:100B600038172053330B820F931F3E2F2F2FE9CFBF
:100B70000E94AB17F999FECF08950C94A31708951E
:100B80000F931F93CF938C01CFEFC60FC801F5DFF2
:100B900099DFCC2331F00F5F1F4F8AE3DFDEC150B6
:100BA000F5CFCF911F910F910895A2E0B0E0EBED4A
:100BB000F5E00C947017FC0181818D3449F466E0F6
:100BC0008AEF91E0DDDFFADE2296E5E00C948C17E7
:100BD000803521F460E18AED91E0F4CF1A82198228
:100BE00042E0BE016F5F7F4FCF0101966FDF098149
:100BF00010E0823029F409811A811027012710277B
:100C0000C801BBDFF82E82E5A9DE40E364E0C8013D
:100C100018DF89E991E0C5DE8F2D54DF85E991E089
:100C2000C0DE40E262E08F2D90E0CCDECCCFA6E0CB
:100C3000B0E0EDE1F6E00C946B176C0143E0CE01FF
:100C400001967C01BC01C601019640DF8C01BE2CDF
:100C5000AF2C8230D0F0E980F12C823029F0E9808D
:100C6000FA80FE24EF24FE241127FE01E00FF11F7D
:100C70006081C7017DDF000F111F0F5F1F4F0C0D3B
:100C80001D1DF8018081811104C02696EAE00C94B4
:100C9000871741E06B2D7A2DC80118DF892BA9F346
:100CA0009FEFE91AF90A6981C70162DF0E5F1F4FE2
:100CB000E8CF41E067E071E0019608DF809107012D
:100CC00080FF06C0449A6091070184E390E050CF12
:100CD0004498F9CFA1E0B0E0E0E7F6E00C94731798
:100CE0001982009731F041E0BE016F5F7F4F01969E
:100CF000EDDE89818F3F09F4FFCF882321F061E089
:100D000083E390E035DF0E94731610926E00F89432
:100D100088E198E00FB6F894A895809360000FBE24
:100D200090936000FFCFCF93DF93EC0161E080E010
:100D300090E01EDF64E481E090E01ADF50DB60E0C9
:100D400080E690E015DF60E081E690E011DF60E092
:100D500083E390E00DDF62E084E390E009DF8981C6
:100D6000883719F080E090E0B5DFDF91CF910895EA
:100D700080E090E002DF813029F481E090E0FDDE48
:100D8000843419F080E090E0CEDF84E390E0F5DE7B
:100D900080930701089587E891E01E9B02C089E7D0
:100DA00091E0FFDD0BCEFC019FB7F8948281803487
:100DB00010F09FBF08958F5F8283A08181E08A0F2A
:100DC0008083AE0FBF2FB11D13966C93803489F7CB
:100DD0001082EFCFFC019FB7F8948281811102C08D
:100DE0009FBF089581508283A18121E02A0F218332
:100DF000AE0FBF2FB11D13968C91203489F711824D
:100E0000EFCF469A882399F08091210190E044E049
:100E1000880F991F4A95E1F792DD4698809120014D
:100E200090E024E0880F991F2A95E1F788CD809102
:100E3000230190E034E0880F991F3A95E1F77FDDB8
:100E4000469880912201ECCFA7E0B0E0EAE2F7E01B
:100E50000C9463174C016E83842F2D83502EEB82EC
:100E6000642E712C8E5F602F0E942F179C2D9A0D7F
:100E7000890F082E000C990B20911E0130911F0143
:100E80002817390738F48DE991E08BDD2796E2E1E8
:100E90000C947F17281B390B30931F0120931E01E0
:100EA000449A80911201811101C0AADB27DB8C2DAD
:100EB00090E09C0144E0220F331F4A95E1F73A830A
:100EC00029832A2C312C54E0220C331C5A95E1F74B
:100ED000CA28CC823E81032F10E0CC24C394D12CAD
:100EE0008D81E82EF12C9C81992339F0469A8981D5
:100EF0009A8125DD4698C10122DD1D8280E081DFD7
:100F0000ED81EF5FED838E2FEE0F990B8017910728
:100F1000ACF381E076DF412C842D042C000C990B7E
:100F20009F838E8386159705CCF027E0B22E880D1F
:100F3000991D9F838E838B2D0B2C000C990BE8162B
:100F4000F90634F18B8100DD5A945110CCCF809199
:100F50002501882351F1E4DA449898CF37E0A32E95
:100F6000B12C2E813F81280D391D3F832E83C60170
:100F70000A2C01C0880F0A94EAF7EE81FF81908164
:100F800089233FDFF1E0AF1AB10888F74394C4CF5B
:100F9000C6010B2C01C0880F0A94EAF7EE81FF818D
:100FA000908189232EDFBA94C6CF86E350DAD4CF5E
:100FB000ACE0B0E0EEEDF7E00C9467177C01162F83
:100FC000842F022F6701C60ED11C462FB70129D2EC
:100FD000F60180831F5F1982612C712C40E027E0AD
:100FE00061E070E0A7E0B0E05701A60CB71C611605
:100FF000D0F0222309F479C0215089E180932201A5
:101000008093230185E28093200180932101A12C0C
:10101000C12C8AE0E82E6CE0CE01019615DF2C96FB
:10102000EEE00C948317F50180816B010A2E02C05B
:10103000CC0CDD1C0A94E2F7C822CC2091F0882465
:101040008394912C8C0E9D1E840E911CF401908132
:101050006B01022E02C0CC0CDD1C0A94E2F79C2925
:1010600090839FEF920F21110EC091E0940F9C305E
:1010700008F4492F21E030E02C0F3D1F290F311DCE
:10108000F901108297E0292F119708F0B0CF082EB0
:1010900082958025082E8695869580258F5F81FF15
:1010A0000FC0A1E0B0E0AC0FBD1FA40FB11D8C912B
:1010B0009B01092E01C0220F0A94EAF7822B8C9320
:1010C0002FEF290F91110DC081E0840F8C3008F4AF
:1010D000482FA1E0B0E0AC0FBD1FA80FB11D1C92BE
:1010E00027E03FEF631A730A7DCF4F5F27E085CF7C
:1010F000ACE0B0E0EEE7F8E00C947117162F042F87
:101100004BE0BE016F5F7F4F0196E0DC682F202F20
:10111000412FCE0101964CDF2C96E4E00C948D1704
:1011200043E066E0E5CFAF92CF92EF920F93CF937B
:10113000DF93CDB7DEB72C970FB6F894DEBF0FBEA6
:10114000CDBF4BE0BE016F5F7F4F0296BFDC8530A5
:10115000C1F48EE3809323018CE18093220181E22C
:10116000809321018AE38093200185E2A82E9AEFE3
:10117000C92EE12C05E024E044E068E0CE010196B0
:1011800063DE2C960FB6F894DEBF0FBECDBFDF91A5
:10119000CF910F91EF90CF90AF900895A0E0B0E085
:1011A000E4EDF8E00C946B17FC01109239014181D9
:1011B000440F440F440F8381481B87E0C82EC40EA0
:1011C00010923A0120E030E047E057E070E080E024
:1011D00097E0E92EF12C01E010E0DD24D394D80E45
:1011E0008C1580F02093460130933901CD14A0F581
:1011F000653409F088C04F3F09F085C02F5F209308
:10120000460183C0DF01A70FB11D14968C9190E0B9
:10121000052E02C0959587950A94E2F781705523B3
:1012200069F051506B34D1F4433059F4332371F0E9
:1012300030E0811155C04150832F1EC07F5F57E0C1
:10124000F1CF4F3FB1F781110FC02FC0811114C0F2
:10125000209346011092390180E05DC04F3F51F567
:10126000663469F0653479F32F5FA22FB0E0A65C95
:10127000BE4F1C92832F47E0382F8D2DAECFA22F6B
:10128000B0E0A65CBE4FAC910A2EA295A0250A2E16
:10129000A695A695A02590E0AF5FA695A170CA2F50
:1012A000A12CDA2D8C179D07F9F22093460130937B
:1012B0003901D2CF882309F4BECF663471F4A22F4E
:1012C000B0E0A65CBE4FBC90C801042E01C0880FE0
:1012D0000A94EAF78B298C93AECF653409F0ABCF33
:1012E000A22FB0E0A65CBE4FC701841B910947FD49
:1012F0009395580102C0AA0CBB1C8A95E2F7C50160
:101300009C91892BE8CF311179CF81E090914601F2
:10131000992309F4A1CFCDB7DEB7EAE00C94871783
:1013200010926F008091490190E064E170E00E94AA
:101330003817FC01E65BFE4F10820895FC018181A5
:101340008C3008F0EDCF9381662381F0DF01A80F88
:10135000B11D41E050E0092E01C0440F0A94EAF7A4
:1013600014962C911497242B14962C93992319F0EE
:1013700091509383089597E093838F5F8183E80F63
:10138000F11D1482089570E030E0FB01E21BF30BC5
:101390003B967797A0F490E050E0FC01E41BF50B3E
:1013A0003B96779760F4680F791F240F351F621BF7
:1013B000730B655F7F4F81E06731710508F080E056
:1013C00008953E9A46983F98EAE6F0E08081816071
:1013D000808382EC91E090931F0180931E01109214
:1013E0005E0110921201089580912501882311F069
:1013F00007D996C8FEC8FC01818181110BC080917C
:10140000250160DB40E265E080911E0190911F01A3
:10141000D9DAD4CA41E065E271E0CF01019656DB2A
:10142000E3CF9B01411101C008954150F901E40F40
:10143000F11D9081890FF6CF9C0180E0611101C000
:1014400008956150F901E60FF11D90818927F6CFCB
:10145000AC01F0913901362F85E090E0311105C0E3
:10146000890F8295807F892B08957FEF730FDA01B2
:10147000A70FB11D2C91E22FE295EF709E278E0FE2
:10148000FF2311F0361719F02F709227820F372F94
:10149000E5CFFC0122813381A081B181A20FB11D72
:1014A0008C9190E0032E02C0959587950A94E2F7FF
:1014B00081709FEF930F9383311104C02F5F2283BC
:1014C00097E093830895A0E0B0E0E9E6FAE00C9499
:1014D0006C17D82EC92EE42E062F10E0E801F12C4F
:1014E000BB24B394209731F48F2DCDB7DEB7E9E05C
:1014F0000C9488178D2D9C2DCCDFAE0141505109E5
:10150000882349F0EE2049F02B2D042E01C0220F34
:101510000A94EAF7F22AEA01E5CF98012C1B3D0B69
:101520008B2D01C0880F2A95EAF7282FF3CFA4E06E
:10153000B0E0EDE9FAE00C946B17FC011B8287E048
:101540008C83CF0104969A8389831092460181810E
:1015500090E023E0880F991F2A95E1F7438127E067
:1015600030E0241B3109820F931F853491050CF064
:101570004FC080E049C0CE010196A5DFA82EED2D19
:10158000F0E0E65CFE4F8083C82E0C2CC294C02491
:101590000C2CC694C694C024CE0101967ADF90E04C
:1015A000C394C1FAEE24E0F8F12C8E159F0509F7DB
:1015B000CE0101966EDF8111DCCFBA24D394D09294
:1015C0004601D090460185E040E068E08D1598F630
:1015D000CE01019678DFE82EF82E0F2CF294F0243D
:1015E0000F2CF694F694F024CE01019652DF90E091
:1015F000F394F1FA002700F910E08017910709F041
:10160000B8CF81E0BE10B5CF2496EAE00C948717DE
:10161000B12CD7CF8091240180FD03C084608093DA
:1016200024010895A1E0B0E0E8E1FBE00C946E171E
:10163000198280912601882379F18091250187FF05
:1016400013C084E30E9416028058803408F49EC0C0
:10165000803C08F09DC08055990BE3E095958795F7
:10166000EA95E1F78F597AD98091250183FF12C05D
:1016700082E774D98091250184FF03C080912701FE
:101680006DD986E66BD98091250184FF03C08091D6
:10169000260164D91092260180914701882309F41C
:1016A0008BC1449A8091480190E064E170E00E940F
:1016B00038178C01065B1E4F898181117CC066E45E
:1016C000C8016CDD8823B9F0F0904601FA94F092DD
:1016D00046014F2D6AE371E086E0A3DEEF2DF0E0D6
:1016E000E65CFE4FE080E81255C023E086E42F154B
:1016F00008F472C1198265E4C80150DD81116EC120
:10170000C80115DF81117CC1F8016389E0902701D0
:10171000262F4E2D828937DE682FC8010FDE6BE43D
:10172000C8013CDD81116EC1F801838191E0980F01
:101730009383873029F4F80181811382815081835A
:10174000F80181818430B9F5F8018381843099F5FD
:101750002EE14CE36189808916DE882361F12EE158
:101760004E2DF801638982890EDE682FC801E6DDFF
:1017700085E0F8013496AAE3B1E001900D928A95D4
:10178000E1F785E08093460182E526C180E06ACFDB
:101790008FE068CF282F30E02F5F3F4F4E2D50E075
:1017A0002417350709F00CC133E03F1508F0A2CF2C
:1017B00096E499838083E980D0902501EE2009F496
:1017C0007FC0D0FE7DC0809124018A7F8093240158
:1017D0008D2D8270811125C0F090460190913801C5
:1017E000ACE2B1E0EAE3F1E09F1509F42EC14F2D20
:1017F00050E06AE371E08CE291E00E949A17F09267
:1018000038018091160190911701A0911801B091B3
:1018100019018093280190932901A0932A01B09384
:101820002B01F4E5EF121DC0D6FC1BC080914601D0
:101830008530B8F080913C018B3471F0893661F0CD
:101840009DEA980F923040F08D57823028F08091B9
:101850003D018077803729F4809124018160809355
:101860002401B801CE010196D5DE8091240182FFCA
:1018700027C08E2D73D880913901882329F080915B
:101880004601815080934601F12CE0914601FE16FD
:1018900008F4FCC080913901882349F0F0E0E65C4F
:1018A000FE4F80818F7040E361E090E0CAD8809164
:1018B000250185FF04C084E30E94160203D97ED867
:1018C0008091250182FF67C080E748D8F8018081B8
:1018D00040E262E090E076D8F801808990E040E252
:1018E00065E024E0880F991F2A95E1F76BD8F8018D
:1018F000818990E040E265E034E0880F991F3A95D5
:10190000E1F760D8F801828990E040E265E054E0B8
:10191000880F991F5A95E1F755D8F801838990E00F
:1019200040E265E074E0880F991F7A95E1F74AD8A4
:10193000F801828140E263E090E044D8F8018181BF
:1019400040E263E090E03ED8F801838140E262E04B
:1019500027E030E0F901E81BF109CF0133D880E23C
:101960000E94AE048091250185FF07C084E30E9498
:101970001602A8D880E20E94AE04F8018381873065
:1019800019F081818F5F8183F12CF8018181F81634
:1019900008F484C013D8F801108280914701815067
:1019A000809347019091480181E0890F913009F4BB
:1019B00080E08093480144982196E7E00C948A17D0
:1019C0004F2D6AE371E08CE02CDDE81293CE83E0CA
:1019D0008F1508F08FCE84E58983EDCE8091460186
:1019E000815080934601893009F08ACE69E08AE30C
:1019F00091E022DD90914301891382CE85E4ECCF02
:101A000088E4EACFE0914601FF24FA94FE0EF092BA
:101A100046016F2D8AE391E01BDD909139012F2D56
:101A2000291B330BF901E65CFE4F908189137CCEB4
:101A30008BE4D2CF2D9191918F5F291731F0809156
:101A400024018D7F80932401D2CEF812F3CFF0923F
:101A500038018091160190911701A0911801B09161
:101A60001901409128015091290160912A0170913A
:101A70002B01841B950BA60BB70B8697A105B1050F
:101A800008F0B5CE809124018160DCCFEF2DF0E02D
:101A9000E65CFE4F808116D8F394F7CEF801EF0D87
:101AA000F11D84810FD8F39470CF1F920F920FB65F
:101AB0000F9211242F933F934F935F936F937F93D4
:101AC0008F939F93AF93BF93EF93FF9310926F0009
:101AD0008091250183FF03C08EE20E94AE04209115
:101AE0004901A22FB0E0CD0164E170E00E943817F7
:101AF000FC01E65BFE4F8081833058F0CD0164E14C
:101B000070E00E943817FC01E65BFE4F8181823055
:101B100090F406DCFF91EF91BF91AF919F918F916F
:101B20007F916F915F914F913F912F910F900FBED9
:101B30000F901F90189580914701813049F4809152
:101B4000250182FFE6CF84EA91E00E94D104E1CF33
:101B50008F5F8093470181E0820F213019F08093DD
:101B60004901D8CF10924901D5CF1F920F920FB6DD
:101B70000F921124EF92FF920F931F932F933F9395
:101B80004F935F936F937F938F939F93AF93BF9385
:101B9000CF93DF93EF93FF93009184001091850022
:101BA000E4E016950795EA95E1F78091490190E008
:101BB00064E170E00E943817EC01C65BDE4F88815B
:101BC0008430E1F40E3218F00F34E8F0A9DBFF9115
:101BD000EF91DF91CF91BF91AF919F918F917F91C5
:101BE0006F915F914F913F912F911F910F91FF90B6
:101BF000EF900F900FBE0F901F90189537991AC055
:101C000000932701E4CF379B0DC080912701081B6B
:101C100000932601109285001092840060E0CE01AE
:101C20008DDBD5CF61E0CE0189DB1092850010926B
:101C30008400E6CF80912701081B009326011092B3
:101C400085001092840082E086BBF8801091270105
:101C5000F1100FC0153608F0BACF809126018536F5
:101C600008F0B5CF188B898B81E08A8382E0888366
:101C7000AECF0091260122E0F21248C0F888E98830
:101C8000202F412F6E2D8F2D7EDB2A818823E9F0B6
:101C90008F2D90E063E070E00E943817810F911D56
:101CA0009595879595958795888B8E2D90E063E027
:101CB00070E00E943817800F911D95958795959536
:101CC0008795898B2F5F2A8382CF2430E8F080EAC2
:101CD0009FE090938900809388002C3098F02F2DFE
:101CE0002E0D3327331F2536310564F084E08883B9
:101CF0001A8B0B8B198287E08B831C8282E0809386
:101D00006F0065CF83E0F3CF1882A4CF202F412F3F
:101D10006B898A8938DB8823F1F061E0CE010EDB24
:101D20008A8990E063E070E00E943817810F911D6E
:101D300095958795959587958A8B8B8990E063E03B
:101D400070E00E943817800F911D959587959595A5
:101D500087958B8B3CCF202F412F6989888913DB96
:101D60008823F1F060E0CE01E9DA888990E063E051
:101D700070E00E943817810F911D95958795959574
:101D80008795888B898990E063E070E00E9438171E
:101D9000800F911D9595879595958795898B17CF80
:101DA00037E0F31609F413CF11CFCF93DF93EC98FC
:101DB0003D9A459A8EE190E00E949F0445988EE1FD
:101DC00090E00E949F04459A8DE290E00E949F045B
:101DD00080E30E94270284E690E00E949F04C5EB06
:101DE000D1E0FE0131966491FE0184910E941D02B2
:101DF0002296F1E0C73EDF07A1F783E30E942702A6
:101E000084E00E94A40484E30E94270285E30E94E8
:101E100016028D30C1F7DF91CF910895AEE1B0E0A9
:101E2000E4E1FFE00C947017809172018823A9F01F
:101E3000379B5EC08FE30E9416028F7789838E31B5
:101E400080F08AE30E94270286E30E9427028DE346
:101E50000E94270284E30E9427026E96E5E00C941C
:101E60008C1745988FEF0E94C50110E089811817E3
:101E700008F454C080E00E94C501F82E80E00E9462
:101E8000C501459A84E30E94270285E30E94160259
:101E90008D30C1F79A8186E789278A830981FE01FF
:101EA000339682E02191801708F444C0802F0230DD
:101EB00008F482E0E1E0F0E0EC0FFD1FE80FF11D17
:101EC0008B81822780831091250110711123D1F11C
:101ED00081E60E94AE0410E0E1E0F0E0EC0FFD1FAF
:101EE000E10FF11D80810E94AE041F5F0117A0F772
:101EF00085E30E941602813029F0813161F48AE382
:101F00000E94270286E30E9427028DE30E94270297
:101F100084E30E9427020E9447039FCF80E00E9433
:101F2000C501E2E0F0E0EC0FFD1FE10FF11D808341
:101F30001F5F9CCFDF011197945292279C938F5F74
:101F4000922FB0CF81E40E94AE04E1E0F0E0EC0F0C
:101F5000FD1FE10FF11D80810E9462051F5F0117C7
:101F6000A0F78091250185FF03C08F2D0E94620597
:101F70000E94DE04BDCFA6E2B0E0E0ECFFE0ADC71A
:101F80004DE19E012F5F3F4F7901B90101960E94FB
:101F90006605182F8150990B9C01898190E02817C4
:101FA000390709F067C080917201811104C0FDDE1C
:101FB00083E00E94A4040B818A8196E789278A83A3
:101FC0004981DE01129692E09D0111968C91119744
:101FD000941708F452C0E42F423008F4E2E0EE0D0A
:101FE000FF2DF11D80278083CE0183960E943A0445
:101FF00085E30E94270285E30E941602833109F4DB
:1020000052C0CE014F960E943A044F8D58A169A14B
:102010007AA18BA19CA1ADA1BEA184179507A607AB
:10202000B70798F5481B590B6A0B7B0B4D3B5105C5
:1020300061057105C0F18BEA91E00E94D10485E34E
:102040000E941602863149F48BE30E94270286E340
:102050000E9427028DE30E9427028091720188234B
:1020600009F449C084E30E94270285E30E94160216
:102070008D30C1F7A696E8E04CC71196F901208192
:10208000245282278C939F5F9FCF481759076A0776
:102090007B0748F484549F4FAF4FBF4F48175907F1
:1020A0006A077B07C7CF85E30E941602833109F0D8
:1020B0009FCF8AE004FF07C088E70E94A40488E756
:1020C0000E94A40488E70E94A40445988FE70E9418
:1020D000C50167018C2D8E19811738F0459A85E36B
:1020E0000E9416028331D9F3AACFF60181916F01C4
:1020F0000E94C501EFCF78D9BDCFFC018181823725
:1021000029F453DE81E0809372010895833719F436
:10211000CF01019630CF1092720108950F931F9353
:10212000CF93DF93EC983D9A459A8EE190E00E9420
:102130009F0445988EE190E00E949F04459A8DE2AD
:1021400090E00E949F0480E30E94270284E690E0D2
:102150000E949F04459880E40E94C50104EF11E0AD
:10216000C7EED1E0FE0184910E94C50121960C17B3
:102170001D07C1F7809108010E94C50180910901E6
:102180000E94C50180910A010E94C501C7EFD1E0FC
:1021900000E112E0FE0184910E94C50121960C1716
:1021A0001D07C1F7459A45988EE70E94C501CBE20D
:1021B000D0E0CE0121960E94BD050E94C501C33327
:1021C000D105B9F7459A83E30E94270281E00E9476
:1021D000A40481E080931201DF91CF911F910F91B0
:1021E0000895CF92DF92FF920F931F93CF93DF93C7
:1021F000EC0189818437C1F46FE071E0CE01029671
:102200000E949C0540E260E080910F0190911001D6
:102210000E94E2040E94DE04DF91CF911F910F9192
:10222000FF90DF90CF900895833709F077C18A81BE
:10223000823769F46BE071E0CE0103960E949C0541
:1022400040E260E080910B0190910C01E1CF449A53
:102250008091750181110DC080917201882329F050
:1022600081E0809374011092720158DF83E00E9434
:10227000A40486E30E9427028AE30E9427028BE3DC
:102280000E9427020E947E02FE0101900020E9F7D1
:10229000FE2EFC1AFA94FA9480910B0190910C0195
:1022A0008E010E5F1F4F892BC9F1E1E2D0E0FE12D3
:1022B00011C0469A80910F01909110010E949F04D5
:1022C000469880910D0190910E016AE070E0D0D5A2
:1022D0000E949F046801C1E0CF156CF1F1E2469ABB
:1022E000FF12D5C080910D0190910E010E949F04B4
:1022F000469880910D0190910E0168E270E0B8D58A
:102300000E949F04DF5F2D2F0D2E000C330B809158
:102310000B0190910C012817390758F28091750133
:10232000882309F4E9C080912501882309F4CEC0EF
:102330000E949002CEC0CF5FF60181916F01803381
:1023400009F042C0F1E2469AFF121FC080910D01D0
:1023500090910E010E949F04469880910D019091EA
:102360000E010E949F04469A80910D0190910E01EA
:102370000E949F04469880910D0190910E0165E0A6
:1023800070E076D50E949F04A7CF80910F019091B5
:1023900010010E949F04469880910F0190911001B6
:1023A00063E070E065D50E949F04469A80910F011A
:1023B000909110010E949F04469880910F01909186
:1023C000100163E070E0DDCF813309F041C081E2AC
:1023D000469AF8121DC080910D0190910E010E9445
:1023E0009F04469880910D0190910E0165E070E088
:1023F0003FD50E949F04469A80910D0190910E0155
:102400000E949F04469880910D0190910E01BACFD1
:1024100080910F019091100163E070E029D50E9436
:102420009F04469880910F01909110010E949F0493
:10243000469A80910F019091100163E070E018D5E9
:102440000E949F04469880910F01909110019ACFAD
:10245000E1E2469AFE120CC080910D0190910E01AE
:102460000E949F04469880910D0190910E01C1CF6A
:1024700080910F01909110010E949F0446988091D5
:102480000F019091100163E070E0F2D4CFCF809102
:102490000F01909110010E949F044698CFE1809116
:1024A0000F01909110010E949F04C150C111F7CFFC
:1024B000DF5F2D2F0D2E000C330B80910B019091BF
:1024C0000C012817390708F405CF28CF86E30E94AE
:1024D0002702449889E60E94AE0483E70E94AE0476
:1024E000E80111E01F150CF095CE8991803391F42D
:1024F0000E94AE041F5FF6CF80917401882339F0EB
:102500001092740152DC81E08093720111CF0E941D
:10251000F409DFCF813361F386E4EACF823771F4C7
:1025200080917201882329F081E0809374011092D8
:102530007201F4DD81E0809375016ECE863651F52F
:102540008A818033F9F480E18093080180EB8093E5
:10255000090181E780930A0189E60E94AE0486E6BC
:102560000E94AE048AE30E94AE04809108010E949A
:102570006205809109010E94620580910A010E9412
:10258000620548CE43E068E071E0CE0102960E9409
:102590006605E2CF8837D9F480917401882359F019
:1025A0001092740102DC81E0809372010E9490021B
:1025B0001092750131CE82E090E00E942B02809152
:1025C00025018111F3CF86E30E942702F1CF8336E4
:1025D00009F022CE6FE071E0CE0101960E949C05C9
:1025E0001BCE85E390E00E94BD058093770186E3D2
:1025F00090E00E94BD05809376010895A6E0B0E0CA
:10260000E3E0F3E170C445E0BE016F5F7F4F0196E8
:102610000E946605843080F499819130C1F4833042
:1026200071F46A8185E390E00E94B8056B8186E3CE
:1026300090E00E94B805D5DF2696E2E070C4809154
:1026400077010E946205809176010E9462050E94D6
:10265000DE04F2CF0F931F93CF93DF93EC0100E0E2
:10266000802F90E063E070E003D49C01FC01EC5803
:10267000FF4F1491812FF901EB58FF4F25913491B1
:10268000112389F0209741F480E20E94AE04812F4B
:102690000E94AE040F5FE4CF98819113FBCFCE016F
:1026A000F901099581E0DF91CF911F910F91089574
:1026B000CF93C0911C0180931C0180917A018111FC
:1026C00004C0C0931C01CF91089588E791E00E9457
:1026D000EA0620910202309103028A3011F08D3017
:1026E00011F52115310549F32C5F3D4FF901108299
:1026F00084E092E0AFDF811111C088E292E00E9495
:10270000D10484E092E00E94C60480E192E00E943D
:10271000D10480E090E09EDF0E94DE04109203026C
:1027200010920202CACF2034310538F6A9014F5F5A
:102730005F4F50930302409302022C5F3D4FF9011B
:102740008083BBCFE4E6F0E080818B7F8083299A91
:1027500084B1876084B9239880E58CBD8DB5816094
:102760008DBD0895A2E0B0E0E7EBF3E1BCC389E4DE
:1027700092E0FC0101962091F100208322E0813556
:102780009207B9F78091490290914A029A3008F075
:102790001CC1E92FF0E0E554F84E8FC3803879F082
:1027A000823809F012C180914D028093E900809136
:1027B000EB0085FB882780F91092E90006C0809124
:1027C000450290914602911182609091E800977FB6
:1027D0009093E8008093F1001092F1008091E8005E
:1027E000982F9E7F9093E8008F778093E8008091E8
:1027F000E80082FF05C08091E800982F9B7F34C0DD
:10280000809148028111F3CF8091E80083FF0AC0D4
:102810008091EB0080628093EB008091E800877FDD
:102820008093E8002296E2E07AC381110BC0809188
:102830004B02813049F781E0933009F080E08093CA
:10284000460207C0823009F0C0C080914B02882345
:1028500089F01092E9008091E800877F8093E8007A
:102860008091E800982F9E7F9093E8008F77809367
:10287000E800CACF80914D028770882329F28093A7
:10288000E9002091EB0020FFE4CF9130B9F4909162
:10289000EB0090619093EB0021E030E0A90102C0D1
:1028A000440F551F8A95E2F74093EA001092EA0020
:1028B0008091EB0088608093EB00CBCF8091EB00A0
:1028C0008062F9CF811181C080914B029091E80024
:1028D000977F9093E8009091E800292F2E7F209316
:1028E000E8009F779093E8009091E80090FF0CC07B
:1028F000982F9F7780688093E300992309F484CF11
:1029000083E08093480280CF909148029111ECCFF0
:102910007BCF8058823008F058C0AE014F5F5F4FC8
:1029200060914D0280914B0290914C020E948B016C
:10293000BC01892B09F468CF8091E800877F8093E0
:10294000E80089819A8107D156CF8038F1F58091CE
:10295000E800877F8093E800809147028093F10030
:102960008091E800982F9E7F9093E8008F77809366
:10297000E8008091E80082FD3ECF809148028111FD
:10298000F8CF42CF811121C090914B02923008F0D4
:102990003BCF8091E800877F8093E80090934702C7
:1029A0008091E800982F9E7F9093E8008F77809326
:1029B000E80080914702882331F084E08093480248
:1029C0000E94BD0321CF83E0F9CF0E94D5031CCF25
:1029D0008093E900EBEEF0E0808181608083EDEE92
:1029E000F0E010826093EC0040838091EE00881F3D
:1029F0008827881F08951092F40080E08093E900F2
:102A00001092F0001092E8009091ED009D7F90935D
:102A1000ED009091EB009E7F9093EB008F5F8530EF
:102A200069F708958091490287FF17C08091E800F7
:102A300082FF0AC08091E800982F9B7F9093E80066
:102A40008F778093E80004C0809148028111EECF17
:102A50000895809148028823D9F38091E80080FF8F
:102A6000F8CF8091E800982F9E7FE8CF95E680917F
:102A7000EC008170882331F08091E80080FF06C06F
:102A800080E008952091E80022FD19C0809148025D
:102A9000882391F08091EB0085FD10C08091E100CA
:102AA00082FFE5CF8091E1008B7F8093E100915020
:102AB0009111DDCF83E0089582E0089581E00895CB
:102AC00020914F02309150026217730708F49B0166
:102AD00050E02115310541F4511106C08091E80004
:102AE00082FF31C080E008954091E80043FD31C08D
:102AF0004091E80042FDF2CF40914802442339F171
:102B00004091E80040FFE5CF2115310521F04091CB
:102B1000F200483080F04091F20051E0483009F076
:102B200050E04091E800642F6E7F6093E8004F779B
:102B30004093E800CECFFC0181918093F1002150B9
:102B40003109CF01E1CF809148028111C7CF82E0E6
:102B5000089581E0089520914F023091500262174C
:102B6000730708F49B0150E02115310541F4511120
:102B700006C08091E80082FF32C080E00895409155
:102B8000E80043FD32C04091E80042FDF2CF4091A1
:102B90004802442341F14091E800FC0140FFE4CFAA
:102BA0002115310521F08091F200883088F0CF01A5
:102BB0004091F20051E0483009F050E04091E800C7
:102BC000642F6E7F6093E8004F774093E800CCCF8E
:102BD00084918093F100215031093196E1CF8091A9
:102BE00048028111C6CF82E0089581E008959B01DB
:102BF0002115310531F48091E80080FF28C080E084
:102C000008954091E80043FD28C0409148024423C4
:102C100011F14091E80042FFF4CF4091F200FC0135
:102C200041110BC08091E800982F9B7F9093E800A2
:102C30008F778093E800CF01DBCF8091F100819303
:102C4000215031092115310569F3CF01E6CF80917B
:102C500048028111D0CF82E0089581E0089553D0D9
:102C600055D01092480210924702109246021092DC
:102C7000450219BC89B5826089BD09B400FEFDCF4B
:102C80008091D800982F9F779093D8008068809388
:102C9000D800809163008E7F809363008091D8007C
:102CA0008F7D8093D8008091E0008E7F8093E0003C
:102CB0008091E1008E7F8093E1008091E20081604D
:102CC0008093E2008091E100877F8093E100809112
:102CD000E20088608093E2000895C1DF81E0809384
:102CE000510278940895BBDFE0EEF0E080818160CE
:102CF0008083E8EDF0E080818F77808319BC1092AB
:102D00005102089508951092E20008951092E10092
:102D100008951F920F920FB60F9211242F933F9395
:102D20004F935F936F937F938F939F93AF93BF93D3
:102D3000EF93FF938091E10080FF1CC08091E2003F
:102D400080FF18C08091E1008E7F8093E100809128
:102D5000E2008E7F8093E2008091E20080618093A8
:102D6000E2008091D80080628093D80019BC109254
:102D70004802C8DF8091E10084FF27C08091E20013
:102D800084FF23C019BC89B5826089BD89B5817073
:102D90008823E1F39091D8009F7D9093D800909183
:102DA000E1009F7E9093E1009091E2009F7E9093DE
:102DB000E2009091E20091609093E20090914702CE
:102DC000911184E0809348029DDF8091E10083FFB0
:102DD00023C08091E20083FF1FC08091E100877FC4
:102DE0008093E10082E08093480210924702809134
:102DF000E1008E7F8093E1008091E2008E7F8093DE
:102E0000E2008091E20080618093E200F4DD42E024
:102E100060E080E0DDDD76DFFF91EF91BF91AF9163
:102E20009F918F917F916F915F914F913F912F91E2
:102E30000F900FBE0F901F901895CF93809148026E
:102E4000882359F0C091E900C7701092E900809181
:102E5000E80083FD87DCC093E900CF91089500244A
:102E600080FD060E660F11F08695D1F7802D08952E
:102E70000024552704C0080E591F880F991F00977A
:102E800029F076956795B8F37105B9F7802D952FE0
:102E90000895AA1BBB1B51E107C0AA1FBB1FA617A1
:102EA000B70710F0A61BB70B881F991F5A95A9F7F3
:102EB00080959095BC01CD010895EE0FFF1F059000
:102EC000F491E02D09942F923F924F925F926F926E
:102ED0007F928F929F92AF92BF92CF92DF92EF92AA
:102EE000FF920F931F93CF93DF93CDB7DEB7CA1B2B
:102EF000DB0B0FB6F894DEBF0FBECDBF09942A8856
:102F0000398848885F846E847D848C849B84AA84FD
:102F1000B984C884DF80EE80FD800C811B81AA818A
:102F2000B981CE0FD11D0FB6F894DEBF0FBECDBF55
:102F3000ED010895FB01DC0102C001900D924150AA
:102F40005040D8F70895F999FECF92BD81BDF89A07
:102F5000992780B50895262FF999FECF1FBA92BD03
:102F600081BD20BD0FB6F894FA9AF99A0FBE01966A
:102F70000895F894FFCFCE131514E5141514E51435
:0A2F800062148914E514A514C214AC
:102F8A00802500000000080210B07106000401A4A8
:022F9A00010034
:00000001FF
