:100000003DC2000057C2000055C200000C9400130E
:1000100051C200004FC200004DC200004BC20000A0
:1000200049C2000047C200000C94042F43C20000E4
:1000300041C200003FC200003DC200003BC20000C0
:1000400039C200000C949E1235C2000033C2000079
:1000500031C200004BC500002DC200002BC20000C1
:1000600029C200000C949E1A0C94991923C2000016
:1000700021C200001FC200001DC200001BC2000000
:1000800019C2000017C2000015C2000013C2000010
:1000900011C200000FC200000DC200000BC2000020
:1000A00009C2000007C2000005C200004105184255
:1000B000240943F703654D0946580B475B0B68BDA0
:1000C0000C69F9214B0B0C4C62066C13094D990B12
:1000D0006DD42B528F0854632774D405558A0C7540
:1000E0004C15568D0976351957D108582F0E78BE04
:1000F000035934245A631E7A43210000002A034323
:100100000055004C0034003300330000002A034344
:100110000055004C0038003600380000001603621D
:10012000007500730077006100720065002E0064A6
:1001300000650000000403090409024300020100F5
:1001400080320904000001020201000524000110B0
:100150000524010301042402060524060001070505
:1001600082030800FF09040100020A0000000705DD
:100170000402400000070583024000001201100144
:1001800002000008EB034B20000001020001202FB9
:100190002000203D2000072E050DD391FF0805000B
:1001A000000C0021656A2D3B1322F862073F181DE1
:1001B0001CC700B0876BF8B611EA2A001F41000D7A
:1001C0002E2D07D3913D04320000060021656A55AB
:1001D000E43023B900070018146C070090876BF80F
:1001E0005611E92A001F410000030F1E26270000B8
:1001F00000030F1E2536386700030F256740605047
:1002000000030F275188838100030F2750C8C3C202
:100210000027000000000000006700000000000050
:1002200000500000000000000081000000000000FD
:1002300000C2000000000000504C4C310D0A00507C
:100240004C4C300D0A005620312E36382043554C88
:10025000383638005620312E36382043554C34334A
:10026000330043554C5F563300202F2000203D20A3
:10027000004C4F56460D0A00424F56460D0A0045A7
:1002800052523A4343410D0A000B08105B11F81516
:1002900047191D1A1C1BC71C001DB221B623EA00FA
:1002A00007022E030D04E905CA070C0B060D210EEB
:1002B000650F6A10C81193120315341733181819F3
:1002C000161B4321562500261129592C812D353E18
:1002D000C3000D022D030106FF070008320B060DB7
:1002E000210E650F6C106A1183121013221550181D
:1002F0001819161B431C401D9123E9242A250026AA
:100300001F3E504C454E4552520D0A004C4F56462A
:100310000D0A004C454E4552520D0A000007024698
:1003200004C605260B0610C81193120313221534B8
:10033000173F182819161B432156250026110D2199
:100340000E650F6A070C160720F81E871F6B2959C8
:100350002C812D353EC3FF000001022E030104AAAB
:10036000050F06FF070008000B060D210E740FADE8
:10037000104B11F8121613721541181819161B0399
:1003800023E9242A2500261F3E500001022E0301E6
:1003900004AA050F06FF070008000B060D210E66D4
:1003A0000F6610CA11931206135215351818191634
:1003B0001B0323E9242A2500261F3E500001022E9C
:1003C0000301045505F006FF070008000B060D2188
:1003D0000E660F9910591183121E135215351818F5
:1003E00019161B0323E9242A2500261F3E500D2E33
:1003F0002D07D3913D04320000060010B07155E482
:100400003023B900070018146C070090876BF8566A
:1004100011E92A001F41000D2E2D07D3913D043212
:100420000000060010ABA5550A3023B900070018DC
:10043000146C070090876BF85611E92A001F4100E1
:100440004E2F4100454F420D0A004E2F41004E2FC6
:10045000410000535300547D7DFFFF4B4B7E7E00D7
:1004600020697320756E6B6E6F776E2920557365EA
:10047000206F6E65206F66003F20280011241FBE8C
:10048000CFEFDAE0DEBFCDBF11E0A0E0B1E0E2E106
:10049000F3E602C005900D92AC34B107D9F726E01F
:1004A000ACE4B1E001C01D92A034B207E1F70CD07A
:1004B0000C947D31A5CDF89481E085BF82E085BFA5
:1004C000E0E0F8E30995089588E19FE00FB6F8941D
:1004D000A895809360000FBE9093600080E890E044
:1004E0000FB6F89480936100909361000FBE2E9A2E
:1004F0002D9A04B603FE0AC083E390E0F8D5882362
:1005000029F060E083E390E0EDD5D5DF89EF87BD8A
:1005100084E085BD82E084BD80936E0010928000EF
:100520008AE08093810084B7877F84BF6E9A0E949F
:10053000A22BE0D60E94D92E0E941C270E940E0EEC
:1005400088E59BE29093AB058093AA050E94A614D0
:1005500089E08093560176980E94B52F02D20E94BE
:10056000201038D30E949E150E9493160E94ED1D04
:100570000E9419200E949318EFCF9C01DA01832F6B
:1005800099278230910549F18330910539F001971F
:1005900049F180E090E020E030E00EC0C9019927E9
:1005A000213069F08230910569F0E5E3F1E0892BB3
:1005B00081F7849190E09F012D933C930895EDE1A4
:1005C000F1E0F7CF2DEF30E01E9B02C02DE031E0CF
:1005D000EDE0F1E0849190E0EFCF83E490E029E357
:1005E00031E0EACF82E190E02CE731E0E5CF8EBD4B
:1005F0000DB407FEFDCF8EB50895EF92FF920F93D5
:100600001F93CF93C82F8A3008F0C8E028E0C29F1C
:10061000C0011124FC01E851FE4F7F010BE210E004
:10062000F7016491C8010F5F1F4F5CD5FFEFEF1A10
:10063000FF0A03331105A1F7C55061E1C53008F089
:1006400067E184E290E04ED5CF911F910F91FF902A
:10065000EF9008950F931F93CF93DF930FEB11E06B
:10066000C2E0D0E0F8016491CE0121963BD50F5F46
:100670001F4FCB32D105B1F706E911E0C7E3D0E057
:10068000F8016491CE0121962DD50F5F1F4FC03622
:10069000D105B1F71E9918C060E18FE090E022D536
:1006A00060EB80E190E01ED561E781E190E01AD532
:1006B00060E184E490E016D560EB85E490E012D52B
:1006C00061E786E490E00ED588E097DFDF91CF9177
:1006D0001F910F9108952898806C89DF80E087DF53
:1006E000289A0895CF93C62F2898806480DF8C2F96
:1006F0007EDF289ACF910895289879DF289A089567
:100700000F931F93CF93DF93EC011092DF02EA98CF
:10071000209A289A8EE190E02FD328988EE190E0DD
:100720002BD3289A8DE290E027D380E3E5DF84E69F
:1007300090E022D3289880E45ADF8E01075D1F4F96
:10074000CE012196D4D453DF0C171D07C9F7289A80
:1007500028988EE74CDFCBE2D0E0CE012196C7D4BB
:1007600046DFC333D105C9F7289A83E3C5DF81E0AB
:1007700008D3DF91CF911F910F910895A1E0B0E0D0
:10078000E4ECF3E00C94043022E0298341E0BE0164
:100790006F5F7F4F019643D489812FDF82E090E025
:1007A000AFDF2196E2E00C942030CF93EA9886E305
:1007B000A3DFCFEF85E3A0DF8077803231F08AE0DE
:1007C00090E0DAD2C150C111F5CFCF910895CF9307
:1007D000CFEF84E391DF8077803131F08AE090E0E1
:1007E000CBD2C150C111F5CFEA9ACF910895A2E0C2
:1007F000B0E0EDEFF3E00C9402308C01FC0181815C
:100800008737F1F441E0BE016F5F7F4FC801029668
:1008100006D4892BA9F041E0BE016E5F7F4FC8016D
:100820000496FDD3892B61F06A8189815BDF83E3C4
:1008300063DFCDDF8981EFD38A81EDD368D318C020
:1008400041E0BE016E5F7F4FC8010196E8D3892B5E
:1008500079F08A81893981F410E0812F3CDFDBD384
:10086000812F8770873009F452D31F5F1033A9F7A7
:100870002296E4E00C941E302EDF182F83E4F0D291
:100880008A81C9D382E991E035D3812FC4D38EE820
:1008900091E030D340E262E0812F90E03CD3CECFB4
:1008A00086E32ADF10924C01109293021092DF022D
:1008B000089582E090E024DF81E080934C01109263
:1008C00093021092DF0208950F931F93CF93DF934B
:1008D000D82FC0E0062F10E085E3FDDE8D1759F01C
:1008E000C8014AD2C150C111F7CF81E0DF91CF9149
:1008F0001F910F91089580E0F9CF85E2ECDE8F33F0
:1009000011F080E0089586E3F7DE80914D018111BA
:1009100012C08FE392E0EED283E3EEDE64E081E08A
:10092000D3DF85E2D8DE8F3361F780914D018823D4
:1009300029F081E008958DE3DFDEEECF88E392E0D9
:10094000D9D2F7CF85E3C7DE8D3051F485E2C3DE1F
:100950008F3331F4D2DF84E3CFDE80778031D9F773
:10096000089580913206843009F03EC08093E900FA
:1009700080914E01811104C08091E80085FD3AC04C
:1009800083E08093E90080912705882369F18091B5
:10099000E80085FF29C0F89480912705882341F05D
:1009A0008091F2009091F3008034910508F443C0E7
:1009B00078942091F2003091F3008091E800982F14
:1009C0009E7F9093E8008F778093E8002034310574
:1009D00059F40E94892D8091E800982F9E7F909372
:1009E000E8008F778093E80008956091F10082EA33
:1009F00094E0A7D48091F2009091F300892BA9F79D
:100A00008091E800982F9B7F9093E8008F778093E8
:100A1000E80081E080934E0181EB94E09093A9057A
:100A20008093A805E091AA05F091AB0581E00995B6
:100A300010924E01A5CF85E295E09AD48093F10003
:100A4000ABCF42E061EC82E00E943B2D42E361E8E3
:100A500083E00E943B2D42E360E884E00E943B2D4E
:100A600010920001109201011092020110920301F4
:100A7000089580913306909134069132B1F092320C
:100A800059F1903291F5813281F58091E800877FAC
:100A90008093E80067E070E080E091E00E94552ECE
:100AA0008091E800982F9E7F11C0813AF1F48091E7
:100AB000E800877F8093E80067E070E080E091E0E5
:100AC0000E94B32D8091E800982F9B7F9093E800BF
:100AD0008F778093E8000895813239F48091E8009F
:100AE000877F8093E8000C94652D08951F921FB6B0
:100AF0001F9211248F939F93AF93BF93EF93FF9314
:100B00008091500190915101A0915201B0915301F7
:100B10000196A11DB11D8093500190935101A093A6
:100B20005201B093530180914F018F5F80934F0129
:100B3000E6EAF3E080819181181619061CF401970A
:100B400091838083369683E0EE3BF80799F7809196
:100B5000DF039091E003009729F001979093E00361
:100B60008093DF038091E3038F3F19F081508093DE
:100B7000E303FF91EF91BF91AF919F918F911F90F0
:100B80001FBE1F901895FC018FB7F894409150013B
:100B900050915101609152017091530140835183F2
:100BA000628373838FBF0895A4E0B0E0EAEDF5E0BF
:100BB0000C940430CE010196E6DF8C812CD28B811F
:100BC0002AD28A8128D2898126D2A1D12496E2E034
:100BD0000C9420300F931F93CF93809150019091EC
:100BE0005101A0915201B091530120915501281754
:100BF00009F457C08091500190915101A091520188
:100C0000B091530180935501A89506EA13E0C0E026
:100C1000F80180819181892B19F48C2F0E948E29F3
:100C2000CF5F0A5F1F4FC43099F78091DF03909127
:100C3000E003892B11F40E94EC298091E3038111D8
:100C400002C00E94432A80918E02882339F081508D
:100C500080938E02811102C00E94301680914F0154
:100C60008D37F8F010924F018091070181FF04C089
:100C70008EB190E489278EB98091580190915901E5
:100C80008438F3E09F0728F40196909359018093EC
:100C900058018091540191E0980F8B3331F090937B
:100CA0005401CF911F910F9108951092540180919A
:100CB000E1038F5F8C3318F48093E103F2CF10923D
:100CC000E103EFCFA0E0B0E0E8E6F6E00C94FE2F01
:100CD000EC016EE070E00E945C318D3009F03DC0A7
:100CE000769A1091DF02112331F01092DF028AE32D
:100CF00091E0B5D711E080914C01811101C0D9DD9F
:100D000054DD04E06E018DE0C80ED11C5B9A88EEC4
:100D100093E032D07E01EFEFEE1AFE0AF7018191E7
:100D20007F015B988133F1F488EE93E025D05B9AE4
:100D300080ED97E021D0EC14FD0481F75B9883E20D
:100D400020D001500111E2CF80915F01882389F00A
:100D50003EDD11110E94011C7698CDB7DEB7E8E0A8
:100D60000C941A3080ED97E007D05B9A88EE93E000
:100D7000E1CF86E3C1DCEDCF880F991F0197F1F732
:100D8000089520ED37E0811101C00895F9013197F0
:100D9000F1F78150F8CFCF93DF93FC018381843545
:100DA00009F055C08081DF0150962DE0281708F426
:100DB00051C030E090E0AC014F5051092417350785
:100DC00009F045C0EF012396DC011E97AC0FBD1F53
:100DD0002C912435E1F5348111962C911197321321
:100DE00036C0358112962C911297321330C036815D
:100DF00013962C91139732132AC0378114962C9195
:100E00001497321324C04197C80FD91F15968C919F
:100E10001597888316968C911697898319968C91CD
:100E200019978A831A968C911A978B831B968C91AB
:100E30001B978C831C968C911C978D831D968C918F
:100E40008E8380818A50808382818A508283DF9161
:100E5000CF9108959D919B3309F4ABCF2F5FA6CF1F
:100E6000CF93C82F80913206843049F58091560186
:100E700080FF25C08091270587FD73DD6C2F85E2FB
:100E800095E05FD2CA30C1F0809190028823A9F02A
:100E90008091560183FF11C0CD30E1F46BE38AE00D
:100EA00092E04FD28AE092E076DF83E080938E0278
:100EB00082E080938D0201C054DDCF91089580912E
:100EC00090028823D1F38091560183FFF6CFCA3078
:100ED00019F7F3CF6C2F8AE092E033D2E6CFCF93AD
:100EE000DF93EC018991811103C0DF91CF910895C7
:100EF000B7DFF8CFCF93DF93EC01FE01849181112E
:100F000003C0DF91CF910895ABDF2196F6CF8DE03E
:100F1000A7DF8AE0A5CFA6E0B0E0E1E9F7E00C9416
:100F20000030FC01262F1E828E010A5F1F4F35E024
:100F30008AE0E82EF12CCF01B7010E94C72F315073
:100F4000805DD8018E938D01CF01FB010A97A8F433
:100F5000832F2550622F630F615067FD02C08111FE
:100F600010C021E030E02C0F3D1F280F311DC901BA
:100F7000B6DF2696E6E00C941C303111DCCF80E021
:100F8000E8CF8150E1E0F0E0EC0FFD1FE80FF11D2C
:100F90004083E2CFA5E0B0E0E0EDF7E00C94043050
:100FA0009C011D8254E0922F9F709A3048F5905D0D
:100FB0008FEF850FE1E0F0E0EC0FFD1FE80FF11D72
:100FC0009083F90194E0F695E7959A95E1F7203141
:100FD000310598F45550650F615067FD02C08111CD
:100FE00011C021E030E02C0F3D1F280F311DC90139
:100FF00076DF2596E2E00C942030582F9F01D3CF66
:10100000995CD6CF8150E1E0F0E0EC0FFD1FE80FD6
:10101000F11D4083E1CF40E362E090E0BBCFCF938E
:10102000DF93EB01FB0130E020E0DC019D9199238F
:1010300031F0913670F08FE9890F863030F0CF01B2
:101040008C1B9D0BDF91CF91089590529753292BC4
:1010500005C080ED890F8A3050F4282B332389F0A6
:1010600021934150442359F330E020E008C08FEB36
:10107000890F863058F3903211F09A3301F7CD0181
:10108000D4CF2295207F31E0FACFDB0120E030E0A1
:101090004AE0FC018191811103C02D933C93089596
:1010A00090ED980F9A3050F4429FB001439F700D1D
:1010B00011248053990B9C01260F371FCF01E9CFD4
:1010C000FB01982F92959F70803A40F4905D908339
:1010D0008F708A3028F4805D81830895995CF7CF02
:1010E000895CFACF0E946F31F999FECF08950C9474
:1010F000673108950F931F93CF938C01CFEFC60FE5
:10110000C801F5DF88DFCC2331F00F5F1F4F8AE382
:10111000A7DEC150F5CFCF911F910F910895A2E0A6
:10112000B0E0E5E9F8E00C940130FC0181818D34F8
:1011300049F466E08AEF93E0DDDFE9DE2296E5E040
:101140000C941D30803521F460E18AED93E0F4CFFA
:101150001A82198242E0BE016F5F7F4FCF01019674
:101160005EDF098110E0823029F409811A8110279D
:1011700001271027C801BBDFF82E82E571DE40E3AE
:1011800064E0C80107DF8DE692E0B4DE8F2D43DF17
:1011900089E692E0AFDE40E262E08F2D90E0BBDEB8
:1011A000CCCFA6E0B0E0E7EDF8E00C94FC2F6C01AA
:1011B00043E0CE0101967C01BC01C60101962FDF00
:1011C0008C01BE2CAF2C8230D0F0E980F12C823023
:1011D00029F0E980FA80FE24EF24FE241127FE0185
:1011E000E00FF11F6081C7017DDF000F111F0F5F4E
:1011F0001F4F0C0D1D1DF8018081811104C0269622
:10120000EAE00C94183041E06B2D7A2DC80107DF1D
:10121000892BA9F39FEFE91AF90A6981C70162DFF7
:101220000E5F1F4FE8CF41E067E071E00196F7DE07
:101230008091070180FF06C0769A6091070184E3E0
:1012400090E050CF7698F9CFA1E0B0E0EAE2F9E083
:101250000C9404301982009731F041E0BE016F5FB9
:101260007F4F0196DCDE89818F3F09F4FFCF882311
:1012700021F061E083E390E035DF0E94E42E1092DC
:101280006E00F89488E198E00FB6F894A8958093E2
:1012900060000FBE90936000FFCFCF93DF93EC010F
:1012A00061E080E090E01EDF64E481E090E01ADF1E
:1012B000D1D960E080E690E015DF60E081E690E063
:1012C00011DF60E083E390E00DDF62E084E390E013
:1012D00009DF60E080E690E005DF60E081E690E015
:1012E00001DF8981883719F080E090E0ADDFDF9180
:1012F000CF91089580E090E0FADE813029F481E01A
:1013000090E0F5DE843419F080E090E0C6DF84E3FD
:1013100090E0EDDE809307010895FC01818188341F
:1013200021F482E692E0E6DDF2CD84E592E01E9BB8
:10133000FACF86E492E0F7CFFC011282108211828C
:101340000895FC019FB7F894828187FF02C09FBF78
:1013500008958F5F8283A08181E08A0F8083AE0F22
:10136000BF2FB11D13966C93803889F71082EFCF91
:10137000FC019FB7F8948281811102C09FBF08953C
:1013800081508283A18121E02A0F2183AE0FBF2FDC
:10139000B11D13968C91203889F71182EFCFCF932E
:1013A000DF93FB01DA019C91882369F0EB01C90FFF
:1013B000D11D41E050E0022E01C0440F0A94EAF72B
:1013C0008881842B8883222331F02150822F90E062
:1013D000DF91CF9108959F5F9C3008F49C93E90FB3
:1013E000F11D108227E0F2CF5B9A882379F080917B
:1013F0005B0120E1829FC0011124BEDC5B988091DB
:101400005A0120E1829FC0011124B6CC80915D0178
:1014100020E1829FC0011124AFDC5B9880915C01C8
:10142000F0CFA9E0B0E0E7E1FAE00C94F42F4C0132
:10143000362E2F83702EED82442E512C4E5F8C2D34
:101440008A0D409F800D1124082E000C990B2091CD
:101450005801309159012817390738F481E792E093
:1014600049DD2996E2E10C941030281B390B3093AA
:10147000590120935801769A6090DF02662039F076
:101480001092DF028AE391E0EAD3662463948091AC
:101490004C01811101C00DDA88D9E0E1CE9EC00176
:1014A00011249A838983E0E1AE9EC00111249C83BC
:1014B0008B83CA28CE82E32CF12C01E010E0FF815F
:1014C000CF2ED12C2E81222341F05B9A89819A81E3
:1014D00053DC5B988B819C814FDC1F82EF818E2FC8
:1014E000EE0F990B8E159F0554F1332011F081E01A
:1014F0007BDF212C822D022C000C990B9987888789
:101500008415950514F127E0B22E880D991D998751
:1015100088878B2D0B2C000C990BC816D9067CF1F3
:101520008D812FDC7A947110CDCF80915F0188235B
:1015300099F14DD961100E94011C769892CF80E0FC
:1015400053DF8F818F5F8F83C9CF37E0A32EB12CFC
:1015500088859985880D991D99878887C8010A2CE7
:1015600001C0880F0A94EAF7E885F98590818923FC
:101570003BDFF1E0AF1AB10888F72394BBCFC80175
:101580000B2C01C0880F0A94EAF7E885F985908151
:1015900089232ADFBA94BDCF86E3AED8CBCFADE0A6
:1015A000B0E0E5EDFAE00C94F52F7C01162F842FC6
:1015B000022F6701C60ED11C462FB70166D3F60174
:1015C00080831F5F1D861982C12CD12C27E0CE019C
:1015D0000D9666246394712C582E492E97E0A92EFF
:1015E000B12C47018C0C9D1CC116D8F0222309F4A4
:1015F00042C0215089E180935C0180935D0185E2C6
:1016000080935A0180935B01A12CC12C8AE0E82EC3
:101610004D856CE0CE01019604DF2D96E1E10C943E
:101620001130F4013080C3010A2C01C0880F0A94E4
:10163000EAF7452D542DBE016F5F7F4F8321AFDE4A
:10164000282FF1E0AF1AB10878F6032C3294302439
:10165000032C369436943024339431FA882780F959
:10166000452D542DBE016F5F7F4F99DE282FEFEF80
:10167000CE1ADE0AB3CF8D858F5F8D8727E0BACF74
:10168000ACE0B0E0E6E4FBE00C940230162F042F4F
:101690004BE0BE016F5F7F4F0196C1DC682F202FAA
:1016A000412FCE0101967BDF2C96E4E00C941E3096
:1016B00043E066E0E5CFAF92CF92EF920F93CF93E6
:1016C000DF93CDB7DEB760970FB6F894DEBF0FBEDD
:1016D000CDBF40E1BE016F5F7F4F0196A0DC698105
:1016E0004A810B818C8180935D018D8180935C01A7
:1016F0008E8180935B018F8180935A01E02EE2946A
:101700008FE0E8220F70242F2F7042954F70A12C8C
:10171000C12CCE01089685DE60960FB6F894DEBF28
:101720000FBECDBFDF91CF910F91EF90CF90AF90D3
:101730000895A9E1B0E0EFE9FBE00C94FA2F4BE04B
:10174000BE016F5F7F4F01966ADC182F8930C1F5AB
:1017500089E180935C0180935D0180935B0182E36A
:1017600080935A0169E0CE0101969AD2E1E0F0E05F
:10177000EC0FFD1FE10FF11D8083198E1D868E0178
:101780000F5F1F4F7E018BE0E80EF11C27E0CE01BA
:101790004996CC24C394D12C982E892EA12CB12CFF
:1017A0000E151F0589F4222389F12150A12CC12C8B
:1017B0008AE0E82E03E0498D6CE0CE010D9631DE23
:1017C0006996ECE00C941630C6010A2C01C0880F13
:1017D0000A94EAF7F8019081492D582DBE01635F04
:1017E0007F4F8923DCDD282FFFEFAF1ABF0A88E087
:1017F000A816B104A9F6492D582DBE01635F7F4F8D
:1018000081E0CDDD282F0F5F1F4FC8CF898D8F5FFF
:10181000898F27E0CBCFA9E1B0E0E1E1FCE00C94B7
:10182000F62F4BE08E010F5F1F4FB8010196F7DBDB
:10183000782E85E380935D0196E190935C0190930F
:101840005B0180935A01672DC80136D2F801E70D7C
:10185000F11D80837394198E1D86780127E06E0137
:1018600089E1C80ED11CAA24A394B12C8E2D801B13
:10187000871570F0A12CC12C8AE0E82E03E0498D79
:101880006AE0CE010D96CDDD6996E0E10C94123050
:10189000812C912CF7015080C501082C01C0880FC4
:1018A0000A94EAF7A601BE01635F7F4F852177DDC9
:1018B000282FFFEF8F1A9F0A4C2C6D2C84E088167E
:1018C000910441F7A601BE01635F7F4F81E067DDB0
:1018D000282FC501082C01C0880F0A94EAF7442D6F
:1018E000562DBE01635F7F4F852159DD282FEFEF15
:1018F0008E1A9E0AF8E08F16910459F7442D562D42
:10190000BE01635F7F4F81E04ADD282F8FEFE81A29
:10191000F80AACCFAF92CF92EF920F93CF93DF93B1
:1019200000D000D0CDB7DEB743E0BE016F5F7F4F80
:10193000019675DB8AE680935D0194E290935C01E9
:1019400091E290935B0180935A0180E88C83A12CF3
:10195000C12C8FE0E82E03E026E043E060E0CE01FA
:1019600001965FDD0F900F900F900F90DF91CF9158
:101970000F91EF90CF90AF900895AF92CF92EF92EA
:101980000F93CF93DF93CDB7DEB72C970FB6F894B4
:10199000DEBF0FBECDBF4BE0BE016F5F7F4F029633
:1019A0003EDB8530C1F48EE380935D018CE1809352
:1019B0005C0181E280935B018AE380935A0185E2B6
:1019C000A82E9AEFC92EE12C05E024E044E068E05F
:1019D000CE01019626DD2C960FB6F894DEBF0FBE21
:1019E000CDBFDF91CF910F91EF90CF90AF90089541
:1019F000A0E0B0E0EEEFFCE00C94FC2FFC011092B4
:101A00007B014181440F440F440F8381481B87E0D1
:101A1000C82EC40E10927C0120E030E047E057E071
:101A200070E080E097E0E92EF12C01E010E0DD2489
:101A3000D394D80E8C1580F02093900130937B01C5
:101A4000CD14A0F5653409F088C04F3F09F085C07A
:101A50002F5F2093900183C0DF01A70FB11D149663
:101A60008C9190E0052E02C0959587950A94E2F737
:101A70008170552369F051506B34D1F4433059F4DF
:101A8000332371F030E0811155C04150832F1EC0C7
:101A90007F5F57E0F1CF4F3FB1F781110FC02FC0EB
:101AA000811114C02093900110927B0180E05DC0F1
:101AB0004F3F51F5663469F0653479F32F5FA22FFB
:101AC000B0E0A458BE4F1C92832F47E0382F8D2DD5
:101AD000AECFA22FB0E0A458BE4FAC910A2EA29573
:101AE000A0250A2EA695A695A02590E0AF5FA69505
:101AF000A170CA2FA12CDA2D8C179D07F9F2209323
:101B0000900130937B01D2CF882309F4BECF663495
:101B100071F4A22FB0E0A458BE4FBC90C801042EAF
:101B200001C0880F0A94EAF78B298C93AECF6534F5
:101B300009F0ABCFA22FB0E0A458BE4FC701841B61
:101B4000910947FD9395580102C0AA0CBB1C8A95C8
:101B5000E2F7C5019C91892BE8CF311179CF81E063
:101B600090919001992309F4A1CFCDB7DEB7EAE0B7
:101B70000C94183010926F00E09193018CE1E89F73
:101B8000F0011124EC56FE4F108280915E018D7F92
:101B900080935E010895FC018181843108F0EACFD1
:101BA0009381662381F0DF01A80FB11D41E050E071
:101BB000092E01C0440F0A94EAF714962C91149749
:101BC000242B14962C93992319F091509383089504
:101BD00097E093838F5F8183E80FF11D148208954E
:101BE00070E030E0FB01E21BF30B3B967797A0F42B
:101BF00090E050E0FC01E41BF50B3B96779760F416
:101C0000680F791F240F351F621B730B655F7F4FB1
:101C100081E06731710508F080E00895539A5B9880
:101C20005298E9E6F0E080818061808382EC91E067
:101C30009093590180935801E4E9F1E0148E10AEBD
:101C40001092E80110924C01089580915F01882361
:101C500021F00E9459040C94E7030C945004FC01F9
:101C6000818181110BC080915F01D5D940E265E08F
:101C700080915801909159014ED949C941E06FE5D1
:101C800071E0CF010196CBD9E0CF9B01411101C09A
:101C900008954150F901E40FF11D9081890FF6CFAD
:101CA0009C0180E0611101C008956150F901E60FC7
:101CB000F11D90818927F6CFAC01F0917B01362F81
:101CC00085E090E0311109C0292F280F80E1289F7D
:101CD00090011124892F822B08957FEF730FDA0171
:101CE000A70FB11D2C91E22FE295EF709E278E0F6A
:101CF000FF2311F0361719F02F709227820F372F1C
:101D0000E1CFFC0122813381A081B181A20FB11DFD
:101D10008C9190E0032E02C0959587950A94E2F786
:101D200081709FEF930F9383311104C02F5F228343
:101D300097E093830895A0E0B0E0E1EAFEE00C9420
:101D4000FD2FD82EC92EE42E062F10E0E801F12C2D
:101D5000BB24B394209731F48F2DCDB7DEB7E9E0E3
:101D60000C9419308D2D9C2DCCDFAE0141505109C2
:101D7000882349F0EE2049F02B2D042E01C0220FBC
:101D80000A94EAF7F22AEA01E5CF98012C1B3D0BF1
:101D90008B2D01C0880F2A95EAF7282FF3CFA4E0F6
:101DA000B0E0E5EDFEE00C94FC2FFC011B8287E027
:101DB0008C83CF0104969A8389831092900181814C
:101DC00028E0829FC0011124438127E030E0241BDA
:101DD0003109820F931F853491050CF04CC080E0CF
:101DE00046C0A9DFA82EE12FF0E0E458FE4F808323
:101DF000082F002E02950025002E06950695002539
:101E0000CE0101967EDF90E00F5F01FBCC24C0F88D
:101E1000D12C8C159D0519F7CE01019672DF811129
:101E2000DECFBA241F5F109390011091900140E023
:101E300068E0CE0101961630A0F27DDF082F182F42
:101E4000012E12951025012E169516951025CE01FE
:101E5000019657DF90E01F5F11FBEE24E0F8F12CB4
:101E60008E159F0509F0BBCF81E0B012B8CF249644
:101E7000EAE00C941830B12CD8CFA4E0B0E0E3E451
:101E8000FFE00C94FE2FFC011B8287E08C83CF01C6
:101E900004969A8389838081853009F03FC08181CF
:101EA00028E0829FC0011124438127E030E0241BF9
:101EB0003109820F931F8039910581F580E00FE091
:101EC00010EF49E8F42E80939001C82ED12CEE2417
:101ED000E394E80E41E068E08F3029F5CE010196E9
:101EE0002ADF080F111D90E1909390018095809357
:101EF0008B0141E068E0CE0101961DDF90E0982F54
:101F00008827081B190B41E068E0CE01019613DF1A
:101F1000282F30E081E02017310709F080E0249677
:101F2000E8E00C941A30CE01019605DF080F111D70
:101F3000F601E458FE4FF826F08234E2F32EF80E54
:101F40008E2DC1CFA4E0B0E0E8EAFFE00C940330AE
:101F5000FC011B8287E08C83CF0104969A838983DE
:101F600081818430D1F483818130B9F410E0109301
:101F7000900141E01430B1F467E0CE010196DBDE60
:101F8000880F8093800185E08093900190917C017F
:101F900092959F7081E09A3009F080E02496E3E00A
:101FA0000C941F3011110CC067E0CE010196C3DE06
:101FB0008068E12FF0E0E458FE4F80831F5FD7CFA9
:101FC00068E0CE010196B7DEF4CFFC018181833059
:101FD000D9F483818730C1F480818830A9F480E00E
:101FE0009181891720F08093900181E00895282F36
:101FF00030E0DF01A20FB31F14969C9124583E4F8E
:10200000D9019C938F5FECCF80E00895FC01908113
:1020100080915E01993611F0933771F4982F937087
:10202000913021F4866080935E01089580FFFDCF9A
:1020300080915E018B7FF7CF80FDF7CF8460F3CF77
:10204000A1E0B0E0E6E2F0E10C94FF2F198280916C
:1020500060018823A1F180915F0187FF14C084E3B0
:102060000E946B038058803408F442C0803C08F022
:1020700041C08055990B23E0959587952A95E1F706
:102080008F590E94300780915F0183FF16C082E75D
:102090000E94300780915F0184FF04C0809161013C
:1020A0000E94300786E60E94300780915F0184FF1E
:1020B00004C0809160010E943007109260018091FD
:1020C0009101882309F4B3C1769A009192012CE121
:1020D000029F800111240C561E4F898181111FC05F
:1020E000C80173DF882309F4B7C183E7898317C068
:1020F00080E0C6CF8FE0C4CF83E5F8CF282F30E053
:102100002F5F3F4F4E2D50E02417350709F070C068
:1021100093E09F1508F0BFC196E499838083E9801E
:10212000D0905F01EE2009F4FDC0D0FEFBC080918D
:102130005E018A7F80935E018D2D8270811125C0A2
:10214000F090900190917A01E6E6F1E0ACE7B1E021
:102150009F1509F493C04F2D50E06CE771E086E6BF
:1021600091E00E945331F0927A0180915001909158
:102170005101A0915201B09153018093620190935B
:102180006301A0936401B0936501F4E5EF1297C079
:10219000D6FC1BC0809190018530B8F080917E0103
:1021A0008B3471F0893661F09DEA980F923040F0DF
:1021B0008D57823028F080917F018077803729F415
:1021C00080915E01816080935E01B801CE0101962D
:1021D0001DDF80919002882309F475C08091E5038A
:1021E000811171C080915E018B7F80935E016BC015
:1021F0004F2D6CE771E08CE048DDE8124CC1E3E064
:1022000084E5EF1508F472CF46C1809190018150AA
:1022100080939001893009F044C169E08CE791E036
:102220003FDD9091850189133CC185E45FCF88E44F
:102230005DCF84E75BCFE0919001FF24FA94FE0E1E
:10224000F09290016F2D8CE791E036DD90917B014B
:102250002F2D291B330BF901E458FE4F9081891370
:1022600038C18BE443CF21919D918F5F291731F0C5
:1022700080915E018D7F80935E016DCFF812F3CF68
:10228000F0927A018091500190915101A0915201F8
:10229000B0915301409162015091630160916401DA
:1022A00070916501841B950BA60BB70B8697A10552
:1022B000B10508F050CF80915E018160DCCFB8019C
:1022C000CE010196A3DE80915E0182FF2BC08E2D90
:1022D0000E94300780917B01882329F08091900132
:1022E000815080939001F12CE0919001FE1608F44A
:1022F000A2C080917B01882351F0F0E0E458FE4FAA
:1023000080818F7040E361E090E00E94CA07809175
:102310005F0185FF05C084E30E946B030E940B08E8
:102320000E94870780915F0182FF69C080E70E9459
:102330003007F801808140E262E090E00E948B0764
:10234000F801808D40E265E0F0E18F9FC00111242B
:102350000E948B07F801818D40E265E0F0E18F9FDC
:10236000C00111240E948B07F801828D40E265E0D4
:10237000F0E18F9FC00111240E948B07F801838D2B
:1023800040E265E0F0E18F9FC00111240E948B07BD
:10239000F801828140E263E090E00E948B07F8013F
:1023A000818140E263E090E00E948B07F801838125
:1023B00040E262E027E030E0F901E81BF109CF01DB
:1023C0000E948B0780E20E94300780915F0185FFA9
:1023D00008C084E30E946B030E940B0880E20E9405
:1023E0003007F8018381873019F081818F5F818305
:1023F000F12CF8018181F81638F10E948707F80165
:10240000108280919101815080939101909192016D
:1024100081E0890F933009F480E0809392017698EF
:102420008981843521F48CE791E00E94522A21961B
:10243000E7E00C941B30EF2DF0E0E458FE4F808174
:102440000E940B08F39450CFF801EF0DF11D848129
:102450000E940B08F394CDCFC8010FDD81114CCE43
:1024600066E4C801C5DA8823B9F0F0909001FA94C7
:10247000F09290014F2D6CE771E086E006DCEF2DC5
:10248000F0E0E458FE4FE080E81238CE33E086E416
:102490003F1508F42BCE198265E4C801A9DA811131
:1024A000B4CEC8017CDC8111C2CEC8014BDD8111E4
:1024B000C0CEF801638DE0906101262F4E2D828DF4
:1024C0008FDB682FC80167DB6BE4C80191DA8111EB
:1024D000B2CEF801838191E0980F9383873029F47D
:1024E000F8018181138281508183F80181818430D8
:1024F00009F015CEF8018381843009F010CE2EE169
:102500004CE3618D808D6CDB882309F408CE2EE1CD
:102510004E2DF801638D828D63DB682FC8013BDB94
:1025200085E0F8013496ACE7B1E001900D928A9510
:10253000E1F785E08093900182E5D8CD1F920F925C
:102540000FB60F9211242F933F934F935F936F9386
:102550007F938F939F93AF93BF93EF93FF931092CB
:102560006F0080915F0183FF03C08EE20E943007FD
:10257000909193018CE1989FF0011124EC56FE4F4D
:102580008081833018F08181823090F4F3DAFF91FA
:10259000EF91BF91AF919F918F917F916F915F91DB
:1025A0004F913F912F910F900FBE0F901F90189554
:1025B00080919101833049F480915F0182FFE6CFE1
:1025C00088E792E00E947A07E1CF8F5F80939101C4
:1025D00081E0890F933019F080939301D8CF109246
:1025E0009301D5CF982F8BED890F873138F486EF83
:1025F000860F8D3118F481E0691708F080E00895A6
:102600001F920F920FB60F921124EF92FF920F9329
:102610001F932F933F934F935F936F937F938F936A
:102620009F93AF93BF93CF93DF93EF93FF938091EB
:1026300092028230D1F483E080939202FF91EF9175
:10264000DF91CF91BF91AF919F918F917F916F91CA
:102650005F914F913F912F911F910F91FF90EF90BC
:102660000F900FBE0F901F9018950091840010914D
:10267000850044E0169507954A95E1F7C0919301CE
:102680002CE1C29FE0011124CC56DE4F988194309A
:1026900079F40E3298F20F3408F0C2C04A9941C062
:1026A00061E0CE0178DA109285001092840004C0B7
:1026B000953029F04A9908C000936101BFCF0731D6
:1026C00008F4BCCF0732E8CF80916101081B00936A
:1026D00060011092850010928400983061F49A8114
:1026E000911109C091E09A83888F8A8F098F0B3BE3
:1026F00028F5000F0B8F82E086BB0881011120C0F6
:1027000090916101953608F099CF809160018536EE
:1027100008F094CF988F898F81E08A8382E0888344
:102720008DCF80916101081B00936001109285009C
:102730001092840060E0CE012EDA80CF0695DACFC9
:1027400010916001023009F071C0F0906101088DB4
:10275000E98C212F4F2D6E2D802F42DA4A8188235C
:10276000F1F0602F70E09B01220F331F260F371FFF
:102770002F0D311D3595279535952795288FF12CEF
:10278000C701880F991F8E0D9F1D810F911D959573
:10279000879595958795898F4F5F4A834FCF4430B2
:1027A00008F442C080EA9FE09093890080938800FB
:1027B0004C3050F0202F2E0D3327331F2536310596
:1027C0002CF084E0888311C04A30C8F0202F2E0DF1
:1027D0003327331F2532310594F485E0888388EE52
:1027E00093E09093890080938800FA8E1B8F198262
:1027F00087E08B831C8282E080936F001FCF8091E3
:102800009102882379F0612F8F2DECDE882351F01F
:10281000602F8E2DE7DE882329F081E080939202DD
:10282000A9D90CCF83E0CECF18826ACF083009F047
:102830004BC081E9810F8D3110F560E0CE01ABD93D
:10284000288D30E0C901880F991F820F931F2091B6
:102850006101820F911D9595879595958795888F34
:10286000298D30E0C901880F991F820F931F810FB6
:10287000911D9595879595958795898FDFCE173E04
:1028800008F4DCCE61E0CE0186D92A8D30E0C901A2
:10289000880F991F820F931F20916101820F911D54
:1028A00095958795959587958A8F2B8D30E0C901F1
:1028B000880F991F820F931F810F911D9595879502
:1028C000959587958B8FBACEF0906101212F4F2D72
:1028D0006B8D8A8D85D9882369F061E0CE015BD943
:1028E0002A8D30E0C901880F991F820F931F8F0D29
:1028F000911DD6CF212F4F2D698D888D71D98823B9
:1029000069F060E0CE0147D9288D30E0C901880F19
:10291000991F820F931F8F0D911D9DCF073009F4D2
:102920008DCE7ECFE09193018CE1E89FF0011124E0
:10293000EC56FE4F8081811107C081E09091E30346
:102940009F3F19F480E0089581E0089580E690E0CB
:102950000E9477088093910281E690E00E947708B8
:1029600080939002882321F081E280935F016DD9EA
:102970001092040208955B9A0C94BC065B980C9428
:10298000BC06A7E0B0E0E7ECF4E10C94FE2F309138
:102990000D0290E0E92FF0E0EC5FFD4F2081211166
:1029A0000AC0992361F08AE092E00E949C09279670
:1029B000E8E00C941A30321711F09F5FEBCF95E7E7
:1029C000998311E0882389F0BE016E5F7F4F80916B
:1029D00090020E946008BE016C5F7F4F809191025F
:1029E0000E94600885E58E8316E00E9459040E94CB
:1029F000D50306E080E891E0BEDF80E093E0BEDF33
:102A000001500111F7CF80E093E0B5DF80E891E05D
:102A1000B5DF80E891E0AFDF5B9887E390E00E944C
:102A2000800383E00E94C10628988FE70E94F70286
:102A300080910C02810F0E94F702CE0101966C0179
:102A40007C01F70181917F010E94F7028E2D8C1984
:102A50008117B8F380910C02811113C0289A0E944B
:102A6000D5038AE092E00E949C0915E18AE30E9466
:102A70006B038F77882319F01150111109C0E5D825
:102A800096CF8AE092E00E94B8090E94F702E2CF56
:102A900081E00E94C106EACFCF93DF93EC018981E8
:102AA00081110DC0809191020E940B0880919002CB
:102AB0000E940B080E948707DF91CF910895863608
:102AC00081F42296A4E0B2E0E0E08991882321F02D
:102AD0008D93EF5FE530C9F7F0E0EC5FFD4F1082BA
:102AE000EBCF8936D9F441E061E972E0CE0102967C
:102AF0000E940F086091910280E690E00E947208A7
:102B000041E060E972E0CE0104960E940F086091F6
:102B1000900281E690E00E947208CECF8AE092E0B7
:102B20000E949C0921966991611103C080E029DF10
:102B3000C3CF8AE092E00E94A109F5CFA1E0B0E006
:102B4000E4EAF5E10C94FE2F809192028823A1F033
:102B5000C0905001D0905101E0905201F09053018B
:102B6000833009F064C08FE30E946B03182F863016
:102B700038F46BD8109292022196E8E00C941A3047
:102B800082EA94E00E949C0928988FEF0E94F70245
:102B900080E00E94F702082F115080E00E94F702A7
:102BA000682F82EA94E00E94A10911501111F5CF1B
:102BB000289A4BD8109292020537F1F641E0BE01F7
:102BC0006F5F7F4F85EA94E00E940F08019751F5EF
:102BD000998180919102981325C08091A4049091CD
:102BE000A9049535C1F084508093A40484E08093B7
:102BF000A3046AE082EA94E00E94A109E091AA0598
:102C0000F091AB0588E00995B7CF82EA94E00E9485
:102C1000B8090E9430078091A4048111F6CF0E9468
:102C20008707AACF82EA94E00E949C09A5CF823050
:102C300041F480918F029C2D981B983008F49CCF12
:102C400098CF813009F098CF87E390E00E9480030D
:102C50000E94E70382E080939202C0928F028CCFA1
:102C600061DE882319F083E080938D0280918D02CC
:102C7000815080938D02882321F083E080938E021F
:102C8000089581E07ECE0F931F93CF93DF93EA9850
:102C9000209A289A8EE190E00E94BC0628988EE146
:102CA00090E00E94BC06289A8DE290E00E94BC064B
:102CB00080E30E947C0384E690E00E94BC06CFE99A
:102CC000D2E0FE0131966491FE0184910E9472036C
:102CD0002296F2E0C13DDF07A1F78091940288239C
:102CE00079F0C9E8D2E00FE912E0FE013196649173
:102CF000FE0184910E94720322960C171D07A9F70A
:102D000083E30E947C0384E00E94C10684E30E9466
:102D10007C0385E30E946B038D30C1F7DF91CF9177
:102D20001F910F910895A2E3B0E0E9E9F6E10C9458
:102D30000130809193028823A9F04A9B5EC08FE303
:102D40000E946B038F778983823380F08AE30E942D
:102D50007C0386E30E947C038DE30E947C0384E372
:102D60000E947C03E296E5E00C941D3028988FEFDA
:102D70000E94F70210E08981181708F454C080E01F
:102D80000E94F702F82E80E00E94F702289A84E35E
:102D90000E947C0385E30E946B038D30C1F79A810A
:102DA00086E789278A830981FE01339682E0219193
:102DB000801708F444C0802F023008F482E0E1E07C
:102DC000F0E0EC0FFD1FE80FF11D8B81822780835F
:102DD00010915F0110711123D1F181E60E9430073B
:102DE00010E0E1E0F0E0EC0FFD1FE10FF11D80814C
:102DF0000E9430071F5F0117A0F785E30E946B0355
:102E0000813029F0813161F48AE30E947C0386E3FA
:102E10000E947C038DE30E947C0384E30E947C0378
:102E20000E94A2049FCF80E00E94F702E2E0F0E05F
:102E3000EC0FFD1FE10FF11D80831F5F9CCFDF01B1
:102E40001197945292279C938F5F922FB0CF81E479
:102E50000E943007E1E0F0E0EC0FFD1FE10FF11DF3
:102E600080810E940B081F5F0117A0F780915F010E
:102E700085FF03C08F2D0E940B080E948707BDCFDE
:102E8000AAE3B0E0E6E4F7E10C94FE2F41E39E01F3
:102E90002F5F3F4F7901B90101960E940F08182F4B
:102EA0008150990B9C01898190E02817390709F01E
:102EB00067C080919302811104C0E5DE83E00E9427
:102EC000C1060B818A8196E789278A834981DE01C1
:102ED000129692E09D0111968C911197941708F427
:102EE00053C0E42F423008F4E2E0EE0DFF2DF11D57
:102EF00080278083CE01C7960E94C30585E30E9488
:102F00007C0385E30E946B03833109F453C0CE0137
:102F1000C3960E94C3054BA95CA96DA97EA98FA980
:102F200098ADA9ADBAAD84179507A607B707A0F568
:102F3000481B590B6A0B7B0B4D3B51056105710515
:102F4000C8F18FE792E00E947A0785E30E946B0345
:102F5000863149F48BE30E947C0386E30E947C0364
:102F60008DE30E947C0380919302882309F44AC078
:102F700084E30E947C0385E30E946B038D30C1F7DC
:102F8000EA96E8E00C941A301196F9012081245257
:102F900082278C939F5F9ECF481759076A077B074C
:102FA00048F484549F4FAF4FBF4F481759076A07E3
:102FB0007B07C6CF85E30E946B03833109F09ECF68
:102FC0008AE004FF07C088E70E94C10688E70E94E4
:102FD000C10688E70E94C10628988FE70E94F70281
:102FE00067018C2D8E19811738F0289A85E30E948D
:102FF0006B038331D9F3A9CFF60181916F010E9450
:10300000F702EFCF0E94250EBBCFFC0181818237F2
:1030100051F0823551F481E08093940234DE81E0F6
:1030200080939302089580E0F7CF833719F4CF019E
:10303000019626CF10929302089590E09C01359559
:103040002795AC014227532745755527453551052E
:1030500059F433E0959587953A95E1F78C70237094
:10306000822B95E0892708958FEF0895109295029D
:1030700082E08093960280919A02882369F0809181
:103080009602833021F480919502823020F4809161
:103090009602843041F4769A80E98093C9000E94B8
:1030A000E703EA9808957698F7CF1092950284E0A6
:1030B0008093960280919A02882369F0809196020B
:1030C000833021F480919502823020F48091960221
:1030D000843041F4769A0E94D503EA9888E280937E
:1030E000C90008957698F7CF1092950281E08093F9
:1030F000960280919A02882369F08091960283302B
:1031000021F480919502823020F4809196028430DF
:1031100041F4769A1092C90086E30E947C03EA98F3
:1031200008957698F7CF0F931F93CF9380919602CF
:103130008330F9F4809195028430D9F480919A0219
:103140008823D9F080919B028823B9F08DE391E028
:103150000E946F0780919B020E9430078AE30E94C1
:103160003007C0E080919E02C81760F00E94870778
:103170007DDFCF911F910F91089580E491E00E942F
:103180006F07EFCF0C2F10E001561D4FF801908113
:10319000892F82958F70903A68F4805D0E94300785
:1031A000F80180818F708A3038F4805D0E9430078A
:1031B000CF5FD8CF895CF2CF895CF8CF539A109259
:1031C000CD008CE08093CC001092C8001092C90012
:1031D00086E08093CA000895CF93DF93209A289ABF
:1031E0008EE190E00E94BC0628988EE190E00E945B
:1031F000BC06289A8DE290E00E94BC0680E30E9403
:103200007C0384E690E00E94BC06C1EDD2E0FE01A2
:1032100031966491FE0184910E9472032296F3E03C
:10322000C330DF07A1F783E30E947C0384E00E94A0
:10323000C106C4DF1092950281E0809396028091CE
:103240009A02882369F080919602833021F480915C
:103250009502823020F480919602843021F4769A8F
:10326000DF91CF9108957698FBCFCF93DF93EC0158
:1032700089818C3641F140F4882309F43FC08436BB
:10328000C1F189E491E02EC08337D9F7809196028D
:10329000811101C0A1DF80919602813021F08091DF
:1032A0009602823041F580919602823009F41CDF4B
:1032B00040E46FE972E0CE0102960E940F0880930D
:1032C0009D02F3DE0DC080E080939A028091960209
:1032D000811101C081DF80919602813009F4C6DE40
:1032E00083E491E00E946F070E948707DF91CF91EE
:1032F000089581E0E9CF86E491E0F4CF10929A023C
:10330000F3DE109295021092960280919A02882321
:1033100039F380919602833021F4809195028230B6
:1033200020F480919602843011F4769AD9CF769861
:10333000D7CF1F920F920FB60F9211242F933F9366
:103340004F935F936F937F938F939F93AF93BF93AD
:10335000EF93FF9380919602843011F087DE3BC09B
:1033600080919502863009F471C008F045C0882329
:1033700009F44CC0853091F7E0919E0281E08E0FF8
:1033800080939E02F0E0E45FFE4F80818093CE0048
:1033900080919E028A30F8F086E0809395028091B9
:1033A00096028093960280919A02882371F0809110
:1033B0009602833021F480919502823028F4809126
:1033C0009602843009F040C0769A10929C021092C6
:1033D000990210929E02FF91EF91BF91AF919F9140
:1033E0008F917F916F915F914F913F912F910F90AE
:1033F0000FBE0F901F901895873009F0AFCF8091C6
:103400009E02843008F48DC031DEE3CF10929E021C
:1034100085E0809395028091960280939602809138
:103420009A02882309F4A8CF80919602833021F470
:1034300080919502823020F480919602843011F4BC
:10344000769A9ACF769898CF7698BFCF8091990246
:10345000811128C090919E0280919D02981708F0DA
:103460005AC0E0919E02F0E0E156FD4F90818091BC
:103470009C02890F80939C02E0919E02F0E0E1564D
:10348000FD4FE081AE2FA295AF70B0E0AA5EBE4FB7
:103490008C9180939702EF70F0E0EA5EFE4F80819E
:1034A00080939802E091990281E08E0F80939902B7
:1034B000F0E0E956FD4F80818093CE008091990223
:1034C000823009F088CF80919E028F5F80939E02A8
:1034D0001092990290919E0280919D02891708F0A6
:1034E0007ACF87E08093950280919602809396022E
:1034F00080919A02882309F46CCF809196028330E0
:1035000021F480919502823020F4809196028430DB
:1035100031F4769A5ECFE0919C02E195B3CF769834
:1035200058CFE0919E0281E08E0F80939E02F0E0E2
:10353000E85FFE4F80818093CE004DCF1F920F92A7
:103540000FB60F9211242F933F934F935F936F9376
:103550007F938F939F93AF93BF93CF93EF93FF93FB
:103560009091C8008091CE0020919602223051F0B7
:1035700020919602233009F0A8C0209195022430B2
:1035800009F4A3C0292F28712223B9F18091960252
:10359000833009F09AC02091950280919A022230DE
:1035A000A8F094FF0EC0882309F4E6C086E4809357
:1035B0009B0284E08093950280919602809396020C
:1035C0000DC0882309F4D8C08FE4F1CF1092950282
:1035D00092E090939602882309F477C08091960236
:1035E000833021F480919502823028F480919602F4
:1035F000843009F0EDC0769A68C0909195029130C0
:1036000089F1923009F48EC091115FC096E09093D9
:103610009E02E0919E02F0E0E45FFE4F90819813DD
:1036200054C081E08093950283E08093960280915C
:103630009A02882369F080919602833021F4809168
:103640009502823020F480919602843049F4769A73
:1036500010929B0280919E028F5F80939E0235C0E4
:103660007698F6CF90919E029A3068F4E0919E028F
:10367000F0E0E45FFE4F9081981339C080919E0284
:103680008F5F80939E0280919E028A30F1F482E0E7
:1036900080939502809196028093960280919A027F
:1036A000882369F080919602833021F480919502FD
:1036B000823020F480919602843091F5769A1092AF
:1036C0009E021092990210929C02FF91EF91CF916D
:1036D000BF91AF919F918F917F916F915F914F912A
:1036E0003F912F910F900FBE0F901F901895109241
:1036F000950282E08093960280919A02882319F2C3
:1037000080919602833021F480919502823020F4DA
:1037100080919602843011F4769AB5CF7698B3CF23
:103720007698CDCF20919E02203458F080919A0255
:10373000882311F08CE43BCF10929502909396026F
:10374000C4CFE091990291E09E0F90939902F0E02E
:10375000E956FD4F808390910801981321C0809114
:103760009E0290919A02823020F080919C028823E0
:1037700049F083E491111BCF1092950282E080936F
:103780009602A3CF80919E02815080939E0284E096
:1037900080939502809196028093960299231CCF84
:1037A00080919902823009F090CF10929902809115
:1037B000970243DCC82F80919802CF3F19F03DDC7F
:1037C0008F3F41F480919A028823B1F28DE4EFCECD
:1037D00076987BCFE0919E02F0E090E1C99F900146
:1037E0001124282BE156FD4F2083E0919E02F0E04A
:1037F000E156FD4F908180919C02890F80939C023D
:1038000029CF0F931F93CF93DF93EA98209A289A9A
:103810008EE190E00E94BC0628988EE190E00E9424
:10382000BC06289A8DE290E00E94BC0680E30E94CC
:103830007C0384E690E00E94BC06CCE1D3E0FE016C
:10384000849106E513E0813408F183E30E947C0350
:1038500084E00E94C106CFEF84E30E947C0380775E
:10386000803139F08AE090E00E94BC06C150C1115D
:10387000F3CF81E08093DF02DF91CF911F910F9111
:1038800008952296FE0184918134F8F6FE01319666
:103890006491FE0184910E9472030C171D0789F741
:1038A000D4CF4F925F926F927F928F929F92AF92FE
:1038B000BF92EF92FF920F931F93CF93DF93EC0190
:1038C0008B01F880F39420E030E0672B11F024E6C0
:1038D00030E048E0F49EC00111246AE070E00E94EC
:1038E000DB2F620F731F80915801909159012C01B9
:1038F000612C712C4B01072E000CAA08BB08481440
:1039000059046A047B0498F48CE093E00E947A07DF
:10391000DF91CF911F910F91FF90EF90BF90AF90EB
:103920009F908F907F906F905F904F900895861B2F
:10393000970B90935901809358018091DF02811178
:1039400001C05FDF85E30E946B038D30C1F08AE523
:103950000E94300785E40E94300782E50E9430070C
:1039600082E50E94300781E30E94300785E30E94D0
:103970006B030E940B080E94870743DFC9CF809129
:10398000E0029091E102A091E202B091E302892B62
:103990008A2B8B2BC1F40E94D50385E30E946B0315
:1039A0008331B9F18AE50E94300785E40E9430072F
:1039B00082E50E94300782E50E94300782E3D4CF7F
:1039C00081E00E94C10640915001509151016091E7
:1039D0005201709153018091E0029091E102A09117
:1039E000E202B091E302481759076A077B0741F3E7
:1039F00040915001509151016091520170915301D9
:103A00000196A11DB11D84179507A607B707C1F23E
:103A1000C2CF012B51F00AE010E084E60E94C106FB
:103A20000150110901151105C1F728988FE70E946F
:103A3000F702EC2E0C2F1D2F802F8E198F1508F4F6
:103A400045C0289AC8EC85E30E946B038D3059F07D
:103A500085E30E946B03833131F481E00E94C1064B
:103A6000C150C111F0CF85E30E946B038D30B9F0D6
:103A70008AE50E94300785E40E94300782E50E94B3
:103A8000300782E50E94300783E30E94300785E318
:103A90000E946B030E940B080E948707B2DE809190
:103AA000DF02811102C00E94250E80915001909189
:103AB0005101A0915201B09153018093E002909383
:103AC000E102A093E202B093E30222CFF8018191D8
:103AD0008F010E94F702B0CFACE0B0E0E2E7FDE179
:103AE0000C940030FC018BE0898381818A831B82E6
:103AF00082E08C8387818D8380858E8381858F830F
:103B0000848188878581898786818A871B861C8630
:103B100084E10E94C10660E070E0CE010196C1DE42
:103B20008AE50E9430078E010F5F1F4F7E018DE0F6
:103B3000E80EF11CF80181918F010E940B08E0163C
:103B4000F106C1F780915F0185FF03C080E00E940C
:103B50000B080E9487072C96E6E00C941C30CF934C
:103B6000DF93EC013091E7022091E8029091E902A5
:103B7000832F822B892B882389F08B81803319F046
:103B80008F7E803459F48F81381308C088852813BC
:103B900005C08985981302C0CE019EDF3091E402F2
:103BA0002091E5029091E602832F822B892B8823B6
:103BB00089F088818B3071F48B81803459F48F8146
:103BC000381308C08885281305C08985981302C05A
:103BD000CE0182DFDF91CF910895AEE1B0E0E3EF57
:103BE000FDE10C9401308091DF02882399F14A9B1A
:103BF0005BC08FE30E946B038F778E3108F08DE1FD
:103C0000898328988FEF0E94F70210E089811817A6
:103C100028F180E00E94F702082F80E00E94F7025E
:103C2000289ACE0101969BDF10915F01107111233C
:103C300009F18AE70E943007098110E0E1E0F0E035
:103C4000EC0FFD1FE10FF11D80810E9430071F5F07
:103C50000117A0F76E96E5E00C941D3080E00E94FD
:103C6000F702E2E0F0E0EC0FFD1FE10FF11D8083B1
:103C70001F5FCCCF8AE50E943007F980E1E0F0E0D9
:103C8000EC0FFD1FE10FF11D80810E940B081F5FEB
:103C9000F116A0F780915F0185FF03C0802F0E947D
:103CA0000B080E948707D6CF85E30E946B03813102
:103CB00089F68AE30E947C0386E30E947C0384E306
:103CC0000E947C03C7CFAEE1B0E0E9E6FEE10C94D0
:103CD00000308C01FC018181823729F492DD6E96DF
:103CE000E6E00C941C30833711F0863611F54DE177
:103CF0009E012F5F3F4F7901B901C80102960E94D2
:103D00000F08E82FE150FF0B298130E0C701E217CF
:103D1000F30729F083E093E00E947A07E0CF61E0A7
:103D200070E0F8012181233711F060E070E0B9DD27
:103D3000D6CF43E067EE72E0813629F0873741F451
:103D400043E064EE72E0C80102960E940F08C7CFFC
:103D50001092DF02C4CF0E94E703EA9808950F9300
:103D60001F93CF93DF93209A289A8EE190E00E94D0
:103D7000BC0628988EE190E00E94BC06289A8DE24D
:103D800090E00E94BC0680E30E947C0384E690E001
:103D90000E94BC0680919D038933D9F4CCEBD3E01B
:103DA0000EEE13E0FE0131966491FE0184910E94B3
:103DB000720322960C171D07A9F783E30E947C0368
:103DC00084E00E94C106C7DFDF91CF911F910F9160
:103DD0000895843381F4CAE8D3E00CEB13E0FE01CC
:103DE00031966491FE0184910E94720322960C1711
:103DF0001D07A9F7E2CF813301F7C8E5D3E0FE0143
:103E000031966491FE0184910E9472032296F3E040
:103E1000CA38DF07A1F7D1CFFC01908180919803C8
:103E2000981317C0918180919903981312C09281C1
:103E300080919A0398130DC0938180919B039813EE
:103E400008C0908580919C03981729F081E09F3FDE
:103E500019F080E0089581E008959C018FEF6111D1
:103E600001C008956150F901E60FF11D9081892785
:103E7000F6CFFC01680F792F711D8FE09DE1E617E9
:103E8000F70709F408952191492F552742279A01F0
:103E9000A4E036952795AA95E1F724273527982F92
:103EA000882782279327A901542F44275295507FB2
:103EB00084279527B5E0220F331FBA95E1F78227B3
:103EC0009327DDCFA0E0B0E0E8E6FFE10C94FE2F01
:103ED0007C01062F769A80919D03893339F464E141
:103EE00082E10E947203602F660F6D5E86E00E9481
:103EF00072030E94D50328988FE70E94F7028091F1
:103F00009D03893361F0E7010E0D1F2D111D0C1764
:103F10001D0701F1899180950E94F702F8CFCFE04B
:103F200086E60E94F702C150C111FACF8AEA0E94C8
:103F3000F70285E50E94F70267010E0D1F2D111D86
:103F4000C016D10609F04FC080E00E94F70280E061
:103F50000E94F702289A85E30E946B038331D9F30C
:103F60006FEF86E00E94720380919D03893321F4F4
:103F70006EE182E10E947203EEDE7698F7018581A0
:103F800086FF2CC08091500190915101A091520167
:103F9000B09153010696A11DB11D8093EA02909342
:103FA000EB02A093EC02B093ED028091EF028F5FE1
:103FB0008093EF02823060F08AE70E94300782E748
:103FC0000E9430078091EF020E940B080E94870731
:103FD0008091EF02833010F01092EF02CDB7DEB780
:103FE000E8E00C941A30F601C1916F0180E4C7FD3E
:103FF00080E890E1C6FD90E2890F94E0C5FD98E06D
:10400000890F91E0C4FD92E0890F0E94F70230E42D
:10401000C3FD30E820E1C2FD20E294E0C1FD98E05C
:104020008C2F81708F5F830F820F890F0E94F702A0
:1040300087CFA8EAB0E0EFE1F0E20C94FA2F80918C
:104040009E038823F1F08091EF028823F9F04091DC
:104050005001509151016091520170915301809132
:10406000EA029091EB02A091EC02B091ED0284176C
:104070009507A607B70750F46091EE0280EF92E033
:1040800021DFC855DF4FECE00C9416304A9BF9CF86
:10409000769A28988FEF0E94F7028E010F5F1F4FCC
:1040A0006E0129E0C20ED11C780180E00E94F70267
:1040B000F70181937F0190919D03993319F0319716
:1040C00080958083EC14FD0481F7289AE88487EFBB
:1040D0008E0D803A10F043DED4CF6E2D86E00E9424
:1040E000720380919D034AE5A42EB12C813349F0DF
:1040F0005CEDA52EB12C843321F038E9A32E33E0FA
:10410000B32E90EA992E28E0822ECE2CD12CC50118
:104110000E94BC068BE30E946B03F82E882309F4EF
:1041200098C0282D280F3327331FC216D3069CF2C0
:1041300028988FEF0E94F702F80C80E00E94F702A7
:1041400090919D03993309F0809591E0980DF801C5
:10415000E80DF11D8083F91279C0289AFE1408F445
:1041600077C0FE01EC0DFD1DB08080919D03813371
:1041700009F073C0EFEFFFEFEC0FFD1FEC0DFD1D1D
:10418000C080D12CDC2CCC24CB0CD11C6EEF6E0D5E
:10419000C8016FDEFF24F3948C159D0509F0F12C06
:1041A00080919E03823729F4C80136DE882309F402
:1041B00064C0FF2009F461C08AE70E9430076801EB
:1041C000F60181916F010E940B088C2D801B8E15CA
:1041D000B8F30E94870780919E03823709F04DC093
:1041E0008E81982F9370933029F49091EF02911162
:1041F0001092EF0286FF41C087FD3FC08AE00E9417
:10420000C106FD80F98680919C038D8383E08E83B7
:1042100080919D03813349F58BE0888769E0C8016F
:1042200028DE9827892798279B878A876BE0C80113
:1042300049DE8AE70E94300781E60E9430078F2D11
:104240000E940B080E94870776981BCF892E75CF96
:104250008F2C9A9491105BCF84CF6FEF6E0DC801B5
:10426000FCDDFF24F3948B1599CF8AE0888769E001
:10427000C801F3DD8A876AE0DACF6FEF86E00E943B
:10428000720369DDE1CFFC018181823711F08D3647
:1042900049F49281911101C094E390939D0380931E
:1042A0009E035DCD833779F41092EF0248EA60EF08
:1042B00072E0CF0102960E940F08682F8093EE02F1
:1042C00080EF92E0FFCD893671F58281882339F045
:1042D00045E068E973E0CF0102960C940F088091E5
:1042E0009E030E94300780919D030E94300780E268
:1042F0000E943007809198030E940B0880919903D7
:104300000E940B0880919A030E940B0880919B03E6
:104310000E940B0880E20E94300780919C030E945B
:104320000B080C94870710929E0308950F931F9318
:10433000CF93DF93EA98209A289A8EE190E00E942A
:10434000BC0628988EE190E00E94BC06289A8DE277
:1043500090E00E94BC0680E30E947C0384E690E02B
:104360000E94BC06289880E40E94F7020BEF13E03D
:10437000CEEED3E0FE0184910E94F70221960C1745
:104380001D07C1F7809126010E94F7028091270145
:104390000E94F702809128010E94F702CEEFD3E03D
:1043A00007E114E0FE0184910E94F70221960C17A8
:1043B0001D07C1F7289A28988EE70E94F702CBE2E2
:1043C000D0E0CE0121960E9477080E94F702C33305
:1043D000D105B9F7289A83E30E947C0381E00E940B
:1043E000C10681E080934C01DF91CF911F910F9125
:1043F0000895A0E0B0E0EFEFF1E20C94FE2FEC01A5
:1044000089818437A9F46DE271E0CE0102960E94A1
:10441000450840E260E080912D0190912E010E94BC
:104420008B070E948707CDB7DEB7E8E00C941A30FF
:10443000833709F0A3C18A81823769F469E271E0A8
:10444000CE0103960E94450840E260E08091290178
:1044500090912A01E4CF769A8091A103811116C030
:1044600080919302882329F081E08093A003109229
:1044700093028091DF02882329F081E080939F03DB
:104480001092DF0253DF83E00E94C10686E30E94A0
:104490007C038AE30E947C038BE30E947C030E94DE
:1044A000D503FE0101900020E9F7FE2EFC1AFA94D4
:1044B000FA948091290190912A012296892B09F47E
:1044C00044C031E210E0F31215C05B9A80912D01D7
:1044D00090912E010E94BC065B9880912B019091D7
:1044E0002C012AE0AC01249FC001259F900D1124CE
:1044F0000E94BC06F5E0EF2E6E0101E00F1594F16D
:1045000081E25B9AF812EBC080912B0190912C0113
:104510000E94BC065B9880912B0190912C0128E2AF
:10452000FC012E9FC0012F9F900D11240E94BC06FC
:104530001F5F212F012E000C330B809129019091D8
:104540002A012817390708F4C0CF8091A1038823D6
:1045500009F4F9C080915F01882309F4DFC00E944B
:10456000E703DFC00F5FF60181916F01803309F02F
:104570004AC0F1E25B9AFF1222C080912B01909118
:104580002C010E94BC065B9880912B0190912C011C
:104590000E94BC065B9A80912B0190912C010E9495
:1045A000BC065B9880912B0190912C019C01E29EAE
:1045B000C001E39E900D11240E94BC069FCF809104
:1045C0002D0190912E010E94BC065B9880912D01D7
:1045D00090912E019C01220F331F820F931F0E9486
:1045E000BC065B9A80912D0190912E010E94BC0621
:1045F0005B9880912D0190912E019C01220F331F19
:10460000820F931FD9CF813309F048C031E25B9A02
:10461000F31220C080912B0190912C010E94BC06C6
:104620005B9880912B0190912C01AC01E49EC0011C
:10463000E59E900D11240E94BC065B9A80912B018F
:1046400090912C010E94BC065B9880912B01909167
:104650002C01B2CF80912D0190912E019C01220F4F
:10466000331F820F931F0E94BC065B9880912D011F
:1046700090912E010E94BC065B9A80912D01909131
:104680002E019C01220F331F820F931F0E94BC0634
:104690005B9880912D0190912E018ECF51E25B9A13
:1046A000F5120CC080912B0190912C010E94BC0648
:1046B0005B9880912B0190912C01BDCF80912D01B1
:1046C00090912E010E94BC065B9880912D019091E3
:1046D0002E019C01220F331F820F931FCBCF80919D
:1046E0002D0190912E010E94BC065B980FE18091F4
:1046F0002D0190912E010E94BC0601500111F7CFAF
:104700001F5F212F012E000C330B80912901909106
:104710002A012817390708F4EFCE17CF86E30E9445
:104720007C03769889E60E94300783E70E94300771
:1047300011E01F150CF075CE89918033D9F40E94D9
:1047400030071F5FF6CF8091A003882341F01092BD
:10475000A0030E94431681E08093930200CF8091D2
:104760009F03882321F010929F034BD8DACF0E9439
:10477000250ED7CF813319F386E4E1CF8237B9F420
:1047800080919302882329F081E08093A003109206
:1047900093028091DF02882329F081E080939F03B8
:1047A0001092DF02C3DD81E08093A1033CCE863608
:1047B00051F58A818033F9F480E18093260180EB02
:1047C0008093270181E78093280189E60E943007C2
:1047D00086E60E9430078AE30E9430078091260116
:1047E0000E940B08809127010E940B0880912801EC
:1047F0000E940B0816CE43E066E271E0CE010296FD
:104800000E940F08E2CF883729F58091A003882302
:1048100051F01092A0030E94431681E0809393020E
:104820000E94E70308C080919F03882339F010920B
:104830009F030E94011C1092A103F5CD82E090E03D
:104840000E94800380915F018111EACF86E30E947C
:104850007C03F1CF833609F0E6CD6DE271E0CE0145
:1048600001960E944508DFCDA1E0B0E0EAE3F4E262
:104870000C94F62F7C01FC018181833709F0B4C1CF
:10488000198287E090E00E942B308C0141E0BE014C
:104890006F5F7F4FC70102960E940F088981F80160
:1048A000808341E0BE016F5F7F4FC70104960E9485
:1048B0000F088981807FD82EF801818341E0BE01F5
:1048C0006F5F7F4FC70106960E940F088981F8012C
:1048D000828341E0BE016F5F7F4FC70108960E944F
:1048E0000F088981F801838341E0BE016F5F7F4F2C
:1048F000C7010A960E940F088981F801868341E06A
:10490000BE016F5F7F4FC7010C960E940F0889811F
:10491000F801858341E0BE016F5F7F4FC7010E96AE
:104920000E940F088981F80184833801F7E06F0E37
:10493000711CF80180E02191922F92959F7092272F
:104940008927E615F705B9F78F708D29F80181835E
:1049500087E090E00E942B307C0187E0F801D701CE
:1049600001900D928A95E1F798012A5F3F4FF80177
:10497000DF01319611968C9111979C918927808344
:104980002E173F07A9F7769A8091A403811161C081
:1049900080919302882329F081E08093A3031092F1
:1049A00093028091DF02882329F081E08093A203A3
:1049B0001092DF02EA98209A289A8EE190E00E94F5
:1049C000BC0628988EE190E00E94BC06289A8DE2F1
:1049D00090E00E94BC0680E30E947C0384E690E0A5
:1049E0000E94BC06289880E40E94F702F7E1CF2ECF
:1049F000F4E0DF2EA0E4AA2EA4E0BA2EF601849102
:104A00000E94F702FFEFCF1ADF0AAC14BD04B1F722
:104A1000289A28988EE70E94F702EBE2CE2ED12C3E
:104A2000C6012FEFC21AD20A0E9477080E94F7022D
:104A300083E3C816D104A1F7289A83E30E947C037C
:104A400081E00E94C10681E080934C0183E00E94D6
:104A5000C10686E30E947C038AE30E947C038BE309
:104A60000E947C030E94D5035B9A87EC94E20E942B
:104A7000BC065B9889E50E94C10685E392E00E942E
:104A8000BC06512C8091330190E0252D052C000CA3
:104A9000330B281739076CF08091A403882309F49D
:104AA0008BC080915F01882309F463C00E94E703F3
:104AB00063C077E0C72E511002C062E0C62ED12C31
:104AC0005B9A86EF99E00E94BC065B9886EF99E0BE
:104AD0000E94BC06D394CD10F3CF5B9A8CEF92E189
:104AE0000E94BC065B9880912F01909130010E943A
:104AF000BC066801F60181906F0148E0442E50E841
:104B0000A52EB12C912CC4018A219B21892B29F53A
:104B10005B9A80912F01909130010E94BC065B98B6
:104B200080912F01909130010E94BC06B694A79409
:104B30004A944110E8CFC614D704E1F65B98F80117
:104B4000868187FD13C080912F01909130018153A0
:104B500099480E94BC06539495CF5B9880912F0191
:104B6000909130010E94BC065B9ADACF8FEC96E7F9
:104B7000F0CF86E30E947C03769889E50E94300797
:104B800083E70E94300767015701F7E0AF0EB11CC1
:104B9000F60181916F010E940B08AC14BD04C1F7AE
:104BA0000E948707C7010E94C130C8010E94C1301E
:104BB0002196E0E10C9412308091A303882341F008
:104BC0001092A3030E94431681E0809393026ECF5C
:104BD0008091A203882329F01092A2030E94011C55
:104BE000CBCF0E94250EC8CF8237C9F463E371E0B2
:104BF000C70102960E94450889E50E94300782E7B6
:104C00000E9430078AE30E9430078091330140E21E
:104C100060E090E00E948B070E948707C9CF84372D
:104C200051F58281803301F588ED94E09093320153
:104C30008093310180913101909132019695879551
:104C40009093300180932F0189E50E94300784E71B
:104C50000E9430078AE30E94300740E266E08091BC
:104C6000310190913201D6CF61E371E0C701029624
:104C70000E944508DFCF883709F09ACF8091A303BF
:104C8000882351F01092A3030E94431681E0809381
:104C900093020E94E70308C08091A203882339F0A1
:104CA0001092A2030E94011C1092A40381CF82E003
:104CB00090E00E94800380915F018111EACF86E33A
:104CC0000E947C03F1CF1092E2031092A10483E0D2
:104CD0008093EB038FEF8093E3030895DC01ECEE08
:104CE000F3E0808181110EC0AB2B29F584E0EA3915
:104CF000F80719F010F0EAE9F4E0CF010895E80FA1
:104D0000F11DEFCF94E0EA39F90770F71097B9F386
:104D100021819C912913F3CF228111969C911197A7
:104D2000291759F3E80FF11D8081882321F094E0C1
:104D3000EA39F90768F3E0E0F0E0DFCF94E0899F1B
:104D4000F0011124E254FC4F80818F3F91F0809359
:104D5000E60381818093E70382818093E803838166
:104D60008093E90321E04CE064E086EE93E00C944C
:104D7000CF0A08958BE994E0B1DFDC01892B99F02B
:104D8000E091EB038C91E81770F4EA0FFB2FF11D13
:104D9000808180939D0489E780939E048181809324
:104DA0009F0481E0089580E008950F931F93CF93AF
:104DB000DF938C0180915F0186FF15C084E50E941E
:104DC0003007E8010B5F1F4F89910E940B08C01745
:104DD000D107D1F780915F0185FF03C08AEF0E9460
:104DE0000B080E948707DF91CF911F910F910895C3
:104DF00086E30E947C0380919D04833579F48BE9DE
:104E00000E94C10621E04CE065E08BE994E00E943D
:104E1000CF0A0E94E7038BE994E0C7CF8BE4F0CF81
:104E2000E7DF80919D04893631F081E080939A0418
:104E300089E28093E3030895CF9385E390E00E9495
:104E400077088093E50386E390E00E9477088093DB
:104E5000E403EFECF3E0CFEFC083C283C483C683E7
:104E6000C087C287C487C6872EDF1092EC0381E01B
:104E70008093A503AEEBB3E0CC93E6EAF3E08FEFCB
:104E80009FEF91838083138212821582148214967D
:104E9000CC93149797838683118610861386128687
:104EA0001896CC9318979587848717861686118A4B
:104EB000108A1C96CC93938B828B158A148A178A3E
:104EC000168ACF910895ABE0B0E0E9E6F7E20C94E2
:104ED000F92F8C016C012FEFC21AD20A45E0BE01F6
:104EE0006F5F7F4FC6010E940F08843008F0E4C056
:104EF00099819130D1F4833079F46A8185E390E02F
:104F00000E9472086B8186E390E00E94720894DF31
:104F10002B96EDE00C9415308091E5030E940B0870
:104F20008091E4030E940B0835C0923009F051C013
:104F3000EE24E394813031F081E09A81913009F0E0
:104F400080E0E82E8091EC03811104C080E494E0BD
:104F50000E947A070CEE13E015C083E00C3E1807A0
:104F600019F080E20E943007F80181810E940B084D
:104F7000F80182810E940B08E1100FC0F8018081C6
:104F8000080F111DF8018081882321F0F4E00A390F
:104F90001F0718F30E948707BBCF8AE30E943007E0
:104FA00083E0F82EF8018081F81640F7F3E0FF1651
:104FB00029F0F0FE03C08CE20E943007DD24D39478
:104FC000DF0CF801EF0DF11D80810E940B08FD2C14
:104FD000E9CF933049F480E090E080DE8C5E93402E
:104FE0009EEA981B892F9ECF903149F50FEC13E074
:104FF000E12CF12CF80180818F3FA1F0FF2019F006
:1050000080E20E9430078E2D0E940B088AE30E94E6
:105010003007F80180810E940B08F80181810E940D
:105020000B08F3940E5F1F4FE394F8E0EF12E2CF0A
:105030008EE494E0F110AECF0E947A07ABCF9131AD
:1050400049F48091DF039091E0036DE770E09FD712
:10505000862F68CF923109F09DCF0EEB13E0E12C43
:10506000F12CF80180818F3FE1F0FF2019F080E200
:105070000E9430078E2D0E940B088AE30E943007A1
:10508000F80180810E940B08F80181810E940B08C1
:10509000F80182810E940B08F80183810E940B08AD
:1050A000F3940C5F1F4FE394F4E0EF12DACFF110AA
:1050B00071CF8AE494E0C0CF7E0127E0E20EF11CBC
:1050C00044E0B701C6010E940F084F81493608F439
:1050D00096C06A855885EEEBF3E020E030E080E092
:1050E00090E06C3009F06FC080E090E020E030E0AC
:1050F0006081461336C07181751333C0A2817985F2
:10510000A7132FC082549C4F4CE0FC014383C9017C
:10511000880F991F820F931FFC01EE0FFF1FEA55A6
:10512000FC4F11821082880F991FFC01E855FC4F3B
:105130001182108222E04CE064E0C7010E94CF0A95
:105140008FE08A8722E04CE064E0C7010E94CF0A2A
:1051500082E08A8722E04CE064E0C7010E94CF0A27
:10516000D7CE6F3FF9F4FC01E254FC4F40835183EA
:10517000898582838CE08383C901880F991F820F00
:10518000931FFC01EE0FFF1FEA55FC4F11821082A6
:10519000880F991FFC01E855FC4F11821082109274
:1051A000A503C8CF2F5F3F4F3496049624303105B6
:1051B00009F09ECFADCE019634962C5F3F4F8430E0
:1051C000910509F4A5CE70814713F5CF7181751350
:1051D000F2CFA2817985A713EECF22543C4FF9017B
:1051E0006383FC01EE0FFF1FE80FF91FEE0FFF1F97
:1051F000E855FC4F81E090E09183808389CEE9817E
:105200002091E503E217C0F1822F90E007964E2F20
:1052100050E08417950784F19A818091E4039813F4
:105220002BC09C819F3231F442E06CE0C8010E94A7
:10523000400B6ECE8D819C32B9F48093CE0321E079
:1052400030E03093E0032093DF03F4E08F9FC00150
:1052500011242091580130915901820F931F90938E
:1052600059018093580154CEE21BEE0FF0E0E15358
:10527000FC4F908381834CCE80E090E02FDD7C0159
:10528000F60101900020E9F73197EC19FD09F69538
:10529000E7957E2EDD24D394DE0EC7018D0D911D82
:1052A0008C5E93408F3A91052CF084E494E00E9448
:1052B0007A072ECEF701D0825701CC24C3948C2DCF
:1052C000880F8150CD1480F0FAE9EF16F4E0FF0664
:1052D00008F01ECE2FEFED2D721201C0E1E0EE0DB1
:1052E000FF2DF11D108214CE4501FFEF8F1A9F0A8A
:1052F00041E0B401800F912F911D0E940F0822E020
:105300002C1548F4C0FC07C0F5018081843619F4DF
:1053100081818093E103C3945401D1CF0F931F93F4
:10532000CF93DF939091A50391114AC0282F30E0CD
:10533000E901CC0FDD1FC20FD31FDE01AA0FBB1F77
:10534000AA55BC4F220F331F220F331FF901E2541D
:10535000FC4F9281977040E850E0491B51099AEF49
:10536000949F9001959F300D112435952795359583
:1053700027952D933C938E01000F111F06551C4F4E
:10538000F801208131812F5F3F4F31832083CC0F83
:10539000DD1FC855DC4F488159814115510541F445
:1053A0002430310569F4CADCF8011182108208C08A
:1053B0004130510551F4C2DC82E090E0998388834A
:1053C000DF91CF911F910F91089542305105C1F7A0
:1053D000B5DC19821882E8CFA6E0B0E0E1EFF9E28F
:1053E0000FC68091E4038A831B829091CE03992398
:1053F000D1F19330A9F587E791E09093E003809392
:10540000DF038FECE82E83E0F82E10E00CE2F701CA
:1054100020812F3FA1F08091CE039091E503910F61
:105420009983882349F10C838D8321E04CE065E06A
:10543000CE0101960E94CF0ACE010196B6DC1F5F15
:10544000F2E0EF0EF11C183011F78091CE038823A3
:1054500021F08330A1F41092CE032696E6E0ECC54D
:105460008DE790E0CACF87708A512DE7829FC001F7
:10547000112495958795C1CF2C838181D5CF8250FA
:105480008093CE03EACF80919A04882351F0B0DC58
:1054900089E28093E30380919A04815080939A0477
:1054A000089511CCFF920F931F93CF93DF93FC01CC
:1054B000F080D181C281138104818FE58093E30361
:1054C00010929A048091E5039091E403892B88233C
:1054D00051F180919B048F1104C080919C048D1721
:1054E00029F0F1DBF0929B04D0939C04D091E2036D
:1054F000DF3FC9F0C0939D0410939E0400939F0466
:10550000CC2351F1D1111EC08091E503801779F0B1
:10551000043669F08DEA8C0F823010F0CD3749F4F3
:105520008FEF8093E203CDB7DEB7E5E086C5C435E3
:10553000D1F3812F807F8036B1F7106710939E04DE
:105540006FDCF1CF17DC8091A104882379F08335DB
:10555000B9F08C17D1F008C00DDC8D2B882319F31E
:105560008091A104882311F0AEDBDDCFED2FF0E0B8
:10557000EE5AFB4FE491E335F1F0CE1711F1F4CF81
:10558000C435B9F4DE5FD093E2038091EB038E5F04
:105590008093EB03EFDB882309F44CC080919D04DA
:1055A0008093A104843661F68091E10380939F0487
:1055B000C7CFC335CFCFC43509F03AC0DE5FD09333
:1055C000E2038091E203E82FF0E0ED5AFB4F1491E3
:1055D0001F3F21F310939D0497E790939E049091B1
:1055E000E50390939F048E5F8093E2031092A104E1
:1055F0008E30D1F48BE994E071DBDC01892B99F0DA
:105600002C9130E08AE994E0821B930BED01C817DE
:10561000D907B0F08A179B07C8F08A1B9B0B8A0F2B
:105620009B1FFC0110824FDB112309F47CCF88CF34
:10563000C335A4CF8091E2038E5F8093E203C1CF94
:10564000FE01E20FF31F40814993E1CF80E090E03B
:10565000E6CF0F931F93CF93DF93EC0100E0802FF1
:1056600090E09C01220F331F280F391FF901E455E8
:10567000FF4F1491812FF901E355FF4F259134918C
:10568000112389F0209741F480E20E943007812F96
:105690000E9430070F5FE3CF98819113FBCFCE01BB
:1056A000F901099581E0DF91CF911F910F91089544
:1056B000CF93C0915601809356018091A40481112B
:1056C00004C0C0935601CF91089582EA94E00E94ED
:1056D000B8092091AC053091AD058A3011F08D30BC
:1056E00011F52115310549F322553A4FF901108280
:1056F0008EEA95E0AEDF811111C088E794E00E9448
:105700007A078EEA95E00E946F0780E694E00E9497
:105710007A0780E090E09DDF0E9487071092AD0538
:105720001092AC05CACF2038310538F6A9014F5F79
:105730005F4F5093AD054093AC0522553A4FF901A8
:105740008083BBCFE4E6F0E080818B7F8083299A61
:1057500084B1876084B9239880E58CBD8DB5816064
:105760008DBD089520913E0630913F0621153105EB
:1057700021F42091360130913701809134019091CC
:105780003501009741F48DB79EB740913801509193
:105790003901841B950B2817390718F4821B930BCA
:1057A000089580E090E0089582E40E94300740E28E
:1057B00065E080913E0690913F060E948B070E9413
:1057C000870783E50E94300740E265E0809136015B
:1057D000909137010E948B070E94870785E40E9401
:1057E000300740E265E080913401909135010E94DC
:1057F0008B070E94870786E40E943007B3DF40E2F0
:1058000065E00E948B070C948707A2E0B0E0EAE015
:10581000FCE2FAC383E396E0FC0101962091F100DB
:10582000208326E08B339207B9F78091330690915D
:1058300034069A3008F01CC1E92FF0E0E158FE4C24
:10584000CDC3803879F0823809F012C180913706D3
:105850008093E9008091EB0085FB882780F9109206
:10586000E90006C080912F06909130069111826068
:105870009091E800977F9093E8008093F100109258
:10588000F1008091E800982F9E7F9093E8008F7739
:105890008093E8008091E80082FF05C08091E800D5
:1058A000982F9B7F34C0809132068111F3CF809175
:1058B000E80083FF0AC08091EB0080628093EB00D8
:1058C0008091E800877F8093E8002296E2E0B8C3E9
:1058D00081110BC080913506813049F781E093300A
:1058E00009F080E08093300607C0823009F0C0C024
:1058F00080913506882389F01092E9008091E800B4
:10590000877F8093E8008091E800982F9E7F909396
:10591000E8008F778093E800CACF809137068770C0
:10592000882329F28093E9002091EB0020FFE4CF47
:105930009130B9F49091EB0090619093EB0021E0ED
:1059400030E0A90102C0440F551F8A95E2F7409349
:10595000EA001092EA008091EB0088608093EB00EF
:10596000CBCF8091EB008062F9CF811181C0809113
:1059700035069091E800977F9093E8009091E800B9
:10598000292F2E7F2093E8009F779093E800909135
:10599000E80090FF0CC0982F9F7780688093E30009
:1059A000992309F484CF83E08093320680CF9091CD
:1059B00032069111ECCF7BCF8058823008F058C06E
:1059C000AE014F5F5F4F6091370680913506909131
:1059D00036060E94BD02BC01892B09F468CF809174
:1059E000E800877F8093E80089819A810DD156CFA6
:1059F0008038F1F58091E800877F8093E8008091FE
:105A000031068093F1008091E800982F9E7F90935B
:105A1000E8008F778093E8008091E80082FD3ECF18
:105A2000809132068111F8CF42CF811121C090912F
:105A30003506923008F03BCF8091E800877F809355
:105A4000E800909331068091E800982F9E7F909314
:105A5000E8008F778093E80080913106882331F049
:105A600084E0809332060E94210521CF83E0F9CFA4
:105A70000E9439051CCF8093E900EBEEF0E08081B5
:105A800081608083EDEEF0E010826093EC00408353
:105A90008091EE00881F8827881F08951092F400D7
:105AA00080E08093E9001092F0001092E80090915D
:105AB000ED009D7F9093ED009091EB009E7F909381
:105AC000EB008F5F873069F708958091330687FF79
:105AD00017C08091E80082FF0AC08091E800982FEB
