:10000000F7C0000011C100000FC100000DC10000C9
:100010000BC100000C94CD0D07C1000005C100000C
:1000200003C1000001C10000FFC000000C948A164B
:10003000FBC00000F9C00000F7C000000C946F0D79
:10004000F3C00000F1C00000EFC0000098C3000042
:10005000EBC00000E9C00000E7C00000E5C0000000
:10006000E3C00000E1C00000DFC00000DDC0000010
:10007000DBC0000042B806439E0265E10646EB087D
:1000800068EE086CA70652230654651174FF0375C9
:10009000C30F56210757650658560A7865020000B7
:1000A000002A03430055004C0034003300330000A5
:1000B000002A03430055004C003800360038000089
:1000C000001603620075007300770061007200651E
:1000D000002E0064006500000004030904090243C7
:1000E0000002010080320904000001020201000543
:1000F000240001100524010301042402060524063E
:100100000001070582030800FF09040100020A003C
:1001100000000705040240000007058302400000BC
:100120001201100102000008EB034B200000010245
:100130000001202F2000203D2000072E050DD39127
:10014000FF080500000C0021656A2D3B1322F862B0
:10015000073F181D1CC700B0876BF8B611EA2A00CC
:100160001F41000D2E2D07D3913D043200000600E3
:1001700021656A55E43023B900070018146C0700A4
:1001800090876BF85611E92A001F410027675081BC
:10019000C25620312E36382043554C38363800565A
:1001A00020312E36382043554C34333300202F2055
:1001B00000203D20004C4F56460D0A004E2F4100B6
:1001C000454F420D0A0000535300547D7DFFFF4B05
:1001D0004B7E7E0020697320756E6B6E6F776E2983
:1001E00020557365206F6E65206F66003F202800E4
:1001F00011241FBECFEFD2E0DEBFCDBF11E0A0E0E3
:10020000B1E0ECE8FFE202C005900D92A830B10722
:10021000D9F722E0A8E0B1E001C01D92A537B207EE
:10022000E1F70CD00C94BA17EBCEF89481E085BFBF
:1002300082E085BFE0E0F8E10995089588E19FE05C
:100240000FB6F894A895809360000FBE909360005D
:1002500080E890E00FB6F89480936100909361007D
:100260000FBE2E9A2D9A04B603FE0AC083E390E0D7
:10027000D2D4882329F060E083E390E0C7D4D5DFAF
:1002800089EF87BD84E085BD82E084BD80936E00E8
:10029000109280008AE08093810084B7877F84BFBA
:1002A0003C9A0E94A313BAD50E946E160E94551163
:1002B0000E943C0A89E593E19093340280933302D3
:1002C0000E941D0F89E08093110144980E941E171F
:1002D0009AD10E94B00BA9D20E941510F7CF9C01B1
:1002E000DA01832F99278230910549F183309105F6
:1002F00039F0019749F180E090E020E030E00EC055
:10030000C9019927213069F08230910569F0E9ED42
:10031000F0E0892B81F7849190E09F012D933C932D
:100320000895E1ECF0E0F7CF21EA30E01E9B02C037
:1003300021EB30E0E1EBF0E0849190E0EFCF83E45B
:1003400090E02DED30E0EACF82E190E020E231E074
:10035000E5CF8EBD0DB407FEFDCF8EB508950F938A
:100360001F93CF93DF93C82F8A30C8F4853008F0ED
:10037000C5508BE290E0D0E0C457DE4F60E08C3295
:1003800011F4FE0164918C010F5F1F4F3FD40333C2
:10039000110539F4DF91CF911F910F910895C8E0B5
:1003A000E7CFC801EBCF0F931F93CF93DF9303E603
:1003B00011E0C2E0D0E0F8016491CE01219626D48C
:1003C0000F5F1F4FCB32D105B1F70AE311E0C7E34E
:1003D000D0E0F8016491CE01219618D40F5F1F4F31
:1003E000C036D105B1F71E9918C060E18FE090E0EA
:1003F0000DD460EB80E190E009D461E781E190E009
:1004000005D460E184E490E001D460EB85E490E001
:10041000FDD361E786E490E0F9D388E0A0DFDF91C7
:10042000CF911F910F9108954598806C92DF80E0E5
:1004300090DF459A0895CF93C62F4598806489DF51
:100440008C2F87DF459ACF910895459882DF459A92
:1004500008950F931F93CF93DF93EC01EC983D9A8F
:10046000459A8EE190E03BD245988EE190E037D2FC
:10047000459A8DE290E033D280E3E7DF84E690E0B6
:100480002ED2459880E465DF8E01075D1F4FCE01B7
:100490002196C1D35EDF0C171D07C9F7459A459811
:1004A0008EE757DFCBE2D0E0CE012196B4D351DF07
:1004B000C333D105C9F7459A83E3C7DF81E014D27E
:1004C000DF91CF911F910F910895A1E0B0E0EBE68D
:1004D000F2E00C94741722E0298341E0BE016F5FC3
:1004E0007F4F01964BD389813ADF82E090E0B1DF04
:1004F0002196E2E00C949017CF93EC9886E3A5DF69
:10050000CFEF85E3A2DF8077803231F08AE090E0A0
:10051000E6D1C150C111F5CFCF910895CF93CFEF60
:1005200084E393DF8077803131F08AE090E0D7D1A7
:10053000C150C111F5CFEC9ACF910895A2E0B0E07F
:10054000E4EAF2E00C9472178C01FC018181873798
:10055000F1F441E0BE016F5F7F4FC80102960ED3F8
:10056000892BA9F041E0BE016E5F7F4FC801049660
:1005700005D3892B61F06A8189815DDF83E365DFC3
:10058000CDDF8981F7D28A81F5D270D218C041E0DF
:10059000BE016E5F7F4FC8010196F0D2892B79F0C2
:1005A0008A81893981F410E0812F3EDFE3D2812FE7
:1005B0008770873009F45AD21F5F1033A9F722964B
:1005C000E4E00C948E1730DF182F83E4FCD18A818D
:1005D000D1D286E391E03DD2812FCCD282E391E06B
:1005E00038D240E262E0812F90E044D2CECF86E361
:1005F0002CDF10920801089582E090E02ADF81E06C
:1006000080930801089580916B028430C1F5809336
:10061000E90080910901811104C08091E80085FD05
:1006200034C083E08093E90080910002882339F18F
:100630008091E80085FF23C0F89480910002882310
:1006400029F08091F200803408F43EC078949091B3
:10065000F2008091E800282F2E7F2093E8008F770A
:100660008093E800903459F40E9437158091E80097
:10067000982F9E7F9093E8008F778093E8000895ED
:100680006091F1008BEC91E0E9D38091F20081114F
:10069000F7CF8091E800982F9B7F9093E8008F77A9
:1006A0008093E80081E08093090183E093E09093D8
:1006B000320280933102E0913302F091340281E002
:1006C000099510920901ADCF8EEF91E0DED38093B2
:1006D000F100B3CF42E061EC82E00E94E91442E312
:1006E00061E883E00E94E91442E360E884E00E944C
:1006F000E91410920001109201011092020110926F
:100700000301089580916C0290916D029132B1F0D5
:10071000923259F1903291F5813281F58091E80061
:10072000877F8093E80067E070E080E091E00E94BE
:10073000F8158091E800982F9E7F11C0813AF1F45E
:100740008091E800877F8093E80067E070E080E0B8
:1007500091E00E9461158091E800982F9B7F909313
:10076000E8008F778093E8000895813239F4809112
:10077000E800877F8093E8000C94131508951F927A
:100780001FB61F9211248F939F93AF93BF938091B5
:100790000B0190910C01A0910D01B0910E010196F9
:1007A000A11DB11D80930B0190930C01A0930D012D
:1007B000B0930E0180910A018F5F80930A018091AE
:1007C00075018F3F19F0815080937501BF91AF91F2
:1007D0009F918F911F901FBE1F901895FC018FB79E
:1007E000F89440910B0150910C0160910D017091B2
:1007F0000E0140835183628373838FBF0895A4E009
:10080000B0E0E5E0F4E00C947417CE010196E6DF69
:100810008C81B0D18B81AED18A81ACD18981AAD1B2
:1008200025D12496E2E00C94901780910B019091D1
:100830000C01A0910D01B0910E012091100128171B
:1008400009F44CC080910B0190910C01A0910D0115
:10085000B0910E0180931001A895809175018111CE
:1008600002C00E94451280916E01882339F08150A8
:1008700080936E01811102C00E94A51080910A012F
:100880008D3760F110920A018091070181FF04C049
:1008900088B190E1892788B9809113019091140162
:1008A000843823E0920728F40196909314018093F2
:1008B000130180910F0191E0980F8B3319F0909301
:1008C0000F01089510920F01809173018F5F8C3397
:1008D00018F4809373010895109273010895880F9E
:1008E000991F0197F1F7089520ED37E0811101C0BC
:1008F0000895F9013197F1F78150F8CFCF93DF9345
:10090000FC018381843509F055C08081DF01509658
:100910002DE0281708F451C030E090E0AC014F50B2
:1009200051092417350709F045C0EF012396DC0172
:100930001E97AC0FBD1F2C912435E1F53481119623
:100940002C911197321336C0358112962C91129743
:10095000321330C0368113962C91139732132AC06C
:10096000378114962C911497321324C04197C80FE5
:10097000D91F15968C911597888316968C9116978A
:10098000898319968C9119978A831A968C911A9754
:100990008B831B968C911B978C831C968C911C9738
:1009A0008D831D968C918E8380818A508083828175
:1009B0008A508283DF91CF9108959D919B3309F4F2
:1009C000ABCF2F5FA6CFCF93C82F80916B0284301F
:1009D00059F58091110180FF27C08091000280337A
:1009E00008F011DE6C2F8EEF91E038D2CA3009F496
:1009F0000ADE80E0909170019923A1F0909111019D
:100A000093FF10C0CA3071F0882361F0CD3071F0CF
:100A10006C2F8EEF91E022D283E080936E0182E012
:100A200080936D01CF91089581E0E4CF6BE38EEF69
:100A300091E014D28EEF91E061DFEECFCF93DF93A0
:100A4000EC018991811103C0DF91CF910895BBDF43
:100A5000F8CFCF93DF93EC01FE018491811103C0A5
:100A6000DF91CF910895AFDF2196F6CF8DE0ABDF18
:100A70008AE0A9CFA6E0B0E0E0E4F5E00C947017BE
:100A8000FC01262F1E828E010A5F1F4F35E08AE08F
:100A9000E82EF12CCF01B7010E944A173150805D3A
:100AA000D8018E938D01CF01FB010A97A8F4832F03
:100AB0002550622F630F615067FD02C0811110C085
:100AC00021E030E02C0F3D1F280F311DC901B6DF9A
:100AD0002696E6E00C948C173111DCCF80E0E8CF4D
:100AE0008150E1E0F0E0EC0FFD1FE80FF11D4083C5
:100AF000E2CFA5E0B0E0EFE7F5E00C9474179C01BD
:100B00001D8254E0922F9F709A3048F5905D8FEFD0
:100B1000850FE1E0F0E0EC0FFD1FE80FF11D908381
:100B2000F90194E0F695E7959A95E1F720313105C2
:100B300098F45550650F615067FD02C0811111C0D6
:100B400021E030E02C0F3D1F280F311DC90176DF59
:100B50002596E2E00C949017582F9F01D3CF995C13
:100B6000D6CF8150E1E0F0E0EC0FFD1FE80FF11D62
:100B70004083E1CF40E362E090E0BBCFCF93DF93CF
:100B8000EB01FB0130E020E0DC019D91992331F085
:100B9000913670F08FE9890F863030F0CF018C1BD1
:100BA0009D0BDF91CF91089590529753292B05C04B
:100BB00080ED890F8A3050F4282B332389F021935C
:100BC0004150442359F330E020E008C08FEB890FF7
:100BD000863058F3903211F09A3301F7CD01D4CF1B
:100BE0002295207F31E0FACFFB01982F92959F70DC
:100BF000803A40F4905D90838F708A3028F4805D55
:100C000081830895995CF7CF895CFACF0E94AC1775
:100C1000F999FECF08950C94A41708950F931F938C
:100C2000CF938C01CFEFC60FC801F5DFA3DFCC2334
:100C300031F00F5F1F4F8AE3C6DEC150F5CFCF9171
:100C40001F910F910895A2E0B0E0E9E2F6E00C9464
:100C50007117FC0181818D3449F466E08AEF91E0DF
:100C6000DDDF04DF2296E5E00C948D17803521F45A
:100C700060E18AED91E0F4CF1A82198242E0BE0170
:100C80006F5F7F4FCF01019679DF098110E08230DD
:100C900029F409811A81102701271027C801BBDF19
:100CA000F82E82E590DE40E364E0C80122DF81EBAC
:100CB00091E0CFDE8F2D5EDF8DEA91E0CADE40E26B
:100CC00062E08F2D90E0D6DECCCFA6E0B0E0EBE680
:100CD000F6E00C946C176C0143E0CE0101967C01A8
:100CE000BC01C60101964ADF8C01BE2CAF2C8230BC
:100CF000D0F0E980F12C823029F0E980FA80FE24DE
:100D0000EF24FE241127FE01E00FF11F6081C701CF
:100D10007DDF000F111F0F5F1F4F0C0D1D1DF80110
:100D20008081811104C02696EAE00C94881741E086
:100D30006B2D7A2DC80122DF892BA9F39FEFE91AC9
:100D4000F90A6981C70162DF0E5F1F4FE8CF41E0FA
:100D500067E071E0019612DF8091070180FF06C015
:100D6000449A6091070184E390E050CF4498F9CF12
:100D7000A1E0B0E0EEEBF6E00C9474171982009756
:100D800031F041E0BE016F5F7F4F0196F7DE898150
:100D90008F3F09F4FFCF882321F061E083E390E0E7
:100DA00035DF0E94741610926E00F89488E198E086
:100DB0000FB6F894A895809360000FBE90936000E2
:100DC000FFCFCF93DF93EC0161E080E090E01EDF86
:100DD00064E481E090E01ADFE6DA60E080E690E02B
:100DE00015DF60E081E690E011DF60E083E390E0F2
:100DF0000DDF62E084E390E009DF60E080E690E0F0
:100E000005DF60E081E690E001DF8981883719F035
:100E100080E090E0ADDFDF91CF91089580E090E039
:100E2000FADE813029F481E090E0F5DE843419F0B7
:100E300080E090E0C6DF84E390E0EDDE8093070180
:100E400008958FE991E01E9B02C081E991E001DEE7
:100E50000DCEFC011282108211820895FC019FB711
:100E6000F8948281803310F09FBF08958F5F828352
:100E7000A08181E08A0F8083AE0FBF2FB11D139632
:100E80006C93803389F71082EFCFFC019FB7F89401
:100E90008281811102C09FBF089581508283A18108
:100EA00021E02A0F2183AE0FBF2FB11D13968C9125
:100EB000203389F71182EFCF469A882399F08091E9
:100EC000160190E044E0880F991F4A95E1F707DD8D
:100ED00046988091150190E024E0880F991F2A958B
:100EE000E1F7FDCC8091180190E034E0880F991F64
:100EF0003A95E1F7F4DC469880911701ECCFA7E032
:100F0000B0E0E5E8F7E00C9464174C016E83842FA1
:100F10002D83502EEB82642E712C8E5F602F0E94E9
:100F200030179C2D9A0D890F082E000C990B2091DB
:100F30001301309114012817390738F485EB91E03B
:100F400088DD2796E2E10C948017281B390B30933B
:100F5000140120931301449A80910801811101C06A
:100F60004BDBCADA8C2D90E09C0144E0220F331F4A
:100F70004A95E1F73A8329832A2C312C54E0220C3C
:100F8000331C5A95E1F7CA28CC823E81032F10E02A
:100F9000CC24C394D12C8D81E82EF12C9C819923F3
:100FA00039F0469A89819A819ADC4698C10197DC8A
:100FB0001D8280E081DFED81EF5FED838E2FEE0FEC
:100FC000990B80179107ACF381E076DF412C842DDB
:100FD000042C000C990B9F838E8386159705CCF00B
:100FE00027E0B22E880D991D9F838E838B2D0B2CAD
:100FF000000C990BE816F90634F18B8175DC5A94D4
:101000005110CCCF80911A01882351F187DA44988E
:1010100098CF37E0A32EB12C2E813F81280D391DAA
:101020003F832E83C6010A2C01C0880F0A94EAF779
:10103000EE81FF81908189233FDFF1E0AF1AB10893
:1010400088F74394C4CFC6010B2C01C0880F0A94C3
:10105000EAF7EE81FF81908189232EDFBA94C6CF13
:1010600086E3F3D9D4CFACE0B0E0E9E3F8E00C9448
:1010700068177C01162F842F022F6701C60ED11C22
:10108000462FB70129D2F60180831F5F1982612C98
:10109000712C40E027E061E070E0A7E0B0E057018C
:1010A000A60CB71C6116D0F0222309F479C0215098
:1010B00089E1809317018093180185E280931501DF
:1010C00080931601A12CC12C8AE0E82E6CE0CE01A1
:1010D000019615DF2C96EEE00C948417F5018081C3
:1010E0006B010A2E02C0CC0CDD1C0A94E2F7C82268
:1010F000CC2091F088248394912C8C0E9D1E840E1C
:10110000911CF40190816B01022E02C0CC0CDD1CFD
:101110000A94E2F79C2990839FEF920F21110EC051
:1011200091E0940F9C3008F4492F21E030E02C0F1F
:101130003D1F290F311DF901108297E0292F1197CA
:1011400008F0B0CF082E82958025082E86958695CA
:1011500080258F5F81FF0FC0A1E0B0E0AC0FBD1F05
:10116000A40FB11D8C919B01092E01C0220F0A947E
:10117000EAF7822B8C932FEF290F91110DC081E09C
:10118000840F8C3008F4482FA1E0B0E0AC0FBD1FF5
:10119000A80FB11D1C9227E03FEF631A730A7DCFA1
:1011A0004F5F27E085CFACE0B0E0E9EDF8E00C94CC
:1011B0007217162F042F4BE0BE016F5F7F4F019611
:1011C000DDDC682F202F412FCE0101964CDF2C96BD
:1011D000E4E00C948E1743E066E0E5CFAF92CF9247
:1011E000EF920F93CF93DF93CDB7DEB72C970FB667
:1011F000F894DEBF0FBECDBF4BE0BE016F5F7F4FE7
:101200000296BCDC8530C1F48EE3809318018CE13A
:101210008093170181E2809316018AE38093150180
:1012200085E2A82E9AEFC92EE12C05E024E044E0E7
:1012300068E0CE01019663DE2C960FB6F894DEBF0F
:101240000FBECDBFDF91CF910F91EF90CF90AF90B8
:101250000895A0E0B0E0EFE2F9E00C946C17FC0117
:1012600010922E014181440F440F440F8381481B8B
:1012700087E0C82EC40E10922F0120E030E047E036
:1012800057E070E080E097E0E92EF12C01E010E0FB
:10129000DD24D394D80E8C1580F020933B0130933D
:1012A0002E01CD14A0F5653409F088C04F3F09F038
:1012B00085C02F5F20933B0183C0DF01A70FB11DC5
:1012C00014968C9190E0052E02C0959587950A940E
:1012D000E2F78170552369F051506B34D1F44330FB
:1012E00059F4332371F030E0811155C04150832F00
:1012F0001EC07F5F57E0F1CF4F3FB1F781110FC0A4
:101300002FC0811114C020933B0110922E0180E068
:101310005DC04F3F51F5663469F0653479F32F5F56
:10132000A22FB0E0A15DBE4F1C92832F47E0382F63
:101330008D2DAECFA22FB0E0A15DBE4FAC910A2E95
:10134000A295A0250A2EA695A695A02590E0AF5FB0
:10135000A695A170CA2FA12CDA2D8C179D07F9F242
:1013600020933B0130932E01D2CF882309F4BECFC6
:10137000663471F4A22FB0E0A15DBE4FBC90C801ED
:10138000042E01C0880F0A94EAF78B298C93AECF04
:10139000653409F0ABCFA22FB0E0A15DBE4FC7010D
:1013A000841B910947FD9395580102C0AA0CBB1CF0
:1013B0008A95E2F7C5019C91892BE8CF311179CF4D
:1013C00081E090913B01992309F4A1CFCDB7DEB71D
:1013D000EAE00C94881710926F0080913E0190E033
:1013E00064E170E00E943917FC01E15CFE4F10825D
:1013F0000895FC0181818C3008F0EDCF9381662344
:1014000081F0DF01A80FB11D41E050E0092E01C0BD
:10141000440F0A94EAF714962C911497242B1496EF
:101420002C93992319F091509383089597E0938317
:101430008F5F8183E80FF11D1482089570E030E022
:10144000FB01E21BF30B3B967797A0F490E050E092
:10145000FC01E41BF50B3B96779760F4680F791F4E
:10146000240F351F621B730B655F7F4F81E067316F
:10147000710508F080E008953E9A46983F98EAE6A4
:10148000F0E080818160808382EC91E09093140190
:1014900080931301109253011092080108958091D6
:1014A0001A01882311F0A8D839C8A1C8FC0181818C
:1014B00081110BC080911A015DDB40E265E08091F3
:1014C000130190911401D6DAD1CA41E06AE171E0CA
:1014D000CF01019653DBE3CF9B01411101C0089579
:1014E0004150F901E40FF11D9081890FF6CF9C0165
:1014F00080E0611101C008956150F901E60FF11D0E
:1015000090818927F6CFAC01F0912E01362F85E02E
:1015100090E0311105C0890F8295807F892B089555
:101520007FEF730FDA01A70FB11D2C91E22FE29527
:10153000EF709E278E0FFF2311F0361719F02F70D2
:101540009227820F372FE5CFFC0122813381A081C2
:10155000B181A20FB11D8C9190E0032E02C0959530
:1015600087950A94E2F781709FEF930F938331116F
:1015700004C02F5F228397E093830895A0E0B0E03A
:10158000E4ECFAE00C946D17D82EC92EE42E062F49
:1015900010E0E801F12CBB24B394209731F48F2D97
:1015A000CDB7DEB7E9E00C9489178D2D9C2DCCDFEB
:1015B000AE0141505109882349F0EE2049F02B2D0E
:1015C000042E01C0220F0A94EAF7F22AEA01E5CFBD
:1015D00098012C1B3D0B8B2D01C0880F2A95EAF733
:1015E000282FF3CFA4E0B0E0E8EFFAE00C946C17FA
:1015F000FC011B8287E08C83CF0104969A83898348
:1016000010923B01818190E023E0880F991F2A9579
:10161000E1F7438127E030E0241B3109820F931F5B
:10162000853491050CF04FC080E049C0CE01019691
:10163000A5DFA82EED2DF0E0E15DFE4F8083C82EE2
:101640000C2CC294C0240C2CC694C694C024CE0189
:1016500001967ADF90E0C394C1FAEE24E0F8F12C11
:101660008E159F0509F7CE0101966EDF8111DCCF43
:10167000BA24D394D0923B01D0903B0185E040E066
:1016800068E08D1598F6CE01019678DFE82EF82EE9
:101690000F2CF294F0240F2CF694F694F024CE0143
:1016A000019652DF90E0F394F1FA002700F910E080
:1016B0008017910709F0B8CF81E0BE10B5CF24960E
:1016C000EAE00C948817B12CD7CFA4E0B0E0EBE6A9
:1016D000FBE00C947317FC011B8287E08C83CF0125
:1016E00004969A83898381818430D1F48381813007
:1016F000B9F410E010933B0141E01430B1F467E01D
:10170000CE0101963BDF880F8093330185E0809303
:101710003B0190912F0192959F7081E09A3009F0E2
:1017200080E02496E3E00C948F1711110CC067E061
:10173000CE01019623DF8068E12FF0E0E15DFE4FEE
:1017400080831F5FD7CF68E0CE01019617DFF4CF0B
:101750008091190180FD03C0846080931901089570
:10176000A1E0B0E0E6EBFBE00C946F1719828091EA
:101770001B01811110921B0180913C01882309F407
:10178000A2C1449A80913D0190E064E170E00E9422
:1017900039178C01015C1E4F898181117CC066E480
:1017A000C80157DD8823B9F0F0903B01FA94F0921C
:1017B0003B014F2D6FE271E086E08EDEEF2DF0E011
:1017C000E15DFE4FE080E81255C023E086E42F156E
:1017D00008F4D6C0198265E4C8013BDD8111D2C08E
:1017E000C80100DF8111E0C0C8016FDF8111DEC0D8
:1017F000F8016389E0901C01262F4E2D82891EDEA0
:10180000682FC801F6DD6BE4C80123DD8111D0C06B
:10181000F801838191E0980F9383873029F4F801D0
:101820008181138281508183F8018181843099F50F
:10183000F8018381843079F52EE14CE36189808958
:10184000FDDD882341F12EE14E2DF8016389828967
:10185000F5DD682FC801CDDD85E0F8013496AFE2F3
:10186000B1E001900D928A95E1F785E080933B010C
:1018700082E586C0282F30E02F5F3F4F4E2D50E08D
:101880002417350709F070C033E03F1508F0A2CFE8
:1018900096E499838083E980EE2009F4FDC0D0901E
:1018A0001A01D0FEF9C0809119018A7F8093190135
:1018B0008D2D8270811125C0F0903B0190912D01FA
:1018C000A1E2B1E0EFE2F1E09F1509F494C04F2DE1
:1018D00050E06FE271E081E291E00E949B17F0928C
:1018E0002D0180910B0190910C01A0910D01B091FF
:1018F0000E0180931D0190931E01A0931F01B093D0
:101900002001F4E5EF1298C0D6FC1BC080913B018A
:101910008530B8F0809131018B3471F0893661F0F7
:101920009DEA980F923040F08D57823028F08091D8
:1019300032018077803729F480911901816080938A
:101940001901B801CE01019603DF8091700188234F
:1019500009F476C080917701811172C080911901DC
:101960008B7F809319016CC04F2D6FE271E08CE08A
:10197000B3DDE8122FCF83E08F1508F02BCF84E57D
:10198000898389CF80913B01815080933B018930CD
:1019900009F026CF69E08FE291E0A9DD909138014E
:1019A00089131ECF85E4ECCF88E4EACF84E7E8CF43
:1019B000E0913B01FF24FA94FE0EF0923B016F2D63
:1019C0008FE291E0A0DD90912E012F2D291B330B8A
:1019D000F901E15DFE4F908189131ACF8BE4D0CFDE
:1019E0002D9191918F5F291731F0809119018D7F91
:1019F000809319016CCFF812F3CFF0922D018091F2
:101A00000B0190910C01A0910D01B0910E0140913C
:101A10001D0150911E0160911F0170912001841BD6
:101A2000950BA60BB70B8697A105B10508F04FCF14
:101A3000809119018160DCCFB801CE01019688DE6A
:101A40008091190182FF28C08E2D0E94E3048091AD
:101A50002E01882329F080913B01815080933B0126
:101A6000F12CE0913B01FE1690F180912E0188232C
:101A700049F0F0E0E15DFE4F80818F7040E361E06E
:101A800090E037D880911A0185FF04C084E30E945A
:101A9000140270D80E943605F801108280913C0132
:101AA000815080933C0190913D0181E0890F9130FC
:101AB00009F480E080933D0144988981843519F4CC
:101AC0008FE291E0F1D42196E7E00C948B17EF2D93
:101AD000F0E0E15DFE4F80814DD8F394C2CF1F92BC
:101AE0000F920FB60F9211242F933F934F935F9352
:101AF0006F937F938F939F93AF93BF93EF93FF93D6
:101B000010926F0020913E01A22FB0E0CD0164E160
:101B100070E00E943917FC01E15CFE4F8081833048
:101B200058F0CD0164E170E00E943917FC01E15CDE
:101B3000FE4F8181823090F44EDCFF91EF91BF9196
:101B4000AF919F918F917F916F915F914F913F9155
:101B50002F910F900FBE0F901F90189580913C0110
:101B6000813051F38F5F80933C0181E0820F2130FF
:101B700019F080933E01E1CF10923E01DECF982F05
:101B80008BED890F873138F486EF860F8D3118F48D
:101B900081E0691708F080E008951F920F920FB658
:101BA0000F921124EF92FF920F931F932F933F9365
:101BB0004F935F936F937F938F939F93AF93BF9355
:101BC000CF93DF93EF93FF93809172018230D1F432
:101BD00083E080937201FF91EF91DF91CF91BF91EC
:101BE000AF919F918F917F916F915F914F913F91B5
:101BF0002F911F910F91FF90EF900F900FBE0F90BC
:101C00001F9018950091840010918500E4E01695CE
:101C10000795EA95E1F780913E0190E064E170E07C
:101C20000E943917EC01C15CDE4F8881843031F4A9
:101C30000E3288F20F3438F0CEDBCDCF37991AC090
:101C400000931C01C8CF379B0DC080911C01081B5D
:101C500000931B01109285001092840060E0CE0179
:101C6000C8DBB9CF61E0CE01C4DB109285001092D1
:101C70008400E6CF80911C01081B00931B01109289
:101C800085001092840082E086BBF88010911C01D0
:101C9000F1100FC0153608F09ECF80911B018536DC
:101CA00008F099CF188B898B81E08A8382E0888342
:101CB00092CF00911B0122E0F2125AC0E888F98805
:101CC000202F412F6F2D8E2DB9DB2A818823E9F03B
:101CD0008E2D90E063E070E00E943917810F911D16
:101CE0009595879595958795888B8F2D90E063E0E6
:101CF00070E00E943917800F911D959587959595F5
:101D00008795898B2F5F2A8366CF243078F180EA0C
:101D10009FE090938900809388002C3038F02E2D1E
:101D20002F0D3327331F2536310594F4809171012F
:101D30008823D1F0602F812F22DF8823A9F06E2D18
:101D40008F2D1DDF882381F081E08093720174CF95
:101D500084E088831A8B0B8B198287E08B831C822B
:101D600082E080936F0037CF83E0F3CF188292CF69
:101D7000202F412F6B898A8961DB8823F1F061E094
:101D8000CE0137DB8A8990E063E070E00E9439176A
:101D9000810F911D95958795959587958A8B8B8950
:101DA00090E063E070E00E943917800F911D9595D7
:101DB0008795959587958B8B0ECF202F412F69891D
:101DC00088893CDB8823F1F060E0CE0112DB888952
:101DD00090E063E070E00E943917810F911D9595A6
:101DE000879595958795888B898990E063E070E069
:101DF0000E943917800F911D959587959595879528
:101E0000898BE9CE37E0F31609F4E5CE15CF809142
:101E10003E0190E064E170E00E943917FC01E15C52
:101E2000FE4F8081811107C081E0909175019F3F35
:101E300019F480E0089581E0089580E690E00E9422
:101E40000B068093710181E690E00E940B0680935F
:101E50007001882321F081E280931A0120DB109227
:101E600067010895469A0C946F0446980C946F0489
:101E7000A7E0B0E0EEE3FFE00C946E1730910102B2
:101E800090E0E92FF0E0E959FE4F208121110AC0CE
:101E9000992361F08EEF91E00E9429072796E8E0F0
:101EA0000C948A17321711F09F5FEBCF95E7998357
:101EB00011E0882389F0BE016E5F7F4F8091700131
:101EC0000E94F405BE016C5F7F4F809171010E94FA
:101ED000F40585E58E8316E00E94FC020E947C02D8
:101EE00006E080E891E0BEDF80E093E0BEDF0150D5
:101EF0000111F7CF80E093E0B5DF80E891E0B5DF36
:101F000080E891E0AFDF469887E390E00E942902E5
:101F100083E00E94740445988FE70E94A901809194
:101F20000002810F0E94A901CE0101966C017C0183
:101F3000F70181917F010E94A9018E2D8C198117D3
:101F4000B8F380910002811113C0459A0E947C026F
:101F50008EEF91E00E94290715E18AE30E941402A6
:101F60008F77882319F01150111109C098DA96CF94
:101F70008EEF91E00E9445070E94A901E2CF81E027
:101F80000E947404EACFCF93DF93EC018981811121
:101F90000DC0809171010E94BA05809170010E946C
:101FA000BA050E943605DF91CF910895863681F4F7
:101FB0002296A7E6B1E0E0E08991882321F08D9395
:101FC000EF5FE530C9F7F0E0E959FE4F1082EBCF43
:101FD0008936D9F441E061E771E0CE0102960E94B2
:101FE000BE056091710180E690E00E94060641E026
:101FF00060E771E0CE0104960E94BE056091700119
:1020000081E690E00E940606CECF8EEF91E00E941E
:10201000290721966991611103C080E029DFC3CFB0
:102020008EEF91E00E942E07F5CFA1E0B0E0EAE14B
:10203000F0E154C7809172018823A1F0C0900B0198
:10204000D0900C01E0900D01F0900E01833009F06A
:1020500063C08FE30E941402182F863030F41FDA19
:10206000109272012196E8E055C78BEC91E00E9436
:10207000290745988FEF0E94A90180E00E94A901DD
:10208000082F115080E00E94A901682F8BEC91E08D
:102090000E942E0711501111F5CF459A00DA1092C7
:1020A00072010537F9F641E0BE016F5F7F4F8EEC9C
:1020B00091E00E94BE05019751F5998180917101CF
:1020C000981325C08091CD019091D2019535C1F032
:1020D00084508093CD0184E08093CC016AE08BEC46
:1020E00091E00E942E07E0913302F091340288E0E3
:1020F0000995B8CF8BEC91E00E9445070E94E3045C
:102100008091CD018111F6CF0E943605ABCF8BECCB
:1021100091E00E942907A6CF823041F480916F019F
:102120009C2D981B983008F49DCF99CF813009F0F1
:1021300099CF87E390E00E9429020E948E0282E0FC
:1021400080937201C0926F018DCF61DE882319F0F8
:1021500083E080936D0180916D01815080936D01CA
:10216000882321F083E080936E01089581E080CE82
:10217000109274011092CA0183E0809378018FEF6E
:10218000809375010895DC01E9E7F1E08081811118
:102190000EC0AB2B29F581E0E33CF80719F010F0F5
:1021A000E3ECF1E0CF010895E80FF11DEFCF91E0EE
:1021B000E33CF90770F71097B9F321819C9129133B
:1021C000F3CF228111969C911197291759F3E80FAB
:1021D000F11D8081882321F091E0E33CF90768F349
:1021E000E0E0F0E0DFCF84EC91E0CDDFDC01892B93
:1021F00099F0E09178018C91E81770F4EA0FFB2FC9
:10220000F11D80818093C60189E78093C701818198
:102210008093C80181E0089580E008950F931F9393
:10222000CF93DF938C0180911A0186FF15C084E55E
:102230000E94E304E8010B5F1F4F89910E94BA05D9
:10224000C017D107D1F780911A0185FF03C08AEF2B
:102250000E94BA050E943605DF91CF911F910F9120
:10226000089586E30E9425028091C601833579F4A2
:102270008BE90E94740421E04CE065E084EC91E07D
:102280000E9433080E948E0284EC91E0C7CF8BE459
:10229000F0CFE7DF8091C601893631F081E080938D
:1022A000C30189E280937501089585E390E00E945F
:1022B0000B068093770186E390E00E940B068093E3
:1022C000760156DF109279010895A6E0B0E0EAE6C3
:1022D000F1E1FFC57C016C018FEFC81AD80A45E017
:1022E000BE016F5F7F4FC6010E94BE05843008F0BB
:1022F0007BC099819130C9F4833071F46A8185E3A0
:1023000090E00E9406066B8186E390E00E9406063C
:10231000CCDF2696EDE0F9C5809177010E94BA05E1
:10232000809176010E94BA0535C0923009F051C003
:10233000EE24E394813031F081E09A81913009F00C
:1023400080E0E82E80917901811104C08CEB91E04E
:102350000E94290509E711E015C091E00937190726
:1023600019F080E20E94E304F80181810E94BA051D
:10237000F80182810E94BA05E1100FC0F801808146
:10238000080F111DF8018081882321F0F1E0033C42
:102390001F0718F30E943605BCCF8AE30E94E304AE
:1023A00093E0F92EF8018081F81640F7F3E0FF166C
:1023B00029F0F0FE03C08CE20E94E304DD24D394F4
:1023C000DF0CF801EF0DF11D80810E94BA05FD2C94
:1023D000E9CF9330F9F680E090E0D5DE895791405F
:1023E0009AE4981B892F9ECF80E090E0CCDE8C0190
:1023F000F60101900020E9F73197EC19FD09F695F7
:10240000E7957E2EDD24D394DE0EC8018D0D911D3F
:10241000895791408B3491052CF080EC91E00E941B
:10242000290577CFF801D0825801CC24C3948C2D94
:10243000880F8150CD1478F0F1E0033C1F0708F0BD
:1024400068CF8FEFED2D781201C0E1E0E00FF12FA2
:10245000F11D10825ECF4501FFEF8F1A9F0A41E008
:10246000B4018E0D9F2D911D0E94BE0582E08C153A
:1024700048F4C0FC07C0F5018081843619F48181DD
:1024800080937301C3945401D2CF8091C3018823F8
:1024900051F0E7DE89E2809375018091C30181509C
:1024A0008093C301089564CEFF920F931F93CF933F
:1024B000DF93FC01F080D181C281138104818FE51B
:1024C000809375011092C3018091770190917601FC
:1024D000892B882351F18091C4018F1104C0809110
:1024E000C5018D1729F044DEF092C401D093C501D7
:1024F000D0917401DF3FC9F0C093C6011093C701AA
:102500000093C801CC2351F1D1111EC080917701F5
:10251000801779F0043669F08DEA8C0F823010F064
:10252000CD3749F48FEF80937401CDB7DEB7E5E086
:10253000F4C4C435D1F3812F807F8036B1F71067A2
:102540001093C701A6DEF1CF4EDE8091CA01882329
:1025500079F08335B9F08C17D1F008C044DE8D2BAB
:10256000882319F38091CA01882311F001DEDDCFA1
:10257000ED2FF0E0EA53FE4FE491E335F1F0CE1792
:1025800011F1F4CFC435B9F4DE5FD09374018091BA
:1025900078018E5F8093780126DE882309F44CC091
:1025A0008091C6018093CA01843661F680917301DF
:1025B0008093C801C7CFC335CFCFC43509F03AC027
:1025C000DE5FD093740180917401E82FF0E0E9534D
:1025D000FE4F14911F3F21F31093C60197E790938C
:1025E000C701909177019093C8018E5F8093740129
:1025F0001092CA018E30D1F484EC91E0C4DDDC018C
:10260000892B99F02C9130E083EC91E0821B930BA5
:10261000ED01C817D907B0F08A179B07C8F08A1BCD
:102620009B0B8A0F9B1FFC011082A2DD112309F472
:102630007CCF88CFC335A4CF809174018E5F809307
:102640007401C1CFFE01E20FF31F40814993E1CF36
:1026500080E090E0E6CF0F931F93CF93DF93EC01E0
:1026600000E0802F90E063E070E003D49C01FC0167
:10267000EC58FF4F1491812FF901EB58FF4F259132
:102680003491112389F0209741F480E20E94E30401
:10269000812F0E94E3040F5FE4CF98819113FBCF59
:1026A000CE01F901099581E0DF91CF911F910F9142
:1026B0000895CF93C0911101809311018091CD01B4
:1026C000811104C0C0931101CF9108958BEC91E06A
:1026D0000E94450720913502309136028A3011F070
:1026E0008D3011F52115310549F3295C3D4FF90174
:1026F000108287E392E0AFDF811111C08CEE91E090
:102700000E94290587E392E00E941E0584ED91E076
:102710000E94290580E090E09EDF0E94360510921D
:10272000360210923502CACF2033310538F6A9019E
:102730004F5F5F4F5093360240933502295C3D4F07
:10274000F9018083BBCFE4E6F0E080818B7F80835A
:10275000299A84B1876084B9239880E58CBD8DB5B2
:1027600081608DBD0895A2E0B0E0E8EBF3E1BCC369
:102770008CE692E0FC0101962091F100208322E09A
:1027800084379207B9F780916C0290916D029A306C
:1027900008F01CC1E92FF0E0E454F84E8FC38038F4
:1027A00079F0823809F012C1809170028093E900BB
:1027B0008091EB0085FB882780F91092E90006C024
:1027C0008091680290916902911182609091E80075
:1027D000977F9093E8008093F1001092F100809130
:1027E000E800982F9E7F9093E8008F778093E80011
:1027F0008091E80082FF05C08091E800982F9B7FC0
:1028000034C080916B028111F3CF8091E80083FF87
:102810000AC08091EB0080628093EB008091E80019
:10282000877F8093E8002296E2E07AC381110BC093
:1028300080916E02813049F781E0933009F080E0A9
:102840008093690207C0823009F0C0C080916E0297
:10285000882389F01092E9008091E800877F8093B7
:10286000E8008091E800982F9E7F9093E8008F7792
:102870008093E800CACF809170028770882329F284
:102880008093E9002091EB0020FFE4CF9130B9F470
:102890009091EB0090619093EB0021E030E0A90172
:1028A00002C0440F551F8A95E2F74093EA00109248
:1028B000EA008091EB0088608093EB00CBCF8091A1
:1028C000EB008062F9CF811181C080916E029091FE
:1028D000E800977F9093E8009091E800292F2E7FE1
:1028E0002093E8009F779093E8009091E80090FF94
:1028F0000CC0982F9F7780688093E300992309F498
:1029000084CF83E080936B0280CF90916B02911112
:10291000ECCF7BCF8058823008F058C0AE014F5FBB
:102920005F4F6091700280916E0290916F020E94E1
:102930006F01BC01892B09F468CF8091E800877F83
:102940008093E80089819A8107D156CF8038F1F5CC
:102950008091E800877F8093E80080916A028093ED
:10296000F1008091E800982F9E7F9093E8008F7788
:102970008093E8008091E80082FD3ECF80916B0259
:102980008111F8CF42CF811121C090916E02923017
:1029900008F03BCF8091E800877F8093E800909318
:1029A0006A028091E800982F9E7F9093E8008F77CD
:1029B0008093E80080916A02882331F084E080935C
:1029C0006B020E946A0321CF83E0F9CF0E94820349
:1029D0001CCF8093E900EBEEF0E080818160808382
:1029E000EDEEF0E010826093EC0040838091EE0009
:1029F000881F8827881F08951092F40080E0809334
:102A0000E9001092F0001092E8009091ED009D7F97
:102A10009093ED009091EB009E7F9093EB008F5F81
:102A2000853069F7089580916C0287FF17C0809107
:102A3000E80082FF0AC08091E800982F9B7F909366
:102A4000E8008F778093E80004C080916B028111C9
:102A5000EECF089580916B028823D9F38091E8002E
:102A600080FFF8CF8091E800982F9E7FE8CF95E611
:102A70008091EC008170882331F08091E80080FF24
:102A800006C080E008952091E80022FD19C08091E1
:102A90006B02882391F08091EB0085FD10C080913E
:102AA000E10082FFE5CF8091E1008B7F8093E10020
:102AB00091509111DDCF83E0089582E0089581E087
:102AC000089520917202309173026217730708F41F
:102AD0009B0150E02115310541F4511106C0809150
:102AE000E80082FF31C080E008954091E80043FD96
:102AF00031C04091E80042FDF2CF40916B02442387
:102B000039F14091E80040FFE5CF2115310521F072
:102B10004091F200483080F04091F20051E048309E
:102B200009F050E04091E800642F6E7F6093E80068
:102B30004F774093E800CECFFC0181918093F10064
:102B400021503109CF01E1CF80916B028111C7CFB4
:102B500082E0089581E0089520917202309173021D
:102B60006217730708F49B0150E02115310541F409
:102B7000511106C08091E80082FF32C080E00895C4
:102B80004091E80043FD32C04091E80042FDF2CFA1
:102B900040916B02442341F14091E800FC0140FF69
:102BA000E4CF2115310521F08091F200883088F0C2
:102BB000CF014091F20051E0483009F050E04091DF
:102BC000E800642F6E7F6093E8004F774093E80041
:102BD000CCCF84918093F100215031093196E1CF1F
:102BE00080916B028111C6CF82E0089581E0089543
:102BF0009B012115310531F48091E80080FF28C048
:102C000080E008954091E80043FD28C040916B02A8
:102C1000442311F14091E80042FFF4CF4091F200CB
:102C2000FC0141110BC08091E800982F9B7F90938D
:102C3000E8008F778093E800CF01DBCF8091F1002F
:102C40008193215031092115310569F3CF01E6CF78
:102C500080916B028111D0CF82E0089581E00895C8
:102C600053D055D010926B0210926A0210926902F2
:102C70001092680219BC89B5826089BD09B400FE52
:102C8000FDCF8091D800982F9F779093D8008068CF
:102C90008093D800809163008E7F80936300809141
:102CA000D8008F7D8093D8008091E0008E7F809344
:102CB000E0008091E1008E7F8093E1008091E2004E
:102CC00081608093E2008091E100877F8093E10042
:102CD0008091E20088608093E2000895C1DF81E086
:102CE0008093740278940895BBDFE0EEF0E0808179
:102CF00081608083E8EDF0E080818F77808319BC6C
:102D000010927402089508951092E20008951092AE
:102D1000E10008951F920F920FB60F9211242F9386
:102D20003F934F935F936F937F938F939F93AF9353
:102D3000BF93EF93FF938091E10080FF1CC08091CF
:102D4000E20080FF18C08091E1008E7F8093E10057
:102D50008091E2008E7F8093E2008091E2008061AA
:102D60008093E2008091D80080628093D80019BCE3
:102D700010926B02C8DF8091E10084FF27C0809130
:102D8000E20084FF23C019BC89B5826089BD89B582
:102D900081708823E1F39091D8009F7D9093D800B3
:102DA0009091E1009F7E9093E1009091E2009F7EE0
:102DB0009093E2009091E20091609093E2009091F4
:102DC0006A02911184E080936B029DDF8091E100A3
:102DD00083FF23C08091E20083FF1FC08091E10048
:102DE000877F8093E10082E080936B0210926A02F9
:102DF0008091E1008E7F8093E1008091E2008E7FE0
:102E00008093E2008091E20080618093E200F4DD33
:102E100042E060E080E0DDDD76DFFF91EF91BF9181
:102E2000AF919F918F917F916F915F914F913F9162
:102E30002F910F900FBE0F901F901895CF938091F8
:102E40006B02882359F0C091E900C7701092E90025
:102E50008091E80083FD87DCC093E900CF9108955D
:102E6000002480FD060E660F11F08695D1F7802DA7
:102E700008950024552704C0080E591F880F991F74
:102E8000009729F076956795B8F37105B9F7802D0D
:102E9000952F0895AA1BBB1B51E107C0AA1FBB1F9A
:102EA000A617B70710F0A61BB70B881F991F5A95D6
:102EB000A9F780959095BC01CD010895EE0FFF1FF5
:102EC0000590F491E02D09942F923F924F925F92DA
:102ED0006F927F928F929F92AF92BF92CF92DF922A
:102EE000EF92FF920F931F93CF93DF93CDB7DEB78F
:102EF000CA1BDB0B0FB6F894DEBF0FBECDBF099423
:102F00002A88398848885F846E847D848C849B8479
:102F1000AA84B984C884DF80EE80FD800C811B8187
:102F2000AA81B981CE0FD11D0FB6F894DEBF0FBEB6
:102F3000CDBFED010895FB01DC0102C001900D92AF
:102F400041505040D8F70895F999FECF92BD81BD08
:102F5000F89A992780B50895262FF999FECF1FBAC0
:102F600092BD81BD20BD0FB6F894FA9AF99A0FBEB2
:102F700001960895F894FFCFCF131614E614161493
:0C2F8000E61463148A14E614A614C314AB
:082F8C0080250000000008028E
:00000001FF
