:1000000007C2000021C200001FC200000C94EF12C2
:100010001BC2000019C2000017C2000015C2000078
:1000200013C2000011C200000FC200000C94DE2AAF
:100030000BC2000009C2000007C200000C9481122C
:1000400003C2000001C20000FFC1000011C5000092
:10005000FBC10000F9C10000F7C10000F5C10000BC
:10006000F3C10000F1C10000EFC10000EDC10000CC
:10007000EBC1000041F11742E80843C203651109D2
:10008000462C0B472F0B68910C69041E4BDF0B4C61
:1000900024066CD7084D6D0B6DD627525308546259
:1000A00023749605555E0C753815565109579508F9
:1000B00058050E7889035931205A6E1A7A4E1D0060
:1000C00000002A03430055004C0034003300330085
:1000D00000002A03430055004C0038003600380069
:1000E0000000160362007500730077006100720063
:1000F00065002E0064006500000004030904090285
:1001000043000201008032090400000102020100E4
:10011000052400011005240103010424020605241E
:10012000060001070582030800FF09040100020A16
:10013000000000070504024000000705830240009C
:10014000001201100102000008EB034B2000000127
:10015000020001202F2000203D2000072E050DD396
:1001600091FF080500000C0021656A2D3B1322F861
:1001700062073F181D1CC700B0876BF8B611EA2A4A
:10018000001F41000D2E2D07D3913D0432000006C3
:100190000021656A55E43023B900070018146C0784
:1001A0000090876BF85611E92A001F410000030FE9
:1001B0001E2627000000030F1E2536386700030F98
:1001C000256740605000030F275188838100030F8B
:1001D0002750C8C3C20027000000000000006700CD
:1001E000000000000000500000000000000081003E
:1001F000000000000000C2000000000000504C4C55
:10020000310D0A00504C4C300D0A005620312E366C
:10021000382043554C383638005620312E36382099
:1002200043554C3433330043554C5F563400202F34
:100230002000203D20004C4F56460D0A00424F56EC
:10024000460D0A004552523A4343410D0A000B083D
:10025000105B11F81547191D1A1C1BC71C001DB295
:1002600021B623EA0007022E030D04E905CA070C94
:100270000B060D210E650F6A10C811931203153479
:100280001733181819161B43215625002611295912
:100290002C812D353EC34C454E4552520D0A004C23
:1002A0004F56460D0A004C454E4552520D0A00006D
:1002B00007024604C605260B0610C8119312031345
:1002C000221534173F182819161B432156250026DE
:1002D000110D210E650F6A070C160720F81E871FE7
:1002E0006B29592C812D353EC3FF000001022E03DE
:1002F0000104AA050F06FF070008000B060D210EDA
:10030000740FAD104B11F81216137215411818190D
:10031000161B0323E9242A2500261F3E5000010254
:100320002E030104AA050F06FF070008000B060DA7
:10033000210E660F6610CA11931206135215351856
:100340001819161B0323E9242A2500261F3E5000F6
:1003500001022E0301045505F006FF070008000BFB
:10036000060D210E660F9910591183121E13521596
:1003700035181819161B0323E9242A2500261F3EC9
:10038000500D2E2D07D3913D04320000060010B011
:100390007155E43023B900070018146C07009087EA
:1003A0006BF85611E92A001F41000D2E2D07D3913D
:1003B0003D04320000060010ABA5550A3023B900F9
:1003C000070018146C070090876BF85611E92A0093
:1003D0001F41004E2F4100454F420D0A004E2F4154
:1003E000004E2F410000535300547D7DFFFF4B4BC7
:1003F0007E7E0020697320756E6B6E6F776E29208C
:10040000557365206F6E65206F66003F20280000E1
:1004100011241FBECFEFD4E0DEBFCDBF11E0A0E0BE
:10042000B1E0E0ECFAE502C005900D92A032B10710
:10043000D9F724E0A0E2B1E001C01D92A236B207D4
:10044000E1F70CD00C94542DDBCDF89481E085BFFE
:1004500082E085BFE0E0F8E30995089588E19FE038
:100460000FB6F894A895809360000FBE909360003B
:1004700080E890E00FB6F89480936100909361005B
:100480000FBE2E9A2D9A04B603FE0AC083E390E0B5
:10049000F2D5882329F060E083E390E0E7D5D5DF4B
:1004A00089EF87BD84E085BD82E084BD80936E00C6
:1004B000109280008AE08093810084B7877F84BF98
:1004C0003D9A0E94A427DAD60E94C22A0E941B23CA
:1004D0000E94E40D8AE597E290930D0480930C044A
:1004E0000E94921489E080932A0145980E94722B01
:1004F00003D20E94F90F30D30E948A150E947F1602
:100500000E94F8190E94241CF1CF9C01DA01832F6C
:1005100099278230910549F18330910539F001978F
:1005200049F180E090E020E030E00EC0C901992759
:10053000213069F08230910569F0EAEFF0E0892B13
:1005400081F7849190E09F012D933C930895E2EE12
:10055000F0E0F7CF22EC30E01E9B02C022ED30E04D
:10056000E2EDF0E0849190E0EFCF83E490E02EEFB5
:1005700030E0EACF82E190E021E431E0E5CF8EBDCA
:100580000DB407FEFDCF8EB50895EF92FF920F9345
:100590001F93CF93C82F8A3008F0C8E00C2F10E0CB
:1005A00083E0000F111F8A95E1F703551E4F9BE270
:1005B000E92EF12CF8016491C701FFEFEF1AFF0A51
:1005C00055D50F5F1F4F23E3E216F10499F7C5508D
:1005D00061E1C53008F067E184E290E047D5CF9152
:1005E0001F910F91FF90EF9008950F931F93CF935A
:1005F000DF9304E811E0C2E0D0E0F8016491CE019D
:10060000219634D50F5F1F4FCB32D105B1F70BE5E3
:1006100011E0C7E3D0E0F8016491CE01219626D520
:100620000F5F1F4FC036D105B1F71E9918C060E1AA
:100630008FE090E01BD560EB80E190E017D561E79B
:1006400081E190E013D560E184E490E00FD560EBA8
:1006500085E490E00BD561E786E490E007D588E07B
:1006600094DFDF91CF911F910F9108952898806CAE
:1006700086DF80E084DF289A0895CF93C62F2898DC
:1006800080647DDF8C2F7BDF289ACF910895289896
:1006900076DF289A08950F931F93CF93DF93EC0191
:1006A00010922902EA98209A289A8EE190E026D3A7
:1006B00028988EE190E022D3289A8DE290E01ED314
:1006C00080E3E5DF84E690E019D3289880E457DFE3
:1006D0008E01075D1F4FCE012196CDD450DF0C1740
:1006E0001D07C9F7289A28988EE749DFCBE2D0E0AA
:1006F000CE012196C0D443DFC333D105C9F7289A70
:1007000083E3C5DF81E0FFD2DF91CF911F910F918D
:100710000895A1E0B0E0EFE8F3E00C94DB2B22E0D9
:10072000298341E0BE016F5F7F4F01963BD48981F1
:100730002CDF82E090E0AFDF2196E2E00C94F72B13
:10074000CF93EA9886E3A3DFCFEF85E3A0DF80773E
:10075000803231F08AE090E0D1D2C150C111F5CFA2
:10076000CF910895CF93CFEF84E391DF80778031ED
:1007700031F08AE090E0C2D2C150C111F5CFEA9ABF
:10078000CF910895A2E0B0E0E8ECF3E00C94D92B0F
:100790008C01FC0181818737F1F441E0BE016F5F7C
:1007A0007F4FC8010296FED3892BA9F041E0BE011C
:1007B0006E5F7F4FC8010496F5D3892B61F06A8183
:1007C00089815BDF83E363DFCDDF8981E7D38A81C2
:1007D000E5D360D318C041E0BE016E5F7F4FC80112
:1007E0000196E0D3892B79F08A81893981F410E070
:1007F000812F3CDFD3D3812F8770873009F44AD310
:100800001F5F1033A9F72296E4E00C94F52B2EDF3E
:10081000182F83E4E7D28A81C1D387E591E02DD3F5
:10082000812FBCD383E591E028D340E262E0812FA1
:1008300090E034D3CECF86E32ADF109220011092CD
:10084000270210922902089582E090E024DF81E0DF
:1008500080932001109227021092290208950F938D
:100860001F93CF93DF93D82FC0E0062F10E085E3CE
:10087000FDDE8D1759F0C80141D2C150C111F7CF2B
:1008800081E0DF91CF911F910F91089580E0F9CF22
:1008900085E2ECDE8F3311F080E0089586E3F7DE29
:1008A00080912101811112C084E092E0E6D283E3BD
:1008B000EEDE64E081E0D3DF85E2D8DE8F3361F7DE
:1008C00080912101882329F081E008958DE3DFDE06
:1008D000EECF8DEF91E0D1D2F7CF85E3C7DE8D303B
:1008E00051F485E2C3DE8F3331F4D2DF84E3CFDE0F
:1008F00080778031D9F70895809154048430C1F510
:100900008093E90080912201811104C08091E80068
:1009100085FD34C083E08093E9008091C90388237A
:1009200039F18091E80085FF23C0F8948091C903D4
:10093000882329F08091F200803408F43EC0789436
:100940009091F2008091E800282F2E7F2093E800FC
:100950008F778093E800903459F40E948B2980911E
:10096000E800982F9E7F9093E8008F778093E800AF
:1009700008956091F10084E893E0A7D48091F2009B
:100980008111F7CF8091E800982F9B7F9093E8002A
:100990008F778093E80081E0809322018CE794E0D8
:1009A00090930B0480930A04E0910C04F0910D04E1
:1009B00081E0099510922201ADCF87EC93E09CD4A1
:1009C0008093F100B3CF42E061EC82E00E943D29C8
:1009D00042E361E883E00E943D2942E360E884E06D
:1009E0000E943D2910920001109201011092020113
:1009F000109203010895809155049091560491320C
:100A0000B1F0923259F1903291F5813281F58091B5
:100A1000E800877F8093E80067E070E080E091E085
:100A20000E944C2A8091E800982F9E7F11C0813A45
:100A3000F1F48091E800877F8093E80067E070E040
:100A400080E091E00E94B5298091E800982F9B7F7B
:100A50009093E8008F778093E8000895813239F40D
:100A60008091E800877F8093E8000C9467290895BF
:100A70001F921FB61F9211248F939F93AF93BF9322
:100A8000EF93FF938091240190912501A09126017D
:100A9000B09127010196A11DB11D8093240190936F
:100AA0002501A0932601B0932701809123018F5F38
:100AB00080932301E8E8F2E08081918118161906FD
:100AC0001CF4019791838083369682E0E03AF80720
:100AD00099F78091C1029091C202009729F0019785
:100AE0009093C2028093C1028091C5028F3F19F09A
:100AF00081508093C502FF91EF91BF91AF919F917B
:100B00008F911F901FBE1F901895FC018FB7F8940E
:100B10004091240150912501609126017091270197
:100B200040835183628373838FBF0895A4E0B0E054
:100B3000ECE9F5E00C94DB2BCE010196E6DF8C812D
:100B40002DD28B812BD28A8129D2898127D2A2D121
:100B50002496E2E00C94F72B0F931F93CF93809190
:100B6000240190912501A0912601B09127012091A7
:100B70002901281709F457C080912401909125017B
:100B8000A0912601B091270180932901A89508E83A
:100B900012E0C0E0F80180819181892B19F48C2F3B
:100BA0000E949025CF5F0A5F1F4FC43099F7809154
:100BB000C1029091C202892B11F40E94EF2580910D
:100BC000C502811102C00E9446268091220288231C
:100BD00039F0815080932202811102C00E941C16BC
:100BE000809123018D37F8F0109223018091070145
:100BF00081FF04C088B190E2892788B980912C01D7
:100C000090912D018438F3E09F0728F4019690938A
:100C10002D0180932C018091280191E0980F8B3356
:100C200031F090932801CF911F910F910895109268
:100C300028018091C3028F5F8C3318F48093C30224
:100C4000F2CF1092C302EFCFA0E0B0E0EAE2F6E00C
:100C50000C94D52BEC016EE070E00E94332D8D30AA
:100C600009F03DC0459A10912902112331F01092EC
:100C700029028CE191E0C9D711E080912001811116
:100C800001C0E2DD5DDD04E06E018DE0C80ED11C27
:100C90005B9A88EE93E032D07E01EFEFEE1AFE0A07
:100CA000F70181917F015B988133F1F488EE93E045
:100CB00025D05B9A80ED97E021D0EC14FD0481F7FC
:100CC0005B9883E220D001500111E2CF8091330183
:100CD000882389F047DD11110E9409184598CDB786
:100CE000DEB7E8E00C94F12B80ED97E007D05B9A3B
:100CF00088EE93E0E1CF86E3CADCEDCF880F991F41
:100D00000197F1F7089520ED37E0811101C00895B2
:100D1000F9013197F1F78150F8CFCF93DF93FC01C0
:100D20008381843509F055C08081DF0150962DE024
:100D3000281708F451C030E090E0AC014F50510941
:100D40002417350709F045C0EF012396DC011E97F3
:100D5000AC0FBD1F2C912435E1F5348111962C91F7
:100D60001197321336C0358112962C911297321397
:100D700030C0368113962C91139732132AC03781D5
:100D800014962C911497321324C04197C80FD91F81
:100D900015968C911597888316968C911697898352
:100DA00019968C9119978A831A968C911A978B832E
:100DB0001B968C911B978C831C968C911C978D8312
:100DC0001D968C918E8380818A50808382818A5087
:100DD0008283DF91CF9108959D919B3309F4ABCF2E
:100DE0002F5FA6CFCF93C82F80915404843051F544
:100DF00080912A0180FF26C08091C903803408F0C9
:100E00007BDD6C2F87EC93E060D2CA30C1F080911B
:100E100024028823A9F080912A0183FF11C0CD30DC
:100E2000E1F46BE38EED91E050D28EED91E075DF51
:100E300083E08093220282E08093210201C05CDD86
:100E4000CF910895809124028823D1F380912A01C3
:100E500083FFF6CFCA3019F7F3CF6C2F8EED91E0F8
:100E600034D2E6CFCF93DF93EC018991811103C097
:100E7000DF91CF910895B6DFF8CFCF93DF93EC01E8
:100E8000FE018491811103C0DF91CF910895AADF03
:100E90002196F6CF8DE0A6DF8AE0A4CFA6E0B0E0F1
:100EA000E4E5F7E00C94D72BFC01262F1E828E017F
:100EB0000A5F1F4F35E08AE0E82EF12CCF01B70121
:100EC0000E949E2B3150805DD8018E938D01CF0101
:100ED000FB010A97A8F4832F2550622F630F6150FE
:100EE00067FD02C0811110C021E030E02C0F3D1FD2
:100EF000280F311DC901B6DF2696E6E00C94F32BCE
:100F00003111DCCF80E0E8CF8150E1E0F0E0EC0F80
:100F1000FD1FE80FF11D4083E2CFA5E0B0E0E3E95B
:100F2000F7E00C94DB2B9C011D8254E0922F9F7004
:100F30009A3048F5905D8FEF850FE1E0F0E0EC0F1F
:100F4000FD1FE80FF11D9083F90194E0F695E795F8
:100F50009A95E1F72031310598F45550650F6150AD
:100F600067FD02C0811111C021E030E02C0F3D1F50
:100F7000280F311DC90176DF2596E2E00C94F72B8E
:100F8000582F9F01D3CF995CD6CF8150E1E0F0E09C
:100F9000EC0FFD1FE80FF11D4083E1CF40E362E05D
:100FA00090E0BBCFCF93DF93EB01FB0130E020E07B
:100FB000DC019D91992331F0913670F08FE9890F12
:100FC000863030F0CF018C1B9D0BDF91CF910895BF
:100FD00090529753292B05C080ED890F8A3050F429
:100FE000282B332389F021934150442359F330E0D7
:100FF00020E008C08FEB890F863058F3903211F053
:101000009A3301F7CD01D4CF2295207F31E0FACF7A
:10101000382F292FDB0180E090E0E32FF22F219180
:10102000211103C08D939C93089530ED320F3A3017
:1010300040F46AE070E00E948D2B2053330B820F46
:10104000931F3E2F2F2FE9CFFB01982F92959F7072
:10105000803A40F4905D90838F708A3028F4805DF0
:1010600081830895995CF7CF895CFACF0E94462D61
:10107000F999FECF08950C943E2D08950F931F9378
:10108000CF938C01CFEFC60FC801F5DF87DFCC23EC
:1010900031F00F5F1F4F8AE3A5DEC150F5CFCF912E
:1010A0001F910F910895A2E0B0E0E9E5F8E00C94FB
:1010B000D82BFC0181818D3449F466E08AEF93E0FE
:1010C000DDDFE8DE2296E5E00C94F42B803521F498
:1010D00060E18AED93E0F4CF1A82198242E0BE010A
:1010E0006F5F7F4FCF0101965DDF098110E0823095
:1010F00029F409811A81102701271027C801BBDFB5
:10110000F82E82E56FDE40E364E0C80106DF82E38B
:1011100092E0B3DE8F2D42DF8EE292E0AEDE40E25F
:1011200062E08F2D90E0BADECCCFA6E0B0E0EBE934
:10113000F8E00C94D32B6C0143E0CE0101967C01C6
:10114000BC01C60101962EDF8C01BE2CAF2C823073
:10115000D0F0E980F12C823029F0E980FA80FE2479
:10116000EF24FE241127FE01E00FF11F6081C7016B
:101170007DDF000F111F0F5F1F4F0C0D1D1DF801AC
:101180008081811104C02696EAE00C94EF2B41E0A7
:101190006B2D7A2DC80106DF892BA9F39FEFE91A81
:1011A000F90A6981C70162DF0E5F1F4FE8CF41E096
:1011B00067E071E00196F6DE8091070180FF06C0CE
:1011C000459A6091070184E390E050CF4598F9CFAC
:1011D000A1E0B0E0EEEEF8E00C94DB2B1982009772
:1011E00031F041E0BE016F5F7F4F0196DBDE898108
:1011F0008F3F09F4FFCF882321F061E083E390E083
:1012000035DF0E94C82A10926E00F89488E198E0B9
:101210000FB6F894A895809360000FBE909360007D
:10122000FFCFCF93DF93EC0161E080E090E01EDF21
:1012300064E481E090E01ADFD8D960E080E690E0D5
:1012400015DF60E081E690E011DF60E083E390E08D
:101250000DDF62E084E390E009DF60E080E690E08B
:1012600005DF60E081E690E001DF8981883719F0D1
:1012700080E090E0ADDFDF91CF91089580E090E0D5
:10128000FADE813029F481E090E0F5DE843419F053
:1012900080E090E0C6DF84E390E0EDDE809307011C
:1012A0000895FC018181883421F487E292E0E5DD34
:1012B000F1CD89E192E01E9BFACF8BE092E0F7CF6F
:1012C000FC011282108211820895FC019FB7F894EC
:1012D0008281803410F09FBF08958F5F8283A08148
:1012E00081E08A0F8083AE0FBF2FB11D13966C93E0
:1012F000803489F71082EFCFFC019FB7F894828188
:10130000811102C09FBF089581508283A18121E095
:101310002A0F2183AE0FBF2FB11D13968C9120345D
:1013200089F71182EFCFCF93DF93FB01DA019C9114
:10133000882369F0EB01C90FD11D41E050E0022E76
:1013400001C0440F0A94EAF78881842B8883222302
:1013500031F02150822F90E0DF91CF9108959F5F6F
:101360009C3008F49C93E90FF11D108227E0F2CF26
:101370005B9A882399F080912F0190E044E0880FD8
:10138000991F4A95E1F7BADC5B9880912E0190E0B5
:1013900024E0880F991F2A95E1F7B0CC80913101A4
:1013A00090E034E0880F991F3A95E1F7A7DC5B984D
:1013B00080913001ECCFA9E0B0E0E1EEF9E00C94CF
:1013C000CB2B4C01362E842F2F83502EED82642E92
:1013D000712C8E5F602F0E94842B9C2D9A0D890F9B
:1013E000082E000C990B20912C0130912D0128170B
:1013F000390738F486E392E040DD2996E2E10C9467
:10140000E72B281B390B30932D0120932C01459A93
:1014100040902902442039F0109229028CE191E099
:10142000F4D34424439480912001811101C00CDA4B
:1014300087D98C2D90E09C0144E0220F331F4A9500
:10144000E1F73A8329838A2D90E0FC0154E0EE0F06
:10145000FF1F5A95E1F7FC83EB83CA28CE82E32C69
:10146000F12C01E010E0FF81CF2ED12C2E81222320
:1014700041F05B9A89819A8141DC5B988B819C81E8
:101480003DDC1F82EF818E2FEE0F990B8E159F058D
:1014900054F1332011F081E06BDF212C822D022CDE
:1014A000000C990B998788878615970514F127E01A
:1014B000B22E880D991D998788878B2D0B2C000CD7
:1014C000990BC816D9067CF18D811DDC5A945110F8
:1014D000CDCF80913301882399F144D941100E94E6
:1014E000091845988ACF80E043DF3F813F5F3F8303
:1014F000C9CF37E0A32EB12C28853985280D391D99
:1015000039872887C8010A2C01C0880F0A94EAF796
:10151000E885F985908189232BDFF1E0AF1AB108C6
:1015200088F72394BBCFC8010B2C01C0880F0A9405
:10153000EAF7E885F985908189231ADFBA94BDCF4F
:1015400086E3A5D8CBCFADE0B0E0E9EAFAE00C94B1
:10155000CC2B7C01162F842F022F6701C60ED11CC5
:10156000462FB70168D3F60180831F5F1D8619825D
:10157000C12CD12C27E0CE010D9666246394712CEA
:10158000582E492E97E0A92EB12C47018C0C9D1C9A
:10159000C116D8F0222309F442C0215089E180937A
:1015A00030018093310185E280932E0180932F01D9
:1015B000A12CC12C8AE0E82E4D856CE0CE0101966D
:1015C000FADE2D96E1E10C94E82BF4013080C301A2
:1015D0000A2C01C0880F0A94EAF7452D542DBE014C
:1015E0006F5F7F4F83219FDE282FF1E0AF1AB10894
:1015F00078F6032C32943024032C3694369430241D
:10160000339431FA882780F9452D542DBE016F5F40
:101610007F4F89DE282FEFEFCE1ADE0AB3CF8D85FC
:101620008F5F8D8727E0BACFACE0B0E0EAE1FBE066
:101630000C94D92B162F042F4BE0BE016F5F7F4F08
:101640000196B0DC682F202F412FCE0101967BDF61
:101650002C96E4E00C94F52B43E066E0E5CFAF92E6
:10166000CF92EF920F93CF93DF93CDB7DEB7609712
:101670000FB6F894DEBF0FBECDBF40E1BE016F5F75
:101680007F4F01968FDC69814A810B818C81809329
:1016900031018D81809330018E8180932F018F8164
:1016A00080932E01E02EE2948FE0E8220F70242F29
:1016B0002F7042954F70A12CC12CCE0108967BDE75
:1016C00060960FB6F894DEBF0FBECDBFDF91CF910D
:1016D0000F91EF90CF90AF900895A9E1B0E0E3E7CC
:1016E000FBE00C94D12B4BE0BE016F5F7F4F019666
:1016F00059DC182F8930C1F589E18093300180933E
:10170000310180932F0182E380932E0169E0CE01A5
:1017100001969CD2E1E0F0E0EC0FFD1FE10FF11D1E
:101720008083198E1D868E010F5F1F4F7E018BE017
:10173000E80EF11C27E0CE014996CC24C394D12CAD
:10174000982E892EA12CB12C0E151F0589F4222369
:1017500089F12150A12CC12C8AE0E82E03E0498DAB
:101760006CE0CE010D9627DE6996ECE00C94ED2B33
:10177000C6010A2C01C0880F0A94EAF7F80190818B
:10178000492D582DBE01635F7F4F8923CCDD282F63
:10179000FFEFAF1ABF0A88E0A816B104A9F6492DD9
:1017A000582DBE01635F7F4F81E0BDDD282F0F5FA5
:1017B0001F4FC8CF898D8F5F898F27E0CBCFA9E1DD
:1017C000B0E0E5EEFBE00C94CD2B4BE08E010F5F1B
:1017D0001F4FB8010196E6DB782E85E38093310137
:1017E00096E19093300190932F0180932E01672D05
:1017F000C80138D2F801E70DF11D80837394198E6A
:101800001D86780127E06E0189E1C80ED11CAA244B
:10181000A394B12C8E2D801B871570F0A12CC12CA8
:101820008AE0E82E03E0498D6AE0CE010D96C3DD23
:101830006996E0E10C94E92B812C912CF701508002
:10184000C501082C01C0880F0A94EAF7A601BE0161
:10185000635F7F4F852167DD282FFFEF8F1A9F0A77
:101860004C2C6D2C84E08816910441F7A601BE0132
:10187000635F7F4F81E057DD282FC501082C01C031
:10188000880F0A94EAF7442D562DBE01635F7F4FFF
:10189000852149DD282FEFEF8E1A9E0AF8E08F167A
:1018A000910459F7442D562DBE01635F7F4F81E0AF
:1018B0003ADD282F8FEFE81AF80AACCFAF92CF921B
:1018C000EF920F93CF93DF9300D000D0CDB7DEB768
:1018D00043E0BE016F5F7F4F019664DB8AE6809331
:1018E000310194E29093300191E290932F01809323
:1018F0002E0180E88C83A12CC12C8FE0E82E03E020
:1019000026E043E060E0CE01019655DD0F900F9098
:101910000F900F90DF91CF910F91EF90CF90AF90FC
:101920000895AF92CF92EF920F93CF93DF93CDB7FD
:10193000DEB72C970FB6F894DEBF0FBECDBF4BE0DD
:10194000BE016F5F7F4F02962DDB8530C1F48EE3C1
:10195000809331018CE18093300181E280932F01EB
:101960008AE380932E0185E2A82E9AEFC92EE12CFE
:1019700005E024E044E068E0CE0101961CDD2C96F1
:101980000FB6F894DEBF0FBECDBFDF91CF910F91A0
:10199000EF90CF90AF900895A0E0B0E0E2EDFCE0D2
:1019A0000C94D32BFC0110924F014181440F440F42
:1019B000440F8381481B87E0C82EC40E109250014B
:1019C00020E030E047E057E070E080E097E0E92E6B
:1019D000F12C01E010E0DD24D394D80E8C1580F0BA
:1019E0002093640130934F01CD14A0F5653409F0C4
:1019F00088C04F3F09F085C02F5F2093640183C0EA
:101A0000DF01A70FB11D14968C9190E0052E02C046
:101A1000959587950A94E2F78170552369F05150A6
:101A20006B34D1F4433059F4332371F030E0811139
:101A300055C04150832F1EC07F5F57E0F1CF4F3F0D
:101A4000B1F781110FC02FC0811114C02093640120
:101A500010924F0180E05DC04F3F51F5663469F050
:101A6000653479F32F5FA22FB0E0A05BBE4F1C92CC
:101A7000832F47E0382F8D2DAECFA22FB0E0A05B93
:101A8000BE4FAC910A2EA295A0250A2EA695A6952A
:101A9000A02590E0AF5FA695A170CA2FA12CDA2DEA
:101AA0008C179D07F9F22093640130934F01D2CF38
:101AB000882309F4BECF663471F4A22FB0E0A05B96
:101AC000BE4FBC90C801042E01C0880F0A94EAF7EB
:101AD0008B298C93AECF653409F0ABCFA22FB0E049
:101AE000A05BBE4FC701841B910947FD9395580128
:101AF00002C0AA0CBB1C8A95E2F7C5019C91892BF8
:101B0000E8CF311179CF81E090916401992309F4F4
:101B1000A1CFCDB7DEB7EAE00C94EF2B10926F00A7
:101B20008091670190E06CE170E00E948D2BFC01D8
:101B3000E859FE4F1082809132018D7F80933201EF
:101B40000895FC018181843108F0E8CF93816623F8
:101B500081F0DF01A80FB11D41E050E0092E01C066
:101B6000440F0A94EAF714962C911497242B149698
:101B70002C93992319F091509383089597E09383C0
:101B80008F5F8183E80FF11D1482089570E030E0CB
:101B9000FB01E21BF30B3B967797A0F490E050E03B
:101BA000FC01E41BF50B3B96779760F4680F791FF7
:101BB000240F351F621B730B655F7F4F81E0673118
:101BC000710508F080E00895539A5B985298E9E611
:101BD000F0E080818061808382EC91E090932D0120
:101BE00080932C01E8E6F1E0148E10AE1092BC0157
:101BF00010922001089580913301882321F00E94E2
:101C000024040C94B2030C941B04FC018181811107
:101C10000BC080913301C2D940E265E080912C0174
:101C200090912D013BD936C941E063E371E0CF01CA
:101C30000196B8D9E0CF9B01411101C008954150F0
:101C4000F901E40FF11D9081890FF6CF9C0180E02E
:101C5000611101C008956150F901E60FF11D9081F5
:101C60008927F6CFAC01F0914F01362F85E090E047
:101C7000311105C0890F8295807F892B08957FEFF0
:101C8000730FDA01A70FB11D2C91E22FE295EF70CF
:101C90009E278E0FFF2311F0361719F02F70922711
:101CA000820F372FE5CFFC0122813381A081B181E2
:101CB000A20FB11D8C9190E0032E02C095958795DF
:101CC0000A94E2F781709FEF930F9383311104C060
:101CD0002F5F228397E093830895A0E0B0E0E3E7CD
:101CE000FEE00C94D42BD82EC92EE42E062F10E043
:101CF000E801F12CBB24B394209731F48F2DCDB79C
:101D0000DEB7E9E00C94F02B8D2D9C2DCCDFAE01DD
:101D100041505109882349F0EE2049F02B2D042E23
:101D200001C0220F0A94EAF7F22AEA01E5CF9801EE
:101D30002C1B3D0B8B2D01C0880F2A95EAF7282F0D
:101D4000F3CFA4E0B0E0E7EAFEE00C94D32BFC0173
:101D50001B8287E08C83CF0104969A83898310923B
:101D60006401818190E023E0880F991F2A95E1F7B3
:101D7000438127E030E0241B3109820F931F853413
:101D800091050CF04FC080E049C0CE010196A5DF5F
:101D9000A82EED2DF0E0E05BFE4F8083C82E0C2CCA
:101DA000C294C0240C2CC694C694C024CE010196C3
:101DB0007ADF90E0C394C1FAEE24E0F8F12C8E159E
:101DC0009F0509F7CE0101966EDF8111DCCFBA24A1
:101DD000D394D0926401D090640185E040E068E043
:101DE0008D1598F6CE01019678DFE82EF82E0F2C8F
:101DF000F294F0240F2CF694F694F024CE01019680
:101E000052DF90E0F394F1FA002700F910E0801718
:101E1000910709F0B8CF81E0BE10B5CF2496EAE073
:101E20000C94EF2BB12CD7CFA4E0B0E0EAE1FFE0B7
:101E30000C94D52BFC011B8287E08C83CF01049688
:101E40009A8389838081853009F041C0818190E047
:101E500053E0880F991F5A95E1F7438127E030E05E
:101E6000241B3109820F931F8039910581F580E091
:101E70000FE010EF49E8F42E80936401C82ED12CB6
:101E8000EE24E394E80E41E068E08F3029F5CE01BE
:101E9000019623DF080F111D90E190936401809556
:101EA00080935F0141E068E0CE01019616DF90E08B
:101EB000982F8827081B190B41E068E0CE01019696
:101EC0000CDF282F30E081E02017310709F080E097
:101ED0002496E8E00C94F12BCE010196FEDE080F6B
:101EE000111DF601E05BFE4FF826F08234E2F32E7E
:101EF000F80E8E2DC1CFA4E0B0E0E1E8FFE00C9435
:101F0000DA2BFC011B8287E08C83CF0104969A8335
:101F1000898381818430D1F483818130B9F410E0E8
:101F20001093640141E01430B1F467E0CE010196F2
:101F3000D4DE880F8093540185E0809364019091F2
:101F4000500192959F7081E09A3009F080E02496CC
:101F5000E3E00C94F62B11110CC067E0CE01019662
:101F6000BCDE8068E12FF0E0E05BFE4F80831F5F06
:101F7000D7CF68E0CE010196B0DEF4CFFC018181BD
:101F80008330D9F483818730C1F480818830A9F40B
:101F900080E09181891720F08093640181E00895A9
:101FA000282F30E0DF01A20FB31F14969C91205B15
:101FB0003E4FD9019C938F5FECCF80E00895FC01E8
:101FC000908180913201993611F0933771F4982FF6
:101FD0009370913021F4866080933201089580FFE0
:101FE000FDCF809132018B7FF7CF80FDF7CF8460EA
:101FF000F3CFA1E0B0E0EFEFFFE00C94D62B198215
:10200000809134018823A1F18091330187FF14C0AE
:1020100084E30E9436038058803408F444C0803C36
:1020200008F043C08055990BE3E095958795EA95B4
:10203000E1F78F590E94F2068091330183FF16C0A9
:1020400082E70E94F2068091330184FF04C08091F0
:1020500035010E94F20686E60E94F2068091330165
:1020600084FF04C0809134010E94F2061092340172
:1020700080916501882309F4BDC1459A809166016C
:1020800090E06CE170E00E948D2B8C0108591E4F8E
:10209000898181111FC0C80171DF882309F4BFC184
:1020A00083E7898317C080E0C4CF8FE0C2CF83E588
:1020B000F8CF282F30E02F5F3F4F4E2D50E02417F0
:1020C000350709F070C033E03F1508F0C7C196E44A
:1020D00099838083E980D0903301EE2009F4FDC01C
:1020E000D0FEFBC0809132018A7F809332018D2D1A
:1020F0008270811125C0F090640190914E01EAE355
:10210000F1E0A0E5B1E09F1509F493C04F2D50E038
:1021100060E571E08AE391E00E942A2DF0924E0181
:102120008091240190912501A0912601B091270171
:102130008093360190933701A0933801B093390111
:10214000F4E5EF1297C0D6FC1BC080916401853086
:10215000B8F0809152018B3471F0893661F09DEABC
:10216000980F923040F08D57823028F080915301C3
:102170008077803729F48091320181608093320129
:10218000B801CE0101961BDF80912402882309F457
:1021900075C08091C702811171C0809132018B7F1F
:1021A000809332016BC04F2D60E571E08CE043DD20
:1021B000E81254C183E08F1508F050C184E571CF57
:1021C00080916401815080936401893009F04CC191
:1021D00069E080E591E03ADD90915901891344C1AD
:1021E00085E45FCF88E45DCF84E75BCFE091640155
:1021F000FF24FA94FE0EF09264016F2D80E591E0C9
:1022000031DD90914F012F2D291B330BF901E05B3C
:10221000FE4F9081891340C18BE443CF21919D9162
:102220008F5F291731F0809132018D7F80933201C9
:102230006DCFF812F3CFF0924E018091240190916E
:102240002501A0912601B0912701409136015091BE
:1022500037016091380170913901841B950BA60BF1
:10226000B70B8697A105B10508F050CF80913201D8
:102270008160DCCFB801CE010196A1DE80913201F0
:1022800082FF2BC08E2D0E94F20680914F01882381
:1022900029F080916401815080936401F12CE091D8
:1022A0006401FE1608F4AAC080914F01882351F002
:1022B000F0E0E05BFE4F80818F7040E361E090E0F2
:1022C0000E948D078091330185FF05C084E30E9441
:1022D00036030E94CE070E944A078091330182FF95
:1022E00071C080E70E94F206F801808140E262E05E
:1022F00090E00E944E07F801808D90E040E265E09A
:1023000024E0880F991F2A95E1F70E944E07F801F3
:10231000818D90E040E265E034E0880F991F3A95A6
:10232000E1F70E944E07F801828D90E040E265E0FF
:1023300054E0880F991F5A95E1F70E944E07F80163
:10234000838D90E040E265E074E0880F991F7A95F4
:10235000E1F70E944E07F801828140E263E090E0DD
:102360000E944E07F801818140E263E090E00E9404
:102370004E07F801838140E262E027E030E0F90196
:10238000E81BF109CF010E944E0780E20E94F2068D
:102390008091330185FF08C084E30E9436030E94C8
:1023A000CE0780E20E94F206F8018381873019F09F
:1023B00081818F5F8183F12CF8018181F81638F1DA
:1023C0000E944A07F8011082809165018150809334
:1023D00065019091660181E0890F933009F480E0F6
:1023E0008093660145988981843521F480E591E0E8
:1023F0000E9455262196E7E00C94F22BEF2DF0E099
:10240000E05BFE4F80810E94CE07F39448CFF80135
:10241000EF0DF11D84810E94CE07F394CDCFC8014A
:1024200003DD811144CE66E4C801B6DA8823B9F031
:10243000F0906401FA94F09264014F2D60E571E030
:1024400086E0F9DBEF2DF0E0E05BFE4FE080E81284
:1024500030CE23E086E42F1508F423CE198265E4FC
:10246000C8019ADA8111ACCEC8016BDC8111BACEF9
:10247000C80141DD8111B8CEF801638DE0903501CE
:10248000262F4E2D828D82DB682FC8015ADB6BE42C
:10249000C80182DA8111AACEF801838191E0980FF8
:1024A0009383873029F4F8018181138281508183DD
:1024B000F8018181843009F00DCEF80183818430E8
:1024C00009F008CE2EE14CE3618D808D5FDB88231F
:1024D00009F400CE2EE14E2DF801638D828D56DB7E
:1024E000682FC8012EDB85E0F8013496A0E5B1E045
:1024F00001900D928A95E1F785E08093640182E571
:10250000D0CD1F920F920FB60F9211242F933F93AD
:102510004F935F936F937F938F939F93AF93BF93EB
:10252000EF93FF9310926F008091330183FF03C0FC
:102530008EE20E94F20620916701A22FB0E0CD0149
:102540006CE170E00E948D2BFC01E859FE4F808108
:10255000833058F0CD016CE170E00E948D2BFC01BE
:10256000E859FE4F8181823090F4D8DAFF91EF91E3
:10257000BF91AF919F918F917F916F915F914F919B
:102580003F912F910F900FBE0F901F901895809143
:102590006501833049F48091330182FFE6CF8DE3FA
:1025A00092E00E943D07E1CF8F5F8093650181E05B
:1025B000820F233019F080936701D8CF1092670102
:1025C000D5CF982F8BED890F873138F486EF860FA2
:1025D0008D3118F481E0691708F080E008951F92AA
:1025E0000F920FB60F921124EF92FF920F931F9349
:1025F0002F933F934F935F936F937F938F939F930B
:10260000AF93BF93CF93DF93EF93FF938091260215
:102610008230D1F483E080932602FF91EF91DF9125
:10262000CF91BF91AF919F918F917F916F915F916A
:102630004F913F912F911F910F91FF90EF900F902D
:102640000FBE0F901F901895009184001091850087
:10265000E4E016950795EA95E1F78091670190E02F
:102660006CE170E00E948D2BEC01C859DE4F98811F
:10267000943079F40E3288F20F3408F0C1C04A99D0
:1026800041C061E0CE015DDA1092850010928400B5
:1026900004C0953029F04A9908C000933501BDCF98
:1026A000073108F4BACF0732E8CF80913501081B13
:1026B000009334011092850010928400983061F4E8
:1026C0009A81911109C091E09A83888F8A8F098F2E
:1026D0000B3B28F5000F0B8F82E086BB08810111B0
:1026E00020C090913501953608F097CF8091340144
:1026F000853608F092CF988F898F81E08A8382E0B7
:1027000088838BCF80913501081B00933401109290
:1027100085001092840060E0CE0113DA7ECF06952A
:10272000DACF10913401023009F070C0E090350129
:10273000F88C098D212F4E2D602F8F2D27DA2A81BD
:102740008823E9F08F2D90E063E070E00E948D2BEC
:102750008E0D911D9595879595958795888F802FDE
:1027600090E063E070E00E948D2B810F911D9595A4
:10277000879595958795898F2F5F2A834ECF243033
:1027800008F442C080EA9FE090938900809388001B
:102790002C3050F02F2D200F3327331F25363105D5
:1027A0002CF084E0888311C02A30C8F02F2D200F30
:1027B0003327331F2532310594F485E0888388EE72
:1027C00093E09093890080938800EA8E1B8F198292
:1027D00087E08B831C8282E080936F001ECF809104
:1027E0002502882379F0612F8E2DEBDE882351F0AE
:1027F0006F2D802FE6DE882329F081E0809326026A
:102800008DD90BCF83E0CECF18826BCF083009F083
:1028100047C081E9810F8D3100F560E0CE0191D98B
:10282000888D90E063E070E00E948D2B209135014F
:10283000820F911D9595879595958795888F898DA0
:1028400090E063E070E00E948D2B810F911D9595C3
:10285000879595958795898FE0CE173E08F4DDCE54
:1028600061E0CE016ED98A8D90E063E070E00E9455
:102870008D2B20913501820F911D9595879595950A
:1028800087958A8F8B8D90E063E070E00E948D2B9E
:10289000810F911D95958795959587958B8FBDCEC9
:1028A000F0903501212F4F2D6B8D8A8D6FD98823A4
:1028B00061F061E0CE0145D98A8D90E063E070E07F
:1028C0000E948D2B8F0D911DD8CF212F4F2D698DFB
:1028D000888D5CD9882361F060E0CE0132D9888D83
:1028E00090E063E070E00E948D2B8F0D911DA2CFD0
:1028F000073009F492CE84CF8091670190E06CE1BB
:1029000070E00E948D2BFC01E859FE4F80818111FF
:1029100007C081E09091C5029F3F19F480E00895BF
:1029200081E0089580E690E00E943B0880932502B4
:1029300081E690E00E943B0880932402882321F0E6
:1029400081E28093330157D91092D80108955B9AA0
:102950000C947E065B980C947E06A7E0B0E0E3EB57
:10296000F4E10C94D52B3091E10190E0E92FF0E0F7
:10297000E852FE4F208121110AC0992361F08EEDAB
:1029800091E00E9460092796E8E00C94F12B321741
:1029900011F09F5FEBCF95E7998311E0882389F0D1
:1029A000BE016E5F7F4F809124020E942408BE0109
:1029B0006C5F7F4F809125020E94240885E58E83FD
:1029C00016E00E9424040E94A00306E080E891E043
:1029D000BEDF80E093E0BEDF01500111F7CF80E061
:1029E00093E0B5DF80E891E0B5DF80E891E0AFDF0C
:1029F0005B9887E390E00E944B0383E00E9483068C
:102A000028988FE70E94BF028091E001810F0E9409
:102A1000BF02CE0101966C017C01F70181917F011B
:102A20000E94BF028E2D8C198117B8F38091E001AE
:102A3000811113C0289A0E94A0038EED91E00E949C
:102A4000600915E18AE30E9436038F77882319F025
:102A50001150111109C0CFD896CF8EED91E00E9490
:102A60007C090E94BF02E2CF81E00E948306EACF88
:102A7000CF93DF93EC01898181110DC080912502F4
:102A80000E94CE07809124020E94CE070E944A072E
:102A9000DF91CF910895863681F42296A8EDB1E0BA
:102AA000E0E08991882321F08D93EF5FE530C9F74D
:102AB000F0E0E852FE4F1082EBCF8936D9F441E0C6
:102AC00065E272E0CE0102960E94D2076091250273
:102AD00080E690E00E94360841E064E272E0CE01B8
:102AE00004960E94D2076091240281E690E00E9441
:102AF0003608CECF8EED91E00E9460092196699153
:102B0000611103C080E029DFC3CF8EED91E00E9408
:102B10006509F5CFA1E0B0E0E0E9F5E10C94D52B33
:102B2000809126028823A1F0C0902401D090250135
:102B3000E0902601F0902701833009F064C08FE314
:102B40000E943603182F863038F455D8109226028A
:102B50002196E8E00C94F12B84E893E00E94600950
:102B600028988FEF0E94BF0280E00E94BF02082FCA
:102B7000115080E00E94BF02682F84E893E00E9419
:102B8000650911501111F5CF289A35D810922602F7
:102B90000537F1F641E0BE016F5F7F4F87E893E0B4
:102BA0000E94D207019751F59981809125029813CF
:102BB00025C08091860390918B039535C1F0845098
:102BC0008093860384E0809385036AE084E893E041
:102BD0000E946509E0910C04F0910D0488E00995CC
:102BE000B7CF84E893E00E947C090E94F2068091AE
:102BF00086038111F6CF0E944A07AACF84E893E0AA
:102C00000E946009A5CF823041F4809123029C2D5F
:102C1000981B983008F49CCF98CF813009F098CF5A
:102C200087E390E00E944B030E94B20382E080930E
:102C30002602C09223028CCF5FDE882319F083E046
:102C40008093210280912102815080932102882368
:102C500021F083E080932202089581E07ECE0F93DD
:102C60001F93CF93DF93EA98209A289A8EE190E001
:102C70000E947E0628988EE190E00E947E06289AA7
:102C80008DE290E00E947E0680E30E94470384E686
:102C900090E00E947E06C4E6D2E0FE013196649187
:102CA000FE0184910E943D032296F2E0C639DF07BF
:102CB000A1F780912802882379F0CEE4D2E004E6DF
:102CC00012E0FE0131966491FE0184910E943D0361
:102CD00022960C171D07A9F783E30E94470384E09F
:102CE0000E94830684E30E94470385E30E94360323
:102CF0008D30C1F7DF91CF911F910F910895A2E31D
:102D0000B0E0E5E8F6E10C94D82B80912702882307
:102D1000A9F04A9B5EC08FE30E9436038F778983B8
:102D2000823380F08AE30E94470386E30E944703D0
:102D30008DE30E94470384E30E944703E296E5E0A7
:102D40000C94F42B28988FEF0E94BF0210E0898129
:102D5000181708F454C080E00E94BF02F82E80E0EB
:102D60000E94BF02289A84E30E94470385E30E94E1
:102D700036038D30C1F79A8186E789278A830981D6
:102D8000FE01339682E02191801708F444C0802F21
:102D9000023008F482E0E1E0F0E0EC0FFD1FE80F04
:102DA000F11D8B81822780831091330110711123D3
:102DB000D1F181E60E94F20610E0E1E0F0E0EC0FD4
:102DC000FD1FE10FF11D80810E94F2061F5F0117B8
:102DD000A0F785E30E943603813029F0813161F448
:102DE0008AE30E94470386E30E9447038DE30E9423
:102DF000470384E30E9447030E946D049FCF80E055
:102E00000E94BF02E2E0F0E0EC0FFD1FE10FF11DB8
:102E100080831F5F9CCFDF011197945292279C9370
:102E20008F5F922FB0CF81E40E94F206E1E0F0E0E4
:102E3000EC0FFD1FE10FF11D80810E94CE071F5F87
:102E40000117A0F78091330185FF03C08F2D0E94E9
:102E5000CE070E944A07BDCFAAE3B0E0E2E3F7E164
:102E60000C94D52B41E39E012F5F3F4F7901B901AF
:102E700001960E94D207182F8150990B9C018981DD
:102E800090E02817390709F067C080912702811167
:102E900004C0E5DE83E00E9483060B818A8196E709
:102EA00089278A834981DE01129692E09D0111965D
:102EB0008C911197941708F453C0E42F423008F412
:102EC000E2E0EE0DFF2DF11D80278083CE01C79635
:102ED0000E94850585E30E94470385E30E9436032F
:102EE000833109F453C0CE01C3960E9485054BA9D6
:102EF0005CA96DA97EA98FA998ADA9ADBAAD8417BB
:102F00009507A607B707A0F5481B590B6A0B7B0B63
:102F10004D3B510561057105C8F184E492E00E94C2
:102F20003D0785E30E943603863149F48BE30E9416
:102F3000470386E30E9447038DE30E944703809185
:102F40002702882309F44AC084E30E94470385E3EB
:102F50000E9436038D30C1F7EA96E8E00C94F12B1D
:102F60001196F9012081245282278C939F5F9ECF76
:102F7000481759076A077B0748F484549F4FAF4F9F
:102F8000BF4F481759076A077B07C6CF85E30E94E2
:102F90003603833109F09ECF8AE004FF07C088E73B
:102FA0000E94830688E70E94830688E70E948306C2
:102FB00028988FE70E94BF0267018C2D8E19811718
:102FC00038F0289A85E30E9436038331D9F3A9CFDC
:102FD000F60181916F010E94BF02EFCF0E94FB0DAD
:102FE000BBCFFC018181823751F0823551F481E001
:102FF0008093280234DE81E080932702089580E0E8
:10300000F7CF833719F4CF01019626CF109227020C
:1030100008950F931F93CF93DF93EA98209A289AED
:103020008EE190E00E947E0628988EE190E00E945A
:103030007E06289A8DE290E00E947E0680E30E9440
:10304000470384E690E00E947E06CFEAD2E0FE01CC
:10305000849109EE12E0813408F183E30E94470372
:1030600084E00E948306CFEF84E30E9447038077C9
:10307000803139F08AE090E00E947E06C150C11193
:10308000F3CF81E080932902DF91CF911F910F91BF
:1030900008952296FE0184918134F8F6FE0131965E
:1030A0006491FE0184910E943D030C171D0789F76E
:1030B000D4CF4F925F926F927F928F929F92AF92F6
:1030C000BF92EF92FF920F931F93CF93DF93EC0188
:1030D0008B01F880F39420E030E0672B11F024E6B8
:1030E00030E08F2D90E043E0880F991F4A95E1F77B
:1030F0006AE070E00E94B22B620F731F80912C0176
:1031000090912D012C01612C712C4B01072E000C8C
:10311000AA08BB08481459046A047B0498F48FE990
:1031200092E00E943D07DF91CF911F910F91FF9098
:10313000EF90BF90AF909F908F907F906F905F9037
:103140004F900895861B970B90932D0180932C012F
:1031500080912902811101C05CDF85E30E94360362
:103160008D30C1F08AE50E94F20685E40E94F206E5
:1031700082E50E94F20682E50E94F20681E30E9447
:10318000F20685E30E9436030E94CE070E944A079A
:1031900040DFC9CF80912A0290912B02A0912C028E
:1031A000B0912D02892B8A2B8B2BC1F40E94A00396
:1031B00085E30E9436038331B9F18AE50E94F20665
:1031C00085E40E94F20682E50E94F20682E50E94F2
:1031D000F20682E3D4CF81E00E948306409124016D
:1031E00050912501609126017091270180912A025A
:1031F00090912B02A0912C02B0912D0248175907F3
:103200006A077B0741F340912401509125016091A9
:103210002601709127010196A11DB11D8417950704
:10322000A607B707C1F2C2CF012B51F00AE010E0A8
:1032300084E60E9483060150110901151105C1F7AA
:1032400028988FE70E94BF02EC2E0C2F1D2F802F95
:103250008E198F1508F445C0289AC8EC85E30E94A2
:1032600036038D3059F085E30E943603833131F403
:1032700081E00E948306C150C111F0CF85E30E9416
:1032800036038D30B9F08AE50E94F20685E40E948B
:10329000F20682E50E94F20682E50E94F20683E3CE
:1032A0000E94F20685E30E9436030E94CE070E9428
:1032B0004A07AFDE80912902811102C00E94FB0DF6
:1032C0008091240190912501A0912601B0912701C0
:1032D00080932A0290932B02A0932C02B0932D028C
:1032E00022CFF80181918F010E94BF02B0CFACE0E4
:1032F000B0E0EDE7F9E10C94D72BFC018BE089837A
:1033000081818A831B8282E08C8387818D83808583
:103310008E8381858F838481888785818987868153
:103320008A871B861C8684E10E94830660E070E029
:10333000CE010196BEDE8AE50E94F2068E010F5F85
:103340001F4F7E018DE0E80EF11CF80181918F0185
:103350000E94CE07E016F106C1F78091330185FF88
:1033600003C080E00E94CE070E944A072C96E6E048
:103370000C94F32BCF93DF93EC0130913102209129
:10338000320290913302832F822B892B882389F07C
:103390008B81803319F08F7E803459F48F813813FC
:1033A00008C08885281305C08985981302C0CE01FE
:1033B0009EDF30912E0220912F0290913002832FB8
:1033C000822B892B882389F088818B3071F48B8143
:1033D000803459F48F81381308C08885281305C0BC
:1033E0008985981302C0CE0182DFDF91CF910895C5
:1033F000AEE1B0E0EEEFF9E10C94D82B8091290218
:10340000882399F14A9B5BC08FE30E9436038F7734
:103410008E3108F08DE1898328988FEF0E94BF02DA
:1034200010E08981181728F180E00E94BF02082F60
:1034300080E00E94BF02289ACE0101969BDF109186
:1034400033011071112309F18AE70E94F206098104
:1034500010E0E1E0F0E0EC0FFD1FE10FF11D8081D5
:103460000E94F2061F5F0117A0F76E96E5E00C942C
:10347000F42B80E00E94BF02E2E0F0E0EC0FFD1FC1
:10348000E10FF11D80831F5FCCCF8AE50E94F20619
:10349000F980E1E0F0E0EC0FFD1FE10FF11D80810C
:1034A0000E94CE071F5FF116A0F78091330185FFC0
:1034B00003C0802F0E94CE070E944A07D6CF85E323
:1034C0000E943603813189F68AE30E94470386E32E
:1034D0000E94470384E30E944703C7CFAEE1B0E0F8
:1034E000E4E7FAE10C94D72B8C01FC01818182374F
:1034F00029F48FDD6E96E6E00C94F32B833711F000
:10350000863611F54DE19E012F5F3F4F7901B901DC
:10351000C80102960E94D207E82FE150FF0B2981D3
:1035200030E0C701E217F30729F086E992E00E9434
:103530003D07E0CF61E070E0F8012181233711F011
:1035400060E070E0B6DDD6CF43E061E372E0813643
:1035500029F0873741F443E06EE272E0C801029639
:103560000E94D207C7CF10922902C4CF0E94B20393
:10357000EA9808950F931F93CF93DF93209A289A88
:103580008EE190E00E947E0628988EE190E00E94F5
:103590007E06289A8DE290E00E947E0680E30E94DB
:1035A000470384E690E00E947E0680917F02893383
:1035B000D9F4CFE4D3E001E813E0FE013196649141
:1035C000FE0184910E943D0322960C171D07A9F766
:1035D00083E30E94470384E00E948306C7DFDF91F4
:1035E000CF911F910F910895843381F4CDE1D3E001
:1035F0000FE413E0FE0131966491FE0184910E9474
:103600003D0322960C171D07A9F7E2CF813301F77E
:10361000CBEED2E0FE0131966491FE0184910E94CE
:103620003D032296F3E0CD31DF07A1F7D1CFFC01B6
:10363000908180917A02981317C0918180917B02CA
:10364000981312C0928180917C0298130DC09381CF
:1036500080917D02981308C0908580917E02981712
:1036600029F081E09F3F19F080E0089581E00895FE
:103670009C018FEF611101C008956150F901E60FBF
:10368000F11D90818927F6CFFC01680F792F711DFC
:103690008FE09DE1E617F70709F408952191492F7E
:1036A000552742279A01A4E036952795AA95E1F778
:1036B00024273527982F882782279327A901542F5D
:1036C00044275295507F84279527B5E0220F331F5A
:1036D000BA95E1F782279327DDCFA0E0B0E0E3E7DA
:1036E000FBE10C94D52B7C01062F459A80917F023B
:1036F000893339F464E182E10E943D03602F660F53
:103700006D5E86E00E943D030E94A00328988FE72B
:103710000E94BF0280917F02893361F0E7010E0DA4
:103720001F2D111D0C171D0701F1899180950E9415
:10373000BF02F8CFCFE086E60E94BF02C150C111A0
:10374000FACF8AEA0E94BF0285E50E94BF026701A4
:103750000E0D1F2D111DC016D10609F04FC080E0BF
:103760000E94BF0280E00E94BF02289A85E30E9467
:1037700036038331D9F36FEF86E00E943D038091D9
:103780007F02893321F46EE182E10E943D03EEDE87
:103790004598F701858186FF2CC080912401909186
:1037A0002501A0912601B09127010696A11DB11D0A
:1037B0008093340290933502A0933602B09337027F
:1037C000809139028F5F80933902823060F08AE7FE
:1037D0000E94F20682E70E94F206809139020E945E
:1037E000CE070E944A0780913902833010F0109270
:1037F0003902CDB7DEB7E8E00C94F12BF601C191A8
:103800006F0180E4C7FD80E890E1C6FD90E2890F7A
:1038100094E0C5FD98E0890F91E0C4FD92E0890F26
:103820000E94BF0230E4C3FD30E820E1C2FD20E287
:1038300094E0C1FD98E08C2F81708F5F830F820F21
:10384000890F0E94BF0287CFA0E4B0E0EAE2FCE16A
:103850000C94D12B809180028823F1F08091390261
:103860008823F9F0409124015091250160912601AF
:10387000709127018091340290913502A091360217
:10388000B091370284179507A607B70750F46091E7
:1038900038028AE392E021DFC05CDF4FECE00C9459
:1038A000ED2B4A9BF9CF459A28988FEF0E94BF02D3
:1038B0008E010F5F1F4F6E0129E0C20ED11C7801EF
:1038C00080E00E94BF02F70181937F0190917F0207
:1038D000993319F0319780958083EC14FD0481F7BA
:1038E000289AE88487EF8E0D883310F043DED4CF1A
:1038F0006E2D86E00E943D0380917F024AE5A42E52
:10390000B12C813349F05CEDA52EB12C843321F02C
:1039100038E9A32E33E0B32E98E3992E28E0822EC7
:10392000CE2CD12CC5010E947E068BE30E9436036B
:10393000F82E882309F498C0282D280F3327331F29
:10394000C216D3069CF228988FEF0E94BF02F80C93
:1039500080E00E94BF0290917F02993309F0809528
:1039600091E0980DF801E80DF11D8083F91279C0FE
:10397000289AFE1408F477C0FE01EC0DFD1DB080FE
:1039800080917F02813309F073C0EFEFFFEFEC0FFE
:10399000FD1FEC0DFD1DC080D12CDC2CCC24CB0CEC
:1039A000D11C6EEF6E0DC8016FDEFF24F3948C15F1
:1039B0009D0509F0F12C80918002823729F4C8011D
:1039C00036DE882309F464C0FF2009F461C08AE769
:1039D0000E94F2066801F60181916F010E94CE07F4
:1039E0008C2D801B8E15B8F30E944A0780918002AF
:1039F000823709F04DC08E81982F9370933029F44F
:103A00009091390291111092390286FF41C087FDD1
:103A10003FC08AE00E948306FD80F98680917E0285
:103A20008D8383E08E8380917F02813349F58BE023
:103A3000888769E0C80128DE9827892798279B870F
:103A40008A876BE0C80149DE8AE70E94F20681E6B8
:103A50000E94F2068F2D0E94CE070E944A074598C9
:103A60001BCF892E75CF8F2C9A9491105BCF84CF6A
:103A70006FEF6E0DC801FCDDFF24F3948B1599CF19
:103A80008AE0888769E0C801F3DD8A876AE0DACFD7
:103A90006FEF86E00E943D0369DDE1CFFC0181818B
:103AA000823711F08D3649F49281911101C094E36F
:103AB00090937F02809380025DCD833779F41092DA
:103AC000390240E46AE372E0CF0102960E94D20715
:103AD000682F809338028AE392E0FFCD893671F532
:103AE0008281882339F045E06AE772E0CF010296CF
:103AF0000C94D207809180020E94F20680917F028E
:103B00000E94F20680E20E94F20680917A020E94F0
:103B1000CE0780917B020E94CE0780917C020E949A
:103B2000CE0780917D020E94CE0780E20E94F206BD
:103B300080917E020E94CE070C944A071092800268
:103B400008950F931F93CF93DF93EA98209A289AB2
:103B50008EE190E00E947E0628988EE190E00E941F
:103B60007E06289A8DE290E00E947E0680E30E9405
:103B7000470384E690E00E947E06289880E40E9435
:103B8000BF020EE813E0C1E8D3E0FE0184910E9479
:103B9000BF0221960C171D07C1F7809108010E94F2
:103BA000BF02809109010E94BF0280910A010E9418
:103BB000BF02C1E9D3E00AEA13E0FE0184910E944A
:103BC000BF0221960C171D07C1F7289A28988EE787
:103BD0000E94BF02CBE2D0E0CE0121960E943B08BA
:103BE0000E94BF02C333D105B9F7289A83E30E942C
:103BF000470381E00E94830681E080932001DF91EA
:103C0000CF911F910F910895CF92DF92FF920F9362
:103C10001F93CF93DF93EC0189818437C1F46FE068
:103C200071E0CE0102960E94080840E260E08091B7
:103C30000F01909110010E944E070E944A07DF91E8
:103C4000CF911F910F91FF90DF90CF900895833710
:103C500009F091C18A81823769F46BE071E0CE018D
:103C600003960E94080840E260E080910B01909169
:103C70000C01E1CF459A80918302811116C0809199
:103C80002702882329F081E0809382021092270284
:103C900080912902882329F081E08093810210928B
:103CA00029024FDF83E00E94830686E30E944703D8
:103CB0008AE30E9447038BE30E9447030E94A0030C
:103CC000FE0101900020E9F7FE2EFC1AFA94FA9406
:103CD00080910B0190910C018E010E5F1F4F892B7B
:103CE000D9F1E1E2D0E0FE1212C05B9A80910F019F
:103CF000909110010E947E065B9880910D01909139
:103D00000E016AE070E00E948D2B0E947E06680121
:103D1000C1E0CF1574F1F1E25B9AFF12DCC0809133
:103D20000D0190910E010E947E065B9880910D011D
:103D300090910E0168E270E00E948D2B0E947E0639
:103D4000DF5F2D2F0D2E000C330B80910B01909116
:103D50000C012817390748F280918302882309F45F
:103D6000EFC080913301882309F4D4C00E94B203CC
:103D7000D4C0CF5FF60181916F01803309F044C058
:103D8000F1E25B9AFF1220C080910D0190910E012B
:103D90000E947E065B9880910D0190910E010E9419
:103DA0007E065B9A80910D0190910E010E947E0625
:103DB0005B9880910D0190910E0165E070E00E948A
:103DC0008D2B0E947E06A5CF80910F01909110014E
:103DD0000E947E065B9880910F019091100163E034
:103DE00070E00E948D2B0E947E065B9A80910F01ED
:103DF000909110010E947E065B9880910F01909136
:103E0000100163E070E0DBCF813309F044C081E250
:103E10005B9AF8121EC080910D0190910E010E94D4
:103E20007E065B9880910D0190910E0165E070E037
:103E30000E948D2B0E947E065B9A80910D019091CD
:103E40000E010E947E065B9880910D0190910E01FB
:103E5000B8CF80910F019091100163E070E00E9453
:103E60008D2B0E947E065B9880910F01909110012E
:103E70000E947E065B9A80910F019091100163E091
:103E800070E00E948D2B0E947E065B9880910F014E
:103E90009091100196CFE1E25B9AFE120CC08091E6
:103EA0000D0190910E010E947E065B9880910D019C
:103EB00090910E01BFCF80910F01909110010E944F
:103EC0007E065B9880910F019091100163E070E095
:103ED0000E948D2BCDCF80910F01909110010E94F7
:103EE0007E065B98CFE180910F01909110010E94B6
:103EF0007E06C150C111F7CFDF5F2D2F0D2E000CB4
:103F0000330B80910B0190910C012817390708F4AD
:103F1000FECE22CF86E30E944703459889E60E94A1
:103F2000F20683E70E94F206E80111E01F150CF08B
:103F300084CE89918033D9F40E94F2061F5FF6CFB8
:103F400080918202882341F0109282020E942F16F3
:103F500081E0809327020ACF80918102882321F09B
:103F60001092810256D8D9CF0E94FB0DD6CF813353
:103F700019F386E4E1CF8237B9F4809127028823D0
:103F800029F081E080938202109227028091290219
:103F9000882329F081E08093810210922902D1DDEB
:103FA00081E0809383024BCE863651F58A8180333F
:103FB000F9F480E18093080180EB8093090181E7A7
:103FC00080930A0189E60E94F20686E60E94F206C4
:103FD0008AE30E94F206809108010E94CE07809138
:103FE00009010E94CE0780910A010E94CE0725CECA
:103FF00043E068E071E0CE0102960E94D207E2CF72
:10400000883729F580918202882351F0109282022C
:104010000E942F1681E0809327020E94B20308C0FD
:1040200080918102882339F0109281020E94091840
:104030001092830204CE82E090E00E944B038091B4
:1040400033018111EACF86E30E944703F1CF833623
:1040500009F0F5CD6FE071E0CE0101960E940808ED
:10406000EECDA1E0B0E0E7E3F0E20C94CD2B7C01D3
:10407000FC018181833709F0B4C1198287E090E0A7
:104080000E94022C8C0141E0BE016F5F7F4FC7018F
:1040900002960E94D2078981F801808341E0BE0127
:1040A0006F5F7F4FC70104960E94D2078981807F8E
:1040B000D82EF801818341E0BE016F5F7F4FC701B9
:1040C00006960E94D2078981F801828341E0BE01F1
:1040D0006F5F7F4FC70108960E94D2078981F80160
:1040E000838341E0BE016F5F7F4FC7010A960E9444
:1040F000D2078981F801868341E0BE016F5F7F4F5F
:10410000C7010C960E94D2078981F801858341E09E
:10411000BE016F5F7F4FC7010E960E94D207898153
:10412000F80184833801F7E06F0E711CF80180E01C
:104130002191922F92959F7092278927E615F70576
:10414000B9F78F708D29F801818387E090E00E9494
:10415000022C7C0187E0F801D70101900D928A952D
:10416000E1F798012A5F3F4FF801DF013196119680
:104170008C9111979C91892780832E173F07A9F76F
:10418000459A80918602811161C08091270288231F
:1041900029F081E080938502109227028091290204
:1041A000882329F081E08093840210922902EA9802
:1041B000209A289A8EE190E00E947E0628988EE14F
:1041C00090E00E947E06289A8DE290E00E947E0692
:1041D00080E30E94470384E690E00E947E062898D0
:1041E00080E40E94BF02FAEACF2EF3E0DF2EA3EDB7
:1041F000AA2EA3E0BA2EF60184910E94BF02FFEF1F
:10420000CF1ADF0AAC14BD04B1F7289A28988EE7BC
:104210000E94BF02EBE2CE2ED12CC6012FEFC21AB4
:10422000D20A0E943B080E94BF0283E3C816D10451
:10423000A1F7289A83E30E94470381E00E94830646
:1042400081E08093200183E00E94830686E30E9440
:1042500047038AE30E9447038BE30E9447030E94BF
:10426000A0035B9A87EC94E20E947E065B9889E546
:104270000E94830685E392E00E947E06512C809185
:10428000150190E0252D052C000C330B281739075C
:104290006CF080918602882309F48BC080913301F1
:1042A000882309F463C00E94B20363C077E0C72E7D
:1042B000511002C062E0C62ED12C5B9A86EF99E0C5
:1042C0000E947E065B9886EF99E00E947E06D3945A
:1042D000CD10F3CF5B9A8CEF92E10E947E065B9843
:1042E00080911101909112010E947E066801F601F1
:1042F00081906F0148E0442E50E8A52EB12C912CFE
:10430000C4018A219B21892B29F55B9A8091110197
:10431000909112010E947E065B988091110190910C
:1043200012010E947E06B694A7944A944110E8CFE9
:10433000C614D704E1F65B98F801868187FD13C0A7
:104340008091110190911201815399480E947E063B
:10435000539495CF5B9880911101909112010E9426
:104360007E065B9ADACF8FEC96E7F0CF86E30E9469
:104370004703459889E50E94F20683E70E94F2060A
:1043800067015701F7E0AF0EB11CF60181916F0193
:104390000E94CE07AC14BD04C1F70E944A07C701B2
:1043A0000E94982CC8010E94982C2196E0E10C9460
:1043B000E92B80918502882341F0109285020E94AA
:1043C0002F1681E0809327026ECF8091840288238C
:1043D00029F0109284020E940918CBCF0E94FB0D95
:1043E000C8CF8237C9F465E171E0C70102960E9427
:1043F000080889E50E94F20682E70E94F2068AE335
:104400000E94F2068091150140E260E090E00E9477
:104410004E070E944A07C9CF843751F58281803305
:1044200001F588ED94E0909314018093130180913D
:1044300013019091140196958795909312018093A2
:10444000110189E50E94F20684E70E94F2068AE3E0
:104450000E94F20640E266E08091130190911401FF
:10446000D6CF63E171E0C70102960E940808DFCF52
:10447000883709F09ACF80918502882351F01092F5
:1044800085020E942F1681E0809327020E94B203CA
:1044900008C080918402882339F0109284020E941F
:1044A00009181092860281CF82E090E00E944B03AF
:1044B000809133018111EACF86E30E944703F1CF57
:1044C0001092C4021092830383E08093CD028FEF99
:1044D0008093C5020895DC01EEECF2E08081811149
:1044E0000EC0AB2B29F583E0EC37F80719F010F07C
:1044F000ECE7F3E0CF010895E80FF11DEFCF93E073
:10450000EC37F90770F71097B9F321819C912913C3
:10451000F3CF228111969C911197291759F3E80F37
:10452000F11D8081882321F093E0EC37F90768F3CF
:10453000E0E0F0E0DFCFE82FF0E0EE0FFF1FEE0F3E
:10454000FF1FE056FD4F80818F3F91F08093C8029E
:1045500081818093C90282818093CA028381809382
:10456000CB0221E04CE064E088EC92E00C94A30ADA
:1045700008958DE793E0AFDFDC01892B99F0E0919E
:10458000CD028C91E81770F4EA0FFB2FF11D8081AA
:1045900080937F0389E780938003818180938103E7
:1045A00081E0089580E008950F931F93CF93DF93E8
:1045B0008C018091330186FF15C084E50E94F206CC
:1045C000E8010B5F1F4F89910E94CE07C017D107EA
:1045D000D1F78091330185FF03C08AEF0E94CE0797
:1045E0000E944A07DF91CF911F910F91089586E3B2
:1045F0000E94470380917F03833579F48BE90E9401
:10460000830621E04CE065E08DE793E00E94A30A79
:104610000E94B2038DE793E0C7CF8BE4F0CFE7DFD2
:1046200080917F03893631F081E080937C0389E2B9
:104630008093C5020895CF9385E390E00E943B08E4
:104640008093C70286E390E00E943B088093C602F5
:10465000E1EBF2E0CFEFC083C283C483C683C0879F
:10466000C287C487C6872CDF1092CE0281E0809378
:104670008702A0EAB2E0CC93E8E8F2E08FEF9FEF88
:104680009183808313821282158214821496CC93B4
:104690001497978386831186108613861286189640
:1046A000CC9318979587848717861686118A108A67
:1046B0001C96CC93938B828B158A148A178A168A40
:1046C000CF910895ABE0B0E0E8E6F3E20C94D02B94
:1046D0008C016C018FEFC81AD80A45E0BE016F5FEC
:1046E0007F4FC6010E94D207843008F0E4C0998150
:1046F0009130D1F4833079F46A8185E390E00E94AF
:1047000036086B8186E390E00E94360894DF2B9692
:10471000EDE00C94EC2B8091C7020E94CE078091B3
:10472000C6020E94CE0735C0923009F051C0EE2477
:10473000E394813031F081E09A81913009F080E09A
:10474000E82E8091CE02811104C083ED93E00E9497
:104750003D070EEC12E015C092E00E3C190719F06F
:1047600080E20E94F206F80181810E94CE07F801E2
:1047700082810E94CE07E1100FC0F8018081080FEE
:10478000111DF8018081882321F0F3E00C371F0709
:1047900018F30E944A07BBCF8AE30E94F20653E057
:1047A000F52EF8018081F81640F7F3E0FF1629F0A6
:1047B000F0FE03C08CE20E94F206DD24D394DF0CED
:1047C000F801EF0DF11D80810E94CE07FD2CE9CF8D
:1047D000933049F480E090E07EDE8E5C92409EEA69
:1047E000981B892F9ECF903149F501EB12E0E12C07
:1047F000F12CF80180818F3FA1F0FF2019F080E2B9
:104800000E94F2068E2D0E94CE078AE30E94F206D5
:10481000F80180810E94CE07F80181810E94CE07B5
:10482000F3940E5F1F4FE394F8E0EF12E2CF81EEB6
:1048300093E0F110AECF0E943D07ABCF913149F428
:104840008091C1029091C2026DE770E077D7862F08
:1048500068CF923109F09DCF00EA12E0E12CF12CF3
:10486000F80180818F3FE1F0FF2019F080E20E9483
:10487000F2068E2D0E94CE078AE30E94F206F8010E
:1048800080810E94CE07F80181810E94CE07F80145
:1048900082810E94CE07F80183810E94CE07F394A3
:1048A0000C5F1F4FE394F4E0EF12DACFF11071CFF9
:1048B0008DED93E0C0CF7E0187E0E80EF11C44E06F
:1048C000B701C6010E94D2072F81293608F498C08B
:1048D0004A853885E0EAF2E080E090E04C3009F06B
:1048E00070C0A0EAB2E080E090E0FC01EE0FFF1F94
:1048F000EE0FFF1F4C91241338C011965C91119755
:10490000531333C012966C911297598565132DC0BD
:10491000E056FD4F2CE0238363E070E0FED69C015F
:10492000FC01EE0FFF1FE857FD4F11821082220F8E
:10493000331FF901E657FD4F1182108222E04CE04F
:1049400064E0C7010E94A30A8FE08A8722E04CE05E
:1049500064E0C7010E94A30A82E08A8722E04CE05B
:1049600064E0C7010E94A30AD2CE4F3FE9F4E056AB
:10497000FD4F20833183298522832CE0238363E04C
:1049800070E0CBD69C01FC01EE0FFF1FE857FD4FF6
:1049900011821082220F331FF901E657FD4F118259
:1049A000108210928702CACF019614968430910526
:1049B00009F09BCFACCE019634968430910509F472
:1049C000A6CE50812513F7CF51815313F4CF6281C6
:1049D00059856513F0CFFC01EE0FFF1FEE0FFF1F8F
:1049E000E056FD4F438363E070E097D6FC01EE0F85
:1049F000FF1FE657FD4F81E090E09183808387CED3
:104A0000E9812091C702E217C8F1822F90E0079652
:104A10004E2F50E0841795078CF19A818091C60241
:104A200098132CC09C819F3231F442E06CE0C801A5
:104A30000E94140B6CCE8D819C32C1F48093B00225
:104A400021E030E03093C2022093C10290E0880F51
:104A5000991F880F991F20912C0130912D01820FF1
:104A6000931F90932D0180932C0151CEE21BEE0FEA
:104A7000F0E0EF54FD4F9083818349CE80E090E0D9
:104A80002ADD7C01F60101900020E9F73197EC194D
:104A9000FD09F695E7957E2EDD24D394DE0EC70141
:104AA0008D0D911D8E5C92408F3A91052CF087ED13
:104AB00093E00E943D072BCEF701D0825701CC2412
:104AC000C3948C2D880F8150CD1480F0FCE7EF1635
:104AD000F3E0FF0608F01BCE8FEFED2D781201C03A
:104AE000E1E0EE0DFF2DF11D108211CE4501FFEF2B
:104AF0008F1A9F0A41E0B401800F912F911D0E94EF
:104B0000D20782E08C1548F4C0FC07C0F501808113
:104B1000843619F481818093C302C3945401D1CFA8
:104B20000F931F93CF93DF93482F809187028111BA
:104B300049C0E42FF0E0CF0163E070E0EED59C01C6
:104B4000DC01AA0FBB1FA857BD4FEE0FFF1FEE0FD2
:104B5000FF1FE056FD4F8281877060E870E0FB0127
:104B6000E81BF109CF016AEF70E0D7D595958795DD
:104B7000959587958D939C938901000F111F04577C
:104B80001D4FF80180819181019691838083220FCE
:104B9000331FE901C657DD4F2881398121153105C1
:104BA00041F4049779F4842FC6DCF8011182108255
:104BB00009C02130310559F4842FBDDC82E090E03A
:104BC00099838883DF91CF911F910F9108952230AF
:104BD0003105C1F7842FAFDC19821882E6CFA6E039
:104BE000B0E0E4EFF5E2E3C58091C6028A831B8260
:104BF0009091B0029923D1F19330A9F587E791E024
:104C00009093C2028093C10281EBE82E82E0F82EDD
:104C100010E00CE2F70120812F3FA1F08091B0025B
:104C20009091C702910F9983882349F10C838D835A
:104C300021E04CE065E0CE0101960E94A30ACE017E
:104C40000196B2DC1F5FF2E0EF0EF11C183011F795
:104C50008091B002882321F08330A1F41092B00239
:104C60002696E6E0C0C58DE790E0CACF87708A51EE
:104C700090E06DE770E051D595958795C1CF2C8375
:104C80008181D5CF82508093B002EACF80917C039E
:104C9000882351F0ACDC89E28093C50280917C03CB
:104CA000815080937C0308950BCCFF920F931F9348
:104CB000CF93DF93FC01F080D181C2811381048105
:104CC0008FE58093C50210927C038091C70290917A
:104CD000C602892B882351F180917D038F1104C076
:104CE00080917E038D1729F0EBDBF0927D03D0934A
:104CF0007E03D091C402DF3FC9F0C0937F031093BD
:104D0000800300938103CC2351F1D1111EC0809107
:104D1000C702801779F0043669F08DEA8C0F823073
:104D200010F0CD3749F48FEF8093C402CDB7DEB7D2
:104D3000E5E05AC5C435D1F3812F807F8036B1F7C5
:104D40001067109380036BDCF1CF13DC8091830339
:104D5000882379F08335B9F08C17D1F008C009DCCD
:104D60008D2B882319F380918303882311F0A8DB0E
:104D7000DDCFED2FF0E0EB51FC4FE491E335F1F0A6
:104D8000CE1711F1F4CFC435B9F4DE5FD093C4026D
:104D90008091CD028E5F8093CD02EBDB882309F4F6
:104DA0004CC080917F0380938303843661F68091A9
:104DB000C30280938103C7CFC335CFCFC43509F079
:104DC0003AC0DE5FD093C4028091C402E82FF0E0C5
:104DD000EA51FC4F14911F3F21F310937F0397E793
:104DE000909380039091C702909381038E5F80938C
:104DF000C402109283038E30D1F48DE793E06BDB15
:104E0000DC01892B99F02C9130E08CE793E0821B38
:104E1000930BED01C817D907B0F08A179B07C8F0AC
:104E20008A1B9B0B8A0F9B1FFC01108249DB1123FD
:104E300009F47CCF88CFC335A4CF8091C4028E5FA4
:104E40008093C402C1CFFE01E20FF31F408149935A
:104E5000E1CF80E090E0E6CF0F931F93CF93DF93F5
:104E6000EC0100E0802F90E063E070E056D49C01FC
:104E7000FC01EC58FF4F1491812FF901EB58FF4FC3
:104E800025913491112389F0209741F480E20E940A
:104E9000F206812F0E94F2060F5FE4CF98819113F2
:104EA000FBCFCE01F901099581E0DF91CF911F91F0
:104EB0000F910895CF93C0912A0180932A01809188
:104EC0008603811104C0C0932A01CF91089584E81C
:104ED00093E00E947C0920910E0430910F048A30E7
:104EE00011F08D3011F52115310549F3205F3B4F4D
:104EF000F901108280E194E0AFDF811111C08BE0F5
:104F000094E00E943D0780E194E00E94320783EF25
:104F100093E00E943D0780E090E09EDF0E944A07F8
:104F200010920F0410920E04CACF2034310538F6C7
:104F3000A9014F5F5F4F50930F0440930E04205F11
:104F40003B4FF9018083BBCFE4E6F0E080818B7FAB
:104F50008083299A84B1876084B9239880E58CBDC9
:104F60008DB581608DBD08952091600430916104FC
:104F70002115310521F420911801309119018091FA
:104F8000160190911701009741F48DB79EB740919B
:104F90001A0150911B01841B950B2817390718F42F
:104FA000821B930B089580E090E0089582E40E94B4
:104FB000F20640E265E080916004909161040E94F5
:104FC0004E070E944A0783E50E94F20640E265E030
:104FD00080911801909119010E944E070E944A0782
:104FE00085E40E94F20640E265E08091160190910E
:104FF00017010E944E070E944A0786E40E94F206AB
:10500000B3DF40E265E00E944E070C944A07A2E03D
:10501000B0E0ECE0F8E2CFC385E594E0FC01019656
:105020002091F100208324E08D359207B9F780911B
:105030005504909156049A3008F01CC1E92FF0E015
:10504000EA5AF24DA2C3803879F0823809F012C1D1
:10505000809159048093E9008091EB0085FB8827BB
:1050600080F91092E90006C0809151049091520499
:10507000911182609091E800977F9093E80080936F
:10508000F1001092F1008091E800982F9E7F90939C
:10509000E8008F778093E8008091E80082FF05C0E8
:1050A0008091E800982F9B7F34C080915404811137
:1050B000F3CF8091E80083FF0AC08091EB0080620B
:1050C0008093EB008091E800877F8093E800229630
:1050D000E2E08DC381110BC080915704813049F704
:1050E00081E0933009F080E08093520407C0823061
:1050F00009F0C0C080915704882389F01092E9001C
:105100008091E800877F8093E8008091E800982FE5
:105110009E7F9093E8008F778093E800CACF8091BC
:1051200059048770882329F28093E9002091EB00CD
:1051300020FFE4CF9130B9F49091EB00906190930F
:10514000EB0021E030E0A90102C0440F551F8A9511
:10515000E2F74093EA001092EA008091EB00886049
:105160008093EB00CBCF8091EB008062F9CF81116F
:1051700081C0809157049091E800977F9093E80058
:105180009091E800292F2E7F2093E8009F7790933D
:10519000E8009091E80090FF0CC0982F9F778068FE
:1051A0008093E300992309F484CF83E0809354042F
:1051B00080CF909154049111ECCF7BCF80588230F6
:1051C00008F058C0AE014F5F5F4F60915904809165
:1051D0005704909158040E948502BC01892B09F460
:1051E00068CF8091E800877F8093E80089819A8169
:1051F00007D156CF8038F1F58091E800877F809302
:10520000E800809153048093F1008091E800982F8A
:105210009E7F9093E8008F778093E8008091E8006C
:1052200082FD3ECF809154048111F8CF42CF81118D
:1052300021C090915704923008F03BCF8091E80054
:10524000877F8093E800909353048091E800982F23
:105250009E7F9093E8008F778093E80080915304BD
:10526000882331F084E0809354040E94E30421CF2A
:1052700083E0F9CF0E94FB041CCF8093E900EBEEA2
:10528000F0E0808181608083EDEEF0E01082609339
:10529000EC0040838091EE00881F8827881F0895C6
:1052A0001092F40080E08093E9001092F0001092D8
:1052B000E8009091ED009D7F9093ED009091EB00C0
:1052C0009E7F9093EB008F5F853069F70895809102
:1052D000550487FF17C08091E80082FF0AC08091C3
:1052E000E800982F9B7F9093E8008F778093E800E9
:1052F00004C0809154048111EECF0895809154042C
:105300008823D9F38091E80080FFF8CF8091E800EE
:10531000982F9E7FE8CF95E68091EC0081708823DE
:1053200031F08091E80080FF06C080E00895209170
:10533000E80022FD19C080915404882391F08091E7
:10534000EB0085FD10C08091E10082FFE5CF8091E8
:10535000E1008B7F8093E10091509111DDCF83E0DC
:10536000089582E0089581E0089520915B043091D2
:105370005C046217730708F49B0150E021153105A6
:1053800041F4511106C08091E80082FF31C080E0F5
:1053900008954091E80043FD31C04091E80042FD8E
:1053A000F2CF40915404442339F14091E80040FF8A
:1053B000E5CF2115310521F04091F200483080F011
:1053C0004091F20051E0483009F050E04091E8008F
:1053D000642F6E7F6093E8004F774093E800CECF54
:1053E000FC0181918093F10021503109CF01E1CF7F
:1053F000809154048111C7CF82E0089581E008951F
:1054000020915B0430915C046217730708F49B01E0
:1054100050E02115310541F4511106C08091E8009A
:1054200082FF32C080E008954091E80043FD32C021
:105430004091E80042FDF2CF40915404442341F1F1
:105440004091E800FC0140FFE4CF2115310521F037
:105450008091F200883088F0CF014091F20051E055
:10546000483009F050E04091E800642F6E7F60936F
:10547000E8004F774093E800CCCF84918093F1000F
:10548000215031093196E1CF809154048111C6CF6A
:1054900082E0089581E008959B012115310531F4E2
:1054A0008091E80080FF28C080E008954091E800E6
:1054B00043FD28C040915404442311F14091E80079
:1054C00042FFF4CF4091F200FC0141110BC08091EA
:1054D000E800982F9B7F9093E8008F778093E800F7
:1054E000CF01DBCF8091F10081932150310921154B
:1054F000310569F3CF01E6CF809154048111D0CFFB
:1055000082E0089581E0089553D055D0109254045C
:1055100010925304109252041092510419BC89B590
:10552000826089BD09B400FEFDCF8091D800982F1C
:105530009F779093D80080688093D8008091630013
:105540008E7F809363008091D8008F7D8093D800F8
:105550008091E0008E7F8093E0008091E1008E7F5B
:105560008093E1008091E20081608093E20080916D
:10557000E100877F8093E1008091E2008860809362
:10558000E2000895C1DF81E080935D04789408957E
:10559000BBDFE0EEF0E0808181608083E8EDF0E049
:1055A00080818F77808319BC10925D0408950895DF
:1055B0001092E20008951092E10008951F920F9258
:1055C0000FB60F9211242F933F934F935F936F93D6
:1055D0007F938F939F93AF93BF93EF93FF938091AC
:1055E000E10080FF1CC08091E20080FF18C0809124
:1055F000E1008E7F8093E1008091E2008E7F8093B6
:10560000E2008091E20080618093E2008091D80006
:1056100080628093D80019BC10925404C8DF809136
:10562000E10084FF27C08091E20084FF23C019BC01
:1056300089B5826089BD89B581708823E1F3909135
:10564000D8009F7D9093D8009091E1009F7E909329
:10565000E1009091E2009F7E9093E2009091E20041
:1056600091609093E20090915304911184E08093B3
:1056700054049DDF8091E10083FF23C08091E2000C
:1056800083FF1FC08091E100877F8093E10082E06B
:1056900080935404109253048091E1008E7F809394
:1056A000E1008091E2008E7F8093E2008091E20031
:1056B00080618093E200F4DD42E060E080E0DDDDC7
:1056C00076DFFF91EF91BF91AF919F918F917F9185
:1056D0006F915F914F913F912F910F900FBE0F905F
:1056E0001F901895CF9380915404882359F0C0914E
:1056F000E900C7701092E9008091E80083FD87DC23
:10570000C093E900CF910895002480FD060E660F36
:1057100011F08695D1F7802D08950024552704C0F7
:10572000080E591F880F991F009729F076956795E5
:10573000B8F37105B9F7802D952F0895AA1BBB1BEF
:1057400051E107C0AA1FBB1FA617B70710F0A61B81
:10575000B70B881F991F5A95A9F780959095BC01A2
:10576000CD01089597FB072E16F4009406D077FD1F
:1057700008D0E4DF07FC05D03EF4909581959F4F5B
:105780000895709561957F4F0895EE0FFF1F059066
:10579000F491E02D09942F923F924F925F926F9275
:1057A0007F928F929F92AF92BF92CF92DF92EF92B1
:1057B000FF920F931F93CF93DF93CDB7DEB7CA1B32
:1057C000DB0B0FB6F894DEBF0FBECDBF09942A885D
:1057D000398848885F846E847D848C849B84AA8405
:1057E000B984C884DF80EE80FD800C811B81AA8192
:1057F000B981CE0FD11D0FB6F894DEBF0FBECDBF5D
:10580000ED0108950F931F93CF93DF939C010297AF
:1058100010F422E030E0E0915E04F0915F0490E04B
:1058200080E0B0E0A0E0309791F4009709F445C023
:10583000821B930B84309105B8F58A819B81611599
:10584000710569F1FB0193838283FE0111C04081E0
:1058500051810281138142175307F0F04217530719
:1058600099F4109761F012960C93129713961C936B
:105870003296CF01DF91CF911F910F910895009340
:105880005E0410935F04F4CF009719F0481759078E
:1058900018F4CA01BD01EF01DF01F801C4CF9093F4
:1058A0005F0480935E04D1CFFE01E80FF91F2193BE
:1058B0003193029799838883DCCF80916004909123
:1058C0006104892B41F48091180190911901909302
:1058D00061048093600480911601909117010097F4
:1058E00041F48DB79EB740911A0150911B01841B62
:1058F000950B40916004509161044817590708F0D6
:10590000B8CF841B950B8217930708F4B2CFB90167
:105910006E5F7F4F8617970708F4ABCF640F751F34
:105920007093610460936004FA0121933193A1CFD5
:10593000CF93DF939C010097E9F0FC01329713822B
:105940001282C0915E04D0915F04DE0190E080E09D
:105950002097A1F480819181280F391F80916004E4
:10596000909161048217930709F067C0F093610476
:10597000E0936004DF91CF910895DA01AE17BF077D
:1059800008F041C012964D915C911397CD014115DD
:10599000510599F7DC011396FC93EE9312974D9104
:1059A0005D91A40FB51FEA17FB0781F420813181B7
:1059B0002E5F3F4F240F351FDC0111963C932E9331
:1059C0002281338113963C932E931297B0E0A0E08E
:1059D0008A819B810097B1F5FE0181919191E80F39
:1059E000F91F80916004909161048E179F0711F652
:1059F000109759F510925F0410925E04D0936104E1
:105A0000C0936004B7CFB383A28340815181240F38
:105A1000351FA217B30771F44E5F5F4F2D913C9174
:105A20001197240F351F3183208312962D913C91BD
:105A300033832283009709F0ADCFF0935F04E093A6
:105A40005E0498CFDE01EC01C3CF13961C921E9228
:105A50001297D4CFFB01DC0102C001900D9241509E
:105A60005040D8F70895FC0161507040019001103A
:105A7000D8F7809590958E0F9F1F0895F999FECFC6
:105A800092BD81BDF89A992780B50895262FF9997E
:105A9000FECF1FBA92BD81BD20BD0FB6F894FA9A11
:105AA000F99A0FBE01960895F894FFCF23286A282B
:105AB0003A296A283A29B728DE283A29FA281729E4
:105AC000802500000000080210B07106000401A447
:105AD000016C02D80406000062042000323100008C
:00000001FF
