:100000001BC1000035C1000033C1000031C1000038
:100010002FC100000C94810D2BC1000029C10000EC
:1000200027C1000025C1000023C100000C94421725
:100030001FC100001DC100001BC100000C94210D58
:1000400017C1000015C1000013C10000A6C30000C5
:100050000FC100000DC100000BC1000009C100006C
:1000600007C1000005C1000003C1000001C100007C
:10007000FFC0000042250643A802654E06465B0805
:10008000685E0869AC116C140652900554B713747D
:10009000060456860657D20558C609786F025A03D9
:1000A000110000002A03430055004C0034003300C7
:1000B000330000002A03430055004C005F004D0050
:1000C000580000001603620075007300770061009D
:1000D000720065002E00640065000000040309043E
:1000E00009024300020100803209040000010202FB
:1000F0000100052400011005240103010424020667
:100100000524060001070582030800FF0904010019
:10011000020A0000000705040240000007058302F0
:100120004000001201100102000008EB034B200008
:100130000001020001202F2000203D20000D2E2D67
:1001400007D3913D04320000060021656A55E43072
:1001500023B900070018146C070090876BF856113C
:10016000E92A001F410027675081C25620312E36F0
:10017000382043554C5F4D58005620312E363820DC
:1001800043554C34333300202F2000203D20004CB9
:100190004F56460D0A00424F56460D0A004C454E3A
:1001A0004552520D0A004C4F56460D0A004C454E22
:1001B0004552520D0A000007024604C605260B06EA
:1001C00010C81193120313221534173F182819165B
:1001D0001B432156250026110D210E650F6A070CC1
:1001E000160720F81E871F6B29592C812D353EC319
:1001F000FF000D2E2D07D3913D04320000060010A4
:10020000B07155E43023B900070018146C07009052
:10021000876BF85611E92A001F4100206973207589
:100220006E6B6E6F776E2920557365206F6E65203B
:100230006F66003F2028000011241FBECFEFD2E0E0
:10024000DEBFCDBF11E0A0E0B1E0E2E2F1E302C029
:1002500005900D92A431B107D9F722E0A4E1B1E0F5
:1002600001C01D92AD35B207E1F70CD00C94851892
:10027000C7CEF89481E085BF82E085BFE0E0F8E179
:100280000995089588E19FE00FB6F894A8958093AA
:1002900060000FBE9093600080E890E00FB6F89485
:1002A00080936100909361000FBE2E9A2D9A04B640
:1002B00003FE0AC083E390E01BD4882329F060E0AA
:1002C00083E390E010D4D5DF89EF87BD84E085BD5E
:1002D00082E084BD80936E00109280008AE080935B
:1002E000810084B7877F84BF3C9A0E945B14FBD453
:1002F0000E9426170E94AA130E94AC0981E194E192
:1003000090930C0280930B0281E080931D0144982E
:100310000E94D61786D10E94DD0A8ED20E948F10CD
:10032000F7CF9C01DA01832F99278230910549F19B
:100330008330910539F0019749F180E090E020E0A9
:1003400030E00EC0C9019927213069F08230910553
:1003500069F0ECEDF0E0892B81F7849190E09F014A
:100360002D933C930895E4ECF0E0F7CF24EA30E0DD
:100370001E9B02C024EB30E0E4EBF0E0849190E0BF
:10038000EFCF83E490E020EE30E0EACF82E190E02E
:1003900023E231E0E5CF8EBD0DB407FEFDCF8EB573
:1003A00008950F931F93CF93DF93C82F8A30C8F41B
:1003B000853008F0C5508BE290E0D0E0CA59DE4F9E
:1003C00060E08C3211F4FE0164918C010F5F1F4FCD
:1003D0008AD30333110539F4DF91CF911F910F9127
:1003E0000895C8E0E7CFC801EBCF0F931F93CF93D9
:1003F000DF930DE311E0C2E0D0E0F8016491CE019B
:10040000219671D30F5F1F4FCB32D105B1F71E99E3
:100410000CC060E18FE090E066D360EB80E190E09B
:1004200062D361E781E190E05ED388E0BADFDF91DB
:10043000CF911F910F9108954598806CACDF80E0BB
:10044000AADF459A0895CF93C62F45988064A3DF0D
:100450008C2FA1DF459ACF91089545989CDF459A4E
:1004600008950F931F93CF93DF93EC0110927301C4
:10047000EC983D9A459A8EE190E01CD245988EE129
:1004800090E018D2459A8DE290E014D280E3E5DF47
:1004900084E690E00FD2459880E47DDF8E01075D11
:1004A0001F4FCE01219624D376DF0C171D07C9F705
:1004B000459A45988EE76FDFCBE2D0E0CE012196DA
:1004C00017D369DFC333D105C9F7459A83E3C5DF85
:1004D00081E0F5D1DF91CF911F910F910895A1E0B7
:1004E000B0E0E5E7F2E00C943F1822E0298341E018
:1004F000BE016F5F7F4F0196A4D2898152DF82E0F7
:1005000090E0AFDF2196E2E00C945B18CF93EC987B
:1005100086E3A3DFCFEF85E3A0DF8077803231F081
:100520008AE090E0C7D1C150C111F5CFCF910895B5
:10053000CF93CFEF84E391DF8077803131F08AE091
:1005400090E0B8D1C150C111F5CFEC9ACF91089588
:10055000A2E0B0E0EEEAF2E00C943D188C01FC0160
:1005600081818737F1F441E0BE016F5F7F4FC801A1
:10057000029667D2892BA9F041E0BE016E5F7F4FE2
:10058000C80104965ED2892B61F06A8189815BDFA4
:1005900083E363DFCDDF898150D28A814ED2C9D116
:1005A00018C041E0BE016E5F7F4FC801019649D27D
:1005B000892B79F08A81893981F410E0812F3CDF21
:1005C0003CD2812F8770873009F4B3D11F5F10337D
:1005D000A9F72296E4E00C9459182EDF182F83E433
:1005E00078D18A812AD289E391E096D1812F25D2D0
:1005F00085E391E091D140E262E0812F90E09DD1CE
:10060000CECF86E32ADF1092140110927301089571
:1006100082E090E026DF81E0809314011092730164
:100620000895809153028430C1F58093E900809150
:100630001501811104C08091E80085FD34C083E07C
:100640008093E9008091C801882339F18091E80006
:1006500085FF23C0F8948091C801882329F08091F8
:10066000F200803408F43EC078949091F2008091BA
:10067000E800282F2E7F2093E8008F778093E800F2
:10068000903459F40E94EF158091E800982F9E7FD6
:100690009093E8008F778093E80008956091F100CF
:1006A00083E891E03BD38091F2008111F7CF8091F4
:1006B000E800982F9B7F9093E8008F778093E80065
:1006C00081E08093150181E193E090930A02809389
:1006D0000902E0910B02F0910C0281E00995109261
:1006E0001501ADCF86EC91E030D38093F100B3CF0C
:1006F00042E061EC82E00E94A11542E361E883E000
:100700000E94A11542E360E884E00E94A1151092C6
:10071000000110920101109202011092030108954C
:1007200080915402909155029132B1F0923259F178
:10073000903291F5813281F58091E800877F809336
:10074000E80067E070E080E091E00E94B0168091E0
:10075000E800982F9E7F11C0813AF1F48091E80063
:10076000877F8093E80067E070E080E091E00E947E
:1007700019168091E800982F9B7F9093E8008F775F
:100780008093E8000895813239F48091E800877FF2
:100790008093E8000C94CB1508951F921FB61F920A
:1007A00011248F939F93AF93BF93809117019091E2
:1007B0001801A0911901B0911A010196A11DB11D56
:1007C0008093170190931801A0931901B0931A0117
:1007D000809116018F5F80931601BF91AF919F9119
:1007E0008F911F901FBE1F901895FC018FB7F89432
:1007F00040911701509118016091190170911A01EF
:1008000040835183628373838FBF0895A4E0B0E077
:10081000ECE0F4E00C943F18CE010196E6DF8C8109
:100820000CD18B810AD18A8108D1898106D181D0EE
:100830002496E2E00C945B188091170190911801C6
:10084000A0911901B0911A0120911C01281789F17A
:100850008091170190911801A0911901B0911A018E
:1008600080931C01A895809116018D3710F110928C
:1008700016018091070181FF04C088B190E18927AA
:1008800088B980911F0190912001843823E092075C
:1008900028F401969093200180931F0180911B0101
:1008A00091E0980F8B3319F090931B0108951092EB
:1008B0001B010895880F991F0197F1F7089520ED06
:1008C00037E0811101C00895F9013197F1F78150A6
:1008D000F8CFCF93C82F80915302843081F4809158
:1008E0001D0180FF0CC08091C801803408F099DEA2
:1008F0006C2F86EC91E012D2CA3009F492DECF91CF
:100900000895CF93DF93EC018991811103C0DF91AA
:10091000CF910895DEDFF8CFCF93DF93EC01FE0196
:100920008491811103C0DF91CF910895D2DF219688
:10093000F6CF8DE0CEDF8AE0CCCFA6E0B0E0E3EAF0
:10094000F4E00C943B18FC01262F1E828E010A5FF6
:100950001F4F35E08AE0E82EF12CCF01B7010E944D
:1009600002183150805DD8018E938D01CF01FB01BB
:100970000A97A8F4832F2550622F630F615067FDFB
:1009800002C0811110C021E030E02C0F3D1F280F64
:10099000311DC901B6DF2696E6E00C9457183111D7
:1009A000DCCF80E0E8CF8150E1E0F0E0EC0FFD1F0C
:1009B000E80FF11D4083E2CFA5E0B0E0E2EEF4E005
:1009C0000C943F189C011D8254E0922F9F709A3026
:1009D00048F5905D8FEF850FE1E0F0E0EC0FFD1F33
:1009E000E80FF11D9083F90194E0F695E7959A954B
:1009F000E1F72031310598F45550650F615067FDDE
:100A000002C0811111C021E030E02C0F3D1F280FE2
:100A1000311DC90176DF2596E2E00C945B18582F52
:100A20009F01D3CF995CD6CF8150E1E0F0E0EC0F8D
:100A3000FD1FE80FF11D4083E1CF40E362E090E04D
:100A4000BBCFCF93DF93EB01FB0130E020E0DC0173
:100A50009D91992331F0913670F08FE9890F86309E
:100A600030F0CF018C1B9D0BDF91CF9108959052F8
:100A70009753292B05C080ED890F8A3050F4282B1D
:100A8000332389F021934150442359F330E020E08F
:100A900008C08FEB890F863058F3903211F09A33EB
:100AA00001F7CD01D4CF2295207F31E0FACF382F46
:100AB000292FDB0180E090E0E32FF22F219121111B
:100AC00003C08D939C93089530ED320F3A3040F47B
:100AD0006AE070E00E94F1172053330B820F931FDE
:100AE0003E2F2F2FE9CF0E947718F999FECF089556
:100AF0000C946F1808950F931F93CF938C01CFEF31
:100B0000C60FC801F5DF99DFCC2331F00F5F1F4F0F
:100B10008AE3DFDEC150F5CFCF911F910F91089589
:100B2000A2E0B0E0E6E9F5E00C943C18FC0181811C
:100B30008D3449F466E08AEF91E0DDDFFADE22963B
:100B4000E5E00C945818803521F460E18AED91E0DD
:100B5000F4CF1A82198242E0BE016F5F7F4FCF014E
:100B600001966FDF098110E0823029F409811A8132
:100B7000102701271027C801BBDFF82E82E5A9DE68
:100B800040E364E0C80118DF8BE891E0C5DE8F2DFB
:100B900054DF87E891E0C0DE40E262E08F2D90E014
:100BA000CCDECCCFA6E0B0E0E8EDF5E00C94371851
:100BB0006C0143E0CE0101967C01BC01C6010196A7
:100BC00040DF8C01BE2CAF2C8230D0F0E980F12CBC
:100BD000823029F0E980FA80FE24EF24FE241127D8
:100BE000FE01E00FF11F6081C7017DDF000F111FC3
:100BF0000F5F1F4F0C0D1D1DF8018081811104C076
:100C00002696EAE00C94531841E06B2D7A2DC8012A
:100C100018DF892BA9F39FEFE91AF90A6981C70147
:100C200062DF0E5F1F4FE8CF41E067E071E00196A1
:100C300008DF8091070180FF06C0449A6091070198
:100C400084E390E050CF4498F9CFA1E0B0E0EBE22C
:100C5000F6E00C943F181982009731F041E0BE0194
:100C60006F5F7F4F0196EDDE89818F3F09F4FFCFE3
:100C7000882321F061E083E390E035DF0E942C17A8
:100C800010926E00F89488E198E00FB6F894A89559
:100C9000809360000FBE90936000FFCFCF93DF93EF
:100CA000EC0161E080E090E01EDF64E481E090E030
:100CB0001ADF9BDB60E080E690E015DF60E081E614
:100CC00090E011DF60E083E390E00DDF62E084E319
:100CD00090E009DF8981883719F080E090E0B5DF86
:100CE000DF91CF91089580E090E002DF813029F418
:100CF00081E090E0FDDE843419F080E090E0CEDF0A
:100D000084E390E0F5DE80930701089589E791E0A0
:100D10001E9B02C08BE691E0FFDD0BCEFC019FB76E
:100D2000F8948281803410F09FBF08958F5F828392
:100D3000A08181E08A0F8083AE0FBF2FB11D139673
:100D40006C93803489F71082EFCFFC019FB7F89441
:100D50008281811102C09FBF089581508283A18149
:100D600021E02A0F2183AE0FBF2FB11D13968C9166
:100D7000203489F71182EFCF469A882399F0809129
:100D8000220190E044E0880F991F4A95E1F792DD37
:100D900046988091210190E024E0880F991F2A95C0
:100DA000E1F788CD8091240190E034E0880F991F0D
:100DB0003A95E1F77FDD469880912301ECCFA8E0DA
:100DC000B0E0E5EEF6E00C942F184C016F83842F11
:100DD0002E83502EED82642E712C8E5F602F0E9428
:100DE000E8179C2D9A0D890F082E000C990B209165
:100DF0001F01309120012817390738F48FE891E05E
:100E00008BDD2896E2E10C944B18281B390B3093AC
:100E1000200120931F01449A40907301442039F02F
:100E20001092730181E191E0B1D244244394809106
:100E30001401811101C0ECDB69DB8C2D90E09C0179
:100E400044E0220F331F4A95E1F73A8329838A2D24
:100E500090E0FC0154E0EE0FFF1F5A95E1F7FC8390
:100E6000EB832C2C2A28FF810F2F10E0EE24E39433
:100E7000F12C2E81C22ED12C222041F0469A89815C
:100E80009A8118DD46988B819C8114DD1E8280E05A
:100E900073DF3E813F5F3E83832F330F990B8017B3
:100EA0009107ACF381E068DF312C832D032C000C1B
:100EB000990B98878F8386159705DCF027E0B22E73
:100EC000880D991D98878F838B2D0B2C000C990B07
:100ED000C816D90644F18D81F2DC5A945110CCCF5A
:100EE00080912601882361F123DB41102AD74498A1
:100EF00088CF37E0A32EB12C8F819885880D991D5E
:100F000098878F83C7010A2C01C0880F0A94EAF7DB
:100F1000EF81F885908189232FDFF1E0AF1AB108C6
:100F200088F73394C2CFC7010B2C01C0880F0A94F5
:100F3000EAF7EF81F885908189231EDFBA94C4CF48
:100F400086E38BDAD2CFACE0B0E0E9EAF7E00C94CC
:100F500033187C01162F842F022F6701C60ED11C77
:100F6000462FB70129D2F60180831F5F1982612CB9
:100F7000712C40E027E061E070E0A7E0B0E05701AD
:100F8000A60CB71C6116D0F0222309F479C02150B9
:100F900089E1809323018093240185E280932101DC
:100FA00080932201A12CC12C8AE0E82E6CE0CE01B6
:100FB000019605DF2C96EEE00C944F18F501808128
:100FC0006B010A2E02C0CC0CDD1C0A94E2F7C82289
:100FD000CC2091F088248394912C8C0E9D1E840E3D
:100FE000911CF40190816B01022E02C0CC0CDD1C1F
:100FF0000A94E2F79C2990839FEF920F21110EC073
:1010000091E0940F9C3008F4492F21E030E02C0F40
:101010003D1F290F311DF901108297E0292F1197EB
:1010200008F0B0CF082E82958025082E86958695EB
:1010300080258F5F81FF0FC0A1E0B0E0AC0FBD1F26
:10104000A40FB11D8C919B01092E01C0220F0A949F
:10105000EAF7822B8C932FEF290F91110DC081E0BD
:10106000840F8C3008F4482FA1E0B0E0AC0FBD1F16
:10107000A80FB11D1C9227E03FEF631A730A7DCFC2
:101080004F5F27E085CFACE0B0E0E9E4F8E00C94F6
:101090003D18162F042F4BE0BE016F5F7F4F019666
:1010A000D0DC682F202F412FCE0101964CDF2C96EB
:1010B000E4E00C94591843E066E0E5CFAF92CF929C
:1010C000EF920F93CF93DF93CDB7DEB72C970FB688
:1010D000F894DEBF0FBECDBF4BE0BE016F5F7F4F08
:1010E0000296AFDC8530C1F48EE3809324018CE15D
:1010F0008093230181E2809322018AE3809321017E
:1011000085E2A82E9AEFC92EE12C05E024E044E008
:1011100068E0CE01019653DE2C960FB6F894DEBF40
:101120000FBECDBFDF91CF910F91EF90CF90AF90D9
:101130000895A0E0B0E0EFE9F8E00C943718FC0166
:1011400010923A014181440F440F440F8381481BA0
:1011500087E0C82EC40E10923B0120E030E047E04B
:1011600057E070E080E097E0E92EF12C01E010E01C
:10117000DD24D394D80E8C1580F020934701309352
:101180003A01CD14A0F5653409F088C04F3F09F04D
:1011900085C02F5F2093470183C0DF01A70FB11DDA
:1011A00014968C9190E0052E02C0959587950A942F
:1011B000E2F78170552369F051506B34D1F443301C
:1011C00059F4332371F030E0811155C04150832F21
:1011D0001EC07F5F57E0F1CF4F3FB1F781110FC0C5
:1011E0002FC0811114C02093470110923A0180E072
:1011F0005DC04F3F51F5663469F0653479F32F5F78
:10120000A22FB0E0A55CBE4F1C92832F47E0382F81
:101210008D2DAECFA22FB0E0A55CBE4FAC910A2EB3
:10122000A295A0250A2EA695A695A02590E0AF5FD1
:10123000A695A170CA2FA12CDA2D8C179D07F9F263
:101240002093470130933A01D2CF882309F4BECFCF
:10125000663471F4A22FB0E0A55CBE4FBC90C8010B
:10126000042E01C0880F0A94EAF78B298C93AECF25
:10127000653409F0ABCFA22FB0E0A55CBE4FC7012B
:10128000841B910947FD9395580102C0AA0CBB1C11
:101290008A95E2F7C5019C91892BE8CF311179CF6E
:1012A00081E090914701992309F4A1CFCDB7DEB732
:1012B000EAE00C94531810926F0080914A0190E07C
:1012C00064E170E00E94F117FC01E55BFE4F1082C3
:1012D0000895FC0181818C3008F0EDCF9381662365
:1012E00081F0DF01A80FB11D41E050E0092E01C0DF
:1012F000440F0A94EAF714962C911497242B149611
:101300002C93992319F091509383089597E0938338
:101310008F5F8183E80FF11D1482089570E030E043
:10132000FB01E21BF30B3B967797A0F490E050E0B3
:10133000FC01E41BF50B3B96779760F4680F791F6F
:10134000240F351F621B730B655F7F4F81E0673190
:10135000710508F080E008953E9A46983F98EAE6C5
:10136000F0E080818160808382EC91E090932001A5
:1013700080931F0110925F011092140108958091D3
:101380002601882311F044D9D3C83BC9FC018181CF
:1013900081110BC08091260150DB40E265E0809115
:1013A0001F0190912001C9DAC4CA41E066E271E0F0
:1013B000CF01019646DBE3CF9B01411101C00895A7
:1013C0004150F901E40FF11D9081890FF6CF9C0186
:1013D00080E0611101C008956150F901E60FF11D2F
:1013E00090818927F6CFAC01F0913A01362F85E044
:1013F00090E0311105C0890F8295807F892B089577
:101400007FEF730FDA01A70FB11D2C91E22FE29548
:10141000EF709E278E0FFF2311F0361719F02F70F3
:101420009227820F372FE5CFFC0122813381A081E3
:10143000B181A20FB11D8C9190E0032E02C0959551
:1014400087950A94E2F781709FEF930F9383311190
:1014500004C02F5F228397E093830895A0E0B0E05B
:10146000E4E3FAE00C943818D82EC92EE42E062FA7
:1014700010E0E801F12CBB24B394209731F48F2DB8
:10148000CDB7DEB7E9E00C9454188D2D9C2DCCDF40
:10149000AE0141505109882349F0EE2049F02B2D2F
:1014A000042E01C0220F0A94EAF7F22AEA01E5CFDE
:1014B00098012C1B3D0B8B2D01C0880F2A95EAF754
:1014C000282FF3CFA4E0B0E0E8E6FAE00C94371858
:1014D000FC011B8287E08C83CF0104969A83898369
:1014E00010924701818190E023E0880F991F2A958F
:1014F000E1F7438127E030E0241B3109820F931F7D
:10150000853491050CF04FC080E049C0CE010196B2
:10151000A5DFA82EED2DF0E0E55CFE4F8083C82E00
:101520000C2CC294C0240C2CC694C694C024CE01AA
:1015300001967ADF90E0C394C1FAEE24E0F8F12C32
:101540008E159F0509F7CE0101966EDF8111DCCF64
:10155000BA24D394D0924701D090470185E040E06F
:1015600068E08D1598F6CE01019678DFE82EF82E0A
:101570000F2CF294F0240F2CF694F694F024CE0164
:10158000019652DF90E0F394F1FA002700F910E0A1
:101590008017910709F0B8CF81E0BE10B5CF24962F
:1015A000EAE00C945318B12CD7CF8091250180FD2F
:1015B00003C08460809325010895A1E0B0E0E3EECC
:1015C000FAE00C943A18198280912701882379F166
:1015D0008091260187FF13C084E30E941C0280587B
:1015E000803408F49EC0803C08F09DC08055990B63
:1015F000E3E095958795EA95E1F78F596AD980914F
:10160000260183FF12C082E764D98091260184FFFE
:1016100003C0809128015DD986E65BD980912601BF
:1016200084FF03C08091270154D910922701809133
:101630004801882309F48BC1449A8091490190E0C4
:1016400064E170E00E94F1178C01055B1E4F8981F7
:1016500081117CC066E4C8016CDD8823B9F0F0908C
:101660004701FA94F09247014F2D6BE371E086E059
:10167000A3DEEF2DF0E0E55CFE4FE080E81255C000
:1016800023E086E42F1508F472C1198265E4C801CD
:1016900050DD81116EC1C80115DF81117CC1F801D7
:1016A0006389E0902801262F4E2D828937DE682F2E
:1016B000C8010FDE6BE4C8013CDD81116EC1F80189
:1016C000838191E0980F9383873029F4F801818119
:1016D000138281508183F80181818430B9F5F8014A
:1016E0008381843099F52EE14CE36189808916DE8F
:1016F000882361F12EE14E2DF801638982890EDE87
:10170000682FC801E6DD85E0F8013496ABE3B1E06F
:1017100001900D928A95E1F785E08093470182E57B
:1017200026C180E06ACF8FE068CF282F30E02F5F9E
:101730003F4F4E2D50E02417350709F00CC133E020
:101740003F1508F0A2CF96E499838083E980D0907A
:101750002601EE2009F47FC0D0FE7DC080912501D6
:101760008A7F809325018D2D8270811125C0F09094
:10177000470190913901ADE2B1E0EBE3F1E09F1553
:1017800009F42EC14F2D50E06BE371E08DE291E042
:101790000E946618F092390180911701909118010A
:1017A000A0911901B0911A018093290190932A0107
:1017B000A0932B01B0932C01F4E5EF121DC0D6FCD1
:1017C0001BC0809147018530B8F080913D018B347A
:1017D00071F0893661F09DEA980F923040F08D5794
:1017E000823028F080913E018077803729F4809103
:1017F0002501816080932501B801CE010196D5DED7
:101800008091250182FF27C08E2D63D880913A01F7
:10181000882329F080914701815080934701F12C62
:10182000E0914701FE1608F4FCC080913A0188233C
:1018300049F0F0E0E55CFE4F80818F7040E361E0AD
:1018400090E0BAD88091260185FF04C084E30E940D
:101850001C02F3D86ED88091260182FF67C080E712
:1018600038D8F801808140E262E090E066D8F80163
:10187000808990E040E265E024E0880F991F2A9576
:10188000E1F75BD8F801818990E040E265E034E05F
:10189000880F991F3A95E1F750D8F801828990E0B6
:1018A00040E265E054E0880F991F5A95E1F745D86A
:1018B000F801838990E040E265E074E0880F991FA9
:1018C0007A95E1F73AD8F801828140E263E090E04E
:1018D00034D8F801818140E263E090E02ED8F8012D
:1018E000838140E262E027E030E0F901E81BF10982
:1018F000CF0123D880E20E9469048091260185FFF0
:1019000007C084E30E941C0298D880E20E94690408
:10191000F8018381873019F081818F5F8183F12CF9
:10192000F8018181F81608F484C003D8F801108208
:10193000809148018150809348019091490181E054
:10194000890F913009F480E08093490144982196F1
:10195000E7E00C9456184F2D6BE371E08CE02CDD22
:10196000E81293CE83E08F1508F08FCE84E589834B
:10197000EDCE80914701815080934701893009F075
:101980008ACE69E08BE391E022DD909144018913D6
:1019900082CE85E4ECCF88E4EACFE0914701FF24D2
:1019A000FA94FE0EF09247016F2D8BE391E01BDD60
:1019B00090913A012F2D291B330BF901E55CFE4F65
:1019C000908189137CCE8BE4D2CF2D9191918F5F42
:1019D000291731F0809125018D7F80932501D2CE8A
:1019E000F812F3CFF092390180911701909118010C
:1019F000A0911901B0911A014091290150912A0139
:101A000060912B0170912C01841B950BA60BB70BD9
:101A10008697A105B10508F0B5CE809125018160BA
:101A2000DCCFEF2DF0E0E55CFE4F808106D8F3942B
:101A3000F7CEF801EF0DF11D84810E941D05F3948E
:101A40006FCF1F920F920FB60F9211242F933F93D7
:101A50004F935F936F937F938F939F93AF93BF93B6
:101A6000EF93FF9310926F008091260183FF03C0D4
:101A70008EE20E94690420914A01A22FB0E0CD01BC
:101A800064E170E00E94F117FC01E55BFE4F80818C
:101A9000833058F0CD0164E170E00E94F117FC0141
:101AA000E55BFE4F8181823090F405DCFF91EF9180
:101AB000BF91AF919F918F917F916F915F914F9166
:101AC0003F912F910F900FBE0F901F90189580910E
:101AD0004801813049F48091260182FFE6CF86E9F2
:101AE00091E00E948C04E1CF8F5F8093480181E0F8
:101AF000820F213019F080934A01D8CF10924A0109
:101B0000D5CF1F920F920FB60F921124EF92FF9232
:101B10000F931F932F933F934F935F936F937F93F5
:101B20008F939F93AF93BF93CF93DF93EF93FF93E5
:101B30000091840010918500E4E016950795EA95E0
:101B4000E1F780914A0190E064E170E00E94F117B2
:101B5000EC01C55BDE4F88818430E1F40E3218F071
:101B60000F34E8F0A8DBFF91EF91DF91CF91BF91A7
:101B7000AF919F918F917F916F915F914F913F9125
:101B80002F911F910F91FF90EF900F900FBE0F902C
:101B90001F90189537991AC000932801E4CF379BFE
:101BA0000DC080912801081B009327011092850029
:101BB0001092840060E0CE018CDBD5CF61E0CE01D5
:101BC00088DB1092850010928400E6CF8091280176
:101BD000081B00932701109285001092840082E078
:101BE00086BBF88010912801F1100FC0153608F05F
:101BF000BACF80912701853608F0B5CF188B898B35
:101C000081E08A8382E08883AECF0091270122E0C1
:101C1000F21248C0F888E988202F412F6E2D8F2DB1
:101C20007DDB2A818823E9F08F2D90E063E070E06E
:101C30000E94F117810F911D959587959595879530
:101C4000888B8E2D90E063E070E00E94F117800F8A
:101C5000911D9595879595958795898B2F5F2A83FB
:101C600082CF2430E8F080EA9FE09093890080934F
:101C700088002C3098F02F2D2E0D3327331F25365A
:101C8000310564F084E088831A8B0B8B198287E01E
:101C90008B831C8282E080936F0065CF83E0F3CF5B
:101CA0001882A4CF202F412F6B898A8937DB8823A4
:101CB000F1F061E0CE010DDB8A8990E063E070E035
:101CC0000E94F117810F911D9595879595958795A0
:101CD0008A8B8B8990E063E070E00E94F117800F9F
:101CE000911D95958795959587958B8B3CCF202F4A
:101CF000412F6989888912DB8823F1F060E0CE01E9
:101D0000E8DA888990E063E070E00E94F117810FC3
:101D1000911D9595879595958795888B898990E0F4
:101D200063E070E00E94F117800F911D95958795F3
:101D300095958795898B17CF37E0F31609F413CF64
:101D400011CF0F931F93CF93DF93EC983D9A459A51
:101D50008EE190E00E945A0445988EE190E00E9446
:101D60005A04459A8DE290E00E945A0480E30E9452
:101D70002D0284E690E00E945A04C6EBD1E0FE01F9
:101D8000849100EF11E0813408F183E30E942D0279
:101D900084E00E945F04CFEF84E30E942D028077ED
:101DA000803139F08AE090E00E945A04C150C1119C
:101DB000F3CF81E080937301DF91CF911F910F9159
:101DC00008952296FE0184918134F8F6FE01319641
:101DD0006491FE0184910E9423020C171D0789F76C
:101DE000D4CF4F925F926F927F928F929F92AF92D9
:101DF000BF92EF92FF920F931F93CF93DF93EC016B
:101E00008B01F880F39420E030E0672B11F024E69A
:101E100030E08F2D90E043E0880F991F4A95E1F75D
:101E20006AE070E00E941618620F731F80911F0114
:101E3000909120012C01612C712C4B01072E000C7C
:101E4000AA08BB08481459046A047B0498F486EA7B
:101E500091E00E948C04DF91CF911F910F91FF9030
:101E6000EF90BF90AF909F908F907F906F905F901A
:101E70004F900895861B970B9093200180931F012C
:101E800080917301811101C05CDF85E30E941C0217
:101E90008D30C1F08AE50E94690485E40E946904DE
:101EA00082E50E94690482E50E94690481E30E9440
:101EB000690485E30E941C020E941D050E9499048A
:101EC00040DFC9CF8091740190917501A091760196
:101ED000B0917701892B8A2B8B2BC1F40E9486024B
:101EE00085E30E941C028331B9F18AE50E946904EE
:101EF00085E40E94690482E50E94690482E50E94EB
:101F0000690482E3D4CF81E00E945F04409117010D
:101F1000509118016091190170911A01809174011A
:101F200090917501A0917601B091770148175907FA
:101F30006A077B0741F340911701509118016091A6
:101F4000190170911A010196A11DB11D8417950701
:101F5000A607B707C1F2C2CF012B51F00AE010E08B
:101F600084E60E945F040150110901151105C1F7B3
:101F700045988FE70E94CB01EC2E0C2F1D2F802F50
:101F80008E198F1508F444C0459AC8EC85E30E9469
:101F90001C028D3059F085E30E941C02833131F41C
:101FA00081E00E945F04C150C111F0CF85E30E941F
:101FB0001C028D30B9F08AE50E94690485E40E9414
:101FC000690482E50E94690482E50E94690483E352
:101FD0000E94690485E30E941C020E941D050E9464
:101FE0009904AFDE80917301811101C0C8D980913D
:101FF000170190911801A0911901B0911A018093D5
:10200000740190937501A0937601B093770123CF6B
:10201000F80181918F010E94CB01B1CFACE0B0E01B
:10202000E4E1F0E10C943B18FC018BE089838181B1
:102030008A831B8282E08C8387818D8380858E8357
:1020400081858F83848188878581898786818A8736
:102050001B861C8684E10E945F0460E070E0CE0174
:102060000196BFDE8AE50E9469048E010F5F1F4F53
:102070007E018DE0E80EF11CF80181918F010E9434
:102080001D05E016F106C1F78091260185FF03C00A
:1020900080E00E941D050E9499042C96E6E00C94B5
:1020A0005718CF93DF93EC0130917B0120917C0195
:1020B00090917D01832F822B892B882389F08B813E
:1020C000803319F08F7E803459F48F81381308C023
:1020D0008885281305C08985981302C0CE019EDF2C
:1020E000309178012091790190917A01832F822B90
:1020F000892B882389F088818B3071F48B8180341F
:1021000059F48F81381308C08885281305C0898544
:10211000981302C0CE0182DFDF91CF910895AEE126
:10212000B0E0E4E9F0E1A8C780917301882399F158
:10213000379B5AC08FE30E941C028F778E3108F0C4
:102140008DE1898345988FEF0E94CB0110E0898152
:10215000181720F180E00E94CB01082F80E00E9438
:10216000CB01459ACE0101969CDF1091260110719A
:10217000112301F18AE70E946904098110E0E1E07E
:10218000F0E0EC0FFD1FE10FF11D80810E9469045A
:102190001F5F0117A0F76E96E5E08AC780E00E94F6
:1021A000CB01E2E0F0E0EC0FFD1FE10FF11D8083B9
:1021B0001F5FCDCF8AE50E946904F980E1E0F0E07D
:1021C000EC0FFD1FE10FF11D80810E941D051F5FB7
:1021D000F116A0F78091260185FF03C0802F0E9491
:1021E0001D050E949904D7CF85E30E941C0281310E
:1021F00091F68AE30E942D0286E30E942D0284E379
:102200000E942D02C8CFAEE1B0E0E8E0F1E133C7B3
:102210008C01FC018181823721F493DD6E96E6E02A
:1022200046C7833711F0863611F54DE19E012F5FC9
:102230003F4F7901B901C80102960E942105E82F9C
:10224000E150FF0B298130E0C701E217F30729F0C5
:102250008DE991E00E948C04E1CF61E070E0F8012B
:102260002181233711F060E070E0BBDDD7CF43E080
:102270006BE771E0813629F0873741F443E068E786
:1022800071E0C80102960E942105C8CF1092730127
:10229000C5CF0F931F93CF93DF93EC983D9A459A48
:1022A0008EE190E00E945A0445988EE190E00E94F1
:1022B0005A04459A8DE290E00E945A0480E30E94FD
:1022C0002D0284E690E00E945A04459880E40E9422
:1022D000CB010FEF11E0C2EFD1E0FE0184910E942B
:1022E000CB0121960C171D07C1F7809108010E94B0
:1022F000CB01809109010E94CB0180910A010E94CB
:10230000CB01C2E0D2E00BE112E0FE0184910E9419
:10231000CB0121960C171D07C1F7459A45988EE70A
:102320000E94CB01CBE2D0E0CE0121960E9478053D
:102330000E94CB01C333D105B9F7459A83E30E94CC
:102340002D0281E00E945F0481E080931401DF91FF
:10235000CF911F910F910895CF92DF92FF920F932B
:102360001F93CF93DF93EC0189818437C1F46FE031
:1023700071E0CE0102960E94570540E260E0809134
:102380000F01909110010E949D040E949904DF9119
:10239000CF911F910F91FF90DF90CF9008958337D9
:1023A00009F077C18A81823769F46BE071E0CE0170
:1023B00003960E94570540E260E080910B019091E6
:1023C0000C01E1CF449A8091800181110DC0809170
:1023D0007301882329F081E080937E0110927301BC
:1023E00058DF83E00E945F0486E30E942D028AE3A7
:1023F0000E942D028BE30E942D020E948602FE01A4
:1024000001900020E9F7FE2EFC1AFA94FA948091CC
:102410000B0190910C018E010E5F1F4F892BD1F1A2
:10242000E1E2D0E0FE1211C0469A80910F01909136
:1024300010010E945A04469880910D0190910E015E
:102440006AE070E0CED50E945A046801C1E0CF1561
:102450000CF440C0F1E2469AFF12E8C080910D01F1
:1024600090910E010E945A04469880910D0190911E
:102470000E0168E270E0B5D50E945A04DF5F2D2F8F
:102480000D2E000C330B80910B0190910C0128173D
:10249000390750F280918001882309F4EAC08091C5
:1024A0002601882309F4E1C00E949802449889E635
:1024B0000E94690483E70E946904E80111E01F1586
:1024C0000CF063CF8991803309F0DEC00E9469046B
:1024D0001F5FF5CFCF5FF60181916F01803309F067
:1024E00042C0F1E2469AFF121FC080910D01909107
:1024F0000E010E945A04469880910D0190910E01A0
:102500000E945A04469A80910D0190910E010E94FA
:102510005A04469880910D0190910E0165E070E09B
:1025200060D50E945A0493CF80910F0190911001C1
:102530000E945A04469880910F019091100163E027
:1025400070E04FD50E945A04469A80910F019091F5
:1025500010010E945A04469880910F019091100139
:1025600063E070E0DDCF813309F041C081E2469A3B
:10257000F8121DC080910D0190910E010E945A0425
:10258000469880910D0190910E0165E070E029D58B
:102590000E945A04469A80910D0190910E010E946A
:1025A0005A04469880910D0190910E01BACF809106
:1025B0000F019091100163E070E013D50E945A045E
:1025C000469880910F01909110010E945A04469AFA
:1025D00080910F019091100163E070E002D50E949C
:1025E0005A04469880910F01909110019ACFE1E230
:1025F000469AFE120CC080910D0190910E010E942E
:102600005A04469880910D0190910E01C1CF80919E
:102610000F01909110010E945A04469880910F0179
:102620009091100163E070E0DCD4CFCF80910F0176
:10263000909110010E945A044698CFE180910F01B9
:10264000909110010E945A04C150C111F7CFDF5F71
:102650002D2F0D2E000C330B80910B0190910C014E
:102660002817390708F4F1CE15CF86E30E942D0212
:102670001DCF80917E01882321F010927E0161DBC5
:1026800015CF0E94BF0912CF813309F41FCF86E412
:102690001DCF823771F480917301882329F081E086
:1026A00080937E0110927301F4DD81E080938001BC
:1026B0006ECE863651F58A818033F9F480E18093BD
:1026C000080180EB8093090181E780930A0189E684
:1026D0000E94690486E60E9469048AE30E946904F4
:1026E000809108010E941D05809109010E941D052D
:1026F00080910A010E941D0548CE43E068E071E028
:10270000CE0102960E942105E2CF8837C9F480915C
:102710007E01882331F010927E0113DB109280013C
:1027200036CE82E090E00E9431028091260188231B
:1027300019F00E949802F2CF86E30E942D02EECF9C
:10274000833609F024CE6FE071E0CE0101960E943D
:1027500057051DCE85E390E00E94780580938201A5
:1027600086E390E00E947805809381010895A6E0B9
:10277000B0E0ECEBF3E183C445E0BE016F5F7F4F57
:1027800001960E942105843080F499819130C1F432
:10279000833071F46A8185E390E00E9473056B8158
:1027A00086E390E00E947305D5DF2696E2E083C4BD
:1027B000809182010E941D05809181010E941D056A
:1027C0000E949904F2CF0F931F93CF93DF93EC01F4
:1027D00000E0802F90E063E070E003D49C01FC01F6
:1027E000EC58FF4F1491812FF901EB58FF4F2591C1
:1027F0003491112389F0209741F480E20E9469040A
:10280000812F0E9469040F5FE4CF98819113FBCF61
:10281000CE01F901099581E0DF91CF911F910F91D0
:102820000895CF93C0911D0180931D018091850172
:10283000811104C0C0931D01CF91089583E891E0F8
:102840000E94A50620910D0230910E028A3011F0EF
:102850008D3011F52115310549F3215F3D4FF90107
:1028600010828FE092E0AFDF811111C083E392E02C
:102870000E948C048FE092E00E9481048BE192E040
:102880000E948C0480E090E09EDF0E9499041092E8
:102890000E0210920D02CACF2034310538F6A9017C
:1028A0004F5F5F4F50930E0240930D02215F3D4FEB
:1028B000F9018083BBCFE4E6F0E080818B7F8083E9
:1028C000299A84B1876084B9239880E58CBD8DB541
:1028D00081608DBD0895A2E0B0E0E0E7F4E1CFC3F0
:1028E00084E592E0FC0101962091F100208322E032
:1028F0008C359207B9F780915402909155029A3025
:1029000008F01CC1E92FF0E0E957F74EA2C3803868
:1029100079F0823809F012C1809158028093E90061
:102920008091EB0085FB882780F91092E90006C0B2
:102930008091500290915102911182609091E80033
:10294000977F9093E8008093F1001092F1008091BE
:10295000E800982F9E7F9093E8008F778093E8009F
:102960008091E80082FF05C08091E800982F9B7F4E
:1029700034C0809153028111F3CF8091E80083FF2E
:102980000AC08091EB0080628093EB008091E800A8
:10299000877F8093E8002296E2E08DC381110BC00F
:1029A00080915602813049F781E0933009F080E050
:1029B0008093510207C0823009F0C0C08091560256
:1029C000882389F01092E9008091E800877F809346
:1029D000E8008091E800982F9E7F9093E8008F7721
:1029E0008093E800CACF809158028770882329F22B
:1029F0008093E9002091EB0020FFE4CF9130B9F4FF
:102A00009091EB0090619093EB0021E030E0A90100
:102A100002C0440F551F8A95E2F74093EA001092D6
:102A2000EA008091EB0088608093EB00CBCF80912F
:102A3000EB008062F9CF811181C0809156029091A4
:102A4000E800977F9093E8009091E800292F2E7F6F
:102A50002093E8009F779093E8009091E80090FF22
:102A60000CC0982F9F7780688093E300992309F426
:102A700084CF83E08093530280CF909153029111D1
:102A8000ECCF7BCF8058823008F058C0AE014F5F4A
:102A90005F4F6091580280915602909157020E94B8
:102AA0009101BC01892B09F468CF8091E800877FF0
:102AB0008093E80089819A8107D156CF8038F1F55B
:102AC0008091E800877F8093E80080915202809394
:102AD000F1008091E800982F9E7F9093E8008F7717
:102AE0008093E8008091E80082FD3ECF8091530200
:102AF0008111F8CF42CF811121C0909156029230BE
:102B000008F03BCF8091E800877F8093E8009093A6
:102B100052028091E800982F9E7F9093E8008F7773
:102B20008093E80080915202882331F084E0809302
:102B300053020E94780321CF83E0F9CF0E949003D3
:102B40001CCF8093E900EBEEF0E080818160808310
:102B5000EDEEF0E010826093EC0040838091EE0097
:102B6000881F8827881F08951092F40080E08093C2
:102B7000E9001092F0001092E8009091ED009D7F26
:102B80009093ED009091EB009E7F9093EB008F5F10
:102B9000853069F708958091540287FF17C08091AE
:102BA000E80082FF0AC08091E800982F9B7F9093F5
:102BB000E8008F778093E80004C080915302811170
:102BC000EECF0895809153028823D9F38091E800D5
:102BD00080FFF8CF8091E800982F9E7FE8CF95E6A0
:102BE0008091EC008170882331F08091E80080FFB3
:102BF00006C080E008952091E80022FD19C0809170
:102C00005302882391F08091EB0085FD10C08091E4
:102C1000E10082FFE5CF8091E1008B7F8093E100AE
:102C200091509111DDCF83E0089582E0089581E015
:102C3000089520915A0230915B026217730708F4DD
:102C40009B0150E02115310541F4511106C08091DE
:102C5000E80082FF31C080E008954091E80043FD24
:102C600031C04091E80042FDF2CF4091530244232D
:102C700039F14091E80040FFE5CF2115310521F001
:102C80004091F200483080F04091F20051E048302D
:102C900009F050E04091E800642F6E7F6093E800F7
:102CA0004F774093E800CECFFC0181918093F100F3
:102CB00021503109CF01E1CF809153028111C7CF5B
:102CC00082E0089581E0089520915A0230915B02DC
:102CD0006217730708F49B0150E02115310541F498
:102CE000511106C08091E80082FF32C080E0089553
:102CF0004091E80043FD32C04091E80042FDF2CF30
:102D000040915302442341F14091E800FC0140FF0F
:102D1000E4CF2115310521F08091F200883088F050
:102D2000CF014091F20051E0483009F050E040916D
:102D3000E800642F6E7F6093E8004F774093E800CF
:102D4000CCCF84918093F100215031093196E1CFAD
:102D5000809153028111C6CF82E0089581E00895E9
:102D60009B012115310531F48091E80080FF28C0D6
:102D700080E008954091E80043FD28C0409153024F
:102D8000442311F14091E80042FFF4CF4091F2005A
:102D9000FC0141110BC08091E800982F9B7F90931C
:102DA000E8008F778093E800CF01DBCF8091F100BE
:102DB0008193215031092115310569F3CF01E6CF07
:102DC000809153028111D0CF82E0089581E008956F
:102DD00053D055D0109253021092520210925102C9
:102DE0001092500219BC89B5826089BD09B400FEF9
:102DF000FDCF8091D800982F9F779093D80080685E
:102E00008093D800809163008E7F809363008091CF
:102E1000D8008F7D8093D8008091E0008E7F8093D2
:102E2000E0008091E1008E7F8093E1008091E200DC
:102E300081608093E2008091E100877F8093E100D0
:102E40008091E20088608093E2000895C1DF81E014
:102E500080935C0278940895BBDFE0EEF0E080811F
:102E600081608083E8EDF0E080818F77808319BCFA
:102E700010925C02089508951092E2000895109255
:102E8000E10008951F920F920FB60F9211242F9315
:102E90003F934F935F936F937F938F939F93AF93E2
:102EA000BF93EF93FF938091E10080FF1CC080915E
:102EB000E20080FF18C08091E1008E7F8093E100E6
:102EC0008091E2008E7F8093E2008091E200806139
:102ED0008093E2008091D80080628093D80019BC72
:102EE00010925302C8DF8091E10084FF27C08091D7
:102EF000E20084FF23C019BC89B5826089BD89B511
:102F000081708823E1F39091D8009F7D9093D80041
:102F10009091E1009F7E9093E1009091E2009F7E6E
:102F20009093E2009091E20091609093E200909182
:102F30005202911184E0809353029DDF8091E10061
:102F400083FF23C08091E20083FF1FC08091E100D6
:102F5000877F8093E10082E08093530210925202B7
:102F60008091E1008E7F8093E1008091E2008E7F6E
:102F70008093E2008091E20080618093E200F4DDC2
:102F800042E060E080E0DDDD76DFFF91EF91BF9110
:102F9000AF919F918F917F916F915F914F913F91F1
:102FA0002F910F900FBE0F901F901895CF93809187
:102FB0005302882359F0C091E900C7701092E900CC
:102FC0008091E80083FD87DCC093E900CF910895EC
:102FD000002480FD060E660F11F08695D1F7802D36
:102FE00008950024552704C0080E591F880F991F03
:102FF000009729F076956795B8F37105B9F7802D9C
:10300000952F0895AA1BBB1B51E107C0AA1FBB1F28
:10301000A617B70710F0A61BB70B881F991F5A9564
:10302000A9F780959095BC01CD01089597FB072ED7
:1030300016F4009406D077FD08D0E4DF07FC05D035
:103040003EF4909581959F4F0895709561957F4FBF
:103050000895EE0FFF1F0590F491E02D09942F9233
:103060003F924F925F926F927F928F929F92AF9218
:10307000BF92CF92DF92EF92FF920F931F93CF9365
:10308000DF93CDB7DEB7CA1BDB0B0FB6F894DEBFFC
:103090000FBECDBF09942A88398848885F846E8422
:1030A0007D848C849B84AA84B984C884DF80EE806C
:1030B000FD800C811B81AA81B981CE0FD11D0FB675
:1030C000F894DEBF0FBECDBFED010895FB01DC011A
:1030D00002C001900D9241505040D8F70895F999DF
:1030E000FECF92BD81BDF89A992780B50895262F0D
:1030F000F999FECF1FBA92BD81BD20BD0FB6F894DD
:10310000FA9AF99A0FBE01960895F894FFCF8714A2
:10311000CE149E15CE149E151B1542159E155E15D8
:023120007B151D
:10312200802500000000080210B07106000401A40E
:043132000132310035
:00000001FF
