:100000000DC100000C94010D25C1000023C10000AA
:1000100021C100001FC100001DC100001BC1000064
:1000200019C1000017C1000015C100000C94AD0CEF
:1000300011C100000FC1000094C200000BC10000FC
:1000400009C1000007C100000C94580E0C94240E46
:1000500001C10000FFC00000FDC00000FBC00000A7
:10006000F9C00000F7C0000042F004620A13434CDC
:1000700002651705461807471C074BC4076CDE04CA
:100080004D5407525A04549F0574EA02564F0557BF
:100090009C04587309781302000000000000202F10
:1000A0002000203D20000D2E2D07D3913D0432006D
:1000B00000060021656A55E43023B90007001814D2
:1000C0006C070090876BF85611E92A001F41000069
:1000D000030F1E2627000000030F1E253638670079
:1000E000030F256740605000030F2751888381006C
:1000F000030F2750C8C3C200270000000000000003
:100100006700000000000000500000000000000038
:100110008100000000000000C20000000000005646
:1001200020312E3638206E616E6F43554C3836388C
:100130005F7235363800202F2000203D20004C4FC4
:1001400056460D0A00424F56460D0A00206973209C
:10015000756E6B6E6F776E2920557365206F6E65B7
:10016000206F66003F2028004F4646004F4646005D
:10017000434D4F444500544D4F444500534D4F446B
:1001800045000454053D1700000602000B080C0052
:100190000D100EB50FE8105C11041206132214F8AE
:1001A0000A00154421B622101818192E1ABF1B4335
:1001B0001C091DB523EA242A2500261F29592C8154
:1001C0002D352E0907040800090006FF3EC2FF0472
:1001D0007605961700000602000B080C000D100EA5
:1001E000AC0F4F106A114A1206132214F80A0015B8
:1001F0004721B622101818192E1A6D1B041C091D50
:10020000B223EA242A2500261F29592C812D352EB8
:100210000907040800090006FF3EC2FF11241FBEA3
:10022000CFEFD8E0DEBFCDBF11E0A0E0B1E0E6E760
:10023000FFE202C005900D92A237B107D9F728E07E
:10024000A2E7B1E001C01D92AA3EB207E1F703D0D8
:100250000C94B917D5CE0FB6F894A895809160008C
:10026000886180936000109260000FBEC1E080E85A
:100270000FB6F89480936100C09361000FBE219A7D
:10028000299A0E942F0FF8D389EF87BD84E085BD9E
:1002900082E084BD80936E00109280008AE080939B
:1002A000810084B7877F84BF88E19FE00FB6F89410
:1002B000A895809360000FBE909360008CE090E062
:1002C0000E94890E31D4EFD782EE9EE090933904DC
:1002D00080933804C0937A01299878940E94AB0ED9
:1002E0000E948B0A8DD10E947610F8CF8EBD0DB47E
:1002F00007FEFDCF8EB50895EF92FF920F931F93E7
:10030000CF93C82F8A3008F0C8E028E0C29FC00110
:100310001124FC01E153FF4F7F010BE210E0F701D4
:100320006491C8010F5F1F4FA8D2FFEFEF1AFF0AB9
:1003300003331105A1F7C55061E1C53008F067E14D
:1003400084E290E09AD2CF911F910F91FF90EF90AD
:1003500008950F931F93CF93DF9306EA10E0C2E056
:10036000D0E0F8016491CE01219687D20F5F1F4F34
:10037000CB32D105B1F788E0BFDFDF91CF911F917C
:100380000F9108952A98806CB1DF80E0AFDF2A9A40
:100390000895CF93C62F2A988064A8DF8C2FA6DFFC
:1003A0002A9ACF9108952A98A1DF2A9A08950F9347
:1003B0001F93CF93DF93EC01E898229A2A9A8EE15B
:1003C00090E05CD12A988EE190E058D12A9A8DE293
:1003D00090E054D180E3E7DF84E690E04FD12A98A3
:1003E00080E484DF8E01075D1F4FCE0121964AD243
:1003F0007DDF0C171D07C9F72A9A2A988EE776DF4A
:10040000CBE2D0E0CE0121963DD270DFC333D105DF
:10041000C9F72A9A83E3C7DF81E035D1DF91CF9115
:100420001F910F910895A1E0B0E0E9E1F2E00C9492
:10043000731722E0298341E0BE016F5F7F4F019671
:10044000E6D1898159DF82E090E0B1DF2196E2E0D8
:100450000C948F17CF93E89886E3A5DFCFEF85E361
:10046000A2DF8077803231F08AE090E007D1C1507E
:10047000C111F5CFCF910895CF93CFEF84E393DFF0
:100480008077803131F08AE090E0F8D0C150C1111E
:10049000F5CFE89ACF910895A2E0B0E0E2E5F2E06E
:1004A0000C9471178C01FC0181818737F1F441E0D4
:1004B000BE016F5F7F4FC8010296A9D1892BA9F0B9
:1004C00041E0BE016E5F7F4FC8010496A0D1892B29
:1004D00061F06A8189815DDF83E365DFCDDF89813A
:1004E00091D18A818FD109D118C041E0BE016E5FE0
:1004F0007F4FC80101968BD1892B79F08A81893988
:1005000081F410E0812F3EDF7DD1812F877087300D
:1005100009F4F3D01F5F1033A9F72296E4E00C949E
:100520008D1730DF182F83E4B8D08A816BD182EA2F
:1005300090E0D6D0812F66D18EE990E0D1D040E214
:1005400062E0812F90E0DED0CECF86E32CDF1092E8
:100550007201089582E090E02ADF81E080937201C9
:1005600008951F921FB61F9211248F939F93AF93EC
:10057000BF938091740190917501A0917601B09123
:1005800077010196A11DB11D8093740190937501AF
:10059000A0937601B0937701809173018F5F809370
:1005A0007301BF91AF919F918F911F901FBE1F90BC
:1005B0001895FC018FB7F894409174015091750122
:1005C00060917601709177014083518362837383D8
:1005D0008FBF0895A4E0B0E0E0EFF2E00C94731751
:1005E000CE010196E6DF8C810DD18B810BD18A8102
:1005F00009D1898107D181D02496E2E00C948F172C
:100600008091740190917501A0917601B09177016C
:1006100020917901281789F18091740190917501D9
:10062000A0917601B091770180937901A89580918E
:1006300073018D3710F1109273018091000181FFD9
:1006400004C085B192E0892785B980917E0190919F
:100650007F01843823E0920728F4019690937F016C
:1006600080937E018091780191E0980F8B3319F08F
:10067000909378010895109278010895880F991F3A
:100680000197F1F7089520ED37E0811101C0089539
:10069000F9013197F1F78150F8CF682F80917A01F5
:1006A00080FF12C080910803909109038A3221E0F3
:1006B000920738F08C32914038F46D3011F06A3086
:1006C00019F484E093E0F0C10895CF93DF93EC0137
:1006D0008991811103C0DF91CF910895DEDFF8CFBA
:1006E000CF93DF93EC01FE018491811103C0DF9170
:1006F000CF910895D2DF2196F6CF8DE0CEDF8AE04C
:10070000CCCF0895A6E0B0E0E8E8F3E00C946F17D2
:10071000FC01262F1E828E010A5F1F4F35E08AE002
:10072000E82EF12CCF01B7010E944F173150805DA8
:10073000D8018E938D01CF01FB010A97A8F4832F76
:100740002550622F630F615067FD02C0811110C0F8
:1007500021E030E02C0F3D1F280F311DC901B5DF0E
:100760002696E6E00C948B173111DCCF80E0E8CFC1
:100770008150E1E0F0E0EC0FFD1FE80FF11D408338
:10078000E2CFA5E0B0E0E7ECF3E00C9473179C0136
:100790001D8254E0922F9F709A3048F5905D8FEF44
:1007A000850FE1E0F0E0EC0FFD1FE80FF11D9083F5
:1007B000F90194E0F695E7959A95E1F72031310536
:1007C00098F45550650F615067FD02C0811111C04A
:1007D00021E030E02C0F3D1F280F311DC90175DFCE
:1007E0002596E2E00C948F17582F9F01D3CF995C88
:1007F000D6CF8150E1E0F0E0EC0FFD1FE80FF11DD6
:100800004083E1CF40E362E090E0BBCF0895CF9317
:10081000DF93EB01FB0130E020E0DC019D919923A7
:1008200031F0913670F08FE9890F863030F0CF01CA
:100830008C1B9D0BDF91CF91089590529753292BDC
:1008400005C080ED890F8A3050F4282B332389F0BE
:1008500021934150442359F330E020E008C08FEB4E
:10086000890F863058F3903211F09A3301F7CD0199
:10087000D4CF2295207F31E0FACF0E94AB17F999AF
:10088000FECF08950C94A31708950F931F93CF9351
:100890008C01CFEFC60FC801F5DFB4DFCC2331F0F8
:1008A0000F5F1F4F8AE3F9DEC150F5CFCF911F9143
:1008B0000F910895A2E0B0E0E0E6F4E00C94701728
:1008C000FC0181818D3449F466E08AEF93E0DDDF3D
:1008D00014DF2296E5E00C948C17803521F460E15A
:1008E0008AED93E0F4CF1A82198242E0BE016F5F75
:1008F0007F4FCF0101968BDF098110E0823029F410
:1009000009811A81102701271027C801BBDFF82EA3
:1009100082E5C3DE40E364E0C80133DF8AE391E0AF
:10092000DFDE8F2D6FDF86E391E0DADE40E262E00A
:100930008F2D90E0E7DECCCFA6E0B0E0E2EAF4E075
:100940000C946B176C0143E0CE0101967C01BC0155
:10095000C60101965CDF8C01BE2CAF2C8230D0F03A
:10096000E980F12C823029F0E980FA80FE24EF241E
:10097000FE241127FE01E00FF11F6081C7017DDF1A
:10098000000F111F0F5F1F4F0C0D1D1DF8018081FF
:10099000811104C02696EAE00C94871741E06B2D84
:1009A0007A2DC80134DF892BA9F39FEFE91AF90AE0
:1009B0006981C70162DF0E5F1F4FE8CF41E060E051
:1009C00071E0019624DF8091000180FF07C0299A21
:1009D0006091000184E390E050CF08952998F8CF0A
:1009E000A1E0B0E0E6EFF4E00C94731719820097F1
:1009F00031F041E0BE016F5F7F4F019608DF8981D2
:100A00008F3F09F4FFCF882321F061E083E390E07A
:100A100034DF10926E00F89488E198E00FB6F894F5
:100A2000A895809360000FBE90936000FFCFCF9396
:100A3000DF93EC0161E080E090E01FDF64E481E09F
:100A400090E01BDF86DC60E080E690E016DF60E08F
:100A500081E690E012DF60E083E390E00EDF62E089
:100A600084E390E00ADF8981883719F080E090E024
:100A7000B7DFDF91CF91089580E090E003DF813010
:100A800029F481E090E0FEDE843419F080E090E00B
:100A9000CEDF84E390E0F6DE8093000108958FE1DD
:100AA00091E01EDE2ACE0895FC012FB7F8948481D0
:100AB00095818C3231E0930710F02FBF0895019695
:100AC0009583848380819181AC014F5F5F4F518317
:100AD00040838E0F9F1FDC0116966C934C32514061
:100AE00061F711821082E9CFFC012FB7F89484815D
:100AF0009581009719F42FBF80E0089501979583A1
:100B0000848382819381AC014F5F5F4F5383428323
:100B10008E0F9F1FDC0116968C914C32514011F4C0
:100B2000138212822FBF089585E390E0ABDE80939D
:100B30007D0186E390E0A6DE80937C010895A6E027
:100B4000B0E0E5EAF5E00C94731745E0BE016F5F95
:100B50007F4F01965CDE843070F499819130A9F466
:100B6000833069F46A8185E390E087DE6B8186E3F8
:100B700090E083DED9DF2696E2E00C948F17809117
:100B80007D0140DE80917C013DDEB7DDF4CFCF9367
:100B9000DF93FB01DA019C91882369F0EB01C90F17
:100BA000D11D41E050E0022E01C0440F0A94EAF743
:100BB0008881842B8883222331F02150822F90E07A
:100BC000DF91CF9108959F5F9C3008F49C93E90FCB
:100BD000F11D108227E0F2CF5B9A882381F080918B
:100BE000810120E1829FC001112448DD5B98809142
:100BF000800120E1829FC001112440CD08958091A1
:100C0000830120E1829FC001112438DD5B9880912F
:100C10008201EFCFA0E0B0E0E0E1F6E00C946317D2
:100C20006C01462EC22F502E3E2C642E712C4E5F2E
:100C3000409F402D1124042E000C550B80917E0105
:100C400090917F018417950740F48EE391E048DD91
:100C5000CDB7DEB7E2E10C947F17841B950B909320
:100C60007F0180937E01299A80917201811101C0D8
:100C700071DCF0DBA42CB12C01E010E0EC2EF12CA7
:100C8000C0E08C2F0C2E000C990B8A159B051CF1D3
:100C9000442011F081E0A0DF212CC22D022C000C99
:100CA000DD0BC615D705DCF087E0982ECC0DDD1DD9
:100CB000892D092C000C990BE816F90624F1832DD7
:100CC000E2DC5A945110DCCF80918501882331F108
:100CD000D3DB2998BDCF80E07FDFCF5FD2CF97E015
:100CE000892E912CCC0DDD1DC801082C01C0880F68
:100CF0000A94EAF7988189236FDF81E0881A9108C6
:100D000098F72394CACFC801092C01C0880F0A9410
:100D1000EAF79881892360DF9A94CACF86E343DBA0
:100D2000D8CFADE0B0E0E7E9F6E00C9464177C01C1
:100D3000162F842F022F6701C60ED11C462FB70134
:100D4000EAD2F60180831F5F1D861982C12CD12C47
:100D500027E0CE010D9688248394912C582E492E9D
:100D600097E0A92EB12C37016C0C7D1CC116C8F080
:100D7000222309F440C0215089E1809382018093AD
:100D8000830185E280938001809381018AE0E82ECF
:100D90004D856CE0CE0101963DDF2D96E1E10C948E
:100DA0008017F3013080C4010A2C01C0880F0A9417
:100DB000EAF7452D542DBE016F5F7F4F8321E7DE9B
:100DC000282FF1E0AF1AB10888F6032C32943024B2
:100DD000032C369436943024339431FA882780F9E2
:100DE000452D542DBE016F5F7F4FD1DE282FEFEFD1
:100DF000CE1ADE0AB5CF8D858F5F8D8727E0BCCFF9
:100E0000ACE0B0E0E6E0F7E00C947117162F042F89
:100E10004BE0BE016F5F7F4F0196F9DC682F202FFA
:100E2000412FCE0101967DDF2C96E4E00C948D17C6
:100E300043E066E0E5CF0895EF920F93CF93DF9301
:100E4000CDB7DEB760970FB6F894DEBF0FBECDBF4B
:100E500040E1BE016F5F7F4F0196D9DC69814A8115
:100E60000B818C81809383018D81809382018E819F
:100E7000809381018F8180938001E02EE2948FE046
:100E8000E8220F70242F2F7042954F70CE010896E4
:100E9000C1DE60960FB6F894DEBF0FBECDBFDF9106
:100EA000CF910F91EF900895A9E1B0E0EAE5F7E066
:100EB0000C9469174BE0BE016F5F7F4F0196A7DC72
:100EC000182F8930B1F589E18093820180938301E5
:100ED0008093810182E38093800169E0CE010196D5
:100EE00025D2E1E0F0E0EC0FFD1FE10FF11D808362
:100EF000198E1D868E010F5F1F4F7E018BE0E80E5D
:100F0000F11C27E0CE014996CC24C394D12C982E15
:100F1000892EA12CB12C0E151F0579F4222379F10D
:100F200021508AE0E82E03E0498D6CE0CE010D9659
:100F300071DE6996ECE00C948517C6010A2C01C09D
:100F4000880F0A94EAF7F8019081492D582DBE01C7
:100F5000635F7F4F89231BDE282FFFEFAF1ABF0A85
:100F600088E0A816B104B9F6492D582DBE01635F7B
:100F70007F4F81E00CDE282F0F5F1F4FCACF898D76
:100F80008F5F898F27E0CDCFA9E1B0E0EAECF7E0F1
:100F90000C9465174BE08E010F5F1F4FB80101964F
:100FA00036DC782E85E38093830196E1909382016D
:100FB0009093810180938001672DC801C3D1F8010E
:100FC000E70DF11D80837394198E1D86780127E04B
:100FD0006E0189E1C80ED11CAA24A394B12C8E2DD8
:100FE000801B871560F08AE0E82E03E0498D6AE0F7
:100FF000CE010D960FDE6996E0E10C948117812CED
:10100000912CF7015080C501082C01C0880F0A946B
:10101000EAF7A601BE01635F7F4F8521B8DD282F67
:10102000FFEF8F1A9F0A4C2C6D2C84E088169104D8
:1010300041F7A601BE01635F7F4F81E0A8DD282F45
:10104000C501082C01C0880F0A94EAF7442D562DDB
:10105000BE01635F7F4F85219ADD282FEFEF8E1A47
:101060009E0AF8E08F16910459F7442D562DBE01C3
:10107000635F7F4F81E08BDD282F8FEFE81AF80A3E
:10108000AECFA0E0B0E0E7E4F8E00C946B17FC0111
:10109000109299014181440F440F440F8381481BF2
:1010A00087E0C82EC40E10929A0120E030E047E09D
:1010B00057E070E080E097E0E92EF12C01E010E0CD
:1010C000DD24D394D80E8C1580F02093A6013093A4
:1010D0009901CD14A0F5653409F088C04F3F09F09F
:1010E00085C02F5F2093A60183C0DF01A70FB11D2C
:1010F00014968C9190E0052E02C0959587950A94E0
:10110000E2F78170552369F051506B34D1F44330CC
:1011100059F4332371F030E0811155C04150832FD1
:101120001EC07F5F57E0F1CF4F3FB1F781110FC075
:101130002FC0811114C02093A6011092990180E064
:101140005DC04F3F51F5663469F0653479F32F5F28
:10115000A22FB0E0A656BE4F1C92832F47E0382F37
:101160008D2DAECFA22FB0E0A656BE4FAC910A2E69
:10117000A295A0250A2EA695A695A02590E0AF5F82
:10118000A695A170CA2FA12CDA2D8C179D07F9F214
:101190002093A60130939901D2CF882309F4BECFC2
:1011A000663471F4A22FB0E0A656BE4FBC90C801C1
:1011B000042E01C0880F0A94EAF78B298C93AECFD6
:1011C000653409F0ABCFA22FB0E0A656BE4FC701E1
:1011D000841B910947FD9395580102C0AA0CBB1CC2
:1011E0008A95E2F7C5019C91892BE8CF311179CF1F
:1011F00081E09091A601992309F4A1CFCDB7DEB784
:10120000EAE00C94871710926F00E091A90184E145
:10121000E89FF0011124E655FE4F10820895FC016D
:1012200081818C3010F0EFCF08959381662381F097
:10123000DF01A80FB11D41E050E0092E01C0440FAD
:101240000A94EAF714962C911497242B14962C9355
:10125000992319F091509383089597E093838F5FBA
:101260008183E80FF11D1482089570E030E0FB01E6
:10127000E21BF30B3B967797A0F490E050E0FC0163
:10128000E41BF50B3B96779760F4680F791F240FEA
:10129000351F621B730B655F7F4F81E067317105FE
:1012A00008F080E00895539A5B985298E9E6F0E0E0
:1012B00080818160808382EC91E090937F018093B4
:1012C0007E011092BE0110927201089580917D05F9
:1012D000811108C080918501882319F03BD9CCC8C1
:1012E000089533C90895FC01818181110CC080915A
:1012F000850188DA40E265E080917E0190917F016E
:1013000001DAFBC9089541E065E871E0CF0101967B
:101310007EDADCCF08959B01411101C00895415050
:10132000F901E40FF11D9081890FF6CF9C0180E057
:10133000611101C008956150F901E60FF11D90811E
:101340008927F6CFAC01F0919901362F85E090E026
:10135000311109C0292F280F80E1289F9001112405
:10136000892F822B08957FEF730FDA01A70FB11D2C
:101370002C91E22FE295EF709E278E0FFF2311F044
:10138000361719F02F709227820F372FE1CFFC010B
:1013900022813381A081B181A20FB11D8C9190E097
:1013A000032E02C0959587950A94E2F781709FEF0E
:1013B000930F9383311104C02F5F228397E09383AF
:1013C0000895A0E0B0E0E7EEF9E00C946C17D82E99
:1013D000C92EE42E062F10E0E801F12CBB24B394B3
:1013E000209731F48F2DCDB7DEB7E9E00C94881744
:1013F0008D2D9C2DCCDFAE0141505109882349F041
:10140000EE2049F02B2D042E01C0220F0A94EAF79A
:10141000F22AEA01E5CF98012C1B3D0B8B2D01C070
:10142000880F2A95EAF7282FF3CFA4E0B0E0EBE18C
:10143000FAE00C946B17FC011B8287E08C83CF01D0
:1014400004969A8389831092A601818128E0829F65
:10145000C0011124438127E030E0241B3109820FB1
:10146000931F853491050CF04CC080E046C0A9DF85
:10147000A82EE12FF0E0E656FE4F8083082F002EC5
:1014800002950025002E069506950025CE010196B1
:101490007EDF90E00F5F01FBCC24C0F8D12C8C15CF
:1014A0009D0519F7CE01019672DF8111DECFBA24B6
:1014B0001F5F1093A6011091A60140E068E0CE01E5
:1014C00001961630A0F27DDF082F182F012E1295FD
:1014D0001025012E169516951025CE01019657DF81
:1014E00090E01F5F11FBEE24E0F8F12C8E159F05B4
:1014F00009F0BBCF81E0B012B8CF2496EAE00C949B
:101500008717B12CD8CF8091840180FD03C08460FF
:10151000809384010895A1E0B0E0E1E9FAE00C9441
:101520006E17198280918601882379F18091850157
:1015300087FF13C084E30E94C2018058803408F4FE
:1015400071C0803C08F070C08055990B23E09595E0
:1015500087952A95E1F78F59A0D88091850183FF5F
:1015600012C082E79AD88091850184FF03C08091E0
:10157000870193D886E691D88091850184FF03C0C6
:10158000809186018AD8109286018091A7018823D4
:1015900009F462C1299A0091A80124E1029F800107
:1015A000112406551E4F8981811150C066E4C8017F
:1015B00068DD8823B9F0F090A601FA94F092A601B4
:1015C0004F2D6AE971E086E0A6DEEF2DF0E0E656E9
:1015D000FE4FE080E8122AC033E086E43F1508F4AD
:1015E0004BC1198265E4C8014CDD811147C1C801B6
:1015F0001CDF811155C1F8016389262F40918701B5
:10160000828933DE682FC8010ADE6BE4C80139DD48
:10161000811148C1F8018381873009F45BC18F5F74
:10162000838314C080E097CF8FE095CF282F30E0E0
:101630002F5F3F4F4E2D50E02417350709F010C1A2
:1016400093E09F1570F696E499838083E980D090AB
:101650008501EE2009F481C0D0FE7FC08091840115
:101660008A7F809384018D2D8270811125C0F09036
:10167000A60190919801ECE8F1E0AAE9B1E09F158C
:1016800009F439C14F2D50E06AE971E08CE891E02E
:101690000E949A17F09298018091740190917501BF
:1016A000A0917601B0917701809388019093890190
:1016B000A0938A01B0938B01F4E5EF121DC0D6FC14
:1016C0001BC08091A6018530B8F080919C018B34BD
:1016D00071F0893661F09DEA980F923040F08D5795
:1016E000823028F080919D018077803729F48091A5
:1016F0008401816080938401B801CE01019603DFEB
:101700008091840182FF29C08E2D0E944D0380911B
:101710009901882329F08091A60181508093A60128
:10172000F12CE091A601FE1608F406C18091990102
:10173000882349F0F0E0E656FE4F80818F7040E349
:1017400061E090E01ED88091850185FF04C084E3AC
:101750000E94C20157D80E947D038091850182FFBB
:101760006AC080E70E944D03F801808140E262E098
:1017700090E00E948203F801808940E265E0F0E198
:101780008F9FC00111240E948203F801818940E2E9
:1017900065E0F0E18F9FC00111240E948203F801EF
:1017A000828940E265E0F0E18F9FC00111240E9430
:1017B0008203F801838940E265E0F0E18F9FC00178
:1017C00011240E948203F801828140E263E090E0EC
:1017D0000E948203F801818140E263E090E00E9470
:1017E0008203F801838140E262E027E030E0F90102
:1017F000E81BF109CF010E94820380E20E944D03A1
:101800008091850185FF08C084E30E94C2010E9487
:10181000020480E20E944D03F8018381873019F0B1
:1018200081818F5F8183F12CF8018181F81608F4A2
:101830008CC00E947D03F80110828091A701815025
:101840008093A7019091A80181E0890F913009F45C
:1018500080E08093A80129982196E7E00C948A17EC
:101860004F2D6AE971E08CE056DDE812BACEE3E074
:1018700084E5EF1508F0B5CE8983E8CE8091A60106
:1018800081508093A601893009F0B1CE69E08AE9E0
:1018900091E04CDD9091A3018913A9CE85E4ECCFB2
:1018A00088E4EACFE091A601FF24FA94FE0EF092BC
:1018B000A6016F2D8AE991E045DD909199012F2DC8
:1018C000291B330BF901E656FE4F90818913A2CEF6
:1018D0008BE4D2CFF8011382818181508183B6CE0F
:1018E00021919D918F5F291731F0809184018D7F27
:1018F00080938401C7CEF812F3CFF09298018091C3
:10190000740190917501A0917601B0917701409199
:1019100088015091890160918A0170918B01841B2B
:10192000950BA60BB70B8697A105B10508F0AACEBB
:10193000809184018160DCCFEF2DF0E0E656FE4F10
:1019400080810E940204F394ECCEF801EF0DF11DAA
:1019500084810E940204F39467CF1F920F920FB606
:101960000F9211242F933F934F935F936F937F9325
:101970008F939F93AF93BF93EF93FF9310926F005A
:101980008091850183FF03C08EE20E944D039091F8
:10199000A90184E1989FF0011124E655FE4F808152
:1019A000833018F08181823090F42DDCFF91EF912B
:1019B000BF91AF919F918F917F916F915F914F9167
:1019C0003F912F910F900FBE0F901F90189580910F
:1019D000A701813049F48091850182FFE6CF85E43B
:1019E00091E00E947003E1CF8F5F8093A70181E0B7
:1019F000890F913019F08093A901D8CF1092A901D5
:101A0000D5CF1F920F920FB60F921124EF92FF9233
:101A10000F931F932F933F934F935F936F937F93F6
:101A20008F939F93AF93BF93CF93DF93EF93FF93E6
:101A3000009184001091850064E0169507956A95E1
:101A4000E1F7C091A90124E1C29FE0011124C6552C
:101A5000DE4F98819430E1F40E3218F00F34E8F044
:101A6000D2DBFF91EF91DF91CF91BF91AF919F9129
:101A70008F917F916F915F914F913F912F911F9126
:101A80000F91FF90EF900F900FBE0F901F90189541
:101A90004A991AC000938701E4CF4A9908C061E0CF
:101AA000CE01BDDB1092850010928400F3CF8091AF
:101AB0008701081B00938601109285001092840014
:101AC00060E0CE01ACDBCDCF80918701081B009395
:101AD0008601109285001092840082E086BB088106
:101AE0001091870101110FC0153608F0BACF80910F
:101AF0008601853608F0B5CF188B898B81E08A8303
:101B000082E08883AECFF0908601023009F04AC0AF
:101B10000889E9882F2D412F6E2D802FA6DB4A8161
:101B20008823F9F0802F90E09C01220F331F820F51
:101B3000931F810F911D9595879595958795888B16
:101B40006E2D70E0CB01880F991F860F971F8F0DA8
:101B5000911D9595879595958795898B4F5F4A83BC
:101B600080CF4430E8F080EA9FE090938900809332
:101B700088004C3098F0202F2E0D3327331F253648
:101B8000310564F084E088831A8BFB8A198287E030
:101B90008B831C8282E080936F0063CF83E0F3CF5E
:101BA0001882A2CF2F2D412F6B898A895EDB882373
:101BB00001F161E0CE0133DB2A8930E0C901880FF1
:101BC000991F820F931F810F911D9595879595956C
:101BD00087958A8B2B8930E0C901880F991F820F66
:101BE000931F8F0D911D95958795959587958B8B57
:101BF00038CF2F2D412F6989888937DB882301F160
:101C000060E0CE010CDB288930E0C901880F991F04
:101C1000820F931F810F911D9595879595958795B7
:101C2000888B298930E0C901880F991F820F931F83
:101C30008F0D911D9595879595958795898B11CFDA
:101C4000073009F40ECF0CCF1F920F920FB60F92F0
:101C500011242F933F934F935F936F937F938F93B1
:101C60009F93AF93BF93EF93FF938091080390915D
:101C70000903892BB9F084E093E00E9474058093F6
:101C8000C600FF91EF91BF91AF919F918F917F918E
:101C90006F915F914F913F912F910F900FBE0F90D9
:101CA0001F9018958091C1008F7D8093C100E9CF6E
:101CB0001F920F920FB60F9211242F933F934F93C1
:101CC0005F936F937F938F939F93AF93BF93EF93A4
:101CD000FF9385B192E0892785B96091C600809114
:101CE000C0008871811104C082ED91E00E9454050A
:101CF000FF91EF91BF91AF919F918F917F916F91E4
:101D00005F914F913F912F910F900FBE0F901F90B9
:101D100018959C0197FF04C082E08093C0003F7734
:101D20003093C5002093C40088E98093C10086E009
:101D30008093C20008958091C10085FD0BC0809101
:101D4000080390910903892B29F08091C1008062DA
:101D50008093C1000895E0913804F091390481E046
:101D60000995E9CF08950F931F93CF93DF93EC016B
:101D700000E0802F90E09C01220F331F280F391FB5
:101D8000F901E859FF4F1491812FF901E759FF4FED
:101D900025913491112389F0209741F480E20E942B
:101DA0004D03812F0E944D030F5FE3CF9881911364
:101DB000FBCFCE01F901099581E0DF91CF911F9111
:101DC0000F910895CF93C0917A0180937A01809109
:101DD000D6019091D701892B21F4C0937A01CF913C
:101DE000089582ED91E00E94740520913A043091AB
:101DF0003B048A3011F08D3011F52115310539F38E
:101E0000245C3B4FF90110828CE394E0ACDF81113C
:101E100011C084E691E00E9470038CE394E00E947C
:101E200065038CE491E00E94700380E090E09BDF0A
:101E30000E947D0310923B0410923A04C8CF2C32CA
:101E4000F1E03F0720F6A9014F5F5F4F50933B043D
:101E500040933A04245C3B4FF9018083B8CF2D9A1C
:101E600084B18C6284B9249880E58CBD8DB5816085
:101E70008DBD0895A0E0B0E0E0E4FFE00C946C17A5
:101E8000B82E192F062F6A0179012A988FEF0E9428
:101E90007601CB2DD12F0C0F1D2F111DC017D1078F
:101EA000B1F4C114D10469F080E00E947601F6011A
:101EB0008083E114F10429F080E00E947601F701AB
:101EC00080832A9ACDB7DEB7E9E00C94881780E0CA
:101ED0000E9476018993E2CFEF92FF920F931F93B6
:101EE000CF93DF93182F062F5398529810927D05A9
:101EF00010927E05E898229A2A9A8EE190E00E943C
:101F00003E032A988EE190E00E943E032A9A8DE2D9
:101F100090E00E943E0380E30E94D30184E690E0BB
:101F20000E943E03113009F445C08EEF810F8230CC
:101F300008F03CC0C2E8D1E0FE018491813408F48D
:101F400055C00130D9F460E087E10E94C90167E023
:101F500083E00E94C90164E584E0113009F053C0B8
:101F60000E94C90166E785E00E94C90162E082E043
:101F70000E94C9016EE280E00E94C90110937D05B4
:101F800000937E0583E30E94D301EFE6F5E08EE047
:101F9000DF011D928A95E9F7E9E6F5E086E0DF01C9
:101FA0001D928A95E9F784E00E944303CDB7DEB71E
:101FB000E6E0B1C7CFECD1E0FE018491813408F0B6
:101FC000C0CF85E9E82E82E0F82EFE0131966491BB
:101FD000FE0184910E94C901EC16FD0609F4B1CFFF
:101FE0002296FE018491813480F3ABCF31966491C7
:101FF000FE0184910E94C901F2E0C834DF0709F4B0
:10200000A0CF229699CF0E94C9016DE385E00E947E
:10201000C90160E585E10E94C9016BE580E10E948C
:10202000C90168EF81E1A0CFCF9385E30E94C2018F
:10203000C82F8130D1F78BE30E94D3018AE30E943D
:10204000D30110926F0510927105109270051092D5
:102050007305109272058FE795E090937505809354
:10206000740510927605C0937705109278058091DB
:102070007D058093790510927A0510927B0560E0CA
:1020800083E00E94C90162E088E00E94C90184E304
:102090000E94D30185E30E94C2018D30D9F781E00F
:1020A00080937C05CF910895FF920F931F93CF9358
:1020B000DF93F82E192F062F2A988FE70E947601BA
:1020C000CF2DD12F0C0F1D2F111DC017D10731F4AB
:1020D0002A9A81E0CDB7DEB7E5E01EC789910E945C
:1020E0007601F3CF8DE30C94D3010895A4E0B0E022
:1020F000EBE7F0E1F3C680917E05823009F08AC0FB
:1021000090917D05992309F485C010917C051230CA
:1021100009F464C038F411115CC086E30E94D30155
:1021200083DF78C0133009F40CC189B18470D82ED4
:10213000811182C180917C05823008F47DC11C82AE
:102140001B829E012D5F3F4FAE014C5F5F4F609140
:10215000720580917405909175058CDE81E0809305
:10216000780580917905813009F01DC180916F0556
:10217000B8D3AC0167EC77E08FE795E034D47C010D
:102180008091C707AED38C01E114F10409F040C07F
:1021900082E60E944D0380917905833039F4809165
:1021A0007B05823019F489E50E944D038D2D90E066
:1021B0008017910708F438C18091850185FF06C01A
:1021C0008B810E9402048C810E9402040E947D0384
:1021D0001FC04A9BAACF80937C05A7CF4B9BA5CF5E
:1021E00020E030E040E050E063E0809174059091A1
:1021F000750540DE209179058091740590917505F3
:102200002130E1F4BE016F5F7F4F86D2882329F031
:1022100010927C052496E7E07DC6898180936F0546
:1022200060D3AC0160E081E072D3BC019093710592
:10223000809370058934924080F1EACF233009F011
:1022400068C0FC013081343509F063C020937A0501
:1022500021812D3C09F04BC021E020937B05828138
:1022600080936F058930A0F290E09C012A503109DB
:10227000B90137FF02C0615F7F4FE4E07595679554
:10228000EA95E1F76E5F7F4F660F771F0396680F41
:10229000791F709371056093700586E06F3F71053B
:1022A00011F008F04BC00E94C90160E088E00E9474
:1022B000C90181E080937605809174059091750540
:1022C00003969093750580937405809170059091A5
:1022D00071050397909373058093720510927705AB
:1022E00083E080937C0567E00E94C9011ECF2D33F7
:1022F00009F08ECF10937B05628160936F056C307F
:1023000008F486CF603809F483CF70E06D5F7F4FAB
:10231000C0CF40E0BE016F5F7F4F8AD2811178CF7E
:1023200082E080937A0581E080937B0589818093A8
:102330006F05D7D2AC0160E080E076CF0E94C90182
:10234000BBCF4B9BF2CE80917205909173058F3F6E
:10235000910509F058F480917605811107C060E07D
:1023600088E00E94C90181E08093760520E030E09A
:1023700040E050E06FE180917405909175057ADD41
:1023800080917205909173054F9790937305809398
:10239000720580917405909175054F96909375051F
:1023A00080937405C2CE80917A05823051F4809179
:1023B0006F0597D2AC0167EC77E08FE795E08AD3A1
:1023C000DECE833009F024CF80917B058130E9F4A3
:1023D00020916F0530E0C9010A9797FD0F9644E000
:1023E000959587954A95E1F78C010E5F1F4F000F79
:1023F000111F020F131F0F5F1F4FA80167EC77E03B
:1024000081E895E0EED37C01BFCE823009F000CFA9
:1024100000916F0510E00F5F1F4FA80167EC77E098
:1024200081E895E0AFD4EFCF8953984FFC018081CC
:102430000E940204D394BACE85E30E94C2018D307B
:1024400009F4E8CE10927C0568CEA0E0B0E0EAE2A4
:10245000F2E143C56C01F62E072FE42EFC018081CA
:1024600040D2EC0101978232914008F0D0C08091B7
:102470007E0510917D05823009F010E061E08E2D1F
:102480002BDD21E0AE01B6018F2D902FE21265C049
:1024900055D2AE0161E081E03AD280936905909314
:1024A0006A0520DEC82FC07786E3C111A4C08BE384
:1024B0000E94D301F0926B0500936C0510926E059B
:1024C0006091690570916A0586E06F3F710511F0B2
:1024D00008F048C00E94C90160E088E00E94C9017C
:1024E000C1E0C0936D05C0916905D0916A05C13402
:1024F000D10510F0C0E4D0E06C2F80916B05909175
:102500006C05D2DD80916B0590916C058C0F9D1F41
:1025100090936C0580936B058091690590916A0595
:102520008C1B9D0B90936A0580936905892B19F488
:1025300081E080936E0585E30E94D30101E08091E4
:102540006E058823B1F085E30E94C2018130D9F77E
:10255000111159C080E090E052C016D2AE0161E086
:1025600080E09ACF0E94C90162E088E00E94C90120
:10257000B8CF4B9B3AC0C0916905D0916A05C13272
:10258000D10520F080E2C82FE0E0DE2F6C2F809193
:102590006B0590916C0588DD80916B0590916C05C1
:1025A0008C0F9D1F90936C0580936B05809169053E
:1025B00090916A058C1B9D0B90936A058093690529
:1025C000009771F400936E0580916D058111B7CF6E
:1025D00060E088E00E94C90181E080936D05AFCF83
:1025E000803C910508F0ABCFEFCF7CDD8077803762
:1025F00009F0A5CF8BE30E94D30182E090E0CDB734
:10260000DEB7E8E086C462E0812F66DCA3CF81E01C
:1026100090E0F5CF1F93CF93DF93EC018981823750
:1026200061F58A81882329F08337D1F462E081E063
:1026300053DC80917E05823009F055C080917D0584
:10264000823009F447C0833009F447C0813009F073
:1026500047C08CE791E00E9470030E947D0336C062
:10266000843719F462E082E0E3CF833619F462E044
:1026700083E0DECF60E080E0DBCF8337D1F610E08F
:1026800006C06953784F41E00E9407041F5F612F25
:1026900070E09B01220F331FC90103968C0F9D1F11
:1026A000FC014081442331F02C0F3D1FF9012481AE
:1026B0002111E7CF8A8141E0833719F0843731F463
:1026C00042E06FE775E087EC97E0BFDEDF91CF91E6
:1026D0001F91089586E791E0BECF80E791E0BBCFE0
:1026E0008CE691E0B8CF88E691E0B5CFCF93DF9349
:1026F000EB01DC01EC91AE2FA295AF70B0E0AF5EC4
:10270000BE4F8C918883EF70F0E0EF5EFE4F8081CA
:102710008983DF91CF910895CF93DF93FC01EB0183
:10272000A08131818A2F82958F7090E08F5F9E4FBC
:10273000FC018081AF70B0E0AF5FBE4F4C91A32F22
:10274000A295AF70B0E0AF5FBE4F2C91E32FEF705A
:10275000F0E0EF5FFE4F608191E08F3F09F090E085
:1027600031E04F3F09F030E0932B2F3FC1F0911142
:1027700016C06F3FA1F0F0E48F9FC001112430E13B
:10278000439FA0011124842B94E0299F90011124E0
:10279000822B862B888380E0DF91CF91089581E0A2
:1027A000FBCF0F931F93CF93DF938C01DB0184E169
:1027B00041110EC0E801E981CE2FCF70D0E0CF5992
:1027C000DE4F2881E295EF70F0E0EF59FE4F8081F7
:1027D000E801E881CE2FCF70D0E0CF59DE4F68817D
:1027E000E295EF70F0E0EF59FE4FE081D4E0ED9F0D
:1027F000F0011124962F92959F709E2B9C9330E1AF
:10280000639FB0011124982F96959695962B11965B
:102810009C931197411107C0C0E48C9FC001112403
:10282000282B12962C93DF91CF911F910F91089531
:10283000CF93DF93DC01EB0111969C91119780E01F
:1028400050E0411117C012968C911297E82FEF7348
:10285000F0E0EF5DFE4F508124E0929FF0011124E3
:10286000EC73FF278295869586958370E82BEF5D44
:10287000FE4F8081EC9120E1E29FD0011124A073F2
:10288000BB2792959F70A92BAF5DBE4F6C91E695CB
:10289000E695F0E0EF5DFE4F208191E06F3F09F09B
:1028A00090E031E02F3F09F030E0932B5F3FB9F02B
:1028B000911115C08F3F99F090E1299F900111244B
:1028C000262B2883442321F080E0DF91CF910895C7
:1028D00020E1829FC0011124852B8983F5CF81E0FF
:1028E000F4CF282F30E08A3180F0C9014A9754E0B4
:1028F000959587955A95E1F78D5F2F5F3F4F90E053
:10290000880F991F820F931F089582E0F6CF9A01D6
:10291000882331F0CA0161110196880F991F08952B
:10292000CA01880F991F820F931F9695879566237A
:1029300011F0019602C020FDFCCF0895A0E0B0E0A8
:10294000E3EAF4E1C8C2EA017C0186E9F701819378
:102950007F018B016F015B01A40EB51EB601F2E091
:10296000CF0ED11C0A151B0551F4CC0FDD1FCE0D67
:10297000DF1D85E58883CDB7DEB7EAE0C8C2C801B0
:10298000B5DE0F5F1F4FEACFA0E0B0E0E9ECF4E165
:10299000A4C2EC017B018A010115110539F0013057
:1029A000110541F441E0BE01C701FBDECDB7DEB742
:1029B000E8E0AFC20230110539F440E0BE01C701C2
:1029C000F0DE85E58B83F2CF6E0183E0C80ED11C6B
:1029D00040E0BE01C701E5DE82E0E80EF11C0250D6
:1029E0001109E601D9CFA0E0B0E0E8EFF4E16DC253
:1029F0005C016B013A0100E010E0E12CF12CC0E039
:102A0000D0E0812C912C92E1492E512C8614970410
:102A100031F480E090E0CDB7DEB7E0E172C2B601FC
:102A2000C5017ADE811150C0C30188199909029746
:102A3000A1F401151105E1F59E0120953095232F94
:102A40003327F601808190E02817390709F03FC04D
:102A500001E010E0E12CF12C21C08AE088169104FD
:102A600058F0C4010A97B2011AD29C0191E0232BBD
:102A700009F090E0E92EF12C01151105D9F0C0956F
:102A8000D095DD27F601808190E0C817D907F9F4C9
:102A900000E010E0F0E0CF2F80E0D82FFFEF8F1A9A
:102AA0009F0A82E0A80EB11CEFEFCE1ADE0AAECF6D
:102AB0007801E5CFE114F10409F0BECFF6016081A1
:102AC000CE01DCD1EC01EACF81E090E0A4CF82E03E
:102AD00090E0A1CFA0E0B0E0EFE6F5E1F8C17C0125
:102AE0008B016A01612C712C22E1822E912CC11480
:102AF000D10419F480E090E010C080E0C82FE0E03D
:102B0000DE2FF1E0CF16D104C1F441E0B801C701D6
:102B10008FDE882331F081E090E0CDB7DEB7EEE0C4
:102B2000F2C1C095D095DD27F801808190E0C817EB
:102B3000D90701F382E090E0F0CF40E0B801C7018F
:102B400077DE8111E8CFF2E0CF1AD108530182E09D
:102B5000A80EB11CC114D10451F0EBE0AE16B104C3
:102B6000F0F0C3010A97B4019AD1892BC1F4C09542
:102B7000D0959E013327F801818190E0281739070D
:102B8000C9F6CD2FDD27808190E0C817D90791F6CF
:102B900083E0E80EF11C0E5F1F4F3501A8CFF8014E
:102BA0006081CE01F1E0CF16D104A9F467D1EC0128
:102BB0009C0120953095232F3327F801818190E0E7
:102BC0002817390709F0B6CFF3E0EF0EF11C0E5FBE
:102BD0001F4F350196CF52D1F80161814FD1EC01E1
:102BE000F3CFA4E0B0E0E6EFF5E16DC18C017B012D
:102BF0001A019A8389835B016C012AE0C20ED11C01
:102C000080E090E0A981BA816D91BA83A98336D121
:102C1000E981FA8131972081F50121935F012981B2
:102C20003A812C153D0571F7D8011A964C911A97E7
:102C3000809590951A962D913C911B9732272327CA
:102C400032278217930729F082E090E02496E2E190
:102C500056C1F70142871B968C918387C1010C975F
:102C600062E170E01CD14B016801BCE0CB0ED11CCD
:102C70005701ECE0AE0EB11C2CE030E03C832B831E
:102C80008114910449F48B819C818215930509F08C
:102C900040C080E090E0DACFBA82A9823601412CB0
:102CA000512C80E090E0D3016D913D01E7D0F3011C
:102CB00031972081E981FA812193FA83E983FFEF3B
:102CC0004F1A5F0A20E14216510469F7D601509667
:102CD0004C9150978095909551962C915197342F07
:102CE0008217930709F0B0CFF501408B51968C9174
:102CF000818B2B813C812E5E3F4F3C832B8331E0C7
:102D0000831A910842E1C40ED11C52E1A50EB11CF8
:102D1000B7CFCB80DC80C00ED11E80E090E0A2E077
:102D20002A1A3108D6016D916D018B809C80BFEF0E
:102D30008B1A9B0AEB81FC81E215F305B8F0F801D0
:102D4000E80DF91D809590952081362F8217930705
:102D500009F07ACF2B813C812E0D3F1DD9016C9358
:102D60008081F701E80DF91D808393CF87D0F601AC
:102D700031972081EB81FC81EE0DFF1D20839C8229
:102D80008B82D0CFA0E0B0E0E7ECF6E1A2C0EC018E
:102D90008B017A014138510508F45EC06C014B018A
:102DA0005C018EE7A80EB11C80E090E0F601619115
:102DB0006F0164D0F60131972081F40121934F0116
:102DC000AC14BD0499F7F501408180959095208160
:102DD00031813227232732278217930731F082E08F
:102DE00090E0CDB7DEB7ECE090C0F801E258FF4FBD
:102DF0004083FE01E158FF4F8081F801E158FF4F09
:102E0000808380E8C82ED12C4E018C0C9D1C80E064
:102E100090E05701F2E0AF1AB108CA14DB04F8F0F1
:102E2000FE01EA0DFB1D408121E0E21AF108CE0D02
:102E3000DF1D809590952881342F8217930779F6AE
:102E4000F801EA0DFB1D408388810E0D1F1DF8015E
:102E5000808380E090E0C5CFC12CD12CD5CFF40188
:102E600061914F010BD0F40131972081F801EC0DF5
:102E7000FD1D2083FFEFCF1ADF0ACFCF28E0492FB7
:102E800055274627880F991F47FF04C035E683273B
:102E90003DE39327660F21502111F1CF0895AA1B1E
:102EA000BB1B51E107C0AA1FBB1FA617B70710F035
:102EB000A61BB70B881F991F5A95A9F78095909567
:102EC000BC01CD0108952F923F924F925F926F9275
:102ED0007F928F929F92AF92BF92CF92DF92EF92AA
:102EE000FF920F931F93CF93DF93CDB7DEB7CA1B2B
:102EF000DB0B0FB6F894DEBF0FBECDBF09942A8856
:102F0000398848885F846E847D848C849B84AA84FD
:102F1000B984C884DF80EE80FD800C811B81AA818A
:102F2000B981CE0FD11D0FB6F894DEBF0FBECDBF55
:102F3000ED010895FB01DC0102C001900D924150AA
:102F40005040D8F70895F999FECF92BD81BDF89A07
:102F5000992780B50895262FF999FECF1FBA92BD03
:102F600081BD20BD0FB6F894FA9AF99A0FBE01966A
:062F70000895F894FFCF64
:102F760002FFFFFFFFFF0302FFFF0100FFFFFFFF4E
:102F8600FFAAA9A6A59A9996956A6966655A595699
:102F960055FFFFFFFFFFFFFFFFFFFFFF03FF0102DC
:102FA600FFFFFFFF07FFFF00FFFF0506FF04FFFF10
:102FB600FFFFFFFF0BFF090AFFFF0FFFFF08FFFFE1
:102FC600FFFF0D0EFF0CFFFFFFFFFFFFFFFFFFFFE1
:102FD600FF160D0E0B1C191A132C2526233431321D
:022FE6002900C0
:00000001FF
