:10000000EBC000000C94A51003C1000001C100006A
:10001000FFC00000FDC00000FBC00000F9C00000F0
:10002000F7C00000F5C00000F3C000000C945110B0
:10003000EFC00000EDC000007AC20000E9C000007F
:10004000E7C00000E5C000000C94E5140C94B31464
:10005000DFC00000DDC00000DBC00000D9C0000030
:10006000D7C00000D5C000004222054332026549D6
:1000700005468B0B6C1005528C0454B10674F502C6
:1000800056810557CE0458C00C78F9017A5C1400EB
:100090000000000000202F2000203D20000D2E2D0C
:1000A00007D3913D04320000060021656A55E43013
:1000B00023B900070018146C070090876BF85611DD
:1000C000E92A001F410027675081C25620312E3691
:1000D00037206E616E6F43554C38363800562031EC
:1000E0002E3637206E616E6F43554C34333300200B
:1000F0002F2000203D20004E2F4100454F420D0A89
:10010000004E2F41004E2F410000535300547D7D7F
:10011000FFFF4B4B7E7E004C4F56460D0A00424F70
:1001200056460D0A000001022E030104AA050F061F
:10013000FF070008000B060D210E740FAD104B11C8
:10014000F8121613721541181819161B0323E92407
:100150002A2500261F3E500001022E030104AA0595
:100160000F06FF070008000B060D210E660F661034
:10017000CA1193120613521535181819161B0323AA
:10018000E9242A2500261F3E500001022E03010407
:100190005505F006FF070008000B060D210E660F3F
:1001A0009910591183121E13521535181819161B60
:1001B0000323E9242A2500261F3E50206973207559
:1001C0006E6B6E6F776E2920557365206F6E65209C
:1001D0006F66003F2028000011241FBECFEFD8E03B
:1001E000DEBFCDBF11E0A0E0B1E0ECE5FCE202C073
:1001F00005900D92A230B107D9F724E0A2E0B1E05A
:1002000001C01D92AB39B207E1F703D00C942C1654
:10021000F7CE0FB6F894A89580916000886180931E
:100220006000109260000FBEC1E080E80FB6F89445
:1002300080936100C09361000FBE219A299A0E94A9
:10024000B7154CD489EF87BD84E085BD82E084BDBD
:1002500080936E00109280008AE08093810084B7C2
:10026000877F84BF88E19FE00FB6F894A8958093BC
:1002700060000FBE909360008CE090E00E94161525
:100280002BD50E94A10C8DE695E1909317048093E5
:100290001604C0930A01299878940E9436150E948A
:1002A0001E0EB9D10E943413F8CF8EBD0DB407FED7
:1002B000FDCF8EB508950F931F93CF93DF93C82F73
:1002C0008A30C8F4853008F0C5508BE290E0D0E069
:1002D000CA53DF4F60E08C3211F4FE0164918C014F
:1002E0000F5F1F4FFCD20333110539F4DF91CF911B
:1002F0001F910F910895C8E0E7CFC801EBCF0F938E
:100300001F93CF93DF930DE910E0C2E0D0E0F80136
:100310006491CE012196E3D20F5F1F4FCB32D105FE
:10032000B1F78091010180FD0CC060E18FE090E0A9
:10033000D6D260EB80E190E0D2D261E781E190E03B
:10034000CED288E0B8DFDF91CF911F910F91089551
:100350002A98806CAADF80E0A8DF2A9A0895CF93BC
:10036000C62F2A988064A1DF8C2F9FDF2A9ACF9115
:1003700008952A989ADF2A9A08950F931F93CF938E
:10038000DF93EC01E898229A2A9A8EE190E0ADD1B1
:100390002A988EE190E0A9D12A9A8DE290E0A5D129
:1003A00080E3E7DF84E690E0A0D12A9880E47DDF57
:1003B0008E01075D1F4FCE01219696D276DF0C1776
:1003C0001D07C9F72A9A2A988EE76FDFCBE2D0E0A3
:1003D000CE01219689D269DFC333D105C9F72A9AA4
:1003E00083E3C7DF81E086D1DF91CF911F910F9129
:1003F0000895A1E0B0E0EFEFF1E00C94E61522E003
:10040000298341E0BE016F5F7F4F019632D289811F
:1004100052DF82E090E0B1DF2196E2E00C94021618
:10042000CF93E89886E3A5DFCFEF85E3A2DF80775F
:10043000803231F08AE090E058D1C150C111F5CF3F
:10044000CF910895CF93CFEF84E393DF807780310E
:1004500031F08AE090E049D1C150C111F5CFE89A5E
:10046000CF910895A2E0B0E0E8E3F2E00C94E41547
:100470008C01FC0181818737F1F441E0BE016F5F9F
:100480007F4FC8010296F5D1892BA9F041E0BE014A
:100490006E5F7F4FC8010496ECD1892B61F06A81B1
:1004A00089815DDF83E365DFCDDF8981DDD18A81ED
:1004B000DBD155D118C041E0BE016E5F7F4FC8014E
:1004C0000196D7D1892B79F08A81893981F410E09E
:1004D000812F3EDFC9D1812F8770873009F43FD14A
:1004E0001F5F1033A9F72296E4E00C94001630DF6A
:1004F000182F83E409D18A81B7D189E990E022D10C
:10050000812FB2D185E990E01DD140E262E0812FD8
:1005100090E02AD1CECF86E32CDF1092020108951D
:1005200082E090E02ADF81E08093020108951F922B
:100530001FB61F9211248F939F93AF93BF93EF9396
:10054000FF938091040190910501A0910601B09163
:1005500007010196A11DB11D80930401909305012F
:10056000A0930601B0930701809103018F5F8093F0
:100570000301EDE0F1E080819181181619061CF469
:10058000019791838083369681E0E532F80799F7E9
:100590008091460190914701009729F0019790932F
:1005A00047018093460180914A018F3F19F08150A5
:1005B00080934A01FF91EF91BF91AF919F918F91ED
:1005C0001F901FBE1F901895FC018FB7F8944091A3
:1005D000040150910501609106017091070140836B
:1005E0005183628373838FBF0895A4E0B0E0EBEF83
:1005F000F2E00C94E615CE010196E6DF8C8134D151
:100600008B8132D18A8130D189812ED1A8D0249694
:10061000E2E00C9402160F931F93CF938091040194
:1006200090910501A0910601B09107012091090167
:10063000281709F449C08091040190910501A09107
:100640000601B091070180930901A8950DE011E022
:10065000C0E0F80180819181892B11F48C2F8CD519
:10066000CF5F0A5F1F4FC430A1F780914601909180
:100670004701892B09F4DED580914A01811101C01F
:1006800031D6809103018D37F8F0109203018091EB
:10069000000181FF04C085B192E0892785B980916E
:1006A000090290910A028438F3E09F0728F401962A
:1006B00090930A02809309028091080191E0980FBB
:1006C0008B3331F090930801CF911F910F910895D2
:1006D00010920801809148018F5F8C3318F4809349
:1006E0004801F2CF10924801EFCF880F991F019770
:1006F000F1F7089520ED37E0811101C00895F90167
:100700003197F1F78150F8CF682F80910A0180FF6F
:100710000DC0809193038E3730F087FD07C06D3098
:1007200011F06A3019F481E993E0F7C10895CF938D
:10073000DF93EC018991811103C0DF91CF9108957E
:10074000E3DFF8CFCF93DF93EC01FE0184918111B9
:1007500003C0DF91CF910895D7DF2196F6CF8DE0CA
:10076000D3DF8AE0D1CF0895A6E0B0E0EAEBF3E072
:100770000C94E215FC01262F1E828E010A5F1F4F8A
:1007800035E08AE0E82EF12CCF01B7010E94C215B6
:100790003150805DD8018E938D01CF01FB010A9706
:1007A000A8F4832F2550622F630F615067FD02C0AC
:1007B000811110C021E030E02C0F3D1F280F311DAA
:1007C000C901B5DF2696E6E00C94FE153111DCCFA9
:1007D00080E0E8CF8150E1E0F0E0EC0FFD1FE80F92
:1007E000F11D4083E2CFA5E0B0E0E9EFF3E00C9427
:1007F000E6159C011D8254E0922F9F709A3048F5B7
:10080000905D8FEF850FE1E0F0E0EC0FFD1FE80F4A
:10081000F11D9083F90194E0F695E7959A95E1F73B
:100820002031310598F45550650F615067FD02C0C5
:10083000811111C021E030E02C0F3D1F280F311D28
:10084000C90175DF2596E2E00C940216582F9F012E
:10085000D3CF995CD6CF8150E1E0F0E0EC0FFD1FE3
:10086000E80FF11D4083E1CF40E362E090E0BBCFB1
:100870000895CF93DF93EB01FB0130E020E0DC0132
:100880009D91992331F0913670F08FE9890F863070
:1008900030F0CF018C1B9D0BDF91CF9108959052CA
:1008A0009753292B05C080ED890F8A3050F4282BEF
:1008B000332389F021934150442359F330E020E061
:1008C00008C08FEB890F863058F3903211F09A33BD
:1008D00001F7CD01D4CF2295207F31E0FACF0E94DD
:1008E0001E16F999FECF08950C94161608950F93CD
:1008F0001F93CF938C01CFEFC60FC801F5DFB4DF94
:10090000CC2331F00F5F1F4F8AE3FEDEC150F5CFDD
:10091000CF911F910F910895A2E0B0E0E2E9F4E0D9
:100920000C94E315FC0181818D3449F466E08AEF73
:1009300093E0DDDF14DF2296E5E00C94FF158035AF
:1009400021F460E18AED93E0F4CF1A82198242E04B
:10095000BE016F5F7F4FCF0101968BDF098110E0F1
:10096000823029F409811A81102701271027C80134
:10097000BBDFF82E82E5C8DE40E364E0C80133DF68
:1009800083EF90E0DFDE8F2D6FDF8FEE90E0DADE19
:1009900040E262E08F2D90E0E7DECCCFA6E0B0E051
:1009A000E4EDF4E00C94DE156C0143E0CE01019619
:1009B0007C01BC01C60101965CDF8C01BE2CAF2C12
:1009C0008230D0F0E980F12C823029F0E980FA8081
:1009D000FE24EF24FE241127FE01E00FF11F6081A9
:1009E000C7017DDF000F111F0F5F1F4F0C0D1D1D75
:1009F000F8018081811104C02696EAE00C94FA1572
:100A000041E06B2D7A2DC80134DF892BA9F39FEFCC
:100A1000E91AF90A6981C70162DF0E5F1F4FE8CF4B
:100A200041E060E071E0019624DF8091000180FFE9
:100A300007C0299A6091000184E390E050CF0895A7
:100A40002998F8CFA1E0B0E0E8E2F5E00C94E615D3
:100A50001982009731F041E0BE016F5F7F4F019630
:100A600008DF89818F3F09F4FFCF882321F061E0FF
:100A700083E390E034DF10926E00F89488E198E010
:100A80000FB6F894A895809360000FBE9093600015
:100A9000FFCFCF93DF93EC0161E080E090E01FDFB8
:100AA00063E481E090E01BDF2ADC60E080E690E018
:100AB00016DF60E081E690E012DF60E083E390E023
:100AC0000EDF62E084E390E00ADF8981883719F065
:100AD00080E090E0B7DFDF91CF91089580E090E073
:100AE00003DF813029F481E090E0FEDE833419F0E9
:100AF00080E090E0CEDF84E390E0F6DE80930001BA
:100B000008958091010180FD05C08DED90E01ADE11
:100B100026CE08958BEC90E0FACFFC019FB7F894B5
:100B2000828187FF02C09FBF08958F5F8283A0816B
:100B300081E08A0F8083AE0FBF2FB11D13966C9397
:100B4000803889F71082EFCFFC019FB7F89482813B
:100B5000811102C09FBF089581508283A18121E04D
:100B60002A0F2183AE0FBF2FB11D13968C91203811
:100B700089F71182EFCF109249011092080283E0A9
:100B8000809352018FEF80934A010895DC01E3E5E1
:100B9000F1E0808181110EC0AB2B29F582E0E130BC
:100BA000F80719F010F0E1E0F2E0CF010895E80F46
:100BB000F11DEFCF92E0E130F90770F71097B9F32C
:100BC00021819C912913F3CF228111969C91119739
:100BD000291759F3E80FF11D8081882321F092E055
:100BE000E130F90768F3E0E0F0E0DFCF94E0899FBF
:100BF000F0011124EB5DFE4F80818F3F89F08093DF
:100C00004D01818180934E01828180934F018381C8
:100C10008093500121E04CE064E08DE491E05BC4FE
:100C2000089582E092E0B2DFDC01892B99F0E09137
:100C300052018C91E81770F4EA0FFB2FF11D8081AF
:100C40008093040289E780930502818180930602E4
:100C500081E0089580E008950F931F93CF93DF9371
:100C60008C0180910C0286FF11C084E54DDDE80106
:100C70000B5F1F4F8991F8DDC017D107D9F780911D
:100C80000C0285FF02C08AEFEFDD69DDDF91CF91B5
:100C90001F910F91089586E36CDB809104028335E8
:100CA00069F48BE927DD21E04CE065E082E092E029
:100CB00012D4C8DB82E092E0CFCF08958BE4F2CF6C
:100CC000EADF80910402893631F081E080930102ED
:100CD00089E280934A010895CF9385E390E004DE92
:100CE00080934C0186E390E0FFDD80934B01E6E3C7
:100CF000F1E0CFEFC083C283C483C683C087C287BD
:100D0000C487C68738DF1092530181E080930C01BD
:100D1000A5E2B1E0CC93EDE0F1E08FEF9FEF91839E
:100D2000808313821282158214821496CC931497B6
:100D30009783868311861086138612861896CC9325
:100D400018979587848717861686118A108A1C96AD
:100D5000CC93938B828B158A148A178A168ACF912B
:100D60000895ABE0B0E0E7EBF6E00C94DB158C0106
:100D70006C012FEFC21AD20A45E0BE016F5F7F4FB0
:100D8000C60177DD843008F0CCC099819130B1F490
:100D9000833069F46A8185E390E0A1DD6B8186E3AD
:100DA00090E09DDD99DF2B96EDE00C94F715809196
:100DB0004C015ADD80914B0157DD31C0923009F072
:100DC00049C0EE24E394813031F081E09A81913082
:100DD00009F080E0E82E80915301811103C087EF74
:100DE00090E0B0DC03E511E012C081E003351807A4
:100DF00011F080E289DCF801818136DDF801828121
:100E000033DDE1100EC0F8018081080F111DF801DB
:100E10008081882321F0F2E001301F0730F39FDC4E
:100E2000C2CF8AE371DC83E0F82EF8018081F816E6
:100E300050F7F3E0FF1621F0F0FE02C08CE264DC14
:100E4000DD24D394DF0CF801EF0DF11D80810CDD62
:100E5000FD2CEBCF933049F480E090E097DE835592
:100E600091409EEA981B892FA7CF903119F506E390
:100E700011E0E12CF12CF80180818F3F79F0FF2007
:100E800011F080E241DC8E2DEFDC8AE33DDCF801DD
:100E90008081EADCF8018181E7DCF3940E5F1F4F6B
:100EA000E394F8E0EF12E7CF85E091E0F110B7CFDF
:100EB00049DCB5CF913151F48091460190914701C1
:100EC0006DE770E00E94C215862F76CF923109F04F
:100ED000A6CF05E211E0E12CF12CF80180818F3FD3
:100EE000A9F0FF2011F080E20FDC8E2DBDDC8AE33B
:100EF0000BDCF8018081B8DCF8018181B5DCF801F8
:100F00008281B2DCF8018381AFDCF3940C5F1F4F68
:100F1000E394F4E0EF12E1CFF11081CF81E091E0B2
:100F2000C7CF7E0127E0E20EF11C44E0B701C60105
:100F3000A0DC4F81493608F493C06A855885E5E204
:100F4000F1E020E030E080E090E06C3009F06CC02F
:100F500080E090E020E030E06081461333C0718192
:100F6000751330C0A2817985A7132CC08B5D9E4F6D
:100F70004CE0FC014383C901880F991F820F931F26
:100F8000FC01EE0FFF1FE35FFE4F11821082880FFE
:100F9000991FFC01E15FFE4F1182108222E04CE0BC
:100FA00064E0C70198D28FE08A8722E04CE064E0D9
:100FB000C70191D282E08A8722E04CE064E0C70159
:100FC0008AD2F1CE6F3FF9F4FC01EB5DFE4F408316
:100FD0005183898582838CE08383C901880F991F9F
:100FE000820F931FFC01EE0FFF1FE35FFE4F118284
:100FF0001082880F991FFC01E15FFE4F1182108261
:1010000010920C01CBCF2F5F3F4F349604962430C3
:10101000310509F0A1CFC7CE019634962C5F3F4F22
:101020008430910509F4BFCE70814713F5CF7181EB
:101030007513F2CFA2817985A713EECF2B5D3E4FBA
:10104000F9016383FC01EE0FFF1FE80FF91FEE0F9C
:10105000FF1FE15FFE4F81E090E091838083A3CE8C
:10106000E98120914C01E217B8F1822F90E00796B8
:101070004E2F50E0841795077CF19A8180914B01A7
:1010800098132AC09C819F3229F442E06CE0C80189
:101090002AD389CE8D819C32B9F48093350121E029
:1010A00030E03093470120934601F4E08F9FC00168
:1010B00011242091090230910A02820F931F90930C
:1010C0000A02809309026FCEE21BEE0FF0E0EA5CA9
:1010D000FE4F9083818367CE80E090E057DD7C01F6
:1010E000F60101900020E9F73197EC19FD09F6951A
:1010F000E7957E2EDD24D394DE0EC7018D0D911D64
:10110000835591408F3A910524F08BEF90E01ADBE4
:101110004ACEF701D0825701CC24C3948C2D880F7E
:101120008150CD1480F0F1E0EF16F2E0FF0608F0F8
:101130003ACE2FEFED2D721201C0E1E0EE0DFF2D42
:10114000F11D108230CE4501FFEF8F1A9F0A41E05A
:10115000B401800F912F911D8CDB22E02C1548F4F7
:10116000C0FC07C0F5018081843619F48181809329
:101170004801C3945401D2CF0F931F93CF93DF93B1
:1011800090910C0191114AC0282F30E0E901CC0F59
:10119000DD1FC20FD31FDE01AA0FBB1FA35FBE4F0F
:1011A000220F331F220F331FF901EB5DFE4F928197
:1011B000977040E850E0491B51099AEF949F9001C5
:1011C000959F300D112435952795359527952D93AD
:1011D0003C938E01000F111F0F5E1E4FF8012081FE
:1011E00031812F5F3F4F31832083CC0FDD1FC15FE3
:1011F000DE4F488159814115510541F424303105B4
:1012000069F4F4DCF8011182108208C04130510504
:1012100051F4ECDC82E090E099838883DF91CF91F8
:101220001F910F91089542305105C1F7DFDC1982FB
:101230001882E8CFA6E0B0E0E0E2F9E00C94E21515
:1012400080914B018A831B82909135019923D1F1C2
:101250009330A9F587E791E0909347018093460189
:1012600086E3E82E81E0F82E10E00CE2F701208101
:101270002F3F99F08091350190914C01910F998306
:10128000882349F10C838D8321E04CE065E0CE0199
:10129000019621D1CE010196DFDC1F5FF2E0EF0E57
:1012A000F11C183019F780913501882321F0833023
:1012B000A9F4109235012696E6E00C94FE158DE710
:1012C00090E0CACF87708A512DE7829FC001112418
:1012D00095958795C1CF2C838181D5CF82508093FE
:1012E0003501E9CF80910102882351F0D4DC89E2F5
:1012F00080934A01809101028150809301020895F8
:101300003ACC0895FF920F931F93CF93DF93FC0184
:10131000F080D181C281138104818FE580934A01DD
:101320001092010280914C0190914B01892B8823EE
:1013300051F1809102028F1104C0809103028D1738
:1013400029F019DCF0920202D0930302D0914901F6
:10135000DF3FC9F0C0930402109305020093060218
:10136000CC2359F1D1111FC080914C01801781F01D
:10137000043671F08DEA8C0F823010F0CD3751F4C5
:101380008FEF80934901CDB7DEB7E5E00C94FF15F0
:10139000C435C9F3812F807F8036A9F71067109379
:1013A00005028EDCF0CF3DDC80910802882379F0C5
:1013B0008335B9F08C17D1F008C033DC8D2B88232E
:1013C00011F380910802882311F0D5DBDCCFED2FDB
:1013D000F0E0E75FFE4FE491E335F1F0CE1711F155
:1013E000F4CFC435B9F4DE5FD09349018091520146
:1013F0008E5F8093520115DC882309F44CC08091E4
:10140000040280930802843661F68091480180933B
:101410000602C7CFC335CFCFC43509F03AC0DE5F6F
:10142000D093490180914901E82FF0E0E65FFE4F3B
:1014300014911F3F21F31093040297E79093050244
:1014400090914C01909306028E5F80934901109217
:1014500008028E30D1F482E092E098DBDC01892B27
:1014600099F02C9130E081E092E0821B930BED012A
:10147000C817D907B0F08A179B07C8F08A1B9B0BC7
:101480008A0F9B1FFC01108276DB112309F47BCFAE
:1014900088CFC335A4CF809149018E5F80934901E5
:1014A000C1CFFE01E20FF31F40814993E1CF80E0FD
:1014B00090E0E6CFCF93DF935B9AC8E5D2E081114D
:1014C00002C0C0E9D1E0CE0110D95B98CE010DD9A0
:1014D000DF91CF910895A7E0B0E0E1E7FAE00C9446
:1014E000DA157C01162F842FD22E5701A60EB11CBF
:1014F000462FB70161D2D5018C931F5F198240E05E
:1015000050E080E007E066246394712CE7E0F0E0AF
:101510005701A40EB51E4117E0F0002309F478C06E
:101520000150E82EF12C8E5F8D9D802D1124082E08
:10153000000C990B2091090230910A0228173907F3
:1015400008F069C087E191E0FDD82796EEE00C94A1
:10155000F615D5019C9193010E2E01C0220F0A941D
:10156000EAF72923222389F088248394912C8C0E76
:101570009D1E880E911CD4016C919301002E01C018
:10158000220F0A94EAF7262B2C932FEF200F01113C
:101590000EC021E0280F273008F4822F61E070E0B0
:1015A0006C0F7D1F620F711DDB011C9227E0022F63
:1015B000319708F0B0CF092E92959025092E969577
:1015C000969590259F5F91FF0FC0E1E0F0E0EC0F52
:1015D000FD1FE80FF11D9081B301022E01C0660FBF
:1015E0000A94EAF7962B90830FEF020F21110DC09A
:1015F00091E0980F973008F4892FE1E0F0E0EC0FCC
:10160000FD1FE90FF11D108207E04F5F5F4F7ECF96
:101610008F5F07E086CF281B390B30930A02209397
:101620000902299A80910201811102C00E94900250
:101630000E94100288248394912C10E02CE0C22E8A
:1016400080E038DFCA94C110FBCF81E033DFAC2CDF
:101650000C2C000CBB08AE14BF04E4F087E0782E1D
:1016600061E070E06C0F7D1FA60EB71E872D072C62
:10167000000C990B0817190734F18AE03BD8DA946B
:10168000D110DCCF80910C02882349F10E94220204
:1016900029985BCF97E0692E712CE1E0F0E0EC0F28
:1016A000FD1FAE0EBF1EC401062C01C0880F0A9498
:1016B000EAF7D5019C918923FDDEB1E06B1A710830
:1016C00090F7C394C4CFC401072C01C0880F0A94BB
:1016D000EAF7D5019C918923EDDE7A94C7CF86E3A2
:1016E0000E94B901D5CFA6E0B0E0E9E7FBE00C9499
:1016F000E415162F042F45E0BE016F5F7F4F019662
:10170000B8D8682F202F412FCE010196E4DE26960F
:10171000E4E00C94001643E066E0E5CF0895A0E015
:10172000B0E0E5E9FBE00C94DE15FC01109220022C
:101730004181440F440F440F8381481B87E0C82E2A
:10174000C40E1092210220E030E047E057E070E044
:1017500080E097E0E92EF12C01E010E0DD24D39445
:10176000D80E8C1580F020932D0230932002CD14DA
:10177000A0F5653409F088C04F3F09F085C02F5FA0
:1017800020932D0283C0DF01A70FB11D14968C9109
:1017900090E0052E02C0959587950A94E2F7817036
:1017A000552369F051506B34D1F4433059F433234D
:1017B00071F030E0811155C04150832F1EC07F5F12
:1017C00057E0F1CF4F3FB1F781110FC02FC081110A
:1017D00014C020932D021092200280E05DC04F3F84
:1017E00051F5663469F0653479F32F5FA22FB0E0CC
:1017F000AF5DBD4F1C92832F47E0382F8D2DAECFAC
:10180000A22FB0E0AF5DBD4FAC910A2EA295A025EE
:101810000A2EA695A695A02590E0AF5FA695A1708B
:10182000CA2FA12CDA2D8C179D07F9F220932D02D7
:1018300030932002D2CF882309F4BECF663471F4EE
:10184000A22FB0E0AF5DBD4FBC90C801042E01C017
:10185000880F0A94EAF78B298C93AECF653409F090
:10186000ABCFA22FB0E0AF5DBD4FC701841B910984
:1018700047FD9395580102C0AA0CBB1C8A95E2F75C
:10188000C5019C91892BE8CF311179CF81E09091EE
:101890002D02992309F4A1CFCDB7DEB7EAE00C946D
:1018A000FA1510926F00E091300284E1E89FF00198
:1018B0001124EF5CFD4F10820895FC0181818C3072
:1018C00010F0EFCF08959381662381F0DF01A80F18
:1018D000B11D41E050E0092E01C0440F0A94EAF71F
:1018E00014962C911497242B14962C93992319F069
:1018F00091509383089597E093838F5F8183E80FDE
:10190000F11D1482089570E030E0FB01E21BF30B3F
:101910003B967797A0F490E050E0FC01E41BF50BB8
:101920003B96779760F4680F791F240F351F621B71
:10193000730B655F7F4F81E06731710508F080E0D0
:101940000895539A5B985298E9E6F0E080818160AF
:10195000808382EC91E090930A02809309021092B6
:10196000450210920201089580910C02882329F00B
:101970000E9490020C94220208950C948B02089508
:10198000FC01818181110FC080910C020E943404FE
:1019900040E265E08091090290910A020E94B4033E
:1019A0000C94AF03089541E06CE072E0CF01019622
:1019B0000E943904D9CF08959B01411101C00895B7
:1019C0004150F901E40FF11D9081890FF6CF9C0180
:1019D00080E0611101C008956150F901E60FF11D29
:1019E00090818927F6CFAC01F0912002362F85E057
:1019F00090E0311109C0292F280F80E1289F900124
:101A00001124892F822B08957FEF730FDA01A70F1E
:101A1000B11D2C91E22FE295EF709E278E0FFF23D0
:101A200011F0361719F02F709227820F372FE1CF60
:101A3000FC0122813381A081B181A20FB11D8C9163
:101A400090E0032E02C0959587950A94E2F7817085
:101A50009FEF930F9383311104C02F5F228397E090
:101A600093830895A0E0B0E0E8E3FDE00C94DF1577
:101A7000D82EC92EE42E062F10E0E801F12CBB244D
:101A8000B394209731F48F2DCDB7DEB7E9E00C94F5
:101A9000FB158D2D9C2DCCDFAE01415051098823C3
:101AA00049F0EE2049F02B2D042E01C0220F0A949C
:101AB000EAF7F22AEA01E5CF98012C1B3D0B8B2DAA
:101AC00001C0880F2A95EAF7282FF3CFA4E0B0E0F1
:101AD000ECE6FDE00C94DE15FC011B8287E08C83B4
:101AE000CF0104969A83898310922D02818128E088
:101AF000829FC0011124438127E030E0241B31097B
:101B0000820F931F853491050CF04CC080E046C0D5
:101B1000A9DFA82EE12FF0E0EF5DFD4F8083082FB5
:101B2000002E02950025002E069506950025CE0173
:101B300001967EDF90E00F5F01FBCC24C0F8D12C32
:101B40008C159D0519F7CE01019672DF8111DECF4C
:101B5000BA241F5F10932D0210912D0240E068E01F
:101B6000CE0101961630A0F27DDF082F182F012E2E
:101B700012951025012E169516951025CE01019669
:101B800057DF90E01F5F11FBEE24E0F8F12C8E157B
:101B90009F0509F0BBCF81E0B012B8CF2496EAE0F0
:101BA0000C94FA15B12CD8CFA4E0B0E0EAEDFDE03A
:101BB0000C94E515FC011B8287E08C83CF01049611
:101BC0009A83898381818430D1F483818130B9F40F
:101BD00010E010932D0241E01430A9F467E0CE012B
:101BE000019640DF880F8093250285E080932D02C7
:101BF0009091210292959F7081E09A3009F080E0E7
:101C00002496E3E0FEC711110CC067E0CE010196F7
:101C100029DF8068E12FF0E0EF5DFD4F80831F5FDB
:101C2000D8CF68E0CE0101961DDFF4CF80910B0282
:101C300080FD03C0846080930B020895A1E0B0E0B2
:101C4000E3E2FEE0BEC7198280910D028823A1F174
:101C500080910C0287FF14C084E30E94A801805881
:101C6000803408F47AC0803C08F079C08055990B24
:101C700023E0959587952A95E1F78F590E94840373
:101C800080910C0283FF16C082E70E94840380913A
:101C90000C0284FF04C080910E020E94840386E639
:101CA0000E94840380910C0284FF04C080910D0285
:101CB0000E94840310920D0280912E02882309F461
:101CC0006EC1299A00912F0224E1029F8001112404
:101CD0000F5C1D4F8981811155C066E4C8011FDD6D
:101CE0008823B9F0F0902D02FA94F0922D024F2D36
:101CF00061E272E086E060DEEF2DF0E0EF5DFD4F27
:101D0000E080E8122EC033E086E43F1508F456C1A7
:101D1000198265E4C80103DD811152C1C801D6DE14
:101D2000811160C1C80140DF81115EC1F801638982
:101D3000262F40910E028289E6DD682FC801BDDDA5
:101D40006BE4C801ECDC811151C1F801838187305B
:101D500009F464C18F5F838315C080E08ECF8FE06C
:101D60008CCF282F30E02F5F3F4F4E2D50E02417AF
:101D7000350709F017C193E09F1508F0C9CF96E425
:101D800099838083E980D0900C02EE2009F482C010
:101D9000D0FE80C080910B028A7F80930B028D2D34
:101DA0008270811124C0F0902D0290911F02E3E116
:101DB000F2E0A1E2B2E09F1509F441C14F2D50E0DD
:101DC00061E272E083E192E028D7F0921F028091F5
:101DD000040190910501A0910601B0910701809343
:101DE0000F0290931002A0931102B0931202F4E537
:101DF000EF121DC0D6FC1BC080912D028530B8F0BB
:101E0000809123028B3471F0893661F09DEA980F3E
:101E1000923040F08D57823028F0809124028077F4
:101E2000803729F480910B02816080930B02B80106
:101E3000CE010196FBDE80910B0282FF2BC08E2D1E
:101E40000E94840380912002882329F080912D0232
:101E5000815080932D02F12CE0912D02FE1608F4A2
:101E60000FC180912002882351F0F0E0EF5DFD4F1B
:101E700080818F7040E361E090E00E94F3038091E5
:101E80000C0285FF05C084E30E94A8010E9434046F
:101E90000E94AF0380910C0282FF6AC080E70E941B
:101EA0008403F801808140E262E090E00E94B40384
:101EB000F801808940E265E0F0E18F9FC0011124C4
:101EC0000E94B403F801818940E265E0F0E18F9F50
:101ED000C00111240E94B403F801828940E265E048
:101EE000F0E18F9FC00111240E94B403F80183899F
:101EF00040E265E0F0E18F9FC00111240E94B4032D
:101F0000F801828140E263E090E00E94B403F801AE
:101F1000818140E263E090E00E94B403F801838194
:101F200040E262E027E030E0F901E81BF109CF016F
:101F30000E94B40380E20E94840380910C0285FF1A
:101F400008C084E30E94A8010E94340480E20E9439
:101F50008403F8018381873019F081818F5F818349
:101F6000F12CF8018181F81608F493C00E94AF03A8
:101F7000F801108280912E02815080932E02909160
:101F80002F0281E0890F913009F480E080932F02C5
:101F900029988981843519F481E292E0B3D9219698
:101FA000E7E02BC64F2D61E272E08CE005DDE81220
:101FB000AFCEE3E084E5EF1508F0AACE8983E2CE48
:101FC00080912D02815080932D02893009F0A6CE98
:101FD00069E081E292E0FBDC90912A0289139ECEB7
:101FE00085E4ECCF88E4EACF84E7E8CFE0912D02E6
:101FF000FF24FA94FE0EF0922D026F2D81E292E002
:10200000F2DC909120022F2D291B330BF901EF5D9B
:10201000FD4F9081891399CE8BE4D0CFF8011382C4
:10202000818181508183AECE21919D918F5F29174F
:1020300031F080910B028D7F80930B02BFCEF8129E
:10204000F3CFF0921F028091040190910501A091BD
:102050000601B091070140910F025091100260916A
:10206000110270911202841B950BA60BB70B869779
:10207000A105B10508F0A2CE80910B028160DCCFF2
:10208000EF2DF0E0EF5DFD4F80810E943404F3946A
:10209000E3CEF801EF0DF11D84810E943404F39426
:1020A00060CF1F920F920FB60F9211242F933F9380
:1020B0004F935F936F937F938F939F93AF93BF9350
:1020C000EF93FF9310926F0080910C0283FF03C087
:1020D0008EE20E9484039091300284E1989FF00187
:1020E0001124EF5CFD4F8081833018F081818230B4
:1020F00090F4D7DBFF91EF91BF91AF919F918F91BA
:102100007F916F915F914F913F912F910F900FBEF3
:102110000F901F90189580912E02813049F4809184
:102120000C0282FFE6CF8EE191E00E94A203E1CF94
:102130008F5F80932E0281E0890F913019F0809398
:102140003002D8CF10923002D5CF1F920F920FB627
:102150000F921124EF92FF920F931F932F933F93AF
:102160004F935F936F937F938F939F93AF93BF939F
:10217000CF93DF93EF93FF9300918400109185003C
:1021800064E0169507956A95E1F7C091300224E165
:10219000C29FE0011124CF5CDD4F98819430E1F4BF
:1021A0000E3218F00F34E8F07CDBFF91EF91DF91F5
:1021B000CF91BF91AF919F918F917F916F915F91DF
:1021C0004F913F912F911F910F91FF90EF900F90A2
:1021D0000FBE0F901F9018954A991AC000930E02D7
:1021E000E4CF4A9908C061E0CE0167DB1092850018
:1021F00010928400F3CF80910E02081B00930D0211
:10220000109285001092840060E0CE0156DBCDCFA5
:1022100080910E02081B00930D021092850010920F
:10222000840082E086BB088110910E0201110FC06C
:10223000153608F0BACF80910D02853608F0B5CF7B
:10224000188B898B81E08A8382E08883AECFF090FF
:102250000D02023009F04AC00889E9882F2D412F6C
:102260006E2D802F50DB4A818823F9F0802F90E07B
:102270009C01220F331F820F931F810F911D959593
:10228000879595958795888B6E2D70E0CB01880F8B
:10229000991F860F971F8F0D911D95958795959581
:1022A0008795898B4F5F4A8380CF4430E8F080EA7E
:1022B0009FE090938900809388004C3098F0202F05
:1022C0002E0D3327331F2536310564F084E08883D3
:1022D0001A8BFB8A198287E08B831C8282E08093B1
:1022E0006F0063CF83E0F3CF1882A2CF2F2D412F51
:1022F0006B898A8908DB882301F161E0CE01DDDA90
:102300002A8930E0C901880F991F820F931F810F1E
:10231000911D95958795959587958A8B2B8930E0AA
:10232000C901880F991F820F931F8F0D911D9595DD
:102330008795959587958B8B38CF2F2D412F698960
:102340008889E1DA882301F160E0CE01B6DA2889D4
:1023500030E0C901880F991F820F931F810F911DD3
:102360009595879595958795888B298930E0C90142
:10237000880F991F820F931F8F0D911D959587953B
:1023800095958795898B11CF073009F40ECF0CCF27
:102390000E942202E89808950F931F93CF93DF9332
:1023A000229A2A9A8EE190E00E9475032A988EE183
:1023B00090E00E9475032A9A8DE290E00E947503D6
:1023C00080E30E94B90184E690E00E947503809149
:1023D0000C038933D9F4C9E8D1E00BEB11E0FE011D
:1023E00031966491FE0184910E94AF0122960C17F0
:1023F0001D07A9F783E30E94B90184E00E947A03D4
:10240000C7DFDF91CF911F910F910895843381F43D
:10241000C7E5D1E009E811E0FE0131966491FE01C3
:1024200084910E94AF0122960C171D07A9F7E2CFF5
:10243000813301F7C5E2D1E0FE0131966491FE01DE
:1024400084910E94AF012296F1E0C735DF07A1F722
:10245000D1CFFC01908180910703981317C091811F
:1024600080910803981312C09281809109039813F8
:102470000DC0938180910A03981308C090858091C4
:102480000B03981729F081E09F3F19F080E0089531
:1024900081E008959C018FEF611101C008956150A2
:1024A000F901E60FF11D90818927F6CFFC01680F35
:1024B000792F711D8FE09DE1E617F70709F4089564
:1024C0002191492F552742279A01A4E03695279557
:1024D000AA95E1F724273527982F88278227932765
:1024E000A901542F44275295507F84279527B5E0A2
:1024F000220F331FBA95E1F782279327DDCFA0E0A3
:10250000B0E0E4E8F2E15CC37C01062F299A8091F7
:102510000C03893339F464E182E10E94AF01602F3A
:10252000660F6D5E86E00E94AF010E9410022A983D
:102530008FE70E94550180910C03893361F0E70118
:102540000E0D1F2D111D0C171D0701F1899180958E
:102550000E945501F8CFCFE086E60E945501C15098
:10256000C111FACF8AEA0E94550185E50E94550102
:1025700067010E0D1F2D111DC016D10609F04EC0AA
:1025800080E00E94550180E00E9455012A9A85E36F
:102590000E94A8018331D9F36FEF86E00E94AF015A
:1025A00080910C03893321F46EE182E10E94AF0136
:1025B000EFDE2998F701858186FF2CC08091040108
:1025C00090910501A0910601B09107010696A11D09
:1025D000B11D8093590290935A02A0935B02B0936D
:1025E0005C0280915E028F5F80935E02823060F0B9
:1025F0008AE70E94840382E70E94840380915E023E
:102600000E9434040E94AF0380915E02833010F078
:1026100010925E02CDB7DEB7E8E0EEC2F601C191DE
:102620006F0180E4C7FD80E890E1C6FD90E2890F6C
:1026300094E0C5FD98E0890F91E0C4FD92E0890F18
:102640000E94550130E4C3FD30E820E1C2FD20E2E4
:1026500094E0C1FD98E08C2F81708F5F830F820F13
:10266000890F0E94550188CFA8EAB0E0E9E3F3E1C1
:10267000A3C280910D038823F1F080915E0288232C
:10268000F1F04091040150910501609106017091B3
:1026900007018091590290915A02A0915B02B0917A
:1026A0005C0284179507A607B70748F460915D029E
:1026B0008FE592E024DFC855DF4FECE099C24A9BDA
:1026C000FACF299A2A988FEF0E9455018E010F5F49
:1026D0001F4F6E0129E0C20ED11C780180E00E94DC
:1026E0005501F70181937F0190910C03993319F003
:1026F000319780958083EC14FD0481F72A9AE88451
:1027000087EF8E0D803A10F047DED5CF6E2D86E034
:102710000E94AF0180910C034AE5A42EB12C8133B5
:1027200049F05CEDA52EB12C843321F038E9A32EBD
:1027300033E0B32E90EA992E28E0822ECE2CD12CB5
:10274000C5010E9475038BE30E94A801F82E88231F
:1027500009F498C0282D280F3327331FC216D3063B
:102760009CF22A988FEF0E945501F80C80E00E949D
:10277000550190910C03993309F0809591E0980DE3
:10278000F801E80DF11D8083F91279C02A9AFE1430
:1027900008F477C0FE01EC0DFD1DB08080910C03A4
:1027A000813309F073C0EFEFFFEFEC0FFD1FEC0D6D
:1027B000FD1DC080D12CDC2CCC24CB0CD11C6EEFA9
:1027C0006E0DC80173DEFF24F3948C159D0509F08E
:1027D000F12C80910D03823729F4C8013ADE882359
:1027E00009F464C0FF2009F461C08AE70E948403F1
:1027F0006801F60181916F010E9434048C2D801BC9
:102800008E15B8F30E94AF0380910D03823709F053
:102810004DC08E81982F9370933029F490915E0271
:10282000911110925E0286FF41C087FD3FC08AE091
:102830000E947A03FD80F98680910B038D8383E0EB
:102840008E8380910C03813349F58BE0888769E0A2
:10285000C8012CDE9827892798279B878A876BE0F9
:10286000C8014DDE8AE70E94840381E60E9484034A
:102870008F2D0E9434040E94AF0329981CCF892E0B
:1028800075CF8F2C9A9491105BCF84CF6FEF6E0D24
:10289000C80100DEFF24F3948B1599CF8AE0888766
:1028A00069E0C801F7DD8A876AE0DACF6FEF86E07A
:1028B0000E94AF016DDDE1CFFC018181823711F013
:1028C0008D3651F49281911101C094E390930C03E1
:1028D00080930D0361CD0895833781F410925E02D9
:1028E00048EA6FE572E0CF0102960E943904682F32
:1028F00080935D028FE592E002CE0895893681F5DE
:102900008281882341F045E067E073E0CF010296C1
:102910000C943904089580910D030E9484038091E2
:102920000C030E94840380E20E94840380910703C9
:102930000E943404809108030E94340480910903AA
:102940000E94340480910A030E94340480E20E94B1
:10295000840380910B030E9434040C94AF03089508
:1029600010920D0308951F920F920FB60F9211242B
:102970002F933F934F935F936F937F938F939F9387
:10298000AF93BF93EF93FF93809193038823B9F0A4
:1029900081E993E00E94A4058093C600FF91EF9126
:1029A000BF91AF919F918F917F916F915F914F9167
:1029B0003F912F910F900FBE0F901F90189580910F
:1029C000C1008F7D8093C100E9CF1F920F920FB697
:1029D0000F9211242F933F934F935F936F937F93A5
:1029E0008F939F93AF93BF93EF93FF9385B192E043
:1029F000892785B96091C6008091C00088718111D6
:102A000004C08EE093E00E948D05FF91EF91BF918D
:102A1000AF919F918F917F916F915F914F913F9176
:102A20002F910F900FBE0F901F9018959C0197FF4C
:102A300004C082E08093C0003F773093C5002093AC
:102A4000C40088E98093C10086E08093C2000895A5
:102A50008091C10085FD09C080919303882329F0EE
:102A60008091C10080628093C1000895E0911604B6
:102A7000F091170481E00995EBCF08950F931F9310
:102A8000CF93DF93EC0100E0802F90E09C01220FB8
:102A9000331F280F391FF901E859FF4F1491812F77
:102AA000F901E759FF4F25913491112389F02097BF
:102AB00041F480E20E948403812F0E9484030F5F0F
:102AC000E3CF98819113FBCFCE01F901099581E005
:102AD000DF91CF911F910F910895CF93C0910A017B
:102AE00080930A0180911003811104C0C0930A01F0
:102AF000CF9108958EE093E00E94A40520911804E0
:102B0000309119048A3011F08D3011F521153105FD
:102B100049F3265E3B4FF90110828AE194E0AEDF73
:102B2000811111C083ED91E00E94A2038AE194E03B
:102B30000E9497038BEB91E00E94A20380E090E05B
:102B40009DDF0E94AF031092190410921804CACF9F
:102B50002038310538F6A9014F5F5F4F50931904B3
:102B600040931804265E3B4FF9018083BBCF2D9A1A
:102B700084B18C6284B9249880E58CBD8DB5816068
:102B80008DBD0895AA1BBB1B51E107C0AA1FBB1F27
:102B9000A617B70710F0A61BB70B881F991F5A95E9
:102BA000A9F780959095BC01CD0108952F923F9291
:102BB0004F925F926F927F928F929F92AF92BF924D
:102BC000CF92DF92EF92FF920F931F93CF93DF93F9
:102BD000CDB7DEB7CA1BDB0B0FB6F894DEBF0FBE56
:102BE000CDBF09942A88398848885F846E847D84A3
:102BF0008C849B84AA84B984C884DF80EE80FD80A5
:102C00000C811B81AA81B981CE0FD11D0FB6F8941A
:102C1000DEBF0FBECDBFED010895FB01DC0102C098
:102C200001900D9241505040D8F70895F999FECF88
:102C300092BD81BDF89A992780B50895262FF999FC
:102C4000FECF1FBA92BD81BD20BD0FB6F894FA9A8F
:0C2C5000F99A0FBE01960895F894FFCF8A
:022C5C00020074
:00000001FF
