:1000000093C10000B7C10000B5C100000C947A1381
:10001000B1C10000AFC10000ADC10000ABC1000024
:10002000A9C10000A7C100000C949937A3C100002A
:10003000A1C100009FC100009DC100009BC1000044
:1000400099C100000C94141395C1000093C10000E5
:1000500091C1000083C400008DC100008BC100006D
:1000600089C1000087C1000085C1000083C1000074
:1000700081C100007FC100007DC100007BC1000084
:1000800079C1000077C1000075C1000073C1000094
:1000900071C100006FC100004D230A6DFE09426E60
:1000A00009432F03453E21465C0C4D970C475F0CDE
:1000B000520F08542718578D0856D80958660E63F2
:1000C0005533659609662A1C6C5D09713822742CBB
:1000D00005757E1D78F7024112170000002A0343C0
:1000E0000055004E00000016036200750073007793
:1000F000006100720065002E0064006500000004CD
:1001000003090409024300020100807D0904000084
:10011000010202010005240001100524010301046D
:100120002402060524060001070582030800FF09D2
:10013000040100020A000000070504024000000755
:100140000583024000001201100102000008EB03C9
:100150004B2000000102DC01202F2000203D200068
:10016000072E050DD391FF080500000C0021656ADC
:100170002D3B1322F862073F181D1CC700B0876B88
:10018000F8B611EA2A001F41000D2E2D07D3913D2C
:1001900004320000060021656A55E43023B90007E7
:1001A0000018146C070090876BF85611E92A001F9D
:1001B000410000030F1E2627000000030F1E2536F6
:1001C000386700030F256740605000030F275188F0
:1001D000838100030F2750C8C3C20027000000001E
:1001E0000000006700000000000000500000000058
:1001F0000000008100000000000000C200000000BC
:100200000000504C4C310D0A00504C4C300D0A008F
:100210005620312E36382043554E00202F20002006
:100220003D2000416C6C6F63206661696C65640001
:100230004F4B0050726F626C6D65732061742000CB
:10024000206279746573206F662052414D202D2005
:100250000074657374696E6720004C4F56460D0A32
:1002600000424F56460D0A004552523A4343410D53
:100270000A000007022E030D04E905CA070C0B064D
:100280000D210E650F6A10C8119312031534173330
:10029000181819161B4321562500261129592C819F
:1002A0002D353EC34E2F4100454F420D0A004E2FC3
:1002B00041004E2F410000535300547D7DFFFF4B02
:1002C0004B7E7E0020697320756E6B6E6F776E2992
:1002D00020557365206F6E65206F66003F202800F3
:1002E0004134353035350041343530353500303026
:1002F00000302E302E302E30003233323300313980
:10030000322E3136382E302E31003235352E323500
:10031000352E3235352E30003139322E3136382EE9
:10032000302E3234340031008FEF82B988B980E842
:10033000809374001092750011241FBECFEFD0E29D
:10034000DEBFCDBF11E0A0E0B1E0ECEBF4E700E0F0
:100350000BBF02C007900D92A034B107D9F72DE072
:10036000A0E4B1E001C01D92AE32B207E1F70BD0BC
:100370000C944A3A45CEF89481E085BF82E085BF6F
:10038000E0E0F0EF099488E19FE00FB6F894A895BB
:10039000809360000FBE9093600080E890E00FB6FD
:1003A000F89480936100909361000FBEBDDF04B6A6
:1003B00003FE0AC083E390E001D6882329F060E0C1
:1003C00083E390E0F6D5D7DF809153018111FECF12
:1003D00089EF87BD84E085BD82E084BD80936E0097
:1003E000109280008AE08093810084B7877F84BF69
:1003F000519A0E94EB1EC9D70E9469370E94E017EC
:100400000E94450E0E94D02081EA9EE19093E40371
:100410008093E30381E080934A0159980E944F380A
:10042000D8D10E94841042D30E94751C0E94BF1D27
:100430000E9463150E941420F1CF9C01DA01832FE2
:1004400099278230910509F18330910539F00197A0
:1004500009F180E090E020E030E00EC0C90199276A
:10046000213069F08230910569F0EFEFF0E0892BDF
:1004700081F7849190E09F012D933C930895E7EEDE
:10048000F0E0F7CFEDEDF0E0F4CF83E490E023E08F
:1004900031E0F2CF82E190E026E431E0EDCF8EBD95
:1004A0000DB407FEFDCF8EB50895EF92FF920F9326
:1004B0001F93CF93C82F8A3008F0C8E028E0C29F6E
:1004C000C0011124FC01EE54FE4F7F010BE210E04D
:1004D000F7016491C8010F5F1F4F6BD5FFEFEF1A53
:1004E000FF0A03331105A1F7C55061E1C53008F0DB
:1004F00067E184E290E0CF911F910F91FF90EF9020
:1005000058C50F931F93CF93DF9309E811E0C2E022
:10051000D0E0F8016491CE0121964BD50F5F1F4FBB
:10052000CB32D105B1F700E611E0C7E3D0E0F80126
:100530006491CE0121963DD50F5F1F4FC036D10586
:10054000B1F788E0DF91CF911F910F91AECF5F9807
:10055000806CA5DF80E0A3DF5F9A0895CF93C62F5C
:100560005F9880649CDF8C2F9ADF5F9ACF9108950B
:100570005F9895DF5F9A08950F931F93CF93DF9352
:10058000EC01EA98579A5F9A8EE190E00DD35F985C
:100590008EE190E009D35F9A8DE290E005D380E38D
:1005A000E7DF84E690E000D35F9880E478DF8E0197
:1005B000075D1F4FCE01219601D571DF0C171D0776
:1005C000C9F75F9A5F988EE76ADFCBE2D0E0CE0191
:1005D0002196F4D464DFC333D105C9F75F9A83E36E
:1005E000C7DF81E0DF91CF911F910F91E2C2CF93DE
:1005F000DF930F92CDB7DEB722E0298341E0BE0141
:100600006F5F7F4F01963ED489814FDF82E090E09B
:10061000B3DF0F90DF91CF910895CF93EA9886E3EF
:10062000A7DFCFEF85E3A4DF8077803231F08AE067
:1006300090E0BAD2C150C111F5CFCF910895CF93B8
:10064000CFEF84E395DF8077803131F08AE090E06E
:10065000ABD2C150C111F5CFEA9ACF9108950F9353
:100660001F93CF93DF9300D0CDB7DEB78C01FC0191
:1006700081818737F1F441E0BE016F5F7F4FC80190
:10068000029600D4892BA9F041E0BE016E5F7F4F36
:10069000C8010496F7D3892B61F06A8189815EDFF6
:1006A00083E366DFCCDF8981E9D38A81E7D34FD347
:1006B00018C041E0BE016E5F7F4FC8010196E2D3D2
:1006C000892B79F08A81893999F410E0812F3FDFF5
:1006D000D5D3812F8770873009F439D31F5F10334A
:1006E000A9F70F900F90DF91CF911F910F9108956F
:1006F0002EDF182F83E4CCD28A81C0D38CE591E021
:1007000019D3812FBBD388E591E014D340E262E096
:10071000812F90E020D3CBCF86E32ADF10924001D7
:100720001092F801089582E090E026DF81E0809346
:1007300040011092F80108950F931F93CF93DF9318
:10074000D82FC0E0062F10E085E301DF8D1759F0A8
:10075000C8012AD2C150C111F7CF81E0DF91CF91FA
:100760001F910F91089580E0F9CF85E2F0DE8F337D
:1007700011F080E0089586E3FBDE80914101811154
:1007800012C089E092E0D6D283E3F2DE64E081E039
:10079000D3DF85E2DCDE8F3361F78091410188236E
:1007A00029F081E008958DE3E3DEEECF82E092E070
:1007B000C1D2F7CF85E3CBDE8D3051F485E2C7DEC1
:1007C0008F3331F4D2DF84E3D3DE80778031D9F701
:1007D00008958091200D843009F03EC08093E90097
:1007E00080914201811104C08091E80085FD3AC0EA
:1007F00083E08093E9008091A003882369F18091D0
:10080000E80085FF29C0F8948091A003882341F077
:100810008091F2009091F3008034910508F443C078
:1008200078942091F2003091F3008091E800982FA5
:100830009E7F9093E8008F778093E8002034310505
:1008400059F40E941A368091E800982F9E7F909369
:10085000E8008F778093E80008956091F1008BE5C0
:1008600093E048D68091F2009091F300892BA9F78C
:100870008091E800982F9B7F9093E8008F7780937A
:10088000E80081E08093420189EE93E09093E203D7
:100890008093E103E091E303F091E40381E00995A3
:1008A00010924201A5CF8EE993E03BD68093F100F0
:1008B000ABCF42E061EC82E00E94CC3542E361E8DC
:1008C00083E00E94CC3542E360E884E00E94CC35AE
:1008D0001092000110920101109202011092030186
:1008E00008958091210D9091220D9132B1F09232B4
:1008F00059F1903291F5813281F58091E800877F3E
:100900008093E80067E070E080E091E00E94E636C6
:100910008091E800982F9E7F11C0813AF1F4809178
:10092000E800877F8093E80067E070E080E091E076
:100930000E9444368091E800982F9B7F9093E800B6
:100940008F778093E8000895813239F48091E80030
:10095000877F8093E8000C94F63508951F921FB6A8
:100960001F9211248F938BB78F939F93AF93BF9355
:10097000EF93FF938091440190914501A09146012E
:10098000B09147010196A11DB11D80934401909340
:100990004501A0934601B0934701809143018F5FC9
:1009A0008093430180911C0D8F5F80931C0D8D37C8
:1009B000A8F08091140190911501A0911601B091B9
:1009C00017010196A11DB11D80931401909315018B
:1009D000A0931601B093170110921C0DEAEFF1E0FD
:1009E00080819181181619061CF4019791838083E8
:1009F000369682E0E231F80799F7809133029091C0
:100A00003402009729F001979093340280933302C7
:100A1000809137028F3F19F0815080933702FF9108
:100A2000EF91BF91AF919F918F918BBF8F911F904D
:100A30001FBE1F901895FC018FB7F8944091440198
:100A40005091450160914601709147014083518367
:100A5000628373838FBF0895CF93DF9300D000D05C
:100A6000CDB7DEB7CE010196E6DF8C8107D28B8150
:100A700005D28A8103D2898101D20F900F900F9005
:100A80000F90DF91CF9163C1CF93DF9300D000D05F
:100A9000CDB7DEB7CE010196CEDF89819A810F9066
:100AA0000F900F900F90DF91CF9108950F931F93A8
:100AB000CF938091440190914501A0914601B0915E
:100AC000470120914901281709F45DC08091440134
:100AD00090914501A0914601B09147018093490151
:100AE000A8950AEF11E0C0E0F80180819181892B7F
:100AF00019F48C2F0E94721ACF5F0A5F1F4FC43007
:100B000099F78091330290913402892B11F40E945D
:100B1000D01A80913702811102C00E94391B809146
:100B20005603882339F0815080935603811102C007
:100B30000E945E1E809143018D3728F1109243017F
:100B40008091070181FF04C08BB192E089278BB9A6
:100B500080914C0190914D018438F3E09F0728F477
:100B6000019690934D0180934C0180911401811165
:100B700002C00E94DF338091480191E0980F8B33CF
:100B800031F090934801CF911F910F9108951092E9
:100B90004801809135028F5F8C3318F480933502C1
:100BA000F2CF10923502EFCF880F991F0197F1F71E
:100BB000089520ED37E0811101C00895F9013197C2
:100BC000F1F78150F8CFCF93DF93FC018381843517
:100BD00009F055C08081DF0150962DE0281708F4F8
:100BE00051C030E090E0AC014F5051092417350757
:100BF00009F045C0EF012396DC011E97AC0FBD1F25
:100C00002C912435E1F5348111962C9111973213F2
:100C100036C0358112962C911297321330C036812E
:100C200013962C91139732132AC0378114962C9166
:100C30001497321324C04197C80FD91F15968C9171
:100C40001597888316968C911697898319968C919F
:100C500019978A831A968C911A978B831B968C917D
:100C60001B978C831C968C911C978D831D968C9161
:100C70008E8380818A50808382818A508283DF9133
:100C8000CF9108959D919B3309F4ABCF2F5FA6CFF1
:100C9000CF93C82F80914A0182FF03C08C2F0E94FE
:100CA0002B228091200D843049F580914A0180FFEC
:100CB00025C08091A003803408F08BDD6C2F8EE975
:100CC00093E018D4CA30C1F080915803882301F111
:100CD00080914A0183FF1CC0CD30E1F46BE382E1D7
:100CE00093E008D482E193E06EDF83E080935603C3
:100CF00082E0809355030CC0CF916BCD8091580357
:100D0000882331F080914A0183FF02C0CA3021F765
:100D1000CF9108956C2F82E193E0ECD3E6CFCF938F
:100D2000DF93EC018991811103C0DF91CF91089588
:100D3000AFDFF8CFCF93DF93EC01FE0184918111F7
:100D400003C0DF91CF910895A3DF2196F6CF8DE008
:100D50009FDF8AE09DCFEF92FF920F931F93CF9377
:100D6000DF9300D000D000D0CDB7DEB7FC01262F36
:100D70001E828E010A5F1F4F35E08AE0E82EF12CBB
:100D8000CF01B7010E946D383150805DD8018E933C
:100D90008D01CF01FB010A97F0F4832F2550622FBC
:100DA000630F615067FD02C0811119C021E030E07E
:100DB0002C0F3D1F280F311DC901B1DF0F900F907F
:100DC0000F900F900F900F90DF91CF911F910F9187
:100DD000FF90EF9008953111D3CF80E0DFCF8150A5
:100DE000E1E0F0E0EC0FFD1FE80FF11D4083D9CFEB
:100DF000CF93DF9300D000D00F92CDB7DEB79C0128
:100E00001D8254E0922F9F709A3068F5905D8FEFAD
:100E1000850FE1E0F0E0EC0FFD1FE80FF11D90837E
:100E2000F90194E0F695E7959A95E1F720313105BF
:100E3000B8F45550650F615067FD02C0811115C0AF
:100E400021E030E02C0F3D1F280F311DC90167DF65
:100E50000F900F900F900F900F90DF91CF9108950A
:100E6000582F9F01CFCF995CD2CF8150E1E0F0E0C5
:100E7000EC0FFD1FE80FF11D4083DDCF40E362E082
:100E800090E0B6CFCF93DF93EB01FB0130E020E0A1
:100E9000DC019D91992331F0913670F08FE9890F33
:100EA000863030F0CF018C1B9D0BDF91CF910895E0
:100EB00090529753292B05C080ED890F8A3050F44A
:100EC000282B332389F021934150442359F330E0F8
:100ED00020E008C08FEB890F863058F3903211F074
:100EE0009A3301F7CD01D4CF2295207F31E0FACF9C
:100EF000CF93DF93C82F592FDB01CB0130E020E0E7
:100F00006AE0EC2FF52F519151110CC0332329F0D9
:100F1000442319F0FC012193CF018A1B9B0BDF9125
:100F2000CF91089530ED350F3A3040F4269F300DC3
:100F30001124232F31E0CE2F5F2FE3CF503211F059
:100F40005E3259F730E04423B1F3EC012993CE012E
:100F5000415030E020E0EFCFDB0120E030E04AE01C
:100F6000FC018191811103C02D933C93089590ED74
:100F7000980F9A3050F4429FB001439F700D112496
:100F80008053990B9C01260F371FCF01E9CFFB013E
:100F9000982F92959F70803A40F4905D90838F7067
:100FA0008A3028F4805D81830895995CF7CF895C4D
:100FB000FACF0E942C3AF999FECF08950C941F3A6B
:100FC0000F931F93CF93DF93EC018C010D5F1F4FA5
:100FD000CE01F4DF40E261E090E0BDDE0C171D07BA
:100FE00021F021968EE254DEF3CFDF91CF911F9155
:100FF0000F9108950F931F93CF938C01CFEFC60FDE
:10100000C801DCDF3BDFCC2331F00F5F1F4F8AE3E9
:101010003FDEC150F5CFCF911F910F910895FF9200
:101020000F931F93CF93DF9300D0CDB7DEB7FC01B2
:101030008181893609F03DC082818D3629F466E0D0
:1010400082E690E0D7DF09C0873611F178F4813667
:10105000D9F08436A1F08E34F1F079DE0F900F9044
:10106000DF91CF911F910F91FF9008958F36B1F0CE
:101070008037B9F08E3689F78DE690E007C088E6B4
:1010800090E09CDFFBDEE9CF89E690E099DFE5CFD9
:1010900081E790E0FBCF85E790E0F8CF8BE790E029
:1010A000F0CF89E790E00E94273A40E260E053DE0B
:1010B000D4CF8D3421F466E08AEF9FE0C3CF803532
:1010C00021F460E18AED9FE0BDCF1A82198242E0EF
:1010D000BE016F5F7F4FCF010196D4DE098110E022
:1010E000823029F409811A81102701271027C801AD
:1010F00065DFF82E82E5CCDD40E364E0C80178DEF0
:101100008FE192E017DE8F2DB9DE8BE192E012DEE7
:1011100040E262E08F2D90E0CACFCF92DF92EF9253
:10112000FF920F931F93CF93DF9300D000D000D096
:10113000CDB7DEB76C01FC018181893609F085C02D
:1011400082818D3611F546E0BE016F5F7F4FC6018B
:10115000039698DE02E616E0CE0101967C01802F10
:1011600090E0282F201B211708F465C00F900F90E6
:101170000F900F900F900F90DF91CF911F910F91D3
:10118000FF90EF90DF90CF900895873669F148F493
:10119000813601F18436A9F08E34C1F100E010E00F
:1011A000DBCF8F3609F43BC0803739F18E36B1F78B
:1011B00044E0BE016F5F7F4FC601039699DE0DE6E6
:1011C00011C0BE016F5F7F4FC6010396C5DE08E602
:1011D00011E0C2CF44E0BE016F5F7F4FC6010396AE
:1011E00087DE09E614E0B8CF44E0BE016F5F7F4FB1
:1011F000C60103967DDE01E7F5CFBE016F5F7F4F2D
:10120000C6010396A9DE09E712E0A6CF44E0BE01BD
:101210006F5F7F4FC60103966BDE05E7E3CF41E0CA
:10122000BE016F5F7F4FC60103962CDE89818093DC
:101230001B0D0BE7CDCFF70161917F016C01FFEF33
:10124000CF1ADF0AB6DEC6018CCF43E0BE016F5F66
:101250007F4FC601019616DE8C01823008F486CFDE
:10126000E980F12C823029F0E980FA80FE24EF2415
:10127000FE241127FE01E00FF11F6081C70199DEF6
:10128000000F111F0F5F1F4F0C0D1D1DF8018081F6
:10129000882309F46BCF41E0BE016F5F7F4FC80127
:1012A000F1DD892B09F462CF2FEFE21AF20A69818E
:1012B000C7017FDE0E5F1F4FE9CF41E067E071E0BD
:1012C0000196E0DD8091070180FF06C0599A609188
:1012D000070184E390E06DCE5998F9CFCF93DF9367
:1012E0000F92CDB7DEB71982009731F041E0BE0111
:1012F0006F5F7F4F0196C6DD89818F3F09F4FFCF75
:10130000882321F061E083E390E053DE0E94793787
:1013100010926E00F89488E198E00FB6F894A895C2
:10132000809360000FBE90936000FFCFCF93DF9358
:10133000EC0161E080E090E03CDE64E481E090E07C
:1013400038DEDFD860E080E690E033DE60E081E602
:1013500090E02FDE60E083E390E02BDE62E084E348
:1013600090E027DE0E943D1F60E080E690E021DEF5
:1013700060E081E690E01DDE8981883719F080E029
:1013800090E0ACDFDF91CF91089580E090E016DE31
:10139000813029F481E090E011DE843419F080E09E
:1013A00090E0C4DF84E390E009DE809307010895B4
:1013B00080E192E0BFDCCBCC20912C0D30912D0D43
:1013C0002115310521F420911A0130911B018091E2
:1013D000180190911901009741F48DB79EB7409183
:1013E0001C0150911D01841B950B2817390718F417
:1013F000821B930B089580E090E0089582E448DC1E
:1014000040E265E080912C0D90912D0DA4DC9FDCD5
:1014100083E53EDC40E265E080911A0190911B017A
:101420009ADC95DC85E434DC40E265E080911801CB
:101430009091190190DC8BDC86E42ADCBDDF40E270
:1014400065E089DC84CC0F931F93CF93DF9381E514
:1014500092E070DC40E265E08DEF9FE77CDC80E4A9
:1014600092E068DC8DEF9FE70E94CC38EC0100979A
:10147000C9F14DEF5FE767E770E00E94113AFE01A6
:10148000DE0180E090E08D9301968D3F2FE792077B
:10149000D1F700E010E0819190E0980133278217A6
:1014A000930779F083E392E045DC40E265E0C80110
:1014B00052DC4DDCCE01DF91CF911F910F910C9446
:1014C00062390F5F1F4F0D3F8FE7180721F7CE01DD
:1014D0000E94623980E392E02DDCDF91CF911F9171
:1014E0000F9135CC83E292E0F7CFFC01128210829B
:1014F00011820895FC019FB7F8948281803410F026
:101500009FBF08958F5F8283A08181E08A0F8083CF
:10151000AE0FBF2FB11D13966C93803489F71082E4
:10152000EFCFFC019FB7F8948281811102C09FBF69
:10153000089581508283A18121E02A0F2183AE0F7B
:10154000BF2FB11D13968C91203489F71182EFCFF4
:10155000CF93DF93FB01DA019C91882369F0EB01C3
:10156000C90FD11D41E050E0022E01C0440F0A9482
:10157000EAF78881842B8883222331F02150822F3F
:1015800090E0DF91CF9108959F5F9C3008F49C9389
:10159000E90FF11D108227E0F2CF8A9A882379F0B3
:1015A00080914F0120E1829FC0011124FDDA8A98C9
:1015B00080914E0120E1829FC0011124F5CA8091E3
:1015C000510120E1829FC0011124EEDA8A988091B6
:1015D0005001F0CF2F923F924F925F926F927F9285
:1015E0008F929F92AF92BF92CF92DF92EF92FF9233
:1015F0000F931F93CF93DF936C01462EC22F502E73
:101600003E2C642E712C4E5F409F402D1124042EE1
:10161000000C550B80914C0190914D01841795075A
:10162000A8F48AE592E0DF91CF911F910F91FF908E
:10163000EF90DF90CF90BF90AF909F908F907F9072
:101640006F905F904F903F902F9074CB841B950BC1
:1016500090934D0180934C01599A809140018111E2
:1016600001C061D80E940D03A42CB12C01E010E050
:10167000EC2EF12CC0E08C2F0C2E000C990B8A154F
:101680009B05BCF1442011F081E087DF212CC22DA5
:10169000022C000CDD0BC615D7057CF187E0982ED7
:1016A000CC0DDD1D892D092C000C990BE816F906CF
:1016B000C4F1832D7EDA5A945110DCCF809153010E
:1016C000882309F439C00E941F035998DF91CF91F4
:1016D0001F910F91FF90EF90DF90CF90BF90AF9050
:1016E0009F908F907F906F905F904F903F902F9042
:1016F000089580E052DFCF5FBECF97E0892E912C16
:10170000CC0DDD1DC801082C01C0880F0A94EAF732
:101710009881892342DF81E0881A910898F7239401
:10172000B6CFC801092C01C0880F0A94EAF7988146
:10173000892333DF9A94B6CF86E30E94B802C5CFDF
:101740003F924F925F926F927F928F929F92AF9251
:10175000BF92CF92DF92EF92FF920F931F93CF939E
:10176000DF93CDB7DEB72D970FB6F894DEBF0FBE6F
:10177000CDBF7C01162F842F022F6701C60ED11C0E
:10178000462FB701B9D2F60180831F5F1D861982EB
:10179000C12CD12C27E0CE010D9688248394912C66
:1017A000582E492E97E0A92EB12C37016C0C7D1CC8
:1017B000C11668F1222309F455C0215089E18093B4
:1017C00050018093510185E280934E0180934F0137
:1017D0008AE0E82E4D856CE0CE010196FBDE2D9669
:1017E0000FB6F894DEBF0FBECDBFDF91CF911F9132
:1017F0000F91FF90EF90DF90CF90BF90AF909F90B0
:101800008F907F906F905F904F903F900895F3017D
:101810003080C4010A2C01C0880F0A94EAF7452DD4
:10182000542DBE016F5F7F4F832192DE282FF1E0A0
:10183000AF1AB10808F0BCCF032C32943024032C2B
:10184000369436943024339431FA882780F9452D24
:10185000542DBE016F5F7F4F7BDE282FEFEFCE1A36
:10186000DE0AA0CF8D858F5F8D8727E0A7CF0F93EE
:101870001F93CF93DF93CDB7DEB72C970FB6F894B5
:10188000DEBF0FBECDBF162F042F4BE0BE016F5F32
:101890007F4F0196F7DA682F202F412FCE01019656
:1018A0004FDF2C960FB6F894DEBF0FBECDBFDF9191
:1018B000CF911F910F91089543E066E0D8CFEF924A
:1018C0000F93CF93DF93CDB7DEB760970FB6F89441
:1018D000DEBF0FBECDBF40E1BE016F5F7F4F0196FF
:1018E000D1DA69814A810B818C81809351018D818C
:1018F000809350018E8180934F018F8180934E01A0
:10190000E02EE2948FE0E8220F70242F2F70429592
:101910004F70CE0108965EDE60960FB6F894DEBF7B
:101920000FBECDBFDF91CF910F91EF9008958F92B1
:101930009F92AF92BF92CF92DF92EF92FF920F935E
:101940001F93CF93DF93CDB7DEB769970FB6F894A7
:10195000DEBF0FBECDBF4BE0BE016F5F7F4F019674
:1019600091DA182F8930B9F589E18093500180937D
:10197000510180934F0182E380934E0169E0CE01D3
:101980000196C5D1E1E0F0E0EC0FFD1FE10FF11D84
:101990008083198E1D868E010F5F1F4F7E018BE0A5
:1019A000E80EF11C27E0CE014996CC24C394D12C3B
:1019B000982E892EA12CB12C0E151F05F9F4222387
:1019C00009F43EC021508AE0E82E03E0498D6CE026
:1019D000CE010D96FFDD69960FB6F894DEBF0FBEFF
:1019E000CDBFDF91CF911F910F91FF90EF90DF90CE
:1019F000CF90BF90AF909F908F900895C6010A2C12
:101A000001C0880F0A94EAF7F8019081492D582DFA
:101A1000BE01635F7F4F89239BDD282FFFEFAF1A45
:101A2000BF0A88E0A816B10439F6492D582DBE0129
:101A3000635F7F4F81E08CDD282F0F5F1F4FBACF90
:101A4000898D8F5F898F27E0BECFAF92BF92CF92F3
:101A5000DF92EF92FF920F931F93CF93DF93FC01DE
:101A600010926F014181440F440F440F8381481B42
:101A700087E0C82EC40E1092700120E030E047E0ED
:101A800057E070E080E097E0E92EF12C01E010E0F3
:101A9000DD24D394D80E8C1580F0209384013093EC
:101AA0006F01CD14A0F5653409F088C04F3F09F0EF
:101AB00085C02F5F2093840183C0DF01A70FB11D74
:101AC00014968C9190E0052E02C0959587950A9406
:101AD000E2F78170552369F051506B34D1F44330F3
:101AE00059F4332371F030E0811155C04150832FF8
:101AF0001EC07F5F57E0F1CF4F3FB1F781110FC09C
:101B00002FC0811114C02093840110926F0180E0D6
:101B10005DC04F3F51F5663469F0653479F32F5F4E
:101B2000A22FB0E0A059BE4F1C92832F47E0382F60
:101B30008D2DAECFA22FB0E0A059BE4FAC910A2E92
:101B4000A295A0250A2EA695A695A02590E0AF5FA8
:101B5000A695A170CA2FA12CDA2D8C179D07F9F23A
:101B60002093840130936F01D2CF882309F4BECF34
:101B7000663471F4A22FB0E0A059BE4FBC90C801EA
:101B8000042E01C0880F0A94EAF78B298C93AECFFC
:101B9000653409F0ABCFA22FB0E0A059BE4FC7010A
:101BA000841B910947FD9395580102C0AA0CBB1CE8
:101BB0008A95E2F7C5019C91892BE8CF311179CF45
:101BC00081E090918401992309F4A1CFDF91CF9115
:101BD0001F910F91FF90EF90DF90CF90BF90AF904B
:101BE000089510926F00E09187018CE1E89FF00169
:101BF0001124E857FE4F1082809152018D7F80930F
:101C000052010895FC018181843108F0EACF93816B
:101C1000662381F0DF01A80FB11D41E050E0092EDD
:101C200001C0440F0A94EAF714962C911497242BC0
:101C300014962C93992319F091509383089597E06B
:101C400093838F5F8183E80FF11D1482089570E004
:101C500030E0FB01E21BF30B3B967797A0F490E09A
:101C600050E0FC01E41BF50B3B96779760F4680F9E
:101C7000791F240F351F621B730B655F7F4F81E057
:101C80006731710508F080E00895829A8A98529829
:101C9000E9E6F0E080818061808382EC91E09093BE
:101CA0004D0180934C01E8E8F1E0148E10AE1092E3
:101CB000DC0110924001089580915301882321F0A6
:101CC0000E9493030C941F030C948C03FC018181EC
:101CD00081110BC080915301D1D840E265E0809121
:101CE0004C0190914D0137D832C841E063E571E075
:101CF000CF010196C7D8E0CF9B01411101C00895E3
:101D00004150F901E40FF11D9081890FF6CF9C013C
:101D100080E0611101C008956150F901E60FF11DE5
:101D200090818927F6CFAC01F0916F01362F85E0C5
:101D300090E0311109C0292F280F80E1289F9001E0
:101D40001124892F822B08957FEF730FDA01A70FDB
:101D5000B11D2C91E22FE295EF709E278E0FFF238D
:101D600011F0361719F02F709227820F372FE1CF1D
:101D7000FC0122813381A081B181A20FB11D8C9120
:101D800090E0032E02C0959587950A94E2F7817042
:101D90009FEF930F9383311104C02F5F228397E04D
:101DA00093830895BF92CF92DF92EF92FF920F93A9
:101DB0001F93CF93DF93D82EC92EE42E062F10E069
:101DC000E801F12CBB24B394209759F48F2DDF91B7
:101DD000CF911F910F91FF90EF90DF90CF90BF9028
:101DE00008958D2D9C2DC4DFAE01415051098823EB
:101DF00049F0EE2049F02B2D042E01C0220F0A9449
:101E0000EAF7F22AEA01E0CF98012C1B3D0B8B2D5B
:101E100001C0880F2A95EAF7282FF3CFAF92BF921F
:101E2000CF92DF92EF92FF920F931F93CF93DF93A6
:101E300000D000D0CDB7DEB7FC011B8287E08C83D9
:101E4000CF0104969A83898310928401818128E0CE
:101E5000829FC0011124438127E030E0241B310917
:101E6000820F931FB12C8534910534F580E046C074
:101E700099DFA82EE12FF0E0E059FE4F8083082F74
:101E8000002E02950025002E069506950025CE0110
:101E900001966EDF90E00F5F01FBCC24C0F8D12CDF
:101EA0008C159D0519F7CE01019662DF8111DECFF9
:101EB000BA241F5F109384011091840140E068E010
:101EC000CE0101961630A0F26DDF082F182F012EDB
:101ED00012951025012E169516951025CE01019606
:101EE00047DF90E01F5F11FBEE24E0F8F12C8E1528
:101EF0009F0509F0BBCF81E0B012B8CF0F900F90D3
:101F00000F900F90DF91CF911F910F91FF90EF9065
:101F1000DF90CF90BF90AF900895CF92DF92EF9275
:101F2000FF920F931F93CF93DF9300D000D0CDB7D4
:101F3000DEB7FC011B8287E08C83CF0104969A8375
:101F400089838081853009F03FC0818128E0829FAC
:101F5000C0011124438127E030E0241B3109820FA6
:101F6000931F8039910581F580E00FE010EF49E87B
:101F7000F42E80938401C82ED12CEE24E394E80E35
:101F800041E068E08F3071F5CE0101960BDF080F5C
:101F9000111D90E190938401809580937F0141E031
:101FA00068E0CE010196FEDE90E0982F8827081B9E
:101FB000190B41E068E0CE010196F4DE282F30E0F5
:101FC00081E02017310709F080E00F900F900F900B
:101FD0000F90DF91CF911F910F91FF90EF90DF90C5
:101FE000CF900895CE010196DDDE080F111DF60198
:101FF000E059FE4FF826F08234E2F32EF80E8E2DD3
:10200000B8CF1F93CF93DF9300D000D0CDB7DEB70A
:10201000FC011B8287E08C83CF0104969A8389831D
:102020008181843021F4838110E0813079F080E077
:1020300023C0111129C067E0CE010196B3DE80688C
:10204000E12FF0E0E059FE4F80831F5F1093840181
:1020500041E0143071F767E0CE010196A3DE880FEE
:102060008093740185E08093840190917001929532
:102070009F7081E09A30D9F60F900F900F900F90DB
:10208000DF91CF911F91089568E0CE0101968ADE1D
:10209000D7CFFC0181818330D9F483818730C1F4AB
:1020A00080818830A9F480E09181891720F08093A5
:1020B000840181E00895282F30E0DF01A20FB31FD3
:1020C00014969C9120593E4FD9019C938F5FECCF81
:1020D00080E00895FC01908180915201993611F0C1
:1020E000933771F4982F9370913021F48660809328
:1020F0005201089580FFFDCF809152018B7FF7CF71
:1021000080FDF7CF8460F3CFDF92EF92FF920F93C1
:102110001F93CF93DF930F92CDB7DEB719828091D3
:1021200054018823A1F18091530187FF14C084E3F7
:102130000E94A7028058803408F442C0803C08F016
:1021400041C08055990B23E0959587952A95E1F735
:102150008F590E9448068091530183FF16C082E781
:102160000E9448068091530184FF04C0809155016C
:102170000E94480686E60E9448068091530184FF2B
:1021800004C0809154010E9448061092540180912D
:102190008501882309F43FC2599A009186012CE1F8
:1021A000029F8001112408571E4F898181111FC091
:1021B000C8016FDF882309F4BCC183E7898317C096
:1021C00080E0C6CF8FE0C4CF83E5F8CF282F30E082
:1021D0002F5F3F4F4E2D50E02417350709F070C098
:1021E00093E09F1508F0C4C196E499838083E98049
:1021F000D0905301EE2009F4FDC0D0FEFBC08091C9
:1022000052018A7F809352018D2D8270811125C0E9
:10221000F090840190916E01EAE5F1E0A0E7B1E071
:102220009F1509F493C04F2D50E060E771E08AE5F7
:1022300091E00E94083AF0926E01809144019091E1
:102240004501A0914601B0914701809356019093BA
:102250005701A0935801B0935901F4E5EF1297C0CC
:10226000D6FC1BC0809184018530B8F0809172014A
:102270008B3471F0893661F09DEA980F923040F00E
:102280008D57823028F0809173018077803729F450
:1022900080915201816080935201B801CE01019674
:1022A00019DF80915803882309F475C080913902A1
:1022B000811171C0809152018B7F809352016BC05C
:1022C0004F2D60E771E08CE017DDE81251C1E3E0CB
:1022D00084E5EF1508F472CF4BC1809184018150E1
:1022E00080938401893009F049C169E080E791E079
:1022F0000EDD90917901891341C185E45FCF88E4B7
:102300005DCF84E75BCFE0918401FF24FA94FE0E59
:10231000F09284016F2D80E791E005DD90916F01CF
:102320002F2D291B330BF901E059FE4F90818913A2
:102330003DC18BE443CF21919D918F5F291731F0EF
:10234000809152018D7F809352016DCFF812F3CFAF
:10235000F0926E018091440190914501A091460157
:10236000B091470140915601509157016091580139
:1023700070915901841B950BA60BB70B8697A1058D
:10238000B10508F050CF809152018160DCCFB801D7
:10239000CE0101969FDE8091520182FF2BC08E2DCF
:1023A0000E94480680916F01882329F08091840162
:1023B000815080938401F12CE0918401FE1608F491
:1023C000A7C080916F01882351F0F0E0E059FE4FE3
:1023D00080818F7040E361E090E00E94F806809178
:1023E000530185FF05C084E30E94A7020E943E07B7
:1023F0000E94A7068091530182FF69C080E70E9476
:102400004806F801808140E262E090E00E94AB065D
:10241000F801808D40E265E0F0E18F9FC00111245A
:102420000E94AB06F801818D40E265E0F0E18F9FEC
:10243000C00111240E94AB06F801828D40E265E0E4
:10244000F0E18F9FC00111240E94AB06F801838D3B
:1024500040E265E0F0E18F9FC00111240E94AB06CD
:10246000F801828140E263E090E00E94AB06F8014F
:10247000818140E263E090E00E94AB06F801838135
:1024800040E262E027E030E0F901E81BF109CF010A
:102490000E94AB0680E20E9448068091530185FFAE
:1024A00008C084E30E94A7020E943E0780E20E94C7
:1024B0004806F8018381873019F081818F5F81831D
:1024C000F12CF8018181F81660F10E94A706F8014D
:1024D00010828091850181508093850190918601C1
:1024E00081E0890F933009F480E080938601599848
:1024F0008981843509F08FC080E791E00F90DF91EA
:10250000CF911F910F91FF90EF90DF900C94481B9B
:10251000EF2DF0E0E059FE4F80810E943E07F394DA
:102520004BCFF801EF0DF11D84810E943E07F3941B
:10253000C8CFC801F2DC811147CE66E4C80185DA54
:102540008823B9F0F0908401FA94F09284014F2D21
:1025500060E771E086E0D0DBEF2DF0E0E059FE4F60
:10256000E080E81233CE33E086E43F1508F426CE4F
:10257000198265E4C80169DA8111AFCEC8014EDC69
:102580008111BDCEC8013DDD8111BBCEF801638D47
:10259000E0905501262F4E2D828D59DB682FC80102
:1025A00031DB6BE4C80151DA8111ADCEF8018381D2
:1025B00091E0980F9383873029F4F8018181138289
:1025C00081508183F8018181843009F010CEF801B7
:1025D0008381843009F00BCE2EE14CE3618D808D38
:1025E00036DB882309F403CE2EE14E2DF801638DEE
:1025F000828D2DDB682FC80105DB85E0F80134965C
:10260000A0E7B1E001900D928A95E1F785E0809313
:10261000840182E5D3CD0F90DF91CF911F910F916F
:10262000FF90EF90DF9008951F920F920FB60F92D8
:1026300011240BB60F922F933F934F935F936F9399
:102640007F938F939F93AF93BF93EF93FF931092DA
:102650006F008091530183FF03C08EE20E94480601
:10266000909187018CE1989FF0011124E857FE4F6B
:102670008081833018F081818230A0F4B2DAFF913A
:10268000EF91BF91AF919F918F917F916F915F91EA
:102690004F913F912F910F900BBE0F900FBE0F9057
:1026A0001F90189580918501833049F480915301E2
:1026B00082FFE4CF81E692E00E949A06DFCF8F5F2F
:1026C0008093850181E0890F933019F08093870111
:1026D000D6CF10928701D3CF982F8BED890F8731FA
:1026E00038F486EF860F8D3118F481E0691708F011
:1026F00080E008951F920F920FB60F9211240BB62F
:102700000F92EF92FF920F931F932F933F934F934C
:102710005F936F937F938F939F93AF93BF93CF9369
:10272000DF93EF93FF93809110038823E1F082E021
:1027300080931003FF91EF91DF91CF91BF91AF9103
:102740009F918F917F916F915F914F913F912F91C9
:102750001F910F91FF90EF900F900BBE0F900FBE47
:102760000F901F90189580915A03823021F483E0D6
:1027700080935A03DFCF0091840010918500A4E07C
:1027800016950795AA95E1F7C09187019CE1C99F2D
:10279000E0011124C857DE4F9881943079F40E324D
:1027A00048F20F3408F0C0C04A9914C061E0CE016D
:1027B00029DA109285001092840004C0953029F027
:1027C0004A9908C000935501B5CF073108F4B2CF3C
:1027D0000732E8CF90915501091B009354011092E4
:1027E0008500109284008881883021F58A818111CA
:1027F00009C081E08A83988F9A8F098F0B3BC0F4C0
:10280000000F0B8F82E086BB088101111AC09091E6
:102810005501953608F08ECF80915401853608F029
:1028200089CF988F898F81E08A8382E0888382CFE5
:102830000695E7CF8450823028F760E0CE01E2D9D8
:1028400079CF10915401023009F074C0E090550125
:10285000F88C098D212F4E2D602F8F2DF8D94A81AC
:102860008823F9F02F2D30E0C901880F991F820FBE
:10287000931F8E0D911D9595879595958795888FBA
:10288000602F70E0CB01880F991F860F971F810F73
:10289000911D9595879595958795898F4F5F4A836B
:1028A00049CF443008F444C080EA9FE09093890007
:1028B000809388008A818C3058F0888D998D890F9B
:1028C0009927991F853691052CF084E0888311C0E3
:1028D0008A30C8F0888D998D890F9927991F85971F
:1028E00094F485E0888388EE93E090938900809348
:1028F0008800EA8E1B8F198287E08B831C8282E01E
:1029000080936F0017CF80915903882379F0612F4E
:102910008E2DE2DE882351F0688D898DDDDE8823DF
:1029200029F081E080935A035CD904CF83E0CECFB5
:1029300018826DCF083009F04BC081E9810F8D31CD
:1029400010F560E0CE015ED9288D30E0C901880F16
:10295000991F820F931F20915501820F911D95950C
:10296000879595958795888F298D30E0C901880FC7
:10297000991F820F931F810F911D959587959595AE
:102980008795898FD7CE173E08F4D4CE61E0CE016B
:1029900039D92A8D30E0C901880F991F820F931F02
:1029A00020915501820F911D959587959595879555
:1029B0008A8F2B8D30E0C901880F991F820F931FDA
:1029C000810F911D95958795959587958B8FB2CEA3
:1029D000F0905501212F4F2D6B8D8A8D38D988238A
:1029E00069F061E0CE010ED92A8D30E0C901880F6F
:1029F000991F820F931F8F0D911DD6CF212F4F2D21
:102A0000698D888D24D9882369F060E0CE01FAD8D9
:102A1000288D30E0C901880F991F820F931F8F0DF9
:102A2000911D9DCF073009F485CE7ECFE0918701BF
:102A30008CE1E89FF0011124E857FE4F808181115D
:102A400007C081E0909137029F3F19F480E008951C
:102A500081E00895CF93DF93EA98579A5F9A8EE1C9
:102A600090E00E94D4055F988EE190E00E94D4052A
:102A70005F9A8DE290E00E94D40580E30E94B80244
:102A800084E690E00E94D405C2E7D2E0FE013196D0
:102A90006491FE0184910E94AE022296F2E0C43A53
:102AA000DF07A1F783E30E94B80284E00E94D90502
:102AB00084E30E94B80285E30E94A7028D30C1F72B
:102AC000DF91CF910895FF920F931F93CF93DF93E0
:102AD000CDB7DEB76E970FB6F894DEBF0FBECDBF91
:102AE0008091F801882309F4B5C04A9B66C08FE342
:102AF0000E94A7028F7789838E31B8F08AE30E9403
:102B0000B80286E30E94B8028DE30E94B80284E313
:102B10006E960FB6F894DEBF0FBECDBFDF91CF919A
:102B20001F910F91FF900C94B8025F988FEF0E9455
:102B30004F0210E08981181708F45FC080E00E94FE
:102B40004F02F82E80E00E944F025F9A84E30E94B9
:102B5000B80285E30E94A7028D30C1F79A8186E70B
:102B600089278A830981FE01339682E021918017AB
:102B700008F44FC0802F023008F482E0E1E0F0E07A
:102B8000EC0FFD1FE80FF11D8B81822780831091D0
:102B900053011071112309F444C081E60E944806D4
:102BA00010E0E1E0F0E0EC0FFD1FE10FF11D80818E
:102BB0000E9448061F5F0117A0F785E30E94A70245
:102BC000813029F0813161F48AE30E94B80286E302
:102BD0000E94B8028DE30E94B80284E30E94B8020A
:102BE0006E960FB6F894DEBF0FBECDBFDF91CF91CA
:102BF0001F910F91FF900C94DA0380E00E944F0226
:102C0000E2E0F0E0EC0FFD1FE10FF11D80831F5F9C
:102C100091CFDF011197945292279C938F5F922F4F
:102C2000A5CF81E40E944806E1E0F0E0EC0FFD1F33
:102C3000E10FF11D80810E943E071F5F0117A0F781
:102C40008091530185FF03C08F2D0E943E070E9493
:102C5000A706B3CF6E960FB6F894DEBF0FBECDBFFA
:102C6000DF91CF911F910F91FF900895CF92DF9246
:102C7000EF92FF920F931F93CF93DF93CDB7DEB701
:102C8000A6970FB6F894DEBF0FBECDBF4DE19E01F3
:102C90002F5F3F4F7901B90101960E944207182F1B
:102CA0008150990B9C01898190E02817390709F020
:102CB00069C08091F801811104C0CCDE83E00E94DC
:102CC000D9050B818A8196E789278A834981DE01AC
:102CD000129692E09D0111968C911197941708F429
:102CE00060C0E42F423008F4E2E0EE0DFF2DF11D4C
:102CF00080278083CE0183960E941B0585E30E9476
:102D0000B80285E30E94A702833109F460C0CE01B6
:102D10004F960E941B054F8D58A169A17AA18BA1E6
:102D20009CA1ADA1BEA184179507A607B70708F01F
:102D300040C0481B590B6A0B7B0B4D3B510561058D
:102D4000710508F444C088E692E00E949A0685E383
:102D50000E94A702863149F48BE30E94B80286E301
:102D60000E94B8028DE30E94B8028091F801882386
:102D700009F455C084E30E94B80285E30E94A702CB
:102D80008D30C1F7A6960FB6F894DEBF0FBECDBF4B
:102D9000DF91CF911F910F91FF90EF90DF90CF9037
:102DA00008951196F9012081245282278C939F5F08
:102DB00091CF481759076A077B0748F484549F4FFF
:102DC000AF4FBF4F481759076A077B07BACF85E354
:102DD0000E94A702833109F091CF8AE004FF07C067
:102DE00088E70E94D90588E70E94D90588E70E94F4
:102DF000D9055F988FE70E944F0267018C2D8E19CD
:102E0000811738F05F9A85E30E94A7028331D9F3D6
:102E10009ECFF60181916F010E944F02EFCF0E9479
:102E20005C0EB0CFFC018181823729F413DE81E092
:102E30008093F8010895833719F4CF01019616CFD6
:102E40001092F80108951092360210920F0383E059
:102E500080933F028FEF809337020895DC01E0E416
:102E6000F2E0808181110EC0AB2B29F583E0E830C0
:102E7000F80719F010F0E8E0F3E0CF010895E80F4B
:102E8000F11DEFCF93E0E830F90770F71097B9F331
:102E900021819C912913F3CF228111969C91119746
:102EA000291759F3E80FF11D8081882321F093E061
:102EB000E830F90768F3E0E0F0E0DFCF94E0899FC5
:102EC000F0011124EE5EFD4F80818F3F91F08093E1
:102ED0003A02818180933B02828180933C0283810C
:102EE00080933D0221E04CE064E08AE392E00C94A0
:102EF000A00B089589E093E0B1DFDC01892B99F004
:102F0000E0913F028C91E81770F4EA0FFB2FF11D5E
:102F1000808180930B0389E780930C0381818093E8
:102F20000D0381E0089580E008950F931F93CF93E0
:102F3000DF938C018091530186FF19C084E50E94C4
:102F40004806E8010B5F1F4F89910E943E07C0179A
:102F5000D107D1F78091530185FF03C08AEF0E940A
:102F60003E07DF91CF911F910F910C94A706DF913F
:102F7000CF911F910F91089586E30E94B80280912E
:102F80000B03833579F48BE90E94D90521E04CE0ED
:102F900065E089E093E00E94A00B0E941F0389E096
:102FA00093E0C3CF8BE4F0CFE7DF80910B0389364A
:102FB00031F081E08093080389E28093370208951D
:102FC000CF9385E390E00E94DE078093390286E389
:102FD00090E00E94DE0780933802E3E2F2E0CFEF58
:102FE000C083C283C483C683C087C287C487C687A1
:102FF0002ADF1092400281E08093F901A2E1B2E061
:10300000CC93EAEFF1E08FEF9FEF918380831382FF
:103010001282158214821496CC9314979783868318
:1030200011861086138612861896CC93189795876A
:10303000848717861686118A108A1C96CC93938BE8
:10304000828B158A148A178A168ACF9108957F92E7
:103050008F929F92AF92BF92CF92DF92EF92FF92A8
:103060000F931F93CF93DF93CDB7DEB72B970FB698
:10307000F894DEBF0FBECDBF8C016C012FEFC21ADA
:10308000D20A45E0BE016F5F7F4FC6010E94420732
:10309000843008F0F5C09981913051F58330F9F40E
:1030A0006A8185E390E00E94D9076B8186E390E016
:1030B0000E94D90785DF2B960FB6F894DEBF0FBEAE
:1030C000CDBFDF91CF911F910F91FF90EF90DF90D7
:1030D000CF90BF90AF909F908F907F9008958091F8
:1030E00039020E943E07809138020E943E0735C097
:1030F000923009F051C0EE24E394813031F081E048
:103100009A81913009F080E0E82E8091400281118F
:1031100004C084EA92E00E949A0600E412E015C01E
:1031200082E00034180719F080E20E944806F80196
:1031300081810E943E07F80182810E943E07E110D2
:103140000FC0F8018081080F111DF80180818823CC
:1031500021F0F3E008301F0718F30E94A706ABCF59
:103160008AE30E94480683E0F82EF8018081F81671
:1031700040F7F3E0FF1629F0F0FE03C08CE20E9456
:103180004806DD24D394DF0CF801EF0DF11D80819A
:103190000E943E07FD2CE9CF933049F480E090E097
:1031A0005DDE8054924098EC981B892F9ECF903121
:1031B00049F503E212E0E12CF12CF80180818F3F08
:1031C000A1F0FF2019F080E20E9448068E2D0E9497
:1031D0003E078AE30E944806F80180810E943E076C
:1031E000F80181810E943E07F3940E5F1F4FE39424
:1031F000F8E0EF12E2CF82EB92E0F110AECF0E9446
:103200009A06ABCF913151F4809133029091340200
:103210006DE770E00E946D38862F67CF923109F01C
:103220009CCF02E112E0E12CF12CF80180818F3F6C
:10323000E1F0FF2019F080E20E9448068E2D0E94E6
:103240003E078AE30E944806F80180810E943E07FB
:10325000F80181810E943E07F80182810E943E07A9
:10326000F80183810E943E07F3940C5F1F4FE394A3
:10327000F4E0EF12DACFF11070CF8EEA92E0BFCF18
:103280007E0127E0E20EF11C44E0B701C6010E9476
:1032900042074F81493608F496C06A855885E2E1B5
:1032A000F2E020E030E080E090E06C3009F06FC0A8
:1032B00080E090E020E030E06081461336C071810C
:1032C000751333C0A2817985A7132FC08E5E9D4FE1
:1032D0004CE0FC014383C901880F991F820F931FA3
:1032E000FC01EE0FFF1FE650FE4F11821082880F87
:1032F000991FFC01E450FE4F1182108222E04CE045
:1033000064E0C7010E94A00B8FE08A8722E04CE0B6
:1033100064E0C7010E94A00B82E08A8722E04CE0B3
:1033200064E0C7010E94A00BC6CE6F3FF9F4FC0118
:10333000EE5EFD4F40835183898582838CE08383D9
:10334000C901880F991F820F931FFC01EE0FFF1F09
:10335000E650FE4F11821082880F991FFC01E45045
:10336000FE4F118210821092F901C8CF2F5F3F4F9C
:10337000349604962430310509F09ECF9CCE0196F8
:1033800034962C5F3F4F8430910509F494CE7081C0
:103390004713F5CF71817513F2CFA2817985A713F9
:1033A000EECF2E5E3D4FF9016383FC01EE0FFF1F50
:1033B000E80FF91FEE0FFF1FE450FE4F81E090E091
:1033C0009183808378CEE98120913902E217C0F1A0
:1033D000822F90E007964E2F50E08417950784F1D6
:1033E0009A818091380298132BC09C819F3231F4CE
:1033F00042E06CE0C8010E94370C5DCE8D819C32AA
:10340000B9F48093220221E030E03093340220931B
:103410003302F4E08F9FC001112420914C013091C0
:103420004D01820F931F90934D0180934C0143CE29
:10343000E21BEE0FF0E0ED5DFD4F908381833BCE0C
:1034400080E090E00BDD7C01F60101900020E9F7BF
:103450003197EC19FD09F695E7957E2EDD24D3947E
:10346000DE0EC7018D0D911D80549240893C91055F
:103470002CF088EA92E00E949A061DCEF701D082D5
:103480005701CC24C3948C2D880F8150CD1480F02B
:10349000F8E0EF16F3E0FF0608F00DCE2FEFED2D6C
:1034A000721201C0E1E0EE0DFF2DF11D108203CE7E
:1034B0004501FFEF8F1A9F0A41E0B401800F912F61
:1034C000911D0E94420722E02C1548F4C0FC07C061
:1034D000F5018081843619F4818180933502C3948B
:1034E0005401D1CF0F931F93CF93DF939091F901A4
:1034F00091114AC0282F30E0E901CC0FDD1FC20F27
:10350000D31FDE01AA0FBB1FA650BE4F220F331FD1
:10351000220F331FF901EE5EFD4F9281977040E854
:1035200050E0491B51099AEF949F9001959F300DEF
:10353000112435952795359527952D933C938E012C
:10354000000F111F02501E4FF801208131812F5FA3
:103550003F4F31832083CC0FDD1FC450DE4F4881A5
:1035600059814115510541F42430310569F4A6DC37
:10357000F8011182108208C04130510551F49EDCDF
:1035800082E090E099838883DF91CF911F910F9122
:10359000089542305105C1F791DC19821882E8CFB5
:1035A000EF92FF920F931F93CF93DF9300D000D041
:1035B00000D0CDB7DEB7809138028A831B8290910C
:1035C0002202992309F445C0933009F03FC087E7F0
:1035D00091E0909334028093330283E2E82E82E0FC
:1035E000F82E10E00CE2F70120812F3FA1F080912E
:1035F000220290913902910F9983882399F10C83CB
:103600008D8321E04CE065E0CE0101960E94A00B85
:10361000CE0101968ADC1F5FF2E0EF0EF11C18303C
:1036200011F780912202882321F08330F1F4109267
:1036300022020F900F900F900F900F900F90DF913C
:10364000CF911F910F91FF90EF9008958DE790E03B
:10365000C0CF87708A512DE7829FC00111249595B4
:103660008795B7CF2C838181CBCF82508093220264
:10367000E0CF80910803882351F07EDC89E28093BB
:103680003702809108038150809308030895DBCBB3
:10369000FF920F931F93CF93DF93FC01F080D181B2
:1036A000C281138104818FE5809337021092080351
:1036B0008091390290913802892B882351F18091B1
:1036C00009038F1104C080910A038D1729F0BBDB19
:1036D000F0920903D0930A03D0913602DF3FC9F07C
:1036E000C0930B0310930C0300930D03CC2381F1C3
:1036F000D11124C080913902801789F0043679F005
:103700008DEA8C0F823010F0CD3759F48FEF809313
:103710003602DF91CF911F910F91FF900895C4352C
:10372000C1F3812F807F8036A1F7106710930C03BF
:10373000DF91CF911F910F91FF9036CCDBDB809111
:103740000F03882399F08335D9F08C17F1F008C066
:10375000D1DB8D2B8823E9F280910F03882331F090
:10376000DF91CF911F910F91FF906DCBED2FF0E086
:10377000EA54FD4FE491E335F9F0CE1719F1F0CF9B
:10378000C435C1F4DE5FD093360280913F028E5F74
:1037900080933F02AFDB882309F44DC080910B0377
:1037A00080930F03843609F0C3CF80913502809354
:1037B0000D03BECFC335CACFC43509F03AC0DE5FB2
:1037C000D093360280913602E82FF0E0E954FD4FA5
:1037D00014911F3F19F310930B0397E790930C0379
:1037E0009091390290930D038E5F80933602109270
:1037F0000F038E30D1F489E093E030DBDC01892BBC
:1038000099F02C9130E088E093E0821B930BED015E
:10381000C817D907B0F08A179B07C8F08A1B9B0B03
:103820008A0F9B1FFC0110820EDB112309F471CF5C
:103830007FCFC335A3CF809136028E5F809336024F
:10384000C1CFFE01E20FF31F40814993E1CF80E039
:1038500090E0E6CFFF920F931F93CF93DF93EC019D
:10386000FC0101900020E9F731978F01081B190B2B
:103870008981823779F487E390E00E94BC020E943C
:103880001F0381E080931003DF91CF911F910F916F
:10389000FF900895833731F5F02E5F988FE70E94EF
:1038A0004F028EEF800F0E944F02229612E01F15EA
:1038B00080F05F9A0E940D038AE30E94A7028F772F
:1038C00081110CC0DF91CF911F910F91FF900C944B
:1038D0001F0389910E944F021F5FE9CF81E00E9480
:1038E000D905EACF10921003CFCFCF92DF92EF929B
:1038F000FF920F931F93CF93DF93CDB7DEB7C054E2
:10390000D1090FB6F894DEBF0FBECDBF8091100372
:10391000882311F1813081F5809144019091450116
:10392000A0914601B0914701209111032817A1F001
:1039300085E30E94A702813129F48AE30E94B8023C
:103940000E941F038091440190914501A09146017E
:10395000B091470180931103C05CDF4F0FB6F8941C
:10396000DEBF0FBECDBFDF91CF911F910F91FF90B2
:10397000EF90DF90CF9008958FE30E94A702F82E7A
:103980008FE38F15D0F05F988FEF0E944F028E016A
:103990000F5F1F4F6801E02E8C2D801B8F1588F064
:1039A0005F9A81E080934A01802F8E198F1580F0F5
:1039B0000E94A7068FEF80934A0181E08093100355
:1039C000CBCF80E00E944F02F60181936F01E4CFDC
:1039D000F80181918F010E944806E6CF8A9A0C94E3
:1039E000D4058A980C94D405CF92DF92EF92FF927F
:1039F0000F931F93CF93DF9300D000D000D00F928E
:103A0000CDB7DEB795E7998311E0882389F0BE0131
:103A10006E5F7F4F809158030E94C707BE016C5FA5
:103A20007F4F809159030E94C70785E58E8316E07A
:103A30000E9493030E940D0306E080E891E0CEDF30
:103A400080E093E0CEDF01500111F7CF80E093E0FA
:103A5000C5DF80E891E0C5DF80E891E0BFDF8A98AC
:103A600087E390E00E94BC0283E00E94D9055F9842
:103A70008FE70E944F0280911403810F0E944F0232
:103A8000CE0101966C017C01F70181917F010E94BA
:103A90004F028E2D8C198117B8F380911403811178
:103AA00022C05F9A0E940D0382E193E00E94750A92
:103AB00015E18AE30E94A7028F77882319F011503D
:103AC000111118C00E945C0E27960FB6F894DEBF45
:103AD0000FBECDBFDF91CF911F910F91FF90EF905F
:103AE000DF90CF90089582E193E00E94910A0E94B6
:103AF0004F02D3CF81E00E94D905DBCFCF93DF9374
:103B0000EC01898181110CC0809159030E943E070C
:103B1000809158030E943E07DF91CF910C94A70635
:103B20008936E1F441E069E573E0CE0102960E9436
:103B300042076091590380E690E00E94D90741E076
:103B400068E573E0CE0104960E9442076091580335
:103B500081E690E0DF91CF910C94D90782E193E068
:103B60000E94750A21966991611104C080E0DF917D
:103B7000CF913ACF82E193E00E947A0AF4CFCF92BC
:103B8000DF92EF92FF920F931F93CF93DF930F92E9
:103B9000CDB7DEB780915A038823A9F0C0904401C5
:103BA000D0904501E0904601F0904701833009F044
:103BB0006CC08FE30E94A702182F863070F40E9419
:103BC0005C0E10925A030F90DF91CF911F910F91CD
:103BD000FF90EF90DF90CF9008958BE593E00E94E7
:103BE000750A5F988FEF0E944F0280E00E944F029B
:103BF000082F115080E00E944F02682F8BE593E060
:103C00000E947A0A11501111F5CF5F9A0E945C0E42
:103C100010925A030537B9F641E0BE016F5F7F4F3E
:103C20008EE593E00E944207019751F599818091BA
:103C30005903981325C080915D03909162039535D7
:103C4000C1F0845080935D0384E080935C036AE05C
:103C50008BE593E00E947A0AE091E303F091E4039C
:103C600088E00995B0CF8BE593E00E94910A0E940D
:103C7000480680915D038111F6CF0E94A706A3CF6D
:103C80008BE593E00E94750A9ECF823041F48091CB
:103C900057039C2D981B983008F495CF90CF813016
:103CA00009F091CF87E390E00E94BC020E941F03BD
:103CB00082E080935A03C092570385CF0E94161565
:103CC000882319F083E08093550380915503815038
:103CD00080935503882321F083E080935603089551
:103CE00081E082CE0F931F93CF93DF93EC0100E02E
:103CF000802F90E09C01220F331F280F391FF901FC
:103D0000E856FF4F1491812FF901E756FF4F259197
:103D10003491112389F0209741F480E20E944806F3
:103D2000812F0E9448060F5FE3CF98819113FBCF4C
:103D3000CE01F901099581E0DF91CF911F910F919B
:103D40000895CF93C0914A0180934A0180915D0309
:103D5000811104C0C0934A01CF9108958BE593E08F
:103D60000E94910A2091E5033091E6038A3011F018
:103D70008D3011F52115310549F329513C4FF901D9
:103D8000108287EE93E0AEDF811111C08CED92E0DE
:103D90000E949A0687EE93E00E948F0684EC92E0E0
:103DA0000E949A0680E090E09DDF0E94A706109294
:103DB000E6031092E503CACF2034310538F6A90195
:103DC0004F5F5F4F5093E6034093E50329513C4F0B
:103DD000F9018083BBCFE4E6F0E080818B7F8083B4
:103DE000299A84B1876084B9239880E58CBD8DB50C
:103DF00081608DBD08950F931F93CF93DF93EC01E6
:103E00008C010A5F1F4F89910E943E070C171D0706
:103E100021F08AE30E944806F6CFDF91CF911F91EF
:103E20000F910895EF92FF920F931F93CF93DF931B
:103E3000FC01EB01E080F180FE24EF24FE240281EE
:103E400013811027012710276F2DCE010E94D9075B
:103E50006E2DCE0101960E94D907612FCE010296E8
:103E60000E94D907602FCE010396DF91CF911F9159
:103E70000F91FF90EF900C94D907AF92BF92CF9221
:103E8000DF92EF92FF920F931F93CF93DF93CDB703
:103E9000DEB765970FB6F894DEBF0FBECDBF89E6DB
:103EA0008A8384E68B837E0184E0E80EF11C66E25F
:103EB00073E0C7010E94F4398E010F5F1F4FC801E4
:103EC0000E948D0881E68B8368E173E0C7010E9440
:103ED000F439C8010E948D088EE68B836AE073E096
:103EE000C7010E94F439C8010E948D0887E68B83C0
:103EF0006EEF72E0C7010E94F439C8010E948D087C
:103F000080E78B8369EF72E0C7010E94F439C80132
:103F10000E948D088EE48B8361EF72E0C7010E94DE
:103F2000F439C8010E948D088FE68B836EEE72E033
:103F3000C7010E94F439C8010E948D088AEF9FE0F2
:103F40000E94DE0757016801843A09F043C08BEFF5
:103F50009FE00E94DE078035E9F58CEF9FE00E942C
:103F6000DE078535B9F58DE68B8367EE72E0C70114
:103F70000E94F4398DEF9FE00E94DE07BE01665F6C
:103F80007F4F0E94C7078EEF9FE00E94DE07BE01B1
:103F9000645F7F4F0E94C7078FEF9FE00E94DE079C
:103FA000BE01625F7F4F0E94C707188AC8010E9446
:103FB0008D0865960FB6F894DEBF0FBECDBFDF91BA
:103FC000CF911F910F91FF90EF90DF90CF90BF9016
:103FD000AF9008958DE68B8360EE72E0C5010E947C
:103FE000F439E0E0F0E000E010E091E29093570057
:103FF0008491080F111D3196E032F105B9F7BE0129
:10400000665F7F4F80E00E94C707BE01645F7F4FFD
:10401000812F0E94C707BE01625F7F4F802F0E94E1
:10402000C707188AC601C3CFFDD48DE294E00E9471
:104030002E2F892B39F18DE294E00E941A2F86E70A
:1040400094E090938E0680938D0682E049D680910D
:10405000920690919306892B19F00E94282EAED4D7
:1040600083E494E0909373048093720485E038D6DF
:104070008091920690919306892B19F00E94282E28
:104080009DD40CD589E294E00E942E2F892B31F02B
:1040900089E294E00E941A2F0C945F2D0895CF922C
:1040A000DF92EF92FF920F931F93CF93DF937C01E8
:1040B000EB01CB010E94DE076E018FEFC81AD80A10
:1040C000C6010E94DE07082FCE010E94DE07182FCE
:1040D000C6010E94DE07902F812FF7019183808314
:1040E0006E01F2E0CF0ED11CC6010E94DE072396BE
:1040F000CE010E94DE07082FC6010E94DE07182F9E
:10410000CE010E94DE07902F812FF70193838283D7
:10411000DF91CF911F910F91FF90EF90DF90CF90A3
:104120000895CF93DF9300D000D0CDB7DEB769E616
:1041300070E0CE010196B3DFE4E8FCE089819A816A
:10414000918380838B819C819383828361E770E07C
:10415000CE010196A4DFE0E8FCE089819A81918399
:1041600080838B819C81938382836DE670E0CE0196
:10417000019695DFECE7FCE089819A819183808349
:104180008B819C819383828386E794E048D452D1CB
:104190000F900F900F900F90DF91CF910C949C3166
:1041A000269A2E9888EC0E94D9052E9A88EC0E94B7
:1041B000D9051DD482E690E00E94DE078093320488
:1041C00083E690E00E94DE078093330484E690E06B
:1041D0000E94DE078093340485E690E00E94DE07AB
:1041E0008093350486E690E00E94DE0780933604D3
:1041F00087E690E00E94DE078093370482E394E034
:10420000F7D3809132048093760C809133048093AD
:10421000770C809134048093780C809135048093DE
:10422000790C8091360480937A0C809137048093C6
:104230007B0CF0D410921A0D1092190D6FE170E002
:104240008DE294E00E940E2F62EE74E089E294E029
:104250000E940E2F88E690E00E94DE07882351F02E
:1042600086EA94E0DCD382E394E00E946531109208
:104270003104089582E08093310453CF0F931F934C
:10428000CF93DF93FC018181893629F4DF91CF91AF
:104290001F910F9185CF8336E9F4C4E8DCE008E88C
:1042A0001CE0899140E261E090E00E94AB060C17AF
:1042B0001D0761F480E20E94480686E79CE09BDDD2
:1042C000DF91CF911F910F910C94A7068EE20E946F
:1042D0004806E7CF843649F4809128048F5F8370C5
:1042E000809328040E943E07EBCF8E3631F4DF9195
:1042F000CF911F910F910C94DF33DF91CF911F91DC
:104300000F910895CF93DF93EC01009719F4DF919B
:10431000CF9107CF69E670E0469684DD8E899F894C
:104320009093850C8093840C888D998D9093870C45
:104330008093860C61E770E0CE01829673DD8AA1DE
:104340009BA19093810C8093800C8CA19DA1909354
:10435000830C8093820C6DE670E0CE014A9662DD9C
:104360008A8D9B8D90937D0C80937C0C8C8D9D8D84
:1043700090937F0C80937E0CEB81FC8115821482DC
:1043800086E794E04CD356D0DF91CF910C949C31CA
:10439000E0918D06F0918E062481358180913A045A
:1043A00090913B042817390709F469C0089580915A
:1043B0003104823029F00E94433080933104089503
:1043C000E0917204F0917304309759F080918F0658
:1043D00081FF07C08481958181159B4711F40C945E
:1043E000173408951F93CF93DF93C0918D06D0911A
:1043F0008E068091A003811104C0DF91CF911F919F
:10440000089589A18A3F49F482E06AD40E94282E47
:10441000D5D282E00E94D90507DE19A181E0810F83
:1044200089A38EE993E00E94910AFE01E10FF11D3C
:1044300082A3DFCF89E790E00E94273A9827892757
:10444000982790933B0480933A0439D4109239040E
:10445000109238040895909197049A3F30F4E92F10
:10446000F0E0EA58FB4F82A39F5F90939704089572
:10447000E0918D06F0918E0682E0848F0895DF92A0
:10448000EF92FF920F931F93CF93DF93C0918D060E
:10449000D0918E0680918F0686FF1BC019A281E005
:1044A0008C8F80913804909139049C012F5F3F4F8D
:1044B0003093390420933804892B29F480914A01E0
:1044C000846080934A0166EA7EE0CE014D960E94A8
:1044D0000E2F8C8D8230E9F481E08C8F80E1809307
:1044E0008F06809138049091390401979093390494
:1044F00080933804892B29F480914A018B7F809323
:104500004A01DF91CF911F910F91FF90EF90DF90C3
:10451000089580918F06982F9073911102C087FFA4
:104520000AC0E0918D06F0918E0611A2DF01A45E13
:10453000BE4F1C92148E81FF2DC0E0909206F09029
:104540009306E114F10431F122EF31E23093E203FA
:104550002093E1030091960610919706E00EF11E5C
:10456000F80161918F018BE593E00E947A0A8091B6
:104570005D03803431F4E091E303F091E40384E0DF
:1045800009950E151F0561F7E091E303F091E4032F
:1045900084E0099580918F0682FD37C08B74882353
:1045A00009F457C000918D0610918E06F80141A1C3
:1045B000442309F44EC07801F2E2EF0EF11C50E002
:1045C000B70180919606909197060E94083AF801EB
:1045D00061A170E080919606909197060E94BD2C93
:1045E000C8014D960E94242FF801D1A04D2D50E016
:1045F000B701C801835E9E4F0E94083AF801E45E4D
:10460000FE4FD082F80111A224C000918D061091B6
:104610008E067801F4EEEF1AFEEFFF0AF7014081F3
:104620004423B9F050E0B801635E7E4F8091960656
:10463000909197060E94083AF701608170E080919E
:104640009606909197060E94BD2CC8014D960E9437
:10465000242F8C8D813009F054CF6D96CE010E94AD
:104660002E2F892B09F44DCFCE010E941A2FC09115
:104670004A0184E080934A018EE291E00E94D809C9
:10468000C0934A013ECF2898962F9F71892B8EBDEB
:104690000DB407FEFDCF1EBC0DB407FEFDCF67FFB6
:1046A00004C01EBC0DB407FEFDCF8EB5289A089538
:1046B00028986F71862B8EBD0DB407FEFDCF4EBDC1
:1046C0000DB407FEFDCF289A08959C01CB012898D0
:1046D0004AE34EBD0DB407FEFDCF280F391F8217E8
:1046E000930711F4289A08951EBC0DB407FEFDCF60
:1046F0004EB5FC014193CF01F2CF9C01CB0128982C
:104700004AE74EBD0DB407FEFDCF280F391F8217B3
:10471000930711F4289A0895FC014191CF014EBDF1
:104720000DB407FEFDCFF3CFCF93DF93C82FD82F63
:10473000D07680913E048D1789F043E06FE180EAE6
:10474000B7DF4C2F50E085E0559547958A95E1F706
:1047500043706FE180E8ACDFD0933E04DF91CF91EE
:104760000895CF93C82FE0DF6C2F80E0CF918BCFDF
:10477000CF93DF93C82FD62FD7DF4D2F6C2F80E438
:10478000DF91CF9195CFCF93DF93D62FC72F682F8F
:1047900084EDEEDF6D2F86EDEBDF6C2F87EDE8DF2C
:1047A0008AEEDFDF80FDFCCFDF91CF910895209A64
:1047B000289A299A219A2398229A209A8CB5806166
:1047C0008CBD8CB5877F8CBD8CB58F7D8CBD8CB539
:1047D0008E7F8CBD8CB58D7F8CBD8DB581608DBD80
:1047E0008CB580648CBD4FEF60E08FEF61DF82E3BA
:1047F00090E00E94D4058DE1B4DF80FFFCCF80E023
:1048000096E090933D0480933C0460E088E0B0DF44
:1048100066E089E0ADDF60E08CE0AADF66E08DE075
:10482000A7DF6FEF8AE0A4DF6FE18BE0A1DF60E03C
:1048300084E09EDF60E085E09BDF6DE080EC98DF48
:1048400060E081EC95DF42E362EC80E831DF62E119
:1048500086EC8EDF6CE087EC8BDF62E184EC88DF36
:104860006EEE8AEC85DF65E08BEC82DF60E071E064
:1048700080E189DF8FE158DF40EC6BE180E818DFF1
:1048800044E06FE180E814CFCF92DF92EF92FF9285
:104890000F931F93CF93DF938C016B01EA01790192
:1048A00040E86FE180E804DF40E86FE180EA00DF84
:1048B00060E082E05DDF60E083E05ADF6C2F600F34
:1048C00086E056DFC8018C0F9D1F692F87E050DFFF
:1048D00040E060E08AE7ECDEB601C8010EDF209719
:1048E00019F0B701CE0109DF48E06FE180E8DF9100
:1048F000CF911F910F91FF90EF90DF90CF90D8CE86
:10490000EF92FF920F931F93CF93DF938C017B0164
:1049100089E327DFC0E0D0E0882309F442C060913A
:104920003C0480E025DF60913D0481E021DF60E010
:104930008AE3A9DE90E090933D0480933C0460E01C
:104940008AE3A1DE20913C0430913D04382B309362
:104950003D0420933C0460E08AE395DEC82FD0E05C
:1049600060E08AE390DED82B60E08AE38CDE60E0D2
:104970008AE389DECF3E85E0D80798F40C171D073F
:1049800008F4E801B701CE01A0DE60913C048CE0A0
:10499000EFDE60913D048DE0EBDE40E46EE180E807
:1049A00087DECE01DF91CF911F910F91FF90EF90A5
:1049B000089568E976E08CED95E0A2CF80919206AB
:1049C0009091930620E030E040E050E068E976E026
:1049D0008733910558F02091960630919706AC01E7
:1049E0004653510968E976E086E390E04DCFDFCE8B
:1049F000CF93DF93EC01688184EEBADE698185EEA6
:104A0000B7DE6A8182EEB4DE6B8183EEB1DE6C814B
:104A100080EEAEDE6D8181EEDF91CF91A9CEBC013B
:104A200084E1B1CECF93DF93C4DF9C0190939306D2
:104A300080939206892B79F12F3E354018F0DF9153
:104A4000CF91AECBC091A406D091A50680E098E0AE
:104A500090D7C817D90769F481E042D180919206B6
:104A600090919306892BB9F00E94282EDF91CF9167
:104A7000A5CFC091A406D091A50686E098E079D78D
:104A8000C817D90741F40E94882D80919206909111
:104A90009306892B59F7DF91CF9108950895CF930D
:104AA000DF93DB019A01FA013197E60FF71FAB01A3
:104AB000EA014E175F07D8F0AD01415051092E7F32
:104AC000E417F50710F420E030E02A0F3B1F2E1703
:104AD0003F0751F4208130E0322F2227820F931FAD
:104AE0008217930708F40196DF91CF9108954E5FE6
:104AF0005F4F68817981762767277627860F971F12
:104B000086179707A8F60196D3CFFC019B01438136
:104B1000460F40934204A72FBB278281830F8093C7
:104B20004104918190934004608160933F0450E080
:104B30003327E82FF0E0EA17FB0780F49F5F90939C
:104B40004004992339F042175307C0F48F5F8093D4
:104B5000410408956F5F60933F04F5CF42175307F8
:104B600068F48F5F80934104811108C09F5F909328
:104B70004004911103C06F5F60933F040895BC012E
:104B800080918D0690918E060896BFDFE0918D068C
:104B9000F0918E06AFE3B4E08C91808711968C91F2
:104BA0001197818712968C911297828713968C9118
:104BB0008387089544E150E066EA76E080E090E083
:104BC0006EDF9C01009719F0982F832F08958FEFC7
:104BD0009FEF0895CF93DF93C091A806D091A906C7
:104BE000DC27CD27DC2748E050E062EB76E0CE0101
:104BF0000E9755DFAE01445151096AEB76E04FDF65
:104C00009C01982F832F232B11F48FEF9FEFDF91BF
:104C1000CF910895109275041092740410928F042D
:104C200081E080938A0C1092480410924704089502
:104C3000FC0180918B0C90918C0C40914704509119
:104C40004804019681152DE7920710F080E090E16D
:104C5000382F292F42175307A1F390938C0C809380
:104C60008B0C452BC9F410928A0C30934804209386
:104C700047046093490470934A04309799F4E3E43D
:104C8000F4E084E0DF011D928A95E9F780E48093E7
:104C90004B0483E494E0089581E080938A0C80E0E3
:104CA00090E008958081918190934404809343041F
:104CB000828193819093460480934504E7CF2091AD
:104CC000740430917504232B39F410928A0C80936C
:104CD000740490937504089581E080938A0C08957C
:104CE000CF92DF92EF92FF921F93CF93DF93C09109
:104CF0008D06D0918E06843009F457C12EEC36E033
:104D00003093970620939606309395062093940649
:104D10008330C1F4898D8F70833009F043C0888956
:104D20009989892B09F03EC088E080938F0630DB9B
:104D300080918F0685FF7EC5109291061092900695
:104D4000198E51C0823009F00AC18091900C8F5F9A
:104D50008093900C811113C080918F0C8F5F809392
:104D60008F0C81110CC080918E0C8F5F80938E0C04
:104D7000811105C080918D0C8F5F80938D0C1092F6
:104D80009306109292061092910610929006898DC9
:104D9000982F9D7F953059F48A8D8F5F8A8F883741
:104DA00009F4198E10929306109292061BC3882361
:104DB000C9F328893989232B09F4CEC09A8D2FEFA6
:104DC000290F2A8F9111EECF9B8D983039F02FEF5C
:104DD000280F223008F085C0953079F4198E80E8CC
:104DE00080938F06D5DA84E18093C70688E290E04D
:104DF0009093930680939206A4C0392F953008F0C3
:104E000034E023E001C0220F3A95EAF72A8F9F5F32
:104E10009B8F843008F097C0813021F682E1809327
:104E2000C70682E08093CE0684E08093CF0685E0BB
:104E30008093D00686EA8093D1068CE290E090932E
:104E400093068093920680E68093C60688858093B9
:104E5000C20689858093C3068A858093C4068B85A4
:104E60008093C5068C858093BE068D858093BF0692
:104E70008E858093C0068F858093C10686E08093DF
:104E8000AF068C819D819093BB068093BA068E817C
:104E90009F819093BD068093BC068091840C909175
:104EA000850C9093B3068093B2068091860C909106
:104EB000870C9093B5068093B4068881998190936E
:104EC000B7068093B6068A819B819093B90680933A
:104ED000B806898D84FF46C51092C9061092C8068F
:104EE0001DC3392F953008F034E023E001C0220FB4
:104EF0003A95EAF72A8F9F5F9B8F8F70833009F076
:104F000088CF84E080938F0643DA80919406909155
:104F100095069093970680939606809190069091BF
:104F20009106892B09F4B9C488899989009709F4F5
:104F3000B4C4889628E190939306809392062093B8
:104F4000C70680E581CF982F9D7F943019F0883077
:104F500009F028CF81E148CF8F708330E3CE8530D0
:104F600009F0A1C0E0917204F091730484819581ED
:104F7000892B09F417CF10928E0610928D0682ECC1
:104F800096E090939706809396069093950680936B
:104F90009406109291061092900610929306109229
:104FA000920688E080938F0602DA809190069091B5
:104FB0009106009709F4F6CE9C01245E3F4F309392
:104FC0009306209392063227232732273093A9068F
:104FD0002093A806E0917204F09173042085209339
:104FE000AE0621E12093AF060896982789279827D7
:104FF0009093BF068093BE061092C1061092C00621
:10500000848195819093BB068093BA0686819781AF
:105010009093BD068093BC068091840C9091850C82
:105020009093B3068093B2068091860C9091870C82
:105030009093B5068093B406808191819093B706D2
:105040008093B606828193819093B9068093B806C7
:105050008EEC96E0909397068093960685E4809375
:10506000A6061092A7061092AD061092AC0680918B
:10507000910C9091920C01969093920C8093910CCC
:105080009827892798279093AB068093AA061092B9
:10509000B1061092B0068EDD809590959093B10682
:1050A0008093B0069FC18091A606853409F07ACE20
:1050B000C091A806D091A906DC27CD27DC278091D6
:1050C0009206909193068C179D0708F46BCED093AF
:1050D0009306C09392068091AC068F731091AD0633
:1050E000182B11115FCEC090840CD090850CE090ED
:1050F000860CF090870CC6018E299F29892B81F0A0
:105100008091B6069091B706C816D90609F04ACE26
:105110008091B8069091B906E816F90609F042CEDA
:1051200049DD019609F03ECE8091AF06863009F048
:10513000C9C050DD019609F035CE80918F04909161
:10514000C706882369F14091BC065091BD062091A5
:105150007A0430917B044217530711F54091BA0647
:105160005091BB0620917C0430917D044217530777
:10517000B9F44091B2065091B30620917604309173
:1051800077044217530761F44091B4065091B50675
:1051900020917804309179044217530709F43DC1F6
:1051A000292F2F73223009F04DC15091BC06409138
:1051B000BD065093880C4093890C609174047091E3
:1051C0007504252F342F2617370709F038C18111B0
:1051D000C3C180938A0C86E794E090938E068093F7
:1051E0008D0683E08093900480938E0410928C044B
:1051F00084E080938D041092910430937B0420937B
:105200007A048091BA069091BB0690937D048093B6
:105210007C048091B2069091B306909377048093BA
:1052200076048091B4069091B506909379048093AA
:10523000780481E080938F0480918D0C80938204A8
:1052400080918E0C8093830480918F0C80938404D2
:105250008091900C8093850481E090E09093870486
:10526000809386048091C106809381048091C0065A
:10527000809380048091BF0680937F048091BE0656
:1052800080937E0481E090E07ADC8091C606982FBE
:10529000907F9135A0F082958F708550990B880F83
:1052A000991F880F991FE12FF0E0E817F9072CF4F8
:1052B000E856F94F36A9311157C110938A0CC6E749
:1052C000D4E0ACCD813109F05EC06C97D0939306E9
:1052D000C093920683E494E09093730480937204E5
:1052E0002091BC063091BD064091BA065091BB0694
:1052F0006091B2067091B306A091B406B091B50664
:10530000E0917204F091730484E0E237F80708F04A
:1053100049CD84819581009709F479C0821793075C
:1053200009F075C086819781009721F08417950751
:1053300009F06DC080819181009709F05FC0C28142
:10534000D381CD2B51F08617970709F060C0828179
:105350009381A817B90709F05AC010928E061092CF
:105360008D0682E080938F0682EC96E090939706FC
:1053700080939606909395068093940610929106DA
:105380001092900611CE813009F00CCD8091BA06B2
:10539000883009F007CD1092BA068091BC06909132
:1053A000BD06873FCFEF9C0738F109969093BD0665
:1053B0008093BC068091B2069091B3069093B70695
:1053C0008093B6068091B4069091B5069093B90685
:1053D0008093B806D092B306C092B206F092B5069A
:1053E000E092B40610928F06DF91CF911F91FF904B
:1053F000EF90DF90CF9008950896D8CF8F3F980711
:1054000009F0A1CFC281D381CF3FDF4F9BCFBF96A1
:10541000F0937304E093720473CF26E734E0309383
:105420008E0620938D0610928F0692FFC2C01092B6
:105430008F0480E280938F060E94C821B3CC81E064
:1054400080938A0C92FDAECC84E18093C70688E2FB
:1054500090E0909393068093920680E58093C60631
:105460003091C1068091C5068093C1062091C00687
:105470008091C4068093C0062093C4069091BF0615
:105480008091C3068093BF069093C3068091BE06A9
:1054900080938A0C4091C2064093BE068093C20658
:1054A0003F5F3093C50631110DC02F5F2093C406B6
:1054B000211108C09F5F9093C306911103C08F5FB5
:1054C0008093C2068091BA069091BB069093890C96
:1054D0008093880C2091BC063091BD063093BB06AA
:1054E0002093BA069093BD068093BC068091B206C5
:1054F0009091B3069093B7068093B6068091B40658
:105500009091B5069093B9068093B806D092B306F1
:10551000C092B206F092B506E092B40680E48093A1
:10552000AE06809192069091930698278927982736
:105530009093A9068093A8061092CD061092CC06EF
:105540001092CB061092CA0645DB809590959093F9
:10555000CB068093CA0682CD873021F081E080930C
:105560008A0C20CC81E035CE313011F41F5F9BCE08
:1055700027A93230C9F42430B9F410938A0C90ADC5
:1055800081AD9093890C8093880C873AC5E09C0785
:1055900010F086EA95E090938904809388049093B4
:1055A0008B0480938A048BCE222309F486CE120FBB
:1055B0007ACE2091C60622952F70220F220F2093BB
:1055C0008A0C6497C21BD109D0939306C0939206AC
:1055D0008F70823021F4892F8F738231F1F0CD2BBF
:1055E00021F4892F83708823C1F02091BE06809119
:1055F0007E04281383C12091BF0680917F04281365
:105600007DC12091C00680918004281377C120912C
:10561000C10680918104281371C194FF58C0609124
:105620008604709187046115710509F450C082E801
:1056300094E06BDA80913F043091C206381347C082
:10564000809140042091C306281341C080914104F9
:105650009091C40698133BC0409142048091C506C6
:10566000841335C030938204209383049093840480
:10567000809385048091910481111EC080918C04D7
:1056800020918E0490919004291B982F96959695C1
:105690009695291B820F80938C0490918D04392F4D
:1056A00036953695931B920F90938D04869586952B
:1056B0008695890F80938E0481E080938F06809178
:1056C0008E04809390041092870410928604209197
:1056D0008F04E22FEF70E150E83008F063CBF0E088
:1056E000E45BF54C0C94A33880918F0680FF5ACB75
:1056F00083E080938F0480E480938F061092870468
:10570000109286048091920690919306009721F062
:1057100022E420938F0633DA1092910610929006BD
:105720000E94C821C6E7D4E003CB8091C70680FF62
:105730002EC024FD2CC08091860490918704892B73
:1057400009F030CB8091920690919306019617DA7A
:1057500080918F06982F906190938F0620919206EA
:1057600030919306232B19F0826180938F060E945B
:10577000C82181E090E0909387048093860488E0BC
:1057800080938F0410929104C6E7D4E0E3CB85FFA9
:105790001BC040919206509193068091CC06909147
:1057A000CD069827892798276091960670919706CD
:1057B000680F791F7093970660939606481B590BE4
:1057C000509393064093920640919206509193060F
:1057D0004115510549F024FD07C090918F06926054
:1057E00090938F06CA01CBD92091C8063091C90683
:1057F000522F432F5093890C4093880C80918A0438
:1058000090918B048417950710F0232B21F490932B
:10581000890C8093880C8091880C9091890C9093CE
:1058200089048093880480918F068370882309F40B
:10583000B9CA72CF84FF0CC01092910610929006E4
:1058400081E090E0998B888B84E0898F1B8E82CBDE
:10585000209190063091910621153105B9F080FF15
:1058600002C0198A188A88899989009789F48A89D7
:105870009B898217930720F490939106809390065A
:105880008091900690919106998B888B1B8E3DCBD1
:105890009093910680939006F9CF80918F0681FFB7
:1058A00081CA88E290E020E146CB80918F0680FF9C
:1058B00079CA10928F0480E1BDCD809192069091BB
:1058C0009306009709F05BD980918F0681709091C3
:1058D000C70690FF1BC08823A9F087E080938F0440
:1058E00010929004109287041092860481E090E058
:1058F00046D980E180938F060E94C82180E1C6E7E7
:10590000D4E072CA86E080938F04F0CF8823C9F078
:1059100085E080938F04109287041092860442CA17
:105920008091920690919306009709F028D9809172
:10593000C70680FF06C087E080938F041092900412
:10594000D5CF8091920690919306892BB9F62ACAF9
:1059500080918F0680FF26CA87E080938F04109283
:10596000900420CA85E08093C80686EA8093C90621
:10597000D5CD98278927982708959C01AB01161645
:10598000170674F4709391066093900680919406C4
:10599000909195068217930719F0B9010C94083A73
:1059A0000895CF93DF936091B4067091B506C091CE
:1059B000B606D091B706ABE9BCE0FD0180E090E00F
:1059C00088309105B9F5EBE9FCE080E0EF0120813A
:1059D0003181232B29F422813381232B09F458C0F0
:1059E0008F5F3B96883091F78091940C482F50E060
:1059F00090E0C0E020E01A963C911A97FA01E31B70
:105A0000F109622F70E06E177F071CF4282F231B0B
:105A1000C92F9F5F1B96983071F7C093950C209308
:105A2000930CC093960CFBE0CF9FE0011124C55668
:105A3000D34F32C0408151814115510531F122814E
:105A400033812115310509F146175707F1F42C1759
:105A50003D07D9F48093960C4BE0489F9001499FF5
:105A6000300D1124D901A156B34F86E0EEEAF6E0DD
:105A700001900D928A95E1F72556334F8091940C51
:105A8000F9018287DF91CF91089501963B9698CFD7
:105A90008093960C8091940C94E0E4EBF6E0DE01A8
:105AA00001900D929A95E1F796E0EEEAF6E0DE01BC
:105AB000149601900D929A95E1F78A87E3CF809131
:105AC000940C8F5F8093940C20E03BE090E064E0C6
:105AD0002093960C283009F40895329FF001112488
