:10000000B7C100000C949210D1C10000CFC1000014
:10001000CDC10000CBC10000C9C10000C7C10000B4
:10002000C5C10000C3C10000C1C10000BFC10000C4
:10003000BDC100000C942C10B9C10000B7C1000074
:10004000B9C30000B3C10000B1C10000AFC10000DE
:100050000C94EF290C94B729A9C10000A7C1000096
:10006000A5C10000A3C10000A1C100009FC1000004
:100070009DC100009BC1000099C1000097C1000014
:1000800095C1000093C1000091C100006D7B3262F8
:100090002E1A432003465909698F214141165AE41B
:1000A000204F3531475C094D94094B040A622E1AE2
:1000B00052A50654C92456A10757E70658BD0B653B
:1000C00061076693286C2907743C0475241378E74C
:1000D00002000000202F2000203D2000072E050DEB
:1000E000D391FF080500000C0021656A2D3B132207
:1000F000F862073F181D1CC700B0876BF8B611EAFD
:100100002A001F41000D2E2D07D3913D043200001F
:10011000060021656A55E43023B900070018146C05
:10012000070090876BF85611E92A001F4100000371
:100130000F1E2627000000030F1E25363867000318
:100140000F256740605000030F275188838100030B
:100150000F2750C8C3C2002700000000000000673E
:1001600000000000000000500000000000000081BE
:1001700000000000000000C2000000000000504C21
:100180004C310D0A00504C4C300D0A005620312ED7
:1001900036382043534D38363800202F2000203D7C
:1001A00020004C4F56460D0A00424F56460D0A009D
:1001B0004552523A4343410D0A000B08105B11F8B7
:1001C0001547191D1A1C1BC71C001DB221B623EAB6
:1001D0000007022E030D04E905CA070C0B060D21CA
:1001E0000E650F6A10C811931203153417331818CF
:1001F00019161B4321562500261129592C812D350E
:100200003EC34F4646004F464600434D4F444500CF
:10021000544D4F444500534D4F4445000454053D53
:100220001700000602000B080C000D210E6B0FD00A
:10023000105C11041206132214F80A00154421B6AA
:1002400022101818192E1ABF1B431C091DB523EACA
:10025000242A2500261F29592C812D352E09070413
:100260000800090006FF3EC2FF047605961700004D
:100270000602000B080C000D210E650F6A106A11B2
:100280004A1206132214F80A00154721B622101844
:1002900018192E1A6D1B041C091DB223EA242A25E5
:1002A00000261F29592C812D352E09070408000925
:1002B0000006FF3EC2FF4C454E4552520D0A004C0F
:1002C0004F56460D0A004C454E4552520D0A00004D
:1002D00007024604C605260B0610C8119312031325
:1002E000221534173F182819161B432156250026BE
:1002F000110D210E650F6A070C160720F81E871FC7
:100300006B29592C812D353EC3FF000D2E2D07D3AF
:10031000913D04320000060010B07155E43023B95D
:1003200000070018146C070090876BF85611E92A33
:10033000001F41004E2F4100454F420D0A004E2F35
:1003400041004E2F410000535300547D7DFFFF4B71
:100350004B7E7E0020697320756E6B6E6F776E2901
:1003600020557365206F6E65206F66003F20280062
:1003700011241FBECFEFD0E4DEBFCDBF12E0A0E05E
:10038000B1E0E0E5FBE600E00BBF02C007900D9294
:10039000A438B107D9F728E1A4E8B2E001C01D9262
:1003A000A736B207E1F703D00C94A63529CE0FB6D5
:1003B000F894A89580916000886180936000109205
:1003C00060000FBE80E890E00FB6F8948093610063
:1003D000909361000FBE3E9A469A0E944D2A9ED588
:1003E0000E945D2A0E947F2E0E94D72D89EF87BD33
:1003F00084E085BD82E084BD80936E001092800011
:100400008AE08093810084B7877F84BF88E19FE082
:100410000FB6F894A895809360000FBE909360008B
:1004200089E190E80E94242A0E9482240E94970B6E
:1004300087E699E29093F4138093F31381E080931D
:100440008D020E94441280918D02886080938D02FB
:10045000469878940E94462A0E94AE0D23D20E94AC
:10046000D9280E94C6130E94CF140E946E200E94B9
:100470009617F0CF8EBD0DB407FEFDCF8EB5089553
:10048000EF92FF920F931F93CF93C82F8A3008F0FB
:10049000C8E028E0C29FC0011124FC01E25DFE4FCC
:1004A0007F010BE210E0F7016491C8010F5F1F4F5D
:1004B0002FD4FFEFEF1AFF0A03331105A1F7C55040
:1004C00061E1C53008F067E184E290E021D4CF918A
:1004D0001F910F91FF90EF9008950F931F93CF936B
:1004E000DF9305E011E0C2E0D0E0F8016491CE01B5
:1004F00021960ED40F5F1F4FCB32D105B1F70CED13
:1005000010E0C7E3D0E0F8016491CE01219600D459
:100510000F5F1F4FC036D105B1F788E0B1DFDF9123
:10052000CF911F910F9108952C98806CA3DF80E0EC
:10053000A1DF2C9A0895CF93C62F2C9880649ADF60
:100540008C2F98DF2C9ACF9108952C9893DF2C9ABA
:1005500008950F931F93CF93DF93EC011092D80A65
:10056000E898249A2C9A8EE190E018D22C988EE18B
:1005700090E014D22C9A8DE290E010D280E3E5DF77
:1005800084E690E00BD22C9880E474DF8E01075D46
:100590001F4FCE012196C1D36DDF0C171D07C9F780
:1005A0002C9A2C988EE766DFCBE2D0E0CE01219624
:1005B000B4D360DFC333D105C9F72C9A83E3C5DF19
:1005C00081E0F1D1DF91CF911F910F910895A1E0CA
:1005D000B0E0EDEEF2E00C94E33222E0298341E05A
:1005E000BE016F5F7F4F019630D3898149DF82E082
:1005F00090E0AFDF2196E2E00C94FF32CF93E898D1
:1006000086E3A3DFCFEF85E3A0DF8077803231F090
:100610008AE090E0C3D1C150C111F5CFCF910895C8
:10062000CF93CFEF84E391DF8077803131F08AE0A0
:1006300090E0B4D1C150C111F5CFE89ACF9108959F
:10064000A2E0B0E0E6E2F3E00C94E1328C01FC01C0
:1006500081818737F1F441E0BE016F5F7F4FC801B0
:100660000296F3D2892BA9F041E0BE016E5F7F4F65
:10067000C8010496EAD2892B61F06A8189815BDF27
:1006800083E363DFCDDF8981DCD28A81DAD255D280
:1006900018C041E0BE016E5F7F4FC8010196D5D200
:1006A000892B79F08A81893981F410E0812F3CDF30
:1006B000C8D2812F8770873009F43FD21F5F103373
:1006C000A9F72296E4E00C94FD322EDF182F83E484
:1006D000DCD18A81B6D288ED90E022D2812FB1D2CE
:1006E00084ED90E01DD240E262E0812F90E029D2BB
:1006F000CECF86E32ADF1092840210925507109223
:10070000D80A089582E090E024DF81E0809384029B
:10071000109255071092D80A08950F931F93CF9304
:10072000DF93D82FC0E0062F10E085E3FDDE8D17A4
:1007300059F0C80133D1C150C111F7CF81E0DF9129
:10074000CF911F910F91089580E0F9CF85E2ECDE03
:100750008F3311F080E0089586E3F7DE8091850203
:10076000811112C085E891E0DBD183E3EEDE64E025
:1007700081E0D3DF85E2D8DE8F3361F78091850297
:10078000882329F081E008958DE3DFDEEECF8EE748
:1007900091E0C6D1F7CF85E3C7DE8D3051F485E215
:1007A000C3DE8F3331F4D2DF84E3CFDE8077803154
:1007B000D9F708951F921FB61F9211248F938BB7FC
:1007C0008F939F93AF93BF93EF93FF938091870293
:1007D00090918802A0918902B0918A020196A11D90
:1007E000B11D8093870290938802A0938902B093F1
:1007F0008A02809186028F5F80938602E7EEFAE09C
:1008000080819181181619061CF4019791838083C9
:1008100036968AE0EF3FF80799F78091200B909188
:10082000210B009729F001979093210B8093200BC7
:100830008091240B8F3F19F081508093240BFF91FE
:10084000EF91BF91AF919F918F918BBF8F911F902F
:100850001FBE1F901895FC018FB7F8944091870236
:10086000509188026091890270918A02408351837D
:10087000628373838FBF0895A4E0B0E0E2E4F4E004
:100880000C94E332CE010196E6DF8C81DAD18B81C4
:10089000D8D18A81D6D18981D4D14FD12496E2E0B2
:1008A0000C94FF320F931F93CF9380918702909106
:1008B0008802A0918902B0918A0220918C022817A7
:1008C00009F45BC08091870290918802A09189020F
:1008D000B0918A0280938C02A89507EE1AE0C0E0DE
:1008E000F80180819181892B19F48C2F0E94F526C3
:1008F000CF5F0A5F1F4FC43099F78091200B909112
:10090000210B892B11F40E9453278091240B811114
:1009100002C00E94AC2780915007882339F0815093
:1009200080935007811102C00E9463140E94C72E59
:10093000809186028D3708F1109286028091000125
:1009400081FF04C088B190E4892788B980918F0223
:10095000909190028438F3E09F0728F401969093D9
:10096000900280938F020E940B2B80918B0291E06A
:10097000980F8B3331F090938B02CF911F910F9191
:10098000089510928B028091220B8F5F8C3318F4A4
:100990008093220BF2CF1092220BEFCF880F991F7A
:1009A0000197F1F7089520ED37E0811101C0089516
:1009B000F9013197F1F78150F8CFCF93DF93DC0144
:1009C00016968C911697843509F053C0ED01269642
:1009D0008D919C9111974DE0242F30E02817390715
:1009E00008F44AC0AC014F5051092417350709F0EB
:1009F00040C0FC013E97EC0FFD1F20812435C9F556
:100A000017963C9117972181321333C018963C9169
:100A10001897228132132DC019963C911997238182
:100A2000321327C01A963C911A972481321321C0A1
:100A30004197C80FD91F85818883868189838185E5
:100A40008A8382858B8383858C8384858D8385854A
:100A50008E838D919C9111970A9711969C938E93FA
:100A600014968D919C9115970A9715969C938E9349
:100A70001497DF91CF910895FE01E20FF31F50818B
:100A80005B3309F4AFCF4F5FA7CFCF93C82F8091CF
:100A90008D0280FF1BC02091EF0F3091F00F2E3F91
:100AA00093E0390778F02115344080F4CD3051F0CF
:100AB000CA3041F090915207992311F083FD20C074
:100AC000CF9108956C2F8BEE9FE047D28091520713
:100AD0008823B1F380918D0283FFF2CFCA3081F376
:100AE000CD3071F46BE389E493E037D289E493E08D
:100AF00064DF83E08093500782E080934F07E0CF6C
:100B00006C2F89E493E029D2F4CFCF93DF93EC01EB
:100B10008991811103C0DF91CF910895B6DFF8CF9D
:100B2000CF93DF93EC01FE018491811103C0DF912B
:100B3000CF910895AADF2196F6CF8DE0A6DF8AE057
:100B4000A4CFA6E0B0E0E7EAF5E00C94DF32FC01C8
:100B5000262F1E828E010A5F1F4F35E08AE0E82EA5
:100B6000F12CCF01B7010E94AC323150805DD80129
:100B70008E938D01CF01FB010A97A8F4832F255096
:100B8000622F630F615067FD02C0811110C021E028
:100B900030E02C0F3D1F280F311DC901B6DF26960E
:100BA000E6E00C94FB323111DCCF80E0E8CF8150DD
:100BB000E1E0F0E0EC0FFD1FE80FF11D4083E2CF14
:100BC000A5E0B0E0E6EEF5E00C94E3329C011D8276
:100BD00054E0922F9F709A3048F5905D8FEF850F0B
:100BE000E1E0F0E0EC0FFD1FE80FF11D9083F9014B
:100BF00094E0F695E7959A95E1F72031310598F460
:100C00005550650F615067FD02C0811111C021E090
:100C100030E02C0F3D1F280F311DC90176DF2596CE
:100C2000E2E00C94FF32582F9F01D3CF995CD6CFCE
:100C30008150E1E0F0E0EC0FFD1FE80FF11D408373
:100C4000E1CF40E362E090E0BBCFCF93DF93EB01D5
:100C5000FB0130E020E0DC019D91992331F09136D9
:100C600070F08FE9890F863030F0CF018C1B9D0B1F
:100C7000DF91CF91089590529753292B05C080EDB5
:100C8000890F8A3050F4282B332389F02193415067
:100C9000442359F330E020E008C08FEB890F863001
:100CA00058F3903211F09A3301F7CD01D4CF229549
:100CB000207F31E0FACFDB0120E030E04AE0FC01A8
:100CC0008191811103C02D933C93089590ED980F6D
:100CD0009A3050F4429FB001439F700D112480530D
:100CE000990B9C01260F371FCF01E9CFFB01982FED
:100CF00092959F70803A40F4905D90838F708A3017
:100D000028F4805D81830895995CF7CF895CFACFE0
:100D10000E949835F999FECF08950C949035089566
:100D20000F931F93CF938C01CFEFC60FC801F5DF50
:100D300088DFCC2331F00F5F1F4F8AE3A6DEC1505E
:100D4000F5CFCF911F910F910895A2E0B0E0EBEAAB
:100D5000F6E00C94E032FC0181818D3449F466E0C8
:100D60008AEF9FE0DDDFE9DE2296E5E00C94FC32BD
:100D7000803521F460E18AED9FE0F4CF1A82198278
:100D800042E0BE016F5F7F4FCF0101965EDF0981B8
:100D900010E0823029F409811A81102701271027D9
:100DA000C801BBDFF82E82E570DE40E364E0C801D5
:100DB00007DF8EE991E0B4DE8F2D43DF8AE991E011
:100DC000AFDE40E262E08F2D90E0BBDECCCFA6E04C
:100DD000B0E0EDEEF6E00C94DB326C0143E0CE01C6
:100DE00001967C01BC01C60101962FDF8C01BE2C4F
:100DF000AF2C8230D0F0E980F12C823029F0E980EC
:100E0000FA80FE24EF24FE241127FE01E00FF11FDB
:100E10006081C7017DDF000F111F0F5F1F4F0C0D99
:100E20001D1DF8018081811104C02696EAE00C9412
:100E3000F73241E06B2D7A2DC80107DF892BA9F32A
:100E40009FEFE91AF90A6981C70162DF0E5F1F4F40
:100E5000E8CF41E060E071E00196F7DE80910001AB
:100E600080FF06C0469A6091000184E390E050CF75
:100E70004698F9CFA1E0B0E0E0E4F7E00C94E3326B
:100E80001982009731F041E0BE016F5F7F4F0196FC
:100E9000DCDE89818F3F09F4FFCF882321F061E0F8
:100EA00083E390E035DF10926E00F89488E198E0DB
:100EB0000FB6F894A895809360000FBE90936000E1
:100EC000FFCFCF93DF93EC0161E080E090E020DF83
:100ED00064E481E090E01CDF00DB60E080E690E00D
:100EE00017DF60E081E690E013DF60E083E390E0ED
:100EF0000FDF62E084E390E00BDF60E080E690E0EB
:100F000007DF60E081E690E003DF8981883719F030
:100F100080E090E0AFDFDF91CF91089580E090E036
:100F2000FCDE813029F481E090E0F7DE843419F0B2
:100F300080E090E0C6DF84E390E0EFDE8093000184
:100F400008958CE891E0ECDDF8CDFC011582148267
:100F500011821082138212820895FC012FB7F89437
:100F600084819581811534E0930710F02FBF089597
:100F700001969583848380819181AC014F5F5F4F9F
:100F8000518340838E0F9F1FDC0116966C93411591
:100F9000544061F711821082E9CFFC012FB7F89419
:100FA00084819581009719F42FBF80E008950197FF
:100FB0009583848382819381AC014F5F5F4F53831C
:100FC00042838E0F9F1FDC0116968C914115544071
:100FD00011F4138212822FBF0895CF93DF93FB0188
:100FE000DA019C91882369F0EB01C90FD11D41E022
:100FF00050E0022E01C0440F0A94EAF78881842B46
:101000008883222331F02150822F90E0DF91CF910D
:1010100008959F5F9C3008F49C93E90FF11D1082A6
:1010200027E0F2CF299A882379F08091920220E17B
:10103000829FC0011124B2DC29988091910220E1A5
:10104000829FC0011124AACC8091940220E1829F4A
:10105000C0011124A3DC299880919302F0CFA4E071
:10106000B0E0E5E3F8E00C94D3326C01362E2A832D
:10107000502EE982642E712C4E5F409F402D11242A
:10108000042E000C550B80918F02909190028417D2
:10109000950738F482EA91E043DD2496E2E10C946E
:1010A000EF32841B950B9093900280938F02469AA7
:1010B0004090D80A442039F01092D80A80E892E093
:1010C0005CD34424439480918402811101C01ADBD3
:1010D00095DAA32CB12C01E010E02A81E22EF12C4C
:1010E0001A82EA818E2FEE0F990B8A159B0554F117
:1010F000332011F081E096DF212C822D022C000C90
:10110000990B9C838B838615970514F127E0922E0B
:101110008C0D9D1D9C838B83892D092C000C990BB4
:10112000E816F9067CF189813EDC5A945110D8CF3B
:1011300080919602882399F173DA41100E94821EF1
:101140004698ABCF80E06EDF8A818F5F8A83C9CFFC
:1011500037E0832E912C8B819C818C0D9D1D9C836F
:101160008B83C801082C01C0880F0A94EAF7EB8131
:10117000FC819081892356DFF1E08F1A910888F76E
:101180002394BBCFC801092C01C0880F0A94EAF749
:10119000EB81FC819081892345DF9A94BDCF86E362
:1011A000D4D9CBCFADE0B0E0E8EDF8E00C94D43288
:1011B0007C01162F842F022F6701C60ED11C462FEB
:1011C000B701F1D2F60180831F5F1D861982C12C01
:1011D000D12C27E0CE010D9688248394912C582E93
:1011E000492E97E0A92EB12C37016C0C7D1CC1163D
:1011F000C8F0222309F440C0215089E18093930272
:101200008093940285E280939102809392028AE017
:10121000E82E4D856CE0CE01019621DF2D96E1E1AF
:101220000C94F032F3013080C4010A2C01C0880F05
:101230000A94EAF7452D542DBE016F5F7F4F83213D
:10124000CCDE282FF1E0AF1AB10888F6032C3294D7
:101250003024032C369436943024339431FA882782
:1012600080F9452D542DBE016F5F7F4FB6DE282FCC
:10127000EFEFCE1ADE0AB5CF8D858F5F8D8727E021
:10128000BCCFACE0B0E0E7E4F9E00C94E132162F1B
:10129000042F4BE0BE016F5F7F4F0196D6DC682FB5
:1012A000202F412FCE0101967DDF2C96E4E00C9497
:1012B000FD3243E066E0E5CFEF920F93CF93DF93EB
:1012C000CDB7DEB760970FB6F894DEBF0FBECDBFC7
:1012D00040E1BE016F5F7F4F0196B7DC69814A81B3
:1012E0000B818C81809394028D81809393028E81F7
:1012F000809392028F8180939102E02EE2948FE09E
:10130000E8220F70242F2F7042954F70CE0108965F
:10131000A6DE60960FB6F894DEBF0FBECDBFDF919C
:10132000CF910F91EF900895A9E1B0E0EAE9F9E0DB
:101330000C94D9324BE0BE016F5F7F4F019685DC84
:10134000182F8930B1F589E180939302809394023C
:101350008093920282E38093910269E0CE0101962C
:101360002DD2E1E0F0E0EC0FFD1FE10FF11D8083D5
:10137000198E1D868E010F5F1F4F7E018BE0E80ED8
:10138000F11C27E0CE014996CC24C394D12C982E91
:10139000892EA12CB12C0E151F0579F4222379F189
:1013A00021508AE0E82E03E0498D6CE0CE010D96D5
:1013B00056DE6996ECE00C94F532C6010A2C01C0A9
:1013C000880F0A94EAF7F8019081492D582DBE0143
:1013D000635F7F4F892301DE282FFFEFAF1ABF0A1B
:1013E00088E0A816B104B9F6492D582DBE01635FF7
:1013F0007F4F81E0F2DD282F0F5F1F4FCACF898D0D
:101400008F5F898F27E0CDCFA9E1B0E0EAE0FAE075
:101410000C94D5324BE08E010F5F1F4FB80101963F
:1014200014DC782E85E38093940296E190939302E6
:101430009093920280939102672DC801CBD1F8015D
:10144000E70DF11D80837394198E1D86780127E0C6
:101450006E0189E1C80ED11CAA24A394B12C8E2D53
:10146000801B871560F08AE0E82E03E0498D6AE072
:10147000CE010D96F4DD6996E0E10C94F132812CF9
:10148000912CF7015080C501082C01C0880F0A94E7
:10149000EAF7A601BE01635F7F4F85219EDD282FFD
:1014A000FFEF8F1A9F0A4C2C6D2C84E08816910454
:1014B00041F7A601BE01635F7F4F81E08EDD282FDB
:1014C000C501082C01C0880F0A94EAF7442D562D57
:1014D000BE01635F7F4F852180DD282FEFEF8E1ADD
:1014E0009E0AF8E08F16910459F7442D562DBE013F
:1014F000635F7F4F81E071DD282F8FEFE81AF80AD4
:10150000AECFA0E0B0E0E7E8FAE00C94DB32FC01FB
:101510001092B2024181440F440F440F8381481B53
:1015200087E0C82EC40E1092B30220E030E047E0FE
:1015300057E070E080E097E0E92EF12C01E010E048
:10154000DD24D394D80E8C1580F02093C7023093FD
:10155000B202CD14A0F5653409F088C04F3F09F000
:1015600085C02F5F2093C70283C0DF01A70FB11D85
:1015700014968C9190E0052E02C0959587950A945B
:10158000E2F78170552369F051506B34D1F4433048
:1015900059F4332371F030E0811155C04150832F4D
:1015A0001EC07F5F57E0F1CF4F3FB1F781110FC0F1
:1015B0002FC0811114C02093C7021092B20280E0A4
:1015C0005DC04F3F51F5663469F0653479F32F5FA4
:1015D000A22FB0E0AD54BD4F1C92832F47E0382FAF
:1015E0008D2DAECFA22FB0E0AD54BD4FAC910A2EE1
:1015F000A295A0250A2EA695A695A02590E0AF5FFE
:10160000A695A170CA2FA12CDA2D8C179D07F9F28F
:101610002093C7023093B202D2CF882309F4BECF01
:10162000663471F4A22FB0E0AD54BD4FBC90C80138
:10163000042E01C0880F0A94EAF78B298C93AECF51
:10164000653409F0ABCFA22FB0E0AD54BD4FC70158
:10165000841B910947FD9395580102C0AA0CBB1C3D
:101660008A95E2F7C5019C91892BE8CF311179CF9A
:1016700081E09091C702992309F4A1CFCDB7DEB7DD
:10168000EAE00C94F73210926F00E091CA028CE10C
:10169000E89FF0011124E553FD4F108280919502DF
:1016A0008D7F809395020895FC018181843108F03B
:1016B000EACF9381662381F0DF01A80FB11D41E0DD
:1016C00050E0092E01C0440F0A94EAF714962C91B9
:1016D0001497242B14962C93992319F091509383EB
:1016E000089597E093838F5F8183E80FF11D148243
:1016F000089570E030E0FB01E21BF30B3B96779717
:10170000A0F490E050E0FC01E41BF50B3B967797CA
:1017100060F4680F791F240F351F621B730B655F20
:101720007F4F81E06731710508F080E00895219ACC
:1017300029985298E9E6F0E080818160808382EC0C
:1017400091E09093900280938F02EBECF2E0148E84
:1017500010AE10921F0310928402089580916B07BF
:1017600081110AC080919602882321F00E94820391
:101770000C9410030C9479030895FC01818181116C
:101780000BC0809196025DDA40E265E080918F02A5
:1017900090919002D6D9D1C941E066E972E0CF01BB
:1017A000019653DADBCF9B01411101C008954150EE
:1017B000F901E40FF11D9081890FF6CF9C0180E0C3
:1017C000611101C008956150F901E60FF11D90818A
:1017D0008927F6CFAC01F091B202362F85E090E078
:1017E000311109C0292F280F80E1289F9001112471
:1017F000892F822B08957FEF730FDA01A70FB11D98
:101800002C91E22FE295EF709E278E0FFF2311F0AF
:10181000361719F02F709227820F372FE1CFFC0176
:1018200022813381A081B181A20FB11D8C9190E002
:10183000032E02C0959587950A94E2F781709FEF79
:10184000930F9383311104C02F5F228397E093831A
:101850000895A0E0B0E0EFE2FCE00C94DC32D82E7A
:10186000C92EE42E062F10E0E801F12CBB24B3941E
:10187000209731F48F2DCDB7DEB7E9E00C94F83224
:101880008D2D9C2DCCDFAE0141505109882349F0AC
:10189000EE2049F02B2D042E01C0220F0A94EAF706
:1018A000F22AEA01E5CF98012C1B3D0B8B2D01C0DC
:1018B000880F2A95EAF7282FF3CFA4E0B0E0E3E6FB
:1018C000FCE00C94DB32FC011B8287E08C83CF01AF
:1018D00004969A8389831092C702818128E0829FAF
:1018E000C0011124438127E030E0241B3109820F1D
:1018F000931F853491050CF04CC080E046C0A9DFF1
:10190000A82EE12FF0E0ED54FD4F8083082F002E2C
:1019100002950025002E069506950025CE0101961C
:101920007EDF90E00F5F01FBCC24C0F8D12C8C153A
:101930009D0519F7CE01019672DF8111DECFBA2421
:101940001F5F1093C7021091C70240E068E0CE010C
:1019500001961630A0F27DDF082F182F012E129568
:101960001025012E169516951025CE01019657DFEC
:1019700090E01F5F11FBEE24E0F8F12C8E159F051F
:1019800009F0BBCF81E0B012B8CF2496EAE00C9406
:10199000F732B12CD8CFA4E0B0E0E1EDFCE00C943C
:1019A000DD32FC011B8287E08C83CF0104969A8391
:1019B00089838081853009F03FC0818128E0829F42
:1019C000C0011124438127E030E0241B3109820F3C
:1019D000931F8039910581F580E00FE010EF49E811
:1019E000F42E8093C702C82ED12CEE24E394E80E87
:1019F00041E068E08F3029F5CE0101962ADF080F1B
:101A0000111D90E19093C70280958093C20241E03E
:101A100068E0CE0101961DDF90E0982F8827081B13
:101A2000190B41E068E0CE01019613DF282F30E06A
:101A300081E02017310709F080E02496E8E00C945B
:101A4000F932CE01019605DF080F111DF601ED54A4
:101A5000FD4FF826F08234E2F32EF80E8E2DC1CF22
:101A6000A4E0B0E0E6E3FDE00C94E232FC011B826E
:101A700087E08C83CF0104969A83898381818430A7
:101A8000D1F483818130B9F410E01093C70241E0B2
:101A90001430B1F467E0CE010196DBDE880F80934D
:101AA000B70285E08093C7029091B30292959F7030
:101AB00081E09A3009F080E02496E3E00C94FE3255
:101AC00011110CC067E0CE010196C3DE8068E12FE2
:101AD000F0E0ED54FD4F80831F5FD7CF68E0CE016B
:101AE0000196B7DEF4CFFC0181818330D9F4838184
:101AF0008730C1F480818830A9F480E09181891712
:101B000020F08093C70281E00895282F30E0DF01A4
:101B1000A20FB31F14969C912D543D4FD9019C9355
:101B20008F5FECCF80E00895FC0190818091950259
:101B3000993611F0933771F4982F9370913021F406
:101B4000866080939502089580FFFDCF8091950275
:101B50008B7FF7CF80FDF7CF8460F3CFA1E0B0E0BB
:101B6000E4EBFDE00C94DE32198280919702882329
:101B7000A1F18091960287FF14C084E30E94940231
:101B80008058803408F442C0803C08F041C0805541
:101B9000990B23E0959587952A95E1F78F590E9437
:101BA00045058091960283FF16C082E70E94450595
:101BB0008091960284FF04C0809198020E9445059E
:101BC00086E60E9445058091960284FF04C08091BC
:101BD00097020E944505109297028091C8028823BF
:101BE00009F4B3C1469A0091C9022CE1029F800119
:101BF000112405531D4F898181111FC0C80173DF56
:101C0000882309F4B7C183E7898317C080E0C6CF72
:101C10008FE0C4CF83E5F8CF282F30E02F5F3F4F10
:101C20004E2D50E02417350709F070C093E09F1542
:101C300008F0BFC196E499838083E980D090960232
:101C4000EE2009F4FDC0D0FEFBC0809195028A7F92
:101C5000809395028D2D8270811125C0F090C7026E
:101C60009091B102EDE9F2E0A3EBB2E09F1509F427
:101C700093C04F2D50E063EB72E08DE992E00E943B
:101C80008735F092B1028091870290918802A091ED
:101C90008902B0918A028093990290939A02A0934C
:101CA0009B02B0939C02F4E5EF1297C0D6FC1BC0D8
:101CB0008091C7028530B8F08091B5028B3471F005
:101CC000893661F09DEA980F923040F08D5782304E
:101CD00028F08091B6028077803729F480919502B0
:101CE000816080939502B801CE0101961DDF80913D
:101CF0005207882309F475C08091260B811171C0A9
:101D0000809195028B7F809395026BC04F2D63EB82
:101D100072E08CE048DDE8124CC1E3E084E5EF15A9
:101D200008F472CF46C18091C70281508093C702E8
:101D3000893009F044C169E083EB92E03FDD909186
:101D4000BC0289133CC185E45FCF88E45DCF84E7A2
:101D50005BCFE091C702FF24FA94FE0EF092C70217
:101D60006F2D83EB92E036DD9091B2022F2D291B6F
:101D7000330BF901ED54FD4F9081891338C18BE489
:101D800043CF21919D918F5F291731F0809195026A
:101D90008D7F809395026DCFF812F3CFF092B10250
:101DA0008091870290918802A0918902B0918A0265
:101DB0004091990250919A0260919B0270919C020D
:101DC000841B950BA60BB70B8697A105B10508F0F0
:101DD00050CF809195028160DCCFB801CE01019691
:101DE000A3DE8091950282FF2BC08E2D0E944505B7
:101DF0008091B202882329F08091C702815080939C
:101E0000C702F12CE091C702FE1608F4A2C080912F
:101E1000B202882351F0F0E0ED54FD4F80818F70C5
:101E200040E361E090E00E94E0058091960285FF2A
:101E300005C084E30E9494020E9421060E949D0531
:101E40008091960282FF69C080E70E944505F801F3
:101E5000808140E262E090E00E94A105F801808D5F
:101E600040E265E0F0E18F9FC00111240E94A105CE
:101E7000F801818D40E265E0F0E18F9FC0011124FF
:101E80000E94A105F801828D40E265E0F0E18F9F9C
:101E9000C00111240E94A105F801838D40E265E094
:101EA000F0E18F9FC00111240E94A105F8018281F9
:101EB00040E263E090E00E94A105F801818140E2E8
:101EC00063E090E00E94A105F801838140E262E0B6
:101ED00027E030E0F901E81BF109CF010E94A105DC
:101EE00080E20E9445058091960285FF08C084E348
:101EF0000E9494020E94210680E20E944505F8019A
:101F00008381873019F081818F5F8183F12CF80103
:101F10008181F81638F10E949D05F80110828091A8
:101F2000C80281508093C8029091C90281E0890F54
:101F3000933009F480E08093C90246988981843502
:101F400021F483EB92E00E94BB272196E7E00C94FA
:101F5000FA32EF2DF0E0ED54FD4F80810E94210612
:101F6000F39450CFF801EF0DF11D84810E942106FA
:101F7000F394CDCFC8010FDD81114CCE66E4C801CA
:101F8000C0DA8823B9F0F090C702FA94F092C70241
:101F90004F2D63EB72E086E006DCEF2DF0E0ED54B0
:101FA000FD4FE080E81238CE33E086E43F1508F4B8
:101FB0002BCE198265E4C801A4DA8111B4CEC80120
:101FC0007CDC8111C2CEC8014BDD8111C0CEF8018D
:101FD000638DE0909802262F4E2D828D8ADB682F2C
:101FE000C80162DB6BE4C8018CDA8111B2CEF80162
:101FF000838191E0980F9383873029F4F8018181E0
:10200000138281508183F8018181843009F015CEDB
:10201000F8018381843009F010CE2EE14CE3618D0C
:10202000808D67DB882309F408CE2EE14E2DF80160
:10203000638D828D5EDB682FC80136DB85E0F80199
:102040003496A3EBB2E001900D928A95E1F785E01A
:102050008093C70282E5D8CD1F920F920FB60F92E0
:1020600011240BB60F922F933F934F935F936F936F
:102070007F938F939F93AF93BF93EF93FF931092B0
:102080006F008091960283FF03C08EE20E94450597
:102090009091CA028CE1989FF0011124E553FD4F05
:1020A0008081833018F081818230A0F4ECDAFF91D6
:1020B000EF91BF91AF919F918F917F916F915F91C0
:1020C0004F913F912F910F900BBE0F900FBE0F902D
:1020D0001F9018958091C802833049F48091960230
:1020E00082FFE4CF89EA91E00E949005DFCF8F5F05
:1020F0008093C80281E0890F933019F08093CA025F
:10210000D6CF1092CA02D3CF982F8BED890F87318B
:1021100038F486EF860F8D3118F481E0691708F0E6
:1021200080E008951F920F920FB60F9211240BB604
:102130000F92EF92FF920F931F932F933F934F9322
:102140005F936F937F938F939F93AF93BF93CF933F
:10215000DF93EF93FF938091E30B8823E1F082E01C
:102160008093E30BFF91EF91DF91CF91BF91AF91FE
:102170009F918F917F916F915F914F913F912F919F
:102180001F910F91FF90EF900F900BBE0F900FBE1D
:102190000F901F90189580915407823021F483E0AE
:1021A00080935407DFCF009184001091850044E0B4
:1021B000169507954A95E1F7C091CA022CE1C29F96
:1021C000E0011124C553DD4F9881943079F40E322B
:1021D00048F20F3408F0C2C04A9941C061E0CE0114
:1021E00063DA109285001092840004C0953029F0C3
:1021F0004A9908C000939802B5CF073108F4B2CFCE
:102200000732E8CF80919802081B00939702109242
:10221000850010928400983061F49A81911109C070
:1022200091E09A83888F8A8F098F0B3B28F5000FE6
:102230000B8F82E086BB0881011120C0909198022B
:10224000953608F08FCF80919702853608F08ACFB7
:10225000988F898F81E08A8382E0888383CF809101
:102260009802081B00939702109285001092840038
:1022700060E0CE0119DA76CF0695DACF1091970299
:10228000023009F071C0F0909802088DE98C212F7E
:102290004F2D6E2D802F2DDA4A818823F1F0602F8B
:1022A00070E09B01220F331F260F371F2F0D311DAA
:1022B0003595279535952795288FF12CC701880FDF
:1022C000991F8E0D9F1D810F911D95958795959551
:1022D0008795898F4F5F4A8345CF443008F442C0C9
:1022E00080EA9FE090938900809388004C3050F002
:1022F000202F2E0D3327331F253631052CF084E097
:10230000888311C04A30C8F0202F2E0D3327331F89
:102310002532310594F485E0888388EE93E090932C
:10232000890080938800FA8E1B8F198287E08B8347
:102330001C8282E080936F0015CF80915307882321
:1023400079F0612F8F2DE0DE882351F0602F8E2DE4
:10235000DBDE882329F081E08093540794D902CFF3
:1023600083E0CECF18826ACF083009F04BC081E9F4
:10237000810F8D3110F560E0CE0196D9288D30E0C7
:10238000C901880F991F820F931F20919802820F15
:10239000911D9595879595958795888F298D30E026
:1023A000C901880F991F820F931F810F911D959569
:1023B000879595958795898FD5CE173E08F4D2CE0F
:1023C00061E0CE0171D92A8D30E0C901880F991FD3
:1023D000820F931F20919802820F911D95958795EA
:1023E000959587958A8F2B8D30E0C901880F991FAD
:1023F000820F931F810F911D9595879595958795D0
:102400008B8FB0CEF0909802212F4F2D6B8D8A8D3F
:1024100070D9882369F061E0CE0146D92A8D30E079
:10242000C901880F991F820F931F8F0D911DD6CF61
:10243000212F4F2D698D888D5CD9882369F060E04C
:10244000CE0132D9288D30E0C901880F991F820F43
:10245000931F8F0D911D9DCF073009F483CE7ECF42
:10246000E091CA028CE1E89FF0011124E553FD4F91
:102470008081811107C081E09091240B9F3F19F466
:1024800080E0089581E0089580E690E00E948D0646
:102490008093530781E690E00E948D068093520757
:1024A000882321F081E28093960258C90895299AE1
:1024B0000C94CE0429980C94CE04A7E0B0E0E3E697
:1024C000F2E10C94DD3290914F03943509F072C023
:1024D00020914703309148032F5F3F4F30934803CB
:1024E0002093470395E7998311E0882389F0BE0183
:1024F0006E5F7F4F809152070E947606BE016C5F2F
:102500007F4F809153070E94760685E58E8316E003
:102510000E9482030E94FE0206E080E891E0C7DF8D
:1025200080E093E0C7DF01500111F7CF80E093E036
:10253000BEDF80E891E0BEDF80E891E0B8DF299857
:1025400087E390E00E94A90283E00E94D3042C98C4
:102550008FE70E943A0280914D03810F0E943A0258
:10256000CE0101966C017C01F70181917F010E94EF
:102570003A028E2D8C198117B8F380914D039091FA
:102580004E03892B09F055C02C9A0E94FE0289E463
:1025900093E00E94A50715E18AE30E9494028F77D9
:1025A000882319F0115011114BC0D8D82796E8E0B4
:1025B0000C94F932963459F4209145033091460336
:1025C0002F5F3F4F30934603209345038BCF9534C5
:1025D00059F420914303309144032F5F3F4F3093D0
:1025E0004403209343037ECF9B3459F4209141034D
:1025F000309142032F5F3F4F3093420320934103BA
:1026000071CF983459F420913F03309140032F5FEC
:102610003F4F3093400320933F0364CF20913D030D
:1026200030913E032F5F3F4F30933E0320933D0395
:1026300059CF89E493E00E94CD070E943A029DCFD2
:1026400081E00E94D304A8CFCF93DF93EC0189816E
:1026500081110DC0809153070E942106809152077D
:102660000E9421060E949D05DF91CF910895843636
:1026700091F48091870290918802A0918902B09193
:102680008A0240E364E00E94E0058EE20E94450574
:1026900080915007E5CF833709F04BC040E361E0FC
:1026A00080914703909148030E94E0058EE20E94CA
:1026B000450540E361E080914503909146030E9407
:1026C000E0058EE20E94450540E361E0809143030E
:1026D000909144030E94E0058EE20E94450540E38C
:1026E00061E080914103909142030E94E0058EE2F7
:1026F0000E94450540E361E080913F0390914003D3
:102700000E94E0058EE20E94450540E361E0809171
:102710003D0390913E030E94E0058EE20E94450534
:1027200040E361E080913B0390913C030E94E0050F
:1027300099CF8936D9F441E063E577E0CE0102967E
:102740000E9425066091530780E690E00E9488066B
:1027500041E062E577E0CE0104960E942506609193
:10276000520781E690E00E9488067ECF89E493E0DC
:102770000E94A50721966991611103C080E09DDE4A
:1027800073CF89E493E00E94AD07F5CFA1E0B0E0FC
:10279000ECECF3E10C94DD32809154078823A9F02E
:1027A000C0908702D0908802E0908902F0908A025F
:1027B000833009F06FC08FE30E949402182F863097
:1027C00040F40E94AE0B109254072196E8E00C945E
:1027D000F93285EE9BE00E94A5072C988FEF0E94AE
:1027E0003A0280E00E943A02082F115080E00E94D5
:1027F0003A02682F85EE9BE00E94AD07115011113F
:10280000F5CF2C9A0E94AE0B109254070537E9F6CB
:1028100041E0BE016F5F7F4F8BEE9BE00E9425067B
:10282000019799F599818091530798132EC0809153
:10283000E90B9091EA0B2091EF0B2535E9F0049715
:102840009093EA0B8093E90B84E090E09093E80B7F
:102850008093E70B6AE085EE9BE00E94AD07E09174
:10286000F313F091F41388E00995AFCF85EE9BE068
:102870000E94CD070E9445058091E90B9091EA0BDB
:10288000892BA1F70E949D05A0CF85EE9BE00E94B9
:10289000A5079BCF823041F4809151079C2D981B56
:1028A000983008F492CF8DCF813009F08ECF87E336
:1028B00090E00E94A9020E94100382E080935407D6
:1028C000C092510782CFCCDD882361F083E08093F2
:1028D0004F0780913B0390913C03019690933C03FA
:1028E00080933B0380914F07815080934F0788234B
:1028F00021F083E080935007089581E0DECD0F93AF
:102900001F93CF93DF93E898249A2C9A8EE190E05E
:102910000E94CE042C988EE190E00E94CE042C9A66
:102920008DE290E00E94CE0480E30E94A50284E63E
:1029300090E00E94CE04C0EDD1E0FE01319664919A
:10294000FE0184910E949B022296F2E0C230DF07D2
:10295000A1F780915607882379F0CAEBD1E000ED0A
:1029600011E0FE0131966491FE0184910E949B0268
:1029700022960C171D07A9F783E30E94A50284E0A5
:102980000E94D30484E30E94A50285E30E9494027E
:102990008D30C1F7DF91CF911F910F910895A2E380
:1029A000B0E0E5EDF4E10C94E03280915507882326
:1029B000A9F04A9B5EC08FE30E9494028F778983BF
:1029C000823380F08AE30E94A50286E30E94A5027A
:1029D0008DE30E94A50284E30E94A502E296E5E051
:1029E0000C94FC322C988FEF0E943A0210E08981FF
:1029F000181708F454C080E00E943A02F82E80E0D4
:102A00000E943A022C9A84E30E94A50285E30E9468
:102A100094028D30C1F79A8186E789278A830981DC
:102A2000FE01339682E02191801708F444C0802F84
:102A3000023008F482E0E1E0F0E0EC0FFD1FE80F67
:102A4000F11D8B81822780831091960210711123D2
:102A5000D1F181E60E94450510E0E1E0F0E0EC0FE5
:102A6000FD1FE10FF11D80810E9445051F5F0117C9
:102A7000A0F785E30E949402813029F0813161F44E
:102A80008AE30E94A50286E30E94A5028DE30E94CC
:102A9000A50284E30E94A5020E94CB039FCF80E0A1
:102AA0000E943A02E2E0F0E0EC0FFD1FE10FF11DA1
:102AB00080831F5F9CCFDF011197945292279C93D4
:102AC0008F5F922FB0CF81E40E944505E1E0F0E0F6
:102AD000EC0FFD1FE10FF11D80810E9421061F5F99
:102AE0000117A0F78091960285FF03C08F2D0E94E9
:102AF00021060E949D05BDCFAAE3B0E0E2E8F5E122
:102B00000C94DD3241E39E012F5F3F4F7901B90103
:102B100001960E942506182F8150990B9C018981EE
:102B200090E02817390709F067C080915507811197
:102B300004C0E5DE83E00E94D3040B818A8196E71E
:102B400089278A834981DE01129692E09D011196C0
:102B50008C911197941708F453C0E42F423008F475
:102B6000E2E0EE0DFF2DF11D80278083CE01C79698
:102B70000E942B0485E30E94A50285E30E94940233
:102B8000833109F453C0CE01C3960E942B044BA994
:102B90005CA96DA97EA98FA998ADA9ADBAAD84171E
:102BA0009507A607B707A0F5481B590B6A0B7B0BC7
:102BB0004D3B510561057105C8F180EB91E00E9424
:102BC000900585E30E949402863149F48BE30E94CC
:102BD000A50286E30E94A5028DE30E94A5028091D2
:102BE0005507882309F44AC084E30E94A50285E3BF
:102BF0000E9494028D30C1F7EA96E8E00C94F93215
:102C00001196F9012081245282278C939F5F9ECFD9
:102C1000481759076A077B0748F484549F4FAF4F02
:102C2000BF4F481759076A077B07C6CF85E30E9445
:102C30009402833109F09ECF8AE004FF07C088E741
:102C40000E94D30488E70E94D30488E70E94D3043B
:102C50002C988FE70E943A0267018C2D8E198117FC
:102C600038F02C9A85E30E9494028331D9F3A9CFDE
:102C7000F60181916F010E943A02EFCF0E94AE0BE4
:102C8000BBCFFC018181823751F0823551F481E064
:102C90008093560734DE81E080935507089580E0E5
:102CA000F7CF833719F4CF01019626CF109255073D
:102CB0000895A0E0B0E0EFE5F6E10C94DC32B82E28
:102CC000192F062F6A0179012C988FEF0E943A0282
:102CD000CB2DD12F0C0F1D2F111DC017D107B1F413
:102CE000C114D10469F080E00E943A02F6018083A9
:102CF000E114F10429F080E00E943A02F701808398
:102D00002C9ACDB7DEB7E9E00C94F83280E00E944F
:102D10003A028993E2CFEF92FF920F931F93CF93E2
:102D2000DF93182F062F2198529810926B0710925C
:102D30006C07E898249A2C9A8EE190E00E94CE04C9
:102D40002C988EE190E00E94CE042C9A8DE290E0C7
:102D50000E94CE0480E30E94A50284E690E00E94D7
:102D6000CE04113009F446C08EEF810F823008F096
:102D70003CC0CCE1D2E0FE018491813408F456C01D
:102D80000130D9F460E087E10E949B0267E083E0B4
:102D90000E949B0264E584E0113009F054C00E9457
:102DA0009B0266E785E00E949B0262E082E00E944F
:102DB0009B026EE280E00E949B0210936B070093DF
:102DC0006C0783E30E94A502EDE5F7E08EE0DF01EA
:102DD0001D928A95E9F7E7E5F7E086E0DF011D92AD
:102DE0008A95E9F784E00E94D304CDB7DEB7E6E028
:102DF0000C94FB32C9E6D2E0FE018491813408F0E4
:102E0000BFCF8FE2E82E83E0F82EFE013196649169
:102E1000FE0184910E949B02EC16FD0609F4B0CFDE
:102E20002296FE018491813480F3AACF3196649179
:102E3000FE0184910E949B02F2E0C23EDF0709F48A
:102E40009FCF229698CF0E949B026DE385E00E945F
:102E50009B0260E585E10E949B026BE580E10E9498
:102E60009B0268EF81E19FCFCF9385E30E9494029C
:102E7000C82F8130D1F78BE30E94A5028AE30E941C
:102E8000A50210925D0710925F0710925E071092E4
:102E90006107109260078DE697E090936307809337
:102EA000620710926407C0936507109266078091CD
:102EB0006B0780936707109268071092690760E0BC
:102EC00083E00E949B0262E088E00E949B0284E310
:102ED0000E94A50285E30E9494028D30D9F781E01B
:102EE00080936A07CF910895FF920F931F93CF931A
:102EF000DF93F82E192F062F2C988FE70E943A02A5
:102F0000CF2DD12F0C0F1D2F111DC017D10739F454
:102F10002C9A81E0CDB7DEB7E5E00C94FC328991C4
:102F20000E943A02F2CF8DE30C94A502A4E0B0E037
:102F3000ECE9F7E10C94DE3280916C07823009F005
:102F40008AC090916B07992309F485C010916A0794
:102F5000123009F464C038F411115CC086E30E9499
:102F6000A50282DF78C0133009F40DC189B18470E5
:102F7000D82E811183C180916A07823008F47EC106
:102F80001C821B829E012D5F3F4FAE014C5F5F4F45
:102F90006091600780916207909163078ADE81E00B
:102FA0008093660780916707813009F01EC1809188
:102FB0005D07BBD3AC0165EB79E08DE697E03BD4D0
:102FC0007C018091B509B1D38C01E114F10409F0C1
:102FD00040C082E60E94450580916707833039F43E
:102FE00080916907823019F489E50E9445058D2D8D
:102FF00090E08017910708F439C18091960285FF0F
:1030000006C08B810E9421068C810E9421060E94AD
:103010009D051FC04A9BAACF80936A07A7CF199B23
:10302000A5CF20E030E040E050E063E0809162070F
:10303000909163073EDE209167078091620790912F
:1030400063072130E9F4BE016F5F7F4F89D2882387
:1030500031F010926A072496E7E00C94FA328981E5
:1030600080935D0762D3AC0160E081E074D3BC0162
:1030700090935F0780935E078934924080F1E9CF97
:10308000233009F068C0FC013081343509F063C099
:103090002093680721812D3C09F04BC021E020934B
:1030A0006907828180935D07893098F290E09C01E6
:1030B0002A503109B90137FF02C0615F7F4FE4E058
:1030C00075956795EA95E1F76E5F7F4F660F771FFD
:1030D0000396680F791F70935F0760935E0786E021
:1030E0006F3F710511F008F04BC00E949B0260E039
:1030F00088E00E949B0281E08093640780916207D0
:103100009091630703969093630780936207809181
:103110005E0790915F070397909361078093600724
:103120001092650783E080936A0767E00E949B0224
:103130001DCF2D3309F08DCF109369076281609305
:103140005D076C3008F485CF603809F482CF70E0F9
:103150006D5F7F4FC0CF40E0BE016F5F7F4F8CD26D
:10316000811177CF82E08093680781E080936907BF
:10317000898180935D07D9D2AC0160E080E076CF91
:103180000E949B02BBCF199BF1CE8091600790916A
:1031900061078F3F910509F058F480916407811110
:1031A00007C060E088E00E949B0281E08093640792
:1031B00020E030E040E050E06FE1809162079091C4
:1031C000630777DD80916007909161074F97909337
:1031D00061078093600780916207909163074F9623
:1031E0009093630780936207C1CE80916807823015
:1031F00051F480915D0799D2AC0165EB79E08DE6E1
:1032000097E093D3DDCE833009F023CF8091690717
:103210008130E9F420915D0730E0C9010A9797FDFC
:103220000F9644E0959587954A95E1F78C010E5FDE
:103230001F4F000F111F020F131F0F5F1F4FA80119
:1032400065EB79E08FE697E0FAD37C01BECE823061
:1032500009F0FFCE00915D0710E00F5F1F4FA8013E
:1032600065EB79E08FE697E0BED4EFCF8B54964FB5
:10327000FC0180810E942106D394B9CE85E30E948F
:1032800094028D3009F4E7CE10926A0767CEA0E071
:10329000B0E0EDE4F9E10C94DD326C01F62E072F7D
:1032A000E42EFC01808141D2EC01019782329140F1
:1032B00008F0D1C080916C0710916B07823009F043
:1032C00010E061E08E2D27DD21E0AE01B6018F2DEB
:1032D000902FE21265C056D2AE0161E081E03BD290
:1032E00080935707909358071EDEC82FC07786E358
:1032F000C111A4C08BE30E94A502F092590700936C
:103300005A0710925C07609157077091580786E042
:103310006F3F710511F008F048C00E949B0260E009
:1033200088E00E949B02C1E0C0935B07C0915707F1
:10333000D0915807C134D10510F0C0E4D0E06C2F13
:103340008091590790915A07CFDD8091590790914C
:103350005A078C0F9D1F90935A07809359078091AD
:103360005707909158078C1B9D0B9093580780939B
:103370005707892B19F481E080935C0785E30E944D
:10338000A50201E080915C078823B1F085E30E94EB
:1033900094028130D9F711115AC080E090E052C0F8
:1033A00019D2AE0161E080E09ACF0E949B0262E0F8
:1033B00088E00E949B02B8CF199B3AC0C091570782
:1033C000D0915807C132D10520F080E2C82FE0E04B
:1033D000DE2F6C2F8091590790915A0785DD8091DF
:1033E000590790915A078C0F9D1F90935A0780930D
:1033F000590780915707909158078C1B9D0B90930C
:10340000580780935707009771F400935C078091E9
:103410005B078111B7CF60E088E00E949B0281E0EA
:1034200080935B07AFCF803C910508F0ABCFEFCF27
:103430007ADD8077803709F0A5CF8BE30E94A50263
:1034400082E090E0CDB7DEB7E8E00C94F93262E0BC
:10345000812F61DCA2CF81E090E0F4CF1F93CF9366
:10346000DF93EC018981823761F58A81882329F015
:103470008337D1F462E081E04EDC80916C078230CA
:1034800009F055C080916B07823009F447C0833042
:1034900009F447C0813009F047C086E192E00E94FC
:1034A00090050E949D0536C0843719F462E082E0E1
:1034B000E3CF833619F462E083E0DECF60E080E0A2
:1034C000DBCF8337D1F610E006C06B54764F41E076
:1034D0000E9425061F5F612F70E09B01220F331FA2
:1034E000C90103968C0F9D1FFC014081442331F0DC
:1034F0002C0F3D1FF90124812111E7CF8A8141E082
:10350000833719F0843731F442E06DE677E085EBDC
:1035100099E0BDDEDF91CF911F91089580E192E0A7
:10352000BECF8AE092E0BBCF86E092E0B8CF82E0E7
:1035300092E0B5CFCF93DF93EB01DC01EC91AE2F9E
:10354000A295AF70B0E0A05EBE4F8C918883EF7003
:10355000F0E0E05EFE4F80818983DF91CF91089596
:10356000CF93DF93FC01EB01A08131818A2F8295FB
:103570008F7090E0805F9E4FFC018081AF70B0E063
:10358000A05FBE4F4C91A32FA295AF70B0E0A05F9B
:10359000BE4F2C91E32FEF70F0E0E05FFE4F6081B3
:1035A00091E08F3F09F090E031E04F3F09F030E0CB
:1035B000932B2F3FC1F0911116C06F3FA1F0F0E4A3
:1035C0008F9FC001112430E1439FA0011124842B5F
:1035D00094E0299F90011124822B862B888380E020
:1035E000DF91CF91089581E0FBCF0F931F93CF938D
:1035F000DF938C01DB0184E141110EC0E801E98118
:10360000CE2FCF70D0E0C059DE4F2881E295EF7009
:10361000F0E0E059FE4F8081E801E881CE2FCF70C5
:10362000D0E0C059DE4F6881E295EF70F0E0E059DC
:10363000FE4FE081D4E0ED9FF0011124962F92958A
:103640009F709E2B9C9330E1639FB0011124982FB3
:1036500096959695962B11969C931197411107C0BC
:10366000C0E48C9FC0011124282B12962C93DF916B
:10367000CF911F910F910895CF93DF93DC01EB0160
:1036800011969C91119780E050E0411117C012965D
:103690008C911297E82FEF73F0E0E05DFE4F5081C0
:1036A00024E0929FF0011124EC73FF278295869508
:1036B00086958370E82BE05DFE4F8081EC9120E1E0
:1036C000E29FD0011124A073BB2792959F70A92B74
:1036D000A05DBE4F6C91E695E695F0E0E05DFE4F93
:1036E000208191E06F3F09F090E031E02F3F09F039
:1036F00030E0932B5F3FB9F0911115C08F3F99F0E7
:1037000090E1299F90011124262B2883442321F046
:1037100080E0DF91CF91089520E1829FC0011124C4
:10372000852B8983F5CF81E0F4CF282F30E08A31D3
:1037300080F0C9014A9754E0959587955A95E1F72D
:103740008D5F2F5F3F4F90E0880F991F820F931F6F
:10375000089582E0F6CF9A01882331F0CA01611101
:103760000196880F991F0895CA01880F991F820F2B
:10377000931F96958795662311F0019602C020FD50
:10378000FCCF0895A0E0B0E0E8ECFBE10C94DB3264
:10379000EA017C0186E9F70181937F018B016F01CA
:1037A0005B01A40EB51EB601F2E0CF0ED11C0A15C6
:1037B0001B0559F4CC0FDD1FCE0DDF1D85E5888379
:1037C000CDB7DEB7EAE00C94F732C801B3DE0F5F85
:1037D0001F4FE9CFA0E0B0E0E0EFFBE10C94DD3259
:1037E000EC017B018A010115110539F00130110549
:1037F00049F441E0BE01C701F8DECDB7DEB7E8E02D
:103800000C94F9320230110539F440E0BE01C701D1
:10381000ECDE85E58B83F1CF6E0183E0C80ED11C11
:1038200040E0BE01C701E1DE82E0E80EF11C02507B
:103830001109E601D8CFA0E0B0E0E1E2FCE10C9490
:10384000D5325C016B013A0100E010E0E12CF12C73
:10385000C0E0D0E0812C912C92E1492E512C8614AD
:10386000970439F480E090E0CDB7DEB7E0E10C9446
:10387000F132B601C50174DE811151C0C30188194E
:1038800099090297A1F401151105E9F59E0120950A
:103890003095232F3327F601808190E028173907D0
:1038A00009F040C001E010E0E12CF12C22C08AE0D8
:1038B0008816910460F0C4010A97B2010E94AC32EC
:1038C0009C0191E0232B09F090E0E92EF12C0115E9
:1038D0001105D9F0C095D095DD27F601808190E0E3
:1038E000C817D907F9F400E010E0F0E0CF2F80E02E
:1038F000D82FFFEF8F1A9F0A82E0A80EB11CEFEFBE
:10390000CE1ADE0AACCF7801E5CFE114F10409F05C
:10391000BDCFF6016081CE01E4D1EC01EACF81E0B8
:1039200090E0A2CF82E090E09FCFA0E0B0E0EBE992
:10393000FCE10C94D7327C018B016A01612C712C63
:1039400022E1822E912CC114D10419F480E090E080
:1039500010C080E0C82FE0E0DE2FF1E0CF16D104E8
:10396000C9F441E0B801C70187DE882339F081E05E
:1039700090E0CDB7DEB7EEE00C94F332C095D09571
:10398000DD27F801808190E0C817D907F9F282E0BD
:1039900090E0EFCF40E0B801C7016EDE8111E7CFC4
:1039A000F2E0CF1AD108530182E0A80EB11CC11475
:1039B000D10459F0EBE0AE16B104F8F0C3010A9758
:1039C000B4010E94AC32892BC1F4C095D0959E0100
:1039D0003327F801818190E028173907C1F6CD2FF0
:1039E000DD27808190E0C817D90789F683E0E80ECB
:1039F000F11C0E5F1F4F3501A6CFF8016081CE018B
:103A0000F1E0CF16D104A9F46CD1EC019C01209512
:103A10003095232F3327F801818190E0281739074B
:103A200009F0B5CFF3E0EF0EF11C0E5F1F4F35012B
:103A300094CF57D1F801618154D1EC01F3CFA4E0C8
:103A4000B0E0E5E2FDE10C94D3328C017B011A0178
:103A50009A8389835B016C012AE0C20ED11C80E04D
:103A600090E0A981BA816D91BA83A9833AD1E981A5
:103A7000FA8131972081F50121935F0129813A81F3
:103A80002C153D0571F7D8011A964C911A9780951F
:103A900090951A962D913C911B9732272327322718
:103AA0008217930731F082E090E02496E2E10C94D3
:103AB000EF32F70142871B968C918387C1010C97E7
:103AC00062E170E00E94AC324B016801BCE0CB0EB9
:103AD000D11C5701ECE0AE0EB11C2CE030E03C8371
:103AE0002B838114910449F48B819C818215930569
:103AF00009F040C080E090E0D8CFBA82A9823601B8
:103B0000412C512C80E090E0D3016D913D01E9D032
:103B1000F30131972081E981FA812193FA83E983C6
:103B2000FFEF4F1A5F0A20E14216510469F7D601F0
:103B300050964C9150978095909551962C91519715
:103B4000342F8217930709F0AECFF501408B5196C1
:103B50008C91818B2B813C812E5E3F4F3C832B834C
:103B600031E0831A910842E1C40ED11C52E1A50E46
:103B7000B11CB7CFCB80DC80C00ED11E80E090E0BE
:103B8000A2E02A1A3108D6016D916D018B809C80CC
:103B9000BFEF8B1A9B0AEB81FC81E215F305B8F0AD
:103BA000F801E80DF91D809590952081362F821738
:103BB000930709F078CF2B813C812E0D3F1DD90151
:103BC0006C938081F701E80DF91D808393CF89D034
:103BD000F60131972081EB81FC81EE0DFF1D2083E2
:103BE0009C828B82D0CFA0E0B0E0E9EFFDE10C94A5
:103BF000D932EC018B017A014138510508F45FC0DC
:103C00006C014B015C018EE7A80EB11C80E090E0D6
:103C1000F60161916F0165D0F60131972081F401C1
:103C200021934F01AC14BD0499F7F50140818095B3
:103C300090952081318132272327322782179307DD
:103C400039F082E090E0CDB7DEB7ECE00C94F532CD
:103C5000F801E258FF4F4083FE01E158FF4F808199
:103C6000F801E158FF4F808380E8C82ED12C4E0127
:103C70008C0C9D1C80E090E05701F2E0AF1AB10877
:103C8000CA14DB04F8F0FE01EA0DFB1D408121E0BF
:103C9000E21AF108CE0DDF1D809590952881342F12
:103CA0008217930771F6F801EA0DFB1D40838881A6
:103CB0000E0D1F1DF801808380E090E0C4CFC12C61
:103CC000D12CD5CFF40161914F010BD0F401319784
:103CD0002081F801EC0DFD1D2083FFEFCF1ADF0AD4
:103CE000CFCF28E0492F55274627880F991F47FF38
:103CF00004C035E683273DE39327660F2150211149
:103D0000F1CF08950F931F93CF93DF93E898249AF0
:103D10002C9A8EE190E00E94CE042C988EE190E0E7
:103D20000E94CE042C9A8DE290E00E94CE0480E3A3
:103D30000E94A50284E690E00E94CE04CFECD2E07F
:103D4000FE01849109E013E0813408F183E30E94CD
:103D5000A50284E00E94D304CFEF84E30E94A50271
:103D60008077803139F08AE090E00E94CE04C15023
:103D7000C111F3CF81E08093D80ADF91CF911F91D9
:103D80000F9108952296FE0184918134F8F6FE0188
:103D900031966491FE0184910E949B020C171D07CD
:103DA00089F7D4CF4F925F926F927F928F929F92BA
:103DB000AF92BF92EF92FF920F931F93CF93DF9337
:103DC000EC018B01F880F39420E030E0672B11F0D8
:103DD00024E630E048E0F49EC00111246AE070E07F
:103DE0000E94C032620F731F80918F0290919002E7
:103DF0002C01612C712C4B01072E000CAA08BB086A
:103E0000481459046A047B0498F48FEB92E00E94F2
:103E10009005DF91CF911F910F91FF90EF90BF9090
:103E2000AF909F908F907F906F905F904F9008958C
:103E3000861B970B9093900280938F028091D80AF3
:103E4000811101C05FDF85E30E9494028D30C1F0D3
:103E50008AE50E94450585E40E94450582E50E94A9
:103E6000450582E50E94450581E30E94450585E3FD
:103E70000E9494020E9421060E949D0543DFC9CF43
:103E80008091D90A9091DA0AA091DB0AB091DC0AFC
:103E9000892B8A2B8B2BC1F40E94FE0285E30E94A2
:103EA00094028331B9F18AE50E94450585E40E94B8
:103EB000450582E50E94450582E50E94450582E3AD
:103EC000D4CF81E00E94D3044091870250918802B0
:103ED0006091890270918A028091D90A9091DA0AE0
:103EE000A091DB0AB091DC0A481759076A077B07E3
:103EF00041F340918702509188026091890270914C
:103F00008A020196A11DB11D84179507A607B70760
:103F1000C1F2C2CF012B51F00AE010E084E60E940A
:103F2000D3040150110901151105C1F72C988FE731
:103F30000E943A02EC2E0C2F1D2F802F8E198F1508
:103F400008F445C02C9AC8EC85E30E9494028D3099
:103F500059F085E30E949402833131F481E00E949C
:103F6000D304C150C111F0CF85E30E9494028D307B
:103F7000B9F08AE50E94450585E40E94450582E581
:103F80000E94450582E50E94450583E30E944505A0
:103F900085E30E9494020E9421060E949D05B2DEE4
:103FA0008091D80A811102C00E94AE0B80918702D5
:103FB00090918802A0918902B0918A028093D90AD7
:103FC0009093DA0AA093DB0AB093DC0A22CFF801BF
:103FD00081918F010E943A02B0CFACE0B0E0E3EFF4
:103FE000FFE10C94DF32FC018BE0898381818A83BD
:103FF0001B8282E08C8387818D8380858E8381857F
:104000008F83848188878581898786818A871B86BB
:104010001C8684E10E94D30460E070E0CE0101962A
:10402000C1DE8AE50E9445058E010F5F1F4F7E01AC
:104030008DE0E80EF11CF80181918F010E942106AC
:10404000E016F106C1F78091960285FF03C080E07B
:104050000E9421060E949D052C96E6E00C94FB32FE
:10406000CF93DF93EC013091E00A2091E10A909127
:10407000E20A832F822B892B882389F08B8180335E
:1040800019F08F7E803459F48F81381308C08885E9
:10409000281305C08985981302C0CE019EDF309198
:1040A000DD0A2091DE0A9091DF0A832F822B892B73
:1040B000882389F088818B3071F48B81803459F4A6
:1040C0008F81381308C08885281305C08985981307
:1040D00002C0CE0182DFDF91CF910895AEE1B0E062
:1040E000E4E7F0E20C94E0328091D80A882399F159
:1040F0004A9B5BC08FE30E9494028F778E3108F059
:104100008DE189832C988FEF0E943A0210E089811B
:10411000181728F180E00E943A02082F80E00E94E0
:104120003A022C9ACE0101969BDF109196021071F3
:10413000112309F18AE70E944505098110E0E1E0B9
:10414000F0E0EC0FFD1FE10FF11D80810E9445059D
:104150001F5F0117A0F76E96E5E00C94FC3280E03B
:104160000E943A02E2E0F0E0EC0FFD1FE10FF11DCA
:1041700080831F5FCCCF8AE50E944505F980E1E08E
:10418000F0E0EC0FFD1FE10FF11D80810E94210680
:104190001F5FF116A0F78091960285FF03C0802F64
:1041A0000E9421060E949D05D6CF85E30E949402BD
:1041B000813189F68AE30E94A50286E30E94A50266
:1041C00084E30E94A502C7CFAEE1B0E0EAEEF0E2E0
:1041D0000C94DF328C01FC018181823729F492DD5D
:1041E0006E96E6E00C94FB32833711F0863611F5BB
:1041F0004DE19E012F5F3F4F7901B901C801029641
:104200000E942506E82FE150FF0B298130E0C7010D
:10421000E217F30729F086EB92E00E949005E0CFC9
:1042200061E070E0F8012181233711F060E070E077
:10423000B9DDD6CF43E060EE7AE0813629F08737EA
:1042400041F443E06DED7AE0C80102960E94250634
:10425000C7CF1092D80AC4CF0F931F93CF93DF9389
:10426000E898249A2C9A8EE190E00E94CE042C9833
:104270008EE190E00E94CE042C9A8DE290E00E94A4
:10428000CE0480E30E94A50284E690E00E94CE0462
:104290002C9880E40E943A0208E113E0CBE0D3E0DE
:1042A000FE0184910E943A0221960C171D07C1F766
:1042B000809101010E943A02809102010E943A021B
:1042C000809103010E943A02CBE1D3E004E313E0C2
:1042D000FE0184910E943A0221960C171D07C1F736
:1042E0002C9A2C988EE70E943A02CBE2D0E0CE01C5
:1042F00021960E948D060E943A02C333D105B9F778
:104300002C9A83E30E94A50281E00E94D30481E0FD
:1043100080938402DF91CF911F910F910895A0E0C7
:10432000B0E0E5E9F1E20C94DD32EC0189818437FB
:10433000A9F468E071E0CE0102960E945B0640E2BB
:1043400060E080910801909109010E94A1050E94FE
:104350009D05CDB7DEB7E8E00C94F932833709F05C
:10436000A3C18A81823769F464E071E0CE010396CB
:104370000E945B0640E260E080910401909105019B
:10438000E4CF469A8091E50A811116C080915507C5
:10439000882329F081E08093E40A109255078091E8
:1043A000D80A882329F081E08093E30A1092D80A82
:1043B00053DF83E00E94D30486E30E94A5028AE3D0
:1043C0000E94A5028BE30E94A5020E94FE02FE014C
:1043D00001900020E9F7FE2EFC1AFA94FA948091DD
:1043E0000401909105012296892B09F444C031E221
:1043F00010E0F31215C0299A8091080190910901EB
:104400000E94CE04299880910601909107012AE02C
:10441000AC01249FC001259F900D11240E94CE0461
:10442000F5E0EF2E6E0101E00F1594F181E2299A7B
:10443000F812EBC080910601909107010E94CE0412
:104440002998809106019091070128E2FC012E9F96
:10445000C0012F9F900D11240E94CE041F5F212FB9
:10446000012E000C330B8091040190910501281757
:10447000390708F4C0CF8091E50A882309F4F9C010
:1044800080919602882309F4DFC00E941003DFC0E8
:104490000F5FF60181916F01803309F04AC0F1E2AC
:1044A000299AFF1222C080910601909107010E9473
:1044B000CE04299880910601909107010E94CE04B4
:1044C000299A80910601909107010E94CE042998B3
:1044D00080910601909107019C01E29EC001E39E3C
:1044E000900D11240E94CE049FCF809108019091DD
:1044F00009010E94CE042998809108019091090138
:104500009C01220F331F820F931F0E94CE04299A11
:1045100080910801909109010E94CE042998809110
:104520000801909109019C01220F331F820F931FF4
:10453000D9CF813309F048C031E2299AF31220C063
:1045400080910601909107010E94CE0429988091E4
:10455000060190910701AC01E49EC001E59E900D1B
:1045600011240E94CE04299A80910601909107019E
:104570000E94CE0429988091060190910701B2CF44
:1045800080910801909109019C01220F331F820F35
:10459000931F0E94CE0429988091080190910901EF
:1045A0000E94CE04299A80910801909109019C01F2
:1045B000220F331F820F931F0E94CE0429988091EF
:1045C0000801909109018ECF51E2299AF5120CC091
:1045D00080910601909107010E94CE042998809154
:1045E000060190910701BDCF8091080190910901CA
:1045F0000E94CE04299880910801909109019C01A4
:10460000220F331F820F931FCBCF8091080190910F
:1046100009010E94CE0429980FE180910801909130
:1046200009010E94CE0401500111F7CF1F5F212F15
:10463000012E000C330B8091040190910501281785
:10464000390708F4EFCE17CF86E30E94A5024698FB
:1046500089E60E94450583E70E94450511E01F1584
:104660000CF075CE89918033D9F40E9445051F5F07
:10467000F6CF8091E40A882341F01092E40A0E9468
:104680007F1481E08093550700CF8091E30A88234F
:1046900021F01092E30A36DBDACF0E94AE0BD7CFBF
:1046A000813319F386E4E1CF8237B9F4809155075D
:1046B000882329F081E08093E40A109255078091C5
:1046C000D80A882329F081E08093E30A1092D80A5F
:1046D000C3DD81E08093E50A3CCE863651F58A81C0
:1046E0008033F9F480E18093010180EB8093020133
:1046F00081E78093030189E60E94450586E60E94D2
:1047000045058AE30E944505809101010E9421062A
:10471000809102010E942106809103010E942106DE
:1047200016CE43E061E071E0CE0102960E942506BC
:10473000E2CF883721F58091E40A882351F0109266
:10474000E40A0E947F1481E0809355070E941003C1
:1047500007C08091E30A882331F01092E30AD2DA8D
:104760001092E50AF6CD82E090E00E94A9028091C5
:1047700096028111EBCF86E30E94A502F1CF83362A
:1047800009F0E7CD68E071E0CE0101960E945B067A
:10479000E0CD1092230B1092E20B83E080932C0B60
:1047A0008FEF8093240B0895DC01EDE2FBE0808124
:1047B00081110EC0AB2B29F58BE0EB3DF80719F00A
:1047C00010F0EBEDFBE0CF010895E80FF11DEFCF06
:1047D0009BE0EB3DF90770F71097B9F321819C91AD
:1047E0002913F3CF228111969C911197291759F320
:1047F000E80FF11D8081882321F09BE0EB3DF90754
:1048000068F3E0E0F0E0DFCF94E0899FF00111244D
:10481000E150F54F80818F3F91F08093270B81818C
:104820008093280B82818093290B838180932A0BAC
:1048300021E04CE064E087E29BE00C94D20808950C
:104840008CED9BE0B1DFDC01892B99F0E0912C0B22
:104850008C91E81770F4EA0FFB2FF11D8081809393
:10486000DE0B89E78093DF0B81818093E00B81E091
:10487000089580E008950F931F93CF93DF938C01E9
:104880008091960286FF15C084E50E944505E801E7
:104890000B5F1F4F89910E942106C017D107D1F7E6
:1048A0008091960285FF03C08AEF0E9421060E9434
:1048B0009D05DF91CF911F910F91089586E30E948E
:1048C000A5028091DE0B833579F48BE90E94D30435
:1048D00021E04CE065E08CED9BE00E94D2080E9454
:1048E00010038CED9BE0C7CF8BE4F0CFE7DF809126
:1048F000DE0B893631F081E08093DB0B89E2809317
:10490000240B0895CF9385E390E00E948D06809359
:10491000260B86E390E00E948D068093250BE0E154
:10492000FBE0CFEFC083C283C483C683C087C28746
:10493000C487C6872EDF10922D0B81E08093E60A94
:10494000AFEFBAE0CC93E7EEFAE08FEF9FEF918301
:10495000808313821282158214821496CC9314974A
:104960009783868311861086138612861896CC93B9
:1049700018979587848717861686118A108A1C9641
:10498000CC93938B828B158A148A178A168ACF91BF
:104990000895ABE0B0E0EFECF4E20C94D8328C0177
:1049A0006C012FEFC21AD20A45E0BE016F5F7F4F44
:1049B000C6010E942506843008F0E5C09981913037
:1049C000D1F4833079F46A8185E390E00E9488060F
:1049D0006B8186E390E00E94880694DF2B96EDE0E1
:1049E0000C94F4328091260B0E9421068091250BB5
:1049F0000E94210635C0923009F051C0EE24E394A4
:104A0000813031F081E09A81913009F080E0E82E28
:104A100080912D0B811104C084E393E00E949005E6
:104A20000DE21BE015C08BE00D32180719F080E293
:104A30000E944505F80181810E942106F8018281CA
:104A40000E942106E1100FC0F8018081080F111D9E
:104A5000F8018081882321F0FBE00B3D1F0718F34C
:104A60000E949D05BBCF8AE30E94450583E0F82E96
:104A7000F8018081F81640F7F3E0FF1629F0F0FE08
:104A800003C08CE20E944505DD24D394DF0CF801BD
:104A9000EF0DF11D80810E942106FD2CE9CF93309E
:104AA00049F480E090E080DE8D529B409EEA981BA6
:104AB000892F9ECF903149F500E11BE0E12CF12CCC
:104AC000F80180818F3FA1F0FF2019F080E20E9461
:104AD00045058E2D0E9421068AE30E944505F801B6
:104AE00080810E942106F80181810E942106F394B1
:104AF0000E5F1F4FE394F8E0EF12E2CF82E493E001
:104B0000F110AECF0E949005ABCF913151F480915E
:104B1000200B9091210B6DE770E00E94AC32862F44
:104B200067CF923109F09CCF0FEF1AE0E12CF12C06
:104B3000F80180818F3FE1F0FF2019F080E20E94B0
:104B400045058E2D0E9421068AE30E944505F80145
:104B500080810E942106F80181810E942106F801CE
:104B600082810E942106F80183810E942106F3942C
:104B70000C5F1F4FE394F4E0EF12DACFF11070CF27
:104B80008EE393E0BFCF7E0127E0E20EF11C44E00C
:104B9000B701C6010E9425064F81493608F496C028
:104BA0006A855885EFEFFAE020E030E080E090E0A1
:104BB0006C3009F06FC080E090E020E030E0608170
:104BC000461336C07181751333C0A2817985A7134E
:104BD0002FC08150954F4CE0FC014383C901880FE1
:104BE000991F820F931FFC01EE0FFF1FE951F54F34
:104BF00011821082880F991FFC01E751F54F118235
:104C0000108222E04CE064E0C7010E94D2088FE0ED
:104C10008A8722E04CE064E0C7010E94D20882E06B
:104C20008A8722E04CE064E0C7010E94D208D6CE19
:104C30006F3FF9F4FC01E150F54F408351838985C2
:104C400082838CE08383C901880F991F820F931F91
:104C5000FC01EE0FFF1FE951F54F11821082880F02
:104C6000991FFC01E751F54F118210821092E60A5C
:104C7000C8CF2F5F3F4F349604962430310509F09A
:104C80009ECFACCE019634962C5F3F4F8430910579
:104C900009F4A4CE70814713F5CF71817513F2CF5B
:104CA000A2817985A713EECF2150354FF901638397
:104CB000FC01EE0FFF1FE80FF91FEE0FFF1FE7517A
:104CC000F54F81E090E09183808388CEE981209147
:104CD000260BE217C0F1822F90E007964E2F50E08E
:104CE0008417950784F19A818091250B98132BC026
:104CF0009C819F3231F442E06CE0C8010E9441097E
:104D00006DCE8D819C32B9F480930F0B21E030E0A1
:104D10003093210B2093200BF4E08F9FC0011124CE
:104D200020918F0230919002820F931F90939002F6
:104D300080938F0253CEE21BEE0FF0E0E05FF44F62
:104D4000908381834BCE80E090E02EDD7C01F601E4
:104D500001900020E9F73197EC19FD09F695E795E8
:104D60007E2EDD24D394DE0EC7018D0D911D8D5254
:104D70009B408F3A91052CF088E393E00E949005C8
:104D80002DCEF701D0825701CC24C3948C2D880FEF
:104D90008150CD1480F0FBEDEF16FBE0FF0608F02C
:104DA0001DCE2FEFED2D721201C0E1E0EE0DFF2DB3
:104DB000F11D108213CE4501FFEF8F1A9F0A41E0CB
:104DC000B401800F912F911D0E94250622E02C1521
:104DD00048F4C0FC07C0F5018081843619F4818154
:104DE0008093220BC3945401D1CF0F931F93CF9381
:104DF000DF939091E60A91114AC0282F30E0E90133
:104E0000CC0FDD1FC20FD31FDE01AA0FBB1FA9519C
:104E1000B54F220F331F220F331FF901E150F54F19
:104E20009281977040E850E0491B51099AEF949F96
:104E30009001959F300D112435952795359527952F
:104E40002D933C938E01000F111F0551154FF80152
:104E5000208131812F5F3F4F31832083CC0FDD1FB5
:104E6000C751D54F488159814115510541F424302E
:104E7000310569F4C9DCF8011182108208C04130A3
:104E8000510551F4C1DC82E090E099838883DF9181
:104E9000CF911F910F91089542305105C1F7B4DCB5
:104EA00019821882E8CFA6E0B0E0E9E5F7E20C94B9
:104EB000DF328091250B8A831B8290910F0B9923FF
:104EC000D9F19330B1F587E791E09093210B80936E
:104ED000200B80E1E82E8BE0F82E10E00CE2F701C9
:104EE00020812F3FA1F080910F0B9091260B910F05
:104EF0009983882351F10C838D8321E04CE065E098
:104F0000CE0101960E94D208CE010196B4DC1F5F4B
:104F1000F2E0EF0EF11C183011F780910F0B88238F
:104F200021F08330A9F410920F0B2696E6E00C9442
:104F3000FB328DE790E0C9CF87708A512DE7829FC1
:104F4000C001112495958795C0CF2C838181D4CF42
:104F5000825080930F0BE9CF8091DB0B882351F0B7
:104F6000ADDC89E28093240B8091DB0B8150809330
:104F7000DB0B08950ECCFF920F931F93CF93DF931B
:104F8000FC01F080D181C281138104818FE580937F
:104F9000240B1092DB0B8091260B9091250B892B13
:104FA000882351F18091DC0B8F1104C08091DD0BBF
:104FB0008D1729F0EEDBF092DC0BD093DD0BD09156
:104FC000230BDF3FC9F0C093DE0B1093DF0B009380
:104FD000E00BCC2359F1D1111FC08091260B801713
:104FE00081F0043671F08DEA8C0F823010F0CD37ED
:104FF00051F48FEF8093230BCDB7DEB7E5E00C942F
:10500000FC32C435C9F3812F807F8036A9F7106741
:105010001093DF0B6BDCF0CF13DC8091E20B882365
:1050200079F08335B9F08C17D1F008C009DC8D2BED
:10503000882311F38091E20B882311F0AADBDCCFE7
:10504000ED2FF0E0EA5BFC4FE491E335F1F0CE1791
:1050500011F1F4CFC435B9F4DE5FD093230B809106
:105060002C0B8E5F80932C0BEBDB882309F44CC058
:105070008091DE0B8093E20B843661F68091220BE7
:105080008093E00BC7CFC335CFCFC43509F03AC00A
:10509000DE5FD093230B8091230BE82FF0E0E95BD8
:1050A000FC4F14911F3F21F31093DE0B97E7909371
:1050B000DF0B9091260B9093E00B8E5F8093230B78
:1050C0001092E20B8E30D1F48CED9BE06DDBDC01B5
:1050D000892B99F02C9130E08BED9BE0821B930B98
:1050E000ED01C817D907B0F08A179B07C8F08A1BD3
:1050F0009B0B8A0F9B1FFC0110824BDB112309F4D1
:105100007BCF88CFC335A4CF8091230B8E5F809354
:10511000230BC1CFFE01E20FF31F40814993E1CF82
:1051200080E090E0E6CFFF920F931F93CF93DF9341
:10513000EC01FC0101900020E9F731978F01081B79
:10514000190B8981823771F487E390E00E94A902EC
:105150000E94100381E08093E30BCDB7DEB7E5E05A
:105160000C94FC32833711F5F02E2C988FE70E94B7
:105170003A028EEF800F0E943A02229612E01F152B
:1051800060F02C9A0E94FE028AE30E9494028F77BC
:10519000811108C00E941003E0CF89910E943A0259
:1051A0001F5FEDCF81E00E94D304EECF1092E30B9E
:1051B000D4CFA0E0B4E0EFEDF8E20C94DD328091C2
:1051C000E30B882311F1813021F5809187029091C2
:1051D0008802A0918902B0918A022091E40B2817DD
:1051E000A1F085E30E949402813129F48AE30E94B0
:1051F000A5020E9410038091870290918802A091DD
:105200008902B0918A028093E40BDC5FE8E00C94A1
:10521000F9328FE30E949402F82E2C988FEF0E94AF
:105220003A028E010F5F1F4F6801E02E8C2D801B0C
:105230008F1588F02C9A81E080938D02802F8E1933
:105240008F1580F00E949D058FEF80938D0281E085
:105250008093E30BDACF80E00E943A02F60181935B
:105260006F01E4CFF80181918F010E944505E6CFDF
:105270000F931F93CF93DF93EC0100E0802F90E01A
:105280009C01220F331F280F391FF901E457FF4FEC
:105290001491812FF901E357FF4F25913491112388
:1052A00089F0209741F480E20E944505812F0E94F9
:1052B00045050F5FE3CF98819113FBCFCE01F90134
:1052C000099581E0DF91CF911F910F910895CF93C0
:1052D000C0918D0280938D028091E90B9091EA0B31
:1052E000892B21F4C0938D02CF91089585EE9BE028
:1052F0000E94CD078F3F81F32091F5133091F61373
:105300008A3011F08D3011F52115310529F329501E
:105310003C4EF901108287EF93E1AADF811111C0A1
:105320008CE693E00E94900587EF93E10E9485054B
:1053300084E593E00E94900580E090E099DF0E9470
:105340009D051092F6131092F513C6CF2115F4E0C7
:105350003F0708F0C1CFA9014F5F5F4F5093F6138D
:105360004093F51329503C4EF9018083B5CF1F922D
:105370000F920FB60F9211240BB60F922F933F93FB
:105380004F935F936F937F938F939F93AF93BF934D
:10539000EF93FF938091EF0F9091F00F892BC9F05D
:1053A0008BEE9FE00E94CD078093C600FF91EF91A6
:1053B000BF91AF919F918F917F916F915F914F912D
:1053C0003F912F910F900BBE0F900FBE0F901F902B
:1053D00018958091C1008F7D8093C100E7CF1F9207
:1053E0000F920FB60F9211240BB60F922F933F938B
:1053F0004F935F936F937F938F939F93AF93BF93DD
:10540000EF93FF9388B190E4892788B96091C60033
:105410008091C0008871811104C085EE9BE00E94DC
:10542000AD07FF91EF91BF91AF919F918F917F91C8
:105430006F915F914F913F912F910F900BBE0F9005
:105440000FBE0F901F9018959C0197FF04C082E03B
:105450008093C0003F773093C5002093C40088E953
:105460008093C10086E08093C20008958091C100BE
:1054700085FD0BC08091EF0F9091F00F892B29F0E3
:105480008091C10080628093C1000895E091F31380
:10549000F091F41381E00995E9CFE4E6F0E0808132
:1054A0008B7F80832F9A84B1806B84B9269880E5A6
:1054B0008CBD8DB581608DBD08951092B90080E2DC
:1054C0008093B800089594EA9093BC009091BC003A
:1054D00097FFFCCF9091B900987F983011F09031F0
:1054E00099F48093BB0084E88093BC008091BC0059
:1054F00087FFFCCF9091B900987F983119F081E037
:10550000903409F480E0089581E0089584E980935F
:10551000BC008091BC0084FDFCCF08958093BB004B
:1055200084E88093BC008091BC0087FFFCCF909101
:10553000B900987F81E0983209F480E0089584EC06
:105540008093BC008091BC0087FFFCCF8091BB00A2
:10555000089584E88093BC008091BC0087FFFCCF55
:105560008091BB000895A6E0B0E0E9EBFAE20C946C
:10557000DD3220E030E040E251E469837A838B83BE
:105580009C8369817A818B819C810E9400356B01AB
:105590007C016983DA828B83FC8269817A818B81C9
:1055A0009C810E9458348B018E839D839B01AC01AA
:1055B00069817A818B819C810E940A332FE335E3D4
:1055C0004EE05FE369837A838B839C8369817A8170
:1055D0008B819C810E94FC3487FD0DC0C982DA82D8
:1055E000EB82FC8269817A818B819C810E946F337E
:1055F0008B018E839D8309831A838E818B838D819A
:105600008C8369817A818B819C810E94EA33CB01F2
:105610002696E8E0EEC78091091890910A18892B28
:1056200059F08091051890910618009729F001977C
:105630009093061880930518089581E090E02091DA
:105640000F1830911018232B11F480E090E008958A
:1056500081E090E020910D1830910E18232B11F469
:1056600080E090E00895109200181092FF171092B9
:10567000FC171092FB171092FE171092FD17109254
:10568000FA171092F9171092121810921118E3E1FC
:10569000F8E180E5DF011D928A95E9F70895909180
:1056A000F8178927E82FF0E0E058FE4F80818093BB
:1056B000F8170895A0E0B0E0EFE5FBE27EC703E154
:1056C00018E1C0E0D0E08091111890911218C8172D
:1056D000D90724F0CDB7DEB7E8E08BC7219640E2CA
:1056E00060E0CE010E94A1058AE30E9445056801A1
:1056F00088E0C80ED11C7601F70182917F010E94DB
:105700002106E016F106C1F70E949D058601DBCF58
:1057100080E3D9DE882321F0F9DE80E090E008956F
:10572000F5DE81E090E00895FF920F931F93CF93F1
:10573000DF93C62FD42FF52EC6DE182F882381F1D4
:10574000E5DE86E40E94450581E60E94450589E67E
:105750000E9445058CE60E94450585E60E944505A8
:1057600084E60E94450580E20E94450589E40E9486
:10577000450582E30E94450583E40E9445050E9499
:105780009D05C12F8C2FCDB7DEB7E5E035C70D2FB6
:105790001F2DF80181918F01C1DEC150D02FF12E54
:1057A000C111F5CFB3DEEECFA0E0B0E0E9EDFBE252
:1057B00005C7C62F8A018F5F86DED82F882309F49C
:1057C0003EC0A4DE86E40E94450581E60E944505B0
:1057D00089E60E9445058CE60E94450585E60E9403
:1057E000450584E60E94450580E20E94450589E45E
:1057F0000E94450582E30E94450583E40E94450519
:105800000E949D058D2FCDB7DEB7E7E0F3C67C0182
:1058100096DEF70181937F01CF012D2D281B2230C9
:10582000B0F760E070E0CC2319F0C1506C2F70E04D
:10583000060F171F8EDEF801808368DEE3CFC801F4
:10584000DC2ED00EEACFA2E0B0E0E8E2FCE2BAC67D
:105850008A83AE014E5F5F4F61E080E365DF182F02
:10586000813021F589E40E94450582E30E944505C7
:1058700083E40E94450580E20E94450586E40E947B
:10588000450581E60E94450589E60E9445058CE6AE
:105890000E94450585E60E94450584E60E9445056F
:1058A0000E949D05812F2296E3E0A8C6AE014F5FBE
:1058B0005F4F61E080E378DF10E0F4CFA2E0B0E07A
:1058C000E3E6FCE27FC689836A83AE014F5F5F4FE8
:1058D00062E080E329DF182F813021F589E40E94FE
:1058E000450582E30E94450583E40E94450580E268
:1058F0000E94450586E40E94450581E60E94450513
:1059000089E60E9445058CE60E94450585E60E94D1
:10591000450584E60E9445050E949D05812F22963B
:10592000E3E06CC6AE014F5F5F4F61E080E33CDFB8
:1059300010E0F4CF80EF87DF811109C064E082EDD1
:10594000BDDF91E0811190E0892F90E0089580E023
:10595000FCCFA1E0B0E0EEEAFCE235C660EF81EEFC
:10596000ADDFAE014F5F5F4F61E080E31DDF8981F6
:1059700080FDF7CF2196E2E042C6109210181092F7
:105980000F1884EB60DFE5DF82FD04C0869581702F
:1059900090E0089582E0FCCFCF93C82FDADF61E07A
:1059A000C11101C060E067956627679587E886DFCB
:1059B000D0DFCF91089581E0EFDFCBDF85FB882733
:1059C00080F90895CF93C82FC4DF6C2F85EA76DF66
:1059D000C0DFCF910895CF93DF93EC01CEDF85E553
:1059E000F1DF8F81EFDF8E81EDDF8D81EBDF8C8149
:1059F000E9DF8B81E7DF8A81E5DF8981E3DF888169
:105A0000E1DFDF91CF910895A0E0B0E0E9E0FDE2B1
:105A1000D4C51092F8170091FB171091FC170115CF
:105A2000110509F049C0A9DF892B91F410920018E3
:105A30001092FF171092FC171092FB171092FE178E
:105A40001092FD1780E090E0CDB7DEB7E8E0D1C559
:105A500080EFB8DFE12CF12CDD24D394C1E0D0E05D
:105A6000AADFC82EA8DF2091F9173091FA1791E02C
:105A7000C91234C0813009F04EC0C134D105E4F000
:105A80008091F817811118C0109300180093FF1728
:105A90000115110531F481E090E09093FC1780939B
:105AA000FB178091FD179091FE178017910721F445
:105AB0001092FE171092FD17E091F917F091FA1766
:105AC00083E0EE0FFF1F8A95E1F7ED5EF74E8081D0
:105AD000882309F4ABCF81E090E0B6CFC81257C05D
