:100000000C94301B0C944E1B0C944E1B0C944E1BEA
:100010000C944E1B0C944E1B0C94F32F0C945940D3
:100020000C945A400C944E1B0C94E5490C944E1BB6
:100030000C944E1B0C944E1B0C944E1B0C944E1B9C
:100040000C944E1B0C948D2F0C944E1B0C944E1B39
:100050000C944E1B0C94181E0C944E1B0C944E1BAF
:100060000C944E1B0C944E1B0C944E1B0C944E1B6C
:100070000C944E1B0C944E1B0C944E1B0C944E1B5C
:100080000C944E1B0C944E1B0C944E1B0C944E1B4C
:100090000C944E1B0C944E1B42EB2143DD1C46FC82
:1000A0002947FF294DEC43509B39525621546A325F
:1000B000566C2257982158692B61123F6312416593
:1000C0001722662344649E386CDA2172B326735B70
:1000D00040747A1E75584577922778A31C0000005B
:1000E0002A03430055005200000016036200750009
:1000F000730077006100720065002E0064006500E7
:1001000000000403090409024300020100803209CF
:100110000400000102020100052400011005240171
:1001200003010424020605240600010705820308D2
:1001300000FF09040100020A000000070504024054
:1001400000000705830240000012011001020000B8
:1001500008EB034B2000000102DC01202F200020CF
:100160003D2000072E050DD391FF080500000C006F
:1001700021656A2D3B1322F862073F181D1CC7003A
:10018000B0876BF8B611EA2A001F41000D2E2D072B
:10019000D3913D04320000060021656A55E4302306
:1001A000B900070018146C070090876BF85611E926
:1001B0002A001F410000030F1E2627000000030F26
:1001C0001E2536386700030F256740605000030F77
:1001D000275188838100030F2750C8C3C20027001E
:1001E0000000000000006700000000000000500058
:1001F0000000000000008100000000000000C200BC
:1002000000000000005620312E36382043555200A1
:10021000202F2000203D20004C4F56460D0A004262
:100220004F56460D0A004E2F4100454F420D0A0021
:100230004E2F41004E2F410000535300547D7DFF4F
:10024000FF4B4B7E7E0020697320756E6B6E6F775F
:100250006E2920557365206F6E65206F66003F2004
:100260002800436F6E74726173743A00FFFFFFFFE2
:10027000FFFFFFFFFFFFFFFFFFFFFFFFFFFFFFFF8E
:10028000FFFFFFFFFFFFFFFFFFFD1FFFFFF2CFFF9D
:10029000FFFFFFFFFFFFFFFFFFFFFFFFFFFFFFFF6E
:1002A000FFFFFFFFFFFFFFFFFFFFFFFFFFFFFFFF5E
:1002B000FFFFFFFFFFFFFFFFFFFFFFFFFFFFFFFF4E
:1002C000FFFFFFFFFFFFFFFFFFFFFFFFFFFFFFFF3E
:1002D000FFFFFFFFFFFFFFFFFFFFFFFFFFFFFFFF2E
:1002E000FFFFFFFFFFFFFFFFFFFFFFFFFFFFFFFF1E
:1002F000FFFFFFFFFFFFFFFFFFFFFFFFFFFFFFFF0E
:10030000FFFFFFFFFFFFFFFFFFFFFFFFFFFFFFFFFD
:10031000FFFFFFFFFFFFFFFFFFFFFFFFFFFFFFFFED
:10032000FFFFFFFFFFFFFFFFFFFFFFFFFFFFFFFFDD
:10033000FFFFFFFFFFFFFFFFFFFFFFFFFFFFFFFFCD
:10034000FFFFFFFFFFFFFFFFFFFFFFFFFFFFFFFFBD
:10035000FFFFFFFFFFF0006FFFFFFFFFFC000FFF3D
:10036000FFFFFFFFFFFFFFFFFFFFFFFFFFFFFFFF9D
:10037000F00FFFFFFFFFFFFFFFFFF00FFFFFFFFF8B
:10038000FFFB200FFFFFFFFFF00FFFFFFFF00FFF4E
:10039000FFFF00FFF00FFFFF0000FFFFFFFFFFFF69
:1003A000FFFFFFFFFFFFFFFFFFFFFFFFFFFFFFFF5D
:1003B000FFFFFFFFFFFFFFFFFFFFFFFFFFFFFFFF4D
:1003C000FFFFFFFFFFFFFFFFFFFFFFFFFFFFFFFF3D
:1003D000FFFFFFFFFFFA100FFFF0FFFFF0019FFF8D
:1003E000FFFFFFFFFFFFFFFFFFFFFFFFFFFFFFFF1D
:1003F000FFFF0FFFFFFFFFFFFFFFFFFFFFFF909FCC
:10040000FFF35FFFFFF72FFFFFFFFFFFFFFFFFFF80
:10041000FFFFFFFFFFFFFFFFFFFFFFFFFFFFFFFFEC
:10042000FFFFFFFFFFFFFFFFFFFFFFFFFFFFFFFFDC
:10043000FFFFFFFFFFFFFFFFFFFFFFFFFFFFFFFFCC
:10044000FFFFFFFFFFFFFFFFFFFFFFFFFFFFFFFFBC
:10045000FFFFFFFFFFFFFFFFFFFFFFFFFFFFFFFFAC
:10046000FFFFFFFFFFFFFFFFFFFFFFFFFFFFFFFF9C
:10047000FFFFFFFFFFFFFFFFFFFFFFFFFFFFFFFF8C
:10048000FFFFFFFFFFFFFFFFFFFFFFFFFFFFFFFF7C
:10049000FFFFFFFFFFFFFFFFFFFFFFFFFFFFFFFF6C
:1004A000FFFFFFFFFFFFFFFFFFFFFFFFFFFFFFFF5C
:1004B000FFFFFFFFFFFFFFFFFFFFFFFFFFFFFFFF4C
:1004C000FFFFFFFFFFFFFFFFFFFFFFFFFFF00FFF3B
:1004D000FFFFFFFFFFF00FFFFFFFFFFFFFFFFFFF2B
:1004E000FA07FFFFFFFFFFFFF00FFFFFFFFFFFFF18
:1004F000FFFFF00FFFFFFFFFFFF20DFFFFFFFFFF0A
:10050000F00FFFFFFFF00FFFFFFF00FFF00FFFFFF7
:10051000FF00FFFFFFFFFFFFFFFFFFFFFFFFFFFFEA
:10052000FFFFFFFFFFFFFFFFFFFFFFFFFFFFFFFFDB
:10053000FFFFFFFFFFFFFFFFFFFFFFFFFFFFFFFFCB
:10054000FFFFFFFFFFFFFFFFFFFFFFFFFFF10CFFBC
:10055000FFF0FFFFFFC00FFFFFFFFFFFFFF00FFFE8
:10056000F00FF00FFFFFFFFFFFFF0FFFB11AFFFFBC
:10057000FFA107FFFFF81CFFFFC0AFFFFFFC0BFF51
:10058000FFF0FFFFFFFFFFFFFFFFFFFFFFFFFFFF8A
:10059000FFFFFFFFFFFFFD2FFF92018FF0000FFF16
:1005A000FB50027EFB50015CFFFF800FF000000F4C
:1005B000FFB3019FF0000000FD40004CFF51028F8F
:1005C000FFFFFFFFFFFFFFFFFFFFFFFFFFFFFFFF3B
:1005D000FFFFFFFFFFA202AFFF5003CFFFF403FFB7
:1005E000F000014DFFE51029F00015CFF0000000EC
:1005F000F0000000FFE51029F00FFF00F000000FF1
:10060000FFFF0000F00FF905F00FFFFFF004F50009
:10061000F006FF00FF92029FF000026EFF92028F31
:10062000F000016EFF71004BF000000FF00FFF00B3
:10063000F20FFF0113FFFF40F50BFD0350BFFC035A
:10064000F0000000FFF00FFFF36FFFFFFFF00FFF60
:10065000FF705FFFFFFFFFFFFFD27FFFFFFFFFFF86
:10066000F00FFFFFFFFFFFFFFFFFF00FFFFFFFFF98
:10067000FFF00FFFFFFFFFFFF00FFFFFFFFFFFFF88
:10068000FFFFFFFFF00FFFFFFF00FFFFFFFFFFFF78
:10069000FFFFFFFFFFFFFFFFFFFFFFFFFFFFFFFF6A
:1006A000FFFFFFFFFFFFFFFFFFF00FFFFFFFFFFF59
:1006B000FFFFFFFFFFFFFFFFFFFFFFFFFFFFFFFF4A
:1006C000FFFFFFFFFFF00FFFFFF0FFFFFFF00FFF47
:1006D000FFFFFFFFFFF00FFFF00FF00FFFF08D0C9B
:1006E000FD40000F1CC1FFFFFF00EAFFFFFFFFFFFF
:1006F000FF50CFFFFFFD04FF56E0E74FFFF00FFF75
:10070000FFFFFFFFFFFFFFFFFFFFFFFFFFFFF5AF53
:10071000FB05E70AFFF00FFFF3AEF904F3AEFB01B0
:10072000FFFA000FF00FFFFFFC04EE7FFFFFFB015D
:10073000F10BFC01F607F809FFFFFFFFFFFFFFFFCA
:10074000FFFFFFFFFFFFFFFFFFFFFFFFFF6ED00F69
:10075000F26EFA2FFFF000FFF00FFB02FE11BFD583
:10076000F00FE20BF00FFFFFF00FFFFFFD11CFD7EF
:10077000F00FFF00FFF00FFFFFFFFF00F00FB02FA3
:10078000F00FFFFFF000F100F000EF00FB05E70ABB
:10079000F00FF804FB05E70AF00FF803F50AFEB4C2
:1007A000FFF00FFFF00FFF00F50CFD0432FFFF31EB
:1007B000FE02F30DD01FF20DFFFFFC00FFF00FFF54
:1007C000FB0FFFFFFFF00FFFFC000AFFFFFFFFFF23
:1007D000FFFFFFFFFFFFFFFFF00FFFFFFFFFFFFF28
:1007E000FFFFF00FFFFFFFFFFFF00FFFFFFFFFFF17
:1007F000F00FFFFFFFFFFFFFFFFFFFFFF00FFFFF07
:10080000FF00FFFFFFFFFFFFFFFFFFFFFFFFFFFFF7
:10081000FFFFFFFFFFFFFFFFFFFFFFFFFFFFFFFFE8
:10082000FFF00FFFFFFFFFFFFFFFFFFFFFFFFFFFD7
:10083000FFFFFFFFFFFFFFFFFFFFFFFFFFF00FFFC7
:10084000FFF0FFFFFFF00FFFFFFFFFFFFFF00FFFC5
:10085000F00FF00FFFC0D81FF10C0E7F1CD0FFFF70
:10086000FF40BFFFFFFFFFFFFF20EFFFFFFF01FF84
:10087000E70006DFFFF00FFFFFFFFFFFFFFFFFFFB7
:10088000FFFFFFFFFFFFE1FFF40DFD02FFF00FFF91
:10089000FFFFFF00FFFFFB02FFB0500FF00FFFFF55
:1008A000F40DFFFFFFFFF209F40BFB02F00EFF0255
:1008B000FFF00FFFFFF00FFFFFFFFF93FFFFFFFFB2
:1008C000F39EFFFFFFFFB02F93E5030FFFD040CF54
:1008D000F00FFF00F509FFFFF00FFD03F00FFFFF22
:1008E000F00FFFFFF50AFFFFF00FFF00FFF00FFF13
:1008F000FFFFFF00F00D01EFF00FFFFFF001C00060
:10090000F0009F00F30DFD02F00FFF00F30DFD025C
:10091000F00FFF00F00EFFFFFFF00FFFF00FFF00E2
:10092000FB08FA0950F21F23FF80506FF609A05F01
:10093000FFFFE10BFFF00FFFFF19FFFFFFF00FFFBD
:10094000E11E21EFFFFFFFFFFFFFFFFFFF9103DF2E
:10095000F00503EFFF92029FFE30400FFF7005EF9E
:10096000F000000FFE30400FF005009FF0000FFF79
:10097000FF0000FFF00F908FFF00FFFF0400510702
:10098000F005009FFF7006FFF00503EFFE30400FFB
:10099000FF00500FFD4003AFF000000FF00FF00F0D
:1009A000F20FF01F14FFFF51F509A04FF20EE01FE8
:1009B000F000000FFFF00FFFFFF0FFFFFFF00FFF51
:1009C000FFFFFFFFFFF00FFFF00FF00FD000000060
:1009D000F1090FFFB10AFA68FFA03FFFFFFFFFFF19
:1009E000FF00FFFFFFFF00FFE70006DFFFF00FFF44
:1009F000FFFFFFFFFFFFFFFFFFFFFFFFFFFF78FF8E
:100A0000F00E1F00FFF00FFFFFFFFA07FFF0004E90
:100A1000FE15F00FF000028FF104004EFFFFC01F23
:100A2000FF50004EF00EFF00FFF00FFFFFF00FFF32
:100A3000FFFB5002F0000000F3005CFFFFFB04EF3F
:100A40003B76E70FFF80A06FF00FFB03F10EFFFF77
:100A5000F00FFE00F00FFFFFF00FFFFFF10EFFFFA2
:100A6000F00FFF00FFF00FFFFFFFFF00F0020BFF92
:100A7000F00FFFFFF0036200F0061F00F10EFF0011
:100A8000F00FFE00F10EFF00F00FFE00F3018DFFEE
:100A9000FFF00FFFF00FFF00FE03F50D80E00E05E5
:100AA000FFF100EFFE0110EFFFFF409FFFF00FFF8F
:100AB000FF82FFFFFFF00FFF51EFE14FFFFFFFFF4E
:100AC000FFFFFFFFFF5EC02FF009A03FF904EE7F9C
:100AD000F509A00FF809B05FFFF00FFFF609A00FAE
:100AE000F00AD00FFFF00FFFFFFF00FFF00B06FF33
:100AF000FF00FFFF00D00D01F00AD00FF809A06F32
:100B0000F009A03FF509A00FFF006FAFF10CFD5FEA
:100B1000FFF00FFFF00FF00FF70CD05F42FFFF3236
:100B2000FE1120EFF80BC06FFFFFC01FFFA01FFFDB
:100B3000FFF0FFFFFFF309FFFFFFFFFFFFF10FFFD4
:100B4000FFFFFFFFFF06D0BFFD40006EFFA66BFF5B
:100B5000FA050AF0FFFFFFFFFF00FFFFFFFF00FFA6
:100B600056E0E74F00000000FFFFFFFFFF0000FF1F
:100B7000FFFFFFFFFFFE1EFFF00F1F00FFF00FFF44
:100B8000FFFFB05FFFFFF705F15FF00FF4CFE50661
:100B9000F008F903FFFF308FF807F806F408F900B2
:100BA000FFFFFFFFFFFFFFFFF82017DFF00000004F
:100BB000FFD71028FFF10EFF1E1EFE0FFF30F02F93
:100BC000F000002EF00FFFFFF00FFF00F000000F0D
:100BD000F000000FF00FF000F0000000FFF00FFF3A
:100BE000FFFFFF00F00005FFF00FFFFFF008060019
:100BF000F00D0C00F00FFF00F00FF804F00FFF00F5
:100C0000F00FF804FE40004EFFF00FFFF00FFF0062
:100C1000FF11F21FA0B01A08FFF705FFFF8006FFC3
:100C2000FFF606FFFFF00FFFFFE0BFFFFFF00FFF33
:100C3000FFFFFFFFFFFFFFFFFFFFFFFFFFFFF00FC3
:100C4000F00EE00FF10DFFFFF10EE00FF10EF00FCF
:100C5000FFF00FFFF10EE00FF00FF00FFFF00FFFAE
:100C6000FFFF00FFF0012FFFFF00FFFF00F00F006C
:100C7000F00FF00FF10EE01FF00EE00FF10EE00F9D
:100C8000FF00EFFFF104AEFFFFF00FFFF00FF00FDA
:100C9000FC0890BF80F11F06FFA009FFFC0780CF72
:100CA000FFFD11CFF001BFFFFFF0FFFFFFFC100FB2
:100CB000F9106DE7FFF32FFFFFFFFFFFFD0BB0EF14
:100CC000FFFF0803A6BFB11AF10E11D0FFFFFFFF0F
:100CD000FF20EFFFFFFE01FFFFF0FFFF000000001D
:100CE000FFFFFFFFFF0000FFFFFFFFFFFFF96FFFA8
:100CF000F00EFF00FFF00FFFFFFB04FFFFFFFE0001
:100D0000F0000000FFFFFE00F00EFE00FFFC00FF01
:100D1000F00EFF00FE400300FFFFFFFFFFFFFFFF9D
:100D2000F007FFFFFFFFFFFFFFFFF900FFF00FFFDE
:100D30000F0FFF0FFE00000EF00FFB03F10EFFFF81
:100D4000F00FFF00F00FFFFFF00FFFFFF10EFF00AD
:100D5000F00FFF00FFF00FFFFFFFFF00F00720DFA5
:100D6000F00FFFFFF00C0900F00F3400F00EFF0051
:100D7000F000026EF00EFF00F000004EFFFE810258
:100D8000FFF00FFFF00FFF00FF50D03FD063540A79
:100D9000FFE100EFFFF00EFFFF904FFFFFF00FFFAE
:100DA000FFF54FFFFFF00FFFFFFFFFFFFFFFFFFF0C
:100DB000FFFFFFFFFB30000FF00FF00FF00FFFFF02
:100DC000F00FF00FF000000FFFF00FFFF00FF00F2B
:100DD000F00FF00FFFF00FFFFFFF00FFF0000EFF1E
:100DE000FF00FFFF00F00F00F00FF00FF00FF00F0B
:100DF000F00FF00FF00FF00FFF00FFFFFB30008F40
:100E0000FFF00FFFF00FF00FFF0350EFC0C00C0A10
:100E1000FFF00EFFFF1331FFFFD10DFFFFA01FFFFB
:100E2000FFF0FFFFFFF209FFF6EE8107FFFFFFFF74
:100E3000FFFFFFFF0000000CF7FF0F00FFFF1CC0CB
:100E4000F00E9002FFFFFFFFFF50DFFFFFFD04FFEA
:100E5000FFFFFFFFFFF00FFFFFFFFFFFFFFFFFFFA1
:100E6000FFFFFFFFFFF1EFFFF30DFD02FFF00FFFAC
:100E7000FFA04FFFFFFFFF00FFFFF00FFFFFFE008F
:100E8000F30EFF00FFF308FFF00EFE00FFFFFE036E
:100E9000FFFFFFFFFFFFFFFFF82027DFF00000004C
:100EA000FFD72028FFFFFFFF0E1EFE0FFC07F80AEA
:100EB000F00FFF00F509FFFFF00FFC03F00FFFFF3D
:100EC000F00FFFFFF50BFF00F00FFF00FFF00FFF2B
:100ED000FFFFFF00F00FB02FF00FFFFFF00FFF003C
:100EE000F00FA000F40DFD02F00FFFFFF40DFD0266
:100EF000F00FE40BFFFFFE00FFF00FFFF00FFF000D
:100F0000FFB0708FE007900CFF70605FFFF00FFF85
:100F1000FC02EFFFFFF00FFFFFFC0EFFFFF00FFFE3
:100F2000FFFFFFFFFFFFFFFFFFFFFFFFF10CF00FD1
:100F3000F00EF00FF20EFFFFF10EE00FF10EFFFFCB
:100F4000FFF00FFFF10EE00FF00FF00FFFF00FFFBB
:100F5000FFFF00FFF00C05FFFF00FFFF00F00F0098
:100F6000F00FF00FF10EE01FF00EF00FF10EE00F9A
:100F7000FF00FFFFFFFE900FFFF00FFFF00FF00FDD
:100F8000FF4113FFE072370DFF8006FFFF5105FFA1
:100F9000FE10CFFFFFF00FFFFFF0FFFFFFF00EFF8F
:100FA000FFFFFFFFFFF00FFFFFFFFFFFF34E08FF04
:100FB000F06E0B02FFFF1CD0F507E006FFFFFFFFFE
:100FC000FFC09FFFFFFC0BFFFFFFFFFFFFF00FFFC6
:100FD000FFF00FFFFFFFFFFFFFF00FFFFFA5FFFF79
:100FE000FB05F70AFFF00FFFF905FFFFF4BFE70469
:100FF000FFFFF00FF4DFE606FA08F905FFC00FFF68
:10100000F607F804FF6EE50BFFF00FFFFFF00FFF90
:10101000FFFB5002F0000000F3005CFFFFF00FFF49
:101020004A66F70FF70BFD04F00FFB01FE01BFE569
:10103000F00FE40BF00FFFFFF00FFFFFFD02DE00EB
:10104000F00FFF00FFF00FFFF4BEFA01F00FF40AFB
:10105000F00FFFFFF00FFF00F00FF100FB05F70AA4
:10106000F00FFFFFFB05F708F00FFD01E3AEFB02F9
:10107000FFF00FFFF509FA03FFE000DFF00BD00EE1
:10108000FE02F30DFFF00FFFF11DFFFFFFF00FFF5A
:10109000FFFF36FFFFF00FFFFFFFFFFFFFFFFFFF28
:1010A000FFFFFFFFF10DA00FF009A03FF904EE7F55
:1010B000F509A00FF807FE5FFFF00FFFF508A00F7E
:1010C000F00FF00FFFF00FFFFFFF00FFF00F40DF0A
:1010D000FF30AFFF00F00F00F00FF00FF809A06F26
:1010E000F008A04FF509A00FFF00FFFFF4DFD01FAD
:1010F000FFF10DFFF10CB00FFFA008FFF006900FFD
:10110000FE0230DFFFB00BFFF10CFFFFFFF00FFF1F
:10111000FFF0FFFFFFF00FFFFFFFFFFFFFF00FFFEC
:10112000FFFFFFFFE0AC0EFFFB50005EFFFFB10AC8
:10113000FE500402FFFFFFFFFFF25FFFFFF72FFFEC
:10114000FFFFFFFFFFF00FFFFFF00FFFFFFFFFFFAD
:10115000FFF00FFFFF2DFFFFFF91018FF000000F49
:10116000F0000000FB40027FFFFFF00FFB30028F1A
:10117000FF91006EFF408FFFFF70016EFFA103AF74
:10118000FFF00FFFFFF00FFFFFFFFE93FFFFFFFFDA
:10119000F29EFFFFFFF00FFFA2E4030FF20FFF012B
:1011A000F000003CFFE51019F00004CFF000000053
:1011B000F00FFFFFFFC40015F00FFF00F000000F5D
:1011C000FB50005CF00FFD01F0000000F00FFF008D
:1011D000F00FF800FF91018FF00FFFFFFF91003F2C
:1011E000F00FFF904B40015EFFF00FFFFE50004EEE
:1011F000FFF101FFF10EF00FF50BFD03FFF00FFF04
:10120000F0000000FFF00FFFFFFFA0FFFFF00FFF57
:10121000FFFFFFFFFFFFFFFFFFFFFFFFFA10400F81
:10122000F00502EFFF92019FFE30400FFF7002AF0A
:10123000FFF00FFFFE30400FF00FF00FF000000F37
:10124000FFFF00FFF00FC03FFFC3000F00F00F00D3
:10125000F00FF00FFF7005FFF00502EFFE30400FBA
:10126000FF00FFFFFB3003BFFFF9100FFA00400F34
:10127000FFD00DFFF30BD02FF509B03FFFE00FFFBC
:10128000F000000FFFF00CFFFFF0FFFFFFD00FFF9B
:10129000FFFFFFFFFFFFFFFFFFFFFFFFFFFFFFFF5E
:1012A000FFFF0FFFFFFFFFFFFFFFFFFFFFFFFFFF3E
:1012B000FFFD1FFFFFF2BFFFFFFFFFFFFFFFFFFF6D
:1012C000FFB0AFFFFFFFFFFFFFFFFFFFFC3FFFFF90
:1012D000FFFFFFFFFFFFFFFFFFFFFFFFFFFFFFFF1E
:1012E000FFFFFFFFFFFFFFFFFFFFFFFFFFFFFFFF0E
:1012F000FFFFFFFFFFFFFFFFFFFFFFFFFFB0AFFF9D
:10130000FFFFFFFFFFFFFFFFFFFFFFFFFFFFFFFFED
:10131000F54DFB5FFFFFFFFFFFFFFFFFFFFFFFFF3D
:10132000FFFFFFFFFFFFFFFFFFFFFFFFFFFFFFFFCD
:10133000FFFFFFFFFFFFFFFFFFFFFFFFFFFFFFFFBD
:10134000FFFFFFFFFFFFFFFFFFFFFFFFFFFFFFFFAD
:10135000FFFFFFFFFFFFF20BFFFFFFFFFFFFFFFF9E
:10136000FFFFFFFFFFFFFFFFFFFFFFFFFFFFFFFF8D
:10137000FFFFFFFFFFFFFFFFFFFFFFFFFFF0006F1B
:10138000FFFFF19FFC000FFFFFFFFFFFFFFFFFFFCD
:10139000FFFFFFFFFFFFFFFFFFFFFFFFFFFFFFFF5D
:1013A000FFFFFFFFFFFFFFFFFFFFFFFFFFFFF00F4C
:1013B000FFFFFFFFFFFFFFFFFFFF00FFFFFFFFFF3C
:1013C000FFFFFFFFFFFFFFFFFFFFFFFFFFFFFFFF2D
:1013D000F00FFFFFFFFFF00FFFFFFFFFFFFFFFFF1B
:1013E000FFFFFFFFFFFFFFFFFFFFFFFFFFFFFFFF0D
:1013F000FFFFFFFFFFE04FFFFFFFFFFFFFF9100FB1
:10140000FFF0FFFFF0017FFFFFFFFFFFFFFFFFFF88
:10141000FFFFFFFFFFFFFFFFFFFF0FFFFFFFFFFFCC
:10142000FFFFFFFFFFFFFFFFFFFFFFFFFFFFFFFFCC
:10143000FFFFFFFFFFFFFFFFFF38FFFFFFFFFFFF83
:10144000FFFFFFFFF3CFFFFFFFFFFFFFFFFFFFFFE8
:10145000FFFFFFFFFFFFFFFFFFFFFFFFFFFFFFFF9C
:10146000FFFFFFFFFFFFFFFFFFFFFFFFFFFFFFFF8C
:10147000FFFFFFFFFF38FFFFFFFFFFFFFFFFFFFF43
:10148000FFFFFFFFFFFFFFFFFF81006FFFFFFFFF79
:10149000FFFFFFFFFFFFFFFFFFFFFFFFFFFFFFFF5C
:1014A000FFFFFFFFFFFFFFFFFFFFFFFFFFFFFFFF4C
:1014B000FFFFFFFFFFFFFFFFFFFFFFFFFFFFFFFF3C
:1014C000FFFFFFFFFFFFFFFFFFFFFFFFFFFFFE3EEE
:1014D000FFFFFFFFFFFFFFFFFFFFFFFFFFFFFFFF1C
:1014E000FFFFFFFFFFFFFFFFFFFFFFFFFFFFFFFF0C
:1014F000FFFFFFFFFFFFFFFFFFFFF82FFFFFFFFFD3
:10150000FFFFFFFFFFFFFFFFFFFFFFFFFFFFFFFFEB
:10151000FFFFFFFFFFFFFFFFFFFFFFFFFFFFFFFFDB
:10152000FFFFFFFFFF6EA03FFFFFFFFFFFFFFFFF7B
:10153000FFFB01FFFFFFFFFFFFFFFFFFFFFFFFFFBD
:10154000FFFFFFFFFFFFFFFFF00FFFFFFFFFF00FA9
:10155000FFFFFFFFFFFFFFFFFFFFFFFFFFFFFFFF9B
:10156000FFFFFFFFFFFFFFFFFFFFFFFFFF70BFFF5A
:10157000FFFFFFFFFFFFFFFFFFF0FFFFFFFFFFFF8A
:10158000FFFFFFFFFFFFFFFFFFFFFFFFFFFFFFFF6B
:10159000FFFFFFFFFFFFFFFFFFFFFFFFFFFFFFFF5B
:1015A000FFFFFFFFFFFFFFFFFFFFFFFFFFFFFFFF4B
:1015B000FFFFFFFFFFFFFFFFFFFFFFFFFFFFFFFF3B
:1015C000FFFFFFFFFFFFFFFFFFFFFFFFFFFFFFFF2B
:1015D000FFFFFFFFFFFFFFFFFFFFFFFFFFFFFFFF1B
:1015E000FFFFFFFFFFFFFFFFFFFFFFFFFFFFFFFF0B
:1015F000FFFFFFFFFFFFFFFFFFFFFFFFFFFFFFFFFB
:10160000FFFFFFFFFFFFFFFFFFFFFFFFFFFFFFFFEA
:10161000FFFFFFFFFFFFFFFFFFFFFFFFFFFFFFFFDA
:10162000FFFFFFFFFFFFFFFFFFFFFFFFFFFFFFFFCA
:10163000FFFFFFFFFFFFFFFFFFFFFFFFFFFFFFFFBA
:10164000FFFFFFFFFFFFFFFFFFFFFFFFFFFFFFFFAA
:10165000FFFFFFFFFFFFFFFFFFFFFFFFFFFFFFFF9A
:10166000FFFFFFFFFFFFFFFFFFFFFFFFFFFFFFFF8A
:10167000FFFFFFFFFFFFFFFFFFFFFFFF0000000076
:10168000FFFFFFFFFFFFFFFFFFFFFFFFFFFFFFFF6A
:10169000FFFFFFFFFFFFFFFFFFFFFFFFFFA103DFD4
:1016A000FFFFFFFFFFFFFFFFF0002BFFFFFFFFFF2C
:1016B000FFFFFFFFFFFFFFFFFFFFFFFFFFFFFFFF3A
:1016C000F00FFFFFFFFFF00FFFFFFFFFFFFFFFFF28
:1016D000FFFFFFFFFFFFFFFFFFFFFFFFFFFFFFFF1A
:1016E000FFFFFFFFF005FFFFFFFFFFFFFFFFFFFF13
:1016F000FFFFFFFFFFFFFFFFFFFFFFFFFFFFFFFFFA
:10170000FFFFFFFFFFFFFFFFFFFFFFFFFFFFFFFFE9
:10171000FFFFFFFFFFFFFFFFFFFFFFFFFB05FFFFD7
:10172000FFFFFFFFFFFFFFFFFFFFFFFFFFFFFFFFC9
:10173000FFFFFFFFFFFFFFFFFFFFFFFFFFFFFFFFB9
:10174000FFFFFFFFFFFFFFFFFFFFFFFFFFFFFFFFA9
:10175000FFFFFFFFFFFFFFFFFFFFFFFFFFFFFFFF99
:10176000FFFFFFFFFFFFFFFFFFFFFFFFFFFFFFFF89
:10177000FFFFFFFFFFFFFFFFFFFFFFFFFFFFFFFF79
:10178000FFFFFFFFFFFFFFFFFFFFFFFFFFFFFFFF69
:10179000FFFFFFFFFFFFFFFFFFFFFFFFFFFFFFFF59
:1017A000FFFFFFFFFFFFFFFFFFFFFFFFFFFFFFFF49
:1017B000FFFFFFFFFFFFFFFFFFFFFFFFFFFFFFFF39
:1017C000FFFFFFFFFFFFFFFFFFFFFFFFFFFFFFFF29
:1017D000FFFFFFFFFFFFFFFFFFFFFFFFFFFFFFFF19
:1017E000FFFFFFFFFFFFFFFFFFFFFFFFFFFFFFFF09
:1017F000FFFFFFFFFFFFFFFFFFFFFFFFFFFFFFFFF9
:10180000FFFFFFFFFFFFFFFFFFFFFFFFFFFFFFFFE8
:10181000FFFFFFFFFFFFFFFFFFFFFFFFFFFFFFFFD8
:10182000FFFFFFFFFFFFFFFFFFFFFFFFFFFFFFFFC8
:10183000FFFFFFFFFFFFFFFF70AFFFFFFFFFFFFF97
:10184000FFFFFFFFFFFFFFFFFFFFFFFFFFFFFFFFA8
:10185000FFFFFFFFFFFFFFFFFFFFFFFFFFFFFFFF98
:10186000FFFFFFFFFFFF00FFFFFFFF00FFFFFFFF86
:10187000FFFFFFFFFFFFFFFFFFFFFFFFFFFFFFFF78
:10188000FFFFFFFFFFFFFFFFFFFFFFFFFFFFFFFF68
:10189000FFFFFFFFFFFFFFFFFFFFFFFFFFFFFFFF58
:1018A000FFFFFFFFFFFFFFFFFFFFFFFFFFFFFFFF48
:1018B000FFFFFFFFFFFFFFFFFFFFFFFFFFFFFFFF38
:1018C000FFFFFFFFFFFFFFFFFFFFFFFFFFFFFFFF28
:1018D000FFFFFFFF00FFFFFF00FF00FFFFFD04F41D
:1018E0000EFFFF0FFFFFE403EFFFFFFFE71029FFED
:1018F000FFFFE14FFFFFFFE02FFFFF40EFFFFFFF84
:10190000FF0FFFFFFFFFFFFFFFFFFFFFFFFFFFFFD7
:10191000FFFFFFFFFFFFFFFFFFFFFFD02FFFE400F0
:101920003DFFFFC400FFFFFC61004AFFFC61003A7D
:10193000FFFFFFF300FFF0000000FFFFF71029FF9B
:10194000F00000000FFFA30039FFFFB3004DFFFFC1
:10195000FFFFFFFFFFFFFFFFFFFFFFFFFFFFFFFF97
:10196000FFFFFFFFFFFFFFFFFB51016EFFFFFFFFC8
:10197000FFFFFFFC00AFFFF0000028FFFFFA40036D
:101980009FF000139FFFF00000000FF00000000F19
:10199000FFFA3003AFF00FFFF00FFF000000FFFF72
:1019A000FF00000FF00FFF402FF00FFFFFFFF002CE
:1019B000FF200FF003FFF00FFFE4004DFFF00001E8
:1019C00039FFFFE4004DFFF0000038FFFFA2004B9D
:1019D000FFF00000000FF00FFFF00FF108FFA01F55
:1019E00010FFFFFF00F404FF602F502FFFF403F0FF
:1019F0000000000FFFF0001FFFF40EFFFFFFFF309D
:101A000000FFFFFFE201EFFFFFFFFFFFFFFFF50E0B
:101A1000FFFFFFFFFFFFFFF00FFFFFFFFFFFFFFFD5
:101A2000FFFFFFFFF00FFFFFFFFFFFFFFB2000FFA7
:101A3000FFFFFFFFFFF00FFFFFFFFFFF00FFFFFFB4
:101A4000FF00FFFFF00FFFFFFFF0000FFFFFFFFFA2
:101A5000FFFFFFFFFFFFFFFFFFFFFFFFFFFFFFFF96
:101A6000FFFFFFFFFFFFFFFFFFFFFFFFFFFFFFFF86
:101A7000FFFFFFFFFFFFFFFFFFFFFFFFFFFFFFFF76
:101A8000FFFFFFFFFFFFFFFFFFFFFFFFFFFFFFFF66
:101A9000FFFFFFFFFFFFB200FFFFFF00FFFFFF00A0
:101AA0002AFFFFFFFFFFFFFFFFFF00FFFFFF00FF19
:101AB00000FFFFFA09F01FFFFF0FFFFF37E92FFFBD
:101AC000FFFF500000FFFFFF52FFFFFFFF70BFFF4F
:101AD000FFC05FFFFFFFFF0FFFFFFFFFFFFFFFFFE5
:101AE000FFFFFFFFFFFFFFFFFFFFFFFFFFFFFFFF06
:101AF000FF50AFFE100001EFFF0000FFFFF00000FD
:101B0000008FF00000008FFFFF9000FFF00000004A
:101B1000FFFF400000FFF00000000FF90000007F11
:101B2000FB000000EFFFFFFFFFFFFFFFFFFFFFFFD6
:101B3000FFFFFFFFFFFFFFFFFFFFFFFFFFFFF000C3
:101B40000004FFFFD5103CFFFFF7005FFFF000002F
:101B5000006FFF7000000FF0000004FFF0000000B5
:101B60000FF00000000FFF7000000FF00FFFF00FEC
:101B7000FF000000FFFFFF00000FF00FF800EFF084
:101B80000FFFFFFFF000EE000FF000EFF00FFE1070
:101B90000001EFF00000007FFF100001EFF00000F7
:101BA000006FF9000000FFF00000000FF00FFFF0E1
:101BB0000FF504FF703F30EFFFFE01FC00EE00BFA9
:101BC000D00AFFB00DF00000000FFFF00FFFFFFC88
:101BD00007FFFFFFFFFF00FFFFFF40003EFFFFFF8B
:101BE000FFFFFFFFFF24FFFFFFFFFFFFFFF00FFFDF
:101BF000FFFFFFFFFFFFFFFFFFFFF00FFFFFFFFFF4
:101C0000FFFFF20000FFFFFFFFFFFFF00FFFFFFFEE
:101C1000FFFF00FFFFFFFF00FFFFF00FFFFFFFF0E0
:101C2000000FFFFFFFFFFFFFFFFFFFFFFFFFFFFFB3
:101C3000FFFFFFFFFFFFFFFFFFFFFFFFFFFFFFFFB4
:101C4000FFFFFFFFFFFFFFFFF00FFFFFFFFFFFFFA3
:101C5000FFFFFFFFFFFFFFFFFFFFFFFFFFFFFFFF94
:101C6000FFFFFFFFFFFFFFFFFFFFFFFF20BFFFFFA3
:101C7000FF00FFFFFFFC01FFFFFFFFFFFFFFFFFF74
:101C800000FFFFFF00FF00FFFFF40ED06FFE5000CB
:101C90000FFF0FFF0FFFFFFF00CFD5FFFFFFFFFF7D
:101CA000FFFFFE01FFFFFFF20EFFFFF57D0E74FF49
:101CB000FFFFFFFFFFFFFFFFFFFFFFFFFFFFFFFF34
:101CC000FFFFFFFFFFFFFE01FFF902DE207FFF3B6A
:101CD00000FFFFF39DFE701FF38DFE700FFFFD02EE
:101CE00000FFF00FFFFFFFFA01CFD5FFFFFFFF70EE
:101CF0005FF107EE801FF305EE706FFFFFFFFFFF40
:101D0000FFFFFFFFFFFFFFFFFFFFFFFFFFFFFFFFE3
:101D1000FFFFFFFFF3AEFB00FFFB000000DFFFF360
:101D2000001FFFF00FFF900FFC009EFB5FF00FEA1B
:101D3000109FF00FFFFFFFF00FFFFFFFFC009EFC66
:101D40005FF00FFFF00FFFFF00FFFFFFFFFFF00F3F
:101D5000F00FB00AFFF00FFFFFFFF000BC000FF024
:101D6000008FF00FF902DE207FF00FFE801FF902D6
:101D7000EE308FF00FFE800FF109FEB4FFFFFF0081
:101D8000FFFFF00FFFF00FF902FF307F40BFFFFCB5
:101D900003FF406802FFF601FF204FFFFFFE004FE8
:101DA000FFF00FFFFFFF31EFFFFFFFFF00FFFFF529
:101DB00004E505FFFFFFFFFFFFFFFFFFFFFFFFFF42
:101DC000FFFFFFF00FFFFFFFFFFFFFFFFFFFFFFF22
:101DD000F00FFFFFFFFFFFFFF00EFFFFFFFFFFFF12
:101DE000FFF00FFFFFFFFFFFFFFFFFFFFFFFFFFF02
:101DF000F00FFFFFFFFFF00FFFFFFFFFFFFFFFFFF1
:101E0000FFFFFFFFFFFFFFFFFFFFFFFFFFFFFFFFE2
:101E1000FFFFFFFFFFFFFFFFFFFFFFFFFFFFF00FD1
:101E2000FFFFFFFFFFFFFFFFFFFFFFFFFFFFFFFFC2
:101E3000FFFFFFFFFFFFFFFFFFFFFFFFFFFFFFFFB2
:101E4000FFFF00FFFFFFFF00FFFFFFFF00FFFFFF9F
:101E5000FFFFFFFFFFFF00FFFFFF00FF00FFF0009D
:101E6000000000F500000FFF48F92FFFFFFF20BF23
:101E7000FFFFFFFFFFFFFFFFFA06FFFFFFF808FF6E
:101E8000FFFE70006DFFFFFF00FFFFFFFFFFFFFF82
:101E9000FFFFFFFFFFFFFFFFFFFFFFFFF609FFF35D
:101EA0000BFFC02FFFFF00FFFFFFFFFFF00FFFFF43
:101EB000FFF00FFFF40D00FFF00FFFFFFFF40AFF2C
:101EC000FFFFFFFFFE00DFF00EFFF00FF00EFFF050
:101ED0002FFFFFFFFFFFFFFFFFFFFFFFFFFFF93FA8
:101EE000FFFFFFFFFFF38EFFFFFFFFFFFE00FFE19D
:101EF00005EE504FFFF0120EFFF00FFFF00FF5064A
:101F0000FFFFFFF00FFFA03FF00FFFFFFFF00FFFFD
:101F1000FFFFF507FFFFFFF00FFFF00FFFFF00FFD0
:101F2000FFFFFFFFF00FF00E107FFFF00FFFFFFF2E
:101F3000F00268200FF0021FF00FF40BFFC02FF02B
:101F40000FFFF00FF40BFFC02FF00FFFF00FF00E9C
:101F5000FFFFFFFFFF00FFFFF00FFFF00FFD00FF8F
:101F600010BF808F00F904FFC0010BFFFE009A0034
:101F7000EFFFFFF400EFFFF00FFFFFFFC08FFFFF49
:101F8000FFFF00FFFF806FFF805FFFFFFFFFFFFF8E
:101F9000FFFFFFFFFFB40027FFF00D3029FFFFF721
:101FA0002003BFFFA203C00FFFD4003AFFF00000E0
:101FB00000FFFFB202B00FF00D3005EFFF0000FF91
:101FC000FFFF0000FFFFF00FF700AFFFF00FFFFF74
:101FD000F0070A30AFF00D3005EFFFD4004CFFF0F2
:101FE0000D3029FFFFA203C00FFF00D4000FFF82B6
:101FF0000015BFF0000000FFF00FFFF00FF208FF28
:10200000A01F00FFFFFF00F501FF104FF305FF8049
:102010001FF00000000FFFFF00FFFFFFFF00FFFFAA
:10202000FFFF00FFFFFFFFFFFFFFFFFF00FFFFFFBE
:10203000FFFFFFFFE000000000F00C0FFFFFE403D4
:10204000EFC78FFFC01EFFFFFFFFFFFFFFFFF40B77
:10205000FFFFFFFC03FFFFFE70006DFFFFFF00FFAF
:10206000FFFFFFFFFFFFFFFFFFFFFFFFFFFFFFFF80
:10207000FFFFE00FFFF10EFFE00FFFFF00FFFFFF8C
:10208000FFFFC04FFFFFFE802FFF909F00FFF0017A
:10209000015DFFF1091018FFFFFFF803FFF407FED1
:1020A000803FF00EFFE00FFFFF00FFFFFFFF00FF8C
:1020B000FFFFFFC5000FF00000000FF0005CFFFF06
:1020C000FFFFF208FF803FFFE01FFFC0470BFFF05C
:1020D0000FFFA02FF10DFFFFFFF00FFFE00FF00F3C
:1020E000FFFFFFF00FFFFFFFF10DFFFFFFF00FFFFE
:1020F000F00FFFFF00FFFFFFFFFFF00FF00202FFF6
:10210000FFF00FFFFFFFF00723400FF00A0BF00F67
:10211000F10EFFE00FF00FFE801FF10EFFE00FF059
:102120000FFE801FF2018EFFFFFFFF00FFFFF00F89
:10213000FFF00FFE00EE00EFA04E00E507FFF400F9
:102140002FFFFF800106FFFFFFA00AFFFFF00FFF38
:10215000FFFFF21FFFFFFFFF00FFFFFFFFFFFFFF7B
:10216000FFFFFFFFFFFFFFFFFFFFFF0000006FF01B
:10217000010000BFFE2000000FFC0000100FFD005A
:102180000000AFF0000000FFFD0000000FF00100B4
:10219000005FFF0000FFFFFF0000FFFFF00F800B5C
:1021A000FFFFF00FFFFFF00000002FF00100005FC5
:1021B000FD000000DFF0010000BFFC0000100FFF79
:1021C0000010000FF50000000FF0000000FFF00FFE
:1021D000FFF00FF703FF405F30DFFFFE02FE108AC3
:1021E00000EFFA00FF306FF00000000FFFFF00FF6C
:1021F000FFFFFF00FFFFFFFF00FFFFFFFFFFFFFFED
:10220000FFFF00FFFFFFFFFFFFFFFFA09F01FFF2A7
:10221000040BFFFFFFFFA68EFFFF6004FFFFFFFF21
:10222000FFFFFFFFF10EFFFFFFFE00FFFFF56E0E49
:1022300074FFFFFF00FFFFFFFFFFFFFFFFFFFFFF38
:10224000FFFFFFFFFFFFFFFF808FFFF00F33F00F57
:10225000FFFF00FFFFFFFFFE20EFFFF00004EFFE97
:1022600003FF00FFF0000000DFF00000008FFFFF21
:10227000F10CFFFE400004EFF205EF700FFFFF00CE
:10228000FFFFFFFF00FFFFFE820038EFF0000000BD
:102290000FFE930028EFFFFF305FFF30BD30500F7F
:1022A000FF90AC07FFF0000002CFF00FFFFFFFF040
:1022B0000FFFF00FF0000000FFF0000000FFF00F34
:1022C000FFFFFFF00000000FFFFF00FFFFFFFFFF19
:1022D000F00FF00000EFFFF00FFFFFFFF00A0080AB
:1022E0000FF00E04F00FF00FFFF00FF00000007F72
:1022F000F00FFFF00FF0000000AFFB00003BFFFF0E
:10230000FF00FFFFF00FFFF00FFF20BC01FFC02D0B
:1023100000C309FFFC00BFFFFFF1000EFFFFFE102E
:102320005FFFFFF00FFFFFFFFB08FFFFFFFF00FF56
:10233000FFFFFFFFFFFFFFFFFFFFFFFFFFFFFFFFAD
:10234000FF4BEFB01FF004EE502FF701BEEB5FF430
:1023500004EE500FF509EFB02FFFF00FFFFFF5036C
:10236000EE400FF005EF900FFFFF00FFFFFFFF00B3
:10237000FFFFF00900BFFFFFF00FFFFFF00C00C0F0
:102380000FF005EF900FF504EE503FF004EE502FE4
:10239000F404EE500FFF004DFFFFF00AFFDA3FFF9D
:1023A000F00FFFFFF00FFFF00FFD00FF10BF70BF39
:1023B00000FC06FFB0010AFFFF00BF00DFFFFFFACD
:1023C00000AFFFFF00FFFFFFFF00FFFFFFFF00EF79
:1023D000FFFA1039EE6FFFFF21FFFFFFFFFFFFFF46
:1023E000FF40EC06FFFB10002EFFFE86BFFFFFF94B
:1023F00007006F00FFFFFFFFFFFFF00FFFFFFFFF72
:1024000000FFFFFFFF0FFFFFF00000000FFFFFFFC7
:10241000FFFFFFFFFFFFFFFFFFFFFFFFFFFE00EFDC
:10242000FFF00F33F00FFFFF00FFFFFFFFD10BFFA7
:10243000FFF00002CFF30EFF00FFF4BEFC303FF0D0
:1024400005EE701FFFFF902FFFFE200002DFFA0055
:1024500000000FFFFF00FFFFFFFF00FFFFF0028DF6
:10246000FFFFFFFFFFFFFFFFFFE8200FFFF506FF65
:10247000FF00E300000FFF40EF02FFF0000001BF8C
:10248000F00FFFFFFFF00FFFF00FF0000000FFF074
:10249000000000FFF00FF0000FF00000000FFFFF42
:1024A00000FFFFFFFFFFF00FF000107FFFF00FFFB6
:1024B000FFFFF00D00C00FF00F50E00FF00FFFF026
:1024C0000FF0000038FFF00FFFF00FF0000005FFE5
:1024D000FFE50000AFFFFF00FFFFF00FFFF00FFF71
:1024E000507904FFD00B13A00CFFFB009FFFFFFAF5
:1024F000008FFFFFF501EFFFFFF00FFFFFFFFF2150
:10250000FFFFFFFF00FFFFFFFFFFFFFFFFFFFFFFDA
:10251000FFFFFFFFFFFFFFFA30000FF00DFFE00F9E
:10252000F10DFFFFFFF00DFFE00FF10000000FFFC6
:10253000F00FFFFFF10DFFD00FF00EFFF00FFFFFC8
:1025400000FFFFFFFF00FFFFF00006FFFFFFF00F9F
:10255000FFFFF00F00F00FF00EFFF00FF10DFFE0A6
:102560001FF00DFFE00FF00DFFD00FFF00EFFFFF9A
:10257000F300247DFFFFF00FFFFFF00FFFF00FFFD0
:1025800000DD00FFC08D00C90BFFF5004FFFFF50BD
:102590003C01FFFFFFB00AFFFFF902FFFFFFFF0052
:1025A000FFFFFFFF408FFFF00000000FFFFF32FF33
:1025B000FFFFFFFFFFFF000000000EFFFA0103FF17
:1025C000A7EFE303EFF20FB00901FFFFFFFFFFFFEB
:1025D000F00FFFFFFFFF00FFFFFFFF0FFFFFF00007
:1025E00000000FFFFFFFFFFFFF00000FFFFFFFFFD7
:1025F000FFFFFFF906FFFFF10EFFE00FFFFF00FFF7
:10260000FFFFFD10BFFFFFFFFE702FF00000000F67
:10261000FFFFFFE00FF10EFFE00FFFFF10BFFFF421
:1026200006EE802FFF9101700FFFFFFFFFFFFFFFFE
:10263000FFFFFFF0038EFFFFFFFFFFFFFFFFFFE83D
:10264000300FFFF00EFFFF00F00CD00FFF00000076
:10265000FFF00FFF902FF10DFFFFFFF00FFFE00FD6
:10266000F00FFFFFFFF00FFFFFFFF10DF0000FF085
:102670000FFFF00FFFFF00FFFFFFFFFFF00FF00B5A
:10268000900EFFF00FFFFFFFF00F00F00FF00FC0F4
:10269000800FF10EFFE00FF00FFFFFFFF10EFFE0E4
:1026A0000FF00FE700EFFFFFFB301FFFFF00FFFF02
:1026B000F00FFFF00FFFA03508FFF00846800DFF78
:1026C000F3001FFFFFFF00FFFFFFA00BFFFFFFF066
:1026D0000FFFFFFFFFA09FFFFFFF00FFFFFFFFFFB8
:1026E000FFFFFFFFFFFFFFFFFFFFFFFFFE200000D8
:1026F0000FF00FFFF00FF00FFFFFFFF00FFFF00FD5
:10270000F00000000FFFF00FFFFFF00FFFF00FF0E1
:102710000FFFF00FFFFF00FFFFFFFF00FFFFF000C4
:1027200000EFFFFFF00FFFFFF00F00F00FF00FFFC3
:10273000F00FF00FFFF00FF00FFFF00FF00FFFF0B2
:102740000FFF00FFFFFFFE4000009FFFF00FFFFFA5
:10275000F00FFFF00FFF508A03FFE04A01950EFFD4
:10276000FC00AFFFFFD00606FFFFFB009FFFFF004E
:102770001DFFFFFFFF00FFFFFFFFE200FFF5DFB4DB
:10278000018FFFFFFFFFFFFFFFFFFFFF00000000C3
:102790000EFFFF0E00FFFFFF48F92FF00EF90005B6
:1027A000FFFFFFFFFFFFF10EFFFFFFFE01FFFFFF37
:1027B000FFFFFFFFFFFF00FFFFFFFFFFFFFFFF0027
:1027C000000FFFFFFFFFFFFFFFF10EFFFFF30BFF07
:1027D000C02FFFFF00FFFFFFB00BFFFFFFFFFFF069
:1027E0000FF00000000FFFFFFFE00FF30EFFF00FF0
:1027F000FFFB02FFFFF00FFFF00FFFFFFFC03FFFE7
:10280000FFFFFFFFFFFFFFFFFFFE820039EFF00039
:1028100000000FFF940028EFFFF00FFFFF00E30020
:10282000000FFD000000DFF00FFFF00FF507FFFFC6
:10283000FFF00FFFA03FF00FFFFFFFF00FFFFFFFC4
:10284000F508FFF00FF00FFFF00FFFFF00FFFFFF95
:10285000FFFFF00FF00FE106FFF00FFFFFFFF00F9B
:10286000FFF00FF00FF2100FF30BFFC02FF00FFF70
:10287000FFFFF30BFFC02FF00FFF206FFFFFFFE004
:102880000FFFFF00FFFFF00EFFF00FFFD0120CFF55
:10289000F0028A300FFFC0110AFFFFFF00FFFFFEAA
:1028A000105FFFFFFFF00FFFFFFFFFF11FFFFFFFB4
:1028B00000FFFFFFFFFFFFFFFFFFFFFFFFFFFFFF27
:1028C000FFFFF206EFE00FF00DFFE00FF10DFFFF4D
:1028D000FFF10DFFE00FF10EFFFFFFFFF00FFFFF15
:1028E000F10DFFE00FF00FFFF00FFFFF00FFFFFF04
:1028F000FF00FFFFF00C503FFFFFF00FFFFFF00F56
:1029000000F00FF00FFFF00FF10DFFE00FF00DFFE3
:10291000E00FF10DFFE00FFF00FFFFFFFFFFEA6098
:102920001FFFF00FFFFFF00FFFE00FFFB03409FFB4
:10293000F11735432FFFF2001FFFFFF2000DFFFFDD
:10294000B009FFFFFFFA02FFFFFFFF00FFFFFFFFDD
:10295000409FFFFFFFFFFFFFFFFFFFFFFFFFFFFFA6
:10296000FFFFFA09F01FFFF4BE0C00FFFFFF0FFF8F
:102970000FF204DE200EFFFFFFFFFFFFF40BFFFF4F
:10298000FFFD03FFFFFFFFFFFFFFFFFF00FFFFFF54
:10299000FF00FFFFFFFFFFFFFFFFFF00FFFFFFA0A4
:1029A0005FFFFFF902EE307FFFFF00FFFFFA00BF7D
:1029B000FFFFF3AEFE800FFFFFFF00FFF4BEFD50F0
:1029C0002FF806EE702FFFF209FFFFF107EF801FCF
:1029D000FF5DFC208FFFFF00FFFFFFFF00FFFFFFF9
:1029E000FFB5000FF00000000FF0005CFFFFFFFFDD
:1029F000FFFFFF309D30500FFA00FF108FF00FFFE8
:102A0000A00FFC008EFC5FF00FFA109FF00FFFFF8D
:102A1000FFF00FFFFFFFFB00AFE00FF00FFFF00F25
:102A2000FFFF00FFFFF39EFE900FF00FF900EFF0A5
:102A30000FFFFFFFF00FFFF00FF00FF9000FF9028B
:102A4000EE407FF00FFFFFFFF902EE406FF00FFF47
:102A5000A00FF39DFFA01FFFFF00FFFFF405EE7026
:102A60002FFFF0000FFFF300CE000FFF308902FFB1
:102A7000FFFF00FFFFF501EFFFFFFFF00FFFFFFF7C
:102A8000FFF90AFFFFFF00FFFFFFFFFFFFFFFFFF50
:102A9000FFFFFFFFFFFFFFFFF00BFE600FF004EEF4
:102AA000502FF601CFFB5FF404EE500FF504DFEB7F
:102AB0004FFFF00FFFFFF404EE400FF00FFFF00F99
:102AC000FFFF00FFFFFFFF00FFFFF00FE009FFFF28
:102AD000F10AFFFFF00F00F00FF00FFFF00FF50409
:102AE000EE503FF004EE502FF404EE500FFF00FFC5
:102AF000FFFFF39DFFB00FFFF00CFFFFF108FE603A
:102B00000FFFE0010EFFF50379205FFF902307FF21
:102B1000FFF9001FFFFB009FFFFFFFFF00FFFFFF0C
:102B2000FF00FFFFFFFF00EFFFFFFFFFFFFFFFFFC3
:102B300000FFFFFFFFFFFFFFF40ED05FFFF000007C
:102B400005FFFFFF38E92FFA0000000DFFFFFFFF30
:102B5000FFFFFA06FFFFFFF808FFFFFFFFFFFFFF81
:102B6000FFFF00FFFFFFFF00FFFFFFFFFFFFFFFF73
:102B7000FF00FFFFFF20DFFFFFFE100000EFF0006F
:102B800000000FF00000000FF00000007FFFFFFFCB
:102B900000FFF0000000DFFE100000AFFFC01FFFCD
:102BA000FFF80000007FFF000002FFFFFF00FFFFB3
:102BB000FFFF00FFFFFFFFFFE93FFFFFFFFFFFF207
:102BC0009EFFFFFFFFF00FFFFF902FFFFFFFF503BA
:102BD000FF503FF00000004FFF7000000FF00000BA
:102BE00004FFF00000000FF00FFFFFFFFF50000098
:102BF0000FF00FFFF00FFF000000FFF00000006F6C
:102C0000F00FFF106FF00000000FF00FFFF00FF05B
:102C10000FFE000FFE100001EFF00FFFFFFFFF108F
:102C20000000DFF00FFFE009F00000007FFFFF0071
:102C3000FFFFFB000000AFFFF3002FFFF400FF00D9
:102C40002FFC00EE00BFFFFF00FFFFF00000000FB1
:102C5000FFF00FFFFFFFFFFF12FFFFFF00FFFFFF6F
:102C6000FFFFFFFFFFFFFFFFFFFFFFFFFFFFF5007D
:102C700000000FF0010000BFFE1000000FFC00007C
:102C8000000FFD0000000FFFF00FFFFFFC00000031
:102C90000FF00FFFF00FF00000000FFFFF00FFFF2D
:102CA000F00FF900EFFFF50000FFF00F00F00FF05C
:102CB0000FFFF00FFD000000DFF0010000BFFC007F
:102CC00000000FFF00FFFFFFF00000003FFFF300D8
:102CD00000FFF60000000FFFF3002FFFFA00CD0009
:102CE000AFFE00AB00EFFFFE006FFFF00000000F33
:102CF000FFFF00FFFFFFFF00FFFFFFFF00FFFFFFE1
:102D0000FFFFFFFFFFFF00FFFFFFFFFFFFFFF11FC0
:102D100090AFFFFB50006FFFFFFFE303EFFFB30037
:102D20003502FFFFFFFFFFFFFE01FFFFFFF20EFF77
:102D3000FFFFFFFFFFFFFFFFFFFFFFFFFE01FFFFA2
:102D4000FFFFFFFFFFFFFF00FFFFFC03FFFFFFFF91
:102D5000E4003DFFF00000000FF00000000FFB5109
:102D60000039FFFFFFFF00FFFB50015DFFFFD400B4
:102D70002AFFFF408FFFFFFF920028FFFFA2017E86
:102D8000FFFFFF00FFFFFFFE01FFFFFFFFFFFFFF51
:102D9000FFFFFFFFFFFFFFFFFFFFFFF00FFFFFF150
:102DA00003BFE7BFF108FFA01FF0000016EFFFFA16
:102DB0003002AFF000038FFFF00000000FF00FFFB4
:102DC000FFFFFFF82004CFF00FFFF00FFF0000001F
:102DD000FFFB610028FFF00FFF900EF00000000FD6
:102DE000F00FFFF00FF00FFF500FFFE4003CFFF07B
:102DF0000FFFFFFFFFE40004FFF00FFFF502FB51A0
:102E00000038FFFFFF00FFFFFFA20029FFFFF700D0
:102E10005FFFF802FF403FF405FF602FFFFF00FF58
:102E2000FFF00000000FFFF00FFFFFFFFFFF90BF5C
:102E3000FFFF00FFFFFFFFFFFFFFFFFFFFFFFFFFA1
:102E4000FFFFFFFFFF6003C00FF00D2019FFFFE73A
:102E50002003AFFFA102C00FFFD51004BFFFF00F8A
:102E6000FFFFFFB202A00FF00FFFF00FF000000015
:102E70000FFFFF00FFFFF00FFF204FFFFE3000FFAE
:102E8000F00F00F00FF00FFFF00FFFD3003CFFF04A
:102E90000D3029FFFFA203C00FFF00FFFFFFFC5210
:102EA0000026EFFFFD3000FFFF5003C00FFFF900C9
:102EB0007FFFFD00EF00EFF501FF103FFFFF10DF88
:102EC000FFF00000000FFFFF00FFFFFFFF00FFFF0C
:102ED000FFFF00FFFFFFFFFFFFFFFFFFFFFFFFFF01
:102EE000FFFFFFFFFFFFFFFFFFFFFF0FFFFFFFFFE2
:102EF000FFFFFFFFFFFFFFFFFFFFFFFFFFFFFF6081
:102F0000BFFFFFC05FFFFFFFFFFFFFFFFFFFFFFFF0
:102F1000FFFFF906FFFFFFFFFFFFFFFFFFFFFFFFC0
:102F2000F30CFFFFFFFFFFFFFFFFFFFFFFFFFFFFB0
:102F3000FFFFFFFFFFFFFFFFFFFFFFFFFFFFFFFFA1
:102F4000FFFFFFFFFFFFFFFFFFFFFFFFFFFFFFFF91
:102F5000FFFFFFFFFFFFFFFFFFFFFFFFFFF906FF80
:102F6000FFFFFFFFFFFFFFFFFFFFFFFFFFFFFFFF71
:102F7000FFFFFFFFFFFD1000003FFFFFFFFFFFFF10
:102F8000FFFFFFFFFFFFFFFFFFFFFFFFFFFFFFFF51
:102F9000FFFFFFFFFFFFFFFFFFFFFFFFFFFFFFFF41
:102FA000FFFFFFFFFFFFFFFFFFFFFFFFFFFFFFFF31
:102FB000FFFFFFFFFFFFFFFFFFFFFFFFFFFFFFFF21
:102FC000FFFFFFFFFFFFFFFFFFFFFFFFFC00AFFF63
:102FD000FFFFFFFFFFFFFFFFFFFFFFFFFFFFFFFF01
:102FE000FFFFFFFFFFFFFFFFFFFFFFFFFFFFFFFFF1
:102FF000FFFFFFFFFFFFFFFFFFFFFFFFFFF00FFFE0
:10300000FFFFFFFFE02FFFFF00FFFFFFFFFFFFFFBE
:10301000FFFFFFFFFFFFFFFFFFFFFFFFFFFFFFFFC0
:10302000FFFFFFFFFFFFFFFFFFFFFFFFFFFFFFFFB0
:10303000FFFFFFFFFFFFFFFFFF4CFEA01FFFFFFF93
:10304000FFFFFFFFFFFFFFFFFC00FFFFFFFFFFFF92
:10305000FFFFFFFFFFFFFFFFFFFFFFFFFFFFFFFF80
:10306000FFFFFFFFFFF00FFFFFFFFFFFFFF00FFF6E
:10307000FFFFFFFFFFFFFFFFFFFFFFFFFFFFFFFF60
:10308000FFFFFFFFFFFFFFFFFFFFFFFFFFFFFFFF50
:10309000FFFFFFFA01FFFFFFFFFFFFFFFFFF00FF42
:1030A000FFFFFF00FFFFFFFF00FFFFFFFFFFFFFF2E
:1030B000FFFFFFFFFFFFFFFFFFFFFFFFFFFFFFFF20
:1030C000FF0FFFFFFFFFFFFFFFFFFFFFFFFFFFFF00
:1030D000FFFFFFFFFFE02FFFFF50EFFFFFFFFFFFAE
:1030E000FFFFFFFFFFFFFFFFF20DFFFFFFFFFFFFEF
:1030F000FFFFFFFFFFFFFFFFFFFFFFFFFFFFFFFFE0
:10310000FFFFFFFFFFFFFFFFFFFFFFFFFFFFFFFFCF
:10311000FFFFFFFFFFFFFFFFFFFFFFFFFFFFFFFFBF
:10312000FFFFFFFFFFFFFFFFFFFFFFFFFFFFFFFFAF
:10313000FFFFFFF20DFFFFFFFFFFFFFFFFFFFFFF9E
:10314000FFFFFFFFFFFFFFFFFFFFFFFFE72003CFB2
:10315000FFFFFFFFFFFFFFFFFFFFFFFFFFFFFFFF7F
:10316000FFFFFFFFFFFFFFFFFFFFFFFFFFFFFFFF6F
:10317000FFFFFFFFFFFFFFFFFFFFFFFFFFFFFFFF5F
:10318000FFFFFFFFFFFFFFFFFFFFFFFFFFFFFFFF4F
:10319000FFFFFFFFFFFFFFFFFFFFFFFFFFFFFFFF3F
:1031A000FFFFFFC3EFFFFFFFFFFFFFFFFFFFFFFF7B
:1031B000FFFFFFFFFFFFFFFFFFFFFFFFFFFFFFFF1F
:1031C000FFFFFFFFFFFFFFFFFFFFFFFFFFFFFFFF0F
:1031D000FFFFFFF0001FFFFFFFFFFFFFFF3000FFBB
:1031E000FFFFFFFFFFFFFFFFFFFFFFFFFFFFFFFFEF
:1031F000FFFFFFFFFFFFFFFFFFFFFFFFFFFFFFFFDF
:10320000FFFFFFFFFFFFFFFFFFFFFFFFFFFFFF00CD
:1032100000006FFFFFFFFFFFFFFFFFFFFFF0000356
:10322000FFFFFFFFFFFFFFFFFFFFFFFFFFFFFFFFAE
:10323000FFFFFFFFFFFFFFFFFFFFFFF00FFFFFFF9D
:10324000FFFFFFF00FFFFFFFFFFFFFFFFFFFFFFF8D
:10325000FFFFFFFFFFFFFFFFFFFFFFFFFFFFFFFF7E
:10326000FFFFFFFFFFFFFFFFFF0007FFFFFFFFFF65
:10327000FFFFFFFF20BFFFFFFF00FFFFFFFC01FF7D
:10328000FFFFFFFFFFFFFFFFFFFFFFFFFFFFFFFF4E
:10329000FFFFFFFFFFFFFFFFFFFFFFFFFFFFFFFF3E
:1032A000FFFFFFFFFFFFFFFFFFFFFFFFFFFFFFFF2E
:1032B000FFFFFFFFFFFFFFFFFFFFFFFFFFFFFFFF1E
:1032C000FFFFFFFFFFFFFFFFFFFFFFFFFFFFFFFF0E
:1032D000FFFFFFFFFFFFFFFFFFFFFFFFFFFFFFFFFE
:1032E000FFFFFFFFFFFFFFFFFFFFFFFFFFFFFFFFEE
:1032F000FFFFFFFFFFFFFFFFFFFFFFFFFFFFFFFFDE
:10330000FFFFFFFFFFFFFFFFFFFFFFFFFFFFFFFFCD
:10331000FFFFFFFFFFFFFFFFFFFFFFFFFFFFFFFFBD
:10332000FFFFFFFFFFFFFFFFFFFFFFFFFFFFFFFFAD
:10333000FFFFFFFFFFFFFFFFFFFFFFFFFFFFFFFF9D
:10334000FFFFFFFFFFFFFFFFFFFFFFFFFFFFFFFF8D
:10335000FFFFFFFFFFFFFFFFFFFFFFFFFFFFFFFF7D
:10336000FFFFFFFFFFFFFFFFFFFFFFFFFFFFFFFF6D
:10337000FFFFFFFFFFFFFFFFFFFFFFFFFFFFFFFF5D
:10338000FFFFFFFFFFFFFFFFFFFFFFFFFFFFFFFF4D
:10339000FFFFFFFFFFFFFFFFFFFFFFFFFFFFFFFF3D
:1033A000FFFFFFFFFFFFFFFFFFFFFFFFFFFFFFFF2D
:1033B000FFFFFFFFFFFFFFFFFFFFFFFFFFFFFFFF1D
:1033C000FFFFFFFFFFFFFFFFFFFFFFFFFFFFFFFF0D
:1033D000FFFFFFFFFFFFFFFFFFFFFFFFFFFFFFFFFD
:1033E000FFFFFFFFFFB30027FFFFFFFFFFFFFFFF10
:1033F000FFFFFFF0003DFFFFFFFFFFFFFFFFFFFFAD
:10340000FFFFFFFFFFFFFFFFFFFFFFFFFFFFFFFFCC
:10341000FFF00FFFFFFFFFFFFFF00FFFFFFFFFFFBA
:10342000FFFFFFFFFFFFFFFFFFFFFFFFFFFFFFFFAC
:10343000FFFFFFFFFFFFFFFFFFFFFFFFFFFFFF009B
:103440004FFFFFFFFFFFFFFFFFFFB200FFFFFF0087
:10345000FFFFFF002AFFFFFFFFFFFFFFFFFFFFFF50
:10346000FFFFFFFFFFFFFFFFFFFFFFFFFFFFFFFF6C
:10347000FFFFFFFFFFFFFFFFFFFFFFFFFFFFFFFF5C
:10348000FFFFFFFFFFFFFFFFFFFFFFFFFFFFFFFF4C
:10349000FFFFFFFFFFFFFFFFFFFFFFFFFFFFFFFF3C
:1034A000FFFFFFFFFFFFFFFFFFFFFFFFFFFFFFFF2C
:1034B000FFFFFFFFFFFFFFFFFFFFFFFFFFFFFFFF1C
:1034C000FFFFFFFFFFFFFFFFFFFFFFFFFFFFFFFF0C
:1034D000FFFFFFFFFFFFFFFFFFFFFFFFFFFFFFFFFC
:1034E000FFFFFFFFFFFFFFFFFFFFFFFFFFFFFFFFEC
:1034F000FFFFFFFFFFFFFFFFFFFFFFFFFFFFFFFFDC
:10350000FFFFFFFFFFFFFFFFFFFFFFFFFFFFFFFFCB
:10351000FFFFFFFFFFFFFFFFFFFFFFFFFFFFFFFFBB
:10352000FFFFFFFFFFFFFFFFFFFFFFFFFFFFFFFFAB
:10353000FFFFFFFFFFFFFFFFFFFFFFFFFFFFFFFF9B
:10354000FFFFFFFFFFFFFFFFFFFFFFFFFFFFFFFF8B
:10355000FFFFFFFFFFFFFFFFFFFFFFFFFFFFFFFF7B
:10356000FFFFFFFFFFFFFFFFFFFFFFFFFFFFFFFF6B
:10357000FFFFFFFFFFFFFFFFFFFFFFFFFFFFFFFF5B
:10358000FFFFFFFFFFFFFFFFFFFFFFFFFFFFFFFF4B
:10359000FFFF0000000000FFFFFFFFFFFFFFFFFF36
:1035A000FFFFFFFFFFFFFFFFFFFFFFFFFFFFFFFF2B
:1035B000FFFFFFFFFFFFFFFFFFFFFFFFFFFFFFFF1B
:1035C000FFFFFFFFFFFFFFFFFFFFFFFFFFFFFFFF0B
:1035D000FFFFFFFFFFFFFFFFFFFFFFFFFFFFFFFFFB
:1035E000FFFFFFFFFFFFFFFFFFFFFFFFFFFFFFFFEB
:1035F000FFFFFFFFFFFFFFFFFFFFFFFFFFFFFFFFDB
:10360000FFFFFFFFFFFFFFFFFFFFFFFFFFFFFFFFCA
:10361000FFFFFFFFFFFFFFFFFFFFFFFFFFFFFFFFBA
:10362000FFFFFFFFFF00FFFFFFFFFFFFFFFFFFFFA9
:10363000FFFF206572726F720020636861726769B4
:103640006E67002063686172676564002064697357
:1036500063686172676500536C6565703A200000AD
:1036600011241FBECFEFD0E2DEBFCDBF11E0A0E03E
:10367000B1E0ECEFF6E900E00BBF02C007900D925D
:10368000A234B107D9F725E0A2E4B1E001C01D9250
:10369000AD3BB207E1F70DD00C94724B0C940000D7
:1036A000F89481E085BF82E085BFE0E0F0EF099506
:1036B000089588E19FE00FB6F894A8958093600084
:1036C0000FBE9093600080E890E00FB6F89480936E
:1036D0006100909361000FBE04B603FE0AC083E34D
:1036E00090E0CCD5882329F060E083E390E0C1D559
:1036F000D7DF89EF87BD84E085BD82E084BD8093FC
:103700006E00109280008AE08093810084B7877FEA
:1037100084BF389A18D7C8D60E94B5490E94233270
:103720000E94482B0E94D43F0E948E3F82E491E089
:1037300020D7609142017091430140E081E891E01F
:103740000E94DD250E94C5400E9463410E946A3D9F
:1037500083E696E39093F0038093EF0383E690E093
:103760008DD580934E018BE080934D010E94C9441A
:10377000409A0E949B4A97D10E942A2DD1D20E9442
:1037800068440E9498450E94E13FF3CF9C01DA0112
:10379000832F99278230910509F18330910539F003
:1037A000019709F180E090E020E030E00EC0C9010F
:1037B0009927213069F08230910569F0E2E0F1E06B
:1037C000892B81F7849190E09F012D933C9308957C
:1037D000EAEEF0E0F7CFE0EEF0E0F4CF83E490E043
:1037E00026E031E0F2CF82E190E029E431E0EDCF54
:1037F0008EBD0DB407FEFDCF8EB50895EF92FF92FA
:103800000F931F93CF93C82F8A3008F0C8E028E0A9
:10381000C29FC0011124FC01EB54FE4F7F010BE25B
:1038200010E0F7016491C8010F5F1F4F22D5FFEF31
:10383000EF1AFF0A03331105A1F7C55061E1C53046
:1038400008F067E184E290E014D5CF911F910F91C9
:10385000FF90EF9008950F931F93CF93DF930CE8A1
:1038600011E0C2E0D0E0F8016491CE01219601D5CB
:103870000F5F1F4FCB32D105B1F703E611E0C7E36D
:10388000D0E0F8016491CE012196F3D40F5F1F4F71
:10389000C036D105B1F788E0B1DFDF91CF911F913C
:1038A0000F9108957198806CA3DF80E0A1DF719A79
:1038B0000895CF93C62F719880649ADF8C2F98DF7C
:1038C000719ACF910895719893DF719A08950F932B
:1038D0001F93CF93DF93EC01ED98699A719A8EE173
:1038E00090E0AFD271988EE190E0ABD2719A8DE208
:1038F00090E0A7D280E3E7DF84E690E0A2D271985F
:1039000080E476DF8E01075D1F4FCE012196B6D48D
:103910006FDF0C171D07C9F7719A71988EE768DF82
:10392000CBE2D0E0CE012196A9D462DFC333D1052A
:10393000C9F7719A83E3C7DF81E088D2DF91CF9125
:103940001F910F910895A1E0B0E0E9EAFCE10C9429
:10395000F44A22E0298341E0BE016F5F7F4F019668
:103960000E945B2889814ADF82E090E0B0DF2196E7
:10397000E2E00C94104BCF93ED9886E3A4DFCFEFF9
:1039800085E3A1DF8077803231F08AE090E059D280
:10399000C150C111F5CFCF910895CF93CFEF84E3FC
:1039A00092DF8077803131F08AE090E04AD2C150D6
:1039B000C111F5CFED9ACF910895A2E0B0E0E3EE0A
:1039C000FCE10C94F24A8C01FC018181873701F5FE
:1039D00041E0BE016F5F7F4FC80102960E945B28E5
:1039E000892BB1F041E0BE016E5F7F4FC8010496A4
:1039F0000E945B28892B61F06A8189815ADF83E309
:103A000062DFCBDF898131D48A812FD4AAD319C058
:103A100041E0BE016E5F7F4FC80101960E945B28A6
:103A2000892B79F08A81893981F410E0812F3ADF7E
:103A30001CD4812F8770873009F493D31F5F103314
:103A4000A9F72296E4E00C940E4B2CDF182F83E4A8
:103A50006CD28A810AD48FE591E076D3812F05D488
:103A60008BE591E071D340E262E0812F90E07DD35D
:103A7000CDCFCF93CFEF86E326DF8077882331F059
:103A80008AE090E0DED1C150C111F5CF89E31BDFA0
:103A900010924401CF91089582E090E018DF81E018
:103AA0008093440108958091B305843009F03EC0AD
:103AB0008093E90080914501811104C08091E80064
:103AC00085FD3AC083E08093E9008091AC038823B0
:103AD00069F18091E80085FF29C0F8948091AC03DA
:103AE000882341F08091F2009091F3008034910599
:103AF00008F443C078942091F2003091F300809153
:103B0000E800982F9E7F9093E8008F778093E800DD
:103B10002034310559F40E9466488091E800982FBE
:103B20009E7F9093E8008F778093E80008956091DE
:103B3000F10087E693E0D9D48091F2009091F300F0
:103B4000892BA9F78091E800982F9B7F9093E8003C
:103B50008F778093E80081E08093450183E59DE1C4
:103B60009093EE038093ED03E091EF03F091F00367
:103B700081E0099510924501A5CF8AEA93E0CCD463
:103B80008093F100ABCF42E061EC82E00E941848E4
:103B900042E361E883E00E94184842E360E884E081
:103BA0000E94184810920001109201011092020127
:103BB0001092030108958091B4059091B50591325A
:103BC000B1F0923259F1903291F5813281F58091C4
:103BD000E800877F8093E80067E070E080E091E094
:103BE0000E9432498091E800982F9E7F11C0813A4F
:103BF000F1F48091E800877F8093E80067E070E04F
:103C000080E091E00E9490488091E800982F9B7F8F
:103C10009093E8008F778093E8000895813239F41B
:103C20008091E800877F8093E8000C9442480895D3
:103C30001F921FB61F9211248F938BB78F939F9360
:103C4000AF93BF93EF93FF93809147019091480109
:103C5000A0914901B0914A010196A11DB11D809327
:103C6000470190934801A0934901B0934A01809184
:103C700046018F5F80934601E1E5F2E0808191810A
:103C8000181619061CF4019791838083369682E0FA
:103C9000E936F80799F780918A0290918B02009794
:103CA00029F0019790938B0280938A0280918E0273
:103CB0008F3F19F0815080938E02FF91EF91BF9159
:103CC000AF919F918F918BBF8F911F901FBE1F90BF
:103CD0001895FC018FB7F894409147015091480125
:103CE0006091490170914A014083518362837383DB
:103CF0008FBF0895A4E0B0E0E0E8FEE10C94F44A40
:103D0000CE010196E6DF8C81B0D28B81AED28A8162
:103D1000ACD28981AAD225D22496E2E00C94104B31
:103D20000F931F93CF938091470190914801A091E9
:103D30004901B0914A0120914C01281709F46DC046
:103D40008091470190914801A0914901B0914A01A9
:103D500080934C01A89501E512E0C0E0F801808154
:103D60009181892B19F48C2F0E949634CF5F0A5FC2
:103D70001F4FC43099F780918A0290918B02892B52
:103D800011F40E94F43480918E02811102C00E94CD
:103D90004D358091AB05882339F081508093AB0578
:103DA000811102C00E942A46809146018D37A8F1F8
:103DB000109246018091070181FF04C088B191E013
:103DC000892788B98091A4019091A5018438F3E0F6
:103DD0009F0728F401969093A5018093A4018091F8
:103DE00052058F3F19F08F5F8093520580915B05DC
:103DF000882359F090915205891307C08091B3052B
:103E0000843079F480E00E94CF3780914B0191E0BB
:103E1000980F8B3349F090934B01CF911F910F91E5
:103E200008950E947440F1CF10924B0180918C0252
:103E30008F5F8C3308F080E080938C020E94573FA4
:103E4000ECCF880F991F0197F1F7089520ED37E027
:103E5000811101C00895F9013197F1F78150F8CF30
:103E6000CF93DF93FC018381843509F055C08081B5
:103E7000DF0150962DE0281708F451C030E090E0A3
:103E8000AC014F5051092417350709F045C0EF0127
:103E90002396DC011E97AC0FBD1F2C912435E1F554
:103EA000348111962C911197321336C035811296B8
:103EB0002C911297321330C0368113962C911397A0
:103EC00032132AC0378114962C911497321324C0D0
:103ED0004197C80FD91F15968C9115978883169610
:103EE0008C911697898319968C9119978A831A96C3
:103EF0008C911A978B831B968C911B978C831C96A5
:103F00008C911C978D831D968C918E8380818A5015
:103F1000808382818A508283DF91CF9108959D9121
:103F20009B3309F4ABCF2F5FA6CFA2E0B0E0EBE963
:103F3000FFE10C94F34A182F9091B30580914D0145
:103F4000943009F050C080FF4EC08091AC038034A3
:103F500008F0A9DD612F8AEA93E0C7D21A3071F028
:103F600080914D019091AD05992311F083FD5DC0C5
:103F700081FF6EC01D3009F07FC050C094DD90916C
:103F8000AD0580914D019923D1F0982F927083FD5A
:103F900049C0911116C080914E01882309F43EC09A
:103FA000E09170011A3071F1E032C0F581E08E0FBE
:103FB00080937001F0E0E15BFE4F10832FC081FF22
:103FC000EACFE0918001F0E0EE58FE4F10821092AF
:103FD000800180917101811182C062E771E080E00F
:103FE0000E944D3880C09091AD05992309F46FC0AF
:103FF00083FF6DC01A30C9F481FDE3CF80914E017B
:10400000882361F0E0917001F0E0E15BFE4F1082E7
:10401000109270018FE491E00E94D2412296E3E079
:104020000C940F4B9111CDCFE9CF1D30B9F46BE358
:1040300087E695E05AD287E695E012DF83E0809329
:10404000AB0582E08093AA0580914D0181FDE6CF0A
:1040500080914E01882311F31D30A0CF612F87E698
:1040600095E043D283E08093AB0582E08093AA057C
:1040700080914D0181FFECCFE0918001ED3040F463
:1040800081E08E0F80938001F0E0EE58FE4F1083A8
:1040900080917101882349F191E0980F909371010B
:1040A000823009F043C0809180018250809380016A
:1040B00090E08E589E4F41E0BC01FDD78091800179
:1040C0008F5F8093800181E08093710164CF81FFD5
:1040D000BFCF1D3009F4A2CF1A3071F672CF82E73C
:1040E00091E00E94343610927101809180018530F8
:1040F00009F051CF80917201863409F04CCF42E033
:10410000BE016F5F7F4F83E791E0D5D799818091A2
:104110009002981340CF9A8180918F0298133BCFE1
:1041200081E0809371011092800135CF911133CFDE
:10413000DCCFCF93DF93EC018991811103C0DF9134
:10414000CF910895F2DEF8CFCF93DF93EC01FE011B
:104150008491811103C0DF91CF910895E6DE21960D
:10416000F6CF8DE0E2DE8AE0E0CEA6E0B0E0EBEB59
:10417000F0E20C94F04AFC01262F1E828E010A5FA9
:104180001F4F35E08AE0E82EF12CCF01B7010E94E5
:10419000AD4A3150805DD8018E938D01CF01FB0176
:1041A0000A97A8F4832F2550622F630F615067FD93
:1041B00002C0811110C021E030E02C0F3D1F280FFC
:1041C000311DC901B6DF2696E6E00C940C4B311187
:1041D000DCCF80E0E8CF8150E1E0F0E0EC0FFD1FA4
:1041E000E80FF11D4083E2CFA5E0B0E0EAEFF0E296
:1041F0000C94F44A9C011D8254E0922F9F709A30D7
:1042000048F5905D8FEF850FE1E0F0E0EC0FFD1FCA
:10421000E80FF11D9083F90194E0F695E7959A95E2
:10422000E1F72031310598F45550650F615067FD75
:1042300002C0811111C021E030E02C0F3D1F280F7A
:10424000311DC90176DF2596E2E00C94104B582F02
:104250009F01D3CF995CD6CF8150E1E0F0E0EC0F25
:10426000FD1FE80FF11D4083E1CF40E362E090E0E5
:10427000BBCF0E94644BF999FECF08950C945C4B20
:1042800008950F931F93CF938C01CFEFC60FC801F2
:10429000F5DFEBDFCC2331F00F5F1F4F8AE345DE04
:1042A000C150F5CFCF911F910F910895A2E0B0E0DA
:1042B000ECE5F1E20C94F14AFC0181818D3449F482
:1042C00066E08AEF9FE0DDDF4CDF2296E5E00C94AC
:1042D0000D4B803521F460E18AED9FE0F4CF1A8226
:1042E000198242E0BE016F5F7F4FCF010196E3D696
:1042F000098110E0823029F409811A8110270127F1
:104300001027C801BBDFF82E82E50FDE40E364E032
:10431000C8016ADF84E192E017DF8F2DA6DF80E11C
:1043200092E012DF40E262E08F2D90E01EDFCCCF02
:10433000A6E0B0E0EEE9F1E20C94EC4A6C0143E057
:10434000CE0101967C01BC01C6010196B4D68C0158
:10435000BE2CAF2C8230D0F0E980F12C823029F0D5
:10436000E980FA80FE24EF24FE241127FE01E00FED
:10437000F11F6081C7017DDF000F111F0F5F1F4F0D
:104380000C0D1D1DF8018081811104C02696EAE004
:104390000C94084B41E06B2D7A2DC8018CD6892BEB
:1043A000A9F39FEFE91AF90A6981C70162DF0E5F7D
:1043B0001F4FE8CF41E067E071E001967CD6809125
:1043C000070180FF06C040986091070184E390E0F8
:1043D00050CF409AF9CFA1E0B0E0E1EFF1E20C94C8
:1043E000F44A1982009731F041E0BE016F5F7F4FC0
:1043F000019661D689818F3F09F4FFCF882321F090
:1044000061E083E390E035DF0E94C54981E891E0F7
:10441000AFD310926E00F89488E198E00FB6F8944C
:10442000A895809360000FBE90936000FFCFCF935C
:10443000DF93EC0161E080E090E01BDF64E481E069
:1044400090E017DF08DA60E080E690E012DF60E0DD
:1044500081E690E00EDF60E083E390E00ADF62E057
:1044600084E390E006DF60E480E690E002DF60E84D
:1044700081E690E0FEDE6EE182E690E0FADE60E04A
:1044800083E690E0F6DE60E080E690E0F2DE60E059
:1044900081E690E0EEDE8981883719F080E090E0D7
:1044A0009ADFDF91CF91089580E090E0E7DE8130E0
:1044B00029F481E090E0E2DE843419F080E090E0BD
:1044C000B6DF84E390E0DADE8093070182E690E0D5
:1044D000D5DE80935B05089585E092E035DE41CE20
:1044E000FC011282108211820895FC019FB7F8949A
:1044F0008281803410F09FBF08958F5F8283A081F6
:1045000081E08A0F8083AE0FBF2FB11D13966C938D
:10451000803489F71082EFCFFC019FB7F894828135
:10452000811102C09FBF089581508283A18121E043
:104530002A0F2183AE0FBF2FB11D13968C9120340B
:1045400089F71182EFCFE4E6F0E080818B7F8083F2
:10455000299A84B1876084B9239880E58CBD8DB594
:1045600081608DBD08958EBD0DB407FEFDCF8EB563
:104570000895269A0895CF93DF93EA012E9883E554
:10458000611185E5F0DFCC0FDD1FCC0FDD1F8D2F16
:10459000EADF8C2FE8DF80E0E6DF2E9ADF91CF9113
:1045A0000895A0E0B0E0E7EDF2E20C94EE4AEA01F3
:1045B000D22EC32E78012E9881ED611183EDD3DFC9
:1045C00080E0D1DF8C2DCFDF8D2DCDDFEC0EFD1EF9
:1045D000CE15DF0531F42E9ACDB7DEB7E8E00C94A6
:1045E0000A4B80E0C0DF8993F3CFA0E0B0E0EBEFAF
:1045F000F2E20C94EE4AEA01D22EC32E78012E98F4
:1046000084E8611187E8AFDF80E0ADDF8C2DABDFA0
:104610008D2DA9DFEC0EFD1ECE15DF0531F42E9A8F
:10462000CDB7DEB7E8E00C940A4B89919CDFF4CF5C
:10463000CF93DF93EA012E9883E8611186E893DF38
:10464000CC0FDD1FCC0FDD1F8D2F8DDF8C2F8BDF6F
:1046500080E089DF2E9ADF91CF9108952E9887ED23
:1046600082DF80E080DF87FFFCCF2E9A0895FF92E3
:104670000F931F93CF93DF93EC018B01F42E4A81AC
:104680005B8146175707C9F08C8180FF0AC060E044
:1046900088819981CDDF8C818E7F8C8388819981FF
:1046A000DDDF1B830A83FF2041F0A80160E08881E1
:1046B000998161DF88819981D1DFCDB7DEB7E5E0EF
:1046C0000C940D4B0F931F93FC019B01858190E08F
:1046D0008617970779F0658384E0220F331F8A9548
:1046E000E1F7AF014A5F5F4F00E110E061E08081D8
:1046F000918157DF1F910F910895A0E0B0E0E3E8AA
:10470000F3E20C94EB4AEC01C62E972E1D82E12CAD
:10471000F12C5C0186E0A80EB11C00E110E09701CD
:10472000A50161E0888199813CDFD884D11019C04E
:104730001F821E824EE050E06C2D792DCE0108962E
:104740000E944D4B9701A50161E0888199814DDF61
:104750008C8182608C838D2DCDB7DEB7EBE00C941D
:10476000074B8D818F5F8D8380E1E80EF11CE11492
:1047700082E0F80691F682E0D82EEDCFA0E0B0E01E
:10478000E4ECF3E20C94EA4AEC015A0179011D824F
:10479000C12CD12C4C0186E0880E911C00E110E068
:1047A0009601A40161E088819981FBDE88858823D8
:1047B000B1F0E114F10481F4BE01685F7F4F4EE077
:1047C00050E0C5010E944D4BF501168680E0CDB743
:1047D000DEB7ECE00C94064BF1E0EF1AF1088D81A6
:1047E0008F5F8D8380E1C80ED11CC114E2E0DE062C
:1047F000A9F682E0ECCFA0E0B0E0E1E0F4E20C94B6
:10480000EA4AEC01962E872E6C0188E0C80ED11C76
:104810004EE050E0C6010E943F4B892B39F48D8158
:1048200090E0CDB7DEB7ECE00C94064B1D82E12C96
:10483000F12C5E0186E0A80EB11C00E110E09701AA
:10484000A50161E088819981ACDE4EE050E0692DE0
:10485000782DC6010E943F4B9C019D81232B11F4B2
:10486000892FDECF81E0890F8D8380E1E80EF11C76
:10487000E11482E0F80609F78FEF9FEFD2CFEF92B5
:10488000FF920F931F93CF93DF93EC017B018A017B
:10489000FA018081882319F0BA01CE0125D0B70131
:1048A000CE01A9DF0196F1F04EE050E0B801CE0153
:1048B00008960E944D4B2D8180E1289F9001112484
:1048C000AE014A5F5F4F00E110E061E088819981AD
:1048D0008CDE8C8182608C8380E0CDB7DEB7E6E031
:1048E0000C940C4B81E0F9CF48E251E0C8CFA6E030
:1048F000B0E0EDE7F4E20C94E44A5C014B011A01EC
:1049000009831A832B833C8329813A813E832D833B
:10491000D9DED50116968D919C91ED81FE818E1781
:104920009F0708F45CC0360129813A81C20ED31E6C
:104930008C159D0518F43C01621A730A9694982C04
:104940008824979487943FEF831A930A49805A806A
:10495000452C55244694480C591C89819A819170A4
:104960009A8389837301812C912CE114F10479F4E9
:10497000C301A0E0B0E089839A83AB83BC836981E3
:104980007A818B819C812696E2E10C94004B41E078
:10499000B201C5016CDE89819A818E0D9F1D670170
:1049A0008130924038F0C12C82E0D82EE981FA8122
:1049B000CE1ADF0AA101480D591D860129813A81CD
:1049C00060E0D5018D919C91ECDDEC18FD088C0C1C
:1049D0009D1CBFEF4B1A5B0A19821A82C6CF19823F
:1049E0001A821B821C82CBCFA6E0B0E0EAEFF4E291
:1049F0000C94E44A8D839E835B011A0128013901DE
:104A0000C982DA82EB82FC8289819A81AB81BC8186
:104A1000840D951DA61DB71D009721E0A207B105C5
:104A20000CF08CC06F31710531F481159E4FA105DA
:104A3000B1050CF083C0E980FA80B5018D819E81BB
:104A400041DEED81FE818680978089819A81840D87
:104A5000951D88169906B0F49783868302E010E0CE
:104A6000950164E0220F331F6A95E1F7AF014A5FB9
:104A70005F4F61E080819181B8DDED81FE818481AD
:104A800082608483B694BA2CAA24B794A794920126
:104A9000232F332726956501FFEFCF1ADF0AC20EB9
:104AA000D31E21E05222C401892F992786958A0DB1
:104AB0009B1DE1E09E223C018928E1F1F2E06F0EAE
:104AC000711C812C912C2EC041E0C614D70408F033
:104AD00040E0B6018D819E81CADDC2018E0D9F1D11
:104AE00057018130924028F0A12C82E0B82EA41802
:104AF000B508A101480D591D8501920160E0ED81C5
:104B0000FE818081918171DDED81FE8184818160F2
:104B10008483EA18FB088A0C9B1CFFEFCF1ADF0A7C
:104B2000412C512CE114F10479F680E02696E2E163
:104B30000C94004B2FEF621A720AC3CF82E0F6CFBB
:104B4000A4E0B0E0E6EAF5E20C94F44A89839A83A3
:104B500089819A81B7DDE981FA81868197819C01FB
:104B600040E050E0CA01B9012496E2E00C94104BF9
:104B7000CF93DF93EC018C8180FF0CC04A815B8175
:104B800060E08881998154DD8C818E7F8C8388815F
:104B9000998164DD8C8181FF0CC040E050E061E0D0
:104BA0008881998145DD8C818D7F8C838881998175
:104BB00055DD80E0DF91CF910895A0E0B0E0E3EE15
:104BC000F5E20C94EE4AEC01CB01F42E6883998354
:104BD0002FEF3FEF3B832A831C822D8340E050E080
:104BE00061E0C9DC8881998139DD6E0186E0C80EFB
:104BF000D11C00E110E020E032E0A60161E08881F4
:104C00009981CFDC8E01085F1F4F8E819F810497B1
:104C100059F444E050E064E271E0C8010E943F4B67
:104C2000892B11F4FF2051F184E090E09F838E8363
:104C30004EE050E064E271E0C8010E944D4B00E19B
:104C400010E020E032E0A60161E088819981CDDCAE
:104C50001886E12CF12C00E110E09701A60161E03B
:104C600088819981C2DC80E1E80EF11CE11482E0C8
:104C7000F80689F782E08C83CE017ADF80E0CDB739
:104C8000DEB7E8E00C940A4B8F929F92AF92BF92EE
:104C9000CF92DF92EF92FF920F931F93CF9380906A
:104CA0006903C0914D0180934D01912CA12CB12C31
:104CB00000919C0110919D0120919E0130919F01D6
:104CC00060919A0170919B01750164014AE653E07D
:104CD00081E891E089DE80919C0190919D01A091F5
:104CE0009E01B0919F01880D991DAA1DBB1D409189
:104CF000A0015091A1016091A2017091A3018417BC
:104D00009507A607B70731F5809198019091990111
:104D10009093F0038093EF0381E891E029DF809185
:104D20009701882329F00E946A3D80E00E943C3C64
:104D3000C6D487E693E0D4DBC0934D01CF911F9199
:104D40000F91FF90EF90DF90CF90BF90AF909F902A
:104D50008F90089580939C0190939D01A0939E0154
:104D6000B0939F01E6CFAFE0B0E0E9EBF6E20C9440
:104D7000ED4AFC01B0904E0110924E0111811123B9
:104D800031F01E3209F042C0128111113FC0212FB3
:104D900030E0AE014F5F5F4F60E070E081E891E08E
:104DA000EDDC882339F0DDD9B0924E012F96E9E091
:104DB0000C94094BCE010196BCD98FE2B6D8BE0146
:104DC0006F5F7F4F81E891E016DDBC0180939A010F
:104DD00070939B0181E891E0B3DE6093A001709332
:104DE000A1018093A2019093A30140E364E0E82F26
:104DF000F92FCF01F9D940E364E08091A0019091AF
:104E0000A101F2D980E291D81F5FC1CFBF016F5FCE
:104E10007F4F81E891E0EFDCBC0190939B01809390
:104E20009A016F3F760719F488E57FD8BCCF81E8F7
:104E300091E086DE6093A0017093A1018093A201AE
:104E40009093A30140E364E0E82FF92FCF01CCD980
:104E500040E364E08091A0019091A101C5D981D97E
:104E6000E091ED03F091EE03099510929C011092F0
:104E70009D0110929E0110929F010E94391D009188
:104E80009C0110919D0120919E0130919F01C09045
:104E9000A001D090A101E090A201F090A3010C1517
:104EA0001D052E053F052CF08AEA93E019DB07D497
:104EB0007BCFC01AD10AE20AF30A81E4C816D104F2
:104EC000E104F1042CF080E4C82ED12CE12CF12C6B
:104ED000C092AC031092AB0360919A0170919B0158
:104EE0004DEA53E081E891E002DD2091AC0380912E
:104EF0009C0190919D01A0919E01B0919F01820F14
:104F0000911DA11DB11D80939C0190939D01A093C3
:104F10009E01B0939F01E091ED03F091EE0309959E
:104F2000A895ADCFA8E0B0E0E8E9F7E20C94EF4A2D
:104F30008C01D0904E017C012FEFE21AF20A69E257
:104F400071E0C7010E942F4B892B61F460918101B0
:104F50007091820141E081E891E02FDE2896E7E040
:104F60000C940B4B44E0BE016F5F7F4FC701A3D091
:104F7000049739F0698160934E0183E690E079D916
:104F8000EDCF89819A81AB81BC81BC01CD010E94AA
:104F9000DD4A6093A0017093A1018093A2019093D8
:104FA000A301075F1F4FB80181E891E09DDCF82E57
:104FB0008091A0019091A101A091A201B091A301C3
:104FC0008F3F9F4FAF4FBF4FB9F481E891E0D0DDE5
:104FD00010924E01F11019C08091A0019091A10191
:104FE000A091A201B091A301892B8A2B8B2B09F4EC
:104FF00050C00E94391D4DC0B80181E891E07DDBB1
:10500000F82E882341F010924E0188E50E94951FEA
:105010008F2D2BD94CC08091A0019091A101A0911E
:10502000A201B091A301892B8A2B8B2B81F160E324
:1050300071E0C8010E942F4B9C0191E0232B09F0E5
:1050400090E090939701B80181E891E0D4DB9093D0
:105050009B0180939A0110929C0110929D011092E5
:105060009E0110929F018091EF039091F003909325
:1050700099018093980184E496E29093F0038093E1
:10508000EF0387E693E02CDA10924E01A5CF109241
:105090004E0140E364E08091A2019091A301A4D865
:1050A00040E364E08091A0019091A1019DD859D87E
:1050B000D0924E0153CFCF93DF93EB01FB0130E051
:1050C00020E0DC019D91992331F0913670F08FE959
:1050D000890F863030F0CF018C1B9D0BDF91CF9173
:1050E000089590529753292B05C080ED890F8A307F
:1050F00050F4282B332389F021934150442359F352
:1051000030E020E008C08FEB890F863058F39032F2
:1051100011F09A3301F7CD01D4CF2295207F31E0F1
:10512000FACFFB01982F92959F70803A40F4905DE2
:1051300090838F708A3028F4805D81830895995C14
:10514000F7CF895CFACFCF93DF93FB01DA019C9113
:10515000882369F0EB01C90FD11D41E050E0022E18
:1051600001C0440F0A94EAF78881842B88832223A4
:1051700031F02150822F90E0DF91CF9108959F5F11
:105180009C3008F49C93E90FF11D108227E0F2CFC8
:10519000709A882389F08091A70120E1829FC00145
:1051A00011240E94211F70988091A60120E1829F06
:1051B000C00111240C94211F8091A90120E1829F3C
:1051C000C00111240E94211F70988091A801EECF88
:1051D000A0E0B0E0EEEEF8E20C94E44A6C01462E5A
:1051E000C22F502E3E2C642E712C4E5F409F402DBE
:1051F0001124042E000C550B8091A4019091A5015F
:105200008417950748F488E192E00E94A420CDB766
:10521000DEB7E2E10C94004B841B950B9093A50143
:105220008093A401409880914401811102C00E94A2
:105230004C1D0E94BB1CA42CB12C01E010E0EC2EF4
:10524000F12CC0E08C2F0C2E000C990B8A159B05BD
:105250002CF1442011F081E09BDF212CC22D022C87
:10526000000CDD0BC615D705ECF087E0982ECC0DB1
:10527000DD1D892D092C000C990BE816F90634F177
:10528000832D0E94261F5A945110DBCF8091AB01D1
:10529000882339F10E94CD1C409AB9CF80E078DF95
:1052A000CF5FD0CF97E0892E912CCC0DDD1DC801AA
:1052B000082C01C0880F0A94EAF79881892368DFD7
:1052C00081E0881A910898F72394C8CFC801092C67
:1052D00001C0880F0A94EAF79881892359DF9A94CC
:1052E000C8CF86E30E94631CD7CFADE0B0E0EBE708
:1052F000F9E20C94E54A7C01162F842F022F6701F6
:10530000C60ED11C462FB701FDD1F60180831F5F69
:105310001D861982C12CD12C27E0CE010D96882440
:105320008394912C582E492E97E0A92EB12C370149
:105330006C0C7D1CC116C8F0222309F440C021501A
:1053400089E18093A8018093A90185E28093A60159
:105350008093A7018AE0E82E4D856CE0CE0101968E
:1053600037DF2D96E1E10C94014BF3013080C4014D
:105370000A2C01C0880F0A94EAF7452D542DBE016E
:105380006F5F7F4F8321DFDE282FF1E0AF1AB10876
:1053900088F6032C32943024032C3694369430242F
:1053A000339431FA882780F9452D542DBE016F5F63
:1053B0007F4FC9DE282FEFEFCE1ADE0AB5CF8D85DD
:1053C0008F5F8D8727E0BCCFACE0B0E0EAEEF9E27A
:1053D0000C94F24A162F042F4BE0BE016F5F7F4FF3
:1053E000019669DE682F202F412FCE0101967DDFC7
:1053F0002C96E4E00C940E4B43E066E0E5CFEF9290
:105400000F93CF93DF93CDB7DEB760970FB6F894C5
:10541000DEBF0FBECDBF40E1BE016F5F7F4F019683
:105420004ADE69814A810B818C818093A9018D813B
:105430008093A8018E818093A7018F818093A6011C
:10544000E02EE2948FE0E8220F70242F2F70429517
:105450004F70CE010896BCDE60960FB6F894DEBFA2
:105460000FBECDBFDF91CF910F91EF900895A0E0D7
:10547000B0E0EDE3FAE20C94EC4AFC011092C701B3
:105480004181440F440F440F8381481B87E0C82E9D
:10549000C40E1092C80120E030E047E057E070E011
:1054A00080E097E0E92EF12C01E010E0DD24D394B8
:1054B000D80E8C1580F02093DC013093C701CD14F9
:1054C000A0F5653409F088C04F3F09F085C02F5F13
:1054D0002093DC0183C0DF01A70FB11D14968C91CE
:1054E00090E0052E02C0959587950A94E2F78170A9
:1054F000552369F051506B34D1F4433059F43323C0
:1055000071F030E0811155C04150832F1EC07F5F84
:1055100057E0F1CF4F3FB1F781110FC02FC081117C
:1055200014C02093DC011092C70180E05DC04F3FA2
:1055300051F5663469F0653479F32F5FA22FB0E03E
:10554000A853BE4F1C92832F47E0382F8D2DAECF2E
:10555000A22FB0E0A853BE4FAC910A2EA295A02571
:105560000A2EA695A695A02590E0AF5FA695A170FE
:10557000CA2FA12CDA2D8C179D07F9F22093DC019C
:105580003093C701D2CF882309F4BECF663471F4BB
:10559000A22FB0E0A853BE4FBC90C801042E01C09A
:1055A000880F0A94EAF78B298C93AECF653409F003
:1055B000ABCFA22FB0E0A853BE4FC701841B910907
:1055C00047FD9395580102C0AA0CBB1C8A95E2F7CF
:1055D000C5019C91892BE8CF311179CF81E0909161
:1055E000DC01992309F4A1CFCDB7DEB7EAE00C9432
:1055F000084B10926F00E091DF018CE1E89FF00111
:105600001124E052FE4F10820895FC018181843103
:1056100008F0EFCF9381662381F0DF01A80FB11D61
:1056200041E050E0092E01C0440F0A94EAF71496B5
:105630002C911497242B14962C93992319F09150A4
:105640009383089597E093838F5F8183E80FF11D23
:105650001482089570E030E0FB01E21BF30B3B96EF
:105660007797A0F490E050E0FC01E41BF50B3B962B
:10567000779760F4680F791F240F351F621B730B37
:10568000655F7F4F81E06731710508F080E0089524
:10569000689A70986D98EAE6F0E080818460808373
:1056A00082EC91E09093A5018093A401E0EEF1E0FB
:1056B000148E10AE1092340210924401089580911D
:1056C000AB01882321F00E944C1D0C94CD1C0C943E
:1056D000391DFC01818181110EC08091AB010E94B6
:1056E000352140E265E08091A4019091A5010E94DE
:1056F000B5200C94B12041E06BEA71E0CF01019636
:10570000DADCDDCF9B01411101C008954150F90160
:10571000E40FF11D9081890FF6CF9C0180E06111AB
:1057200001C008956150F901E60FF11D90818927AC
:10573000F6CFAC01F091C701362F85E090E0311132
:1057400009C0292F280F80E1289F90011124892F5B
:10575000822B08957FEF730FDA01A70FB11D2C91F3
:10576000E22FE295EF709E278E0FFF2311F0361780
:1057700019F02F709227820F372FE1CFFC01228181
:105780003381A081B181A20FB11D8C9190E0032ED5
:1057900002C0959587950A94E2F781709FEF930F69
:1057A0009383311104C02F5F228397E09383089580
:1057B000A0E0B0E0EEEDFBE20C94ED4AD82EC92E4D
:1057C000E42E062F10E0E801F12CBB24B3942097BF
:1057D00031F48F2DCDB7DEB7E9E00C94094B8D2D58
:1057E0009C2DCCDFAE0141505109882349F0EE20B9
:1057F00049F02B2D042E01C0220F0A94EAF7F22A59
:10580000EA01E5CF98012C1B3D0B8B2D01C0880FC1
:105810002A95EAF7282FF3CFA4E0B0E0E2E1FCE21A
:105820000C94EC4AFC011B8287E08C83CF01049628
:105830009A8389831092DC01818128E0829FC001D4
:105840001124438127E030E0241B3109820F931F8C
:10585000853491050CF04CC080E046C0A9DFA82E2D
:10586000E12FF0E0E853FE4F8083082F002E0295D1
:105870000025002E069506950025CE0101967EDFB7
:1058800090E00F5F01FBCC24C0F8D12C8C159D0556
:1058900019F7CE01019672DF8111DECFBA241F5FA6
:1058A0001093DC011091DC0140E068E0CE0101962C
:1058B0001630A0F27DDF082F182F012E129510252B
:1058C000012E169516951025CE01019657DF90E012
:1058D0001F5F11FBEE24E0F8F12C8E159F0509F0F7
:1058E000BBCF81E0B012B8CF2496EAE00C94084B0D
:1058F000B12CD8CFA4E0B0E0E0E8FCE20C94EE4A92
:10590000FC011B8287E08C83CF0104969A838983F4
:105910008081853009F03FC0818128E0829FC001ED
:105920001124438127E030E0241B3109820F931FAB
:105930008039910581F580E00FE010EF49E8F42E01
:105940008093DC01C82ED12CEE24E394E80E41E0D4
:1059500068E08F3029F5CE0101962ADF080F111D6E
:1059600090E19093DC0180958093D70141E068E05D
:10597000CE0101961DDF90E0982F8827081B190B98
:1059800041E068E0CE01019613DF282F30E081E08E
:105990002017310709F080E02496E8E00C940A4BC8
:1059A000CE01019605DF080F111DF601E853FE4FE9
:1059B000F826F08234E2F32EF80E8E2DC1CFA4E04B
:1059C000B0E0E5EEFCE20C94F34AFC011B8287E0B8
:1059D0008C83CF0104969A83898381818430D1F4AA
:1059E00083818130B9F410E01093DC0141E0143080
:1059F000B1F467E0CE010196DBDE880F8093CC0125
:105A000085E08093DC019091C80192959F7081E0C0
:105A10009A3009F080E02496E3E00C940F4B1111CA
:105A20000CC067E0CE010196C3DE8068E12FF0E094
:105A3000E853FE4F80831F5FD7CF68E0CE01019609
:105A4000B7DEF4CF8091AA0180FD03C0846080930B
:105A5000AA010895A1E0B0E0E0E3FDE20C94EF4A72
:105A600019826091AC01662321F18091AB0187FF1F
:105A700004C08091AD010E94853A8091AB0183FF03
:105A800016C082E70E94951F8091AB0184FF04C07D
:105A90008091AD010E94951F86E60E94951F80911E
:105AA000AB0184FF04C08091AC010E94951F10924D
:105AB000AC018091DD01882309F4ACC140980091CC
:105AC000DE012CE1029F8001112400521E4F8981CA
:105AD000811119C0C8010EDF882309F4B0C183E524
