:1000000021C200003DC200003BC200000C94EE146F
:1000100037C2000035C2000033C2000031C2000008
:100020002FC200002DC200002BC2000029C2000018
:1000300027C200000C94881423C2000021C20000D3
:1000400045C400001DC200001BC2000019C2000010
:100050000C9498260C94602613C2000011C2000074
:100060000FC200000DC200000BC2000009C2000058
:100070000C94E72705C2000003C2000001C2000083
:10008000FFC10000FDC10000FBC100006D2E264233
:10009000C507620B2D43AC0346E90969301C4135A5
:1000A0000C5A8E0E47ED094D250A596C1E522F072A
:1000B000549C21562C0857710758131065EC07669D
:1000C00067252A0C2925BF286CB30774C8047582DC
:1000D000177873037A761B000000202F2000203D44
:1000E0002000072E050DD391FF080500000C00210C
:1000F000656A2D3B1322F862073F181D1CC700B02C
:10010000876BF8B611EA2A001F41000D2E2D07D388
:10011000913D04320000060021656A55E43023B9A0
:1001200000070018146C070090876BF85611E92A35
:10013000001F410000030F1E2627000000030F1EB2
:100140002536386700030F256740605000030F27EE
:100150005188838100030F2750C8C3C200270000C5
:1001600000000000006700000000000000500000D8
:1001700000000000008100000000000000C200003C
:1001800000000000504C4C310D0A00504C4C300D1A
:100190000A005620312E36382043534D3836380069
:1001A0005620312E36382043534D34333300202F20
:1001B0002000203D20004C4F56460D0A004552526B
:1001C0003A4343410D0A000B08105B11F81547191B
:1001D0001D1A1C1BC71C001DB221B623EA00070212
:1001E0002E030D04E905CA070C0B060D210E650F41
:1001F0006A10C81193120315341733181819161BF7
:100200004321562500261129592C812D353EC34CFA
:10021000454E4552520D0A004C4F56460D0A004CB1
:10022000454E4552520D0A000007024604C60526F7
:100230000B0610C81193120313221534173F182808
:1002400019161B432156250026110D210E650F6A34
:10025000070C160720F81E871F6B29592C812D3596
:100260003EC3FF00424F56460D0A000001022E0316
:100270000104AA050F06FF070008000B060D210E5A
:10028000740FAD104B11F81216137215411818198E
:10029000161B0323E9242A2500261F3E50000102D5
:1002A0002E030104AA050F06FF070008000B060D28
:1002B000210E660F6610CA119312061352153518D7
:1002C0001819161B0323E9242A2500261F3E500077
:1002D00001022E0301045505F006FF070008000B7C
:1002E000060D210E660F9910591183121E13521517
:1002F00035181819161B0323E9242A2500261F3E4A
:10030000500D2E2D07D3913D04320000060010B091
:100310007155E43023B900070018146C070090876A
:100320006BF85611E92A001F41000D2E2D07D391BD
:100330003D04320000060010ABA5550A3023B90079
:10034000070018146C070090876BF85611E92A0013
:100350001F41004E2F4100454F420D0A004E2F41D4
:10036000004E2F410000535300547D7DFFFF4B4B47
:100370007E7E0020697320756E6B6E6F776E29200C
:10038000557365206F6E65206F66003F2028004F13
:100390004646004F464600434D4F444500544D4F9E
:1003A000444500534D4F4445000454053D1700009B
:1003B0000602000B080C000D210E6B0FD0105C1113
:1003C000041206132214F80A00154421B62210184C
:1003D00018192E1ABF1B431C091DB523EA242A2510
:1003E00000261F29592C812D352E090704080009E4
:1003F0000006FF3EC2FF04760596170000060200C5
:100400000B080C000D210E650F6A106A114A1206C6
:10041000132214F80A00154721B622101818192EB5
:100420001A6D1B041C091DB223EA242A2500261F6D
:1004300029592C812D352E0907040800090006FFD3
:100440003EC2FF0011241FBECFEFD0E4DEBFCDBF00
:1004500012E0A0E0B1E0EEE1F6E600E00BBF02C082
:1004600007900D92A838B107D9F721E1A8E8B2E0CA
:1004700001C01D92A43CB207E1F703D00C940633EF
:10048000BFCD0FB6F894A8958091600088618093E5
:100490006000109260000FBE3E9A469A179A169A14
:1004A0000E942B29C6D589EF87BD84E085BD82E0F7
:1004B00084BD80936E00109280008AE0809381005A
:1004C00080E890E00FB6F89480936100909361000B
:1004D0000FBE84B7877F84BF88E19FE00FB6F89492
:1004E000A895809360000FBE9093600089E190E82A
:1004F0000E94CD260E94762787B18C7F87B988B16C
:100500008C7F88B90E9455210E94EC0F86E297E209
:1005100090932F0B80932E0B81E0809391020E9489
:10052000A0168091910288608093910246987894F9
:100530000E94EF260E940A1241D20E94AD250E941D
:1005400024180E94DA0A0E941A0E0E94F8280E94BB
:10055000772A0E944C1AECCF8EBD0DB407FEFDCF5A
:100560008EB50895EF92FF920F931F93CF93C82FEC
:100570008A3008F0C8E028E0C29FC0011124FC01C5
:10058000EC5CFE4F7F010BE210E0F7016491C801C3
:100590000F5F1F4F47D4FFEFEF1AFF0A0333110518
:1005A000A1F7C55061E1C53008F067E184E290E051
:1005B00039D4CF911F910F91FF90EF9008950F9331
:1005C0001F93CF93DF930BE011E0C2E0D0E0F8017E
:1005D0006491CE01219626D40F5F1F4FCB32D105F7
:1005E000B1F702EE10E0C7E3D0E0F8016491CE016C
:1005F000219618D40F5F1F4FC036D105B1F7079968
:1006000018C060E18FE090E00DD460EB80E190E0F5
:1006100009D461E781E190E005D460E184E490E0F1
:1006200001D460EB85E490E0FDD361E786E490E0DF
:10063000F9D388E097DFDF91CF911F910F91089553
:100640002C98806C89DF80E087DF2C9A0895CF9307
:10065000C62F2C98806480DF8C2F7EDF2C9ACF9160
:1006600008952C9879DF2C9A08950F931F93CF93B8
:10067000DF93EC0110929B02EA98249A2C9A8EE167
:1006800090E014D22C988EE190E010D22C9A8DE25A
:1006900090E00CD280E3E5DF84E690E007D22C986E
:1006A00080E45ADF8E01075D1F4FCE012196BFD334
:1006B00053DF0C171D07C9F72C9A2C988EE74CDFD7
:1006C000CBE2D0E0CE012196B2D346DFC333D105D1
:1006D000C9F72C9A83E3C5DF81E0EDD1DF91CF919B
:1006E0001F910F910895A1E0B0E0E9E7F3E00C94C9
:1006F000903122E0298341E0BE016F5F7F4F019678
:100700002ED389812FDF82E090E0AFDF2196E2E0F7
:100710000C94AC31CF93EA9886E3A3DFCFEF85E367
:10072000A0DF8077803231F08AE090E0BFD1C15005
:10073000C111F5CFCF910895CF93CFEF84E391DF2F
:100740008077803131F08AE090E0B0D1C150C111A2
:10075000F5CFEA9ACF910895A2E0B0E0E2EBF3E0A2
:100760000C948E318C01FC0181818737F1F441E0DA
:10077000BE016F5F7F4FC8010296F1D2892BA9F0AD
:1007800041E0BE016E5F7F4FC8010496E8D2892B1D
:1007900061F06A8189815BDF83E363DFCDDF89817B
:1007A000D9D28A81D7D251D218C041E0BE016E5F42
:1007B0007F4FC8010196D3D2892B79F08A8189397C
:1007C00081F410E0812F3CDFC5D2812F8770873004
:1007D00009F43BD21F5F1033A9F72296E4E00C9492
:1007E000AA312EDF182F83E4D8D18A81B3D28EEDBF
:1007F00090E01ED2812FAED28AED90E019D240E275
:1008000062E0812F90E026D2CECF86E32ADF1092DD
:1008100088021092990210929B02089582E090E063
:1008200024DF81E0809388021092990210929B024B
:1008300008950F931F93CF93DF93D82FC0E0062F17
:1008400010E085E3FDDE8D1759F0C8012FD1C150AE
:10085000C111F7CF81E0DF91CF911F910F910895E2
:1008600080E0F9CF85E2ECDE8F3311F080E008956F
:1008700086E3F7DE80918902811112C08BE891E056
:10088000D7D183E3EEDE64E081E0D3DF85E2D8DE1A
:100890008F3361F780918902882329F081E00895E0
:1008A0008DE3DFDEEECF84E891E0C2D1F7CF85E3C0
:1008B000C7DE8D3051F485E2C3DE8F3331F4D2DFF1
:1008C00084E3CFDE80778031D9F708951F921FB679
:1008D0001F9211248F938BB78F939F93AF93BF93E6
:1008E000EF93FF9380918B0290918C02A0918D02E7
:1008F000B0918E020196A11DB11D80938B02909341
:100900008C02A0938D02B0938E0280918A028F5F39
:1009100080938A02E2E2F6E080819181181619063E
:100920001CF4019791838083369686E0EA33F807BA
:1009300099F780915B0690915C06009729F00197EA
:1009400090935C0680935B0680915F068F3F19F061
:10095000815080935F06FF91EF91BF91AF919F917E
:100960008F918BBF8F911F901FBE1F901895FC0118
:100970008FB7F89440918B0250918C0260918D0258
:1009800070918E0240835183628373838FBF089579
:10099000A4E0B0E0EEECF4E00C949031CE010196CE
:1009A000E6DF8C81D7D18B81D5D18A81D3D1898162
:1009B000D1D14BD12496E2E00C94AC310F931F932C
:1009C000CF9380918B0290918C02A0918D02B09177
:1009D0008E0220919002281709F457C080918B0253
:1009E00090918C02A0918D02B0918E028093900222
:1009F000A89502E216E0C0E0F80180819181892B80
:100A000019F48C2F0E94C823CF5F0A5F1F4FC43098
:100A100099F780915B0690915C06892B11F40E94F6
:100A2000262480915F06811102C00E947F2480915C
:100A30006105882339F0815080936105811102C0DE
:100A40000E94C11880918A028D37F8F010928A02B4
:100A50008091000181FF04C088B190E4892788B9A2
:100A600080919302909194028438F3E09F0728F4D8
:100A70000196909394028093930280918F0291E06B
:100A8000980F8B3331F090938F02CF911F910F917C
:100A9000089510928F0280915D068F5F8C3318F459
:100AA00080935D06F2CF10925D06EFCF880F991FFD
:100AB0000197F1F7089520ED37E0811101C0089505
:100AC000F9013197F1F78150F8CFCF93DF93DC0133
:100AD00016968C911697843509F053C0ED01269631
:100AE0008D919C9111974DE0242F30E02817390704
:100AF00008F44AC0AC014F5051092417350709F0DA
:100B000040C0FC013E97EC0FFD1F20812435C9F544
:100B100017963C9117972181321333C018963C9158
:100B20001897228132132DC019963C911997238171
:100B3000321327C01A963C911A972481321321C090
:100B40004197C80FD91F85818883868189838185D4
:100B50008A8382858B8383858C8384858D83858539
:100B60008E838D919C9111970A9711969C938E93E9
:100B700014968D919C9115970A9715969C938E9338
:100B80001497DF91CF910895FE01E20FF31F50817A
:100B90005B3309F4AFCF4F5FA7CFCF93C82F8091BE
:100BA000910280FF1BC020912A0930912B092E3F12
:100BB00091E0390778F02115324080F4CD3051F0C2
:100BC000CA3041F090916305992311F083FD20C054
:100BD000CF9108956C2F86E299E04FD28091630502
:100BE0008823B1F38091910283FFF2CFCA3081F361
:100BF000CD3071F46BE38AE593E03FD28AE593E070
:100C000064DF83E08093610582E080936005E0CF3C
:100C10006C2F8AE593E031D2F4CFCF93DF93EC01D0
:100C20008991811103C0DF91CF910895B6DFF8CF8C
:100C3000CF93DF93EC01FE018491811103C0DF911A
:100C4000CF910895AADF2196F6CF8DE0A6DF8AE046
:100C5000A4CF0895A6E0B0E0E0E3F6E00C948C3178
:100C6000FC01262F1E828E010A5F1F4F35E08AE0AD
:100C7000E82EF12CCF01B7010E9450313150805D38
:100C8000D8018E938D01CF01FB010A97A8F4832F21
:100C90002550622F630F615067FD02C0811110C0A3
:100CA00021E030E02C0F3D1F280F311DC901B5DFB9
:100CB0002696E6E00C94A8313111DCCF80E0E8CF35
:100CC0008150E1E0F0E0EC0FFD1FE80FF11D4083E3
:100CD000E2CFA5E0B0E0EFE6F6E00C9490319C01A5
:100CE0001D8254E0922F9F709A3048F5905D8FEFEF
:100CF000850FE1E0F0E0EC0FFD1FE80FF11D9083A0
:100D0000F90194E0F695E7959A95E1F720313105E0
:100D100098F45550650F615067FD02C0811111C0F4
:100D200021E030E02C0F3D1F280F311DC90175DF78
:100D30002596E2E00C94AC31582F9F01D3CF995CFB
:100D4000D6CF8150E1E0F0E0EC0FFD1FE80FF11D80
:100D50004083E1CF40E362E090E0BBCF0895CF93C2
:100D6000DF93EB01FB0130E020E0DC019D91992352
:100D700031F0913670F08FE9890F863030F0CF0175
:100D80008C1B9D0BDF91CF91089590529753292B87
:100D900005C080ED890F8A3050F4282B332389F069
:100DA00021934150442359F330E020E008C08FEBF9
:100DB000890F863058F3903211F09A3301F7CD0144
:100DC000D4CF2295207F31E0FACFDB0120E030E064
:100DD0004AE0FC018191811103C02D933C93089559
:100DE00090ED980F9A3050F4429FB001439F700DE0
:100DF00011248053990B9C01260F371FCF01E9CF97
:100E0000FB01982F92959F70803A40F4905D9083FB
:100E10008F708A3028F4805D81830895995CF7CFC4
:100E2000895CFACF0E94F832F999FECF08950C94AC
:100E3000F03208950F931F93CF938C01CFEFC60F1D
:100E4000C801F5DF87DFCC2331F00F5F1F4F8AE346
:100E5000A4DEC150F5CFCF911F910F910895A2E06C
:100E6000B0E0E5E3F7E00C948D31FC0181818D3435
:100E700049F466E08AEF9FE0DDDFE7DE2296E5E0F9
:100E80000C94A931803521F460E18AED9FE0F4CF24
:100E90001A82198242E0BE016F5F7F4FCF01019637
:100EA0005EDF098110E0823029F409811A81102760
:100EB00001271027C801BBDFF82E82E56EDE40E374
:100EC00064E0C80106DF82EB91E0B2DE8F2D42DFE5
:100ED0008EEA91E0ADDE40E262E08F2D90E0BADE76
:100EE000CCCFA6E0B0E0E7E7F7E00C9488316C01E6
:100EF00043E0CE0101967C01BC01C60101962FDFC3
:100F00008C01BE2CAF2C8230D0F0E980F12C8230E5
:100F100029F0E980FA80FE24EF24FE241127FE0147
:100F2000E00FF11F6081C7017DDF000F111F0F5F10
:100F30001F4F0C0D1D1DF8018081811104C02696E4
:100F4000EAE00C94A43141E06B2D7A2DC80107DF53
:100F5000892BA9F39FEFE91AF90A6981C70162DFBA
:100F60000E5F1F4FE8CF41E060E071E00196F7DED1
:100F70008091000180FF07C0469A6091000184E3E0
:100F800090E050CF08954698F8CFA1E0B0E0EBECA8
:100F9000F7E00C9490311982009731F041E0BE01E6
:100FA0006F5F7F4F0196DBDE89818F3F09F4FFCFB2
:100FB000882321F061E083E390E034DF10926E003B
:100FC000F89488E198E00FB6F894A89580936000B3
:100FD0000FBE90936000FFCFCF93DF93EC0161E0F1
:100FE00080E090E01FDF64E481E090E01BDFE7DA5F
:100FF00060E080E690E016DF60E081E690E012DFDE
:1010000060E083E390E00EDF62E084E390E00ADFDB
:1010100060E080E690E006DF60E081E690E002DFDD
:101020008981883719F080E090E0AFDFDF91CF91C0
:10103000089580E090E0FBDE813029F481E090E0CB
:10104000F6DE843419F080E090E0C6DF84E390E0BF
:10105000EEDE80930001089580EA91E0079B02C0D4
:1010600082E991E0E5DDF1CD0895FC01158214825D
:1010700011821082138212820895FC012FB7F89416
:1010800084819581811532E0930710F02FBF089578
:1010900001969583848380819181AC014F5F5F4F7E
:1010A000518340838E0F9F1FDC0116966C93411570
:1010B000524061F711821082E9CFFC012FB7F894FA
:1010C00084819581009719F42FBF80E008950197DE
:1010D0009583848382819381AC014F5F5F4F5383FB
:1010E00042838E0F9F1FDC0116968C914115524052
:1010F00011F4138212822FBF0895CF93DF93FB0167
:10110000DA019C91882369F0EB01C90FD11D41E000
:1011100050E0022E01C0440F0A94EAF78881842B24
:101120008883222331F02150822F90E0DF91CF91EC
:1011300008959F5F9C3008F49C93E90FF11D108285
:1011400027E0F2CF299A882381F08091960220E14E
:10115000829FC0011124AADC29988091950220E188
:10116000829FC0011124A2CC08958091980220E1B1
:10117000829FC00111249ADC299880919702EFCFB9
:10118000A4E0B0E0E6ECF8E00C9480316C01362E7F
:101190002A83502EE982642E712C4E5F409F402D91
:1011A0001124042E000C550B80919302909194020F
:1011B0008417950738F486EB91E03ADD2496E2E156
:1011C0000C949C31841B950B909394028093930212
:1011D000469A40909B02442039F010929B0285E889
:1011E00092E021D74424439480918802811101C068
:1011F00015DB90DAA32CB12C01E010E02A81E22E5D
:10120000F12C1A82EA818E2FEE0F990B8A159B051D
:101210004CF1332011F081E095DF212C822D022C3E
:10122000000C990B9C838B83861597050CF127E0A6
:10123000922E8C0D9D1D9C838B83892D092C000C77
:10124000990BE816F90674F1898135DC5A9451102E
:10125000D8CF8091A702882391F16EDA41101ED376
:101260004698ACCF80E06EDF8A818F5F8A83CACFD9
:1012700037E0832E912C8B819C818C0D9D1D9C834E
:101280008B83C801082C01C0880F0A94EAF7EB8110
:10129000FC819081892356DFF1E08F1A910888F74D
:1012A0002394BCCFC801092C01C0880F0A94EAF727
:1012B000EB81FC819081892345DF9A94BECF86E340
:1012C000D0D9CCCFADE0B0E0E8E6F9E00C948131C4
:1012D0007C01162F842F022F6701C60ED11C462FCA
:1012E000B701BDD6F60180831F5F1D861982C12C10
:1012F000D12C27E0CE010D9688248394912C582E72
:10130000492E97E0A92EB12C37016C0C7D1CC1161B
:10131000C8F0222309F440C0215089E1809397024C
:101320008093980285E280939502809396028AE0EA
:10133000E82E4D856CE0CE01019622DF2D96E1E18D
:101340000C949D31F3013080C4010A2C01C0880F38
:101350000A94EAF7452D542DBE016F5F7F4F83211C
:10136000CCDE282FF1E0AF1AB10888F6032C3294B6
:101370003024032C369436943024339431FA882761
:1013800080F9452D542DBE016F5F7F4FB6DE282FAB
:10139000EFEFCE1ADE0AB5CF8D858F5F8D8727E000
:1013A000BCCFACE0B0E0E7EDF9E00C948E31162F45
:1013B000042F4BE0BE016F5F7F4F0196D0DC682F9A
:1013C000202F412FCE0101967DDF2C96E4E00C9476
:1013D000AA3143E066E0E5CF0895EF920F93CF93F3
:1013E000DF93CDB7DEB760970FB6F894DEBF0FBEC0
:1013F000CDBF40E1BE016F5F7F4F0196B0DC6981D8
:101400004A810B818C81809398028D818093970211
:101410008E81809396028F8180939502E02EE294D4
:101420008FE0E8220F70242F2F7042954F70CE016D
:101430000896A6DE60960FB6F894DEBF0FBECDBF4D
:10144000DF91CF910F91EF900895A9E1B0E0EBE229
:10145000FAE00C9486314BE0BE016F5F7F4F01963E
:101460007EDC182F8930B1F589E180939702809353
:1014700098028093960282E38093950269E0CE0100
:101480000196F8D5E1E0F0E0EC0FFD1FE10FF11D52
:101490008083198E1D868E010F5F1F4F7E018BE0AA
:1014A000E80EF11C27E0CE014996CC24C394D12C40
:1014B000982E892EA12CB12C0E151F0579F422230C
:1014C00079F121508AE0E82E03E0498D6CE0CE01ED
:1014D0000D9656DE6996ECE00C94A231C6010A2CFA
:1014E00001C0880F0A94EAF7F8019081492D582D20
:1014F000BE01635F7F4F892300DE282FFFEFAF1A05
:10150000BF0A88E0A816B104B9F6492D582DBE01CE
:10151000635F7F4F81E0F1DD282F0F5F1F4FCACF40
:10152000898D8F5F898F27E0CDCF0F931F93CF9346
:10153000DF93EA98249A2C9A8EE190E0B7DA2C98FF
:101540008EE190E0B3DA2C9A8DE290E0AFDA80E39E
:1015500088D884E690E0AADACDEDD1E0FE0131969C
:101560006491FE01849173D82296F2E0CF30DF07B8
:10157000A9F780919A02882371F0C7ECD1E00DEDB4
:1015800011E0FE0131966491FE01849160D82296AB
:101590000C171D07B1F783E364D884E08CDA84E389
:1015A00060D885E34DD88D30D1F7DF91CF911F9171
:1015B0000F910895A2E3B0E0E0EEFAE00C948D31D3
:1015C00080919902882381F01A9B55C08FE338D807
:1015D0008F778983823360F08AE343D886E341D8EA
:1015E0008DE33FD884E33DD8E296E5E00C94A93141
:1015F0002C988FEF0E94AC0210E08981181708F434
:101600004FC080E00E94AC02F82E80E00E94AC0245
:101610002C9A84E326D885E313D88D30D1F79A81AC
:1016200086E789278A830981FE01339682E021912A
:10163000801708F441C0802F023008F482E0E1E016
:10164000F0E0EC0FFD1FE80FF11D8B8182278083F6
:101650001091A70210711123B9F181E69EDA10E012
:10166000E1E0F0E0EC0FFD1FE10FF11D808195DA64
:101670001F5F0117A8F785E30E942003813029F03E
:10168000813161F48AE30E94310386E30E943103D1
:101690008DE30E94310384E30E94310308D9A4CF73
:1016A00080E00E94AC02E2E0F0E0EC0FFD1FE10FF1
:1016B000F11D80831F5FA1CFDF0111979452922704
:1016C0009C938F5F922FB3CF81E467DAE1E0F0E083
:1016D000EC0FFD1FE10FF11D80813CDB1F5F011747
:1016E000A8F78091A70285FF02C08F2D33DBADDA0A
:1016F000C2CFAAE3B0E0EFE7FBE00C948A3141E30C
:101700009E012F5F3F4F7901B901019628DB182F09
:101710008150990B9C01898190E02817390709F0C5
:1017200063C080919902811103C0FFDE83E0C3D9B9
:101730000B818A8196E789278A834981DE01129687
:1017400092E09D0111968C911197941708F450C066
:10175000E42F423008F4E2E0EE0DFF2DF11D80276A
:101760008083CE01C79603D985E30E94310385E3C8
:101770000E942003833109F451C0CE01C396F7D8EB
:101780004BA95CA96DA97EA98FA998ADA9ADBAADE9
:1017900084179507A607B70798F5481B590B6A0BDE
:1017A0007B0B4D3B510561057105C0F18DEB91E05F
:1017B0003FDA85E30E942003863149F48BE30E94DF
:1017C000310386E30E9431038DE30E94310380914F
:1017D0009902882309F447C084E30E94310385E31A
:1017E0000E9420038D30C1F7EA96E8E00C94A63100
:1017F0001196F9012081245282278C939F5FA1CFFB
:10180000481759076A077B0748F484549F4FAF4F26
:10181000BF4F481759076A077B07C7CF85E30E9468
:101820002003833109F0A0CF8AE004FF05C088E7D8
:1018300042D988E740D988E73ED92C988FE70E94A3
:10184000AC0267018C2D8E19811738F02C9A85E334
:101850000E9420038331D9F3ACCFF60181916F014F
:101860000E94AC02EFCFCFD3BFCFFC018181823782
:1018700051F0823551F481E080939A0256DE81E086
:1018800080939902089580E0F7CF833721F4CF0148
:1018900001962FCF08951092990208950F931F93E8
:1018A000CF93DF93EA98249A2C9A8EE190E0FED8A9
:1018B0002C988EE190E0FAD82C9A8DE290E0F6D840
:1018C00080E30E94310384E690E0F0D8C8E2D2E0E1
:1018D000FE01849102E612E08134F8F083E30E9475
:1018E000310384E0E8D8CFEF84E30E9431038077AE
:1018F000803131F08AE090E0D9D8C150C111F4CFE5
:1019000081E080939B02DF91CF911F910F91089509
:101910002296FE018491813408F7FE01319664918C
:10192000FE0184910E9427030C171D0789F7D6CF6B
:101930004F925F926F927F928F929F92AF92BF92DF
:10194000EF92FF920F931F93CF93DF93EC018B01E4
:10195000F880F39420E030E0672B11F024E630E0CB
:1019600048E0F49EC00111246AE070E00E946431F6
:10197000620F731F80919302909194022C01612C4D
:10198000712C4B01072E000CAA08BB0848145904FF
:101990006A047B0490F488E192E04AD9DF91CF9108
:1019A0001F910F91FF90EF90BF90AF909F908F90FD
:1019B0007F906F905F904F900895861B970B909348
:1019C00094028093930280919B02811101C066DF93
:1019D00085E30E9420038D3089F08AE5DED885E416
:1019E000DCD882E5DAD882E5D8D881E3D6D885E399
:1019F0000E942003AFD929D951DFD0CF80919C021A
:101A000090919D02A0919E02B0919F02892B8A2BFA
:101A10008B2B99F40E948A0385E30E942003833173
:101A200091F18AE5BAD885E4B8D882E5B6D882E5DE
:101A3000B4D882E3DBCF81E03ED840918B02509155
:101A40008C0260918D0270918E0280919C02909127
:101A50009D02A0919E02B0919F02481759076A0704
:101A60007B0749F340918B0250918C0260918D026B
:101A700070918E020196A11DB11D84179507A607CE
:101A8000B707C9F2C7CF012B49F00AE010E084E69E
:101A900012D80150110901151105C9F72C988FE7CB
:101AA0000E94AC02EC2E0C2F1D2F802F8E198F154B
:101AB00008F43DC02C9AC8EC85E30E9420038D30C9
:101AC00059F085E30E942003833131F481E00E94C4
:101AD0005B05C150C111F0CF85E30E9420038D301A
:101AE00081F08AE55AD885E458D882E556D882E54F
:101AF00054D883E352D885E30E9420032BD9A5D87C
:101B0000CDDE80919B02811101C07DD280918B023C
:101B100090918C02A0918D02B0918E0280939C02D4
:101B200090939D02A0939E02B0939F0237CFF8013D
:101B300081918F010E94AC02B8CFACE0B0E0E3EA43
:101B4000FDE00C948C31FC018BE0898381818A83D8
:101B50001B8282E08C8387818D8380858E83818543
:101B60008F83848188878581898786818A871B8680
:101B70001C8684E10E945B0560E070E0CE01019666
:101B8000D7DE8AE50AD88E010F5F1F4F7E018DE0F8
:101B9000E80EF11CF80181918F01DCD8E016F10606
:101BA000C9F78091A70285FF02C080E0D3D84DD845
:101BB0002C96E6E00C94A831CF93DF93EC013091A2
:101BC000A3022091A4029091A502832F822B892B3E
:101BD000882389F08B81803319F08F7E803459F40B
:101BE0008F81381308C08885281305C0898598130C
:101BF00002C0CE01A2DF3091A0022091A1029091FB
:101C0000A202832F822B892B882389F088818B3035
:101C100071F48B81803459F48F81381308C0888522
:101C2000281305C08985981302C0CE0186DFDF9195
:101C3000CF910895AEE1B0E0E0E2FEE00C948D318A
:101C400080919B02882399F11A9B59C08FE30E94CF
:101C500020038F778E3108F08DE189832C988FEFE8
:101C60000E94AC0210E08981181728F180E00E94E0
:101C7000AC02082F80E00E94AC022C9ACE010196A3
:101C80009BDF1091A7021071112309F18AE70E94CE
:101C9000CD05098110E0E1E0F0E0EC0FFD1FE10F60
:101CA000F11D80810E94CD051F5F0117A0F76E9680
:101CB000E5E00C94A93180E00E94AC02E2E0F0E0A3
:101CC000EC0FFD1FE10FF11D80831F5FCCCF8AE574
:101CD0000E94CD05F980E1E0F0E0EC0FFD1FE10F7F
:101CE000F11D808137D81F5FF116A8F78091A702F8
:101CF00085FF02C0802F2ED80E942506D8CF85E30D
:101D00000E942003813199F68AE30E94310386E321
:101D10000E94310384E30E943103C9CFAEE1B0E0F9
:101D2000E4E9FEE00C948C318C01FC018181823766
:101D300029F4B4DD6E96E6E00C94A831833711F0F7
:101D4000863609F54DE19E012F5F3F4F7901B901BC
:101D5000C801029604D8E82FE150FF0B298130E03A
:101D6000C701E217F30729F08FE092E00E941806FE
:101D7000E1CF61E070E0F8012181233711F060E0EC
:101D800070E0D6DDD7CF43E063EA72E0813629F018
:101D9000873741F443E060EA72E0C80102960E948E
:101DA000AF06C8CF10929B02C5CFA0E0B0E0EBED2C
:101DB000FEE00C948831FC011092C3024181440F73
:101DC000440F440F8381481B87E0C82EC40E109235
:101DD000C40220E030E047E057E070E080E097E0A8
:101DE000E92EF12C01E010E0DD24D394D80E8C15FF
:101DF00080F02093D8023093C302CD14A0F565344F
:101E000009F088C04F3F09F085C02F5F2093D802AA
:101E100083C0DF01A70FB11D14968C9190E0052EB1
:101E200002C0959587950A94E2F78170552369F071
:101E300051506B34D1F4433059F4332371F030E016
:101E4000811155C04150832F1EC07F5F57E0F1CFF5
:101E50004F3FB1F781110FC02FC0811114C02093E3
:101E6000D8021092C30280E05DC04F3F51F5663446
:101E700069F0653479F32F5FA22FB0E0AC53BD4F0A
:101E80001C92832F47E0382F8D2DAECFA22FB0E0CC
:101E9000AC53BD4FAC910A2EA295A0250A2EA69553
:101EA000A695A02590E0AF5FA695A170CA2FA12CA2
:101EB000DA2D8C179D07F9F22093D8023093C302D4
:101EC000D2CF882309F4BECF663471F4A22FB0E0DC
:101ED000AC53BD4FBC90C801042E01C0880F0A94BA
:101EE000EAF78B298C93AECF653409F0ABCFA22FE4
:101EF000B0E0AC53BD4FC701841B910947FD9395DA
:101F0000580102C0AA0CBB1C8A95E2F7C5019C913E
:101F1000892BE8CF311179CF81E09091D8029923B4
:101F200009F4A1CFCDB7DEB7EAE00C94A43110924A
:101F30006F00E091DB028CE1E89FF0011124E45294
:101F4000FD4F10828091A6028D7F8093A602089596
:101F5000FC018181843110F0EACF089593816623DA
:101F600081F0DF01A80FB11D41E050E0092E01C052
:101F7000440F0A94EAF714962C911497242B149684
:101F80002C93992319F091509383089597E09383AC
:101F90008F5F8183E80FF11D1482089570E030E0B7
:101FA000FB01E21BF30B3B967797A0F490E050E027
:101FB000FC01E41BF50B3B96779760F4680F791FE3
:101FC000240F351F621B730B655F7F4F81E0673104
:101FD000710508F080E00895219A29982298E9E691
:101FE000F0E080818061808382EC91E090939402A4
:101FF00080939302ECEDF2E0148E10AE1092300359
:102000001092880208958091530E81110BC0809127
:10201000A702882329F00E940E040C949C030895C3
:102020000C9405040895FC01818181110FC08091F9
:10203000A7020E94AA0640E265E080919302909177
:1020400094020E942A060C942506089541E067EA4E
:1020500072E0CF0101960E94AF06D5CF08959B0193
:10206000411101C008954150F901E40FF11D908123
:10207000890FF6CF9C0180E0611101C00895615085
:10208000F901E60FF11D90818927F6CFAC01F0919F
:10209000C302362F85E090E0311109C0292F280FA7
:1020A00080E1289F90011124892F822B08957FEFD2
:1020B000730FDA01A70FB11D2C91E22FE295EF709B
:1020C0009E278E0FFF2311F0361719F02F709227DD
:1020D000820F372FE1CFFC0122813381A081B181B2
:1020E000A20FB11D8C9190E0032E02C095958795AB
:1020F0000A94E2F781709FEF930F9383311104C02C
:102100002F5F228397E093830895A0E0B0E0EBE88F
:10211000F0E10C948931D82EC92EE42E062F10E060
:10212000E801F12CBB24B394209731F48F2DCDB767
:10213000DEB7E9E00C94A5318D2D9C2DCCDFAE01EE
:1021400041505109882349F0EE2049F02B2D042EEF
:1021500001C0220F0A94EAF7F22AEA01E5CF9801BA
:102160002C1B3D0B8B2D01C0880F2A95EAF7282FD9
:10217000F3CFA4E0B0E0EFEBF0E10C948831FC0188
:102180001B8287E08C83CF0104969A838983109207
:10219000D802818128E0829FC0011124438127E079
:1021A00030E0241B3109820F931F853491050CF018
:1021B0004CC080E046C0A9DFA82EE12FF0E0EC5330
:1021C000FD4F8083082F002E02950025002E0695D6
:1021D00006950025CE0101967EDF90E00F5F01FBA2
:1021E000CC24C0F8D12C8C159D0519F7CE01019691
:1021F00072DF8111DECFBA241F5F1093D8021091D5
:10220000D80240E068E0CE0101961630A0F27DDFF2
:10221000082F182F012E12951025012E16951695B0
:102220001025CE01019657DF90E01F5F11FBEE24D1
:10223000E0F8F12C8E159F0509F0BBCF81E0B012BC
:10224000B8CF2496EAE00C94A431B12CD8CFA4E006
:10225000B0E0EDE2F1E10C948A31FC011B8287E0F1
:102260008C83CF0104969A8389838081853009F01D
:102270003FC0818128E0829FC0011124438127E073
:1022800030E0241B3109820F931F8039910581F5BD
:1022900080E00FE010EF49E8F42E8093D802C82EBA
:1022A000D12CEE24E394E80E41E068E08F3029F56C
:1022B000CE0101962ADF080F111D90E19093D802FC
:1022C00080958093D30241E068E0CE0101961DDF46
:1022D00090E0982F8827081B190B41E068E0CE0199
:1022E000019613DF282F30E081E02017310709F035
:1022F00080E02496E8E00C94A631CE01019605DF3B
:10230000080F111DF601EC53FD4FF826F08234E260
:10231000F32EF80E8E2DC1CFA4E0B0E0E2E9F1E19A
:102320000C948F31FC011B8287E08C83CF010496D3
:102330009A83898381818430D1F483818130B9F497
:1023400010E01093D80241E01430B1F467E0CE0100
:102350000196DBDE880F8093C80285E08093D80267
:102360009091C40292959F7081E09A3009F080E0CC
:102370002496E3E00C94AB3111110CC067E0CE0160
:102380000196C3DE8068E12FF0E0EC53FD4F8083BF
:102390001F5FD7CF68E0CE010196B7DEF4CFFC0116
:1023A00081818330D9F483818730C1F48081883082
:1023B000A9F480E09181891720F08093D80281E010
:1023C0000895282F30E0DF01A20FB31F14969C91CF
:1023D0002C533D4FD9019C938F5FECCF80E0089543
:1023E000FC0190818091A602993611F0933771F427
:1023F000982F9370913021F486608093A6020895FF
:1024000080FFFDCF8091A6028B7FF7CF80FDF7CFB5
:102410008460F3CFA1E0B0E0E0E1F2E10C948B3115
:1024200019828091A8028823A1F18091A70287FFD9
:1024300014C084E30E9420038058803408F442C012
:10244000803C08F041C08055990B23E09595879515
:102450002A95E1F78F590E94CD058091A70283FF4D
:1024600016C082E70E94CD058091A70284FF04C0B8
:102470008091A9020E94CD0586E60E94CD0580913B
:10248000A70284FF04C08091A8020E94CD0510928B
:10249000A8028091D902882309F4B3C1469A009119
:1024A000DA022CE1029F8001112404521D4F898120
:1024B00081111FC0C80173DF882309F4B7C183E706
:1024C000898317C080E0C6CF8FE0C4CF83E5F8CF03
:1024D000282F30E02F5F3F4F4E2D50E02417350757
:1024E00009F070C093E09F1508F0BFC196E499838E
:1024F0008083E980D090A702EE2009F4FDC0D0FED1
:10250000FBC08091A6028A7F8093A6028D2D8270E7
:10251000811125C0F090D8029091C202EEEAF2E05B
:10252000A4ECB2E09F1509F493C04F2D50E064EC89
:1025300072E08EEA92E00E94E732F092C20280914D
:102540008B0290918C02A0918D02B0918E028093AB
:10255000AA029093AB02A093AC02B093AD02F4E553
:10256000EF1297C0D6FC1BC08091D8028530B8F01E
:102570008091C6028B3471F0893661F09DEA980F24
:10258000923040F08D57823028F08091C7028077DA
:10259000803729F48091A60281608093A602B80159
:1025A000CE0101961DDF80916305882309F475C073
:1025B00080916106811171C08091A6028B7F80930A
:1025C000A6026BC04F2D64EC72E08CE048DDE8128F
:1025D0004CC1E3E084E5EF1508F472CF46C1809169
:1025E000D80281508093D802893009F044C169E053
:1025F00084EC92E03FDD9091CD0289133CC185E4EB
:102600005FCF88E45DCF84E75BCFE091D802FF2401
:10261000FA94FE0EF092D8026F2D84EC92E036DD33
:102620009091C3022F2D291B330BF901EC53FD4F61
:102630009081891338C18BE443CF21919D918F5FA5
:10264000291731F08091A6028D7F8093A6026DCF6D
:10265000F812F3CFF092C20280918B0290918C021B
:10266000A0918D02B0918E024091AA025091AB02CE
:102670006091AC027091AD02841B950BA60BB70B59
:102680008697A105B10508F050CF8091A602816020
:10269000DCCFB801CE010196A3DE8091A60282FFB5
:1026A0002BC08E2D0E94CD058091C302882329F076
:1026B0008091D80281508093D802F12CE091D80209
:1026C000FE1608F4A2C08091C302882351F0F0E006
:1026D000EC53FD4F80818F7040E361E090E00E94F9
:1026E00069068091A70285FF05C084E30E9420034C
:1026F0000E94AA060E9425068091A70282FF69C057
:1027000080E70E94CD05F801808140E262E090E020
:102710000E942A06F801808D40E265E0F0E18F9F7B
:10272000C00111240E942A06F801818D40E265E073
:10273000F0E18F9FC00111240E942A06F801828DCA
:1027400040E265E0F0E18F9FC00111240E942A065B
:10275000F801838D40E265E0F0E18F9FC001112414
:102760000E942A06F801828140E263E090E00E9424
:102770002A06F801818140E263E090E00E942A0687
:10278000F801838140E262E027E030E0F901E81BD4
:10279000F109CF010E942A0680E20E94CD058091B6
:1027A000A70285FF08C084E30E9420030E94AA06B6
:1027B00080E20E94CD05F8018381873019F0818184
:1027C0008F5F8183F12CF8018181F81638F10E9426
:1027D0002506F80110828091D90281508093D90298
:1027E0009091DA0281E0890F933009F480E08093C0
:1027F000DA0246988981843521F484EC92E00E94C3
:102800008F242196E7E00C94A731EF2DF0E0EC53F4
:10281000FD4F80810E94AA06F39450CFF801EF0D7E
:10282000F11D84810E94AA06F394CDCFC8010FDD6B
:1028300081114CCE66E4C801B8DA8823B9F0F09073
:10284000D802FA94F092D8024F2D64EC72E086E040
:1028500006DCEF2DF0E0EC53FD4FE080E81238CEBF
:1028600033E086E43F1508F42BCE198265E4C801F5
:102870009CDA8111B4CEC8017CDC8111C2CEC801C2
:102880004BDD8111C0CEF801638DE090A902262FA7
:102890004E2D828D83DB682FC8015ADB6BE4C801A3
:1028A00084DA8111B2CEF801838191E0980F93838D
:1028B000873029F4F8018181138281508183F801E6
:1028C0008181843009F015CEF8018381843009F0CC
:1028D00010CE2EE14CE3618D808D60DB882309F4FE
:1028E00008CE2EE14E2DF801638D828D57DB682FC7
:1028F000C8012EDB85E0F8013496A4ECB2E001902B
:102900000D928A95E1F785E08093D80282E5D8CDD3
:102910001F920F920FB60F9211240BB60F922F93A6
:102920003F934F935F936F937F938F939F93AF9357
:10293000BF93EF93FF9310926F008091A70283FFE4
:1029400003C08EE20E94CD059091DB028CE1989F3E
:10295000F0011124E452FD4F8081833018F0818111
:102960008230A0F4E4DAFF91EF91BF91AF919F9193
:102970008F917F916F915F914F913F912F910F9028
:102980000BBE0F900FBE0F901F9018958091D9022B
:10299000833049F48091A70282FFE4CF84E692E07D
:1029A0000E941806DFCF8F5F8093D90281E0890FE4
:1029B000933019F08093DB02D6CF1092DB02D3CF95
:1029C000982F8BED890F873138F486EF860F8D3184
:1029D00018F481E0691708F080E008951F920F92C3
:1029E0000FB60F9211240BB60F92EF92FF920F9336
:1029F0001F932F933F934F935F936F937F938F9387
:102A00009F93AF93BF93CF93DF93EF93FF93809107
:102A10001E078823E1F082E080931E07FF91EF916B
:102A2000DF91CF91BF91AF919F918F917F916F91E6
:102A30005F914F913F912F911F910F91FF90EF90D8
:102A40000F900BBE0F900FBE0F901F9018958091A6
:102A50006505823021F483E080936505DFCF009126
:102A600084001091850044E0169507954A95E1F79A
:102A7000C091DB022CE1C29FE0011124C452DD4F62
:102A80009881943079F40E3248F20F3408F0C2C0C5
:102A90001A9941C061E0CE015BDA10928500109274
:102AA000840004C0953029F01A9908C00093A90247
:102AB000B5CF073108F4B2CF0732E8CF8091A90231
:102AC000081B0093A8021092850010928400983091
:102AD00061F49A81911109C091E09A83888F8A8F5D
:102AE000098F0B3B28F5000F0B8F82E086BB088116
:102AF000011120C09091A902953608F08FCF8091E6
:102B0000A802853608F08ACF988F898F81E08A8362
:102B100082E0888383CF8091A902081B0093A802DA
:102B2000109285001092840060E0CE0111DA76CF19
:102B30000695DACF1091A802023009F071C0F0902A
:102B4000A902088DE98C212F4F2D6E2D802F26DABA
:102B50004A818823F1F0602F70E09B01220F331F20
:102B6000260F371F2F0D311D359527953595279544
:102B7000288FF12CC701880F991F8E0D9F1D810F83
:102B8000911D9595879595958795898F4F5F4A8378
:102B900045CF443008F442C080EA9FE0909389001A
:102BA000809388004C3050F0202F2E0D3327331F98
:102BB000253631052CF084E0888311C04A30C8F0F6
:102BC000202F2E0D3327331F2532310594F485E055
:102BD000888388EE93E09093890080938800FA8E32
:102BE0001B8F198287E08B831C8282E080936F00A9
:102BF00015CF80916405882379F0612F8F2DE0DE59
:102C0000882351F0602F8E2DDBDE882329F081E0B0
:102C1000809365058CD902CF83E0CECF18826ACF2E
:102C2000083009F04BC081E9810F8D3110F560E06B
:102C3000CE018ED9288D30E0C901880F991F820FEF
:102C4000931F2091A902820F911D959587959595C7
:102C50008795888F298D30E0C901880F991F820FD1
:102C6000931F810F911D9595879595958795898FD0
:102C7000D5CE173E08F4D2CE61E0CE0169D92A8DB7
:102C800030E0C901880F991F820F931F2091A9027C
:102C9000820F911D95958795959587958A8F2B8D98
:102CA00030E0C901880F991F820F931F810F911D7A
:102CB00095958795959587958B8FB0CEF090A902C5
:102CC000212F4F2D6B8D8A8D69D9882369F061E0A2
:102CD000CE013ED92A8D30E0C901880F991F820F9D
:102CE000931F8F0D911DD6CF212F4F2D698D888D6C
:102CF00055D9882369F060E0CE012AD9288D30E0CB
:102D0000C901880F991F820F931F8F0D911D9DCFB1
:102D1000073009F483CE7ECFE091DB028CE1E89F9F
:102D2000F0011124E452FD4F8081811107C081E040
:102D300090915F069F3F19F480E0089581E0089527
:102D400080E690E00E9417078093640581E690E09A
:102D50000E94170780936305882321F081E2809306
:102D6000A70251C90895299A0C94560508952998E7
:102D70000C9456050895A7E0B0E0E1ECF6E10C9460
:102D80008A3190916003943509F072C02091580304
:102D9000309159032F5F3F4F3093590320935803CD
:102DA00095E7998311E0882389F0BE016E5F7F4F1C
:102DB000809163050E940007BE016C5F7F4F809188
:102DC00064050E94000785E58E8316E00E940E04CC
:102DD0000E948A0306E080E891E0C5DF80E093E08E
:102DE000C6DF01500111F7CF80E093E0BCDF80E83F
:102DF00091E0BDDF80E891E0B6DF299887E390E0BD
:102E00000E94350383E00E945B052C988FE70E94A7
:102E1000AC0280915E03810F0E94AC02CE0101964C
:102E20006C017C01F70181917F010E94AC028E2D23
:102E30008C198117B8F380915E0390915F03892B01
:102E400009F055C02C9A0E948A038AE593E00E94FB
:102E5000350815E18AE30E9420038F77882319F053
:102E6000115011114BC0CFD82796E8E00C94A63131
:102E7000963459F420915603309157032F5F3F4FFA
:102E800030935703209356038BCF953459F42091F8
:102E90005403309155032F5F3F4F309355032093D8
:102EA00054037ECF9B3459F4209152033091530345
:102EB0002F5F3F4F309353032093520371CF9834C9
:102EC00059F420915003309151032F5F3F4F3093BD
:102ED00051032093500364CF20914E0330914F0350
:102EE0002F5F3F4F30934F0320934E0359CF8AE516
:102EF00093E00E945D080E94AC029DCF81E00E9499
:102F00005B05A8CFCF93DF93EC01898181110DC0C0
:102F1000809164050E94AA06809163050E94AA061A
:102F20000E942506DF91CF910895843691F4809117
:102F30008B0290918C02A0918D02B0918E0240E3A1
:102F400064E00E9469068EE20E94CD0580916105D1
:102F5000E5CF833709F04BC040E361E0809158032F
:102F6000909159030E9469068EE20E94CD0540E3CC
:102F700061E080915603909157030E9469068EE2AA
:102F80000E94CD0540E361E0809154039091550388
:102F90000E9469068EE20E94CD0540E361E08091C7
:102FA0005203909153030E9469068EE20E94CD0560
:102FB00040E361E080915003909151030E946906C3
:102FC0008EE20E94CD0540E361E080914E03909136
:102FD0004F030E9469068EE20E94CD0540E361E046
:102FE00080914C0390914D030E94690699CF8936D8
:102FF000D9F441E064E675E0CE0102960E94AF0686
:103000006091640580E690E00E94120741E063E66B
:1030100075E0CE0104960E94AF066091630581E6DB
:1030200090E00E9412077ECF8AE593E00E94350867
:1030300021966991611103C080E09DDE73CF8AE51E
:1030400093E00E943D08F5CFA1E0B0E0EAE2F8E1AC
:103050000C948A31809165058823A9F0C0908B0279
:10306000D0908C02E0908D02F0908E02833009F0B7
:103070006FC08FE30E942003182F863040F40E9417
:103080000310109265052196E8E00C94A63180E2C9
:1030900097E00E9435082C988FEF0E94AC0280E0E8
:1030A0000E94AC02082F115080E00E94AC02682FF1
:1030B00080E297E00E943D0811501111F5CF2C9A43
:1030C0000E940310109265050537E9F641E0BE0144
:1030D0006F5F7F4F86E297E00E94AF06019799F5F8
:1030E00099818091640598132EC080912407909156
:1030F000250720912A072535E9F0049790932507A5
:103100008093240784E090E0909323078093220724
:103110006AE080E297E00E943D08E0912E0BF0917A
:103120002F0B88E00995AFCF80E297E00E945D0801
:103130000E94CD058091240790912507892BA1F746
:103140000E942506A0CF80E297E00E9435089BCF21
:10315000823041F4809162059C2D981B983008F4D0
:1031600092CF8DCF813009F08ECF87E390E00E941F
:1031700035030E949C0382E080936505C09262053E
:1031800082CFCADD882361F083E08093600580915F
:103190004C0390914D03019690934D0380934C0303
:1031A00080916005815080936005882321F083E041
:1031B00080936105089581E0DECD08950E949C030F
:1031C000EA9808950F931F93CF93DF93249A2C9A34
:1031D0008EE190E00E9456052C988EE190E00E94CE
:1031E00056052C9A8DE290E00E94560580E30E94DD
:1031F000310384E690E00E945605809119068933D8
:10320000D9F4CFECD2E001E013E0FE0131966491F5
:10321000FE0184910E94270322960C171D07A9F72F
:1032200083E30E94310384E00E945B05C7DFDF91E6
:10323000CF911F910F910895843381F4CDE9D2E0AD
:103240000FEC12E0FE0131966491FE0184910E9420
:10325000270322960C171D07A9F7E2CF813301F748
:10326000CBE6D2E0FE0131966491FE0184910E948A
:1032700027032296F2E0CD39DF07A1F7D1CFFC0179
:10328000908180911406981317C091818091150642
:10329000981312C092818091160698130DC09381E5
:1032A00080911706981308C090858091180698178A
:1032B00029F081E09F3F19F080E0089581E00895B2
:1032C0009C018FEF611101C008956150F901E60F73
:1032D000F11D90818927F6CFFC01680F792F711DB0
:1032E0008FE09DE1E617F70709F408952191492F32
:1032F000552742279A01A4E036952795AA95E1F72C
:1033000024273527982F882782279327A901542F10
:1033100044275295507F84279527B5E0220F331F0D
:10332000BA95E1F782279327DDCFA0E0B0E0EBE983
:10333000F9E10C948A317C01062F469A8091190696
:10334000893339F464E182E10E942703602F660F1C
:103350006D5E86E00E9427030E948A032C988FE707
:103360000E94AC0280911906893361F0E7010E0DCD
:103370001F2D111D0C171D0701F1899180950E94C9
:10338000AC02F8CFCFE086E60E94AC02C150C1117A
:10339000FACF8AEA0E94AC0285E50E94AC0267017E
:1033A0000E0D1F2D111DC016D10609F04FC080E073
:1033B0000E94AC0280E00E94AC022C9A85E30E943D
:1033C00020038331D9F36FEF86E00E9427038091B9
:1033D0001906893321F46EE182E10E942703EEDEB3
:1033E0004698F701858186FF2CC080918B029091D1
:1033F0008C02A0918D02B0918E020696A11DB11D86
:103400008093660590936705A0936805B09369055E
:1034100080916B058F5F80936B05823060F08AE747
:103420000E94CD0582E70E94CD0580916B050E9428
:10343000AA060E94250680916B05833010F0109239
:103440006B05CDB7DEB7E8E00C94A631F601C1916B
:103450006F0180E4C7FD80E890E1C6FD90E2890F2E
:1034600094E0C5FD98E0890F91E0C4FD92E0890FDA
:103470000E94AC0230E4C3FD30E820E1C2FD20E24E
:1034800094E0C1FD98E08C2F81708F5F830F820FD5
:10349000890F0E94AC0287CFA8EAB0E0E2E5FAE12A
:1034A0000C94863180911A068823F1F080916B0587
:1034B0008823F9F040918B0250918C0260918D022B
:1034C00070918E028091660590916705A0916805C4
:1034D000B091690584179507A607B70750F4609166
:1034E0006A058CE695E021DFC855DF4FECE00C94CF
:1034F000A2311A9BF9CF469A2C988FEF0E94AC020A
:103500008E010F5F1F4F6E0129E0C20ED11C7801A2
:1035100080E00E94AC02F70181937F01909119062F
:10352000993319F0319780958083EC14FD0481F76D
:103530002C9AE88487EF8E0D803A10F043DED4CFCA
:103540006E2D86E00E942703809119064AE5A42E7D
:10355000B12C813349F05CEDA52EB12C843321F0E0
:1035600038E9A32E33E0B32E90EA992E28E0822E7C
:10357000CE2CD12CC5010E9456058BE30E9420035E
:10358000F82E882309F498C0282D280F3327331FDD
:10359000C216D3069CF22C988FEF0E94AC02F80C56
:1035A00080E00E94AC0290911906993309F0809551
:1035B00091E0980DF801E80DF11D8083F91279C0B2
:1035C0002C9AFE1408F477C0FE01EC0DFD1DB080AE
:1035D00080911906813309F073C0EFEFFFEFEC0F14
:1035E000FD1FEC0DFD1DC080D12CDC2CCC24CB0CA0
:1035F000D11C6EEF6E0DC8016FDEFF24F3948C15A5
:103600009D0509F0F12C80911A06823729F4C80132
:1036100036DE882309F464C0FF2009F461C08AE71C
:103620000E94CD056801F60181916F010E94AA06F2
:103630008C2D801B8E15B8F30E94250680911A06EA
:10364000823709F04DC08E81982F9370933029F402
:1036500090916B05911110926B0586FF41C087FD1B
:103660003FC08AE00E945B05FD80F98680911806C4
:103670008D8383E08E8380911906813349F58BE039
:10368000888769E0C80128DE9827892798279B87C3
:103690008A876BE0C80149DE8AE70E94CD0581E692
:1036A0000E94CD058F2D0E94AA060E9425064698ED
:1036B0001BCF892E75CF8F2C9A9491105BCF84CF1E
:1036C0006FEF6E0DC801FCDDFF24F3948B1599CFCD
:1036D0008AE0888769E0C801F3DD8A876AE0DACF8B
:1036E0006FEF86E00E94270369DDE1CFFC01818155
:1036F000823711F08D3651F49281911101C094E31B
:103700009093190680931A065DCD0895833781F44E
:1037100010926B0548EA6CE675E0CF0102960E94B4
:10372000AF06682F80936A058CE695E0FECD08957C
:10373000893681F58281882341F045E064E176E0B5
:10374000CF0102960C94AF06089580911A060E944C
:10375000CD05809119060E94CD0580E20E94CD051D
:10376000809114060E94AA06809115060E94AA065E
:10377000809116060E94AA06809117060E94AA064A
:1037800080E20E94CD05809118060E94AA060C9442
:103790002506089510921A0608950F931F93CF934C
:1037A000DF93EA98249A2C9A8EE190E00E945605C5
:1037B0002C988EE190E00E9456052C9A8DE290E0C4
:1037C0000E94560580E30E94310384E690E00E9447
:1037D00056052C9880E40E94AC020EE013E0C1E094
:1037E000D3E0FE0184910E94AC0221960C171D07C4
:1037F000C1F7809101010E94AC02809102010E94F8
:10380000AC02809103010E94AC02C1E1D3E00AE264
:1038100013E0FE0184910E94AC0221960C171D0753
:10382000C1F72C9A2C988EE70E94AC02CBE2D0E034
:10383000CE0121960E9417070E94AC02C333D10526
:10384000B9F72C9A83E30E94310381E00E945B0563
:1038500081E080938802DF91CF911F910F910895AD
:10386000A0E0B0E0E6E3FCE10C948A31EC01898150
:103870008437A9F468E071E0CE0102960E94E50663
:1038800040E260E080910801909109010E942A06BF
:103890000E942506CDB7DEB7E8E00C94A631833749
:1038A00009F0A4C18A81823769F464E071E0CE0135
:1038B00003960E94E50640E260E080910401909149
:1038C0000501E4CF469A80911D06811116C08091B2
:1038D0009902882329F081E080931C0610929902B6
:1038E00080919B02882329F081E080931B0610922F
:1038F0009B0253DF83E00E945B0586E30E94310355
:103900008AE30E9431038BE30E9431030E948A0301
:10391000FE0101900020E9F7FE2EFC1AFA94FA94B9
:1039200080910401909105012296892B09F444C0ED
:1039300031E210E0F31215C0299A809108019091AC
:1039400009010E945605299880910601909107016E
:103950002AE0AC01249FC001259F900D11240E94F4
:103960005605F5E0EF2E6E0101E00F1594F181E2AE
:10397000299AF812EBC080910601909107010E94EC
:1039800056052998809106019091070128E2FC01D3
:103990002E9FC0012F9F900D11240E9456051F5F7E
:1039A000212F012E000C330B809104019091050111
:1039B0002817390708F4C0CF80911D06882309F421
:1039C000F9C08091A702882309F4DFC00E949C03FC
:1039D000DFC00F5FF60181916F01803309F04AC0AB
:1039E000F1E2299AFF1222C080910601909107010D
:1039F0000E945605299880910601909107010E9426
:103A00005605299A80910601909107010E9456055A
:103A1000299880910601909107019C01E29EC001C6
:103A2000E39E900D11240E9456059FCF80910801BE
:103A3000909109010E945605299880910801909162
:103A400009019C01220F331F820F931F0E9456050C
:103A5000299A80910801909109010E9456052998A0
:103A600080910801909109019C01220F331F820F60
:103A7000931FD9CF813309F048C031E2299AF3125C
:103A800020C080910601909107010E945605299857
:103A90008091060190910701AC01E49EC001E59E72
:103AA000900D11240E945605299A8091060190914B
:103AB00007010E94560529988091060190910701FF
:103AC000B2CF80910801909109019C01220F331F10
:103AD000820F931F0E9456052998809108019091AA
:103AE00009010E945605299A8091080190910901C7
:103AF0009C01220F331F820F931F0E9456052998A5
:103B000080910801909109018ECF51E2299AF51216
:103B10000CC080910601909107010E9456052998DA
:103B20008091060190910701BDCF8091080190918D
:103B300009010E9456052998809108019091090178
:103B40009C01220F331F820F931FCBCF809108015E
:103B5000909109010E94560529980FE18091080172
:103B6000909109010E94560501500111F7CF1F5F86
:103B7000212F012E000C330B80910401909105013F
:103B80002817390708F4EFCE17CF86E30E943103D8
:103B9000469889E60E94CD0583E70E94CD0511E095
:103BA0001F150CF075CE89918033E1F40E94CD058C
:103BB0001F5FF6CF80911C06882341F010921C06EF
:103BC0000E94950A81E08093990200CF80911B06A4
:103BD000882329F010921B060E944E0CD9CF0E9418
:103BE0000310D6CF813311F386E4E0CF8237B9F4E6
:103BF00080919902882329F081E080931C0610921D
:103C0000990280919B02882329F081E080931B0612
:103C100010929B02C2DD81E080931D063BCE86366A
:103C200051F58A818033F9F480E18093010180EBC2
:103C30008093020181E78093030189E60E94CD050C
:103C400086E60E94CD058AE30E94CD0580910101A0
:103C50000E94AA06809102010E94AA068091030197
:103C60000E94AA0615CE43E061E071E0CE01029603
:103C70000E94AF06E2CF883729F580911C06882381
:103C800051F010921C060E94950A81E080939902DF
:103C90000E949C0308C080911B06882339F0109273
:103CA0001B060E944E0C10921D06F4CD82E090E09F
:103CB0000E9435038091A7028111EACF86E30E941A
:103CC0003103F1CF833609F0E5CD68E071E0CE0134
:103CD00001960E94E506DECDA1E0B0E0E2E7FEE15C
:103CE0000C9482317C01FC018181833709F0B4C1DD
:103CF000198287E090E00E94B7318C0141E0BE015B
:103D00006F5F7F4FC70102960E94AF068981F8015D
:103D1000808341E0BE016F5F7F4FC70104960E9420
:103D2000AF068981807FD82EF801818341E0BE01F2
:103D30006F5F7F4FC70106960E94AF068981F80129
:103D4000828341E0BE016F5F7F4FC70108960E94EA
:103D5000AF068981F801838341E0BE016F5F7F4F29
:103D6000C7010A960E94AF068981F801868341E067
:103D7000BE016F5F7F4FC7010C960E94AF0689811D
:103D8000F801858341E0BE016F5F7F4FC7010E964A
:103D90000E94AF068981F80184833801F7E06F0E35
:103DA000711CF80180E02191922F92959F709227CB
:103DB0008927E615F705B9F78F708D29F8018183FA
:103DC00087E090E00E94B7317C0187E0F801D701DD
:103DD00001900D928A95E1F798012A5F3F4FF80113
:103DE000DF01319611968C9111979C9189278083E0
:103DF0002E173F07A9F7469A80912006811161C0CE
:103E000080919902882329F081E080931F06109207
:103E1000990280919B02882329F081E080931E06FD
:103E200010929B02EA98249A2C9A8EE190E00E94CC
:103E300056052C988EE190E00E9456052C9A8DE252
:103E400090E00E94560580E30E94310384E690E0F2
:103E50000E9456052C9880E40E94AC02FAE2CF2E14
:103E6000F3E0DF2EA3E5AA2EA3E0BA2EF60184919B
:103E70000E94AC02FFEFCF1ADF0AAC14BD04B1F709
:103E80002C9A2C988EE70E94AC02EBE2CE2ED12C1D
:103E9000C6012FEFC21AD20A0E9417070E94AC0275
:103EA00083E3C816D104A1F72C9A83E30E9431035F
:103EB00081E00E945B0581E08093880283E00E949C
:103EC0005B0586E30E9431038AE30E9431038BE3A2
:103ED0000E9431030E948A03299A87EC94E20E948F
:103EE0005605299889E50E945B0585E392E00E94CA
:103EF0005605512C80910E0190E0252D052C000CCB
:103F0000330B281739076CF080912006882309F4B9
:103F10008BC08091A702882309F463C00E949C0390
:103F200063C077E0C72E511002C062E0C62ED12CCC
:103F3000299A86EF99E00E945605299886EF99E024
:103F40000E945605D394CD10F3CF299A8CEF92E1BD
:103F50000E945605299880910A0190910B010E94B8
:103F600056056801F60181906F0148E0442E50E843
:103F7000A52EB12C912CC4018A219B21892B29F5D6
:103F8000299A80910A0190910B010E945605299867
:103F900080910A0190910B010E945605B694A79456
:103FA0004A944110E8CFC614D704E1F62998F801E5
:103FB000868187FD13C080910A0190910B01815386
:103FC00099480E945605539495CF299880910A01EB
:103FD00090910B010E945605299ADACF8FEC96E753
:103FE000F0CF86E30E943103469889E50E94CD0513
:103FF00083E70E94CD0567015701F7E0AF0EB11CC2
:10400000F60181916F010E94AA06AC14BD04C1F7AC
:104010000E942506C7010E944D32C8010E944D3200
:104020002196E0E10C949E3180911F06882341F097
:1040300010921F060E94950A81E0809399026ECF2C
:1040400080911E06882329F010921E060E944E0CB5
:10405000CBCF0E940310C8CF8237C9F46EE071E065
:10406000C70102960E94E50689E50E94CD0582E718
:104070000E94CD058AE30E94CD0580910E0140E2A9
:1040800060E090E00E942A060E942506C9CF84378E
:1040900051F58281803301F588ED94E090930D0114
:1040A00080930C0180910C0190910D01969587955C
:1040B00090930B0180930A0189E50E94CD0584E766
:1040C0000E94CD058AE30E94CD0540E266E0809122
:1040D0000C0190910D01D6CF6CE071E0C701029602
:1040E0000E94E506DFCF883709F09ACF80911F063E
:1040F000882351F010921F060E94950A81E0809358
:1041000099020E949C0308C080911E06882339F002
:1041100010921E060E944E0C1092200681CF82E063
:1041200090E00E9435038091A7028111EACF86E3D7
:104130000E943103F1CF10925E0610921D0783E0BA
:10414000809367068FEF80935F060895DC01E8E6B1
:10415000F6E0808181110EC0AB2B29F587E0E631B6
:10416000F80719F010F0E6E1F7E0CF010895E80F45
:10417000F11DEFCF97E0E631F90770F71097B9F32B
:1041800021819C912913F3CF228111969C91119743
:10419000291759F3E80FF11D8081882321F097E05A
:1041A000E631F90768F3E0E0F0E0DFCF94E0899FC3
:1041B000F0011124E65CF94F80818F3F91F08093EC
:1041C0006206818180936306828180936406838185
:1041D0008093650621E04CE064E082E696E00C9472
:1041E0006209089587E197E0B1DFDC01892B99F03E
:1041F000E09167068C91E81770F4EA0FFB2FF11D30
:1042000080818093190789E780931A0781818093C1
:104210001B0781E0089580E008950F931F93CF93CB
:10422000DF938C018091A70286FF15C084E50E9470
:10423000CD05E8010B5F1F4F89910E94AA06C017A8
:10424000D107D1F78091A70285FF03C08AEF0E94B2
:10425000AA060E942506DF91CF911F910F91089524
:1042600086E30E94310380911907833581F48BE93D
:104270000E945B0521E04CE065E087E197E00E9449
:1042800062090E949C0387E197E0C7CF08958BE401
:10429000EFCFE6DF80911907893631F081E0809316
:1042A000160789E280935F060895CF9385E390E037
:1042B0000E9417078093610686E390E00E9417072B
:1042C00080936006EBE4F6E0CFEFC083C283C48343
:1042D000C683C087C287C487C6872DDF1092680651
:1042E00081E080932106AAE3B6E0CC93E2E2F6E017
:1042F0008FEF9FEF91838083138212821582148245
:104300001496CC9314979783868311861086138610
:1043100012861896CC9318979587848717861686E9
:10432000118A108A1C96CC93938B828B158A148ADF
:10433000178A168ACF910895ABE0B0E0E2EAF1E285
:104340000C9485318C016C012FEFC21AD20A45E022
:10435000BE016F5F7F4FC6010E94AF06843008F038
:10436000E5C099819130D1F4833079F46A8185E395
:1043700090E00E9412076B8186E390E00E94120792
:1043800094DF2B96EDE00C94A131809161060E94A0
:10439000AA06809160060E94AA0635C0923009F0F4
:1043A00051C0EE24E394813031F081E09A81913064
:1043B00009F080E0E82E80916806811104C083E551
:1043C00093E00E94180608E616E015C086E008365D
:1043D000180719F080E20E94CD05F80181810E9442
:1043E000AA06F80182810E94AA06E1100FC0F80116
:1043F0008081080F111DF8018081882321F0F7E0EA
:1044000006311F0718F30E942506BBCF8AE30E94DE
:10441000CD0583E0F82EF8018081F81640F7F3E02F
:10442000FF1629F0F0FE03C08CE20E94CD05DD24CA
:10443000D394DF0CF801EF0DF11D80810E94AA06D4
:10444000FD2CE9CF933049F480E090E07FDE885680
:1044500096409EEA981B892F9ECF903149F50BE438
:1044600016E0E12CF12CF80180818F3FA1F0FF20B4
:1044700019F080E20E94CD058E2D0E94AA068AE3E3
:104480000E94CD05F80180810E94AA06F801818171
:104490000E94AA06F3940E5F1F4FE394F8E0EF1218
:1044A000E2CF81E693E0F110AECF0E941806ABCFC9
:1044B000913151F480915B0690915C066DE770E05C
:1044C0000E945031862F67CF923109F09CCF0AE3CA
:1044D00016E0E12CF12CF80180818F3FE1F0FF2004
:1044E00019F080E20E94CD058E2D0E94AA068AE373
:1044F0000E94CD05F80180810E94AA06F801818101
:104500000E94AA06F80182810E94AA06F80183810E
:104510000E94AA06F3940C5F1F4FE394F4E0EF129D
:10452000DACFF11070CF8DE593E0BFCF7E0127E0A9
:10453000E20EF11C44E0B701C6010E94AF064F81B4
:10454000493608F496C06A855885EAE3F6E020E02B
:1045500030E080E090E06C3009F06FC080E090E0E7
:1045600020E030E06081461336C07181751333C09E
:10457000A2817985A7132FC0865C994F4CE0FC017E
:104580004383C901880F991F820F931FFC01EE0F0F
:10459000FF1FEE5DF94F11821082880F991FFC01F9
:1045A000EC5DF94F1182108222E04CE064E0C7011B
:1045B0000E9462098FE08A8722E04CE064E0C70134
:1045C0000E94620982E08A8722E04CE064E0C70131
:1045D0000E946209D6CE6F3FF9F4FC01E65CF94F08
:1045E00040835183898582838CE08383C901880F4E
:1045F000991F820F931FFC01EE0FFF1FEE5DF94F15
:1046000011821082880F991FFC01EC5DF94F118215
:10461000108210922106C8CF2F5F3F4F3496049628
:104620002430310509F09ECFACCE019634962C5F34
:104630003F4F8430910509F4A4CE70814713F5CF24
:1046400071817513F2CFA2817985A713EECF265C15
:10465000394FF9016383FC01EE0FFF1FE80FF91FCB
:10466000EE0FFF1FEC5DF94F81E090E091838083B6
:1046700088CEE98120916106E217C0F1822F90E097
:1046800007964E2F50E08417950784F19A81809108
:10469000600698132BC09C819F3231F442E06CE09D
:1046A000C8010E94D1096DCE8D819C32B9F48093EE
:1046B0004A0621E030E030935C0620935B06F4E08C
:1046C0008F9FC00111242091930230919402820F98
:1046D000931F909394028093930253CEE21BEE0FAC
:1046E000F0E0E55BF94F908381834BCE80E090E072
:1046F0002DDD7C01F60101900020E9F73197EC19DE
:10470000FD09F695E7957E2EDD24D394DE0EC701D4
:104710008D0D911D885696408F3A91052CF087E5B6
:1047200093E00E9418062DCEF701D0825701CC24C9
:10473000C3948C2D880F8150CD1480F0F6E1EF16D4
:10474000F7E0FF0608F01DCE2FEFED2D721201C02D
:10475000E1E0EE0DFF2DF11D108213CE4501FFEFBC
:104760008F1A9F0A41E0B401800F912F911D0E9482
:10477000AF0622E02C1548F4C0FC07C0F50180818B
:10478000843619F4818180935D06C3945401D1CF9E
:104790000F931F93CF93DF939091210691114AC0FD
:1047A000282F30E0E901CC0FDD1FC20FD31FDE013F
:1047B000AA0FBB1FAE5DB94F220F331F220F331F4D
:1047C000F901E65CF94F9281977040E850E0491B8F
:1047D00051099AEF949F9001959F300D11243595C2
:1047E0002795359527952D933C938E01000F111F2A
:1047F0000A5D194FF801208131812F5F3F4F3183CE
:104800002083CC0FDD1FCC5DD94F488159814115E4
:10481000510541F42430310569F4C8DCF8011182F6
:10482000108208C04130510551F4C0DC82E090E0B4
:1048300099838883DF91CF911F910F910895423022
:104840005105C1F7B3DC19821882E8CFA6E0B0E0C9
:10485000ECE2F4E20C948C31809160068A831B8236
:1048600090914A069923D9F19330B1F587E791E009
:1048700090935C0680935B068BE4E82E86E0F82E2E
:1048800010E00CE2F70120812F3FA1F080914A0651
:1048900090916106910F9983882351F10C838D8348
:1048A00021E04CE065E0CE0101960E946209CE0154
:1048B0000196B3DC1F5FF2E0EF0EF11C183011F728
:1048C00080914A06882321F08330A9F410924A0689
:1048D0002696E6E00C94A8318DE790E0C9CF87706A
:1048E0008A512DE7829FC001112495958795C0CFED
:1048F0002C838181D4CF825080934A06E9CF809166
:104900001607882351F0ACDC89E280935F06809122
:10491000160781508093160708950DCC0895FF92D5
:104920000F931F93CF93DF93FC01F080D181C2815D
:10493000138104818FE580935F06109216078091A2
:10494000610690916006892B882351F180911707A9
:104950008F1104C0809118078D1729F0ECDBF092BD
:104960001707D0931807D0915E06DF3FC9F0C093B8
:10497000190710931A0700931B07CC2359F1D11183
:104980001FC080916106801781F0043671F08DEAB6
:104990008C0F823010F0CD3751F48FEF80935E068C
:1049A000CDB7DEB7E5E00C94A931C435C9F3812F4A
:1049B000807F8036A9F7106710931A076ADCF0CF62
:1049C00011DC80911D07882379F08335B9F08C17AD
:1049D000D1F008C007DC8D2B882311F380911D07CF
:1049E000882311F0A8DBDCCFED2FF0E0EB59FC4F72
:1049F000E491E335F1F0CE1711F1F4CFC435B9F4F9
:104A0000DE5FD0935E06809167068E5F80936706B7
:104A1000E9DB882309F44CC08091190780931D07B6
:104A2000843661F680915D0680931B07C7CFC3353E
:104A3000CFCFC43509F03AC0DE5FD0935E068091D7
:104A40005E06E82FF0E0EA59FC4F14911F3F21F376
:104A50001093190797E790931A0790916106909326
:104A60001B078E5F80935E0610921D078E30D1F477
:104A700087E197E06BDBDC01892B99F02C9130E02A
:104A800086E197E0821B930BED01C817D907B0F0C0
:104A90008A179B07C8F08A1B9B0B8A0F9B1FFC0180
:104AA000108249DB112309F47BCF88CFC335A4CF13
:104AB00080915E068E5F80935E06C1CFFE01E20F9D
:104AC000F31F40814993E1CF80E090E0E6CFFF9271
:104AD0000F931F93CF93DF93EC01FC010190002013
:104AE000E9F731978F01081B190B8981823771F41F
:104AF00087E390E00E9435030E949C0381E080934D
:104B00001E07CDB7DEB7E5E00C94A931833711F568
:104B1000F02E2C988FE70E94AC028EEF800F0E943F
:104B2000AC02229612E01F1560F02C9A0E948A03B4
:104B30008AE30E9420038F77811108C00E949C03A2
:104B4000E0CF89910E94AC021F5FEDCF81E00E940F
:104B50005B05EECF10921E07D4CFA0E0B2E0E3EBEE
:104B6000F5E20C948A3180911E07882311F181307F
:104B700021F580918B0290918C02A0918D02B091D1
:104B80008E0220911F072817A1F085E30E942003C1
:104B9000813129F48AE30E9431030E949C038091B1
:104BA0008B0290918C02A0918D02B0918E02809325
:104BB0001F07DE5FE8E00C94A6318FE30E9420031C
:104BC000F82E2C988FEF0E94AC028E010F5F1F4FC2
:104BD0006801E02E8C2D801B8F1588F02C9A81E0C7
:104BE00080939102802F8E198F1580F00E942506E8
:104BF0008FEF8093910281E080931E07DACF80E0EF
:104C00000E94AC02F60181936F01E4CFF80181911B
:104C10008F010E94CD05E6CF2091C2113091C311C2
:104C20002115310521F42091110230911202809159
:104C30000F0290911002009741F48DB79EB74091FA
:104C4000130250911402841B950B2817390718F48E
:104C5000821B930B089580E090E0089582E40E9407
:104C6000CD0540E265E08091C2119091C3110E9490
:104C70002A060E94250683E50E94CD0540E265E0F4
:104C800080911102909112020E942A060E9425062C
:104C900085E40E94CD0540E265E080910F0290918D
:104CA00010020E942A060E94250686E40E94CD0575
:104CB000B3DF40E265E00E942A060C9425060895C1
:104CC0001F920F920FB60F9211240BB60F922F93D3
:104CD0003F934F935F936F937F938F939F93AF9384
:104CE000BF93EF93FF9380912A0990912B09892B11
:104CF000C9F086E299E00E945D088093C600FF91AA
:104D0000EF91BF91AF919F918F917F916F915F9143
:104D10004F913F912F910F900BBE0F900FBE0F90B0
:104D20001F9018958091C1008F7D8093C100E7CFBF
:104D30001F920F920FB60F9211240BB60F922F9362
:104D40003F934F935F936F937F938F939F93AF9313
:104D5000BF93EF93FF9388B190E4892788B960915E
:104D6000C6008091C0008871811104C080E297E084
:104D70000E943D08FF91EF91BF91AF919F918F915C
:104D80007F916F915F914F913F912F910F900BBE4B
:104D90000F900FBE0F901F9018959C0197FF04C0B5
:104DA00082E08093C0003F773093C5002093C40019
:104DB00088E98093C10086E08093C20008958091C5
:104DC000C10085FD0BC080912A0990912B09892B88
:104DD00029F08091C10080628093C1000895E09124
:104DE0002E0BF0912F0B81E00995E9CF08950F93D9
:104DF0001F93CF93DF93EC0100E0802F90E09C01A4
:104E0000220F331F280F391FF901E457FF4F149168
:104E1000812FF901E357FF4F25913491112389F038
:104E2000209741F480E20E94CD05812F0E94CD059C
:104E30000F5FE3CF98819113FBCFCE01F901099564
:104E400081E0DF91CF911F910F910895CF93C09191
:104E50009102809391028091240790912507892BDC
:104E600021F4C0939102CF91089580E297E00E94CF
:104E70005D088F3F81F32091300B3091310B8A30E8
:104E800011F08D3011F52115310529F32E5C344FC9
:104E9000F901108282E39BE0AADF811111C08BE847
:104EA00093E00E94180682E39BE00E940D0683E7D0
:104EB00093E00E94180680E090E099DF0E942506AA
:104EC0001092310B1092300BC6CF2115F2E03F0744
:104ED00008F0C1CFA9014F5F5F4F5093310B409352
:104EE000300B2E5C344FF9018083B5CF539A10926A
:104EF000CD008CE08093CC001092C80088E98093AC
:104F0000C90086E08093CA00E0913E0DF0E0E15CCC
:104F1000F24F108210923D0D08951092CD0080E165
:104F20008093CC00E8ECF0E080818260808308957B
:104F3000E0913A0DF0E0E15FFE4FE0818091390DA4
:104F4000E827F0E0E15FFE4FA091380D8081A827AF
:104F5000B0E0A15FBE4FE091370D8C91E827F0E003
:104F6000E15FFE4F81E02091360D9081291380E0B2
:104F7000089590E00E94DF32982F80ED890F8A30EB
:104F800010F089EC890F08958A3010F4805D08953F
:104F9000895C0895CF93DF93D82FC0913E0D829501
:104FA0008F70F2DFEC2FF0E0E15CF24F808382E063
:104FB0008C0F80933E0D8D2F8F70E6DFCF5FEC2F2F
:104FC000F0E0E15CF24F8083DF91CF9108951F9272
:104FD0000F920FB60F9211240BB60F92FF920F9300
:104FE0001F932F933F934F935F936F937F938F9371
:104FF0009F93AF93BF93CF93DF93EF93FF938091F2
:10500000C800C091CE008871811117C080913D0DFC
:10501000811113C080913C0D813009F09BC0E0915B
:105020003B0DE73050F4F0E0E85FFC4C0C94773136
:10503000C53519F481E080933B0DFF91EF91DF912D
:10504000CF91BF91AF919F918F917F916F915F9120
:105050004F913F912F911F910F91FF900F900BBE99
:105060000F900FBE0F901F901895C093360D60DF04
:1050700010913A0DD091390DF090380D0091370D07
:10508000882309F110923E0D85E584DF812F82DFB0
:105090008D2F80DF8F2D7EDF802F7CDF8C2F7ADFBE
:1050A0001092350D2D2F2F0D3327331FC901212FBE
:1050B00030E0322F2227820F931F9093340D80937C
:1050C000330D86E0B8CF153551F4D0933A0DF092F8
:1050D000390D0093380DC093370D85E0ACCFD53531
:1050E00041F4F0923A0D0093390DC093380D84E0ED
:1050F000A2CF35E5F31206C000933A0DC093390DE7
:1051000083E099CF053521F4C0933A0D82E093CF27
:10511000C53509F48FCF10923B0D8FCF8C2F3ADF1E
:105120008091350D8F5F8093350D90E02091330D88
:105130003091340D2F5F3F4F8217930708F47DCFD6
:10514000E0913E0DF0E0E15CF24F108281E080934F
:105150003D0DE1CFCD3009F470CF80913E0DE82FA9
:10516000F0E0E15CF24FCA3029F4108281E08093D4
:105170003D0D63CF8F5F80933E0DC0835ECFEF9276
:10518000FF920F931F93CF93DF938C0180913C0D7F
:10519000811104C0C2DE81E080933C0DF12CD1E08E
:1051A000F801ED0FF11D8081811105C0CDB7DEB78B
:1051B000E6E00C94A8319091C80095FFFCCFEE2456
:1051C000E394ED0ED6DEC82FF801EE0DF11D8081BF
:1051D000882329F092E0E92EED0ECBDEF82E80E157
:1051E000C89F900111242F292093CE00DE2DD8CF07
:1051F00080913D0D882379F08AE20E94CD058FE3EE
:105200009DE00E940D060E94250610923E0D109210
:105210003F0D10923D0D08959C0181E0F901E80FCA
:10522000F11D908191110FC08091C80085FFFCCFC6
:105230008DE08093CE008091C80085FFFCCF8AE08E
:105240008093CE0008954091C80045FFFCCF8F5F4A
:105250009093CE00E3CFE4E6F0E080818B7F808303
:105260002F9A84B1806B84B9269880E58CBD8DB56A
:1052700081608DBD0895A0E0B0E0E1E4F9E20C9416
:105280008931B82E192F062F6A0179012C988FEFDA
:105290000E94AC02CB2DD12F0C0F1D2F111DC0175A
:1052A000D107B1F4C114D10469F080E00E94AC02CE
:1052B000F6018083E114F10429F080E00E94AC0241
:1052C000F70180832C9ACDB7DEB7E9E00C94A531C5
:1052D00080E00E94AC028993E2CFEF92FF920F939D
:1052E0001F93CF93DF93182F062F219822981092A7
:1052F000530E1092540EEA98249A2C9A8EE190E064
:105300000E9456052C988EE190E00E9456052C9A3A
:105310008DE290E00E94560580E30E94310384E60E
:1053200090E00E945605113009F445C08EEF810FC0
:10533000823008F03CC0C9EAD3E0FE018491813498
:1053400008F455C00130D9F460E087E10E942703DA
:1053500067E083E00E94270364E584E0113009F0F0
:1053600053C00E94270366E785E00E94270362E09E
:1053700082E00E9427036EE280E00E9427031093E0
:10538000530E0093540E83E30E943103E5E4FEE0E4
:105390008EE0DF011D928A95E9F7EFE3FEE086E0FB
:1053A000DF011D928A95E9F784E00E945B05CDB785
:1053B000DEB7E6E0CDC7C6EFD3E0FE0184918134CD
:1053C00008F0C0CF8CEBE82E84E0F82EFE01319679
:1053D0006491FE0184910E942703EC16FD0609F4F6
:1053E000B1CF2296FE018491813480F3ABCF319608
:1053F0006491FE0184910E942703F4E0CF36DF0719
:1054000009F4A0CF229699CF0E9427036DE385E08F
:105410000E94270360E585E10E9427036BE580E198
:105420000E94270368EF81E1A0CFCF9385E30E941C
:105430002003C82F8130D1F78BE30E9431038AE328
:105440000E9431031092450E1092470E1092460EA4
:105450001092490E1092480E85E59EE090934B0EF7
:1054600080934A0E10924C0EC0934D0E10924E0E29
:105470008091530E80934F0E1092500E1092510E49
:1054800060E083E00E94270362E088E00E94270337
:1054900084E30E94310385E30E9420038D30D9F715
:1054A00081E08093520ECF910895FF920F931F9346
:1054B000CF93DF93F82E192F062F2C988FE70E9499
:1054C000AC02CF2DD12F0C0F1D2F111DC017D107EE
:1054D00031F42C9A81E0CDB7DEB7E5E03AC7899187
:1054E0000E94AC02F3CF8DE30C9431030895A4E045
:1054F000B0E0ECE7FAE20FC78091540E823009F079
:105500008AC09091530E992309F485C01091520ED0
:10551000123009F464C038F411115CC086E30E94B3
:10552000310383DF78C0133009F40CC183B1847078
:10553000D82E811182C18091520E823008F47DC133
:105540001C821B829E012D5F3F4FAE014C5F5F4F5F
:105550006091480E80914A0E90914B0E8CDE81E056
:1055600080934E0E80914F0E813009F01DC18091C5
:10557000450EB8D3AC016DE970E185E59EE034D409
:105580007C0180919D10AED38C01E114F10409F0EF
:1055900040C082E60E94CD0580914F0E833039F4E1
:1055A0008091510E823019F489E50E94CD058D2D30
:1055B00090E08017910708F438C18091A70285FF19
:1055C00006C08B810E94AA068C810E94AA060E94B6
:1055D00025061FC01A9BAACF8093520EA7CF199BF6
:1055E000A5CF20E030E040E050E063E080914A0E3B
:1055F00090914B0E40DE20914F0E80914A0E90917B
:105600004B0E2130E1F4BE016F5F7F4F86D28823BD
:1056100029F01092520E2496E7E099C68981809372
:10562000450E60D3AC0160E081E072D3BC01909381
:10563000470E8093460E8934924080F1EACF2330A2
:1056400009F068C0FC013081343509F063C0209353
:10565000500E21812D3C09F04BC021E02093510ECA
:1056600082818093450E8930A0F290E09C012A50FF
:105670003109B90137FF02C0615F7F4FE4E07595E2
:105680006795EA95E1F76E5F7F4F660F771F039688
:10569000680F791F7093470E6093460E86E06F3F48
:1056A000710511F008F04BC00E94270360E088E00C
:1056B0000E94270381E080934C0E80914A0E9091C6
:1056C0004B0E039690934B0E80934A0E8091460E9C
:1056D0009091470E03979093490E8093480E109235
:1056E0004D0E83E08093520E67E00E9427031ECF89
:1056F0002D3309F08ECF1093510E62816093450EC9
:105700006C3008F486CF603809F483CF70E06D5FA9
:105710007F4FC0CF40E0BE016F5F7F4F8AD28111C3
:1057200078CF82E08093500E81E08093510E898182
:105730008093450ED7D2AC0160E080E076CF0E9426
:105740002703BBCF199BF2CE8091480E9091490E52
:105750008F3F910509F058F480914C0E811107C0DC
:1057600060E088E00E94270381E080934C0E20E0F7
:1057700030E040E050E06FE180914A0E90914B0E96
:105780007ADD8091480E9091490E4F979093490E83
:105790008093480E80914A0E90914B0E4F969093B5
:1057A0004B0E80934A0EC2CE8091500E823051F43F
:1057B0008091450E97D2AC016DE970E185E59EE0E0
:1057C0008AD3DECE833009F024CF8091510E813010
:1057D000E9F42091450E30E0C9010A9797FD0F9634
:1057E00044E0959587954A95E1F78C010E5F1F4F30
:1057F000000F111F020F131F0F5F1F4FA8016DE94C
:1058000070E187E59EE0EED37C01BFCE823009F0E7
:1058100000CF0091450E10E00F5F1F4FA8016DE90A
:1058200070E187E59EE0AFD4EFCF83569F4EFC0139
:1058300080810E94AA06D394BACE85E30E942003F9
:105840008D3009F4E8CE1092520E68CEA0E0B0E0A0
:10585000EBE2FCE25FC56C01F62E072FE42EFC01A3
:10586000808140D2EC0101978232914008F0D0C093
:105870008091540E1091530E823009F010E061E0D7
:105880008E2D2BDD21E0AE01B6018F2D902FE2127F
:1058900065C055D2AE0161E081E03AD280933F0EFF
:1058A0009093400E20DEC82FC07786E3C111A4C0BC
:1058B0008BE30E943103F092410E0093420E10924E
:1058C000440E60913F0E7091400E86E06F3F71056F
:1058D00011F008F048C00E94270360E088E00E94B1
:1058E0002703C1E0C093430EC0913F0ED091400EFC
:1058F000C134D10510F0C0E4D0E06C2F8091410E8E
:105900009091420ED2DD8091410E9091420E8C0F0B
:105910009D1F9093420E8093410E80913F0E909177
:10592000400E8C1B9D0B9093400E80933F0E892B55
:1059300019F481E08093440E85E30E94310301E075
:105940008091440E8823B1F085E30E9420038130CA
:10595000D9F7111159C080E090E052C016D2AE01C3
:1059600061E080E09ACF0E94270362E088E00E9415
:105970002703B8CF199B3AC0C0913F0ED091400E7B
:10598000C132D10520F080E2C82FE0E0DE2F6C2F7D
:105990008091410E9091420E88DD8091410E909150
:1059A000420E8C0F9D1F9093420E8093410E80916A
:1059B0003F0E9091400E8C1B9D0B9093400E809358
:1059C0003F0E009771F40093440E8091430E8111B5
:1059D000B7CF60E088E00E94270381E08093430E08
:1059E000AFCF803C910508F0ABCFEFCF7CDD807767
:1059F000803709F0A5CF8BE30E94310382E090E06D
:105A0000CDB7DEB7E8E0A2C462E0812F66DCA3CFA9
:105A100081E090E0F5CF1F93CF93DF93EC01898174
:105A2000823761F58A81882329F08337D1F462E0D7
:105A300081E053DC8091540E823009F055C0809192
:105A4000530E823009F447C0833009F447C08130D7
:105A500009F047C083EA93E00E9418060E942506D9
:105A600036C0843719F462E082E0E3CF833619F45C
:105A700062E083E0DECF60E080E0DBCF8337D1F609
:105A800010E006C063567F4E41E00E94AF061F5FE4
:105A9000612F70E09B01220F331FC90103968C0F09
:105AA0009D1FFC014081442331F02C0F3D1FF90163
:105AB00024812111E7CF8A8141E0833719F08437AF
:105AC00031F442E065E57EE08DE990E1BFDEDF91F3
:105AD000CF911F9108958DE993E0BECF87E993E0C0
