:1000000039C100000C94261453C1000051C10000F6
:100010004FC100004DC100004BC1000049C10000AC
:1000200047C1000045C1000043C1000041C10000BC
:100030003FC100000C94C0133BC1000039C1000057
:1000400033C3000035C1000033C1000031C10000DE
:100050000C94081E0C94D01D2BC1000029C1000077
:1000600027C1000025C1000023C1000021C10000FC
:100070001FC100001DC100001BC1000019C100000C
:1000800017C1000015C1000013C100006D9E1D4284
:100090009806439A0246B80841720B5AC90D47BCEC
:1000A000084DF4084B640952020654151956FF0610
:1000B000574406584B0F65BF0666DA1C6C860674FB
:1000C000B60375BA16786102000000202F200020C8
:1000D0003D2000072E050DD391FF080500000C0000
:1000E00021656A2D3B1322F862073F181D1CC700CB
:1000F000B0876BF8B611EA2A001F41000D2E2D07BC
:10010000D3913D04320000060021656A55E4302396
:10011000B900070018146C070090876BF85611E9B6
:100120002A001F410000030F1E2627000000030FB6
:100130001E2536386700030F256740605000030F07
:10014000275188838100030F2750C8C3C2002700AE
:1001500000000000000067000000000000005000E8
:100160000000000000008100000000000000C2004C
:100170000000000000504C4C310D0A00504C4C3037
:100180000D0A005620312E36382043534D3836386C
:1001900000202F2000203D20004C4F56460D0A0025
:1001A0004552523A4343410D0A000007022E030D07
:1001B00004E905CA070C0B060D210E650F6A10C86D
:1001C0001193120315341733181819161B432156AF
:1001D0002500261129592C812D353EC34C454E450D
:1001E00052520D0A004C4F56460D0A004C454E45E2
:1001F00052520D0A000007024604C605260B0610DF
:10020000C81193120313221534173F182819161B0F
:10021000432156250026110D210E650F6A070C1685
:100220000720F81E871F6B29592C812D353EC3FFEF
:1002300000424F56460D0A004E2F4100454F420DD9
:100240000A004E2F41004E2F410000535300547DB1
:100250007DFFFF4B4B7E7E0020697320756E6B6EB9
:100260006F776E2920557365206F6E65206F66006D
:100270003F20280011241FBECFEFD0E4DEBFCDBF4A
:1002800011E0A0E0B1E0E4EEFEE300E00BBF02C04D
:1002900007900D92AA30B107D9F722E1AAE0B1E0A8
:1002A00001C01D92AD3FB207E1F703D00C94701F5F
:1002B000A7CE0FB6F894A8958091600088618093CE
:1002C0006000109260000FBE80E890E00FB6F894D6
:1002D00080936100909361000FBE3A9A429A0E9407
:1002E000E31E7AD589EF87BD84E085BD82E084BDB9
:1002F00080936E00109280008AE08093810084B722
:10030000877F84BF88E19FE00FB6F894A89580931B
:1003100060000FBE9093600089E190E80E943D1E4E
:100320000E94CE180E94280F86E99EE19093F50E58
:100330008093F40E81E0809313010E94D815809180
:100340001301886080931301429878940E945F1E85
:100350000E94421121D20E941F1D0E945C170E9420
:10036000100A0E94530DF2CF8EBD0DB407FEFDCFD3
:100370008EB50895EF92FF920F931F93CF93C82FDE
:100380008A3008F0C8E028E0C29FC0011124FC01B7
:10039000EB5DFE4F7F010BE210E0F7016491C801B5
:1003A0000F5F1F4F12D4FFEFEF1AFF0A033311053F
:1003B000A1F7C55061E1C53008F067E184E290E043
:1003C00004D4CF911F910F91FF90EF9008950F9358
:1003D0001F93CF93DF930CEF10E0C2E0D0E0F80161
:1003E0006491CE012196F1D30F5F1F4FCB32D1051F
:1003F000B1F703ED10E0C7E3D0E0F8016491CE015E
:100400002196E3D30F5F1F4FC036D105B1F788E0C7
:10041000B1DFDF91CF911F910F9108952C98806CDF
:10042000A3DF80E0A1DF2C9A0895CF93C62F2C98EC
:1004300080649ADF8C2F98DF2C9ACF9108952C98A6
:1004400093DF2C9A08950F931F93CF93DF93EC01C2
:1004500010921C01E898249A2C9A8EE190E014D214
:100460002C988EE190E010D22C9A8DE290E00CD284
:1004700080E3E5DF84E690E007D22C9880E474DF27
:100480008E01075D1F4FCE012196A4D36DDF0C179F
:100490001D07C9F72C9A2C988EE766DFCBE2D0E0D7
:1004A000CE01219697D360DFC333D105C9F72C9ACB
:1004B00083E3C5DF81E0EDD1DF91CF911F910F91F3
:1004C0000895A1E0B0E0E7E6F2E00C942A1F22E0F4
:1004D000298341E0BE016F5F7F4F01962ED3898152
:1004E00049DF82E090E0AFDF2196E2E00C94461F06
:1004F000CF93E89886E3A3DFCFEF85E3A0DF807793
:10050000803231F08AE090E0BFD1C150C111F5CF07
:10051000CF910895CF93CFEF84E391DF807780313F
:1005200031F08AE090E0B0D1C150C111F5CFE89A26
:10053000CF910895A2E0B0E0E0EAF2E00C94281F29
:100540008C01FC0181818737F1F441E0BE016F5FCE
:100550007F4FC8010296F1D2892BA9F041E0BE017C
:100560006E5F7F4FC8010496E8D2892B61F06A81E3
:1005700089815BDF83E363DFCDDF8981D9D28A8123
:10058000D7D251D218C041E0BE016E5F7F4FC80183
:100590000196D3D2892B79F08A81893981F410E0D0
:1005A000812F3CDFC5D2812F8770873009F43BD281
:1005B0001F5F1033A9F72296E4E00C94441F2EDF4E
:1005C000182F83E4D8D18A81B3D28FEC90E01ED269
:1005D000812FAED28BEC90E019D240E262E0812F05
:1005E00090E026D2CECF86E32ADF10920A01109245
:1005F0001B0110921C01089582E090E024DF81E04D
:1006000080930A0110921B0110921C0108950F9310
:100610001F93CF93DF93D82FC0E0062F10E085E320
:10062000FDDE8D1759F0C8012FD1C150C111F7CF90
:1006300081E0DF91CF911F910F91089580E0F9CF74
:1006400085E2ECDE8F3311F080E0089586E3F7DE7B
:1006500080910B01811112C08CE791E0D7D183E327
:10066000EEDE64E081E0D3DF85E2D8DE8F3361F730
:1006700080910B01882329F081E008958DE3DFDE6E
:10068000EECF85E791E0C2D1F7CF85E3C7DE8D30AD
:1006900051F485E2C3DE8F3331F4D2DF84E3CFDE61
:1006A00080778031D9F708951F921FB61F921124C9
:1006B0008F938BB78F939F93AF93BF93EF93FF93DA
:1006C00080910D0190910E01A0910F01B091100148
:1006D0000196A11DB11D80930D0190930E01A09371
:1006E0000F01B093100180910C018F5F80930C017A
:1006F000E8EEF5E080819181181619061CF4019747
:1007000091838083369686E0E030F80799F78091F0
:10071000210690912206009729F0019790932206D6
:1007200080932106809125068F3F19F08150809398
:100730002506FF91EF91BF91AF919F918F918BBF54
:100740008F911F901FBE1F901895FC018FB7F894D2
:1007500040910D0150910E0160910F0170911001B7
:1007600040835183628373838FBF0895A4E0B0E018
:10077000ECEBF3E00C942A1FCE010196E6DF8C81AE
:10078000D7D18B81D5D18A81D3D18981D1D14BD198
:100790002496E2E00C94461F0F931F93CF93809111
:1007A0000D0190910E01A0910F01B09110012091C7
:1007B0001201281709F457C080910D0190910E0184
:1007C000A0910F01B091100180931201A89508EE3D
:1007D00015E0C0E0F80180819181892B19F48C2FFC
:1007E0000E943E1BCF5F0A5F1F4FC43099F7809174
:1007F000210690912206892B11F40E949C1B809166
:100800002506811102C00E94F31B8091E205882316
:1008100039F081508093E205811102C00E94F717E0
:1008200080910C018D37F8F010920C01809100013D
:1008300081FF04C088B194E0892788B980911501AF
:10084000909116018438F3E09F0728F40196909365
:100850001601809315018091110191E0980F8B335F
:1008600031F090931101CF911F910F910895109243
:100870001101809123068F5F8C3318F48093230637
:10088000F2CF10922306EFCF880F991F0197F1F74F
:10089000089520ED37E0811101C00895F9013197E5
:1008A000F1F78150F8CFCF93DF93DC0116968C914E
:1008B0001697843509F053C0ED0126968D919C91D1
:1008C00011974DE0242F30E02817390708F44AC06B
:1008D000AC014F5051092417350709F040C0FC0105
:1008E0003E97EC0FFD1F20812435C9F517963C91EA
:1008F00017972181321333C018963C9118972281A3
:1009000032132DC019963C9119972381321327C0B9
:100910001A963C911A972481321321C04197C80F2F
:10092000D91F858188838681898381858A83828591
:100930008B8383858C8384858D8385858E838D9140
:100940009C9111970A9711969C938E9314968D9172
:100950009C9115970A9715969C938E931497DF9107
:10096000CF910895FE01E20FF31F50815B3309F42C
:10097000AFCF4F5FA7CFCF93C82F8091130180FFD8
:100980001BC02091F00A3091F10A2E3F93E0390705
:1009900078F02115344080F4CD3051F0CA3041F068
:1009A0009091E405992311F083FD20C0CF91089523
:1009B0006C2F8CEE9AE030D28091E4058823B1F35D
:1009C0008091130183FFF2CFCA3081F3CD3071F4EF
:1009D0006BE38BED91E020D28BED91E064DF83E05F
:1009E0008093E20582E08093E105E0CF6C2F8BEDF0
:1009F00091E012D2F4CFCF93DF93EC018991811172
:100A000003C0DF91CF910895B6DFF8CFCF93DF9386
:100A1000EC01FE018491811103C0DF91CF91089513
:100A2000AADF2196F6CF8DE0A6DF8AE0A4CF089555
:100A3000A6E0B0E0EEE1F5E00C94261FFC01262FC5
:100A40001E828E010A5F1F4F35E08AE0E82EF12CEE
:100A5000CF01B7010E94F31E3150805DD8018E9303
:100A60008D01CF01FB010A97A8F4832F2550622F37
:100A7000630F615067FD02C0811110C021E030E0BA
:100A80002C0F3D1F280F311DC901B5DF2696E6E06A
:100A90000C94421F3111DCCF80E0E8CF8150E1E0BF
:100AA000F0E0EC0FFD1FE80FF11D4083E2CFA5E061
:100AB000B0E0EDE5F5E00C942A1F9C011D8254E0A6
:100AC000922F9F709A3048F5905D8FEF850FE1E08F
:100AD000F0E0EC0FFD1FE80FF11D9083F90194E0A9
:100AE000F695E7959A95E1F72031310598F4555040
:100AF000650F615067FD02C0811111C021E030E037
:100B00002C0F3D1F280F311DC90175DF2596E2E02E
:100B10000C94461F582F9F01D3CF995CD6CF81509C
:100B2000E1E0F0E0EC0FFD1FE80FF11D4083E1CFA5
:100B300040E362E090E0BBCF0895CF93DF93EB01F9
:100B4000FB0130E020E0DC019D91992331F09136EA
:100B500070F08FE9890F863030F0CF018C1B9D0B30
:100B6000DF91CF91089590529753292B05C080EDC6
:100B7000890F8A3050F4282B332389F02193415078
:100B8000442359F330E020E008C08FEB890F863012
:100B900058F3903211F09A3301F7CD01D4CF22955A
:100BA000207F31E0FACFFB01982F92959F70803A19
:100BB00040F4905D90838F708A3028F4805D81834B
:100BC0000895995CF7CF895CFACF0E94621FF9996A
:100BD000FECF08950C945A1F08950F931F93CF933F
:100BE0008C01CFEFC60FC801F5DFA2DFCC2331F0B7
:100BF0000F5F1F4F8AE3BFDEC150F5CFCF911F912A
:100C00000F910895A2E0B0E0E8E0F6E00C94271F11
:100C1000FC0181818D3449F466E08AEF9FE0DDDFDD
:100C200002DF2296E5E00C94431F803521F460E159
:100C30008AED9FE0F4CF1A82198242E0BE016F5F15
:100C40007F4FCF01019679DF098110E0823029F4CE
:100C500009811A81102701271027C801BBDFF82E50
:100C600082E589DE40E364E0C80121DF85E991E0A7
:100C7000CDDE8F2D5DDF81E991E0C8DE40E262E0EC
:100C80008F2D90E0D5DECCCFA6E0B0E0EAE4F6E030
:100C90000C94221F6C0143E0CE0101967C01BC0143
:100CA000C60101964ADF8C01BE2CAF2C8230D0F0F9
:100CB000E980F12C823029F0E980FA80FE24EF24CB
:100CC000FE241127FE01E00FF11F6081C7017DDFC7
:100CD000000F111F0F5F1F4F0C0D1D1DF8018081AC
:100CE000811104C02696EAE00C943E1F41E06B2D72
:100CF0007A2DC80122DF892BA9F39FEFE91AF90A9F
:100D00006981C70162DF0E5F1F4FE8CF41E060E0FD
:100D100071E0019612DF8091000180FF07C0429AC6
:100D20006091000184E390E050CF08954298F8CF9D
:100D3000A1E0B0E0EEE9F6E00C942A1F19820097DA
:100D400031F041E0BE016F5F7F4F0196F6DE898191
:100D50008F3F09F4FFCF882321F061E083E390E027
:100D600034DF10926E00F89488E198E00FB6F894A2
:100D7000A895809360000FBE90936000FFCFCF9343
:100D8000DF93EC0161E080E090E01FDF64E481E04C
:100D900090E01BDF1CDB60E080E690E016DF60E0A7
:100DA00081E690E012DF60E083E390E00EDF62E036
:100DB00084E390E00ADF60E080E690E006DF60E038
:100DC00081E690E002DF8981883719F080E090E0C9
:100DD000AFDFDF91CF91089580E090E0FBDE8130BE
:100DE00029F481E090E0F6DE843419F080E090E0B0
:100DF000C6DF84E390E0EEDE80930001089583E88F
:100E000091E004DE10CE0895FC0115821482118257
:100E10001082138212820895FC012FB7F894848106
:100E20009581811534E0930710F02FBF0895019646
:100E30009583848380819181AC014F5F5F4F5183A3
:100E400040838E0F9F1FDC0116966C934115544012
:100E500061F711821082E9CFFC012FB7F8948481E9
:100E60009581009719F42FBF80E00895019795832D
:100E7000848382819381AC014F5F5F4F53834283B0
:100E80008E0F9F1FDC0116968C914115544011F472
:100E9000138212822FBF0895CF93DF93FB01DA01F3
:100EA0009C91882369F0EB01C90FD11D41E050E00E
:100EB000022E01C0440F0A94EAF78881842B8883AC
:100EC000222331F02150822F90E0DF91CF910895BD
:100ED0009F5F9C3008F49C93E90FF11D108227E07E
:100EE000F2CF299A882381F08091180120E1829F16
:100EF000C0011124C9DC29988091170120E1829F4B
:100F0000C0011124C1CC089580911A0120E1829F73
:100F1000C0011124B9DC299880911901EFCFA4E018
:100F2000B0E0E5E9F7E00C941A1F6C01362E2A8335
:100F3000502EE982642E712C4E5F409F402D11246B
:100F4000042E000C550B8091150190911601841709
:100F5000950738F489E991E059DD2496E2E10C9493
:100F6000361F841B950B9093160180931501429AAE
:100F700040901C01442039F010921C0187E091E060
:100F80008AD74424439480910A01811101C034DB43
:100F9000AFDAA32CB12C01E010E02A81E22EF12C73
:100FA0001A82EA818E2FEE0F990B8A159B054CF160
:100FB000332011F081E095DF212C822D022C000CD2
:100FC000990B9C838B83861597050CF127E0922E55
:100FD0008C0D9D1D9C838B83892D092C000C990BF6
:100FE000E816F90674F1898154DC5A945110D8CF6F
:100FF00080912801882391F18DDA411085D34298A0
:10100000ACCF80E06EDF8A818F5F8A83CACF37E002
:10101000832E912C8B819C818C0D9D1D9C838B83B9
:10102000C801082C01C0880F0A94EAF7EB81FC8103
:101030009081892356DFF1E08F1A910888F7239475
:10104000BCCFC801092C01C0880F0A94EAF7EB81D4
:10105000FC819081892345DF9A94BECF86E3EFD946
:10106000CCCFADE0B0E0E7E3F8E00C941B1F7C01CF
:10107000162F842F022F6701C60ED11C462FB701F1
:1010800026D7F60180831F5F1D861982C12CD12CC3
:1010900027E0CE010D9688248394912C582E492E5A
:1010A00097E0A92EB12C37016C0C7D1CC116C8F03D
:1010B000222309F440C0215089E1809319018093D3
:1010C0001A0185E280931701809318018AE0E82EC7
:1010D0004D856CE0CE01019622DF2D96E1E10C9466
:1010E000371FF3013080C4010A2C01C0880F0A9415
:1010F000EAF7452D542DBE016F5F7F4F8321CCDE73
:10110000282FF1E0AF1AB10888F6032C329430246E
:10111000032C369436943024339431FA882780F99E
:10112000452D542DBE016F5F7F4FB6DE282FEFEFA8
:10113000CE1ADE0AB5CF8D858F5F8D8727E0BCCFB5
:10114000ACE0B0E0E6EAF8E00C94281F162F042F7C
:101150004BE0BE016F5F7F4F0196EFDC682F202FC1
:10116000412FCE0101967DDF2C96E4E00C94441FC4
:1011700043E066E0E5CF0895EF920F93CF93DF93BE
:10118000CDB7DEB760970FB6F894DEBF0FBECDBF08
:1011900040E1BE016F5F7F4F0196CFDC69814A81DC
:1011A0000B818C8180931A018D81809319018E812E
:1011B000809318018F8180931701E02EE2948FE0D5
:1011C000E8220F70242F2F7042954F70CE010896A1
:1011D000A6DE60960FB6F894DEBF0FBECDBFDF91DE
:1011E000CF910F91EF900895A9E1B0E0EAEFF8E018
:1011F0000C94201F4BE0BE016F5F7F4F01969DDC7A
:10120000182F8930B1F589E18093190180931A0173
:101210008093180182E38093170169E0CE01019663
:1012200061D6E1E0F0E0EC0FFD1FE10FF11D8083DE
:10123000198E1D868E010F5F1F4F7E018BE0E80E19
:10124000F11C27E0CE014996CC24C394D12C982ED2
:10125000892EA12CB12C0E151F0579F4222379F1CA
:1012600021508AE0E82E03E0498D6CE0CE010D9616
:1012700056DE6996ECE00C943C1FC6010A2C01C0B6
:10128000880F0A94EAF7F8019081492D582DBE0184
:10129000635F7F4F892300DE282FFFEFAF1ABF0A5D
:1012A00088E0A816B104B9F6492D582DBE01635F38
:1012B0007F4F81E0F1DD282F0F5F1F4FCACF898D4F
:1012C0008F5F898F27E0CDCFA9E1B0E0EAE6F9E0B2
:1012D0000C941C1F4BE08E010F5F1F4FB80101964D
:1012E0002CDC782E85E380931A0196E19093190106
:1012F0009093180180931701672DC801FFD5F8015D
:10130000E70DF11D80837394198E1D86780127E007
:101310006E0189E1C80ED11CAA24A394B12C8E2D94
:10132000801B871560F08AE0E82E03E0498D6AE0B3
:10133000CE010D96F4DD6996E0E10C94381F812C06
:10134000912CF7015080C501082C01C0880F0A9428
:10135000EAF7A601BE01635F7F4F85219DDD282F3F
:10136000FFEF8F1A9F0A4C2C6D2C84E08816910495
:1013700041F7A601BE01635F7F4F81E08DDD282F1D
:10138000C501082C01C0880F0A94EAF7442D562D98
:10139000BE01635F7F4F85217FDD282FEFEF8E1A1F
:1013A0009E0AF8E08F16910459F7442D562DBE0180
:1013B000635F7F4F81E070DD282F8FEFE81AF80A16
:1013C000AECFCF93DF93E898249A2C9A8EE190E0E9
:1013D0005BDA2C988EE190E057DA2C9A8DE290E05F
:1013E00053DA80E32CD884E690E04EDACAEAD1E002
:1013F000FE0131966491FE01849117D82296F1E0A6
:10140000CC3DDF07A9F783E31AD884E042DA84E30E
:1014100016D885E303D88D30D1F7DF91CF910895A9
:10142000AEE1B0E0E6E1FAE00C94271F80911B01E9
:101430008823A9F04A9B5CC08FE30E940E028F773D
:1014400089838E3180F08AE30E941F0286E30E9426
:101450001F028DE30E941F0284E30E941F026E960A
:10146000E5E00C94431F2C988FEF0E94B40110E02C
:101470008981181708F451C080E00E94B401F82E49
:1014800080E00E94B4012C9A84E30E941F0285E34D
:101490000E940E028D30C1F79A8186E789278A83E0
:1014A0000981FE01339682E02191801708F441C042
:1014B000802F023008F482E0E1E0F0E0EC0FFD1F45
:1014C000E80FF11D8B818227808310912801107114
:1014D0001123B9F181E64FDA10E0E1E0F0E0EC0F22
:1014E000FD1FE10FF11D808146DA1F5F0117A8F78C
:1014F00085E30E940E02813029F0813161F48AE394
:101500000E941F0286E30E941F028DE30E941F02B9
:1015100084E30E941F02B9D8A2CF80E00E94B401E8
:10152000E2E0F0E0EC0FFD1FE10FF11D80831F5F93
:101530009FCFDF011197945292279C938F5F922F38
:10154000B3CF81E418DAE1E0F0E0EC0FFD1FE10F2A
:10155000F11D8081EDDA1F5F0117A8F78091280146
:1015600085FF02C08F2DE4DA5EDAC2CFA6E2B0E0DA
:10157000ECEBFAE00C94241F4DE19E012F5F3F4FEE
:101580007901B9010196D9DA182F8150990B9C0184
:10159000898190E02817390709F063C080911B0109
:1015A000811103C00EDF83E074D90B818A8196E735
:1015B00089278A834981DE01129692E09D01119666
:1015C0008C911197941708F450C0E42F423008F41E
:1015D000E2E0EE0DFF2DF11D80278083CE01839682
:1015E000B4D885E30E941F0285E30E940E02833176
:1015F00009F451C0CE014F96A8D84F8D58A169A1CA
:101600007AA18BA19CA1ADA1BEA184179507A607C5
:10161000B70798F5481B590B6A0B7B0B4D3B5105DF
:1016200061057105C0F180EA91E0F0D985E30E947F
:101630000E02863149F48BE30E941F0286E30E946A
:101640001F028DE30E941F0280911B01882309F471
:1016500047C084E30E941F0285E30E940E028D3082
:10166000C1F7A696E8E00C94401F1196F90120817D
:10167000245282278C939F5FA1CF481759076A078E
:101680007B0748F484549F4FAF4FBF4F481759070B
:101690006A077B07C7CF85E30E940E02833109F0FA
:1016A000A0CF8AE004FF05C088E7F3D888E7F1D827
:1016B00088E7EFD82C988FE70E94B40167018C2D42
:1016C0008E19811738F02C9A85E30E940E0283311F
:1016D000D9F3ACCFF60181916F010E94B401EFCF35
:1016E000CED3BFCFFC018181823729F46ADE81E04D
:1016F00080931B010895833721F4CF01019636CFE3
:10170000089510921B0108950F931F93CF93DF93B9
:10171000E898249A2C9A8EE190E0B6D82C988EE125
:1017200090E0B2D82C9A8DE290E0AED880E30E948F
:101730001F0284E690E0A8D8C5EFD1E0FE018491B5
:101740000FE212E08134F8F083E30E941F0284E08C
:10175000A0D8CFEF84E30E941F028077803131F060
:101760008AE090E091D8C150C111F4CF81E080931C
:101770001C01DF91CF911F910F9108952296FE01D8
:101780008491813408F7FE0131966491FE018491C1
:101790000E9415020C171D0789F7D6CF4F925F9252
:1017A0006F927F928F929F92AF92BF92EF92FF9231
:1017B0000F931F93CF93DF93EC018B01F880F39489
:1017C00020E030E0672B11F024E630E048E0F49EA2
:1017D000C00111246AE070E00E94071F620F731FAE
:1017E00080911501909116012C01612C712C4B01F7
:1017F000072E000CAA08BB08481459046A047B048D
:1018000090F485EE91E002D9DF91CF911F910F9175
:10181000FF90EF90BF90AF909F908F907F906F90D0
:101820005F904F900895861B970B909316018093BD
:10183000150180911C01811101C066DF85E30E94C2
:101840000E028D3089F08AE596D885E494D882E539
:1018500092D882E590D881E38ED885E30E940E026B
:1018600067D9E1D851DFD0CF80911D0190911E0141
:10187000A0911F01B0912001892B8A2B8B2BA1F401
:101880000E94780285E30E940E02833199F18AE575
:1018900072D885E470D882E56ED882E56CD882E390
:1018A000DBCF81E00E94490440910D0150910E016F
:1018B00060910F017091100180911D0190911E01A6
:1018C000A0911F01B0912001481759076A077B07B3
:1018D00041F340910D0150910E0160910F01709103
:1018E00010010196A11DB11D84179507A607B70722
:1018F000C1F2C6CF012B51F00AE010E084E60E944D
:1019000049040150110901151105C1F72C988FE701
:101910000E94B401EC2E0C2F1D2F802F8E198F15D5
:1019200008F43DC02C9AC8EC85E30E940E028D306D
:1019300059F085E30E940E02833131F481E00E9468
:101940004904C150C111F0CF85E30E940E028D30D1
:1019500081F08AE510D885E40ED882E50CD882E5BE
:101960000AD883E308D885E30E940E02E1D85BD849
:10197000CBDE80911C01811101C081D280910D01CB
:1019800090910E01A0910F01B091100180931D0163
:1019900090931E01A0931F01B093200135CFF80151
:1019A00081918F010E94B401B8CFACE0B0E0EBEDC3
:1019B000FCE00C94261FFC018BE0898381818A83E3
:1019C0001B8282E08C8387818D8380858E838185D5
:1019D0008F83848188878581898786818A871B8612
:1019E0001C8684E10E94490460E070E0CE0101960B
:1019F000D5DE8AE50E94BB048E010F5F1F4F7E017A
:101A00008DE0E80EF11CF80181918F0191D8E0166C
:101A1000F106C9F78091280185FF02C080E088D8CF
:101A200002D82C96E6E00C94421FCF93DF93EC0192
:101A3000309124012091250190912601832F822B42
:101A4000892B882389F08B81803319F08F7E803435
:101A500059F48F81381308C08885281305C08985FB
:101A6000981302C0CE01A1DF309121012091220103
:101A700090912301832F822B892B882389F08881E1
:101A80008B3071F48B81803459F48F81381308C006
:101A90008885281305C08985981302C0CE0185DF8B
:101AA000DF91CF910895AEE1B0E0E9E5FDE00C945F
:101AB000271F80911C01882399F14A9B5BC08FE30B
:101AC0000E940E028F778E3108F08DE189832C9869
:101AD0008FEF0E94B40110E08981181728F180E08F
:101AE0000E94B401082F80E00E94B4012C9ACE011C
:101AF00001969BDF109128011071112309F18AE7EB
:101B00000E94BB04098110E0E1E0F0E0EC0FFD1F52
:101B1000E10FF11D80810E94BB041F5F0117A0F738
:101B20006E96E5E00C94431F80E00E94B401E2E071
:101B3000F0E0EC0FFD1FE10FF11D80831F5FCCCFA4
:101B40008AE50E94BB04F980E1E0F0E0EC0FFD1FA4
:101B5000E10FF11D80810E9498051F5FF116A0F72B
:101B60008091280185FF03C0802F0E9498050E9464
:101B70001305D6CF85E30E940E02813189F68AE3F0
:101B80000E941F0286E30E941F0284E30E941F023C
:101B9000C7CFAEE1B0E0EFECFDE00C94261F8C0166
:101BA000FC018181823729F4AFDD6E96E6E00C946A
:101BB000421F833711F0863611F54DE19E012F5FEC
:101BC0003F4F7901B901C80102960E949D05E82F97
:101BD000E150FF0B298130E0C701E217F30729F03C
:101BE0008CED91E00E940605E0CF61E070E0F80125
:101BF0002181233711F060E070E0D0DDD6CF43E0E3
:101C000064E271E0813629F0873741F443E061E214
:101C100071E0C80102960E949D05C7CF10921C0179
:101C2000C4CFA0E0B0E0E7E1FEE00C94221FFC018D
:101C3000109244014181440F440F440F8381481B9B
:101C400087E0C82EC40E1092450120E030E047E046
:101C500057E070E080E097E0E92EF12C01E010E021
:101C6000DD24D394D80E8C1580F020935901309345
:101C70004401CD14A0F5653409F088C04F3F09F048
:101C800085C02F5F2093590183C0DF01A70FB11DCD
:101C900014968C9190E0052E02C0959587950A9434
:101CA000E2F78170552369F051506B34D1F4433021
:101CB00059F4332371F030E0811155C04150832F26
:101CC0001EC07F5F57E0F1CF4F3FB1F781110FC0CA
:101CD0002FC0811114C0209359011092440180E05B
:101CE0005DC04F3F51F5663469F0653479F32F5F7D
:101CF000A22FB0E0AB5BBE4F1C92832F47E0382F82
:101D00008D2DAECFA22FB0E0AB5BBE4FAC910A2EB3
:101D1000A295A0250A2EA695A695A02590E0AF5FD6
:101D2000A695A170CA2FA12CDA2D8C179D07F9F268
:101D30002093590130934401D2CF882309F4BECFB8
:101D4000663471F4A22FB0E0AB5BBE4FBC90C8010B
:101D5000042E01C0880F0A94EAF78B298C93AECF2A
:101D6000653409F0ABCFA22FB0E0AB5BBE4FC7012B
:101D7000841B910947FD9395580102C0AA0CBB1C16
:101D80008A95E2F7C5019C91892BE8CF311179CF73
:101D900081E090915901992309F4A1CFCDB7DEB725
:101DA000EAE00C943E1F10926F00E0915C018CE120
:101DB000E89FF0011124E35AFE4F10828091270121
:101DC0008D7F809327010895FC018181843110F07B
:101DD000EACF08959381662381F0DF01A80FB11D3A
:101DE00041E050E0092E01C0440F0A94EAF714962E
:101DF0002C911497242B14962C93992319F091501D
:101E00009383089597E093838F5F8183E80FF11D9B
:101E10001482089570E030E0FB01E21BF30B3B9667
:101E20007797A0F490E050E0FC01E41BF50B3B96A3
:101E3000779760F4680F791F240F351F621B730BAF
:101E4000655F7F4F81E06731710508F080E008959C
:101E5000219A29985298E9E6F0E080818160808398
:101E600082EC91E09093160180931501EDE5F1E08D
:101E7000148E10AE1092B10110920A010895809153
:101E80002801882329F00E94FC020C948A020895FC
:101E90000C94F3020895FC01818181110FC080919F
:101EA00028010E94980540E265E08091150190911B
:101EB00016010E9418050C941305089541E068E28C
:101EC00071E0CF0101960E949D05D9CF08959B0135
:101ED000411101C008954150F901E40FF11D9081B5
:101EE000890FF6CF9C0180E0611101C00895615017
:101EF000F901E60FF11D90818927F6CFAC01F09131
:101F00004401362F85E090E0311109C0292F280FB8
:101F100080E1289F90011124892F822B08957FEF63
:101F2000730FDA01A70FB11D2C91E22FE295EF702C
:101F30009E278E0FFF2311F0361719F02F7092276E
:101F4000820F372FE1CFFC0122813381A081B18143
:101F5000A20FB11D8C9190E0032E02C0959587953C
:101F60000A94E2F781709FEF930F9383311104C0BD
:101F70002F5F228397E093830895A0E0B0E0E3EC25
:101F8000FFE00C94231FD82EC92EE42E062F10E05C
:101F9000E801F12CBB24B394209731F48F2DCDB7F9
:101FA000DEB7E9E00C943F1F8D2D9C2DCCDFAE01F8
:101FB00041505109882349F0EE2049F02B2D042E81
:101FC00001C0220F0A94EAF7F22AEA01E5CF98014C
:101FD0002C1B3D0B8B2D01C0880F2A95EAF7282F6B
:101FE000F3CFA4E0B0E0E7EFFFE00C94221FFC0188
:101FF0001B8287E08C83CF0104969A838983109299
:102000005901818128E0829FC0011124438127E08A
:1020100030E0241B3109820F931F853491050CF0A9
:102020004CC080E046C0A9DFA82EE12FF0E0EB5BBA
:10203000FE4F8083082F002E02950025002E069566
:1020400006950025CE0101967EDF90E00F5F01FB33
:10205000CC24C0F8D12C8C159D0519F7CE01019622
:1020600072DF8111DECFBA241F5F109359011091E6
:10207000590140E068E0CE0101961630A0F27DDF04
:10208000082F182F012E12951025012E1695169542
:102090001025CE01019657DF90E01F5F11FBEE2463
:1020A000E0F8F12C8E159F0509F0BBCF81E0B0124E
:1020B000B8CF2496EAE00C943E1FB12CD8CFA4E010
:1020C000B0E0E5E6F0E10C94241FFC011B8287E000
:1020D0008C83CF0104969A8389838081853009F0AF
:1020E0003FC0818128E0829FC0011124438127E005
:1020F00030E0241B3109820F931F8039910581F54F
:1021000080E00FE010EF49E8F42E80935901C82ECB
:10211000D12CEE24E394E80E41E068E08F3029F5FD
:10212000CE0101962ADF080F111D90E1909359010D
:1021300080958093540141E068E0CE0101961DDF57
:1021400090E0982F8827081B190B41E068E0CE012A
:10215000019613DF282F30E081E02017310709F0C6
:1021600080E02496E8E00C94401FCE01019605DF44
:10217000080F111DF601EB5BFE4FF826F08234E2EA
:10218000F32EF80E8E2DC1CFA4E0B0E0EAECF0E122
:102190000C94291FFC011B8287E08C83CF010496DD
:1021A0009A83898381818430D1F483818130B9F429
:1021B00010E01093590141E01430B1F467E0CE0112
:1021C0000196DBDE880F8093490185E080935901F9
:1021D0009091450192959F7081E09A3009F080E0DE
:1021E0002496E3E00C94451F11110CC067E0CE016A
:1021F0000196C3DE8068E12FF0E0EB5BFE4F808349
:102200001F5FD7CF68E0CE010196B7DEF4CFFC01A7
:1022100081818330D9F483818730C1F48081883013
:10222000A9F480E09181891720F08093590181E021
:102230000895282F30E0DF01A20FB31F14969C9160
:102240002B5B3E4FD9019C938F5FECCF80E00895CC
:10225000FC01908180912701993611F0933771F438
:10226000982F9370913021F4866080932701089510
:1022700080FFFDCF809127018B7FF7CF80FDF7CFC7
:102280008460F3CFA1E0B0E0E8E4F1E10C94251F15
:102290001982809129018823A1F18091280187FF6B
:1022A00014C084E30E940E028058803408F442C0B7
:1022B000803C08F041C08055990B23E095958795A7
:1022C0002A95E1F78F590E94BB048091280183FF72
:1022D00016C082E70E94BB048091280184FF04C0DD
:1022E00080912A010E94BB0486E60E94BB04809173
:1022F000280184FF04C0809129010E94BB04109230
:10230000290180915A01882309F4B3C1429A0091AE
:102310005B012CE1029F80011124035A1E4F898129
:1023200081111FC0C80173DF882309F4B7C183E797
:10233000898317C080E0C6CF8FE0C4CF83E5F8CF94
:10234000282F30E02F5F3F4F4E2D50E024173507E8
:1023500009F070C093E09F1508F0BFC196E499831F
:102360008083E980D0902801EE2009F4FDC0D0FEE2
:10237000FBC0809127018A7F809327018D2D827079
:10238000811125C0F090590190914301EFE2F1E0F5
:10239000A5E4B1E09F1509F493C04F2D50E065E42A
:1023A00071E08FE291E00E94511FF0924301809111
:1023B0000D0190910E01A0910F01B0911001809339
:1023C0002B0190932C01A0932D01B0932E01F4E5E5
:1023D000EF1297C0D6FC1BC0809159018530B8F030
:1023E000809147018B3471F0893661F09DEA980F36
:1023F000923040F08D57823028F0809148018077EC
:10240000803729F480912701816080932701B801EA
:10241000CE0101961DDF8091E405882309F475C083
:1024200080912706811171C0809127018B7F809355
:1024300027016BC04F2D65E471E08CE048DDE812A8
:102440004CC1E3E084E5EF1508F472CF46C18091FA
:102450005901815080935901893009F044C169E0E4
:1024600085E491E03FDD90914E0189133CC185E404
:102470005FCF88E45DCF84E75BCFE0915901FF2413
:10248000FA94FE0EF09259016F2D85E491E036DD4D
:10249000909144012F2D291B330BF901EB5BFE4F6B
:1024A0009081891338C18BE443CF21919D918F5F37
:1024B000291731F0809127018D7F809327016DCFFF
:1024C000F812F3CFF092430180910D0190910E012B
:1024D000A0910F01B091100140912B0150912C015E
:1024E00060912D0170912E01841B950BA60BB70BEB
:1024F0008697A105B10508F050CF80912701816032
:10250000DCCFB801CE010196A3DE8091270182FFC6
:102510002BC08E2D0E94BB0480914401882329F09A
:1025200080915901815080935901F12CE09159011A
:10253000FE1608F4A2C080914401882351F0F0E017
:10254000EB5BFE4F80818F7040E361E090E00E9482
:1025500057058091280185FF05C084E30E940E0283
:102560000E9498050E9413058091280182FF69C08E
:1025700080E70E94BB04F801808140E262E090E0C5
:102580000E941805F801808D40E265E0F0E18F9F20
:10259000C00111240E941805F801818D40E265E018
:1025A000F0E18F9FC00111240E941805F801828D6F
:1025B00040E265E0F0E18F9FC00111240E94180500
:1025C000F801838D40E265E0F0E18F9FC0011124A6
:1025D0000E941805F801828140E263E090E00E94C9
:1025E0001805F801818140E263E090E00E9418053F
:1025F000F801838140E262E027E030E0F901E81B66
:10260000F109CF010E94180580E20E94BB0480916D
:10261000280185FF08C084E30E940E020E949805ED
:1026200080E20E94BB04F8018381873019F0818128
:102630008F5F8183F12CF8018181F81638F10E94B7
:102640001305F801108280915A01815080935A013C
:1026500090915B0181E0890F933009F480E08093D1
:102660005B0142988981843521F485E491E00E94E0
:10267000031C2196E7E00C94411FEF2DF0E0EB5B8B
:10268000FE4F80810E949805F39450CFF801EF0D22
:10269000F11D84810E949805F394CDCFC8010FDD10
:1026A00081114CCE66E4C801BCDA8823B9F0F09001
:1026B0005901FA94F09259014F2D65E471E086E0DA
:1026C00006DCEF2DF0E0EB5BFE4FE080E81238CE49
:1026D00033E086E43F1508F42BCE198265E4C80187
:1026E000A0DA8111B4CEC8017CDC8111C2CEC80150
:1026F0004BDD8111C0CEF801638DE0902A01262FB9
:102700004E2D828D87DB682FC8015EDB6BE4C8012C
:1027100088DA8111B2CEF801838191E0980F93831A
:10272000873029F4F8018181138281508183F80177
:102730008181843009F015CEF8018381843009F05D
:1027400010CE2EE14CE3618D808D64DB882309F48B
:1027500008CE2EE14E2DF801638D828D5BDB682F54
:10276000C80132DB85E0F8013496A5E4B1E00190C0
:102770000D928A95E1F785E08093590182E5D8CDE5
:102780001F920F920FB60F9211240BB60F922F9338
:102790003F934F935F936F937F938F939F93AF93E9
:1027A000BF93EF93FF9310926F008091280183FFF6
:1027B00003C08EE20E94BB0490915C018CE1989F63
:1027C000F0011124E35AFE4F8081833018F081819B
:1027D0008230A0F4E8DAFF91EF91BF91AF919F9121
:1027E0008F917F916F915F914F913F912F910F90BA
:1027F0000BBE0F900FBE0F901F90189580915A013D
:10280000833049F48091280182FFE4CF81E392E094
:102810000E940605DFCF8F5F80935A0181E0890F08
:10282000933019F080935C01D6CF10925C01D3CF26
:10283000982F8BED890F873138F486EF860F8D3115
:1028400018F481E0691708F080E008951F920F9254
:102850000FB60F9211240BB60F92EF92FF920F93C7
:102860001F932F933F934F935F936F937F938F9318
:102870009F93AF93BF93CF93DF93EF93FF93809199
:10288000E4068823E1F082E08093E406FF91EF9173
:10289000DF91CF91BF91AF919F918F917F916F9178
:1028A0005F914F913F912F911F910F91FF90EF906A
:1028B0000F900BBE0F900FBE0F901F901895809138
:1028C000E605823021F483E08093E605DFCF0091B6
:1028D00084001091850044E0169507954A95E1F72C
:1028E000C0915C012CE1C29FE0011124C35ADE4F6C
:1028F0009881943079F40E3248F20F3408F0C2C057
:102900004A9941C061E0CE015FDA109285001092D1
:10291000840004C0953029F04A9908C000932A0128
:10292000B5CF073108F4B2CF0732E8CF80912A0142
:10293000081B0093290110928500109284009830A2
:1029400061F49A81911109C091E09A83888F8A8FEE
:10295000098F0B3B28F5000F0B8F82E086BB0881A7
:10296000011120C090912A01953608F08FCF8091F7
:102970002901853608F08ACF988F898F81E08A8374
:1029800082E0888383CF80912A01081B009329016C
:10299000109285001092840060E0CE0115DA76CFA7
:1029A0000695DACF10912901023009F071C0F0903C
:1029B0002A01088DE98C212F4F2D6E2D802F2ADAC8
:1029C0004A818823F1F0602F70E09B01220F331FB2
:1029D000260F371F2F0D311D3595279535952795D6
:1029E000288FF12CC701880F991F8E0D9F1D810F15
:1029F000911D9595879595958795898F4F5F4A830A
:102A000045CF443008F442C080EA9FE090938900AB
:102A1000809388004C3050F0202F2E0D3327331F29
:102A2000253631052CF084E0888311C04A30C8F087
:102A3000202F2E0D3327331F2532310594F485E0E6
:102A4000888388EE93E09093890080938800FA8EC3
:102A50001B8F198287E08B831C8282E080936F003A
:102A600015CF8091E505882379F0612F8F2DE0DE69
:102A7000882351F0602F8E2DDBDE882329F081E042
:102A80008093E60590D902CF83E0CECF18826ACF3B
:102A9000083009F04BC081E9810F8D3110F560E0FD
:102AA000CE0192D9288D30E0C901880F991F820F7D
:102AB000931F20912A01820F911D959587959595D9
:102AC0008795888F298D30E0C901880F991F820F63
:102AD000931F810F911D9595879595958795898F62
:102AE000D5CE173E08F4D2CE61E0CE016DD92A8D45
:102AF00030E0C901880F991F820F931F20912A018E
:102B0000820F911D95958795959587958A8F2B8D29
:102B100030E0C901880F991F820F931F810F911D0B
:102B200095958795959587958B8FB0CEF0902A01D6
:102B3000212F4F2D6B8D8A8D6DD9882369F061E02F
:102B4000CE0142D92A8D30E0C901880F991F820F2A
:102B5000931F8F0D911DD6CF212F4F2D698D888DFD
:102B600059D9882369F060E0CE012ED9288D30E054
:102B7000C901880F991F820F931F8F0D911D9DCF43
:102B8000073009F483CE7ECFE0915C018CE1E89FB1
:102B9000F0011124E35AFE4F8081811107C081E0CA
:102BA000909125069F3F19F480E0089581E00895F3
:102BB00080E690E00E94EA058093E50581E690E0DA
:102BC0000E94EA058093E405882321F081E2809346
:102BD000280155C90895299A0C9444040895299808
:102BE0000C9444040895A7E0B0E0E9EFF5E10C94FB
:102BF000241F9091E101943509F072C02091D90110
:102C00003091DA012F5F3F4F3093DA012093D901E1
:102C100095E7998311E0882389F0BE016E5F7F4FAD
:102C20008091E4050E94D305BE016C5F7F4F8091C7
:102C3000E5050E94D30585E58E8316E00E94FC021F
:102C40000E94780206E080E891E0C5DF80E093E032
:102C5000C6DF01500111F7CF80E093E0BCDF80E8D0
:102C600091E0BDDF80E891E0B6DF299887E390E04E
:102C70000E94230283E00E9449042C988FE70E945F
:102C8000B4018091DF01810F0E94B401CE01019651
:102C90006C017C01F70181917F010E94B4018E2DAE
:102CA0008C198117B8F38091DF019091E001892B95
:102CB00009F055C02C9A0E9478028BED91E00E9499
:102CC000040715E18AE30E940E028F77882319F02A
:102CD000115011114BC0D3D82796E8E00C94401F37
:102CE000963459F42091D7013091D8012F5F3F4F8E
:102CF0003093D8012093D7018BCF953459F420918C
:102D0000D5013091D6012F5F3F4F3093D6012093EC
:102D1000D5017ECF9B3459F42091D3013091D40159
:102D20002F5F3F4F3093D4012093D30171CF98345C
:102D300059F42091D1013091D2012F5F3F4F309350
:102D4000D2012093D10164CF2091CF013091D001E5
:102D50002F5F3F4F3093D0012093CF0159CF8BEDA0
:102D600091E00E942C070E94B4019DCF81E00E9457
:102D70004904A8CFCF93DF93EC01898181110DC065
:102D80008091E5050E9498058091E4050E949805D0
:102D90000E941305DF91CF910895843691F48091BC
:102DA0000D0190910E01A0910F01B091100140E32F
:102DB00064E00E9457058EE20E94BB048091E20508
:102DC000E5CF833709F04BC040E361E08091D90142
:102DD0009091DA010E9457058EE20E94BB0440E305
:102DE00061E08091D7019091D8010E9457058EE251
:102DF0000E94BB0440E361E08091D5019091D6012F
:102E00000E9457058EE20E94BB0440E361E080917E
:102E1000D3019091D4010E9457058EE20E94BB0419
:102E200040E361E08091D1019091D2010E94570569
:102E30008EE20E94BB0440E361E08091CF0190915B
:102E4000D0010E9457058EE20E94BB0440E361E07E
:102E50008091CD019091CE010E94570599CF89367E
:102E6000D9F441E065EE75E0CE0102960E949D0521
:102E70006091E50580E690E00E94E50541E064EEA2
:102E800075E0CE0104960E949D056091E40581E6FF
:102E900090E00E94E5057ECF8BED91E00E94040753
:102EA00021966991611103C080E09DDE73CF8BEDA7
:102EB00091E00E940C07F5CFA1E0B0E0E1E6F7E178
:102EC000C3C78091E6058823A9F0C0900D01D0907A
:102ED0000E01E0900F01F0901001833009F06EC0F8
:102EE0008FE30E940E02182F863038F40E943F0FA5
:102EF0001092E6052196E8E0C3C786EE96E00E94B0
:102F000004072C988FEF0E94B40180E00E94B40166
:102F1000082F115080E00E94B401682F86EE96E0E1
:102F20000E940C0711501111F5CF2C9A0E943F0FEF
:102F30001092E6050537F1F641E0BE016F5F7F4F65
:102F40008CEE96E00E949D05019799F599818091FC
:102F5000E50598132EC08091EA069091EB0620912A
:102F6000F0062535E9F004979093EB068093EA0686
:102F700084E090E09093E9068093E8066AE086EEAC
:102F800096E00E940C07E091F40EF091F50E88E0B7
:102F90000995B0CF86EE96E00E942C070E94BB04F4
:102FA0008091EA069091EB06892BA1F70E94130508
:102FB000A1CF86EE96E00E9404079CCF823041F4B8
:102FC0008091E3059C2D981B983008F493CF8ECF09
:102FD000813009F08FCF87E390E00E9423020E94A6
:102FE0008A0282E08093E605C092E30583CFCCDDC0
:102FF000882361F083E08093E1058091CD01909179
:10300000CE0101969093CE018093CD018091E10590
:1030100081508093E105882321F083E08093E205CD
:10302000089581E0E0CD0895109224061092E30601
:1030300083E080932D068FEF809325060895DC01B1
:10304000EEE2F6E0808181110EC0AB2B29F586E01F
:10305000EC3DF80719F010F0ECEDF6E0CF01089523
:10306000E80FF11DEFCF96E0EC3DF90770F71097F0
:10307000B9F321819C912913F3CF228111969C9160
:103080001197291759F3E80FF11D8081882321F04A
:1030900096E0EC3DF90768F3E0E0F0E0DFCF94E084
:1030A000899FF0011124E050FA4F80818F3F91F009
:1030B00080932806818180932906828180932A0645
:1030C000838180932B0621E04CE064E088E296E067
:1030D0000C94310808958DED96E0B1DFDC01892B69
:1030E00099F0E0912D068C91E81770F4EA0FFB2F10
:1030F000F11D80818093DF0689E78093E00681815E
:103100008093E10681E0089580E008950F931F9376
:10311000CF93DF938C018091280186FF15C084E551
:103120000E94BB04E8010B5F1F4F89910E94980524
:10313000C017D107D1F78091280185FF03C08AEF1E
:103140000E9498050E941305DF91CF911F910F9166
:10315000089586E30E941F028091DF06833581F483
:103160008BE90E94490421E04CE065E08DED96E09A
:103170000E9431080E948A028DED96E0C7CF089523
:103180008BE4EFCFE6DF8091DF06893631F081E016
:103190008093DC0689E2809325060895CF9385E32A
:1031A00090E00E94EA058093270686E390E00E9463
:1031B000EA0580932606E1E1F6E0CFEFC083C28303
:1031C000C483C683C087C287C487C6872DDF109299
:1031D0002E0681E08093E705A0E0B6E0CC93E8EE10
:1031E000F5E08FEF9FEF9183808313821282158227
:1031F00014821496CC931497978386831186108635
:10320000138612861896CC9318979587848717860D
:103210001686118A108A1C96CC93938B828B158A02
:10322000148A178A168ACF910895ABE0B0E0EAE1DC
:10323000F9E105C68C016C012FEFC21AD20A45E0F4
:10324000BE016F5F7F4FC6010E949D05843008F06C
:10325000E3C099819130C9F4833071F46A8185E3C8
:1032600090E00E94E5056B8186E390E00E94E50511
:1032700095DF2B96EDE0FFC5809127060E9498050B
:10328000809126060E94980535C0923009F051C001
:10329000EE24E394813031F081E09A81913009F09D
:1032A00080E0E82E80912E06811104C088E392E030
:1032B0000E9406050EE216E015C086E00E321807E1
:1032C00019F080E20E94BB04F80181810E949805F8
:1032D000F80182810E949805E1100FC0F8018081F9
:1032E000080F111DF8018081882321F0F6E00C3DC4
:1032F0001F0718F30E941305BCCF8AE30E94BB048A
:1033000083E0F82EF8018081F81640F7F3E0FF160D
:1033100029F0F0FE03C08CE20E94BB04DD24D394AC
:10332000DF0CF801EF0DF11D80810E949805FD2C46
:10333000E9CF933049F480E090E081DE8E529640F0
:103340009EEA981B892F9ECF903149F501E116E046
:10335000E12CF12CF80180818F3FA1F0FF2019F0C2
:1033600080E20E94BB048E2D0E9498058AE30E9491
:10337000BB04F80180810E949805F80181810E94B8
:103380009805F3940E5F1F4FE394F8E0EF12E2CF3D
:1033900086E492E0F110AECF0E940605ABCF9131EA
:1033A00049F480912106909122066DE770E01BD5CB
:1033B000862F68CF923109F09DCF00E016E0E12C16
:1033C000F12CF80180818F3FE1F0FF2019F080E2BD
:1033D0000E94BB048E2D0E9498058AE30E94BB04C4
:1033E000F80180810E949805F80181810E9498056A
:1033F000F80182810E949805F80183810E94980556
:10340000F3940C5F1F4FE394F4E0EF12DACFF11066
:1034100071CF82E492E0C0CF7E0127E0E20EF11C82
:1034200044E0B701C6010E949D054F81493608F46A
:1034300096C06A855885E0E0F6E020E030E080E064
:1034400090E06C3009F06FC080E090E020E030E068
:103450006081461336C07181751333C0A2817985AE
:10346000A7132FC080509A4F4CE0FC014383C90141
:10347000880F991F820F931FFC01EE0FFF1FE85169
:10348000FA4F11821082880F991FFC01E651FA4F02
:103490001182108222E04CE064E0C7010E943108F2
:1034A0008FE08A8722E04CE064E0C7010E94310887
:1034B00082E08A8722E04CE064E0C7010E94310884
:1034C000D8CE6F3FF9F4FC01E050FA4F40835183AE
:1034D000898582838CE08383C901880F991F820FBD
:1034E000931FFC01EE0FFF1FE851FA4F118210826B
:1034F000880F991FFC01E651FA4F11821082109239
:10350000E705C8CF2F5F3F4F34960496243031052E
:1035100009F09ECFAECE019634962C5F3F4F84309B
:10352000910509F4A6CE70814713F5CF718175130B
:10353000F2CFA2817985A713EECF20503A4FF9013F
:103540006383FC01EE0FFF1FE80FF91FEE0FFF1F53
:10355000E651FA4F81E090E0918380838ACEE98141
:1035600020912706E217C0F1822F90E007964E2F98
:1035700050E08417950784F19A818091260698136C
:103580002BC09C819F3231F442E06CE0C8010E9464
:10359000A0086FCE8D819C32B9F48093100621E093
:1035A00030E03093220620932106F4E08F9FC00183
:1035B00011242091150130911601820F931F9093D1
:1035C00016018093150155CEE21BEE0FF0E0EF5E81
:1035D000F94F908381834DCE80E090E030DD7C0117
:1035E000F60101900020E9F73197EC19FD09F695F5
:1035F000E7957E2EDD24D394DE0EC7018D0D911D3F
:103600008E5296408F3A91052CF08CE392E00E9406
:1036100006052FCEF701D0825701CC24C3948C2D00
:10362000880F8150CD1480F0FCEDEF16F6E0FF0618
:1036300008F01FCE2FEFED2D721201C0E1E0EE0D6C
:10364000FF2DF11D108215CE4501FFEF8F1A9F0A45
:1036500041E0B401800F912F911D0E949D0522E051
:103660002C1548F4C0FC07C0F5018081843619F49C
:10367000818180932306C3945401D1CF0F931F936C
:10368000CF93DF939091E70591114AC0282F30E046
:10369000E901CC0FDD1FC20FD31FDE01AA0FBB1F34
:1036A000A851BA4F220F331F220F331FF901E050E8
:1036B000FA4F9281977040E850E0491B51099AEF08
:1036C000949F9001959F300D112435952795359540
:1036D00027952D933C938E01000F111F04511A4F13
:1036E000F801208131812F5F3F4F31832083CC0F40
:1036F000DD1FC651DA4F488159814115510541F40A
:103700002430310569F4CBDCF8011182108208C045
:103710004130510551F4C3DC82E090E09983888305
:10372000DF91CF911F910F91089542305105C1F75C
:10373000B6DC19821882E8CFA6E0B0E0E1EAFBE14E
:1037400085C3809126068A831B8290911006992357
:10375000D1F19330A9F587E791E090932206809309
:10376000210681E1E82E86E0F82E10E00CE2F70158
:1037700020812F3FA1F08091100690912706910F94
:103780009983882349F10C838D8321E04CE065E027
:10379000CE0101960E943108CE010196B7DC1F5F71
:1037A000F2E0EF0EF11C183011F78091100688231B
:1037B00021F08330A1F4109210062696E6E062C351
:1037C0008DE790E0CACF87708A512DE7829FC001B4
:1037D000112495958795C1CF2C838181D5CF8250B7
:1037E00080931006EACF8091DC06882351F0B1DC8B
:1037F00089E2809325068091DC0681508093DC0667
:10380000089512CC0895FF920F931F93CF93DF93E7
:10381000FC01F080D181C281138104818FE5809306
:1038200025061092DC068091270690912606892BAA
:10383000882351F18091DD068F1104C08091DE064E
:103840008D1729F0F1DBF092DD06D093DE06D091E2
:103850002406DF3FC9F0C093DF061093E006009313
:10386000E106CC2351F1D1111EC0809127068017AB
:1038700079F0043669F08DEA8C0F823010F0CD3784
:1038800049F48FEF80932406CDB7DEB7E5E0FBC2A5
:10389000C435D1F3812F807F8036B1F71067109344
:1038A000E00670DCF1CF17DC8091E306882379F025
:1038B0008335B9F08C17D1F008C00DDC8D2B88232F
:1038C00019F38091E306882311F0AEDBDDCFED2FF5
:1038D000F0E0E65BFD4FE491E335F1F0CE1711F136
:1038E000F4CFC435B9F4DE5FD093240680912D0661
:1038F0008E5F80932D06EFDB882309F44CC0809106
:10390000DF068093E306843661F680912306809378
:10391000E106C7CFC335CFCFC43509F03AC0DE5F6B
:10392000D093240680912406E82FF0E0E55BFD4F5C
:1039300014911F3F21F31093DF0697E79093E00661
:10394000909127069093E1068E5F80932406109253
:10395000E3068E30D1F48DED96E071DBDC01892B2E
:1039600099F02C9130E08CED96E0821B930BED01E9
:10397000C817D907B0F08A179B07C8F08A1B9B0BA2
:103980008A0F9B1FFC0110824FDB112309F47CCFAF
:1039900088CFC335A4CF809124068E5F8093240600
:1039A000C1CFFE01E20FF31F40814993E1CF80E0D8
:1039B00090E0E6CFFF920F931F93CF93DF93EC013C
:1039C000FC0101900020E9F731978F01081B190BCA
:1039D0008981823769F487E390E00E9423020E9484
:1039E0008A0281E08093E406CDB7DEB7E5E04BC202
:1039F000833711F5F02E2C988FE70E94B4018EEFDB
:103A0000800F0E94B401229612E01F1560F02C9ADC
:103A10000E9478028AE30E940E028F77811108C00B
:103A20000E948A02E1CF89910E94B4011F5FEDCF0D
:103A300081E00E944904EECF1092E406D5CFA0E0C9
:103A4000B4E0E4E2FDE100C28091E406882311F1D4
:103A5000813019F580910D0190910E01A0910F0117
:103A6000B09110012091E5062817A1F085E30E948E
:103A70000E02813129F48AE30E941F020E948A0209
:103A800080910D0190910E01A0910F01B091100154
:103A90008093E506DC5FE8E0F3C18FE30E940E024D
:103AA000F82E2C988FEF0E94B4018E010F5F1F4FEC
:103AB0006801E02E8C2D801B8F1588F02C9A81E0F8
:103AC00080931301802F8E198F1580F00E941305AB
:103AD0008FEF8093130181E08093E406DBCF80E0D9
:103AE0000E94B401F60181936F01E4CFF801819146
:103AF0008F010E94BB04E6CF2091FB123091FC1293
:103B00002115310521F420910301309104018091A8
:103B1000010190910201009741F48DB79EB7409149
:103B2000050150910601841B950B2817390718F4DD
:103B3000821B930B089580E090E0089582E40E9438
:103B4000BB0440E265E08091FB129091FC120E9460
:103B500018050E94130583E50E94BB0440E265E05E
:103B600080910301909104010E9418050E941305A1
:103B700085E40E94BB0440E265E0809101019091E0
:103B800002010E9418050E94130586E40E94BB04EE
:103B9000B3DF40E265E00E9418050C941305089518
:103BA0001F920F920FB60F9211240BB60F922F9304
:103BB0003F934F935F936F937F938F939F93AF93B5
:103BC000BF93EF93FF938091F00A9091F10A892BB4
:103BD000C9F08CEE9AE00E942C078093C600FF91FA
:103BE000EF91BF91AF919F918F917F916F915F9175
:103BF0004F913F912F910F900BBE0F900FBE0F90E2
:103C00001F9018958091C1008F7D8093C100E7CFF0
:103C10001F920F920FB60F9211240BB60F922F9393
:103C20003F934F935F936F937F938F939F93AF9344
:103C3000BF93EF93FF9388B194E0892788B960918F
:103C4000C6008091C0008871811104C086EE96E0A4
:103C50000E940C07FF91EF91BF91AF919F918F91BF
:103C60007F916F915F914F913F912F910F900BBE7C
:103C70000F900FBE0F901F9018959C0197FF04C0E6
:103C800082E08093C0003F773093C5002093C4004A
:103C900088E98093C10086E08093C20008958091F6
:103CA000C10085FD0BC08091F00A9091F10A892B2B
:103CB00029F08091C10080628093C1000895E09155
:103CC000F40EF091F50E81E00995E9CF08950F9378
:103CD0001F93CF93DF93EC0100E0802F90E09C01D5
:103CE000220F331F280F391FF901E457FF4F14919A
:103CF000812FF901E357FF4F25913491112389F06A
:103D0000209741F480E20E94BB04812F0E94BB04F3
:103D10000F5FE3CF98819113FBCFCE01F901099595
:103D200081E0DF91CF911F910F910895CF93C091C2
:103D30001301809313018091EA069091EB06892B81
:103D400021F4C0931301CF91089586EE96E00E946E
:103D50002C072091F60E3091F70E8A3011F08D303D
:103D600011F52115310539F32850314FF901108231
:103D700088EF9EE0ACDF811111C080E792E00E94E5
:103D8000060588EF9EE00E94FB0488E592E00E9411
:103D9000060580E090E09BDF0E9413051092F70E6D
:103DA0001092F60EC8CF2115F4E03F0720F6A901C6
:103DB0004F5F5F4F5093F70E4093F60E2850314FF0
:103DC000F9018083B8CFE4E6F0E080818B7F8083C7
:103DD0002F9A84B1806B84B9269880E58CBD8DB50F
:103DE00081608DBD0895AA1BBB1B51E107C0AA1FAE
:103DF000BB1FA617B70710F0A61BB70B881F991F8C
:103E00005A95A9F780959095BC01CD01089597FB2F
:103E1000072E16F4009406D077FD08D0E4DF07FCE7
:103E200005D03EF4909581959F4F089570956195CA
:103E30007F4F08952F923F924F925F926F927F92A1
:103E40008F929F92AF92BF92CF92DF92EF92FF92AA
:103E50000F931F93CF93DF93CDB7DEB7CA1BDB0B56
:103E60000FB6F894DEBF0FBECDBF09942A883988FB
:103E700048885F846E847D848C849B84AA84B98402
:103E8000C884DF80EE80FD800C811B81AA81B9810E
:103E9000CE0FD11D0FB6F894DEBF0FBECDBFED0122
:103EA0000895FB01DC0102C001900D924150504089
:103EB000D8F70895F999FECF92BD81BDF89A992758
:103EC00080B50895262FF999FECF1FBA92BD81BD06
:103ED00020BD0FB6F894FA9AF99A0FBE019608958C
:043EE000F894FFCF84
:0A3EE400020000FD12200032310040
:00000001FF
