:1000000031C100000C94990D49C1000047C10000A6
:1000100045C1000043C1000041C100003FC10000D4
:100020003DC100003BC1000039C1000037C10000E4
:1000300035C100000C94370D31C100002FC1000004
:10004000D5C200002BC1000029C1000027C100005B
:100050000C94C6140C94941421C100001FC100001C
:100060001DC100001BC1000019C1000017C1000024
:1000700015C1000013C1000011C100006D621442DF
:10008000170643910246090849CD16440D16470D3F
:10009000084D450852810554D011567E0657C305B8
:1000A00058E609653E06669A136C05067454037596
:1000B000D10F785802000000202F2000203D2000A2
:1000C000072E050DD391FF080500000C0021656A7D
:1000D0002D3B1322F862073F181D1CC700B0876B29
:1000E000F8B611EA2A001F41000D2E2D07D3913DCD
:1000F00004320000060021656A55E43023B9000788
:100100000018146C070090876BF85611E92A001F3D
:10011000410000030F1E2627000000030F1E253696
:10012000386700030F256740605000030F27518890
:10013000838100030F2750C8C3C2002700000000BE
:1001400000000067000000000000005000000000F8
:100150000000008100000000000000C2000000005C
:1001600000005620312E36382043534D38363800A3
:10017000202F2000203D20004C4F56460D0A004203
:100180004F56460D0A004E2F4100454F420D0A00C2
:1001900000535300547D7DFFFF4B4B7E7E00206952
:1001A0007320756E6B6E6F776E2920557365206FA7
:1001B0006E65206F66003F202800626F6F74696E65
:1001C00067207570202E2E2E20002020206275734F
:1001D000776172652E646500202A00312E36380062
:1001E00020560043534D383638002A2000080306B5
:1001F00018200306090E0005050F0F010000050277
:100200000B0D1B020B020B00101C28300101000417
:100210000714183A071407140C18000C18010100F1
:1002200003050C0F1E050C040A00101525250101FD
:100230000002040D0F26040D040D00000000000153
:10024000010002040D0F26040D040D0010102020E3
:10025000010100011016070B070B070B0F14000F0D
:100260001400010011241FBECFEFD0E1DEBFCDBFCF
:1002700011E0A0E0B1E0EEE6F7E302C005900D92D8
:10028000AC30B107D9F723E0ACE0B1E001C01D927A
:10029000AE3AB207E1F703D00C94B51BB1CE0FB65E
:1002A000F894A89580916000886180936000109216
:1002B00060000FBE80E890E00FB6F8948093610074
:1002C000909361000FBE089A109A099A119A0E94A1
:1002D0007A1601D50E948D16C1E0C7BD84E085BDA8
:1002E00082E084BD80936E00109280008AE080934B
:1002F000810084B7877F84BF88E19FE00FB6F894C0
:10030000A895809360000FBE9093600089E190E80B
:100310000E94F7140E94DB150E94C0110E94C709B9
:100320008EE495E19093320380933103C0931601DC
:100330000E94F20E80911601886180931601119837
:1003400078940E9417150E94FE0AC4D10E94DF1300
:100350000E9473100E949116F4CF8EBD0DB407FE5B
:10036000FDCF8EB50895EF92FF920F931F93CF9319
:10037000C82F8A3008F0C8E028E0C29FC0011124CD
:10038000FC01EE5EFE4F7F010BE210E0F70164918D
:10039000C8010F5F1F4F98D3FFEFEF1AFF0A033317
:1003A0001105A1F7C55061E1C53008F067E184E2AD
:1003B00090E08AD3CF911F910F91FF90EF90089515
:1003C0000F931F93CF93DF9309EE10E0C2E0D0E0CC
:1003D000F8016491CE01219677D30F5F1F4FCB3286
:1003E000D105B1F700EC10E0C7E3D0E0F80164916B
:1003F000CE01219669D30F5F1F4FC036D105B1F7EB
:1004000088E0B1DFDF91CF911F910F9108952C9873
:10041000806CA3DF80E0A1DF2C9A0895CF93C62FD4
:100420002C9880649ADF8C2F98DF2C9ACF910895B6
:100430002C9893DF2C9A08950F931F93CF93DF93FB
:10044000EC01E898249A2C9A8EE190E09DD12C98AA
:100450008EE190E099D12C9A8DE290E095D180E3E5
:10046000E7DF84E690E090D12C9880E476DF8E017F
:10047000075D1F4FCE0121962CD36FDF0C171D0790
:10048000C9F72C9A2C988EE768DFCBE2D0E0CE013A
:1004900021961FD362DFC333D105C9F72C9A83E3BA
:1004A000C7DF81E076D1DF91CF911F910F91089541
:1004B000A1E0B0E0EEE5F2E00C94661B22E02983B7
:1004C00041E0BE016F5F7F4F0196B6D289814BDF5D
:1004D00082E090E0B1DF2196E2E00C94821BCF93A2
:1004E000E89886E3A5DFCFEF85E3A2DF807780324F
:1004F00031F08AE090E048D1C150C111F5CFCF91E1
:100500000895CF93CFEF84E393DF8077803131F08C
:100510008AE090E039D1C150C111F5CFE89ACF916E
:100520000895A2E0B0E0E7E9F2E00C94641B8C01CE
:10053000FC0181818737F1F441E0BE016F5F7F4F9D
:10054000C801029679D2892BA9F041E0BE016E5F05
:100550007F4FC801049670D2892B61F06A8189812E
:100560005DDF83E365DFCDDF898161D28A815FD280
:10057000D9D118C041E0BE016E5F7F4FC80101961E
:100580005BD2892B79F08A81893981F410E0812F3F
:100590003EDF4DD2812F8770873009F4C3D11F5FB2
:1005A0001033A9F72296E4E00C94801B30DF182F5B
:1005B00083E45ED18A813BD28CEB90E0A6D1812F7F
:1005C00036D288EB90E0A1D140E262E0812F90E04A
:1005D000AED1CECF86E32CDF10920C01089582E0DD
:1005E00090E02ADF81E080930C0108951F920F9222
:1005F0000FB60F9211242F933F934F935F936F93F6
:100600007F938F939F93AF93BF93EF93FF930E943A
:10061000C816809113018F5F8D3798F48093130172
:10062000FF91EF91BF91AF919F918F917F916F91CA
:100630005F914F913F912F910F900FBE0F901F90A0
:1006400018951092130180910E0190910F01A091C5
:100650001001B09111010196A11DB11D80930E01F1
:1006600090930F01A0931001B093110180910D019F
:100670008F5F80930D018091ED018F3F89F2815052
:100680008093ED01CDCFFC018FB7F89440910E011E
:1006900050910F01609110017091110140835183BD
:1006A000628373838FBF0895A4E0B0E0EAE5F3E0CE
:1006B0000C94661BCE010196E6DF8C81B8D18B814C
:1006C000B6D18A81B4D18981B2D12CD12496E2E00D
:1006D0000C94821B80910E0190910F01A09110014A
:1006E000B091110120911501281709F44CC0809197
:1006F0000E0190910F01A0911001B0911101809312
:100700001501A8958091ED01811102C00E94B212DD
:100710008091E601882339F081508093E6018111B0
:1007200002C00E94051180910D018D3760F1109279
:100730000D018091000181FF04C082B192E0892700
:1007400082B98091180190911901843823E09207B1
:1007500028F4019690931901809318018091140157
:1007600091E0980F8B3319F0909314010895109233
:1007700014018091EB018F5F8C3318F48093EB01AF
:1007800008951092EB010895880F991F0197F1F7D2
:10079000089520ED37E0811101C00895F9013197E6
:1007A000F1F78150F8CFCF93DF93FC01838184353B
:1007B00009F055C08081DF0150962DE0281708F41C
:1007C00051C030E090E0AC014F505109241735077B
:1007D00009F045C0EF012396DC011E97AC0FBD1F49
:1007E0002C912435E1F5348111962C911197321317
:1007F00036C0358112962C911297321330C0368153
:1008000013962C91139732132AC0378114962C918A
:100810001497321324C04197C80FD91F15968C9195
:100820001597888316968C911697898319968C91C3
:1008300019978A831A968C911A978B831B968C91A1
:100840001B978C831C968C911C978D831D968C9185
:100850008E8380818A50808382818A508283DF9157
:10086000CF9108959D919B3309F4ABCF2F5FA6CF15
:10087000CF93C82F8091160184FF03C08C2F0E9454
:1008800051168091160180FF16C09091EE029E33A2
:1008900070F0903480F4CD3051F0CA3041F0909136
:1008A000E801992311F083FD20C0CF9108956C2FAA
:1008B0008CEE92E02DD28091E8018823B1F38091F3
:1008C000160183FFF2CFCA3081F3CD3071F46BE3B0
:1008D00082EA91E01DD282EA91E065DF83E08093B5
:1008E000E60182E08093E501E0CF6C2F82EA91E09F
:1008F0000FD2F4CFCF93DF93EC018991811103C024
:10090000DF91CF910895B4DFF8CFCF93DF93EC015F
:10091000FE018491811103C0DF91CF910895A8DF7A
:100920002196F6CF8DE0A4DF8AE0A2CF0895A6E05D
:10093000B0E0EDE9F4E00C94621BFC01262F1E826E
:100940008E010A5F1F4F35E08AE0E82EF12CCF01BF
:10095000B7010E94421B3150805DD8018E938D01FA
:10096000CF01FB010A97A8F4832F2550622F630F54
:10097000615067FD02C0811110C021E030E02C0FF2
:100980003D1F280F311DC901B5DF2696E6E00C9406
:100990007E1B3111DCCF80E0E8CF8150E1E0F0E058
:1009A000EC0FFD1FE80FF11D4083E2CFA5E0B0E0A2
:1009B000ECEDF4E00C94661B9C011D8254E0922F38
:1009C0009F709A3048F5905D8FEF850FE1E0F0E081
:1009D000EC0FFD1FE80FF11D9083F90194E0F695EF
:1009E000E7959A95E1F72031310598F45550650F58
:1009F000615067FD02C0811111C021E030E02C0F71
:100A00003D1F280F311DC90175DF2596E2E00C94CA
:100A1000821B582F9F01D3CF995CD6CF8150E1E044
:100A2000F0E0EC0FFD1FE80FF11D4083E1CF40E344
:100A300062E090E0BBCF0895CF93DF93EB01FB0121
:100A400030E020E0DC019D91992331F0913670F087
:100A50008FE9890F863030F0CF018C1B9D0BDF9121
:100A6000CF91089590529753292B05C080ED890F9F
:100A70008A3050F4282B332389F0219341504423AA
:100A800059F330E020E008C08FEB890F863058F32F
:100A9000903211F09A3301F7CD01D4CF2295207F07
:100AA00031E0FACFFB01982F92959F70803A40F485
:100AB000905D90838F708A3028F4805D81830895E3
:100AC000995CF7CF895CFACF0E94A71BF999FECFFA
:100AD00008950C949F1B08950F931F93CF938C013F
:100AE000CFEFC60FC801F5DFA2DFCC2331F00F5FD7
:100AF0001F4F8AE3BDDEC150F5CFCF911F910F91FB
:100B00000895A2E0B0E0E7E8F5E00C94631BFC0177
:100B100081818D3449F466E08AEF97E0DDDF02DF02
:100B20002296E5E00C947F1B803521F460E18AED8C
:100B300097E0F4CF1A82198242E0BE016F5F7F4FC7
:100B4000CF01019679DF098110E0823029F4098113
:100B50001A81102701271027C801BBDFF82E82E574
:100B600087DE40E364E0C80121DF84E791E0CDDE69
:100B70008F2D5DDF80E791E0C8DE40E262E08F2DDF
:100B800090E0D5DECCCFA6E0B0E0E9ECF5E00C9447
:100B90005E1B6C0143E0CE0101967C01BC01C601E5
:100BA00001964ADF8C01BE2CAF2C8230D0F0E98058
:100BB000F12C823029F0E980FA80FE24EF24FE2413
:100BC0001127FE01E00FF11F6081C7017DDF000FDB
:100BD000111F0F5F1F4F0C0D1D1DF801808181112A
:100BE00004C02696EAE00C947A1B41E06B2D7A2D26
:100BF000C80122DF892BA9F39FEFE91AF90A69815D
:100C0000C70162DF0E5F1F4FE8CF41E060E071E097
:100C1000019612DF8091000180FF07C0119A609158
:100C2000000184E390E050CF08951198F8CFA1E03F
:100C3000B0E0EDE1F6E00C94661B1982009731F00C
:100C400041E0BE016F5F7F4F0196F6DE89818F3FE5
:100C500009F4FFCF882321F061E083E390E034DFE3
:100C600010926E00F89488E198E00FB6F894A89579
:100C7000809360000FBE90936000FFCFCF93DF930F
:100C8000EC0161E080E090E01FDF64E481E090E04F
:100C90001BDF96DB60E080E690E016DF60E081E637
:100CA00090E012DF60E083E390E00EDF62E084E337
:100CB00090E00ADF60E080E690E006DF60E081E639
:100CC00090E002DF8981883719F080E090E0AFDFA3
:100CD000DF91CF91089580E090E0FBDE813029F430
:100CE00081E090E0F6DE843419F080E090E0C6DF29
:100CF00084E390E0EEDE80930001089582E691E0C7
:100D000004DE10CE0895FC01128210821182089533
:100D1000FC019FB7F8948281803410F09FBF089542
:100D20008F5F8283A08181E08A0F8083AE0FBF2F07
:100D3000B11D13966C93803489F71082EFCFFC01BC
:100D40009FB7F8948281811102C09FBF089581509E
:100D50008283A18121E02A0F2183AE0FBF2FB11D15
:100D600013968C91203489F71182EFCFCF93DF93C4
:100D7000FB01DA019C91882369F0EB01C90FD11DB9
:100D800041E050E0022E01C0440F0A94EAF7888146
:100D9000842B8883222331F02150822F90E0DF9131
:100DA000CF9108959F5F9C3008F49C93E90FF11D4B
:100DB000108227E0F2CF299A882381F080911B01CD
:100DC00020E1829FC0011124DFDC299880911A0163
:100DD00020E1829FC0011124D7CC089580911D018C
:100DE00020E1829FC0011124CFDC299880911C0151
:100DF000EFCFA0E0B0E0EFEFF6E00C94561B6C01F3
:100E0000462EC22F502E3E2C642E712C4E5F409FDA
:100E1000402D1124042E000C550B80911801909147
:100E200019018417950740F488E791E06EDDCDB78E
:100E3000DEB7E2E10C94721B841B950B90931901B1
:100E400080931801119AF89480910C01811101C0CE
:100E5000C6DB45DBA42CB12C01E010E0EC2EF12C1C
:100E6000C0E08C2F0C2E000C990B8A159B0524F1E9
:100E7000442011F081E09FDF212CC22D022C000CB8
:100E8000DD0BC615D705E4F087E0982ECC0DDD1DEF
:100E9000892D092C000C990BE816F9062CF1832DED
:100EA00078DC5A945110DCCF80911F01882339F1EE
:100EB00028DB78941198BBCF80E07DDFCF5FD1CF66
:100EC00097E0892E912CCC0DDD1DC801082C01C0A6
:100ED000880F0A94EAF7988189236DDF81E0881AE8
:100EE000910898F72394C9CFC801092C01C0880F35
:100EF0000A94EAF7988189235EDF9A94C9CF86E342
:100F000097DAD7CFADE0B0E0E8E8F7E00C94571BF4
:100F10007C01162F842F022F6701C60ED11C462F8D
:100F2000B7016CD2F60180831F5F1D861982C12C28
:100F3000D12C27E0CE010D9688248394912C582E35
:100F4000492E97E0A92EB12C37016C0C7D1CC116DF
:100F5000C8F0222309F440C0215089E180931C018C
:100F600080931D0185E280931A0180931B018AE022
:100F7000E82E4D856CE0CE0101963BDF2D96E1E138
:100F80000C94731BF3013080C4010A2C01C0880F3C
:100F90000A94EAF7452D542DBE016F5F7F4F8321E0
:100FA000E5DE282FF1E0AF1AB10888F6032C329461
:100FB0003024032C369436943024339431FA882725
:100FC00080F9452D542DBE016F5F7F4FCFDE282F56
:100FD000EFEFCE1ADE0AB5CF8D858F5F8D8727E0C4
:100FE000BCCFACE0B0E0E7EFF7E00C94641B162F49
:100FF000042F4BE0BE016F5F7F4F01961DDD682F10
:10100000202F412FCE0101967DDF2C96E4E00C9439
:10101000801B43E066E0E5CF0895EF920F93CF93F6
:10102000DF93CDB7DEB760970FB6F894DEBF0FBE83
:10103000CDBF40E1BE016F5F7F4F0196FDDC69814E
:101040004A810B818C8180931D018D8180931C01CD
:101050008E8180931B018F8180931A01E02EE29490
:101060008FE0E8220F70242F2F7042954F70CE0131
:101070000896BFDE60960FB6F894DEBF0FBECDBFF8
:10108000DF91CF910F91EF900895A9E1B0E0EBE4EB
:10109000F8E00C945C1B4BE0BE016F5F7F4F019644
:1010A000CBDC182F8930B1F589E180931C01809346
:1010B0001D0180931B0182E380931A0169E0CE0138
:1010C0000196A7D1E1E0F0E0EC0FFD1FE10FF11D6B
:1010D0008083198E1D868E010F5F1F4F7E018BE06E
:1010E000E80EF11C27E0CE014996CC24C394D12C04
:1010F000982E892EA12CB12C0E151F0579F42223D0
:1011000079F121508AE0E82E03E0498D6CE0CE01B0
:101110000D966FDE6996ECE00C94781BC6010A2CE4
:1011200001C0880F0A94EAF7F8019081492D582DE3
:10113000BE01635F7F4F892319DE282FFFEFAF1AAF
:10114000BF0A88E0A816B104B9F6492D582DBE0192
:10115000635F7F4F81E00ADE282F0F5F1F4FCACFEA
:10116000898D8F5F898F27E0CDCFA0E0B0E0EBEBDA
:10117000F8E00C945E1BFC01109233014181440F96
:10118000440F440F8381481B87E0C82EC40E109281
:10119000340120E030E047E057E070E080E097E085
:1011A000E92EF12C01E010E0DD24D394D80E8C154B
:1011B00080F02093400130933301CD14A0F56534C5
:1011C00009F088C04F3F09F085C02F5F2093400190
:1011D00083C0DF01A70FB11D14968C9190E0052EFE
:1011E00002C0959587950A94E2F78170552369F0BE
:1011F00051506B34D1F4433059F4332371F030E063
:10120000811155C04150832F1EC07F5F57E0F1CF41
:101210004F3FB1F781110FC02FC0811114C020932F
:1012200040011092330180E05DC04F3F51F56634BC
:1012300069F0653479F32F5FA22FB0E0AC5CBE4F4C
:101240001C92832F47E0382F8D2DAECFA22FB0E018
:10125000AC5CBE4FAC910A2EA295A0250A2EA69595
:10126000A695A02590E0AF5FA695A170CA2FA12CEE
:10127000DA2D8C179D07F9F220934001309333014A
:10128000D2CF882309F4BECF663471F4A22FB0E028
:10129000AC5CBE4FBC90C801042E01C0880F0A94FC
:1012A000EAF78B298C93AECF653409F0ABCFA22F30
:1012B000B0E0AC5CBE4FC701841B910947FD93951C
:1012C000580102C0AA0CBB1C8A95E2F7C5019C918B
:1012D000892BE8CF311179CF81E09091400199239A
:1012E00009F4A1CFCDB7DEB7EAE00C947A1B1092D7
:1012F0006F00E091430184E1E89FF0011124EC5B71
:10130000FE4F10820895FC0181818C3010F0EFCFE8
:1013100008959381662381F0DF01A80FB11D41E09C
:1013200050E0092E01C0440F0A94EAF714962C915C
:101330001497242B14962C93992319F0915093838E
:10134000089597E093838F5F8183E80FF11D1482E6
:10135000089570E030E0FB01E21BF30B3B967797BA
:10136000A0F490E050E0FC01E41BF50B3B9677976E
:1013700060F4680F791F240F351F621B730B655FC4
:101380007F4F81E06731710508F080E00895219A70
:1013900029985298E9E6F0E080818160808382ECB0
:1013A00091E09093190180931801E4E4F1E0148A2C
:1013B00010A614AE10920C01089580911F0188238D
:1013C00019F00DD99EC8089505C90895FC018181C1
:1013D00081110CC080911F012ADB40E265E0809101
:1013E000180190911901A3DA9DCA089541E06FE1B7
:1013F00071E0CF01019620DBE0CF08959B01411100
:1014000001C008954150F901E40FF11D9081890F49
:10141000F6CF9C0180E0611101C008956150F9018F
:10142000E60FF11D90818927F6CFAC01F0913301D1
:10143000362F85E090E0311109C0292F280F80E177
:10144000289F90011124892F822B08957FEF730F1D
:10145000DA01A70FB11D2C91E22FE295EF709E27C4
:101460008E0FFF2311F0361719F02F709227820F7D
:10147000372FE1CFFC0122813381A081B181A20FFE
:10148000B11D8C9190E0032E02C0959587950A942A
:10149000E2F781709FEF930F9383311104C02F5FA8
:1014A000228397E093830895A0E0B0E0EAE5FAE0B4
:1014B0000C945F1BD82EC92EE42E062F10E0E801F5
:1014C000F12CBB24B394209731F48F2DCDB7DEB728
:1014D000E9E00C947B1B8D2D9C2DCCDFAE0141509F
:1014E0005109882349F0EE2049F02B2D042E01C02C
:1014F000220F0A94EAF7F22AEA01E5CF98012C1BA1
:101500003D0B8B2D01C0880F2A95EAF7282FF3CFCA
:10151000A4E0B0E0EEE8FAE00C945E1BFC011B8254
:1015200087E08C83CF0104969A83898310924001CF
:10153000818128E0829FC0011124438127E030E0AF
:10154000241B3109820F931F853491050CF04CC088
:1015500080E046C0A9DFA82EE12FF0E0EC5CFE4F52
:101560008083082F002E02950025002E06950695F3
:101570000025CE0101967EDF90E00F5F01FBCC24B9
:10158000C0F8D12C8C159D0519F7CE01019672DF9C
:101590008111DECFBA241F5F1093400110914001EA
:1015A00040E068E0CE0101961630A0F27DDF082F02
:1015B000182F012E12951025012E1695169510251F
:1015C000CE01019657DF90E01F5F11FBEE24E0F89B
:1015D000F12C8E159F0509F0BBCF81E0B012B8CF7A
:1015E0002496EAE00C947A1BB12CD8CF80911E018E
:1015F00080FD03C0846080931E010895A1E0B0E0E7
:10160000E4E0FBE00C94611B1982809120018823A7
:1016100079F180911F0187FF13C084E30E940702C4
:101620008058803408F471C0803C08F070C0805548
:10163000990B23E0959587952A95E1F78F5918D94D
:1016400080911F0183FF12C082E712D980911F0190
:1016500084FF03C0809121010BD986E609D98091CE
:101660001F0184FF03C08091200102D91092200144
:1016700080914101882309F4E5C1119A009142014A
:1016800024E1029F800111240C5B1E4F898181118E
:1016900050C066E4C80169DD8823B9F0F0904001CC
:1016A000FA94F09240014F2D64E371E086E0A6DEEB
:1016B000EF2DF0E0EC5CFE4FE080E8122AC033E052
:1016C00086E43F1508F4AAC0198265E4C8014DDD1F
:1016D0008111A6C0C8011CDF8111B4C0F801638963
:1016E000262F40912101828934DE682FC8010BDE4C
:1016F0006BE4C8013ADD8111A7C0F801838187300E
:1017000009F4BAC08F5F838314C080E097CF8FE065
:1017100095CF282F30E02F5F3F4F4E2D50E02417FC
:10172000350709F06FC093E09F1570F696E4998332
:101730008083E980D0901F01EE2009F400C1D0FE23
:10174000FEC080911E018A7F80931E018D2D8270C4
:10175000811125C0F090400190913201E6E2F1E064
:10176000A4E3B1E09F1509F498C04F2D50E064E365
:1017700071E086E291E00E94961BF0923201809126
:101780000E0190910F01A0911001B0911101809371
:10179000220190932301A0932401B0932501F4E545
:1017A000EF129CC0D6FC1BC0809140018530B8F080
:1017B000809136018B3471F0893661F09DEA980F83
:1017C000923040F08D57823028F080913701807739
:1017D000803729F480911E01816080931E01B80139
:1017E000CE01019603DF8091E801882309F47AC0D5
:1017F0008091EF01811176C080911E018B7F8093D3
:101800001E0170C04F2D64E371E08CE0F7DDE8123B
:101810005BCFE3E084E5EF1508F056CF898389CFED
:1018200080914001815080934001893009F052CF6E
:1018300069E084E391E0EDDD90913D0189134ACFA9
:1018400085E4ECCF88E4EACFE0914001FF24FA94EC
:10185000FE0EF09240016F2D84E391E0E6DD909161
:1018600033012F2D291B330BF901EC5CFE4F9081C6
:10187000891343CF8BE4D2CFF80113828181815049
:10188000818357CF21919D918F5F291731F08091EE
:101890001E018D7F80931E0168CFF812F3CFF09266
:1018A000320180910E0190910F01A0911001B09131
:1018B0001101409122015091230160912401709106
:1018C0002501841B950BA60BB70B8697A105B105C7
:1018D00008F04BCF80911E018160DCCFB801CE01B2
:1018E000019684DE80911E0182FF29C08E2D0E9408
:1018F000380480913301882329F080914001815080
:1019000080934001F12CE0914001FE1608F49EC046
:1019100080913301882349F0F0E0EC5CFE4F808138
:101920008F7040E361E090E041D880911F0185FF16
:1019300004C084E30E9407027AD80E949204809136
:101940001F0182FF68C080E70E943804F80180818F
:1019500040E262E090E00E949704F801808940E252
:1019600065E0F0E18F9FC00111240E949704F80107
:10197000818940E265E0F0E18F9FC00111240E945F
:101980009704F801828940E265E0F0E18F9FC00191
:1019900011240E949704F801838940E265E0F0E198
:1019A0008F9FC00111240E949704F801828140E2B8
:1019B00063E090E00E949704F801818140E263E0D7
:1019C00090E00E949704F801838140E262E027E002
:1019D00030E0F901E81BF109CF010E94970480E291
:1019E0000E94380480911F0185FF07C084E30E9494
:1019F00007021DD880E20E943804F80183818730F5
:101A000019F081818F5F8183F12CF8018181F816B3
:101A100030F10E949204F8011082809141018150BE
:101A2000809341019091420181E0890F933009F444
:101A300080E08093420111988981843519F484E310
:101A400091E0A0D52196E7E00C947D1BEF2DF0E00E
:101A5000EC5CFE4F80810E941705F39454CFF8018F
:101A6000EF0DF11D84810E941705F394CECF1F92D4
:101A70000F920FB60F9211242F933F934F935F93C2
:101A80006F937F938F939F93AF93BF93EF93FF9346
:101A900010926F0080911F0183FF03C08EE20E94AD
:101AA00038049091430184E1989FF0011124EC5B8C
:101AB000FE4F8081833018F08181823090F417DCF2
:101AC000FF91EF91BF91AF919F918F917F916F9116
:101AD0005F914F913F912F910F900FBE0F901F90EC
:101AE000189580914101833049F480911F0182FF54
:101AF000E6CF8FE791E00E948504E1CF8F5F80936E
:101B0000410181E0890F933019F080934301D8CFD0
:101B100010924301D5CF982F8BED890F873138F480
:101B200086EF860F8D3118F481E0691708F080E0A8
:101B300008951F920F920FB60F921124EF92FF9209
:101B40000F931F932F933F934F935F936F937F93C5
:101B50008F939F93AF93BF93CF93DF93EF93FF93B5
:101B60008091A7028823D1F082E08093A702FF91A1
:101B7000EF91DF91CF91BF91AF919F918F917F9125
:101B80006F915F914F913F912F911F910F91FF9016
:101B9000EF900F900FBE0F901F9018958091EA0163
:101BA000823021F483E08093EA01E1CF0091840048
:101BB0001091850044E0169507954A95E1F7C0918C
:101BC000430124E1C29FE0011124CC5BDE4F9881E8
:101BD000943031F40E3258F20F3438F088DBC7CF2E
:101BE0004A991AC000932101C2CF4A9908C061E006
:101BF000CE0189DB1092850010928400F3CF809192
:101C00002101081B0093200110928500109284008E
:101C100060E0CE0178DBABCF80912101081B0093FF
:101C20002001109285001092840082E086BBF8802B
:101C300010912101F1100FC0153608F098CF809156
:101C40002001853608F093CF188B898B81E08A8339
:101C500082E088838CCF0091200132E0F3125BC0D8
:101C6000F888E988202F412F6E2D8F2D72DB4A8155
:101C70008823F1F06F2D70E09B01220F331F260F98
:101C8000371F210F311D3595279535952795288BC1
:101C9000F12CC701880F991F8E0D9F1D800F911D7C
:101CA0009595879595958795898B4F5F4A835FCFEB
:101CB000443078F180EA9FE0909389008093880017
:101CC0004C3038F02F2D2E0D3327331F253631059C
:101CD00094F48091E9018823D1F0602F812F1BDFDC
:101CE0008823A9F06F2D8E2D16DF882381F081E0E7
:101CF0008093EA0173CF84E088831A8B0B8B19825F
:101D000087E08B831C8282E080936F0030CF83E07A
:101D1000F3CF188291CF202F412F6B898A8919DB4D
:101D2000882301F161E0CE01EEDA2A8930E0C901B1
:101D3000880F991F820F931F810F911D959587958D
:101D4000959587958A8B2B8930E0C901880F991F5B
:101D5000820F931F800F911D959587959595879577
:101D60008B8B05CF202F412F69898889F2DA882350
:101D700001F160E0CE01C7DA288930E0C901880F9F
:101D8000991F820F931F810F911D959587959595AA
:101D90008795888B298930E0C901880F991F820FA8
:101DA000931F800F911D9595879595958795898BA4
:101DB000DECE37E0F31609F4DACE10CFE09143011E
:101DC00084E1E89FF0011124EC5BFE4F80818111DA
:101DD00007C081E09091ED019F3F19F480E00895E4
:101DE00081E0089580E690E00E9469058093E90112
:101DF00081E690E00E9469058093E801882321F044
:101E000081E280931F01D9CA0895299A0C94C403D2
:101E1000089529980C94C4030895A7E0B0E0E3E185
:101E2000FFE00C94601B9091A501943509F06FC000
:101E30002091A0013091A1012F5F3F4F3093A1016C
:101E40002093A00195E7998311E0882389F0BE01D2
:101E50006E5F7F4F8091E8010E945205BE016C5F6A
:101E60007F4F8091E9010E94520585E58E8316E03F
:101E70000E94EF020E946F0206E080E891E0C5DF59
:101E800080E093E0C6DF01500111F7CF80E093E0DE
:101E9000BCDF80E891E0BDDF80E891E0B6DF299803
:101EA00087E390E00E941C0283E00E94C9032C9803
:101EB0008FE70E94AD018091A401810F0E94AD01C6
:101EC000CE0101966C017C01F70181917F010E9496
:101ED000AD018E2D8C198117B8F38091A401811169
:101EE00055C02C9A0E946F0282EA91E00E948306FC
:101EF00015E18AE30E9407028F77882319F01150B9
:101F000011114BC05ADA2796E8E00C947C1B9634EA
:101F100059F420919E0130919F012F5F3F4F3093E4
:101F20009F0120939E018ECF953459F420919C01FE
:101F300030919D012F5F3F4F30939D0120939C0175
:101F400081CF9B3459F420919A0130919B012F5FEE
:101F50003F4F30939B0120939A0174CF983459F4EA
:101F600020919801309199012F5F3F4F3093990153
:101F70002093980167CF20919601309197012F5FB0
:101F80003F4F30939701209396015CCF82EA91E016
:101F90000E949F060E94AD01A0CF81E00E94C9036C
:101FA000A8CFCF93DF93EC01898181110DC080917F
:101FB000E9010E9417058091E8010E9417050E941F
:101FC0009204DF91CF910895843691F480910E01AF
:101FD00090910F01A0911001B091110140E364E0D4
:101FE0000E94D6048EE20E9438048091E601E5CF7B
:101FF000833709F04BC040E361E08091A0019091EC
:10200000A1010E94D6048EE20E94380440E361E000
:1020100080919E0190919F010E94D6048EE20E94C1
:10202000380440E361E080919C0190919D010E9401
:10203000D6048EE20E94380440E361E080919A0168
:1020400090919B010E94D6048EE20E94380440E3E6
:1020500061E080919801909199010E94D6048EE2EE
:102060000E94380440E361E08091960190919701CD
:102070000E94D6048EE20E94380440E361E0809121
:102080009401909195010E94D60499CF8936D9F494
:1020900041E069EE71E0CE0102960E941C0560915C
:1020A000E90180E690E00E94640541E068EE71E09D
:1020B000CE0104960E941C056091E80181E690E043
:1020C0000E9464057ECF82EA91E00E9483062196F9
:1020D0006991611103C080E0A0DE73CF82EA91E0D4
:1020E0000E948806F5CFA1E0B0E0E9E7F0E10C94AA
:1020F000601B8091EA018823A1F0C0900E01D0906E
:102100000F01E0901001F0901101833009F064C0DC
:102110008FE30E940702182F863038F44ED91092B0
:10212000EA012196E8E00C947C1B89EA92E00E9487
:1021300083062C988FEF0E94AD0180E00E94AD01D4
:10214000082F115080E00E94AD01682F89EA92E0CB
:102150000E94880611501111F5CF2C9A2ED9109299
:10216000EA010537F1F641E0BE016F5F7F4F8CEA6F
:1021700092E00E941C05019751F599818091E90137
:10218000981325C08091AB029091B0029535C1F0B3
:1021900084508093AB0284E08093AA026AE089EACB
:1021A00092E00E948806E0913103F091320388E0CA
:1021B0000995B7CF89EA92E00E949F060E943804F1
:1021C0008091AB028111F6CF0E949204AACF89EAD6
:1021D00092E00E948306A5CF823041F48091E7010E
:1021E0009C2D981B983008F49CCF98CF813009F033
:1021F00098CF87E390E00E941C020E94810282E057
:102200008093EA01C092E7018CCFD8DD882361F08A
:1022100083E08093E501809194019091950101966E
:1022200090939501809394018091E5018150809372
:10223000E501882321F083E08093E601089581E0A1
:10224000ECCD08951092EC011092A60283E08093E9
:10225000F0018FEF8093ED010895DC01E1EFF1E0F3
:10226000808181110EC0AB2B29F582E0EF39F80790
:1022700019F010F0EFE9F2E0CF010895E80FF11D39
:10228000EFCF92E0EF39F90770F71097B9F321819A
:102290009C912913F3CF228111969C9111972917B4
:1022A00059F3E80FF11D8081882321F092E0EF3986
:1022B000F90768F3E0E0F0E0DFCF80EA92E0CDDFFD
:1022C000DC01892B99F0E091F0018C91E81770F412
:1022D000EA0FFB2FF11D80818093A20289E7809392
:1022E000A30281818093A40281E0089580E0089593
:1022F0000F931F93CF93DF938C0180911F0186FF73
:1023000015C084E50E943804E8010B5F1F4F8991D6
:102310000E941705C017D107D1F780911F0185FFD3
:1023200003C08AEF0E9417050E949204DF91CF91AB
:102330001F910F91089586E30E9418028091A202D6
:10234000833581F48BE90E94C90321E04CE065E00C
:1023500080EA92E00E9482070E94810280EA92E075
:10236000C7CF08958BE4EFCFE6DF8091A2028936D4
:1023700031F081E080939F0289E28093ED0108951E
:1023800085E390E00E9469058093EF0186E390E089
:102390000E9469058093EE0155DF1092F1010895C6
:1023A000A6E0B0E0E6EDF1E10C945B1B7C016C0172
:1023B0008FEFC81AD80A45E0BE016F5F7F4FC60194
:1023C0000E941C05843008F07CC099819130D1F4C2
:1023D000833079F46A8185E390E00E9464056B8123
:1023E00086E390E00E946405CBDF2696EDE00C9436
:1023F000771B8091EF010E9417058091EE010E94EA
:10240000170535C0923009F051C0EE24E3948130B5
:1024100031F081E09A81913009F080E0E82E8091DE
:10242000F101811104C086E891E00E94850401EF6A
:1024300011E015C091E0013F190719F080E20E94F8
:102440003804F80181810E941705F80182810E94F9
:102450001705E1100FC0F8018081080F111DF80168
:102460008081882321F0F2E00F391F0718F30E94C2
:102470009204BBCF8AE30E94380493E0F92EF8015E
:102480008081F81640F7F3E0FF1629F0F0FE03C054
:102490008CE20E943804DD24D394DF0CF801EF0DA8
:1024A000F11D80810E941705FD2CE9CF9330F9F6CC
:1024B00080E090E0D2DE815F91409EEA981B892FF8
:1024C0009ECF80E090E0C9DE8C01F60101900020F3
:1024D000E9F73197EC19FD09F695E7957E2EDD2495
:1024E000D394DE0EC8018D0D911D815F91408F3A0E
:1024F00091052CF08AE891E00E94850476CFF801DE
:10250000D0825801CC24C3948C2D880F8150CD14D7
:1025100078F0F2E00F391F0708F067CF8FEFED2D4D
:10252000781201C0E1E0E00FF12FF11D10825DCFC4
:102530004501FFEF8F1A9F0A41E0B4018E0D9F2DD8
:10254000911D0E941C0582E08C1548F4C0FC07C058
:10255000F5018081843619F481818093EB01C39465
:102560005401D2CF80919F02882351F0E4DE89E2AA
:102570008093ED0180919F02815080939F02089586
:1025800061CE0895FF920F931F93CF93DF93FC01C9
:10259000F080D181C281138104818FE58093ED01A8
:1025A00010929F028091EF019091EE01892B882378
:1025B00051F18091A0028F1104C08091A1028D176A
:1025C00029F040DEF092A002D093A102D091EC015C
:1025D000DF3FC9F0C093A2021093A3020093A402AC
:1025E000CC2359F1D1111FC08091EF01801781F0E8
:1025F000043671F08DEA8C0F823010F0CD3751F433
:102600008FEF8093EC01CDB7DEB7E5E00C947F1B34
:10261000C435C9F3812F807F8036A9F710671093E6
:10262000A302A2DEF0CF49DE8091A602882379F0D2
:102630008335B9F08C17D1F008C03FDE8D2B88238D
:1026400011F38091A602882311F0FCDDDCCFED2F81
:10265000F0E0E057FE4FE491E335F1F0CE1711F1D1
:10266000F4CFC435B9F4DE5FD093EC018091F00172
:102670008E5F8093F00121DE882309F44CC08091A5
:10268000A2028093A602843661F68091EB018093CA
:10269000A402C7CFC335CFCFC43509F03AC0DE5F3F
:1026A000D093EC018091EC01E82FF0E0EF56FE4F63
:1026B00014911F3F21F31093A20297E79093A30276
:1026C0009091EF019093A4028E5F8093EC011092A1
:1026D000A6028E30D1F480EA92E0BFDDDC01892BC6
:1026E00099F02C9130E08FE992E0821B930BED0181
:1026F000C817D907B0F08A179B07C8F08A1B9B0B35
:102700008A0F9B1FFC0110829DDD112309F47BCFF2
:1027100088CFC335A4CF8091EC018E5F8093EC010C
:10272000C1CFFE01E20FF31F40814993E1CF80E06A
:1027300090E0E6CFFF920F931F93CF93DF93EC01CE
:10274000FC0101900020E9F731978F01081B190B5C
:102750008981823769F487E390E00E941C020E941D
:10276000810281E08093A702CDB7DEB7E5E0C7C75D
:10277000833711F5F02E2C988FE70E94AD018EEF74
:10278000800F0E94AD01229612E01F1560F02C9A76
:102790000E946F028AE30E9407028F77811108C0AE
:1027A0000E948102E1CF89910E94AD011F5FEDCFB0
:1027B00081E00E94C903EECF1092A702D5CFA0E41A
:1027C000B0E0E4EEF3E17CC78091A702882311F129
:1027D000813021F580910E0190910F01A09110019F
:1027E000B09111012091A8022817A1F085E30E9461
:1027F0000702813129F48AE30E9418020E948102B3
:1028000080910E0190910F01A0911001B0911101E2
:102810008093A802C05CDF4FE8E06EC78FE30E94A0
:102820000702F82E8FE38F15D0F02C988FEF0E94BF
:10283000AD018E010F5F1F4F6801E02E8C2D801BB4
:102840008F1588F02C9A81E080931601802F8E19C5
:102850008F1580F00E9492048FEF8093160181E023
:102860008093A702D7CF80E00E94AD01F60181934B
:102870006F01E4CFF80181918F010E943804E6CF07
:102880002091AC033091AD032115310521F4209145
:102890000701309108018091050190910601009790
:1028A00041F48DB79EB74091090150910A01841BF4
:1028B000950B2817390718F4821B930B089580E0B5
:1028C00090E0089582E40E94380440E265E080913F
:1028D000AC039091AD030E9497040E94920483E59B
:1028E0000E94380440E265E0809107019091080160
:1028F0000E9497040E94920485E40E94380440E2FA
:1029000065E080910501909106010E9497040E9464
:10291000920486E40E943804B3DF40E265E00E943E
:1029200097040C94920408951F920F920FB60F9281
:1029300011242F933F934F935F936F937F938F93C4
:102940009F93AF93BF93EF93FF938091EE02882301
:10295000B9F08CEE92E00E949F068093C600FF9132
:10296000EF91BF91AF919F918F917F916F915F9107
:102970004F913F912F910F900FBE0F901F90189580
:102980008091C1008F7D8093C100E9CF1F920F928B
:102990000FB60F9211242F933F934F935F936F9332
:1029A0007F938F939F93AF93BF93EF93FF9382B1E6
:1029B00092E0892782B96091C6008091C000887139
:1029C000811104C089EA92E00E948806FF91EF918C
:1029D000BF91AF919F918F917F916F915F914F9137
:1029E0003F912F910F900FBE0F901F9018959C0153
:1029F00097FF04C082E08093C0003F773093C5000A
:102A00002093C40088E98093C10086E08093C200CF
:102A100008958091C10085FD09C08091EE02882350
:102A200029F08091C10080628093C1000895E091F7
:102A30003103F091320381E00995EBCF08950F93B4
:102A40001F93CF93DF93EC0100E0802F90E09C0177
:102A5000220F331F280F391FF901E458FF4F14913B
:102A6000812FF901E358FF4F25913491112389F00B
:102A7000209741F480E20E943804812F0E9438049C
:102A80000F5FE3CF98819113FBCFCE01F901099538
:102A900081E0DF91CF911F910F910895CF93C09165
:102AA0001601809316018091AB02811104C0C0937E
:102AB0001601CF91089589EA92E00E949F06209125
:102AC0003303309134038A3011F08D3011F5211524
:102AD000310549F32B5C3C4FF901108285E393E00B
:102AE000AEDF811111C086EB91E00E94850485E381
:102AF00093E00E947A048EE991E00E94850480E0D0
:102B000090E09DDF0E9492041092340310923303F0
:102B1000CACF2034310538F6A9014F5F5F4F50937B
:102B20003403409333032B5C3C4FF9018083BBCFCC
:102B30001498EDD0149A82E00C94C9030895149A65
:102B4000E6D0149882E390E00C94C4030895CF93E8
:102B5000DF931598EC018991811104C0159ADF91DA
:102B6000CF910895ECDFF7CFCF93DF93EC01159869
:102B7000FE018491811104C0159ADF91CF910895CF
:102B8000DEDF2196F5CF1598D3DF159A089581E001
:102B9000FACF08958058F7CF0895CF93C82F15988E
:102BA00089E3C6DF8C2F8F708067C2DF88E3C0DFC8
:102BB000159ACF9108950C9A149A0D9A159889E355
:102BC000B7DF85E1B5DF85E5B3DF8EE6B1DF81E70D
:102BD000AFDF88E3ADDF8FE0ABDF86E0A9DF159ADA
:102BE000D6DF8AEE91E0C0DF83EE91E0BDDF80EEBC
:102BF00091E0BADF8BED91E0B7DF88ED91E0B4DFD3
:102C000080E9C1DF8AEC91E0AFDF80EABCDF8AEBCC
:102C100091E0AADF109276030895A1E0B0E0E2E12E
:102C2000F6E152C58C01FC018181833611F138F443
:102C3000833409F1823651F12196E4E061C584378D
:102C4000D9F742E0BE016F5F7F4FC80102960E9434
:102C50001C058981803308F08FE289839BDFE9813D
:102C6000C8018E1B9109FC0114AAC80104966FDFEC
:102C7000E3CF8DDFE1CF42E0BE016F5F7F4FC80140
:102C800002960E941C0589817EDFD6CF42E0BE01FC
:102C90006F5F7F4FC80102960E941C0589817DDF0E
:102CA000CBCFCF93C82F8A3089F4159880917603C3
:102CB00091E0980F90937603803128F0159A109246
:102CC0007603CF91089580E23ADFF0CF8D30C9F3DB
:102CD000809176038031A8F7811102C080EA53DF2A
:102CE00015988C2F2CDF809176038F5F809376036D
:102CF000159AE7CFE4E6F0E080818B7F80832F9AFE
:102D000084B1806B84B9269881E58CBD08958EBD11
:102D10000DB407FEFDCF8EB5089509D1109277034B
:102D20000895A6E0B0E0E6E9F6E1D0C4809177032B
:102D3000882359F1CE010196FDD0882331F180918D
:102D40007703823019F48E8180FD1FC0119A89E4C7
:102D50000E943804898140E362E090E00E94D6043A
:102D600040E364E08A819B810E94D60440E364E0F2
:102D70008C819D810E94D6048E8140E362E090E0C8
:102D80000E94D6040E94920411982696E2E0BAC4EA
:102D900080917703811152C10895FC0181818237AE
:102DA000B1F48281882351F08381882339F042E095
:102DB00067E773E0CF0102960E941C0580917703BC
:102DC00040E362E090E00E94D6040C9492040895DF
:102DD0006091A1039091A903E0919803961748F19F
:102DE0002091A203921728F520918D0330918E0334
:102DF000482F50E07091A703772391F0A92FA61BCD
:102E0000BB0B02C0440F551FAA95E2F7422B532B70
:102E100050938E0340938D03E53009F04EC057C0A8
:102E2000220F331F242B352B30938E0320938D03D9
:102E3000F3CF6091A303961730F12091A40392176A
:102E400010F5482F50E020918B0330918C03709146
:102E5000A703772379F0A92FA61BBB0B02C0440F51
:102E6000551FAA95E2F7422B532B50938C034093A6
:102E70008B03D2CF220F331F242B352B30938C039F
:102E800020938B03C9CFE330E1F42FEE290F2430D8
:102E9000A0F4482F50E0692F6151770B02C0440F16
:102EA000551F6A95E2F72091890330918A03242BFC
:102EB000352B30938A03209389039F5F9093A90356
:102EC0000895E530D1F7943120F09831B8F090337F
:102ED000A0F7E92FE695E695E695F0E0ED57FC4F73
:102EE0004081592F577021E030E001C0220F5A95E0
:102EF000EAF78823C1F0422B4083DFCF282F30E050
:102F0000A92FA850BB0B02C0220F331FAA95E2F7CE
:102F100040918B0350918C03242B352B30938C03E1
:102F200020938B03D6CF209524232083C6CF1298DD
:102F30000A980895FC0180919703882309F450C0F2
:102F400080919603823009F44CC0833051F5209172
:102F50009203309193038091920390919303232FD6
:102F600033278095909599272817390709F064C071
:102F70008091920390919303992790939303809368
:102F8000920380919003909191032091920330914C
:102F90009303982F8827822B932B909393038093EE
:102FA000920380919603808380919403909195037E
:102FB000928381838091920390919303948383837E
:102FC00080918F0385831092930310929203109245
:102FD00095031092940310928F0381E0109297034F
:102FE00008952091920330919303809192039091E0
:102FF0009303232F33278095909599272817390716
:1030000031F480919203909193039927C6CF8091D8
:103010009403909195038E3E974871F48BE08093D2
:1030200096038091920390919303892F992790930F
:10303000950380939403E5CF80E0D0CF80B1909149
:10304000970391110CC0847090918203911132C04A
:1030500090918103811106C09F5F909381038091BD
:10306000970308959923C9F081E0809382038093A8
:10307000800310927F0310928C0310928B031092A6
:103080008E0310928D038FEF8093A90381E090E06F
:1030900090937E0380937D03E2CF80917B03909198
:1030A0007C038F3F9807D9F2019690937C0380931D
:1030B0007B03D5CF90918003992309F4B9C088236D
:1030C000B1F080917D0390917E03019690937E03F1
:1030D00080937D038330914008F4CBC0109282032B
:1030E0001092810310927E0310927D03B8CF8091DD
:1030F00081039FED980F9A3070F480917D03909139
:103100007E03079763E572E00597A0F010928203B3
:1031100060E070E00FC09DEA980F9437C8F5809189
:103120007D0390917E038932910560F561E372E041
:10313000449760F380918203882329F041E150E0B5
:1031400088E993E0EAD21092A9038091980388302D
:1031500051F480917D0390917E034897099708F080
:1031600065C081E035DE81E08093810310927E03AB
:1031700010927D031092800380918203882309F4CA
:103180006ECF77C062E472E08436910598F2BECFCC
:1031900092EC980F9131C8F420917D0330917E0319
:1031A0002E33310538F060E272E02F34310508F437
:1031B000C1CFACCF8B52883108F0A8CF2B3231056C
:1031C00008F4A4CF6FE072E0B5CF95ED980F983179
:1031D000C0F420917D0330917E032B32310520F025
:1031E0002334310578F392CF8F528D3008F08ECF93
:1031F000275131096EEF71E02830310508F49ACF7C
:1032000085CF8350843008F081CF80917D039091E9
:103210007E039C01285131092930310520F009979E
:10322000069708F073CF6DEE71E084CF80E09ACFFF
:1032300090917F03992309F42EC1882309F4EBC0F0
:103240009091A5038091A903981362C02091A603D1
:10325000213009F05DC08091810390919D03891711
:1032600008F43CCF90919E03981708F437CF109242
:10327000A6033091A9038091A5038313F0CE80911A
:10328000A6038111ECCE409103015091040160919D
:103290008B0370918C03809198034617570709F4AC
:1032A0000CC110927A03982F813009F419C185302E
:1032B00009F0E4C181E080939703809183039091AA
:1032C000840360918503282F2F7082958F70822749
:1032D000292F2F70822792959F708927962F9F7094
:1032E0008913C6C120918D0330918E03809186038E
:1032F0008627909187038927909188039813BBC1F3
:1033000085E08093960330939503209394036AC1DC
:1033100020917D0330917E032F5F3F4F30937E03DA
:1033200020937D0340919803413009F05FC02C3019
:10333000310508F49ECF8B3008F458C091E0980F07
:103340009093A503682F6B50770B562F442720913D
:103350008D0330918E03242B352B30938E032093D5
:103360008D039091A303890F8F5F8093A4038AE05C
:1033700090E090937E0380937D03809181039091F0
:1033800099038917A8F090919A03981788F04091B3
:103390007D0350917E0320919B0330E04217530739
:1033A00038F020919C0330E02417350708F067C0FF
:1033B00090919D03891708F467C090919E03981718
:1033C00008F462C020917D0330917E0380919F03B9
:1033D00090E02817390708F457C08091A00390E0C7
:1033E0008217930708F450C080E04AC02330314070
:1033F00008F43FCF482F50E0692F6150770B4617F4
:10340000570709F06BCE9091A603911167CE8F5F9D
:103410008093A9032ECF80918103909198039330DC
:1034200009F0ABCF2091A903203109F0A6CF855038
:10343000883050F580917D0390917E03AC014E530E
:1034400051094131510568F410927F0310928A03AB
:103450001092890381E18093A90381E08093810325
:103460008BCE3AE0309398032093A30320E220937D
:10347000A4032093A5030F97409708F0B5CF81E0F0
:10348000A7DC10927F03E9CF1092820310927E0393
:1034900010927D03E2CF811106C0809181038F5F7E
:1034A00080938103E6CE81E080937F0381E090E00A
:1034B00090937E0380937D03DCCEE0917B03F091BB
:1034C0007C03E23EF44008F0ECCEE0917A0321E088
:1034D0002E0F20937A03982F813089F4E230A0F0E8
:1034E00081E08093970391E09093960380918D0300
:1034F00090918E03909395038093940373C08530CD
:10350000E1F5213009F0D6CE10927C0310927B03B6
:1035100080919703882351F120918B0330918C0384
:1035200060918D0370918E034217530799F4809137
:103530000101909102018617970761F480917B0346
:1035400090917C038832994028F480918F038160A8
:1035500080938F0370930201609301013093040103
:103560002093030110927C0310927B03109282033C
:1035700010928C0310928B03B3CD8A3009F443C0B0
:1035800021E020939703883009F444C0823009F089
:10359000ABCF311166C020917B0330917C03233582
:1035A000374008F05CC02091010130910201309356
:1035B0008E0320938D0350938C0340938B03909143
:1035C0008F03916090938F0310927C0310927B0382
:1035D00080939603309395032093940330930201D4
:1035E0002093010180918B0390918C03909393031E
:1035F000809392038091890390918A039093910321
:103600008093900385CF20FD7FCF81E08093970347
:103610009AE06ACFE0917803F09179039B012095BD
:10362000309533702E173F0799F430938C03209315
:103630008B038093960380918D0390918E039093DA
:10364000950380939403309393032093920360CF68
:1036500010929703709379036093780359CF109277
:1036600097038093960320918D0330918E03B2CF00
:103670001092970337CE1092970342CE8A3009F00A
:103680007FCFC3CFAA1BBB1B51E107C0AA1FBB1F23
:10369000A617B70710F0A61BB70B881F991F5A95DE
:1036A000A9F780959095BC01CD0108952F923F9286
:1036B0004F925F926F927F928F929F92AF92BF9242
:1036C000CF92DF92EF92FF920F931F93CF93DF93EE
:1036D000CDB7DEB7CA1BDB0B0FB6F894DEBF0FBE4B
:1036E000CDBF09942A88398848885F846E847D8498
:1036F0008C849B84AA84B984C884DF80EE80FD809A
:103700000C811B81AA81B981CE0FD11D0FB6F8940F
:10371000DEBF0FBECDBFED010895FB01DC0102C08D
:1037200005900D9241505040D8F70895FB01DC01FF
:1037300002C001900D9241505040D8F70895F99978
:10374000FECF92BD81BDF89A992780B50895262FA6
:10375000F999FECF1FBA92BD81BD20BD0FB6F89476
:0E376000FA9AF99A0FBE01960895F894FFCFD9
:0C376E0002FFFFFFFF0000AE0320000080
:00000001FF
