:1000000064C100000C9491127CC100007AC1000010
:1000100078C1000076C1000074C1000072C1000008
:1000200070C100006EC100006CC100006AC1000018
:1000300068C100000C942F1264C1000062C100006E
:100040004EC300005EC100005CC100005AC1000048
:100050000C94761C0C94421C54C1000052C1000048
:1000600050C100004EC100004CC100004AC1000058
:1000700048C1000046C1000044C100006D101C4290
:10008000060843B902460D0A69F63A41690C471160
:100090000A4D490A590C3D52BE06547E17566F0848
:1000A00057360758BC0D4F6D39652D0866491B6CD6
:1000B000F40774E903752115788002456E1F71609D
:1000C00020000000202F2000203D2000072E050DDD
:1000D000D391FF080500000C0021656A2D3B132217
:1000E000F862073F181D1CC700B0876BF8B611EA0D
:1000F0002A001F41000D2E2D07D3913D0432000030
:10010000060021656A55E43023B900070018146C15
:10011000070090876BF85611E92A001F4100000381
:100120000F1E2627000000030F1E25363867000328
:100130000F256740605000030F275188838100031B
:100140000F2750C8C3C2002700000000000000674E
:1001500000000000000000500000000000000081CE
:1001600000000000000000C2000000000000504C31
:100170004C310D0A00504C4C300D0A005620312EE7
:1001800036382043554E4F38363800202F20002077
:100190003D20004C4F56460D0A004552523A43430B
:1001A000410D0A000B08105B11F81547191D1A1CA8
:1001B0001BC71C001DB221B623EA0007022E030D47
:1001C00004E905CA070C0B060D210E650F6A10C85D
:1001D0001193120315341733181819161B4321569F
:1001E0002500261129592C812D353EC3424F5646F4
:1001F0000D0A004E2F4100454F420D0A004E2F417F
:10020000004E2F410000535300547D7DFFFF4B4BA8
:100210007E7E0020697320756E6B6E6F776E29206D
:10022000557365206F6E65206F66003F2028004182
:100230003435303535004134353035350030300017
:10024000302E302E302E30003233323300313932FE
:100250002E3136382E302E31003235352E323535AE
:100260002E3235352E30003139322E3136382E309F
:100270002E3234340031000D2E2D07D3913D04323F
:100280000000060010B07155E43023B900070018D3
:10029000146C070090876BF85611E92A001F410083
:1002A0000D2E2D07D3913D04320000060010ABA5A2
:1002B000550A3023B900070018146C070090876BAB
:1002C000F85611E92A001F41000011241FBECFEF8C
:1002D000D0E1DEBFCDBF12E0A0E0B1E0E2EAF7E896
:1002E00002C005900D92AA34B107D9F721E1AAE422
:1002F000B2E001C01D92A731B207E1F703D00C9420
:10030000C7437ECE0FB6F894A895809160008861AF
:1003100080936000109260000FBE549A5C9A209AFD
:10032000289A0E946A32C8D60E9480320E94AC3657
:100330000E94033689EF87BD84E085BD82E084BDDD
:1003400080936E00109280008AE08093810080E8A4
:1003500090E00FB6F89480936100909361000FBE17
:1003600089E190E80E94A71C0E9437170E94990D0E
:1003700080E09DE190932B0A80932A0A0E943F140B
:1003800089E0809353020E94FF1E289878940E946F
:10039000C91C0E94B10F42D20E948F1B0E94C3153C
:1003A0000E94040B0E944B1EF2CF8EBD0DB407FEBF
:1003B000FDCF8EB50895EF92FF920F931F93CF93C9
:1003C000C82F8A3008F0C8E028E0C29FC00111247D
:1003D000FC01E25EFE4F7F010BE210E0F701649149
:1003E000C8010F5F1F4F93D4FFEFEF1AFF0A0333CB
:1003F0001105A1F7C55061E1C53008F067E184E25D
:1004000090E085D4CF911F910F91FF90EF900895C8
:100410000F931F93CF93DF9305EF10E0C2E0D0E07E
:10042000F8016491CE01219672D40F5F1F4FCB3239
:10043000D105B1F70CEC10E0C7E3D0E0F80164910E
:10044000CE01219664D40F5F1F4FC036D105B1F79E
:1004500088E0B1DFDF91CF911F910F9108952C9823
:10046000806CA3DF80E0A1DF2C9A0895CF93C62F84
:100470002C9880649ADF8C2F98DF2C9ACF91089566
:100480002C9893DF2C9A08950F931F93CF93DF93AB
:10049000EC01E898249A2C9A8EE190E041D22C98B5
:1004A0008EE190E03DD22C9A8DE290E039D280E34B
:1004B000E7DF84E690E034D22C9880E476DF8E018A
:1004C000075D1F4FCE01219627D46FDF0C171D0744
:1004D000C9F72C9A2C988EE768DFCBE2D0E0CE01EA
:1004E00021961AD462DFC333D105C9F72C9A83E36E
:1004F000C7DF81E01AD2DF91CF911F910F9108954C
:10050000A1E0B0E0E6E8F2E00C94224222E0298388
:1005100041E0BE016F5F7F4F019662D389814BDF5F
:1005200082E090E0B1DF2196E2E00C943E42CF936E
:10053000E89886E3A5DFCFEF85E3A2DF80778032FE
:1005400031F08AE090E0ECD1C150C111F5CFCF91EC
:100550000895CF93CFEF84E393DF8077803131F03C
:100560008AE090E0DDD1C150C111F5CFE89ACF917A
:100570000895A2E0B0E0EFEBF2E00C9420428C0191
:10058000FC0181818737F1F441E0BE016F5F7F4F4D
:10059000C801029625D3892BA9F041E0BE016E5F08
:1005A0007F4FC80104961CD3892B61F06A81898131
:1005B0005DDF83E365DFCDDF89810DD38A810BD3D6
:1005C00085D218C041E0BE016E5F7F4FC801019621
:1005D00007D3892B79F08A81893981F410E0812F42
:1005E0003EDFF9D2812F8770873009F46FD21F5F09
:1005F0001033A9F72296E4E00C943C4230DF182F28
:1006000083E405D28A81E7D288EC90E052D2812F30
:10061000E2D284EC90E04DD240E262E0812F90E0A3
:100620005AD2CECF86E32CDF10924A0210925B02A0
:10063000089582E090E028DF81E080934A021092E2
:100640005B0208950F931F93CF93DF93D82FC0E0E1
:10065000062F10E085E303DF8D1759F0C80160D144
:10066000C150C111F7CF81E0DF91CF911F910F9160
:10067000089580E0F9CF85E2F2DE8F3311F080E05B
:10068000089586E3FDDE80914B02811112C085E75B
:1006900091E00FD283E3F4DE64E081E0D3DF85E212
:1006A000DEDE8F3361F780914B02882329F081E0F1
:1006B00008958DE3E5DEEECF8EE691E0FAD1F7CF37
:1006C00085E3CDDE8D3051F485E2C9DE8F3331F420
:1006D000D2DF84E3D5DE80778031D9F708951F9289
:1006E0001FB61F9211248F939F93AF93BF93EF93E5
:1006F000FF9380914D0290914E02A0914F02B091D4
:1007000050020196A11DB11D80934D0290934E029F
:10071000A0934F02B093500280914C028F5F809360
:100720004C028091A1108F5F8093A1108D37A8F0AB
:1007300080910D0190910E01A0910F01B0911001D7
:100740000196A11DB11D80930D0190930E01A09300
:100750000F01B09310011092A110EEE1F5E080813D
:100760009181181619061CF401979183808336969F
:1007700085E0E633F80799F7809157059091580581
:10078000009729F001979093580580935705809121
:100790005B058F3F19F0815080935B05FF91EF91CE
:1007A000BF91AF919F918F911F901FBE1F90189581
:1007B000FC018FB7F89440914D0250914E02609128
:1007C0004F027091500240835183628373838FBFC5
:1007D0000895A4E0B0E0EFEEF3E00C942242CE01E5
:1007E0000196E6DF8C81F7D18B81F5D18A81F3D137
:1007F0008981F1D16BD12496E2E00C943E42A4E0D1
:10080000B0E0E5E0F4E00C942242CE010196D0DFA6
:1008100089819A812496E2E00C943E420F931F93C3
:10082000CF9380914D0290914E02A0914F02B091D2
:10083000500220915202281709F461C080914D02A4
:1008400090914E02A0914F02B091500280935202BB
:10085000A8950EE115E0C0E0F80180819181892B17
:1008600019F48C2F0E94AA19CF5F0A5F1F4FC43062
:1008700099F78091570590915805892B11F40E94A2
:10088000081A80915B05811102C00E94611A809153
:100890001805882339F0815080931805811102C012
:1008A0000E9460160E94F63680914C028D3738F116
:1008B00010924C028091000181FF04C085B191E04B
:1008C000892785B980915502909156028438F3E0CA
:1008D0009F0728F4019690935602809355020E9438
:1008E0002F3380910D01811102C00E94FF31809150
:1008F000510291E0980F8B3331F090935102CF91D8
:100900001F910F91089510925102809159058F5FA8
:100910008C3318F480935905F2CF10925905EFCF1C
:10092000880F991F0197F1F7089520ED37E08111A5
:1009300001C00895F9013197F1F78150F8CFCF93B5
:10094000DF93DC0116968C911697843509F053C01D
:10095000ED0126968D919C9111974DE0242F30E06A
:100960002817390708F44AC0AC014F505109241721
:10097000350709F040C0FC013E97EC0FFD1F2081B8
:100980002435C9F517963C9117972181321333C04E
:1009900018963C911897228132132DC019963C91DC
:1009A00019972381321327C01A963C911A972481F4
:1009B000321321C04197C80FD91F85818883868152
:1009C000898381858A8382858B8383858C838485D3
:1009D0008D8385858E838D919C9111970A971196B1
:1009E0009C938E9314968D919C9115970A971596CA
:1009F0009C938E931497DF91CF910895FE01E20F9F
:100A0000F31F50815B3309F4AFCF4F5FA7CFCF9374
:100A1000C82F8091530282FF03C08C2F0E94532065
:100A20008091530280FF1BC0209126083091270837
:100A30002E3F91E0390778F02115324080F4CD3017
:100A400051F0CA3041F090911A05992311F083FDBD
:100A500020C0CF9108956C2F82E298E04DD3809111
:100A60001A058823B1F38091530283FFF2CFCA3075
:100A700081F3CD3071F46BE381E193E03DD381E10B
:100A800093E05DDF83E08093180582E08093170593
:100A9000E0CF6C2F81E193E02FD3F4CFCF93DF939E
:100AA000EC018991811103C0DF91CF910895AFDFEF
:100AB000F8CFCF93DF93EC01FE018491811103C045
:100AC000DF91CF910895A3DF2196F6CF8DE09FDFD0
:100AD0008AE09DCF0895A6E0B0E0E1E7F5E00C9450
:100AE0001E42FC01262F1E828E010A5F1F4F35E039
:100AF0008AE0E82EF12CCF01B7010E94A3413150CA
:100B0000805DD8018E938D01CF01FB010A97A8F477
:100B1000832F2550622F630F615067FD02C0811142
:100B200010C021E030E02C0F3D1F280F311DC901FE
:100B3000B5DF2696E6E00C943A423111DCCF80E036
:100B4000E8CF8150E1E0F0E0EC0FFD1FE80FF11D70
:100B50004083E2CFA5E0B0E0E0EBF5E00C94224268
:100B60009C011D8254E0922F9F709A3048F5905D51
:100B70008FEF850FE1E0F0E0EC0FFD1FE80FF11DB6
:100B80009083F90194E0F695E7959A95E1F7203185
:100B9000310598F45550650F615067FD02C0811111
:100BA00011C021E030E02C0F3D1F280F311DC9017D
:100BB00075DF2596E2E00C943E42582F9F01D3CF7B
:100BC000995CD6CF8150E1E0F0E0EC0FFD1FE80F1B
:100BD000F11D4083E1CF40E362E090E0BBCF089598
:100BE000CF93DF93EB01FB0130E020E0DC019D912E
:100BF000992331F0913670F08FE9890F863030F00B
:100C0000CF018C1B9D0BDF91CF910895905297538C
:100C1000292B05C080ED890F8A3050F4282B33230F
:100C200089F021934150442359F330E020E008C07B
:100C30008FEB890F863058F3903211F09A3301F719
:100C4000CD01D4CF2295207F31E0FACFCF93DF932F
:100C5000C82F592FDB01CB0130E020E06AE0EC2FF8
:100C6000F52F519151110CC0332329F0442319F071
:100C7000FC012193CF018A1B9B0BDF91CF9108953B
:100C800030ED350F3A3040F4269F300D1124232FDC
:100C900031E0CE2F5F2FE3CF503211F05E3259F7A3
:100CA00030E04423B1F3EC012993CE01415030E010
:100CB00020E0EFCFDB0120E030E04AE0FC01819151
:100CC000811103C02D933C93089590ED980F9A30B5
:100CD00050F4429FB001439F700D11248053990B33
:100CE0009C01260F371FCF01E9CFFB01982F92956A
:100CF0009F70803A40F4905D90838F708A3028F422
:100D0000805D81830895995CF7CF895CFACF0E945A
:100D1000A943F999FECF08950C949C4308950F932D
:100D20001F93CF93DF93EC018C010D5F1F4FCE011A
:100D3000F3DF40E261E090E0CEDE0C171D0721F00A
:100D400021968EE264DEF3CFDF91CF911F910F9158
:100D500008950F931F93CF938C01CFEFC60FC80157
:100D6000DBDF39DFCC2331F00F5F1F4F8AE34FDE2B
:100D7000C150F5CFCF911F910F910895A2E0B0E03F
:100D8000E4ECF6E00C941F42FC018181893609F005
:100D900039C082818D3629F466E082E690E0D9DFA1
:100DA00009C08736F1F058F48136B9F0843681F005
:100DB0008E34D1F08BDE2296E5E00C943B428F36E8
:100DC000B1F08037B9F08E36A9F78DE690E007C014
:100DD00088E690E0A1DFFFDEEDCF89E690E09FDFBF
:100DE000E9CF81E790E0FBCF85E790E0F8CF8BE794
:100DF00090E0F0CF89E790E00E94A44340E260E0F9
:100E00006ADED8CF8D3421F466E08AEF97E0C7CF51
:100E1000803521F460E18AED97E0C1CF1A82198212
:100E200042E0BE016F5F7F4FCF010196D9DE09819D
:100E300010E0823029F409811A8110270127102738
:100E4000C8016ADFF82E82E5E2DD40E364E0C80114
:100E500081DE8FE891E02DDE8F2DBDDE8BE891E005
:100E600028DE40E262E08F2D90E0CACFA6E0B0E03D
:100E7000ECE3F7E00C941C426C01FC0181818936A3
:100E800009F07AC082818D36B9F446E0BE016F5F09
:100E90007F4FC6010396A4DE02E616E0CE0101965E
:100EA0007C01802F90E0282F201B211708F45AC0C6
:100EB0002696E8E00C943842873669F148F481368A
:100EC00001F18436A9F08E34C1F100E010E0E6CFE4
:100ED0008F3609F43BC0803739F18E36B1F744E0E4
:100EE000BE016F5F7F4FC6010396B0DE0DE611C0F5
:100EF000BE016F5F7F4FC6010396DCDE08E611E09E
:100F0000CDCF44E0BE016F5F7F4FC60103969EDEEA
:100F100009E614E0C3CF44E0BE016F5F7F4FC60116
:100F2000039694DE01E7F5CFBE016F5F7F4FC601E8
:100F30000396C0DE09E712E0B1CF44E0BE016F5F67
:100F40007F4FC601039682DE05E7E3CF41E0BE0195
:100F50006F5F7F4FC601039643DE89818093A010A7
:100F60000BE7CDCFF70161917F016C01FFEFCF1A45
:100F7000DF0ACDDEC60197CF43E0BE016F5F7F4F32
:100F8000C60101962DDE8C01823008F491CFE980F4
:100F9000F12C823029F0E980FA80FE24EF24FE242F
:100FA0001127FE01E00FF11F6081C701B0DE000FC5
:100FB000111F0F5F1F4F0C0D1D1DF801808188232D
:100FC00009F476CF41E0BE016F5F7F4FC80108DEB4
:100FD000892B09F46DCF2FEFE21AF20A6981C7015C
:100FE00096DE0E5F1F4FE9CF41E060E071E00196B1
:100FF000F7DD8091000180FF07C0289A6091000111
:1010000084E390E084CE08952898F8CFA1E0B0E082
:10101000ECE0F8E00C9422421982009731F041E0B4
:10102000BE016F5F7F4F0196DBDD89818F3F09F441
:10103000FFCF882321F061E083E390E068DE109227
:101040006E00F89488E198E00FB6F894A895809324
:1010500060000FBE90936000FFCFCF93DF93EC0151
:1010600061E080E090E053DE64E481E090E04FDEF8
:10107000CFD960E080E690E04ADE60E081E690E073
:1010800046DE60E083E390E042DE62E084E390E0ED
:101090003EDE0E948E1D60E080E690E038DE60E07B
:1010A00081E690E034DE8981883719F080E090E0B5
:1010B000ADDFDF91CF91089580E090E02DDE8130AB
:1010C00029F481E090E028DE843419F080E090E09B
:1010D000C4DF84E390E020DE8093000108958CE774
:1010E00091E0E7DCF3CC0895FC01158214821182B3
:1010F0001082138212820895FC012FB7F894848124
:101100009581811532E0930710F02FBF0895019665
:101110009583848380819181AC014F5F5F4F5183C0
:1011200040838E0F9F1FDC0116966C934115524031
:1011300061F711821082E9CFFC012FB7F894848106
:101140009581009719F42FBF80E00895019795834A
:10115000848382819381AC014F5F5F4F53834283CD
:101160008E0F9F1FDC0116968C914115524011F491
:10117000138212822FBF0895CF93DF93FB01DA0110
:101180009C91882369F0EB01C90FD11D41E050E02B
:10119000022E01C0440F0A94EAF78881842B8883C9
:1011A000222331F02150822F90E0DF91CF910895DA
:1011B0009F5F9C3008F49C93E90FF11D108227E09B
:1011C000F2CF299A882381F08091580220E1829FF2
:1011D000C0011124A5DB29988091570220E1829F4C
:1011E000C00111249DCB089580915A0220E1829F75
:1011F000C001112495DB299880915902EFCFA0E01E
:10120000B0E0E5E0F9E00C9412426C01462EC22FEA
:10121000502E3E2C642E712C4E5F409F402D112489
:10122000042E000C550B80915502909156028417A4
:10123000950740F483E991E03CDCCDB7DEB7E2E10D
:101240000C942E42841B950B90935602809355026A
:10125000289A80914A02811101C0EBD968D9A42C47
:10126000B12C01E010E0EC2EF12CC0E08C2F0C2E04
:10127000000C990B8A159B051CF1442011F081E0AC
:10128000A0DF212CC22D022C000CDD0BC615D705CA
:10129000DCF087E0982ECC0DDD1D892D092C000C8B
:1012A000990BE816F90624F1832D3FDB5A9451106F
:1012B000DCCF80915E02882331F14BD92898BDCFD5
:1012C00080E07FDFCF5FD2CF97E0892E912CCC0DCD
:1012D000DD1DC801082C01C0880F0A94EAF7988127
:1012E00089236FDF81E0881A910898F72394CACF89
:1012F000C801092C01C0880F0A94EAF79881892354
:1013000060DF9A94CACF86E3BBD8D8CFADE0B0E017
:10131000ECE8F9E00C9413427C01162F842F022F85
:101320006701C60ED11C462FB70140D4F601808359
:101330001F5F1D861982C12CD12C27E0CE010D968E
:1013400088248394912C582E492E97E0A92EB12CF5
:1013500037016C0C7D1CC116C8F0222309F440C073
:10136000215089E18093590280935A0285E280934B
:101370005702809358028AE0E82E4D856CE0CE013A
:1013800001963DDF2D96E1E10C942F42F301308070
:10139000C4010A2C01C0880F0A94EAF7452D542D88
:1013A000BE016F5F7F4F8321E7DE282FF1E0AF1A88
:1013B000B10888F6032C32943024032C36943694EA
:1013C0003024339431FA882780F9452D542DBE01FD
:1013D0006F5F7F4FD1DE282FEFEFCE1ADE0AB5CF39
:1013E0008D858F5F8D8727E0BCCFACE0B0E0EBEF61
:1013F000F9E00C942042162F042F4BE0BE016F5FE2
:101400007F4F0196EDDB682F202F412FCE010196F3
:101410007DDF2C96E4E00C943C4243E066E0E5CFAF
:101420000895EF920F93CF93DF93CDB7DEB7609718
:101430000FB6F894DEBF0FBECDBF40E1BE016F5FB7
:101440007F4F0196CDDB69814A810B818C8180932E
:101450005A028D81809359028E81809358028F8128
:1014600080935702E02EE2948FE0E8220F70242F41
:101470002F7042954F70CE010896C1DE60960FB670
:10148000F894DEBF0FBECDBFDF91CF910F91EF90EB
:101490000895A9E1B0E0EFE4FAE00C9418424BE0C3
:1014A000BE016F5F7F4F01969BDB182F8930B1F52E
:1014B00089E18093590280935A028093580282E313
:1014C0008093570269E0CE0101967BD3E1E0F0E022
:1014D000EC0FFD1FE10FF11D8083198E1D868E011B
:1014E0000F5F1F4F7E018BE0E80EF11C27E0CE015D
:1014F0004996CC24C394D12C982E892EA12CB12CA2
:101500000E151F0579F4222379F121508AE0E82E87
:1015100003E0498D6CE0CE010D9671DE6996ECE03A
:101520000C943442C6010A2C01C0880F0A94EAF7D1
:10153000F8019081492D582DBE01635F7F4F8923AB
:101540001BDE282FFFEFAF1ABF0A88E0A816B104F0
:10155000B9F6492D582DBE01635F7F4F81E00CDE47
:10156000282F0F5F1F4FCACF898D8F5F898F27E08C
:10157000CDCF0F931F93CF93DF93E898249A2C9AA3
:101580008EE190E0CDD92C988EE190E0C9D92C9ACB
:101590008DE290E0C5D980E30E94400284E690E0AD
:1015A000BFD9CAEBD1E0FE0131966491FE0184916E
:1015B0000E9436022296F1E0CC3EDF07A1F780912F
:1015C0005C02882379F0C4EAD1E00AEB11E0FE0165
:1015D00031966491FE0184910E94360222960C1786
:1015E0001D07A9F783E30E94400284E09ED984E3AB
:1015F0000E94400285E30E942F028D30C1F7DF91E7
:10160000CF911F910F910895A2E3B0E0EAE0FBE0D3
:101610000C941F4280915B028823A9F04A9B5CC016
:101620008FE30E942F028F778983823380F08AE3D1
:101630000E94400286E30E9440028DE30E94400225
:1016400084E30E944002E296E5E00C943B422C9831
:101650008FEF0E94D50110E08981181708F452C05D
:1016600080E00E94D501F82E80E00E94D5012C9ADE
:1016700084E30E94400285E30E942F028D30C1F76F
:101680009A8186E789278A830981FE01339682E061
:101690002191801708F442C0802F023008F482E0C4
:1016A000E1E0F0E0EC0FFD1FE80FF11D8B818227D8
:1016B000808310915E0210711123C1F181E6A7D9D8
:1016C00010E0E1E0F0E0EC0FFD1FE10FF11D808183
:1016D0009ED91F5F0117A8F785E30E942F02813072
:1016E00029F0813161F48AE30E94400286E30E947E
:1016F00040028DE30E94400284E30E9440020E9467
:101700006003A1CF80E00E94D501E2E0F0E0EC0FA1
:10171000FD1FE10FF11D80831F5F9ECFDF01119739
:10172000945292279C938F5F922FB2CF81E46FD90E
:10173000E1E0F0E0EC0FFD1FE10FF11D80814BDADD
:101740001F5F0117A8F780915E0285FF02C08F2DF1
:1017500042DABCD9C1CFAAE3B0E0E1EBFBE00C94E4
:101760001C4241E39E012F5F3F4F7901B901019671
:1017700037DA182F8150990B9C01898190E0281746
:10178000390709F065C080915B02811103C0F1DE69
:1017900083E0CBD80B818A8196E789278A834981A8
:1017A000DE01129692E09D0111968C91119794178B
:1017B00008F452C0E42F423008F4E2E0EE0DFF2DB1
:1017C000F11D80278083CE01C7960E94D80385E350
:1017D0000E94400285E30E942F02833109F452C027
:1017E000CE01C3960E94D8034BA95CA96DA97EA91E
:1017F0008FA998ADA9ADBAAD84179507A607B7070D
:1018000098F5481B590B6A0B7B0B4D3B5105610545
:101810007105C0F18AE991E04CD985E30E942F025D
:10182000863149F48BE30E94400286E30E94400225
:101830008DE30E94400280915B02882309F447C037
:1018400084E30E94400285E30E942F028D30C1F79D
:10185000EA96E8E00C9438421196F901208124526E
:1018600082278C939F5F9FCF481759076A077B0792
:1018700048F484549F4FAF4FBF4F481759076A072A
:101880007B07C7CF85E30E942F02833109F09FCFEA
:101890008AE004FF05C088E748D888E746D888E78B
:1018A00044D82C988FE70E94D50167018C2D8E19A2
:1018B000811738F02C9A85E30E942F028331D9F3E7
:1018C000ACCFF60181916F010E94D501EFCF48D1D5
:1018D000BFCFFC018181823751F0823551F481E024
:1018E00080935C0246DE81E080935B02089580E095
:1018F000F7CF833721F4CF0101962DCF08951092B1
:101900005B020895A0E0B0E0E8E8FCE00C941A4225
:10191000FC0110927A024181440F440F440F8381ED
:10192000481B87E0C82EC40E10927B0220E030E0F6
:1019300047E057E070E080E097E0E92EF12C01E00D
:1019400010E0DD24D394D80E8C1580F020938F0204
:1019500030937A02CD14A0F5653409F088C04F3F6A
:1019600009F085C02F5F20938F0283C0DF01A70F8E
:10197000B11D14968C9190E0052E02C09595879527
:101980000A94E2F78170552369F051506B34D1F419
:10199000433059F4332371F030E0811155C0415088
:1019A000832F1EC07F5F57E0F1CF4F3FB1F781110A
:1019B0000FC02FC0811114C020938F0210927A02A1
:1019C00080E05DC04F3F51F5663469F0653479F3CE
:1019D0002F5FA22FB0E0A558BD4F1C92832F47E088
:1019E000382F8D2DAECFA22FB0E0A558BD4FAC91B2
:1019F0000A2EA295A0250A2EA695A695A02590E0D0
:101A0000AF5FA695A170CA2FA12CDA2D8C179D0768
:101A1000F9F220938F0230937A02D2CF882309F40F
:101A2000BECF663471F4A22FB0E0A558BD4FBC9074
:101A3000C801042E01C0880F0A94EAF78B298C9301
:101A4000AECF653409F0ABCFA22FB0E0A558BD4FA3
:101A5000C701841B910947FD9395580102C0AA0C48
:101A6000BB1C8A95E2F7C5019C91892BE8CF311107
:101A700079CF81E090918F02992309F4A1CFCDB75E
:101A8000DEB7EAE00C94364210926F00E0919202C9
:101A90008CE1E89FF0011124ED56FD4F10828091FA
:101AA0005D028D7F80935D020895FC018181843108
:101AB00010F0EACF08959381662381F0DF01A80F2B
:101AC000B11D41E050E0092E01C0440F0A94EAF72D
:101AD00014962C911497242B14962C93992319F077
:101AE00091509383089597E093838F5F8183E80FEC
:101AF000F11D1482089570E030E0FB01E21BF30B4E
:101B00003B967797A0F490E050E0FC01E41BF50BC6
:101B10003B96779760F4680F791F240F351F621B7F
:101B2000730B655F7F4F81E06731710508F080E0DE
:101B30000895219A29985298E9E6F0E08081816021
:101B4000808382EC91E09093560280935502E3E902
:101B5000F2E0148E10AE1092E70210924A0208953D
:101B600080915E02882329F00E9419030C94A90237
:101B700008950C9412030895FC01818181110EC017
:101B800080915E0228D840E265E0809155029091F4
:101B900056020E946B050C946605089541E06EE5BF
:101BA00072E0CF0101961CD8DBCF08959B01411153
:101BB00001C008954150F901E40FF11D9081890F92
:101BC000F6CF9C0180E0611101C008956150F901D8
:101BD000E60FF11D90818927F6CFAC01F0917A02D2
:101BE000362F85E090E0311109C0292F280F80E1C0
:101BF000289F90011124892F822B08957FEF730F66
:101C0000DA01A70FB11D2C91E22FE295EF709E270C
:101C10008E0FFF2311F0361719F02F709227820FC5
:101C2000372FE1CFFC0122813381A081B181A20F46
:101C3000B11D8C9190E0032E02C0959587950A9472
:101C4000E2F781709FEF930F9383311104C02F5FF0
:101C5000228397E093830895A0E0B0E0E2E3FEE002
:101C60000C941B42D82EC92EE42E062F10E0E8015A
:101C7000F12CBB24B394209731F48F2DCDB7DEB770
:101C8000E9E00C9437428D2D9C2DCCDFAE01415004
:101C90005109882349F0EE2049F02B2D042E01C074
:101CA000220F0A94EAF7F22AEA01E5CF98012C1BE9
:101CB0003D0B8B2D01C0880F2A95EAF7282FF3CF13
:101CC000A4E0B0E0E6E6FEE00C941A42FC011B82C0
:101CD00087E08C83CF0104969A83898310928F02C8
:101CE000818128E0829FC0011124438127E030E0F8
:101CF000241B3109820F931F853491050CF04CC0D1
:101D000080E046C0A9DFA82EE12FF0E0E558FD4FA6
:101D10008083082F002E02950025002E069506953B
:101D20000025CE0101967EDF90E00F5F01FBCC2401
:101D3000C0F8D12C8C159D0519F7CE01019672DFE4
:101D40008111DECFBA241F5F10938F0210918F0292
:101D500040E068E0CE0101961630A0F27DDF082F4A
:101D6000182F012E12951025012E16951695102567
:101D7000CE01019657DF90E01F5F11FBEE24E0F8E3
:101D8000F12C8E159F0509F0BBCF81E0B012B8CFC2
:101D90002496EAE00C943642B12CD8CFA4E0B0E00F
:101DA000E4EDFEE00C941C42FC011B8287E08C8376
:101DB000CF0104969A8389838081853009F03FC0E2
:101DC000818128E0829FC0011124438127E030E017
:101DD000241B3109820F931F8039910581F580E022
:101DE0000FE010EF49E8F42E80938F02C82ED12C1B
:101DF000EE24E394E80E41E068E08F3029F5CE014F
:101E000001962ADF080F111D90E190938F028095B3
:101E100080938A0241E068E0CE0101961DDF90E0E8
:101E2000982F8827081B190B41E068E0CE01019626
:101E300013DF282F30E081E02017310709F080E020
:101E40002496E8E00C943842CE01019605DF080F95
:101E5000111DF601E558FD4FF826F08234E2F32E0D
:101E6000F80E8E2DC1CFA4E0B0E0E9E3FFE00C94C2
:101E70002142FC011B8287E08C83CF0104969A8368
:101E8000898381818430D1F483818130B9F410E079
:101E900010938F0241E01430B1F467E0CE01019657
:101EA000DBDE880F80937F0285E080938F02909124
:101EB0007B0292959F7081E09A3009F080E0249631
:101EC000E3E00C943D4211110CC067E0CE01019695
:101ED000C3DE8068E12FF0E0E558FD4F80831F5F8F
:101EE000D7CF68E0CE010196B7DEF4CFFC01818147
:101EF0008330D9F483818730C1F480818830A9F49C
:101F000080E09181891720F080938F0281E008950D
:101F1000282F30E0DF01A20FB31F14969C912558A3
:101F20003D4FD9019C938F5FECCF80E00895FC0179
:101F3000908180915D02993611F0933771F4982F5A
:101F40009370913021F4866080935D02089580FF44
:101F5000FDCF80915D028B7FF7CF80FDF7CF84604E
:101F6000F3CFA1E0B0E0E7EBFFE00C941D42198253
:101F700080915F028823A1F180915E0287FF14C0E7
:101F800084E30E942F028058803408F442C0803CD1
:101F900008F041C08055990B23E0959587952A95C7
:101FA000E1F78F590E94070580915E0283FF16C0FA
:101FB00082E70E94070580915E0284FF04C0809141
:101FC00060020E94070586E60E94070580915E0276
:101FD00084FF04C080915F020E94070510925F0297
:101FE00080919002882309F4B3C1289A009191024C
:101FF0002CE1029F800111240D561D4F8981811112
:102000001FC0C80173DF882309F4B7C183E7898340
:1020100017C080E0C6CF8FE0C4CF83E5F8CF282F6C
:1020200030E02F5F3F4F4E2D50E02417350709F069
:1020300070C093E09F1508F0BFC196E49983808338
:10204000E980D0905E02EE2009F4FDC0D0FEFBC016
:1020500080915D028A7F80935D028D2D8270811157
:1020600025C0F0908F0290917902E5E6F2E0ABE7AF
:10207000B2E09F1509F493C04F2D50E06BE772E07A
:1020800085E692E00E948543F092790280914D02AC
:1020900090914E02A0914F02B09150028093610244
:1020A00090936202A0936302B0936402F4E5EF128E
:1020B00097C0D6FC1BC080918F028530B8F080910C
:1020C0007D028B3471F0893661F09DEA980F923071
:1020D00040F08D57823028F080917E0280778037E3
:1020E00029F480915D02816080935D02B801CE0188
:1020F00001961DDF80911A05882309F475C080912F
:102100005D05811171C080915D028B7F80935D02BE
:102110006BC04F2D6BE772E08CE048DDE8124CC1DC
:10212000E3E084E5EF1508F472CF46C180918F0299
:10213000815080938F02893009F044C169E08BE7B8
:1021400092E03FDD9091840289133CC185E45FCF2A
:1021500088E45DCF84E75BCFE0918F02FF24FA949F
:10216000FE0EF0928F026F2D8BE792E036DD90919C
:102170007A022F2D291B330BF901E558FD4F908171
:10218000891338C18BE443CF21919D918F5F29172B
:1021900031F080915D028D7F80935D026DCFF812EA
:1021A000F3CFF092790280914D0290914E02A0916E
:1021B0004F02B091500240916102509162026091D1
:1021C000630270916402841B950BA60BB70B869774
:1021D000A105B10508F050CF80915D028160DCCF90
:1021E000B801CE010196A3DE80915D0282FF2BC073
:1021F0008E2D0E94070580917A02882329F0809114
:102200008F02815080938F02F12CE0918F02FE1695
:1022100008F4A2C080917A02882351F0F0E0E558DA
:10222000FD4F80818F7040E361E090E00E94AA053D
:1022300080915E0285FF05C084E30E942F020E9408
:10224000EB050E94660580915E0282FF69C080E70F
:102250000E940705F801808140E262E090E00E9460
:102260006B05F801808D40E265E0F0E18F9FC001D1
:1022700011240E946B05F801818D40E265E0F0E1D8
:102280008F9FC00111240E946B05F801828D40E2EE
:1022900065E0F0E18F9FC00111240E946B05F801F9
:1022A000838D40E265E0F0E18F9FC00111240E9420
:1022B0006B05F801828140E263E090E00E946B05CB
:1022C000F801818140E263E090E00E946B05F80133
:1022D000838140E262E027E030E0F901E81BF10988
:1022E000CF010E946B0580E20E94070580915E028B
:1022F00085FF08C084E30E942F020E94EB0580E264
:102300000E940705F8018381873019F081818F5F72
:102310008183F12CF8018181F81638F10E9466055D
:10232000F8011082809190028150809390029091E8
:10233000910281E0890F933009F480E0809391024B
:1023400028988981843521F48BE792E00E94711AE4
:102350002196E7E00C943942EF2DF0E0E558FD4F6F
:1023600080810E94EB05F39450CFF801EF0DF11D31
:1023700084810E94EB05F394CDCFC8010FDD81115C
:102380004CCE66E4C801BEDA8823B9F0F0908F0223
:10239000FA94F0928F024F2D6BE772E086E006DC34
:1023A000EF2DF0E0E558FD4FE080E81238CE33E045
:1023B00086E43F1508F42BCE198265E4C801A2DA41
:1023C0008111B4CEC8017CDC8111C2CEC8014BDDC5
:1023D0008111C0CEF801638DE0906002262F4E2D52
:1023E000828D89DB682FC80160DB6BE4C8018ADA63
:1023F0008111B2CEF801838191E0980F93838730E9
:1024000029F4F8018181138281508183F80181814F
:10241000843009F015CEF8018381843009F010CEA4
:102420002EE14CE3618D808D66DB882309F408CEB4
:102430002EE14E2DF801638D828D5DDB682FC80182
:1024400034DB85E0F8013496ABE7B2E001900D9201
:102450008A95E1F785E080938F0282E5D8CD1F92BF
:102460000F920FB60F9211242F933F934F935F93C8
:102470006F937F938F939F93AF93BF93EF93FF934C
:1024800010926F0080915E0283FF03C08EE20E9473
:102490000705909192028CE1989FF0011124ED566E
:1024A000FD4F8081833018F08181823090F4ECDA26
:1024B000FF91EF91BF91AF919F918F917F916F911C
:1024C0005F914F913F912F910F900FBE0F901F90F2
:1024D000189580919002833049F480915E0282FFCA
:1024E000E6CF8CEE91E00E945905E1CF8F5F80939B
:1024F000900281E0890F933019F080939202D8CF37
:1025000010929202D5CF982F8BED890F873138F436
:1025100086EF860F8D3118F481E0691708F080E0AE
:1025200008951F920F920FB60F921124EF92FF920F
:102530000F931F932F933F934F935F936F937F93CB
:102540008F939F93AF93BF93CF93DF93EF93FF93BB
:1025500080911A068823D1F082E080931A06FF91B9
:10256000EF91DF91CF91BF91AF919F918F917F912B
:102570006F915F914F913F912F911F910F91FF901C
:10258000EF900F900FBE0F901F90189580911C0533
:10259000823021F483E080931C05E1CF0091840018
:1025A0001091850044E0169507954A95E1F7C09192
:1025B00092022CE1C29FE0011124CD56DD4F98819B
:1025C000943079F40E3258F20F3408F0C2C04A99B0
:1025D00041C061E0CE0169DA10928500109284005A
:1025E00004C0953029F04A9908C000936002B7CF23
:1025F000073108F4B4CF0732E8CF80916002081B9E
:1026000000935F021092850010928400983061F46C
:102610009A81911109C091E09A83888F8A8F098FDE
:102620000B3B28F5000F0B8F82E086BB0881011160
:1026300020C090916002953608F091CF80915F02A2
:10264000853608F08CCF988F898F81E08A8382E06D
:10265000888385CF80916002081B00935F021092EF
:1026600085001092840060E0CE011FDA78CF0695D5
:10267000DACF10915F02023009F071C0F090600271
:10268000088DE98C212F4F2D6E2D802F34DA4A8151
:102690008823F1F0602F70E09B01220F331F260F7B
:1026A000371F2F0D311D3595279535952795288F87
:1026B000F12CC701880F991F8E0D9F1D810F911D51
:1026C0009595879595958795898F4F5F4A8347CFD5
:1026D000443008F442C080EA9FE0909389008093E0
:1026E00088004C3050F0202F2E0D3327331F253615
:1026F00031052CF084E0888311C04A30C8F0202FC7
:102700002E0D3327331F2532310594F485E088835D
:1027100088EE93E09093890080938800FA8E1B8F57
:10272000198287E08B831C8282E080936F0017CF31
:1027300080911B05882379F0612F8F2DE4DE88239B
:1027400051F0602F8E2DDFDE882329F081E0809309
:102750001C059AD904CF83E0CECF18826ACF083007
:1027600009F04BC081E9810F8D3110F560E0CE0199
:102770009CD9288D30E0C901880F991F820F931FC3
:1027800020916002820F911D95958795959587956B
:10279000888F298D30E0C901880F991F820F931F00
:1027A000810F911D9595879595958795898FD7CEA2
:1027B000173E08F4D4CE61E0CE0177D92A8D30E0FF
:1027C000C901880F991F820F931F20916002820F09
:1027D000911D95958795959587958A8F2B8D30E0DE
:1027E000C901880F991F820F931F810F911D959525
:1027F0008795959587958B8FB2CEF0906002212FAB
:102800004F2D6B8D8A8D77D9882369F061E0CE01D9
:102810004CD92A8D30E0C901880F991F820F931F70
:102820008F0D911DD6CF212F4F2D698D888D63D9A6
:10283000882369F060E0CE0138D9288D30E0C901E5
:10284000880F991F820F931F8F0D911D9DCF073009
:1028500009F485CE7ECFE09192028CE1E89FF001F1
:102860001124ED56FD4F8081811107C081E09091C8
:102870005B059F3F19F480E0089581E0089580E6AC
:1028800090E00E948C0680931B0581E690E00E94F8
:102890008C0680931A05882321F081E280935E02E2
:1028A0005FC90895299A0C949004089529980C946E
:1028B00090040895A7E0B0E0E0E6F4E10C941C4237
:1028C00090911703943509F072C020910F03309155
:1028D00010032F5F3F4F3093100320930F0395E7B2
:1028E000998311E0882389F0BE016E5F7F4F80914C
:1028F0001A050E947506BE016C5F7F4F80911B0513
:102900000E94750685E58E8316E00E9419030E94D9
:10291000970206E080E891E0C5DF80E093E0C6DF43
:1029200001500111F7CF80E093E0BCDF80E891E037
:10293000BDDF80E891E0B6DF299887E390E00E9450
:10294000440283E00E9495042C988FE70E94D501F1
:1029500080911503810F0E94D501CE0101966C0173
:102960007C01F70181917F010E94D5018E2D8C1988
:102970008117B8F38091150390911603892B09F004
:1029800055C02C9A0E94970281E193E00E9474083E
:1029900015E18AE30E942F028F77882319F01150E6
:1029A00011114BC0DDD82796E8E00C9438429634DC
:1029B00059F420910D0330910E032F5F3F4F309358
:1029C0000E0320930D038BCF953459F420910B0304
:1029D00030910C032F5F3F4F30930C0320930B0378
:1029E0007ECF9B3459F42091090330910A032F5F65
:1029F0003F4F30930A032093090371CF983459F461
:102A000020910703309108032F5F3F4F3093080355
:102A10002093070364CF20910503309106032F5FB5
:102A20003F4F309306032093050359CF81E193E094
:102A30000E949C080E94D5019DCF81E00E949504D0
:102A4000A8CFCF93DF93EC01898181110DC08091D4
:102A50001B050E94EB0580911A050E94EB050E9460
:102A60006605DF91CF910895843691F480914D02EF
:102A700090914E02A0914F02B091500240E364E069
:102A80000E94AA058EE20E94070580911805E5CFF5
:102A9000833709F04BC040E361E080910F039091D0
:102AA00010030E94AA058EE20E94070540E361E040
:102AB00080910D0390910E030E94AA058EE20E9460
:102AC000070540E361E080910B0390910C030E94A5
:102AD000AA058EE20E94070540E361E080910903A8
:102AE00090910A030E94AA058EE20E94070540E326
:102AF00061E080910703909108030E94AA058EE28D
:102B00000E94070540E361E0809105039091060370
:102B10000E94AA058EE20E94070540E361E08091D1
:102B20000303909104030E94AA0599CF8936D9F432
:102B300041E06BE175E0CE0102960E94F0056091E4
:102B40001B0580E690E00E94870641E06AE175E09F
:102B5000CE0104960E94F00560911A0581E690E08E
:102B60000E9487067ECF81E193E00E94740821963F
:102B70006991611103C080E09DDE73CF81E193E034
:102B80000E947C08F5CFA1E0B0E0E9ECF5E10C94FF
:102B90001C4280911C058823A9F0C0904D02D09062
:102BA0004E02E0904F02F0905002833009F06FC067
:102BB0008FE30E942F02182F863040F40E94B00D40
:102BC00010921C052196E8E00C9438428CE196E0C6
:102BD0000E9474082C988FEF0E94D50180E00E941B
:102BE000D501082F115080E00E94D501682F8CE19B
:102BF00096E00E947C0811501111F5CF2C9A0E948A
:102C0000B00D10921C050537E9F641E0BE016F5F7B
:102C10007F4F82E296E00E94F005019799F5998135
:102C200080911B0598132EC080912006909121065B
:102C3000209126062535E9F004979093210680938C
:102C4000200684E090E090931F0680931E066AE0C1
:102C50008CE196E00E947C08E0912A0AF0912B0A10
:102C600088E00995AFCF8CE196E00E949C080E9415
:102C700007058091200690912106892BA1F70E94DB
:102C80006605A0CF8CE196E00E9474089BCF82304D
:102C900041F4809119059C2D981B983008F492CF2F
:102CA0008DCF813009F08ECF87E390E00E944402FF
:102CB0000E94A90282E080931C05C092190582CF70
:102CC000CADD882361F083E08093170580910303B8
:102CD00090910403019690930403809303038091E1
:102CE0001705815080931705882321F083E0809396
:102CF0001805089581E0DECD089510925A051092CE
:102D0000190683E0809363058FEF80935B05089538
:102D1000DC01E4E6F5E0808181110EC0AB2B29F5E2
:102D200086E0E231F80719F010F0E2E1F6E0CF01B9
:102D30000895E80FF11DEFCF96E0E231F90770F743
:102D40001097B9F321819C912913F3CF2281119619
:102D50009C911197291759F3E80FF11D8081882361
:102D600021F096E0E231F90768F3E0E0F0E0DFCF30
:102D700094E0899FF0011124EA5CFA4F80818F3F33
:102D800091F080935E05818180935F0582818093BD
:102D9000600583818093610521E04CE064E08EE56D
:102DA00095E00C948609089583E196E0B1DFDC019B
:102DB000892B99F0E09163058C91E81770F4EA0F84
:102DC000FB2FF11D80818093150689E780931606FD
:102DD00081818093170681E0089580E008950F9324
:102DE0001F93CF93DF938C0180915E0286FF15C005
:102DF00084E50E940705E8010B5F1F4F89910E943F
:102E0000EB05C017D107D1F780915E0285FF03C0A3
:102E10008AEF0E94EB050E946605DF91CF911F911A
:102E20000F91089586E30E94400280911506833534
:102E300081F48BE90E94950421E04CE065E083E198
:102E400096E00E9486090E94A90283E196E0C7CF1E
:102E500008958BE4EFCFE6DF80911506893631F0D7
:102E600081E08093120689E280935B050895CF93F9
:102E700085E390E00E948C0680935D0586E390E0F8
:102E80000E948C0680935C05E7E4F5E0CFEFC083F9
:102E9000C283C483C683C087C287C487C6872DDF29
:102EA0001092640581E080931D05A6E3B5E0CC9304
:102EB000EEE1F5E08FEF9FEF918380831382128222
:102EC000158214821496CC93149797838683118667
:102ED0001086138612861896CC9318979587848748
:102EE00017861686118A108A1C96CC93938B828B38
:102EF000158A148A178A168ACF910895ABE0B0E03C
:102F0000E4E8F7E10C9417428C016C012FEFC21A30
:102F1000D20A45E0BE016F5F7F4FC6010E94F005F7
:102F2000843008F0E5C099819130D1F4833079F490
:102F30006A8185E390E00E9487066B8186E390E0DA
:102F40000E94870694DF2B96EDE00C94334280912B
:102F50005D050E94EB0580915C050E94EB0535C084
:102F6000923009F051C0EE24E394813031F081E0D9
:102F70009A81913009F080E0E82E809164058111FA
:102F800004C083EF91E00E94590504E615E015C0E6
:102F900085E00436180719F080E20E940705F80161
:102FA00081810E94EB05F80182810E94EB05E1100E
:102FB0000FC0F8018081080F111DF801808188235E
:102FC00021F0F6E002311F0718F30E946605BBCF1F
:102FD0008AE30E94070583E0F82EF8018081F81645
:102FE00040F7F3E0FF1629F0F0FE03C08CE20E94E8
:102FF0000705DD24D394DF0CF801EF0DF11D80816E
:103000000E94EB05FD2CE9CF933049F480E090E07D
:103010007FDE845695409EEA981B892F9ECF903183
:1030200049F507E415E0E12CF12CF80180818F3F90
:10303000A1F0FF2019F080E20E9407058E2D0E946A
:10304000EB058AE30E940705F80180810E94EB05E9
:10305000F80181810E94EB05F3940E5F1F4FE3940A
:10306000F8E0EF12E2CF81E092E0F110AECF0E94E3
:103070005905ABCF913151F4809157059091580586
:103080006DE770E00E94A341862F67CF923109F06F
:103090009CCF06E315E0E12CF12CF80180818F3FF5
:1030A000E1F0FF2019F080E20E9407058E2D0E94BA
:1030B000EB058AE30E940705F80180810E94EB0579
:1030C000F80181810E94EB05F80182810E94EB05E5
:1030D000F80183810E94EB05F3940C5F1F4FE3948A
:1030E000F4E0EF12DACFF11070CF8DEF91E0BFCFA7
:1030F0007E0127E0E20EF11C44E0B701C6010E9408
:10310000F0054F81493608F496C06A855885E6E394
:10311000F5E020E030E080E090E06C3009F06FC036
:1031200080E090E020E030E06081461336C071819D
:10313000751333C0A2817985A7132FC08A5C9A4F7B
:103140004CE0FC014383C901880F991F820F931F34
:10315000FC01EE0FFF1FE25EFA4F11821082880F12
:10316000991FFC01E05EFA4F1182108222E04CE0D0
:1031700064E0C7010E9486098FE08A8722E04CE064
:1031800064E0C7010E94860982E08A8722E04CE061
:1031900064E0C7010E948609D6CE6F3FF9F4FC01B6
:1031A000EA5CFA4F40835183898582838CE0838374
:1031B000C901880F991F820F931FFC01EE0FFF1F9B
:1031C000E25EFA4F11821082880F991FFC01E05EC7
:1031D000FA4F1182108210921D05C8CF2F5F3F4F0A
:1031E000349604962430310509F09ECFACCE01967A
:1031F00034962C5F3F4F8430910509F4A4CE708142
:103200004713F5CF71817513F2CFA2817985A7138A
:10321000EECF2A5C3A4FF9016383FC01EE0FFF1FEA
:10322000E80FF91FEE0FFF1FE05EFA4F81E090E01C
:103230009183808388CEE98120915D05E217C0F1FA
:10324000822F90E007964E2F50E08417950784F167
:103250009A8180915C0598132BC09C819F3231F438
:1032600042E06CE0C8010E94F5096DCE8D819C3270
:10327000B9F48093460521E030E03093580520935F
:103280005705F4E08F9FC001112420915502309121
:103290005602820F931F909356028093550253CE8D
:1032A000E21BEE0FF0E0E95BFA4F908381834BCE97
:1032B00080E090E02DDD7C01F60101900020E9F72F
:1032C0003197EC19FD09F695E7957E2EDD24D39410
:1032D000DE0EC7018D0D911D845695408F3A9105E4
:1032E0002CF087EF91E00E9459052DCEF701D08296
:1032F0005701CC24C3948C2D880F8150CD1480F0BD
:10330000F2E1EF16F6E0FF0608F01DCE2FEFED2DEF
:10331000721201C0E1E0EE0DFF2DF11D108213CEFF
:103320004501FFEF8F1A9F0A41E0B401800F912FF2
:10333000911D0E94F00522E02C1548F4C0FC07C046
:10334000F5018081843619F4818180935905C394F5
:103350005401D1CF0F931F93CF93DF9390911D050D
:1033600091114AC0282F30E0E901CC0FDD1FC20FB8
:10337000D31FDE01AA0FBB1FA25EBA4F220F331F5D
:10338000220F331FF901EA5CFA4F9281977040E8EF
:1033900050E0491B51099AEF949F9001959F300D81
:1033A000112435952795359527952D933C938E01BE
:1033B000000F111F0E5D1A4FF801208131812F5F20
:1033C0003F4F31832083CC0FDD1FC05EDA4F488131
:1033D00059814115510541F42430310569F4C8DCA7
:1033E000F8011182108208C04130510551F4C0DC4F
:1033F00082E090E099838883DF91CF911F910F91B4
:10340000089542305105C1F7B3DC19821882E8CF24
:10341000A6E0B0E0EEE0FAE10C941E4280915C057B
:103420008A831B82909146059923D9F19330B1F597
:1034300087E791E0909358058093570587E4E82E3D
:1034400085E0F82E10E00CE2F70120812F3FA1F07B
:103450008091460590915D05910F9983882351F1E4
:103460000C838D8321E04CE065E0CE0101960E9443
:103470008609CE010196B3DC1F5FF2E0EF0EF11C6E
:10348000183011F780914605882321F08330A9F484
:10349000109246052696E6E00C943A428DE790E0BD
:1034A000C9CF87708A512DE7829FC001112495955D
:1034B0008795C0CF2C838181D4CF825080934605DD
:1034C000E9CF80911206882351F0ACDC89E2809329
:1034D0005B058091120681508093120608950DCCF1
:1034E0000895FF920F931F93CF93DF93FC01F08019
:1034F000D181C281138104818FE580935B05109295
:10350000120680915D0590915C05892B882351F10D
:10351000809113068F1104C0809114068D1729F035
:10352000ECDBF0921306D0931406D0915A05DF3FDE
:10353000C9F0C09315061093160600931706CC2306
:1035400059F1D1111FC080915D05801781F00436BB
:1035500071F08DEA8C0F823010F0CD3751F48FEF7F
:1035600080935A05CDB7DEB7E5E00C943B42C435F5
:10357000C9F3812F807F8036A9F710671093160654
:103580006ADCF0CF11DC80911906882379F083354D
:10359000B9F08C17D1F008C007DC8D2B882311F30C
:1035A00080911906882311F0A8DBDCCFED2FF0E025
:1035B000EB5FFD4FE491E335F1F0CE1711F1F4CF5D
:1035C000C435B9F4DE5FD0935A05809163058E5FF0
:1035D00080936305E9DB882309F44CC080911506CC
:1035E00080931906843661F68091590580931706F9
:1035F000C7CFC335CFCFC43509F03AC0DE5FD09313
:103600005A0580915A05E82FF0E0EA5FFD4F1491CA
:103610001F3F21F31093150697E79093160690919C
:103620005D05909317068E5F80935A0510921906D8
:103630008E30D1F483E196E06BDBDC01892B99F0CD
:103640002C9130E082E196E0821B930BED01C817CC
:10365000D907B0F08A179B07C8F08A1B9B0B8A0F0B
:103660009B1FFC01108249DB112309F47BCF88CF1B
:10367000C335A4CF80915A058E5F80935A05C1CF80
:10368000FE01E20FF31F40814993E1CF80E090E01B
:10369000E6CFFF920F931F93CF93DF93EC01FC01D2
:1036A00001900020E9F731978F01081B190B8981E0
:1036B000823771F487E390E00E9444020E94A902DD
:1036C00081E080931A06CDB7DEB7E5E00C943B426B
:1036D000833711F5F02E2C988FE70E94D5018EEFDD
:1036E000800F0E94D501229612E01F1560F02C9ADF
:1036F0000E9497028AE30E942F028F77811108C0EF
:103700000E94A902E0CF89910E94D5011F5FEDCFF1
:1037100081E00E949504EECF10921A06D4CFA0E06B
:10372000B2E0E5E9FBE10C941C4280911A06882383
:1037300011F1813021F580914D0290914E02A091BE
:103740004F02B091500220911B062817A1F085E38B
:103750000E942F02813129F48AE30E9440020E94D4
:10376000A90280914D0290914E02A0914F02B0911A
:10377000500280931B06DE5FE8E00C9438428FE332
:103780000E942F02F82E2C988FEF0E94D5018E01F7
:103790000F5F1F4F6801E02E8C2D801B8F1588F066
:1037A0002C9A81E080935302802F8E198F1580F020
:1037B0000E9466058FEF8093530281E080931A0682
:1037C000DACF80E00E94D501F60181936F01E4CF4A
:1037D000F80181918F010E940705E6CF2091151114
:1037E000309116112115310521F4209121013091DC
:1037F000220180911F0190912001009741F48DB723
:103800009EB74091230150912401841B950B2817EA
:10381000390718F4821B930B089580E090E0089517
:1038200082E40E94070540E265E0809115119091C5
:1038300016110E946B050E94660583E50E9407052C
:1038400040E265E080912101909122010E946B0588
:103850000E94660585E40E94070540E265E08091CC
:103860001F01909120010E946B050E94660586E46D
:103870000E940705B3DF40E265E00E946B050C94EF
:10388000660508951F920F920FB60F9211242F9381
:103890003F934F935F936F937F938F939F93AF93D8
:1038A000BF93EF93FF938091260890912708892B6F
:1038B000B9F082E298E00E949C088093C600FF91D4
:1038C000EF91BF91AF919F918F917F916F915F9198
:1038D0004F913F912F910F900FBE0F901F90189511
:1038E0008091C1008F7D8093C100E9CF1F920F921C
:1038F0000FB60F9211242F933F934F935F936F93C3
:103900007F938F939F93AF93BF93EF93FF9385B173
:1039100091E0892785B96091C6008091C0008871C7
:10392000811104C08CE196E00E947C08FF91EF9128
:10393000BF91AF919F918F917F916F915F914F91C7
:103940003F912F910F900FBE0F901F9018959C01E3
:1039500097FF04C082E08093C0003F773093C5009A
:103960002093C40088E98093C10086E08093C20060
:1039700008958091C10085FD0BC08091260890912B
:103980002708892B29F08091C10080628093C100B3
:103990000895E0912A0AF0912B0A81E00995E9CF78
:1039A00008950F931F93CF93DF93EC0100E0802FD6
:1039B00090E09C01220F331F280F391FF901E458B2
:1039C000FF4F1491812FF901E358FF4F2591349156
:1039D000112389F0209741F480E20E940705812F8E
:1039E0000E9407050F5FE3CF98819113FBCFCE01B3
:1039F000F901099581E0DF91CF911F910F91089511
:103A0000CF93C091530280935302809120069091EE
:103A10002106892B21F4C0935302CF9108958CE1A4
:103A200096E00E949C0820912C0A30912D0A8A3041
:103A300011F08D3011F52115310539F3225D354F27
:103A4000F90110828EE29AE0ACDF811111C08BE2A5
:103A500092E00E9459058EE29AE00E944E0583E1B1
:103A600092E00E94590580E090E09BDF0E9466058D
:103A700010922D0A10922C0AC8CF2115F2E03F07B0
:103A800020F6A9014F5F5F4F50932D0A40932C0AF7
:103A9000225D354FF9018083B8CF0F931F93CF93E9
:103AA000DF93EC018C010A5F1F4F89910E94EB05A7
:103AB0000C171D0721F08AE30E940705F6CFDF915E
:103AC000CF911F910F910895EF92FF920F931F9343
:103AD000CF93DF93FC01EB01E080F180FE24EF2423
:103AE000FE24028113811027012710276F2DCE019C
:103AF0000E9487066E2DCE0101960E948706612FD7
:103B0000CE0102960E948706602FCE0103960E9486
:103B10008706CDB7DEB7E6E00C943A42A5E1B0E007
:103B2000E4E9FDE10C941A4289E68A8384E68B83FA
:103B30007E0184E0E80EF11C65E772E0C7010E9497
:103B400071438E010F5F1F4FC8010E94360781E647
:103B50008B8367E672E0C7010E947143C8010E942F
:103B600036078EE68B8369E572E0C7010E947143D8
:103B7000C8010E94360787E68B836DE472E0C701B7
:103B80000E947143C8010E94360780E78B8368E476
:103B900072E0C7010E947143C8010E9436078EE49B
:103BA0008B8360E472E0C7010E947143C8010E94E8
:103BB00036078FE68B836DE372E0C7010E94714385
:103BC000C8010E9436078AEF97E00E948C065701D1
:103BD0006801843AB1F58BEF97E00E948C0680353E
:103BE00081F58CEF97E00E948C06853551F58DE6C6
:103BF0008B8366E372E0C7010E9471438DEF97E00B
:103C00000E948C06BE01665F7F4F0E9475068EEF94
:103C100097E00E948C06BE01645F7F4F0E9475068C
:103C20008FEF97E00E948C06BE01625F7F4F0E947B
:103C30007506188AC8010E9436076596EAE00C945A
:103C400036428DE68B836FE272E0C5010E947143BC
:103C5000E0E0F0E000E010E091E290935700849102
:103C6000080F111D3196E032F105B9F7BE01665F0C
:103C70007F4F80E00E947506BE01645F7F4F812FF9
:103C80000E947506BE01625F7F4F802F0E947506FD
:103C9000188AC601D0CF3DD584E39CE00E947D2DDB
:103CA000892B39F184E39CE00E94732D8DE79CE021
:103CB0009093910E8093900E82E081D68091950E24
:103CC0009091960E892B19F00E94872C4CD48AE48F
:103CD0009CE090937A0C8093790C85E070D680916B
:103CE000950E9091960E892B19F00E94872C3BD44B
:103CF00039D580E39CE00E947D2D892B31F080E353
:103D00009CE00E94732D0C94BE2B0895A0E0B0E0BF
:103D1000ECE8FEE10C941C427C01EB01CB010E941B
:103D20008C066E018FEFC81AD80AC6010E948C0655
:103D3000082FCE010E948C06182FC6010E948C0607
:103D4000902F812FF701918380836E01F2E0CF0ED7
:103D5000D11CC6010E948C062396CE010E948C06BF
:103D6000082FC6010E948C06182FCE010E948C06D7
:103D7000902F812FF70193838283CDB7DEB7E8E0E0
:103D80000C943842A4E0B0E0E8ECFEE10C9422424E
:103D900069E670E0CE010196B9DFE9E0F0E18981E2
:103DA0009A81918380838B819C819383828361E755
:103DB00070E0CE010196AADFE5E0F0E189819A8109
:103DC000918380838B819C81938382836DE670E0F5
:103DD000CE0101969BDFE1E0F0E189819A81918338
:103DE00080838B819C819383828386E794E0B7D321
:103DF00049D10E94E82F2496E2E00C943E42549A66
:103E00005C9888EC0E9495045C9A88EC0E9495046A
:103E10008CD382E690E00E948C068093390C83E676
:103E200090E00E948C0680933A0C84E690E00E9419
:103E30008C0680933B0C85E690E00E948C06809374
:103E40003C0C86E690E00E948C0680933D0C87E651
:103E500090E00E948C0680933E0C89E39CE067D33F
:103E60008091390C8093FB0F80913A0C8093FC0F6A
:103E700080913B0C8093FD0F80913C0C8093FE0F52
:103E800080913D0C8093FF0F80913E0C8093001039
:103E900030D510929F1010929E106FE170E084E375
:103EA0009CE00E94672D62EE74E080E39CE00E943B
:103EB000672D88E690E00E948C06882351F086EA00
:103EC00094E04DD389E39CE00E94B42F1092380C0B
:103ED000089582E08093380C55CF08950F931F9377
:103EE000CF93DF93FC018181893631F488DFDF9144
:103EF000CF911F910F9108958336D1F4C9E0D0E19D
:103F00000DE010E1899140E261E090E00E946B05D4
:103F10000C171D0749F480E20E9407058BEF9FE014
:103F2000BCDD0E946605E3CF8EE20E940705EACF62
:103F3000843649F480912F0C8F5F837080932F0C0F
:103F40000E94EB05EECF8E3691F60E94FF31CFCF67
:103F5000CF93DF93EC01009721F414DFDF91CF9131
:103F6000089569E670E04696AFDD8E899F8990934B
:103F70000A1080930910888D998D90930C1080936E
:103F80000B1061E770E0CE0182969EDD8AA19BA1B5
:103F900090930610809305108CA19DA1909308101A
:103FA000809307106DE670E0CE014A968DDD8A8D14
:103FB0009B8D90930210809301108C8D9D8D90931A
:103FC000041080930310EB81FC811582148286E734
:103FD00094E0C5D257D00E94E82FC0CFE091900E58
:103FE000F091910E248135818091410C9091420C89
:103FF0002817390709F46BC008958091380C823076
:1040000029F00E94922E8093380C0895E091790C4B
:10401000F0917A0C309759F08091920E81FF07C091
:104020008481958181159B4711F40C942E3208955B
:104030001F93CF93DF93C091900ED091910E8091FA
:10404000260890912708892B21F4DF91CF911F91A9
:1040500008958D8D8A3F49F482E0B1D40E94872C67
:1040600082D282E00E94950416DE1D8D81E0810FD0
:104070008D8F82E298E00E949C08FE01E10FF11D05
:10408000868FDDCF89E790E00E94A4439827892797
:1040900098279093420C8093410C80D41092400C4E
:1040A00010923F0C089590919A0C9A3F30F4E92FAA
:1040B000F0E0E358F34F868F9F5F90939A0C08953A
:1040C000E091900EF091910E82E0848F0895FF921E
:1040D0000F931F93CF93DF93E091900EF091910E89
:1040E0008091920E86FF84C0158E91E0948F20916E
:1040F0003F0C3091400CA9014F5F5F4F5093400C33
:1041000040933F0C232B29F4909153029460909399
:104110005302982F9073911102C087FF06C0158E2D
:10412000DF01A85EBE4F1C92148E81FF30C000914B
:10413000950E1091960E0115110549F128E130E216
:104140003093290A2093280A2091990EC22F80913A
:104150009A0ED82F0C0F1D1F69918CE196E00E94DA
:104160007C0880912006909121068115924031F4BF
:10417000E0912A0AF0912B0A84E00995C017D10733
:1041800059F7E0912A0AF0912B0A84E00995809171
:10419000920E82FD4BC08B74882309F442C0C091FB
:1041A000900ED091910E4D8D4423D9F18E01025E77
:1041B0001F4F50E0B8018091990E90919A0E0E9485
:1041C00085436D8D70E08091990E90919A0E0E94BA
:1041D0001C2BFD8C4F2D50E0B801CE01875E9E4F09
:1041E0000E948543FE01E85EFE4FF0821D8E19C0DD
:1041F000948D923009F08DCF81E0848F80E180939F
:10420000920E80913F0C9091400C01979093400C3E
:1042100080933F0C892B29F4809153028B7F8093EC
:104220005302CDB7DEB7E5E00C943B426091900EAF
:104230007091910EEB01C85EDE4F4881442389F3F3
:1042400050E0675E7E4F8091990E90919A0E0E9489
:104250008543688170E08091990E90919A0E0E943A
:104260001C2BDFCF14988AE30E947A3280E00E94F0
:104270007A32149A0895CF93C82F14988AE70E942F
:104280007A328C2F0E947A32149ACF910895CF936C
:10429000C82F40EA63E08FE187D06C2F637040E85D
:1042A0008FE182D0C093450CCF910895CF93DF93D7
:1042B000C82FD82FDF71DB3188F490E025E0959589
:1042C00087952A95E1F7AC01437055272091450C5D
:1042D00030E04217530711F08370D9DF14988D2F07
:1042E0000E947A3280E00E947A32C7FF03C080E0E9
:1042F0000E947A32149ADF91CF91089514988FEF2B
:104300000E947A328DE1D2DF80FFFCCF149A0895AB
:10431000CF93DF93C62FD82FDF71DB3188F490E085
:1043200025E0959587952A95E1F7AC0143705527CF
:104330002091450C30E04217530711F08370A7DF3E
:1043400014988D2F80640E947A328C2F0E947A32CA
:10435000149ADF91CF910895CF93682FC92F80E0F1
:10436000D7DF6C2F81E0D4DFCF910895CF93682FF2
:10437000C92F82E0CDDF6C2F83E0CADFCF91089593
:10438000CF93DF93D62FC72F682F84EDC1DF6D2F1A
:1043900086EDBEDF6C2F87EDBBDF8AEE87DF80FD09
:1043A000FCCFDF91CF9108951F93CF93DF93C62F5A
:1043B000D42F182F1F711B3188F490E025E09595BC
:1043C00087952A95E1F7AC01437055272091450C5C
:1043D00030E04217530711F0837059DF1498812F92
:1043E0008D2B0E947A328C2F0E947A32149ADF91A0
:1043F000CF911F910895CF93682F84ED89DF40E816
:1044000061E082EDD1DF8AEE51DF80FDFCCF40EA32
:1044100061E082EDC9DF88ED49DFC82F89ED46DF15
:10442000982F8C2FCF9108950C9A149A67DF60E033
:1044300088E06EDF60E089E06BDF6FEF8AE068DFC5
:104440006FE08BE065DF60E084E062DF60E185E0E3
:104450005FDF60E08CE05CDF60E08DE059DF60E012
:104460008EE056DF60E08FE053DF1092440C109234
:10447000430C40EA60E881EC97DF40E86DE080ECB7
:1044800093DF40E862E382EC8FDF60E070E080E081
:1044900077DF80E0B0DF90FF42C040E861E082EC6F
:1044A00083DF62E184EC34DF62E186EC31DF6CE0D3
:1044B00087EC2EDF60EE8AEC2BDF65E08BEC28DFEB
:1044C0006091FB0F84EE24DF6091FC0F85EE20DF0E
:1044D0006091FD0F82EE1CDF6091FE0F83EE18DF0E
:1044E0006091FF0F80EE14DF6091001081EE10DF0D
:1044F00063E888E30DDF62E17CE084E141DF6BED9E
:104500008BE106DF62E170E082E13ADF40E864E0DF
:104510008FE14ADF40E860E88EE146CF089540EA47
:1045200061E082EC41DF65E1BDCF7ECF0895CF939E
:10453000DF93EC01688184EEEBDE698185EEE8DED5
:104540006A8182EEE5DE6B8183EEE2DE6C8180EED5
:10455000DFDE6D8181EEDCDEDF91CF910895BC015D
:1045600084E10ECF08950F931F93CF93DF93C4E69A
:104570008FE19CDE83FF31C0C150D0F760E084E062
:10458000C7DE60E185E0C4DE6091950E86E0C0DEA6
:104590008091950E9091960E905F692F87E0B8DE1E
:1045A00080E090E1E3DE80E066DE0BE91EE0C0E043
:1045B000D0E08091950E9091960EC817D907A0F083
:1045C00040E860E88FE1F0DE40EA60E88FE1ECDE91
:1045D00040E868E08FE1E8DE02C0C111CFCFDF9193
:1045E000CF911F910F910895F80181918F0143DEC2
:1045F0002196DFCFA4E0B0E0E0E0F3E20C941A42B1
:1046000089E354DE882351F18091430C9091440C4E
:10461000A3DE28DE182F26DE982F812F9093440CDE
:104620008093430C8E010F5F1F4F7E0125E0E20E49
:10463000F11C68010F5F1F4F15DEF60180830E1518
:104640001F05B9F789819A818C01045011091A83D9
:10465000098342978135914038F0E6DE80E090E0B2
:104660002496EAE00C943642E12CF12C8BE9C82E1A
:104670008EE0D82E56012FEFC21AD20AF3DDF501D3
:104680008083FFEFEF1AFF0AE016F10698F310930C
:10469000960E0093950E8091A70E9091A80E8830EB
:1046A000910511F18830964049F40E94E72B8091E2
:1046B000950E9091960E892B09F055DF6091430C71
:1046C0007091440CCB01019781159041C0F06FEFC0
:1046D0008CE01EDE6FE08DE01BDE40E860E48EE1E2
:1046E00063DE81E090E0BCCF81E069D18091950EDE
:1046F0009091960E892B11F30E94872CDECF61508A
:104700008CE006DE8091430C9091440C0197692F58
:10471000E2CFCF9389E3CADD882311F18CE1C6DDB6
:10472000C82F40EA60E88BE13FDEC3FF08C040EAE3
:1047300068E08CE139DE40EA6AE08DE135DE5ADF7F
:10474000C0FF04C040EA61E08CE12EDEC1FF04C07E
:1047500040EA62E08CE128DE40E860E88BE124DE9C
:10476000CF91089582ECA2DD8273823311F05CCE8A
:10477000089580EC9BDD8D30D1F70895CF93DF93C2
:10478000DB019A01FA013197E60FF71FAB01EA014D
:104790004E175F07D8F0AD01415051092E7FE41745
:1047A000F50710F420E030E02A0F3B1F2E173F07DB
:1047B00051F4208130E0322F2227820F931F82177D
:1047C000930708F40196DF91CF9108954E5F5F4FF4
:1047D00068817981762767277627860F971F861746
:1047E0009707A8F60196D3CFFC019B014381460FA2
:1047F0004093490CA72FBB278281830F8093480CDD
:1048000091819093470C60816093460C50E0332770
:10481000E82FF0E0EA17FB0780F49F5F9093470CC6
:10482000992339F042175307C0F48F5F8093480CE7
:1048300008956F5F6093460CF5CF4217530768F4F5
:104840008F5F8093480C811108C09F5F9093470C45
:10485000911103C06F5F6093460C0895BC01809175
:10486000900E9091910E0896BFDFE091900EF0911E
:10487000910EA6E4BCE08C91808711968C911197E3
:10488000818712968C911297828713968C918387D9
:10489000089544E150E069EA7EE080E090E06EDF58
:1048A0009C01009719F0982F832F08958FEF9FEFA9
:1048B0000895CF93DF93C091AB0ED091AC0EDC275F
:1048C000CD27DC2748E050E065EB7EE0CE010E9777
:1048D00055DFAE01445151096DEB7EE04FDF9C0185
:1048E000982F832F232B11F48FEF9FEFDF91CF9120
:1048F000089510927C0C10927B0C1092960C81E023
:1049000080930F1010924F0C10924E0C0895FC01E2
:10491000809110109091111040914E0C50914F0CBD
:10492000019681152DE7920710F080E090E1382F75
:10493000292F42175307A1F3909311108093101061
:10494000452BC9F410920F1030934F0C20934E0C4E
:104950006093500C7093510C309799F4EAE4FCE0AA
:1049600084E0DF011D928A95E9F780E48093520C80
:104970008AE49CE0089581E080930F1080E090E04D
:1049800008958081918190934B0C80934A0C828191
:10499000938190934D0C80934C0CE7CF20917B0C2E
:1049A00030917C0C232B39F410920F1080937B0CE8
:1049B00090937C0C089581E080930F100895CF921E
:1049C000DF92EF92FF921F93CF93DF93C091900EEF
:1049D000D091910E843009F457C121ED3EE030931F
:1049E0009A0E2093990E3093980E2093970E833051
:1049F000C1F4898D8F70833009F043C0888999890B
:104A0000892B09F03EC088E08093920EE7DA80910E
:104A1000920E85FF72C51092940E1092930E198E0D
:104A200051C0823009F00AC1809115108F5F8093C8
:104A30001510811113C0809114108F5F8093141092
:104A400081110CC0809113108F5F8093131081111E
:104A500005C0809112108F5F809312101092960EF5
:104A60001092950E1092940E1092930E898D982F9D
:104A70009D7F953059F48A8D8F5F8A8F883709F42E
:104A8000198E1092960E1092950E1EC38823C9F3AC
:104A900028893989232B09F4CEC09A8D2FEF290F4D
:104AA0002A8F9111EECF9B8D983039F02FEF280F80
:104AB000223008F085C0953079F4198E80E8809313
:104AC000920E8CDA84E18093CA0E88E290E0909393
:104AD000960E8093950EA4C0392F953008F034E0DF
:104AE00023E001C0220F3A95EAF72A8F9F5F9B8F40
:104AF000843008F097C0813021F682E18093CA0E9D
:104B000082E08093D10E84E08093D20E81E0809386
:104B1000D30E88E28093D40E8CE290E09093960EB0
:104B20008093950E80E68093C90E88858093C50E8C
:104B300089858093C60E8A858093C70E8B85809366
:104B4000C80E8C858093C10E8D858093C20E8E8594
:104B50008093C30E8F858093C40E86E08093B20E3F
:104B60008C819D819093BE0E8093BD0E8E819F811E
:104B70009093C00E8093BF0E8091091090910A10FF
:104B80009093B60E8093B50E80910B1090910C10FF
:104B90009093B80E8093B70E888199819093BA0E46
:104BA0008093B90E8A819B819093BC0E8093BB0E3B
:104BB000898D84FF3AC51092CC0E1092CB0E11C392
:104BC000392F953008F034E023E001C0220F3A95E8
:104BD000EAF72A8F9F5F9B8F8F70833009F088CF11
:104BE00084E08093920EFAD98091970E9091980E5E
:104BF00090939A0E8093990E8091930E9091940EBB
:104C0000892B09F4ADC488899989009709F4A8C44F
:104C1000889628E19093960E8093950E2093CA0E65
:104C200080E581CF982F9D7F943019F0883009F06E
:104C300028CF81E148CF8F708330E3CE853009F0F3
:104C4000A1C0E091790CF0917A0C84819581892B37
:104C500009F417CF1092910E1092900E85EC9EE001
:104C600090939A0E8093990E9093980E8093970E3E
:104C70001092940E1092930E1092960E1092950E22
:104C800088E08093920EB9D98091930E9091940E02
:104C9000009709F4F6CE9C01245E3F4F3093960EA8
:104CA0002093950E3227232732273093AC0E209382
:104CB000AB0EE091790CF0917A0C20852093B10E27
:104CC00021E12093B20E0896982789279827909380
:104CD000C20E8093C10E1092C40E1092C30E848136
:104CE00095819093BE0E8093BD0E8681978190939F
:104CF000C00E8093BF0E8091091090910A1090937E
:104D0000B60E8093B50E80910B1090910C1090937D
:104D1000B80E8093B70E808191819093BA0E8093E4
:104D2000B90E828193819093BC0E8093BB0E81ED6E
:104D30009EE090939A0E8093990E85E48093A90E3D
:104D40001092AA0E1092B00E1092AF0E8091161013
:104D50009091171001969093171080931610982732
:104D6000892798279093AE0E8093AD0E1092B40EC3
:104D70001092B30E8EDD809590959093B40E809333
:104D8000B30EA2C18091A90E853409F07ACEC091EC
:104D9000AB0ED091AC0EDC27CD27DC278091950E91
:104DA0009091960E8C179D0708F46BCED093960EBB
:104DB000C093950E8091AF0E8F731091B00E182B8B
:104DC00011115FCEC0900910D0900A10E0900B1026
:104DD000F0900C10C6018E299F29892B81F08091BB
:104DE000B90E9091BA0EC816D90609F04ACE809134
:104DF000BB0E9091BC0EE816F90609F042CE49DDD3
:104E0000019609F03ECE8091B20E863009F0C7C0FF
:104E100050DD019609F035CE8091960C9091CA0E26
:104E2000882369F14091BF0E5091C00E2091810CF2
:104E30003091820C4217530711F54091BD0E5091ED
:104E4000BE0E2091830C3091840C42175307B9F4A5
:104E50004091B50E5091B60E20917D0C30917E0C94
:104E60004217530761F44091B70E5091B80E20914C
:104E70007F0C3091800C4217530709F431C1292F60
:104E80002F73223009F041C12091BF0E3091C00E26
:104E900030930E1020930D1040917B0C50917C0CA0
:104EA0002417350709F02EC18111B9C180930F1065
:104EB0008DE79CE09093910E8093900E83E0809319
:104EC000970C8093950C1092930C84E08093940C33
:104ED0001092980C3093820C2093810C8091BD0E1F
:104EE0009091BE0E9093840C8093830C8091B50EAC
:104EF0009091B60E90937E0C80937D0C8091B70EAE
:104F00009091B80E9093800C80937F0C81E08093F9
:104F1000960C809112108093890C809113108093CD
:104F20008A0C8091141080938B0C809115108093C3
:104F30008C0C81E090E090938E0C80938D0C80918E
:104F4000C40E8093880C8091C30E8093870C80914F
:104F5000C20E8093860C8091C10E8093850C81E0F7
:104F600090E07CDC8091C90E982F907F9135A0F065
:104F700082958F708550990B880F991F880F991F04
:104F8000E12FF0E0E817F9072CF4E556F14F36A9C8
:104F900031114DC110930F10CDE7DCE0AECD813162
:104FA00009F063C06C97D093960EC093950EE09174
:104FB000BF0EF091C00E2091BD0E3091BE0E4091FB
:104FC000B50E5091B60E6091B70E7091B80E8091EB
:104FD0004E0C90914F0C009709F440C0E817F90768
:104FE000E9F58091500C9091510C0097A1F520911A
:104FF0004A0C30914B0C80914C0C90914D0C21152A
:10500000310539F1F901E823F923319631F04217DE
:10501000530721F56817790709F58AE49CE0909316
:105020007A0C8093790C1092910E1092900E82E07F
:105030008093920E85EC9EE090939A0E8093990E49
:105040009093980E8093970E1092940E1092930E58
:105050001ACE0097DBCF2817390749F289E79CE081
:1050600090937A0C8093790C0CCD813009F009CDA6
:105070008091BD0E883009F004CD1092BD0E809154
:10508000BF0E9091C00E873F2FEF920738F109961F
:105090009093C00E8093BF0E8091B50E9091B60E86
:1050A0009093BA0E8093B90E8091B70E9091B80E7E
:1050B0009093BC0E8093BB0ED092B60EC092B50EEC
:1050C000F092B80EE092B70E1092920EDF91CF914F
:1050D0001F91FF90EF90DF90CF9008950896D8CF62
:1050E0002DE73CE03093910E2093900E1092920E9B
:1050F00092FFC2C01092960C80E28093920E0E94A2
:10510000EE1FBFCC81E080930F1092FDBACC84E1FA
:105110008093CA0E88E290E09093960E8093950E4D
:1051200080E58093C90E3091C40E8091C80E8093A3
:10513000C40E2091C30E8091C70E8093C30E20939E
:10514000C70E9091C20E8091C60E8093C20E9093AE
:10515000C60E8091C10E80930F104091C50E4093F2
:10516000C10E8093C50E3F5F3093C80E31110DC044
:105170002F5F2093C70E211108C09F5F9093C60E2A
:10518000911103C08F5F8093C50E8091BD0E9091E9
:10519000BE0E90930E1080930D102091BF0E309193
:1051A000C00E3093BE0E2093BD0E9093C00E809320
:1051B000BF0E8091B50E9091B60E9093BA0E80936B
:1051C000B90E8091B70E9091B80E9093BC0E80935B
:1051D000BB0ED092B60EC092B50EF092B80EE09211
:1051E000B70E80E48093B10E8091950E9091960E4B
:1051F0009827892798279093AC0E8093AB0E109236
:10520000D00E1092CF0E1092CE0E1092CD0E51DB1A
:10521000809590959093CE0E8093CD0E8ECD873055
:1052200021F081E080930F102CCC81E03FCE313013
:1052300011F41F5FA5CE27A93230C9F42430B9F488
:1052400010930F1090AD81AD90930E1080930D10C0
:105250008932A1E09A0710F088E291E09093900CD7
:1052600080938F0C9093920C8093910C95CE222377
:1052700009F490CE120F84CE2091C90E22952F7082
:10528000220F220F20930F106497C21BD109D093D5
:10529000960EC093950E8F70823021F4892F8F73F4
:1052A0008231F1F0CD2B21F4892F83708823C1F056
:1052B0003091860C2091870C8091880C5091C10E02
:1052C0004091850C54137DC14091C20E431379C1A6
:1052D0003091C30E321375C12091C40E281371C1D1
:1052E00094FF58C060918D0C70918E0C6115710502
:1052F00009F450C089E89CE077DA8091460C30913F
:10530000C50E381347C08091470C2091C60E281354
:1053100041C08091480C9091C70E98133BC04091BA
:10532000490C8091C80E841335C03093890C2093AA
:105330008A0C90938B0C80938C0C8091980C81112B
:105340001EC08091930C2091950C9091970C291B75
:10535000982F969596959695291B820F8093930C7E
:105360009091940C392F36953695931B920F90930C
:10537000940C869586958695890F8093950C81E08F
:105380008093920E8091950C8093970C10928E0CC6
:1053900010928D0C2091960CE22FEF70E150E830C6
:1053A00008F06FCBF0E0E753FC4B0C94EC4180919C
:1053B000920E80FF66CB83E08093960C80E480930E
:1053C000920E10928E0C10928D0C8091950E9091F1
:1053D000960E009721F022E42093920E3FDA10926D
:1053E000940E1092930E0E94EE1FCDE7DCE00FCBDF
:1053F0008091CA0E80FF2EC024FD2CC080918D0CA0
:1054000090918E0C892B09F03CCB8091950E909158
:10541000960E019623DA8091920E982F90619093C8
:10542000920E2091950E3091960E232B19F08261E9
:105430008093920E0E94EE1F81E090E090938E0C7C
:1054400080938D0C88E08093960C1092980CCDE799
:10545000DCE0EFCB85FF1BC04091950E5091960E7E
:105460008091CF0E9091D00E982789279827609130
:10547000990E70919A0E680F791F70939A0E60932F
:10548000990E481B590B5093960E4093950E4091E0
:10549000950E5091960E4115510549F024FD07C017
:1054A0009091920E92609093920ECA01D7D920915A
:1054B000CB0E3091CC0E522F432F50930E104093B1
:1054C0000D108091910C9091920C8417950710F01B
:1054D000232B21F490930E1080930D1080910D10CA
:1054E00090910E109093900C80938F0C8091920E5F
:1054F0008370882309F4C5CA72CF84FF0CC0109250
:10550000940E1092930E81E090E0998B888B84E04A
:10551000898F1B8E8ECB2091930E3091940E211586
:105520003105B9F080FF02C0198A188A88899989E3
:10553000009789F48A899B898217930720F49093B6
:10554000940E8093930E8091930E9091940E998B6C
:10555000888B1B8E49CB9093940E8093930EF9CF3A
:105560008091920E81FF8DCA88E290E020E152CBBB
:105570008091920E80FF85CA1092960C80E1BDCD7D
:105580008091950E9091960E009709F067D98091C1
:10559000920E81709091CA0E90FF1BC08823A9F0D3
:1055A00087E08093960C1092970C10928E0C1092BC
:1055B0008D0C81E090E052D980E18093920E0E94A0
:1055C000EE1F80E1CDE7DCE07ECA86E08093960C9A
:1055D000F0CF8823C9F085E08093960C10928E0C52
:1055E00010928D0C4ECA8091950E9091960E009758
:1055F00009F034D98091CA0E80FF06C087E08093FD
:10560000960C1092970CD5CF8091950E9091960E96
:10561000892BB9F636CA8091920E80FF32CA87E094
:105620008093960C1092970C2CCA81E08093CB0E3D
:1056300088E28093CC0ED5CD9C01AB0116161706DF
:1056400074F47093940E6093930E8091970E9091E2
:10565000980E8217930719F0B9010C9485430895A9
:10566000CF93DF936091B70E7091B80EC091B90ED1
:10567000D091BA0EA0E2B0E1FD0180E090E0883068
:105680009105B9F5E0E2F0E180E0EF0120813181A0
:10569000232B29F422813381232B09F458C08F5FF7
:1056A0003B96883091F780911910482F50E090E098
:1056B000C0E020E01A963C911A97FA01E31BF10929
:1056C000622F70E06E177F071CF4282F231BC92F51
:1056D0009F5F1B96983071F7C0931A102093181093
:1056E000C0931B10FBE0CF9FE0011124C05EDF4E92
:1056F00032C0408151814115510531F12281338100
:105700002115310509F146175707F1F42C173D070C
:10571000D9F480931B104BE0489F9001499F300DB6
:105720001124D901AC5DBF4E86E0E1EBFEE00190B3
:105730000D928A95E1F7205E3F4E80911910F90194
:105740008287DF91CF91089501963B9698CF809301
:105750001B108091191094E0E7EBFEE0DE01019050
:105760000D929A95E1F796E0E1EBFEE0DE011496EA
:1057700001900D929A95E1F78A87E3CF80911910F5
:105780008F5F8093191020E03BE090E064E020936D
:105790001B10283009F40895329FF0011124E05EB7
:1057A000FF4E40815181A281B3814A2B5B2B452B57
:1057B00061F04285DC01A41BB109A837B1052CF0CA
:1057C000DF01462F1D924A95E9F72F5FE0CF8091C8
:1057D000950E9091960E1092960E1092950E8A97B5
:1057E00008F408958091AF0E9091B00E811521E0DC
:1057F000920729F08115924009F471C00895209113
:10580000C10E3091C20E8091091090910A10281794
:10581000390709F07BC02091C30E3091C40E8091EE
:105820000B1090910C102817390709F06FC018DF82
:1058300080E092E09093B00E8093AF0E86E0E1EBB3
:10584000FEE0ABEBBEE001900D928A95E1F786E0B9
:10585000EBEFFFE0A1EBBEE001900D928A95E1F73E
:1058600086E0EBEFFFE0A1EABEE001900D928A95A1
:10587000E1F786E0EBEBFEE0ABE9BEE001900D92D4
:105880008A95E1F78091B70E9091B80E9093C20E71
:105890008093C10E8091B90E9091BA0E9093C40E70
:1058A0008093C30E8091091090910A109093B80EC6
:1058B0008093B70E80910B1090910C109093BA0EBC
:1058C0008093B90E88E096E09093A80E8093A70E7F
:1058D0008AE290E09093960E8093950E0895209121
:1058E000C10E3091C20E8091091090910A102817B4
:1058F000390761F42091C30E3091C40E80910B10D2
:1059000090910C102817390709F4AACE0895A0E049
:10591000B0E0EDE8FCE20C941C422091B90E30910D
:10592000BA0EC091BB0ED091BC0EC9018C239D2331
:105930000196F1F486E0E5E3F2E0ABE9BEE0019028
:105940000D928A95E1F786E0EBEFFFE0A1EABEE079
:1059500001900D928A95E1F788E090E09093A80E6F
:105960008093A70E8091950E9091960E0E969CC0F6
:10597000E0900910F0900A1000910B1010910C109B
:10598000C9018E259F25409101105091021084235A
:105990009523AE01402751276091031070910410A8
:1059A00046235723842B952B892B09F486C080919D
:1059B00005109091061090931D1080931C10C091BB
:1059C0000710D0910810D0931F10C0931E10C090E4
:1059D0001C10D0901D10E0E2F0E180E020813181C8
:1059E000C216D30631F4228133812C173D0709F406
:1059F00069C08F5F3B96883089F780931B1046E023
:105A000050E06FEF70E08BE99EE00E948E4386E0ED
:105A1000EBEBFEE0DF01482F1D924A95E9F7EBEF33
:105A2000FFE0A1EABEE0982F01900D929A95E1F770
:105A3000EBEFFFE0A1EBBEE0982F01900D929A955D
:105A4000E1F7D092C20EC092C10ED093C40EC093A3
:105A5000C30EF092B80EE092B70E1093BA0E0093F8
:105A6000B90E20E031E03093B00E2093AF0E3093AA
:105A7000AA0E2093A90E28E030E03093AC0E2093BC
:105A8000AB0E8093AD0E84E08093AE0E88E096E07E
:105A90009093A80E8093A70E81ED9EE090939A0EAE
:105AA0008093990E8AE290E09093960E8093950EE3
:105AB000CDB7DEB7E8E00C94384230931D10209348
:105AC0001C1081CF80931B10349686E036CFCF9385
:105AD000DF93EC017B836A830E94FF0399838883B1
