:10000000CCC100000C947214E6C10000E4C10000F1
:10001000E2C10000E0C10000DEC10000DCC1000060
:10002000DAC10000D8C10000D6C10000D4C1000070
:10003000D2C100000C940C14CEC10000CCC1000051
:10004000CAC30000C8C10000C6C10000C4C100008E
:100050000C9420230C94EA22BEC10000BCC1000015
:10006000BAC10000B8C10000B6C10000B4C10000B0
:10007000B2C10000B0C10000AEC10000ACC10000C0
:10008000AAC10000A8C10000A6C100006DB82242AC
:10009000420762D627433103464D0969B718411E0E
:1000A0000C5A820E4751094D89094BF90959F31A27
:1000B00052AC0654231E56A90757EE065808106581
:1000C000690766EE216C3007744D0475031778F8E4
:1000D00002000000202F2000203D2000072E050DEB
:1000E000D391FF080500000C0021656A2D3B132207
:1000F000F862073F181D1CC700B0876BF8B611EAFD
:100100002A001F41000D2E2D07D3913D043200001F
:10011000060021656A55E43023B900070018146C05
:10012000070090876BF85611E92A001F4100000371
:100130000F1E2627000000030F1E25363867000318
:100140000F256740605000030F275188838100030B
:100150000F2750C8C3C2002700000000000000673E
:1001600000000000000000500000000000000081BE
:1001700000000000000000C2000000000000504C21
:100180004C310D0A00504C4C300D0A005620312ED7
:1001900036382043534D38363800202F2000203D7C
:1001A00020004C4F56460D0A004552523A434341F7
:1001B0000D0A000B08105B11F81547191D1A1C1BBE
:1001C000C71C001DB221B623EA0007022E030D044E
:1001D000E905CA070C0B060D210E650F6A10C81140
:1001E00093120315341733181819161B432156257B
:1001F00000261129592C812D353EC34C454E4552C0
:10020000520D0A004C4F56460D0A004C454E4552C1
:10021000520D0A000007024604C605260B0610C848
:100220001193120313221534173F182819161B4374
:100230002156250026110D210E650F6A070C1607A1
:1002400020F81E871F6B29592C812D353EC3FF00D6
:10025000424F56460D0A000D2E2D07D3913D043214
:100260000000060010B07155E43023B900070018F3
:10027000146C070090876BF85611E92A001F4100A3
:100280000D2E2D07D3913D04320000060010ABA5C2
:10029000550A3023B900070018146C070090876BCB
:1002A000F85611E92A001F41004E2F4100454F42E8
:1002B0000D0A004E2F41004E2F41000053530054B1
:1002C0007D7DFFFF4B4B7E7E0020697320756E6B3A
:1002D0006E6F776E2920557365206F6E65206F668F
:1002E000003F2028004F4646004F464600434D4FF2
:1002F000444500544D4F444500534D4F4445000480
:1003000054053D1700000602000B080C000D210EDD
:100310006B0FD0105C11041206132214F80A00159A
:100320004421B622101818192E1ABF1B431C091D90
:10033000B523EA242A2500261F29592C812D352E84
:100340000907040800090006FF3EC2FF047605966F
:100350001700000602000B080C000D210E650F6A45
:10036000106A114A1206132214F80A00154721B622
:1003700022101818192E1A6D1B041C091DB223EA2D
:10038000242A2500261F29592C812D352E090704E2
:100390000800090006FF3EC2FF0011241FBECFEF78
:1003A000D0E4DEBFCDBF11E0A0E0B1E0E4E8FBE5C2
:1003B00000E00BBF02C007900D92A838B107D9F733
:1003C00028E0A8E8B1E001C01D92AA3FB207E1F71A
:1003D00003D00C94C02D14CE0FB6F894A89580913C
:1003E0006000886180936000109260000FBE089AE0
:1003F000109A099A119A0E94F62398D589EF87BD21
:1004000084E085BD82E084BD80936E001092800000
:100410008AE08093810080E890E00FB6F8948093A2
:100420006100909361000FBE84B7877F84BF88E12D
:100430009FE00FB6F894A895809360000FBE90934C
:10044000600089E190E80E9455230E94DC1D0E9413
:10045000E10F8CEA93E29093F1048093F00481E041
:10046000809391010E94241680919101886080936D
:100470009101119878940E9475230E94BC1123D297
:100480000E9434220E94A5170E94BC0A0E940C0EF2
:100490000E944225F0CF8EBD0DB407FEFDCF8EB574
:1004A0000895EF92FF920F931F93CF93C82F8A3036
:1004B00008F0C8E028E0C29FC0011124FC01E25D01
:1004C000FE4F7F010BE210E0F7016491C8010F5F5E
:1004D0001F4F25D4FFEFEF1AFF0A03331105A1F7D1
:1004E000C55061E1C53008F067E184E290E017D4BF
:1004F000CF911F910F91FF90EF9008950F931F934D
:10050000CF93DF9305E011E0C2E0D0E0F801649101
:10051000CE01219604D40F5F1F4FCB32D105B1F726
:100520000CED10E0C7E3D0E0F8016491CE01219614
:10053000F6D30F5F1F4FC036D105B1F788E0B1DFAA
:10054000DF91CF911F910F9108952C98806CA3DFBC
:1005500080E0A1DF2C9A0895CF93C62F2C98806459
:100560009ADF8C2F98DF2C9ACF9108952C9893DFE7
:100570002C9A08950F931F93CF93DF93EC01109261
:100580009B01E898249A2C9A8EE190E014D22C9842
:100590008EE190E010D22C9A8DE290E00CD280E3B4
:1005A000E5DF84E690E007D22C9880E474DF8E01CA
:1005B000075D1F4FCE012196B7D36DDF0C171D07C6
:1005C000C9F72C9A2C988EE766DFCBE2D0E0CE01FB
:1005D0002196AAD360DFC333D105C9F72C9A83E3F0
:1005E000C5DF81E0EDD1DF91CF911F910F9108958B
:1005F000A1E0B0E0EEEFF2E00C94522C22E029836F
:1006000041E0BE016F5F7F4F019626D3898149DFAC
:1006100082E090E0AFDF2196E2E00C946E2CCF9365
:10062000E89886E3A3DFCFEF85E3A0DF8077803211
:1006300031F08AE090E0BFD1C150C111F5CFCF9128
:100640000895CF93CFEF84E391DF8077803131F04D
:100650008AE090E0B0D1C150C111F5CFE89ACF91B6
:100660000895A2E0B0E0E7E3F3E00C94502C8C0195
:10067000FC0181818737F1F441E0BE016F5F7F4F5C
:10068000C8010296E9D2892BA9F041E0BE016E5F54
:100690007F4FC8010496E0D2892B61F06A8189817D
:1006A0005BDF83E363DFCDDF8981D1D28A81CFD263
:1006B00049D218C041E0BE016E5F7F4FC80101966C
:1006C000CBD2892B79F08A81893981F410E0812F8E
:1006D0003CDFBDD2812F8770873009F433D21F5F92
:1006E0001033A9F72296E4E00C946C2C2EDF182F1F
:1006F00083E4D5D18A81ABD288ED90E016D2812FE8
:10070000A6D284ED90E011D240E262E0812F90E029
:100710001ED2CECF86E32ADF109288011092990173
:1007200010929B01089582E090E024DF81E08093A5
:1007300088011092990110929B0108950F931F93C5
:10074000CF93DF93D82FC0E0062F10E085E3FDDEC6
:100750008D1759F0C8012FD1C150C111F7CF81E0D9
:10076000DF91CF911F910F91089580E0F9CF85E23D
:10077000ECDE8F3311F080E0089586E3F7DE8091A0
:100780008901811112C085E891E0CFD183E3EEDECB
:1007900064E081E0D3DF85E2D8DE8F3361F78091BA
:1007A0008901882329F081E008958DE3DFDEEECF13
:1007B0008EE791E0BAD1F7CF85E3C7DE8D3051F4F3
:1007C00085E2C3DE8F3331F4D2DF84E3CFDE80777E
:1007D0008031D9F708951F921FB61F9211248F936D
:1007E0008BB78F939F93AF93BF93EF93FF938091BA
:1007F0008B0190918C01A0918D01B0918E01019699
:10080000A11DB11D80938B0190938C01A0938D014C
:10081000B0938E0180918A018F5F80938A01EAEE06
:10082000F2E080819181181619061CF401979183DA
:100830008083369683E0E230F80799F780912303AE
:1008400090912403009729F00197909324038093BB
:100850002303809127038F3F19F081508093270352
:10086000FF91EF91BF91AF919F918F918BBF8F912E
:100870001F901FBE1F901895FC018FB7F8944091F0
:100880008B0150918C0160918D0170918E0140839C
:100890005183628373838FBF0895A4E0B0E0E3E5E2
:1008A000F4E00C94522CCE010196E6DF8C81CFD17E
:1008B0008B81CDD18A81CBD18981C9D143D1249675
:1008C000E2E00C946E2C0F931F93CF9380918B01D9
:1008D00090918C01A0918D01B0918E012091900199
:1008E000281709F457C080918B0190918C01A09139
:1008F0008D01B0918E0180939001A8950AEE12E0CF
:10090000C0E0F80180819181892B19F48C2F0E941D
:100910004F20CF5F0A5F1F4FC43099F780912303A8
:1009200090912403892B11F40E94AD20809127031C
:10093000811102C00E9406218091DE02882339F0D5
:1009400081508093DE02811102C00E94371880918D
:100950008A018D37F8F010928A018091000181FFA1
:1009600004C082B192E0892782B98091930190916D
:1009700094018438F3E09F0728F401969093940142
:100980008093930180918F0191E0980F8B3331F028
:1009900090938F01CF911F910F91089510928F0125
:1009A000809125038F5F8C3318F480932503F2CF59
:1009B00010922503EFCF880F991F0197F1F7089543
:1009C00020ED37E0811101C00895F9013197F1F769
:1009D0008150F8CFCF93DF93FC018381843509F0F8
:1009E00055C08081DF0150962DE0281708F451C0D2
:1009F00030E090E0AC014F5051092417350709F061
:100A000045C0EF012396DC011E97AC0FBD1F2C9152
:100A10002435E1F5348111962C911197321336C0AB
:100A2000358112962C911297321330C0368113966D
:100A30002C91139732132AC0378114962C91149756
:100A4000321324C04197C80FD91F15968C91159762
:100A5000888316968C911697898319968C9119978D
:100A60008A831A968C911A978B831B968C911B976D
:100A70008C831C968C911C978D831D968C918E83F4
:100A800080818A50808382818A508283DF91CF91D6
:100A900008959D919B3309F4ABCF2F5FA6CFCF93E1
:100AA000C82F8091910180FF16C090916D049E37F0
:100AB00070F097FD10C0CD3051F0CA3041F09091E8
:100AC000E002992311F083FD20C0CF9108956C2F8F
:100AD0008BE694E048D28091E0028823B1F38091C4
:100AE000910183FFF2CFCA3081F3CD3071F46BE313
:100AF0008AE592E038D28AE592E06CDF83E0809369
:100B0000DE0282E08093DD02E0CF6C2F8AE592E086
:100B10002AD2F4CFCF93DF93EC018991811103C0E6
:100B2000DF91CF910895BBDFF8CFCF93DF93EC0136
:100B3000FE018491811103C0DF91CF910895AFDF51
:100B40002196F6CF8DE0ABDF8AE0A9CF0895A6E02D
:100B5000B0E0EDEAF5E00C944E2CFC01262F1E824D
:100B60008E010A5F1F4F35E08AE0E82EF12CCF019D
:100B7000B7010E941B2C3150805DD8018E938D01EE
:100B8000CF01FB010A97A8F4832F2550622F630F32
:100B9000615067FD02C0811110C021E030E02C0FD0
:100BA0003D1F280F311DC901B5DF2696E6E00C94E4
:100BB0006A2C3111DCCF80E0E8CF8150E1E0F0E039
:100BC000EC0FFD1FE80FF11D4083E2CFA5E0B0E080
:100BD000ECEEF5E00C94522C9C011D8254E0922F17
:100BE0009F709A3048F5905D8FEF850FE1E0F0E05F
:100BF000EC0FFD1FE80FF11D9083F90194E0F695CD
:100C0000E7959A95E1F72031310598F45550650F35
:100C1000615067FD02C0811111C021E030E02C0F4E
:100C20003D1F280F311DC90175DF2596E2E00C94A8
:100C30006E2C582F9F01D3CF995CD6CF8150E1E025
:100C4000F0E0EC0FFD1FE80FF11D4083E1CF40E322
:100C500062E090E0BBCF0895CF93DF93EB01FB01FF
:100C600030E020E0DC019D91992331F0913670F065
:100C70008FE9890F863030F0CF018C1B9D0BDF91FF
:100C8000CF91089590529753292B05C080ED890F7D
:100C90008A3050F4282B332389F021934150442388
:100CA00059F330E020E008C08FEB890F863058F30D
:100CB000903211F09A3301F7CD01D4CF2295207FE5
:100CC00031E0FACFDB0120E030E04AE0FC01819125
:100CD000811103C02D933C93089590ED980F9A30A5
:100CE00050F4429FB001439F700D11248053990B23
:100CF0009C01260F371FCF01E9CFFB01982F92955A
:100D00009F70803A40F4905D90838F708A3028F411
:100D1000805D81830895995CF7CF895CFACF0E944A
:100D2000B22DF999FECF08950C94AA2D08950F9332
:100D30001F93CF938C01CFEFC60FC801F5DF87DF7C
:100D4000CC2331F00F5F1F4F8AE3A9DEC150F5CFEE
:100D5000CF911F910F910895A2E0B0E0E2EBF6E091
:100D60000C944F2CFC0181818D3449F466E08AEFAC
:100D70009FE0DDDFE7DE2296E5E00C946B2C80350A
:100D800021F460E18AED9FE0F4CF1A82198242E0FB
:100D9000BE016F5F7F4FCF0101965EDF098110E0DA
:100DA000823029F409811A81102701271027C801F0
:100DB000BBDFF82E82E573DE40E364E0C80106DFA6
:100DC0008EE991E0B2DE8F2D42DF8AE991E0ADDE5F
:100DD00040E262E08F2D90E0BADECCCFA6E0B0E03A
:100DE000E4EFF6E00C944A2C6C0143E0CE0101964E
:100DF0007C01BC01C60101962FDF8C01BE2CAF2CFB
:100E00008230D0F0E980F12C823029F0E980FA803C
:100E1000FE24EF24FE241127FE01E00FF11F608164
:100E2000C7017DDF000F111F0F5F1F4F0C0D1D1D30
:100E3000F8018081811104C02696EAE00C94662CAA
:100E400041E06B2D7A2DC80107DF892BA9F39FEFB5
:100E5000E91AF90A6981C70162DF0E5F1F4FE8CF07
:100E600041E060E071E00196F7DE8091000180FFD3
:100E700007C0119A6091000184E390E050CF08957B
:100E80001198F8CFA1E0B0E0E8E4F7E00C94522C20
:100E90001982009731F041E0BE016F5F7F4F0196EC
:100EA000DBDE89818F3F09F4FFCF882321F061E0E9
:100EB00083E390E034DF10926E00F89488E198E0CC
:100EC0000FB6F894A895809360000FBE90936000D1
:100ED000FFCFCF93DF93EC0161E080E090E01FDF74
:100EE00064E481E090E01BDF09DB60E080E690E0F5
:100EF00016DF60E081E690E012DF60E083E390E0DF
:100F00000EDF62E084E390E00ADF60E080E690E0DC
:100F100006DF60E081E690E002DF8981883719F022
:100F200080E090E0AFDFDF91CF91089580E090E026
:100F3000FBDE813029F481E090E0F6DE843419F0A4
:100F400080E090E0C6DF84E390E0EEDE8093000175
:100F500008958CE891E0E9DDF5CD0895FC01128259
:100F6000108211820895FC019FB7F894828187FF57
:100F700002C09FBF08958F5F8283A08181E08A0FA6
:100F80008083AE0FBF2FB11D13966C93803889F705
:100F90001082EFCFFC019FB7F8948281811102C0CB
:100FA0009FBF089581508283A18121E02A0F218370
:100FB000AE0FBF2FB11D13968C91203889F7118287
:100FC000EFCFCF93DF93FB01DA019C91882369F087
:100FD000EB01C90FD11D41E050E0022E01C0440FCA
:100FE0000A94EAF78881842B8883222331F02150E8
:100FF000822F90E0DF91CF9108959F5F9C3008F49D
:101000009C93E90FF11D108227E0F2CF299A8823E3
:1010100081F08091960120E1829FC0011124CBDCF8
:1010200029988091950120E1829FC0011124C3CCB1
:1010300008958091980120E1829FC0011124BBDCBA
:10104000299880919701EFCFA4E0B0E0EAE2F8E0C0
:101050000C94422C6C01362E2A83502EE982642E89
:10106000712C4E5F409F402D1124042E000C550B17
:1010700080919301909194018417950738F482EA46
:1010800091E053DD2496E2E10C945E2C841B950BD9
:101090009093940180939301119A40909B01442076
:1010A00039F010929B0185E891E0B2D74424439433
:1010B00080918801811101C036DBB1DAA32CB12CFB
:1010C00001E010E02A81E22EF12C1A82EA818E2FB3
:1010D000EE0F990B8A159B054CF1332011F081E03E
:1010E00095DF212C822D022C000C990B9C838B8385
:1010F000861597050CF127E0922E8C0D9D1D9C8383
:101100008B83892D092C000C990BE816F90674F1D4
:10111000898156DC5A945110D8CF8091A701882339
:1011200091F18FDA4110A3D31198ACCF80E06EDF3C
:101130008A818F5F8A83CACF37E0832E912C8B817F
:101140009C818C0D9D1D9C838B83C801082C01C044
:10115000880F0A94EAF7EB81FC819081892356DF9E
:10116000F1E08F1A910888F72394BCCFC801092CAD
:1011700001C0880F0A94EAF7EB81FC8190818923F2
:1011800045DF9A94BECF86E3F1D9CCCFADE0B0E095
:10119000ECECF8E00C94432C7C01162F842F022FEA
:1011A0006701C60ED11C462FB7014ED7F6018083CA
:1011B0001F5F1D861982C12CD12C27E0CE010D9610
:1011C00088248394912C582E492E97E0A92EB12C77
:1011D00037016C0C7D1CC116C8F0222309F440C0F5
:1011E000215089E1809397018093980185E2809353
:1011F0009501809396018AE0E82E4D856CE0CE0142
:10120000019622DF2D96E1E10C945F2CF3013080F2
:10121000C4010A2C01C0880F0A94EAF7452D542D09
:10122000BE016F5F7F4F8321CCDE282FF1E0AF1A24
:10123000B10888F6032C32943024032C369436946B
:101240003024339431FA882780F9452D542DBE017E
:101250006F5F7F4FB6DE282FEFEFCE1ADE0AB5CFD5
:101260008D858F5F8D8727E0BCCFACE0B0E0EBE3EE
:10127000F9E00C94502C162F042F4BE0BE016F5F49
:101280007F4F0196E9DC682F202F412FCE01019678
:101290007DDF2C96E4E00C946C2C43E066E0E5CF17
:1012A0000895EF920F93CF93DF93CDB7DEB760979A
:1012B0000FB6F894DEBF0FBECDBF40E1BE016F5F39
:1012C0007F4F0196C9DC69814A810B818C818093B3
:1012D00098018D81809397018E81809396018F81F3
:1012E00080939501E02EE2948FE0E8220F70242F86
:1012F0002F7042954F70CE010896A6DE60960FB60D
:10130000F894DEBF0FBECDBFDF91CF910F91EF906C
:101310000895A9E1B0E0EFE8F9E00C94482C4BE027
:10132000BE016F5F7F4F019697DC182F8930B1F5B2
:1013300089E180939701809398018093960182E3DD
:101340008093950169E0CE01019689D6E1E0F0E055
:10135000EC0FFD1FE10FF11D8083198E1D868E019C
:101360000F5F1F4F7E018BE0E80EF11C27E0CE01DE
:101370004996CC24C394D12C982E892EA12CB12C23
:101380000E151F0579F4222379F121508AE0E82E09
:1013900003E0498D6CE0CE010D9656DE6996ECE0D7
:1013A0000C94642CC6010A2C01C0880F0A94EAF739
:1013B000F8019081492D582DBE01635F7F4F89232D
:1013C00000DE282FFFEFAF1ABF0A88E0A816B1048D
:1013D000B9F6492D582DBE01635F7F4F81E0F1DDE5
:1013E000282F0F5F1F4FCACF898D8F5F898F27E00E
:1013F000CDCFA9E1B0E0EFEFF9E00C94442C4BE045
:101400008E010F5F1F4FB801019626DC782E85E311
:101410008093980196E19093970190939601809321
:101420009501672DC80127D6F801E70DF11D8083CE
:101430007394198E1D86780127E06E0189E1C80E2C
:10144000D11CAA24A394B12C8E2D801B871560F08B
:101450008AE0E82E03E0498D6AE0CE010D96F4DDC6
:101460006996E0E10C94602C812C912CF70150805E
:10147000C501082C01C0880F0A94EAF7A601BE0135
:10148000635F7F4F85219DDD282FFFEF8F1A9F0A15
:101490004C2C6D2C84E08816910441F7A601BE0106
:1014A000635F7F4F81E08DDD282FC501082C01C0CF
:1014B000880F0A94EAF7442D562DBE01635F7F4FD3
:1014C00085217FDD282FEFEF8E1A9E0AF8E08F1618
:1014D000910459F7442D562DBE01635F7F4F81E083
:1014E00070DD282F8FEFE81AF80AAECF0F931F9305
:1014F000CF93DF93E898249A2C9A8EE190E05BDA00
:101500002C988EE190E057DA2C9A8DE290E053DA35
:1015100080E32CD884E690E04EDAC9ECD1E0FE01FD
:1015200031966491FE01849117D82296F1E0CB3F69
:10153000DF07A9F780919A01882371F0C3EBD1E00E
:1015400009EC11E0FE0131966491FE01849104D80A
:1015500022960C171D07B1F783E308D884E030DA30
:1015600084E304D885E30E94A5028D30C9F7DF919A
:10157000CF911F910F910895A2E3B0E0E2ECFAE061
:101580000C944F2C809199018823A9F04A9B5CC050
:101590008FE30E94A5028F778983823380F08AE3EC
:1015A0000E94B60286E30E94B6028DE30E94B60254
:1015B00084E30E94B602E296E5E00C946B2C2C9832
:1015C0008FEF0E944B0210E08981181708F451C078
:1015D00080E00E944B02F82E80E00E944B022C9A81
:1015E00084E30E94B60285E30E94A5028D30C1F714
:1015F0009A8186E789278A830981FE01339682E0F2
:101600002191801708F441C0802F023008F482E055
:10161000E1E0F0E0EC0FFD1FE80FF11D8B81822768
:1016200080831091A70110711123B9F181E637DA97
:1016300010E0E1E0F0E0EC0FFD1FE10FF11D808113
:101640002EDA1F5F0117A8F785E30E94A5028130FB
:1016500029F0813161F48AE30E94B60286E30E9498
:10166000B6028DE30E94B60284E30E94B602A4D8BB
:10167000A2CF80E00E944B02E2E0F0E0EC0FFD1F01
:10168000E10FF11D80831F5F9FCFDF0111979452FF
:1016900092279C938F5F922FB3CF81E400DAE1E031
:1016A000F0E0EC0FFD1FE10FF11D8081D0DA1F5F2C
:1016B0000117A8F78091A70185FF02C08F2DC7DA17
:1016C00041DAC2CFAAE3B0E0E8E6FBE00C944C2C90
:1016D00041E39E012F5F3F4F7901B9010196BCDACA
:1016E000182F8150990B9C01898190E028173907A8
:1016F00009F063C080919901811103C0F7DE83E096
:101700005FD90B818A8196E789278A834981DE0127
:10171000129692E09D0111968C911197941708F4FE
:1017200050C0E42F423008F4E2E0EE0DFF2DF11D31
:1017300080278083CE01C7969FD885E30E94B6029A
:1017400085E30E94A502833109F451C0CE01C396FE
:1017500093D84BA95CA96DA97EA98FA998ADA9AD15
:10176000BAAD84179507A607B70798F5481B590B1C
:101770006A0B7B0B4D3B510561057105C0F189EA90
:1017800091E0D3D985E30E94A502863149F48BE329
:101790000E94B60286E30E94B6028DE30E94B60262
:1017A00080919901882309F447C084E30E94B6021E
:1017B00085E30E94A5028D30C1F7EA96E8E00C941B
:1017C000682C1196F9012081245282278C939F5F07
:1017D000A1CF481759076A077B0748F484549F4FE5
:1017E000AF4FBF4F481759076A077B07C7CF85E33D
:1017F0000E94A502833109F0A0CF8AE004FF05C052
:1018000088E7DED888E7DCD888E7DAD82C988FE735
:101810000E944B0267018C2D8E19811738F02C9A8B
:1018200085E30E94A5028331D9F3ACCFF601819103
:101830006F010E944B02EFCFDBD3BFCFFC01818150
:10184000823751F0823551F481E080939A014EDE67
:1018500081E080939901089580E0F7CF833721F4E8
:10186000CF0101962FCF08951092990108950F93FB
:101870001F93CF93DF93E898249A2C9A8EE190E0FF
:101880009AD82C988EE190E096D82C9A8DE290E030
:1018900092D880E30E94B60284E690E08CD8C4E13E
:1018A000D2E0FE0184910EE412E08134F8F083E38B
:1018B0000E94B60284E084D8CFEF84E30E94B6028F
:1018C0008077803131F08AE090E075D8C150C11145
:1018D000F4CF81E080939B01DF91CF911F910F9115
:1018E00008952296FE018491813408F7FE01319615
:1018F0006491FE0184910E94AC020C171D0789F7C8
:10190000D6CF4F925F926F927F928F929F92AF92BB
:10191000BF92EF92FF920F931F93CF93DF93EC014F
:101920008B01F880F39420E030E0672B11F024E67F
:1019300030E048E0F49EC00111246AE070E00E94AB
:101940002F2C620F731F80919301909194012C01B1
:10195000612C712C4B01072E000CAA08BB084814FF
:1019600059046A047B0490F484E092E0DED8DF91AD
:10197000CF911F910F91FF90EF90BF90AF909F90EC
:101980008F907F906F905F904F900895861B970B7C
:10199000909394018093930180919B01811101C0E8
:1019A00066DF85E30E94A5028D3089F08AE577D84D
:1019B00085E475D882E573D882E571D881E36FD864
:1019C00085E30E94A50243D9BDD851DFD0CF8091D5
:1019D0009C0190919D01A0919E01B0919F01892B46
:1019E0008A2B8B2BA1F40E940F0385E30E94A50292
:1019F000833199F18AE553D885E451D882E54FD8EF
:101A000082E54DD882E3DBCF81E00E94E004409183
:101A10008B0150918C0160918D0170918E018091AC
:101A20009C0190919D01A0919E01B0919F0148174A
:101A300059076A077B0741F340918B0150918C0154
:101A400060918D0170918E010196A11DB11D8417C9
:101A50009507A607B707C1F2C6CF012B51F00AE0E0
:101A600010E084E60E94E0040150110901151105FF
:101A7000C1F72C988FE70E944B02EC2E0C2F1D2FE4
:101A8000802F8E198F1508F442C02C9AC8EC85E37C
:101A90000E94A5028D3059F085E30E94A502833192
:101AA00031F481E00E94E004C150C111F0CF85E320
:101AB0000E94A5028D30A9F08AE50E944F0585E4B9
:101AC0000E944F0582E50E944F0582E50E944F0566
:101AD00083E30E944F0585E30E94A502B8D832D85F
:101AE000C6DE80919B01811101C082D280918B0161
:101AF00090918C01A0918D01B0918E0180939C01F9
:101B000090939D01A0939E01B0939F0130CFF80167
:101B100081918F010E944B02B3CFACE0B0E0E3E9CA
:101B2000FDE00C944E2CFC018BE0898381818A833B
:101B30001B8282E08C8387818D8380858E83818563
:101B40008F83848188878581898786818A871B86A0
:101B50001C8684E10E94E00460E070E0CE01019602
:101B6000D0DE8AE50E944F058E010F5F1F4F7E0178
:101B70008DE0E80EF11CF80181918F0168D8E01624
:101B8000F106C9F78091A70185FF02C080E05FD808
:101B90000E94A2052C96E6E00C946A2CCF93DF936A
:101BA000EC013091A3012091A4019091A501832F14
:101BB000822B892B882389F08B81803319F08F7ECB
:101BC000803459F48F81381308C08885281305C0E4
:101BD0008985981302C0CE01A0DF3091A001209129
:101BE000A1019091A201832F822B892B882389F058
:101BF00088818B3071F48B81803459F48F81381354
:101C000008C08885281305C08985981302C0CE01B5
:101C100084DFDF91CF910895AEE1B0E0E2E1FEE034
:101C20000C944F2C80919B01882399F14A9B5BC0B7
:101C30008FE30E94A5028F778E3108F08DE18983B2
:101C40002C988FEF0E944B0210E08981181728F121
:101C500080E00E944B02082F80E00E944B022C9AE9
:101C6000CE0101969BDF1091A7011071112309F19C
:101C70008AE70E944F05098110E0E1E0F0E0EC0FF7
:101C8000FD1FE10FF11D80810E944F051F5F0117AD
:101C9000A0F76E96E5E00C946B2C80E00E944B025E
:101CA000E2E0F0E0EC0FFD1FE10FF11D80831F5F0C
:101CB000CCCF8AE50E944F05F980E1E0F0E0EC0F1F
:101CC000FD1FE10FF11D80810E9427061F5FF116A5
:101CD000A0F78091A70185FF03C0802F0E942706EF
:101CE0000E94A205D6CF85E30E94A502813189F624
:101CF0008AE30E94B60286E30E94B60284E30E9451
:101D0000B602C7CFAEE1B0E0E8E8FEE00C944E2C9E
:101D10008C01FC018181823729F4A9DD6E96E6E011
:101D20000C946A2C833711F0863611F54DE19E0133
:101D30002F5F3F4F7901B901C80102960E942C061E
:101D4000E82FE150FF0B298130E0C701E217F307CC
:101D500029F08BEF91E00E949505E0CF61E070E003
:101D6000F8012181233711F060E070E0CADDD6CFA1
:101D700043E063EA71E0813629F0873741F443E0BC
:101D800060EA71E0C80102960E942C06C7CF10924B
:101D90009B01C4CFA0E0B0E0E0EDFEE00C944A2C43
:101DA000FC011092C3014181440F440F440F838111
:101DB000481B87E0C82EC40E1092C40120E030E01A
:101DC00047E057E070E080E097E0E92EF12C01E079
:101DD00010E0DD24D394D80E8C1580F02093D80128
:101DE0003093C301CD14A0F5653409F088C04F3F8E
:101DF00009F085C02F5F2093D80183C0DF01A70FB2
:101E0000B11D14968C9190E0052E02C09595879592
:101E10000A94E2F78170552369F051506B34D1F484
:101E2000433059F4332371F030E0811155C04150F3
:101E3000832F1EC07F5F57E0F1CF4F3FB1F7811175
:101E40000FC02FC0811114C02093D8011092C3017C
:101E500080E05DC04F3F51F5663469F0653479F339
:101E60002F5FA22FB0E0AC53BE4F1C92832F47E0F0
:101E7000382F8D2DAECFA22FB0E0AC53BE4FAC911A
:101E80000A2EA295A0250A2EA695A695A02590E03B
:101E9000AF5FA695A170CA2FA12CDA2D8C179D07D4
:101EA000F9F22093D8013093C301D2CF882309F4EB
:101EB000BECF663471F4A22FB0E0AC53BE4FBC90DD
:101EC000C801042E01C0880F0A94EAF78B298C936D
:101ED000AECF653409F0ABCFA22FB0E0AC53BE4F0C
:101EE000C701841B910947FD9395580102C0AA0CB4
:101EF000BB1C8A95E2F7C5019C91892BE8CF311173
:101F000079CF81E09091D801992309F4A1CFCDB781
:101F1000DEB7EAE00C94662C10926F00E091DB01D2
:101F20008CE1E89FF0011124E452FE4F1082809171
:101F3000A6018D7F8093A6010895FC0181818431E3
:101F400010F0EACF08959381662381F0DF01A80F96
:101F5000B11D41E050E0092E01C0440F0A94EAF798
:101F600014962C911497242B14962C93992319F0E2
:101F700091509383089597E093838F5F8183E80F57
:101F8000F11D1482089570E030E0FB01E21BF30BB9
:101F90003B967797A0F490E050E0FC01E41BF50B32
:101FA0003B96779760F4680F791F240F351F621BEB
:101FB000730B655F7F4F81E06731710508F080E04A
:101FC0000895219A29985298E9E6F0E0808181608D
:101FD000808382EC91E09093940180939301ECEDE7
:101FE000F1E0148E10AE1092300210928801089524
:101FF0008091890581110BC08091A701882329F068
:102000000E9493030C94210308950C948A0308956D
:10201000FC01818181110FC08091A7010E942706D8
:1020200040E265E080919301909194010E94A705A0
:102030000C94A205089541E067EA71E0CF01019692
:102040000E942C06D5CF08959B01411101C008952F
:102050004150F901E40FF11D9081890FF6CF9C01E9
:1020600080E0611101C008956150F901E60FF11D92
:1020700090818927F6CFAC01F091C301362F85E01E
:1020800090E0311109C0292F280F80E1289F90018D
:102090001124892F822B08957FEF730FDA01A70F88
:1020A000B11D2C91E22FE295EF709E278E0FFF233A
:1020B00011F0361719F02F709227820F372FE1CFCA
:1020C000FC0122813381A081B181A20FB11D8C91CD
:1020D00090E0032E02C0959587950A94E2F78170EF
:1020E0009FEF930F9383311104C02F5F228397E0FA
:1020F00093830895A0E0B0E0E0E8F0E10C944B2C6D
:10210000D82EC92EE42E062F10E0E801F12CBB24B6
:10211000B394209731F48F2DCDB7DEB7E9E00C945E
:10212000672C8D2D9C2DCCDFAE01415051098823A9
:1021300049F0EE2049F02B2D042E01C0220F0A9405
:10214000EAF7F22AEA01E5CF98012C1B3D0B8B2D13
:1021500001C0880F2A95EAF7282FF3CFA4E0B0E05A
:10216000E4EBF0E10C944A2CFC011B8287E08C83A9
:10217000CF0104969A8389831092D801818128E047
:10218000829FC0011124438127E030E0241B3109E4
:10219000820F931F853491050CF04CC080E046C03F
:1021A000A9DFA82EE12FF0E0EC53FE4F8083082F2B
:1021B000002E02950025002E069506950025CE01DD
:1021C00001967EDF90E00F5F01FBCC24C0F8D12C9C
:1021D0008C159D0519F7CE01019672DF8111DECFB6
:1021E000BA241F5F1093D8011091D80140E068E035
:1021F000CE0101961630A0F27DDF082F182F012E98
:1022000012951025012E169516951025CE010196D2
:1022100057DF90E01F5F11FBEE24E0F8F12C8E15E4
:102220009F0509F0BBCF81E0B012B8CF2496EAE059
:102230000C94662CB12CD8CFA4E0B0E0E2E2F1E13E
:102240000C944C2CFC011B8287E08C83CF010496FC
:102250009A8389838081853009F03FC0818128E09D
:10226000829FC0011124438127E030E0241B310903
:10227000820F931F8039910581F580E00FE010EF08
:1022800049E8F42E8093D801C82ED12CEE24E39493
:10229000E80E41E068E08F3029F5CE0101962ADF93
:1022A000080F111D90E19093D80180958093D30180
:1022B00041E068E0CE0101961DDF90E0982F88276D
:1022C000081B190B41E068E0CE01019613DF282FAF
:1022D00030E081E02017310709F080E02496E8E043
:1022E0000C94682CCE01019605DF080F111DF60134
:1022F000EC53FE4FF826F08234E2F32EF80E8E2DCA
:10230000C1CFFC0181818330D9F483818730C1F44E
:1023100080818830A9F480E09181891720F0809332
:10232000D80181E00895282F30E0DF01A20FB31F0C
:1023300014969C912C533E4FD9019C938F5FECCF08
:1023400080E00895FC0190818091A601993611F0FA
:10235000933771F4982F9370913021F486608093B5
:10236000A601089580FFFDCF8091A6018B7FF7CF56
:1023700080FDF7CF8460F3CFA1E0B0E0E2ECF1E1C3
:102380000C944D2C19828091A8018823A1F1809191
:10239000A70187FF14C084E30E94A50280588034FF
:1023A00008F442C0803C08F041C08055990B23E0FE
:1023B000959587952A95E1F78F590E944F05809151
:1023C000A70183FF16C082E70E944F058091A701F5
:1023D00084FF04C08091A9010E944F0586E60E94F7
:1023E0004F058091A70184FF04C08091A8010E943D
:1023F0004F051092A8018091D901882309F4B7C133
:10240000119A0091DA012CE1029F800111240452FB
:102410001E4F898181111FC0C80173DF882309F411
:10242000BBC183E7898317C080E0C6CF8FE0C4CFEC
:1024300083E5F8CF282F30E02F5F3F4F4E2D50E03F
:102440002417350709F070C093E09F1508F0C3C149
:1024500096E499838083E980D090A701EE2009F467
:1024600001C1D0FEFFC08091A6018A7F8093A601A2
:102470008D2D8270811125C0F090D8019091C201FC
:10248000EEEAF1E0A4ECB1E09F1509F497C04F2DFE
:1024900050E064EC71E08EEA91E00E94A12DF09290
:1024A000C20180918B0190918C01A0918D01B0911E
:1024B0008E018093AA019093AB01A093AC01B093DD
:1024C000AD01F4E5EF129BC0D6FC1BC08091D80192
:1024D0008530B8F08091C6018B3471F0893661F097
:1024E0009DEA980F923040F08D57823028F080910D
:1024F000C7018077803729F48091A601816080939D
:10250000A601B801CE0101961DDF8091E00288236B
:1025100009F479C080912903811175C08091A601C9
:102520008B7F8093A6016FC04F2D64EC71E08CE02F
:102530008BDDE81250C1E3E084E5EF1508F472CFBB
:102540004AC18091D80181508093D801893009F027
:1025500048C169E084EC91E082DD9091CD0189135E
:1025600040C185E45FCF88E45DCFE091D801FF24CE
:10257000FA94FE0EF092D8016F2D84EC91E07BDD91
:102580009091C3012F2D291B330BF901EC53FE4F02
:102590009081891339C18BE445CFF8011382818181
:1025A0008150818358CF21919D918F5F291731F000
:1025B0008091A6018D7F8093A60169CFF812F3CF99
:1025C000F092C20180918B0190918C01A0918D01BC
:1025D000B0918E014091AA015091AB016091AC0184
:1025E0007091AD01841B950BA60BB70B8697A105C7
:1025F000B10508F04CCF8091A6018160DCCFB80115
:10260000CE0101969FDE8091A60182FF2BC08E2D08
:102610000E944F058091C301882329F08091D80141
:1026200081508093D801F12CE091D801FE1608F476
:10263000A2C08091C301882351F0F0E0EC53FE4F1B
:1026400080818F7040E361E090E00E94E605809118
:10265000A70185FF05C084E30E94A5020E9427060A
:102660000E94A2058091A70182FF69C080E70E94B5
:102670004F05F801808140E262E090E00E94A705EA
:10268000F801808D40E265E0F0E18F9FC0011124E8
:102690000E94A705F801818D40E265E0F0E18F9F7F
:1026A000C00111240E94A705F801828D40E265E077
:1026B000F0E18F9FC00111240E94A705F801838DCE
:1026C00040E265E0F0E18F9FC00111240E94A70560
:1026D000F801828140E263E090E00E94A705F801E2
:1026E000818140E263E090E00E94A705F8018381C8
:1026F00040E262E027E030E0F901E81BF109CF0198
:102700000E94A70580E20E944F058091A70185FFE6
:1027100008C084E30E94A5020E94270680E20E946E
:102720004F05F8018381873019F081818F5F8183A4
:10273000F12CF8018181F81638F10E94A205F80108
:1027400010828091D90181508093D9019091DA0152
:1027500081E0890F933009F480E08093DA011198C9
:102760008981843521F484EC91E00E941621219620
:10277000E7E00C94692CEF2DF0E0EC53FE4F8081E4
:102780000E942706F39450CFF801EF0DF11D8481CC
:102790000E942706F394CDCFC8014EDD811148CEAB
:1027A00066E4C801F7DA8823B9F0F090D801FA940A
:1027B000F092D8014F2D64EC71E086E045DCEF2DFE
:1027C000F0E0EC53FE4FE080E81234CE33E086E4D4
:1027D0003F1508F427CE198265E4C801DBDA8111C0
:1027E000B0CEC801BBDC8111BECEF801638D262FAF
:1027F0004091A901828DC7DB682FC8019EDB6BE485
:10280000C801C8DA8111B1CEF8018381873009F49B
:10281000C4CE8F5F83831FCE1F920F920FB60F928D
:1028200011240BB60F922F933F934F935F936F93A7
:102830007F938F939F93AF93BF93EF93FF931092E8
:102840006F008091A70183FF03C08EE20E944F05B5
:102850009091DB018CE1989FF0011124E452FE4F2E
:102860008081833018F081818230A0F455DBFF91A4
:10287000EF91BF91AF919F918F917F916F915F91F8
:102880004F913F912F910F900BBE0F900FBE0F9065
:102890001F9018958091D901833049F48091A70148
:1028A00082FFE4CF80E592E00E949505DFCF8F5F45
:1028B0008093D90181E0890F933019F08093DB0177
:1028C000D6CF1092DB01D3CF982F8BED890F8731B4
:1028D00038F486EF860F8D3118F481E0691708F01F
:1028E00080E008951F920F920FB60F9211240BB63D
:1028F0000F92EF92FF920F931F932F933F934F935B
:102900005F936F937F938F939F93AF93BF93CF9377
:10291000DF93EF93FF938091E6038823E1F082E059
:102920008093E603FF91EF91DF91CF91BF91AF913B
:102930009F918F917F916F915F914F913F912F91D7
:102940001F910F91FF90EF900F900BBE0F900FBE55
:102950000F901F9018958091E202823021F483E05D
:102960008093E202DFCF009184001091850044E063
:10297000169507954A95E1F7C091DB012CE1C29FBE
:10298000E0011124C452DE4F9881943079F40E3264
:1029900048F20F3408F0C2C04A9941C061E0CE014C
:1029A000CCDA109285001092840004C0953029F092
:1029B0004A9908C00093A901B5CF073108F4B2CFF6
:1029C0000732E8CF8091A901081B0093A80110925B
:1029D000850010928400983061F49A81911109C0A9
:1029E00091E09A83888F8A8F098F0B3B28F5000F1F
:1029F0000B8F82E086BB0881011120C09091A90154
:102A0000953608F08FCF8091A801853608F08ACFDF
:102A1000988F898F81E08A8382E0888383CF809139
:102A2000A901081B0093A801109285001092840050
:102A300060E0CE0182DA76CF0695DACF1091A80158
:102A4000023009F071C0F090A901088DE98C212FA6
:102A50004F2D6E2D802F97DA4A818823F1F0602F59
:102A600070E09B01220F331F260F371F2F0D311DE2
:102A70003595279535952795288FF12CC701880F17
:102A8000991F8E0D9F1D810F911D95958795959589
:102A90008795898F4F5F4A8345CF443008F442C001
:102AA00080EA9FE090938900809388004C3050F03A
:102AB000202F2E0D3327331F253631052CF084E0CF
:102AC000888311C04A30C8F0202F2E0D3327331FC2
:102AD0002532310594F485E0888388EE93E0909365
:102AE000890080938800FA8E1B8F198287E08B8380
:102AF0001C8282E080936F0015CF8091E1028823D1
:102B000079F0612F8F2DE0DE882351F0602F8E2D1C
:102B1000DBDE882329F081E08093E202FDD902CF39
:102B200083E0CECF18826ACF083009F04BC081E92C
:102B3000810F8D3110F560E0CE01FFD9288D30E096
:102B4000C901880F991F820F931F2091A901820F3D
:102B5000911D9595879595958795888F298D30E05E
:102B6000C901880F991F820F931F810F911D9595A1
:102B7000879595958795898FD5CE173E08F4D2CE47
:102B800061E0CE01DAD92A8D30E0C901880F991FA2
:102B9000820F931F2091A901820F911D9595879512
:102BA000959587958A8F2B8D30E0C901880F991FE5
:102BB000820F931F810F911D959587959595879508
:102BC0008B8FB0CEF090A901212F4F2D6B8D8A8D68
:102BD000DAD9882369F061E0CE01AFD92A8D30E0DF
:102BE000C901880F991F820F931F8F0D911DD6CF9A
:102BF000212F4F2D698D888DC6D9882369F060E01B
:102C0000CE019BD9288D30E0C901880F991F820F12
:102C1000931F8F0D911D9DCF073009F483CE7ECF7A
:102C2000E091DB018CE1E89FF0011124E452FE4FBA
:102C30008081811107C081E0909127039F3F19F4A3
:102C400080E0089581E0089580E690E00E94940677
:102C50008093E10281E690E00E9494068093E00276
:102C6000882321F081E28093A701C2C90895299A9F
:102C70000C94DB04089529980C94DB040895A7E0D4
:102C8000B0E0E5E4F6E10C944C2C90915D029435B3
:102C900009F06FC020915802309159022F5F3F4FC9
:102CA000309359022093580295E7998311E08823C5
:102CB00089F0BE016E5F7F4F8091E0020E947D0629
:102CC000BE016C5F7F4F8091E1020E947D0685E529
:102CD0008E8316E00E9493030E940F0306E080E8B3
:102CE00091E0C5DF80E093E0C6DF01500111F7CF2E
:102CF00080E093E0BCDF80E891E0BDDF80E891E018
:102D0000B6DF299887E390E00E94BA0283E00E9430
:102D1000E0042C988FE70E944B0280915C02810FA7
:102D20000E944B02CE0101966C017C01F70181915A
:102D30007F010E944B028E2D8C198117B8F3809170
:102D40005C02811155C02C9A0E940F038AE592E023
:102D50000E94AE0715E18AE30E94A5028F778823BF
:102D600019F0115011114BC043D92796E8E00C948B
:102D7000682C963459F420915602309157022F5FF7
:102D80003F4F30935702209356028ECF953459F41B
:102D900020915402309155022F5F3F4F30935502DE
:102DA0002093540281CF9B3459F4209152023091E8
:102DB00053022F5F3F4F309353022093520274CF40
:102DC000983459F420915002309151022F5F3F4FB7
:102DD000309351022093500267CF20914E023091E0
:102DE0004F022F5F3F4F30934F0220934E025CCF34
:102DF0008AE592E00E94CA070E944B02A0CF81E0C0
:102E00000E94E004A8CFCF93DF93EC018981811168
:102E10000DC08091E1020E9427068091E0020E948D
:102E200027060E94A205DF91CF910895843691F480
:102E300080918B0190918C01A0918D01B0918E01B8
:102E400040E364E00E94E6058EE20E944F05809117
:102E5000DE02E5CF833709F04BC040E361E08091AB
:102E60005802909159020E94E6058EE20E944F0599
:102E700040E361E080915602909157020E94E6057E
:102E80008EE20E944F0540E361E0809154029091F0
:102E900055020E94E6058EE20E944F0540E361E084
:102EA00080915202909153020E94E6058EE20E94A8
:102EB0004F0540E361E080915002909151020E94E1
:102EC000E6058EE20E944F0540E361E080914E02EC
:102ED00090914F020E94E6058EE20E944F0540E36A
:102EE00061E080914C0290914D020E94E60599CFDD
:102EF0008936D9F441E061EE72E0CE0102960E947B
:102F00002C066091E10280E690E00E948F0641E08D
:102F100060EE72E0CE0104960E942C066091E00201
:102F200081E690E00E948F067ECF8AE592E00E94C3
:102F3000AE0721966991611103C080E0A0DE73CFD6
:102F40008AE592E00E94B307F5CFA1E0B0E0EBEA9A
:102F5000F7E10C944C2C8091E2028823A1F0C09000
:102F60008B01D0908C01E0908D01F0908E01833028
:102F700009F064C08FE30E94A502182F863038F450
:102F800037D81092E2022196E8E00C94682C88EE83
:102F900093E00E94AE072C988FEF0E944B0280E0D6
:102FA0000E944B02082F115080E00E944B02682FB4
:102FB00088EE93E00E94B30711501111F5CF2C9ABF
:102FC00017D81092E2020537F1F641E0BE016F5FBB
:102FD0007F4F8BEE93E00E942C06019751F599816B
:102FE0008091E102981325C08091EA039091EF034C
:102FF0009535C1F084508093EA0384E08093E9031F
:103000006AE088EE93E00E94B307E091F004F0914B
:10301000F10488E00995B7CF88EE93E00E94CA07D3
:103020000E944F058091EA038111F6CF0E94A2050C
:10303000AACF88EE93E00E94AE07A5CF823041F47C
:103040008091DF029C2D981B983008F49CCF98CF7C
:10305000813009F098CF87E390E00E94BA020E9485
:10306000210382E08093E202C092DF028CCFD8DDA0
:10307000882361F083E08093DD0280914C0290917F
:103080004D02019690934D0280934C028091DD0297
:1030900081508093DD02882321F083E08093DE025B
:1030A000089581E0ECCD08950F931F93CF93DF93A4
:1030B000E898249A2C9A8EE190E00E94DB042C98E8
:1030C0008EE190E00E94DB042C9A8DE290E00E9459
:1030D000DB0480E30E94B60284E690E00E94DB04F9
:1030E0002C9880E40E944B0204E612E0C7E5D2E08F
:1030F000FE0184910E944B0221960C171D07C1F717
:10310000809101010E944B02809102010E944B02BA
:10311000809103010E944B02C7E6D2E000E812E072
:10312000FE0184910E944B0221960C171D07C1F7E6
:103130002C9A2C988EE70E944B02CBE2D0E0CE0175
:1031400021960E9494060E944B02C333D105B9F721
:103150002C9A83E30E94B60281E00E94E00481E0A1
:1031600080938801DF91CF911F910F910895A0E086
:10317000B0E0EDEBF8E10C944C2CEC018981843744
:10318000A9F468E071E0CE0102960E94620640E276
:1031900060E080910801909109010E94A7050E94BA
:1031A000A205CDB7DEB7E8E00C94682C833709F0B0
:1031B000A4C18A81823769F464E071E0CE0103968C
:1031C0000E94620640E260E0809104019091050156
:1031D000E4CF119A8091E502811116C08091990186
:1031E000882329F081E08093E40210929901809174
:1031F0009B01882329F081E08093E30210929B01D8
:1032000053DF83E00E94E00486E30E94B6028AE373
:103210000E94B6028BE30E94B6020E940F03FE01D9
:1032200001900020E9F7FE2EFC1AFA94FA9480919E
:103230000401909105012296892B09F444C031E2E2
:1032400010E0F31215C0299A8091080190910901AC
:103250000E94DB04299880910601909107012AE0E1
:10326000AC01249FC001259F900D11240E94DB0416
:10327000F5E0EF2E6E0101E00F1594F181E2299A3D
:10328000F812EBC080910601909107010E94DB04C7
:103290002998809106019091070128E2FC012E9F58
:1032A000C0012F9F900D11240E94DB041F5F212F6E
:1032B000012E000C330B8091040190910501281719
:1032C000390708F4C0CF8091E502882309F4F9C0DA
:1032D0008091A701882309F4DFC00E942103DFC089
:1032E0000F5FF60181916F01803309F04AC0F1E26E
:1032F000299AFF1222C080910601909107010E9435
:10330000DB04299880910601909107010E94DB045B
:10331000299A80910601909107010E94DB04299867
:1033200080910601909107019C01E29EC001E39EFD
:10333000900D11240E94DB049FCF80910801909191
:1033400009010E94DB0429988091080190910901EC
:103350009C01220F331F820F931F0E94DB04299AC6
:1033600080910801909109010E94DB0429988091C5
:103370000801909109019C01220F331F820F931FB6
:10338000D9CF813309F048C031E2299AF31220C025
:1033900080910601909107010E94DB042998809199
:1033A000060190910701AC01E49EC001E59E900DDD
:1033B00011240E94DB04299A809106019091070153
:1033C0000E94DB0429988091060190910701B2CFF9
:1033D00080910801909109019C01220F331F820FF7
:1033E000931F0E94DB0429988091080190910901A4
:1033F0000E94DB04299A80910801909109019C01A7
:10340000220F331F820F931F0E94DB0429988091A3
:103410000801909109018ECF51E2299AF5120CC052
:1034200080910601909107010E94DB042998809108
:10343000060190910701BDCF80910801909109018B
:103440000E94DB04299880910801909109019C0158
:10345000220F331F820F931FCBCF809108019091D1
:1034600009010E94DB0429980FE1809108019091E5
:1034700009010E94DB0401500111F7CF1F5F212FCA
:10348000012E000C330B8091040190910501281747
:10349000390708F4EFCE17CF86E30E94B6021198E1
:1034A00089E60E944F0583E70E944F0511E01F1532
:1034B0000CF075CE89918033E1F40E944F051F5FB7
:1034C000F6CF8091E402882341F01092E4020E943A
:1034D000760A81E08093990100CF8091E3028823EE
:1034E00029F01092E3020E94370CD9CF0E94F80F06
:1034F000D6CF813311F386E4E0CF8237B9F48091DF
:103500009901882329F081E08093E40210929901C7
:1035100080919B01882329F081E08093E30210923F
:103520009B01C2DD81E08093E5023BCE863651F5FA
:103530008A818033F9F480E18093010180EB8093EC
:10354000020181E78093030189E60E944F0586E628
:103550000E944F058AE30E944F05809101010E945D
:103560002706809102010E942706809103010E9494
:10357000270615CE43E061E071E0CE0102960E947D
:103580002C06E2CF883729F58091E402882351F098
:103590001092E4020E94760A81E0809399010E94D1
:1035A000210308C08091E302882339F01092E302DE
:1035B0000E94370C1092E502F4CD82E090E00E9468
:1035C000BA028091A7018111EACF86E30E94B60278
:1035D000F1CF833609F0E5CD68E071E0CE010196C8
:1035E0000E946206DECDA1E0B0E0E9EFFAE10C94C2
:1035F000442C7C01FC018181833709F0B4C119821C
:1036000087E090E00E94792C8C0141E0BE016F5F61
:103610007F4FC70102960E942C068981F8018083A2
:1036200041E0BE016F5F7F4FC70104960E942C06E8
:103630008981807FD82EF801818341E0BE016F5FD0
:103640007F4FC70106960E942C068981F80182836C
:1036500041E0BE016F5F7F4FC70108960E942C06B4
:103660008981F801838341E0BE016F5F7F4FC7010D
:103670000A960E942C068981F801868341E0BE01EA
:103680006F5F7F4FC7010C960E942C068981F8015D
:10369000858341E0BE016F5F7F4FC7010E960E9498
:1036A0002C068981F80184833801F7E06F0E711CC4
:1036B000F80180E02191922F92959F70922789279F
:1036C000E615F705B9F78F708D29F801818387E03A
:1036D00090E00E94792C7C0187E0F801D7010190ED
:1036E0000D928A95E1F798012A5F3F4FF801DF01BB
:1036F000319611968C9111979C91892780832E1772
:103700003F07A9F7119A8091E802811161C0809169
:103710009901882329F081E08093E70210929901B2
:1037200080919B01882329F081E08093E60210922A
:103730009B01E898249A2C9A8EE190E00E94DB0489
:103740002C988EE190E00E94DB042C9A8DE290E0B0
:103750000E94DB0480E30E94B60284E690E00E94AF
:10376000DB042C9880E40E944B02F0E8CF2EF2E0BC
:10377000DF2EA9EAAA2EA2E0BA2EF60184910E94B9
:103780004B02FFEFCF1ADF0AAC14BD04B1F72C9A3D
:103790002C988EE70E944B02EBE2CE2ED12CC60174
:1037A0002FEFC21AD20A0E9494060E944B0283E3B2
:1037B000C816D104A1F72C9A83E30E94B60281E0D7
:1037C0000E94E00481E08093880183E00E94E0048D
:1037D00086E30E94B6028AE30E94B6028BE30E944F
:1037E000B6020E940F03299A87EC94E20E94DB0440
:1037F000299889E50E94E00485E392E00E94DB04B9
:10380000512C80910E0190E0252D052C000C330BDE
:10381000281739076CF08091E802882309F48BC0DF
:103820008091A701882309F463C00E94210363C02B
:1038300077E0C72E511002C062E0C62ED12C299A23
:1038400086EF99E00E94DB04299886EF99E00E94B8
:10385000DB04D394CD10F3CF299A8CEF92E10E9430
:10386000DB04299880910A0190910B010E94DB04EE
:103870006801F60181906F0148E0442E50E8A52EC2
:10388000B12C912CC4018A219B21892B29F5299ADD
:1038900080910A0190910B010E94DB04299880918C
:1038A0000A0190910B010E94DB04B694A7944A94FC
:1038B0004110E8CFC614D704E1F62998F8018681B3
:1038C00087FD13C080910A0190910B0181539948A3
:1038D0000E94DB04539495CF299880910A0190911E
:1038E0000B010E94DB04299ADACF8FEC96E7F0CF28
:1038F00086E30E94B602119889E50E944F0583E78E
:103900000E944F0567015701F7E0AF0EB11CF601A9
:1039100081916F010E942706AC14BD04C1F70E947B
:10392000A205C7010E940F2DC8010E940F2D2196EC
:10393000E0E10C94602C8091E702882341F0109222
:10394000E7020E94760A81E0809399016ECF809110
:10395000E602882329F01092E6020E94370CCBCFB2
:103960000E94F80FC8CF8237C9F46EE071E0C7013A
:1039700002960E94620689E50E944F0582E70E9436
:103980004F058AE30E944F0580910E0140E260E0FE
:1039900090E00E94A7050E94A205C9CF843751F587
:1039A0008281803301F588ED94E090930D0180933E
:1039B0000C0180910C0190910D0196958795909343
:1039C0000B0180930A0189E50E944F0584E70E945C
:1039D0004F058AE30E944F0540E266E080910C01AA
:1039E00090910D01D6CF6CE071E0C70102960E9464
:1039F0006206DFCF883709F09ACF8091E7028823EB
:103A000051F01092E7020E94760A81E080939901BA
:103A10000E94210308C08091E602882339F01092A9
:103A2000E6020E94370C1092E80281CF82E090E01B
:103A30000E94BA028091A7018111EACF86E30E9419
:103A4000B602F1CF109226031092E50383E0809333
:103A50002F038FEF809327030895DC01E0E3F3E069
:103A6000808181110EC0AB2B29F583E0EE3DF80774
:103A700019F010F0EEEDF3E0CF010895E80FF11D1D
:103A8000EFCF93E0EE3DF90770F71097B9F321817E
:103A90009C912913F3CF228111969C91119729179C
:103AA00059F3E80FF11D8081882321F093E0EE3D6A
:103AB000F90768F3E0E0F0E0DFCF94E0899FF001E0
:103AC0001124EE5FFC4F80818F3F91F080932A0399
:103AD000818180932B03828180932C038381809347
:103AE0002D0321E04CE064E08AE293E00C94C608E8
:103AF00008958FED93E0B1DFDC01892B99F0E0911F
:103B00002F038C91E81770F4EA0FFB2FF11D8081D1
:103B10008093E10389E78093E20381818093E3034B
:103B200081E0089580E008950F931F93CF93DF9372
:103B30008C018091A70186FF15C084E50E944F0586
:103B4000E8010B5F1F4F89910E942706C017D1071C
:103B5000D1F78091A70185FF03C08AEF0E94270655
:103B60000E94A205DF91CF911F910F91089586E3E6
:103B70000E94B6028091E103833581F48BE90E94B3
:103B8000E00421E04CE065E08FED93E00E94C60880
:103B90000E9421038FED93E0C7CF08958BE4EFCF10
:103BA000E6DF8091E103893631F081E08093DE0326
:103BB00089E2809327030895CF9385E390E00E94E4
:103BC00094068093290386E390E00E9494068093F4
:103BD0002803E3E1F3E0CFEFC083C283C483C6834D
:103BE000C087C287C487C6872DDF1092300381E06B
:103BF0008093E902A2E0B3E0CC93EAEEF2E08FEF2B
:103C00009FEF91838083138212821582148214960F
:103C1000CC93149797838683118610861386128619
:103C20001896CC9318979587848717861686118ADD
:103C3000108A1C96CC93938B828B158A148A178AD0
:103C4000168ACF910895ABE0B0E0E9E2FEE10C9472
:103C5000472C8C016C012FEFC21AD20A45E0BE013D
:103C60006F5F7F4FC6010E942C06843008F0E5C0CC
:103C700099819130D1F4833079F46A8185E390E0C1
:103C80000E948F066B8186E390E00E948F0694DF8E
:103C90002B96EDE00C94632C809129030E9427065B
:103CA000809128030E94270635C0923009F051C048
:103CB000EE24E394813031F081E09A81913009F073
:103CC00080E0E82E80913003811104C089EA92E0FF
:103CD0000E94950500E313E015C083E00033180748
:103CE00019F080E20E944F05F80181810E942706A9
:103CF000F80182810E942706E1100FC0F80180813F
:103D0000080F111DF8018081882321F0F3E00E3D9A
:103D10001F0718F30E94A205BBCF8AE30E944F053C
:103D200083E0F82EF8018081F81640F7F3E0FF16E3
:103D300029F0F0FE03C08CE20E944F05DD24D394ED
:103D4000DF0CF801EF0DF11D80810E942706FD2C8C
:103D5000E9CF933049F480E090E07FDE80539340D8
:103D60009EEA981B892F9ECF903149F503E113E01D
:103D7000E12CF12CF80180818F3FA1F0FF2019F098
:103D800080E20E944F058E2D0E9427068AE30E9442
:103D90004F05F80180810E942706F80181810E9469
:103DA0002706F3940E5F1F4FE394F8E0EF12E2CF83
:103DB00087EB92E0F110AECF0E949505ABCF913129
:103DC00051F480912303909124036DE770E00E94E9
:103DD0001B2C862F67CF923109F09CCF02E013E0B5
:103DE000E12CF12CF80180818F3FE1F0FF2019F0E8
:103DF00080E20E944F058E2D0E9427068AE30E94D2
:103E00004F05F80180810E942706F80181810E94F8
:103E10002706F80182810E942706F80183810E940B
:103E20002706F3940C5F1F4FE394F4E0EF12DACF10
:103E3000F11070CF83EB92E0BFCF7E0127E0E20E5E
:103E4000F11C44E0B701C6010E942C064F8149369F
:103E500008F496C06A855885E2E0F3E020E030E09F
:103E600080E090E06C3009F06FC080E090E020E0EE
:103E700030E06081461336C07181751333C0A28172
:103E80007985A7132FC08E5F9C4F4CE0FC014383C4
:103E9000C901880F991F820F931FFC01EE0FFF1FAE
:103EA000E651FD4F11821082880F991FFC01E451E9
:103EB000FD4F1182108222E04CE064E0C7010E94B5
:103EC000C6088FE08A8722E04CE064E0C7010E94C8
:103ED000C60882E08A8722E04CE064E0C7010E94C5
:103EE000C608D6CE6F3FF9F4FC01EE5FFC4F40836D
:103EF0005183898582838CE08383C901880F991F50
:103F0000820F931FFC01EE0FFF1FE651FD4F118240
:103F10001082880F991FFC01E451FD4F118210821D
:103F20001092E902C8CF2F5F3F4F34960496243099
:103F3000310509F09ECFACCE019634962C5F3F4FF1
:103F40008430910509F4A4CE70814713F5CF7181B7
:103F50007513F2CFA2817985A713EECF2E5F3C4F68
:103F6000F9016383FC01EE0FFF1FE80FF91FEE0F4D
:103F7000FF1FE451FD4F81E090E09183808388CE64
:103F8000E98120912903E217C0F1822F90E0079682
:103F90004E2F50E08417950784F19A818091280371
:103FA00098132BC09C819F3231F442E06CE0C80131
:103FB0000E9435096DCE8D819C32B9F48093120335
:103FC00021E030E03093240320932303F4E08F9F1B
:103FD000C00111242091930130919401820F931F0D
:103FE000909394018093930153CEE21BEE0FF0E087
:103FF000ED5EFC4F908381834BCE80E090E02DDD21
:104000007C01F60101900020E9F73197EC19FD09D8
:10401000F695E7957E2EDD24D394DE0EC7018D0D37
:10402000911D805393408F3A91052CF08DEA92E0D8
:104030000E9495052DCEF701D0825701CC24C39460
:104040008C2D880F8150CD1480F0FEEDEF16F3E03B
:10405000FF0608F01DCE2FEFED2D721201C0E1E03A
:10406000EE0DFF2DF11D108213CE4501FFEF8F1ACB
:104070009F0A41E0B401800F912F911D0E942C06F0
:1040800022E02C1548F4C0FC07C0F501808184367D
:1040900019F4818180932503C3945401D1CF0F93E8
:1040A0001F93CF93DF939091E90291114AC0282F7B
:1040B00030E0E901CC0FDD1FC20FD31FDE01AA0FD4
:1040C000BB1FA651BD4F220F331F220F331FF90113
:1040D000EE5FFC4F9281977040E850E0491B510918
:1040E0009AEF949F9001959F300D11243595279557
:1040F000359527952D933C938E01000F111F02518A
:104100001D4FF801208131812F5F3F4F3183208384
:10411000CC0FDD1FC451DD4F488159814115510538
:1041200041F42430310569F4C8DCF80111821082B1
:1041300008C04130510551F4C0DC82E090E0998321
:104140008883DF91CF911F910F91089542305105DF
:10415000C1F7B3DC19821882E8CFA6E0B0E0E3EB48
:10416000F0E20C944E2C809128038A831B8290915C
:1041700012039923D9F19330B1F587E791E0909339
:1041800024038093230383E1E82E83E0F82E10E0DC
:104190000CE2F70120812F3FA1F080911203909152
:1041A0002903910F9983882351F10C838D8321E09A
:1041B0004CE065E0CE0101960E94C608CE01019652
:1041C000B3DC1F5FF2E0EF0EF11C183011F78091A5
:1041D0001203882321F08330A9F41092120326964B
:1041E000E6E00C946A2C8DE790E0C9CF87708A5185
:1041F0002DE7829FC001112495958795C0CF2C8310
:104200008181D4CF825080931203E9CF8091DE0365
:10421000882351F0ACDC89E2809327038091DE0390
:1042200081508093DE0308950DCC0895FF920F9383
:104230001F93CF93DF93FC01F080D181C281138162
:1042400004818FE5809327031092DE038091290378
:1042500090912803892B882351F18091DF038F11DE
:1042600004C08091E0038D1729F0ECDBF092DF03AE
:10427000D093E003D0912603DF3FC9F0C093E10360
:104280001093E2030093E303CC2359F1D1111FC033
:1042900080912903801781F0043671F08DEA8C0F2C
:1042A000823010F0CD3751F48FEF80932603CDB7D5
:1042B000DEB7E5E00C946B2CC435C9F3812F807F09
:1042C0008036A9F710671093E2036ADCF0CF11DCA7
:1042D0008091E503882379F08335B9F08C17D1F00C
:1042E00008C007DC8D2B882311F38091E503882318
:1042F00011F0A8DBDCCFED2FF0E0E554FD4FE491A9
:10430000E335F1F0CE1711F1F4CFC435B9F4DE5F27
:10431000D093260380912F038E5F80932F03E9DBD8
:10432000882309F44CC08091E1038093E50384362F
:1043300061F6809125038093E303C7CFC335CFCFC8
:10434000C43509F03AC0DE5FD0932603809126037E
:10435000E82FF0E0E454FD4F14911F3F21F3109338
:10436000E10397E79093E203909129039093E3038D
:104370008E5F809326031092E5038E30D1F48FED8B
:1043800093E06BDBDC01892B99F02C9130E08EED12
:1043900093E0821B930BED01C817D907B0F08A1781
:1043A0009B07C8F08A1B9B0B8A0F9B1FFC01108286
:1043B00049DB112309F47BCF88CFC335A4CF80918B
:1043C00026038E5F80932603C1CFFE01E20FF31F09
:1043D00040814993E1CF80E090E0E6CFFF920F93D8
:1043E0001F93CF93DF93EC01FC0101900020E9F7CC
:1043F00031978F01081B190B8981823771F487E38C
:1044000090E00E94BA020E94210381E08093E603BB
:10441000CDB7DEB7E5E00C946B2C833711F5F02EA9
:104420002C988FE70E944B028EEF800F0E944B0268
:10443000229612E01F1560F02C9A0E940F038AE367
:104440000E94A5028F77811108C00E942103E0CF4E
:1044500089910E944B021F5FEDCF81E00E94E00432
:10446000EECF1092E603D4CFA0E8B0E0EAE3F2E2A8
:104470000C944C2C8091E603882311F1813029F5AE
:1044800080918B0190918C01A0918D01B0918E0152
:104490002091E7032817A1F085E30E94A50281314E
:1044A00029F48AE30E94B6020E94210380918B01C5
:1044B00090918C01A0918D01B0918E018093E703C2
:1044C000C058DF4FE8E00C94682C8FE30E94A502EF
:1044D000F82E87FD1AC02C988FEF0E944B028E0198
:1044E0000F5F1F4F6801E02E8C2D801B8F1588F009
:1044F0002C9A81E080939101802F8E198F1580F086
:104500000E94A2058FEF8093910181E08093E603E2
:10451000D7CF80E00E944B02F60181936F01E4CF78
:10452000F80181918F010E944F05E6CF2091F80894
:104530003091F9082115310521F4209111013091B4
:10454000120180910F0190911001009741F48DB7F5
:104550009EB74091130150911401841B950B2817AD
:10456000390718F4821B930B089580E090E00895BA
:1045700082E40E944F0540E265E08091F808909146
:10458000F9080E94A7050E94A20583E50E944F0535
:1045900040E265E080911101909112010E94A7050F
:1045A0000E94A20585E40E944F0540E265E08091EB
:1045B0000F01909110010E94A7050E94A20586E4B8
:1045C0000E944F05B3DF40E265E00E94A7050C940E
:1045D000A20508951F920F920FB60F9211240BB6E9
:1045E0000F922F933F934F935F936F937F938F938C
:1045F0009F93AF93BF93EF93FF9380916D048823B4
:10460000C9F08BE694E00E94CA078093C600FF9130
:10461000EF91BF91AF919F918F917F916F915F913A
:104620004F913F912F910F900BBE0F900FBE0F90A7
:104630001F9018958091C1008F7D8093C100E7CFB6
:104640001F920F920FB60F9211240BB60F922F9359
:104650003F934F935F936F937F938F939F93AF930A
:10466000BF93EF93FF9382B192E0892782B9609163
:10467000C6008091C0008871811104C088EE93E06B
:104680000E94B307FF91EF91BF91AF919F918F91DE
:104690007F916F915F914F913F912F910F900BBE42
:1046A0000F900FBE0F901F9018959C0197FF04C0AC
:1046B00082E08093C0003F773093C5002093C40010
:1046C00088E98093C10086E08093C20008958091BC
:1046D000C10085FD09C080916D04882329F0809177
:1046E000C10080628093C1000895E091F004F091D0
:1046F000F10481E00995EBCF08950F931F93CF93B9
:10470000DF93EC0100E0802F90E09C01220F331F2B
:10471000280F391FF901E457FF4F1491812FF90138
:10472000E357FF4F25913491112389F0209741F4ED
:1047300080E20E944F05812F0E944F050F5FE3CF5B
:1047400098819113FBCFCE01F901099581E0DF91AA
:10475000CF911F910F910895CF93C09191018093B4
:1047600091018091EA03811104C0C0939101CF911E
:10477000089588EE93E00E94CA072091F2043091D8
:10478000F3048A3011F08D3011F52115310549F30C
:104790002C503B4FF901108284EF94E0AEDF811181
:1047A00011C081EE92E00E94950584EF94E00E9492
:1047B0008A0589EC92E00E94950580E090E09DDFFB
:1047C0000E94A2051092F3041092F204CACF20387E
:1047D000310538F6A9014F5F5F4F5093F3044093C2
:1047E000F2042C503B4FF9018083BBCFE4E6F0E0AC
:1047F00080818B7F80832F9A84B1806B84B92698C7
:1048000080E58CBD8DB581608DBD0895A0E0B0E0E0
:10481000ECE0F4E20C944B2CB82E192F062F6A0111
:1048200079012C988FEF0E944B02CB2DD12F0C0FCA
:104830001D2F111DC017D107B1F4C114D10469F0A7
:1048400080E00E944B02F6018083E114F10429F01C
:1048500080E00E944B02F70180832C9ACDB7DEB72F
:10486000E9E00C94672C80E00E944B028993E2CF30
:10487000EF92FF920F931F93CF93DF93182F062F82
:10488000219852981092890510928A05E898249AE6
:104890002C9A8EE190E00E94DB042C988EE190E04F
:1048A0000E94DB042C9A8DE290E00E94DB0480E3FE
:1048B0000E94B60284E690E00E94DB04113009F405
:1048C00045C08EEF810F823008F03CC0CFEFD2E0C0
:1048D000FE018491813408F455C00130D9F460E0C0
:1048E00087E10E94AC0267E083E00E94AC0264E5CD
:1048F00084E0113009F053C00E94AC0266E785E005
:104900000E94AC0262E082E00E94AC026EE280E0B3
:104910000E94AC021093890500938A0583E30E94EC
:10492000B602EBE7F5E08EE0DF011D928A95E9F72C
:10493000E5E7F5E086E0DF011D928A95E9F784E07E
:104940000E94E004CDB7DEB7E6E0C4C7CCE4D3E014
:10495000FE018491813408F0C0CF82E1E82E84E02A
:10496000F82EFE0131966491FE0184910E94AC0202
:10497000EC16FD0609F4B1CF2296FE018491813434
:1049800080F3ABCF31966491FE0184910E94AC021A
:10499000F3E0C53CDF0709F4A0CF229699CF0E942F
:1049A000AC026DE385E00E94AC0260E585E10E9407
:1049B000AC026BE580E10E94AC0268EF81E1A0CF20
:1049C000CF9385E30E94A502C82F8130D1F78BE3F6
:1049D0000E94B6028AE30E94B60210927B051092F2
:1049E0007D0510927C0510927F0510927E058BE864
:1049F00095E0909381058093800510928205C09385
:104A00008305109284058091890580938505109215
:104A100086051092870560E083E00E94AC0262E0A8
:104A200088E00E94AC0284E30E94B60285E30E9403
:104A3000A5028D30D9F781E080938805CF91089544
:104A4000FF920F931F93CF93DF93F82E192F062F0A
:104A50002C988FE70E944B02CF2DD12F0C0F1D2FCA
:104A6000111DC017D10731F42C9A81E0CDB7DEB704
:104A7000E5E031C789910E944B02F3CF8DE30C949E
:104A8000B6020895A4E0B0E0E7E4F5E206C780913D
:104A90008A05823009F08AC090918905992309F42A
:104AA00085C010918805123009F464C038F41111E2
:104AB0005CC086E30E94B60283DF78C0133009F43D
:104AC0000CC189B18470D82E811182C18091880572
:104AD000823008F47DC11C821B829E012D5F3F4FF6
:104AE000AE014C5F5F4F60917E0580918005909193
:104AF00081058CDE81E0809384058091850581307D
:104B000009F01DC180917B05B8D3AC0163ED77E05E
:104B10008BE895E034D47C018091D307AED38C012F
:104B2000E114F10409F040C082E60E944F05809133
:104B30008505833039F480918705823019F489E541
:104B40000E944F058D2D90E08017910708F438C121
:104B50008091A70185FF06C08B810E9427068C816A
:104B60000E9427060E94A2051FC04A9BAACF8093DD
:104B70008805A7CF199BA5CF20E030E040E050E0AA
:104B800063E0809180059091810540DE209185054C
:104B900080918005909181052130E1F4BE016F5F25
:104BA0007F4F86D2882329F0109288052496E7E06B
:104BB00090C6898180937B0560D3AC0160E081E081
:104BC00072D3BC0190937D0580937C05893492401B
:104BD00080F1EACF233009F068C0FC013081343520
:104BE00009F063C02093860521812D3C09F04BC05C
:104BF00021E020938705828180937B058930A0F294
:104C000090E09C012A503109B90137FF02C0615F71
:104C10007F4FE4E075956795EA95E1F76E5F7F4F0A
:104C2000660F771F0396680F791F70937D05609359
:104C30007C0586E06F3F710511F008F04BC00E94C3
:104C4000AC0260E088E00E94AC0281E080938205C3
:104C500080918005909181050396909381058093C2
:104C6000800580917C0590917D05039790937F0549
:104C700080937E051092830583E08093880567E02A
:104C80000E94AC021ECF2D3309F08ECF1093870502
:104C9000628160937B056C3008F486CF603809F43C
:104CA00083CF70E06D5F7F4FC0CF40E0BE016F5F8C
:104CB0007F4F8AD2811178CF82E08093860581E090
:104CC00080938705898180937B05D7D2AC0160E012
:104CD00080E076CF0E94AC02BBCF199BF2CE8091D0
:104CE0007E0590917F058F3F910509F058F48091E2
:104CF0008205811107C060E088E00E94AC0281E07B
:104D00008093820520E030E040E050E06FE1809148
:104D10008005909181057ADD80917E0590917F05D7
:104D20004F9790937F0580937E05809180059091A9
:104D300081054F969093810580938005C2CE809126
:104D40008605823051F480917B0597D2AC0163EDEA
:104D500077E08BE895E08AD3DECE833009F024CF6C
:104D6000809187058130E9F420917B0530E0C9010D
:104D70000A9797FD0F9644E0959587954A95E1F738
:104D80008C010E5F1F4F000F111F020F131F0F5FCB
:104D90001F4FA80163ED77E08DE895E0EED37C012D
:104DA000BFCE823009F000CF00917B0510E00F5F8D
:104DB0001F4FA80163ED77E08DE895E0AFD4EFCF0A
:104DC0008D52984FFC0180810E942706D394BACE61
:104DD00085E30E94A5028D3009F4E8CE1092880583
:104DE00068CEA0E0B0E0E6EFF6E256C56C01F62E24
:104DF000072FE42EFC01808140D2EC010197823222
:104E0000914008F0D0C080918A05109189058230C8
:104E100009F010E061E08E2D2BDD21E0AE01B6013E
:104E20008F2D902FE21265C055D2AE0161E081E076
:104E30003AD2809375059093760520DEC82FC0770F
:104E400086E3C111A4C08BE30E94B602F0927705FD
:104E50000093780510927A0560917505709176053A
:104E600086E06F3F710511F008F048C00E94AC0267
:104E700060E088E00E94AC02C1E0C0937905C09177
:104E80007505D0917605C134D10510F0C0E4D0E0AD
:104E90006C2F8091770590917805D2DD8091770510
:104EA000909178058C0F9D1F9093780580937705DE
:104EB00080917505909176058C1B9D0B90937605DE
:104EC00080937505892B19F481E080937A0585E339
:104ED0000E94B60201E080917A058823B1F085E353
:104EE0000E94A5028130D9F7111159C080E090E0ED
:104EF00052C016D2AE0161E080E09ACF0E94AC02AF
:104F000062E088E00E94AC02B8CF199B3AC0C09121
:104F10007505D0917605C132D10520F080E2C82F09
:104F2000E0E0DE2F6C2F809177059091780588DD89
:104F300080917705909178058C0F9D1F909378054F
:104F40008093770580917505909176058C1B9D0B5C
:104F50009093760580937505009771F400937A0518
:104F6000809179058111B7CF60E088E00E94AC02A2
:104F700081E080937905AFCF803C910508F0ABCFFD
:104F8000EFCF7CDD8077803709F0A5CF8BE30E94DF
:104F9000B60282E090E0CDB7DEB7E8E099C462E007
:104FA000812F66DCA3CF81E090E0F5CF1F93CF93F4
:104FB000DF93EC018981823761F58A81882329F0AA
:104FC0008337D1F462E081E053DC80918A0582303E
:104FD00009F055C080918905823009F447C08330BB
:104FE00009F447C0813009F047C089EF92E00E9480
:104FF00095050E94A20536C0843719F462E082E06C
:10500000E3CF833619F462E083E0DECF60E080E036
:10501000DBCF8337D1F610E006C06D52784F41E008
:105020000E942C061F5F612F70E09B01220F331F2F
:10503000C90103968C0F9D1FFC014081442331F070
:105040002C0F3D1FF90124812111E7CF8A8141E016
:10505000833719F0843731F442E06BE875E083ED73
:1050600097E0BFDEDF91CF911F91089583EF92E02B
:10507000BECF8DEE92E0BBCF89EE92E0B8CF85EE49
:1050800092E0B5CFCF93DF93EB01DC01EC91AE2F33
:10509000A295AF70B0E0AB5DBE4F8C918883EF708E
:1050A000F0E0EB5DFE4F80818983DF91CF91089521
:1050B000CF93DF93FC01EB01A08131818A2F829590
:1050C0008F7090E08B5E9E4FFC018081AF70B0E0EE
:1050D000AB5EBE4F4C91A32FA295AF70B0E0AB5E1C
:1050E000BE4F2C91E32FEF70F0E0EB5EFE4F60813E
:1050F00091E08F3F09F090E031E04F3F09F030E060
:10510000932B2F3FC1F0911116C06F3FA1F0F0E437
:105110008F9FC001112430E1439FA0011124842BF3
:1051200094E0299F90011124822B862B888380E0B4
:10513000DF91CF91089581E0FBCF0F931F93CF9321
:10514000DF938C01DB0184E141110EC0E801E981AC
:10515000CE2FCF70D0E0CB58DE4F2881E295EF7094
:10516000F0E0EB58FE4F8081E801E881CE2FCF7050
:10517000D0E0CB58DE4F6881E295EF70F0E0EB585D
:10518000FE4FE081D4E0ED9FF0011124962F92951F
:105190009F709E2B9C9330E1639FB0011124982F48
:1051A00096959695962B11969C931197411107C051
:1051B000C0E48C9FC0011124282B12962C93DF9100
:1051C000CF911F910F910895CF93DF93DC01EB01F5
:1051D00011969C91119780E050E0411117C01296F2
:1051E0008C911297E82FEF73F0E0EB5CFE4F50814B
:1051F00024E0929FF0011124EC73FF27829586959D
:1052000086958370E82BEB5CFE4F8081EC9120E16A
:10521000E29FD0011124A073BB2792959F70A92B08
:10522000AB5CBE4F6C91E695E695F0E0EB5CFE4F13
:10523000208191E06F3F09F090E031E02F3F09F0CD
:1052400030E0932B5F3FB9F0911115C08F3F99F07B
:1052500090E1299F90011124262B2883442321F0DB
:1052600080E0DF91CF91089520E1829FC001112459
:10527000852B8983F5CF81E0F4CF282F30E08A3168
:1052800080F0C9014A9754E0959587955A95E1F7C2
:105290008D5F2F5F3F4F90E0880F991F820F931F04
:1052A000089582E0F6CF9A01882331F0CA01611196
:1052B0000196880F991F0895CA01880F991F820FC0
:1052C000931F96958795662311F0019602C020FDE5
:1052D000FCCF0895A0E0B0E0EFE6F9E2DBC2EA011E
:1052E0007C0186E9F70181937F018B016F015B01EE
:1052F000A40EB51EB601F2E0CF0ED11C0A151B0597
:1053000051F4CC0FDD1FCE0DDF1D85E58883CDB7B1
:10531000DEB7EAE0DBC2C801B5DE0F5F1F4FEACFA0
:10532000A0E0B0E0E5E9F9E2B7C2EC017B018A0157
:105330000115110539F00130110541F441E0BE01BC
:10534000C701FBDECDB7DEB7E8E0C2C2023011050F
:1053500039F440E0BE01C701F0DE85E58B83F2CF72
:105360006E0183E0C80ED11C40E0BE01C701E5DE3E
:1053700082E0E80EF11C02501109E601D9CFA0E04D
:10538000B0E0E4ECF9E280C25C016B013A0100E0BC
:1053900010E0E12CF12CC0E0D0E0812C912C92E1C6
:1053A000492E512C8614970431F480E090E0CDB75B
:1053B000DEB7E0E185C2B601C5017ADE811150C0D9
:1053C000C301881999090297A1F401151105E1F5A6
:1053D0009E0120953095232F3327F601808190E0A0
:1053E0002817390709F03FC001E010E0E12CF12C4B
:1053F00021C08AE08816910458F0C4010A97B201CE
:105400001AD29C0191E0232B09F090E0E92EF12CB7
:1054100001151105D9F0C095D095DD27F6018081E1
:1054200090E0C817D907F9F400E010E0F0E0CF2FC2
:1054300080E0D82FFFEF8F1A9F0A82E0A80EB11CE0
:10544000EFEFCE1ADE0AAECF7801E5CFE114F1041A
:1054500009F0BECFF6016081CE01DCD1EC01EACFCC
:1054600081E090E0A4CF82E090E0A1CFA0E0B0E0A6
:10547000EBE3FAE20BC27C018B016A01612C712C17
:1054800022E1822E912CC114D10419F480E090E025
:1054900010C080E0C82FE0E0DE2FF1E0CF16D1048D
:1054A000C1F441E0B801C7018FDE882331F081E00B
:1054B00090E0CDB7DEB7EEE005C2C095D095DD2710
:1054C000F801808190E0C817D90701F382E090E0ED
:1054D000F0CF40E0B801C70177DE8111E8CFF2E0FC
:1054E000CF1AD108530182E0A80EB11CC114D10417
:1054F00051F0EBE0AE16B104F0F0C3010A97B4012D
:105500009AD1892BC1F4C095D0959E013327F8011B
:10551000818190E028173907C9F6CD2FDD278081DA
:1055200090E0C817D90791F683E0E80EF11C0E5FF2
:105530001F4F3501A8CFF8016081CE01F1E0CF16F1
:10554000D104A9F467D1EC019C0120953095232F5B
:105550003327F801818190E02817390709F0B6CF89
:10556000F3E0EF0EF11C0E5F1F4F350196CF52D1C5
:10557000F80161814FD1EC01F3CFA4E0B0E0E2EC9F
:10558000FAE280C18C017B011A019A8389835B0155
:105590006C012AE0C20ED11C80E090E0A981BA81A2
:1055A0006D91BA83A98336D1E981FA81319720813F
:1055B000F50121935F0129813A812C153D0571F791
:1055C000D8011A964C911A97809590951A962D911C
:1055D0003C911B973227232732278217930729F004
:1055E00082E090E02496E2E169C1F70142871B96D0
:1055F0008C918387C1010C9762E170E01CD14B0153
:105600006801BCE0CB0ED11C5701ECE0AE0EB11C22
:105610002CE030E03C832B838114910449F48B818E
:105620009C818215930509F040C080E090E0DACFBC
:10563000BA82A9823601412C512C80E090E0D3013E
:105640006D913D01E7D0F30131972081E981FA8125
:105650002193FA83E983FFEF4F1A5F0A20E1421694
:10566000510469F7D60150964C91509780959095CA
:1056700051962C915197342F8217930709F0B0CF90
:10568000F501408B51968C91818B2B813C812E5E54
:105690003F4F3C832B8331E0831A910842E1C40ED3
:1056A000D11C52E1A50EB11CB7CFCB80DC80C00E5F
:1056B000D11E80E090E0A2E02A1A3108D6016D9157
:1056C0006D018B809C80BFEF8B1A9B0AEB81FC8164
:1056D000E215F305B8F0F801E80DF91D80959095F5
:1056E0002081362F8217930709F07ACF2B813C81D6
:1056F0002E0D3F1DD9016C938081F701E80DF91D36
:10570000808393CF87D0F60131972081EB81FC8194
:10571000EE0DFF1D20839C828B82D0CFA0E0B0E0F5
:10572000E3E9FBE2B5C0EC018B017A014138510598
:1057300008F45EC06C014B015C018EE7A80EB11C41
:1057400080E090E0F60161916F0164D0F60131973D
:105750002081F40121934F01AC14BD0499F7F501A8
:1057600040818095909520813181322723273227EF
:105770008217930731F082E090E0CDB7DEB7ECE01E
:10578000A3C0F801E258FF4F4083FE01E158FF4FEC
:105790008081F801E158FF4F808380E8C82ED12C2A
:1057A0004E018C0C9D1C80E090E05701F2E0AF1A96
:1057B000B108CA14DB04F8F0FE01EA0DFB1D4081BC
:1057C00021E0E21AF108CE0DDF1D80959095288129
:1057D000342F8217930779F6F801EA0DFB1D4083F9
:1057E00088810E0D1F1DF801808380E090E0C5CFF9
:1057F000C12CD12CD5CFF40161914F010BD0F40114
:1058000031972081F801EC0DFD1D2083FFEFCF1AA9
:10581000DF0ACFCF28E0492F55274627880F991F49
:1058200047FF04C035E683273DE39327660F2150E9
:105830002111F1CF0895AA1BBB1B51E107C0AA1F7C
:10584000BB1FA617B70710F0A61BB70B881F991F21
:105850005A95A9F780959095BC01CD01089597FBC5
:10586000072E16F4009406D077FD08D0E4DF07FC7D
:1058700005D03EF4909581959F4F08957095619560
:105880007F4F08952F923F924F925F926F927F9237
:105890008F929F92AF92BF92CF92DF92EF92FF9240
:1058A0000F931F93CF93DF93CDB7DEB7CA1BDB0BEC
:1058B0000FB6F894DEBF0FBECDBF09942A88398891
:1058C00048885F846E847D848C849B84AA84B98498
:1058D000C884DF80EE80FD800C811B81AA81B981A4
:1058E000CE0FD11D0FB6F894DEBF0FBECDBFED01B8
:1058F00008950F931F93CF93DF939C01029710F4A9
:1059000022E030E0E091F608F091F70890E080E0C6
:10591000B0E0A0E0309791F4009709F445C0821BF5
:10592000930B84309105B8F58A819B8161157105CF
:1059300069F1FB0193838283FE0111C04081518193
:105940000281138142175307F0F04217530799F46D
:10595000109761F012960C93129713961C9332963F
:10596000CF01DF91CF911F910F9108950093F60819
:105970001093F708F4CF009719F04817590718F457
:10598000CA01BD01EF01DF01F801C4CF9093F70810
:105990008093F608D1CFFE01E80FF91F21933193D0
:1059A000029799838883DCCF8091F8089091F90859
:1059B000892B41F480911101909112019093F90883
:1059C0008093F80880910F0190911001009741F4A5
:1059D0008DB79EB74091130150911401841B950B14
:1059E0004091F8085091F9084817590708F0B8CFC6
:1059F000841B950B8217930708F4B2CFB9016E5F31
:105A00007F4F8617970708F4ABCF640F751F70930D
:105A1000F9086093F808FA0121933193A1CFCF934D
:105A2000DF939C010097E9F0FC0132971382128208
:105A3000C091F608D091F708DE0190E080E0209751
:105A4000A1F480819181280F391F8091F8089091ED
:105A5000F9088217930709F067C0F093F908E093FB
:105A6000F808DF91CF910895DA01AE17BF0708F06B
:105A700041C012964D915C911397CD01411551058E
:105A800099F7DC011396FC93EE9312974D915D917B
:105A9000A40FB51FEA17FB0781F4208131812E5F27
:105AA0003F4F240F351FDC0111963C932E9322812A
:105AB000338113963C932E931297B0E0A0E08A8135
:105AC0009B810097B1F5FE0181919191E80FF91F3B
:105AD0008091F8089091F9088E179F0711F610979A
